:020000040800F2
:10000000E80F002085020008CD020008CD0200089C
:10001000CD020008CD020008CD020008000000005B
:10002000000000000000000000000000CD020008F9
:10003000CD02000800000000CD020008CD0200083B
:10004000CD020008CD020008CD020008CD02000854
:10005000CD020008CD020008CD020008CD02000844
:10006000CD020008CD020008CD020008CD02000834
:10007000CD020008CD020008CD020008CD02000824
:10008000CD020008CD020008CD02000800000000EB
:10009000000000000000000000000000CD02000889
:1000A000CD0200083D100008CD020008CD02000876
:1000B000CD020008BD2D000800000000CD020008A0
:1000C000CD0200080000000000000000CD02000882
:1000D0000000000035410008CD02000800000000CB
:1000E000CD020008CD020008CD020008000000008B
:1000F0000000000000000000000000000000000000
:1001000000000000000000000000000000000000EF
:100110000000000000000000CD0200084D1700089C
:100120005FF808F1014B1868704700BF000000201D
:10013000084B10B598420BD050B1074B074C1B68C9
:1001400020600BB11830984723681B6903B19847AA
:1001500010BD00BFDC4200086C020020000000203F
:10016000024B1860024B1868FFF7E2BF6C020020D8
:100170000000002008B5054B054A1B68934203D0D8
:1001800013B15B6903B1984708BD00BF00000020B0
:10019000DC420008224A038890429BB212D002F54A
:1001A000006290420ED0B0F1804F0BD0A2F5983291
:1001B000904207D002F58062904203D002F580623F
:1001C000904203D14A8823F070031343154A9042AA
:1001D00008D002F58062904204D023F44073CA88AC
:1001E0009BB2134303808B8883850B8803850C4B5C
:1001F00098420FD003F5006398420BD003F540639B
:10020000984207D003F58063984203D003F58063DA
:10021000984201D10B7A038601238382704700BF85
:10022000002C0140001000404FF6FF738380002334
:100230000380C380438003727047038819B19BB267
:1002400043F0010303E023F001031B041B0C0380B4
:10025000704783899BB20AB1194301E023EA010187
:1002600081817047038A828911EA030092B203D028
:1002700011420CBF002001207047C94389B201829E
:100280007047000008B50C4A0C4B0D4903E052F8CA
:10029000040B43F8040B8B42F9D30A480A494FF088
:1002A00000028842B8BF40F8042BFADB00F010F9D6
:1002B000BDE8084002F0D2B93A540008000000201E
:1002C0006C0200206C020020E80B0020FEE700001A
:1002D000F8B52D4D0746286803F00CF92B49064662
:1002E0000022286803F0A0FF304603F05DFF2B6872
:1002F00011210024594304E00A19AA18013413718A
:10030000E4B2335D204A002BF6D113681121594322
:10031000081910183A25057104E00F2C09D80D1999
:100320005519287117F8010B0134E4B20028F4D1F3
:100330000DE0112202FB034213498A1800211171BA
:1003400005E01819081801340271E4B203E0112223
:100350000D49534320220F2C0B4DF2D92046002289
:100360000B4903F061FF2B68112202FB03440133A8
:100370000022362B2C4428BF134622712B60BDE887
:10038000F84003F03FBA00BF94060020F442000892
:10039000F842000810B5384C00222068374903F0B5
:1003A00043FFA0680022364903F03EFF2069002287
:1003B000344903F039FFA0690022334903F034FFC8
:1003C000206A0022314903F02FFFA06A0022304941
:1003D00003F02AFF206B00222E4903F025FFA06BBB
:1003E00000222D4903F020FF206C00222B4903F04E
:1003F0001BFFA06C00222A4903F016FF206D00228B
:10040000284903F011FFA06D0022274903F00CFFDB
:10041000206E0022254903F007FFA06E0022244928
:1004200003F002FF206F0022224903F0FDFED4F802
:1004300088000022204903F0F7FEA06F1F49002228
:1004400003F0F2FED4F8800000221D4903F0ECFE18
:10045000D4F8900000221B4903F0E6FED4F898007F
:100460000022194903F0E0FED4F8A0001749002249
:10047000BDE8104003F0D8BE04000020FD42000893
:10048000104300082E4300084D4300086A4300084B
:1004900088430008A5430008C3430008E14300085F
:1004A000FF430008174400082B4400084444000898
:1004B000514400085E4400086B4400087944000879
:1004C0008B4400089E440008BA440008E244000837
:1004D000314B82B01A6842F001021A6059682F4A03
:1004E0000A405A601A6822F0847222F480321A603C
:1004F0001A6822F480221A605A6822F4FE025A60B6
:100500004FF41F029A600022DA62009201921A6888
:1005100042F480321A601A6802F400320192009AA2
:1005200001320092019A1AB9009AB2F5A06FF2D185
:10053000194B1B6813F4003318BF01230193019B6F
:10054000012B23D1144B5A685A605A685A605A6872
:100550005A605A6822F47C125A605A6842F498121F
:100560005A601A6842F080721A6019680A4A890152
:10057000FBD5536823F003035360536843F0020331
:100580005360536803F00C03082BFAD1044B4FF06F
:1005900000629A6002B07047001002400000FFF84D
:1005A00000ED00E084B0ADF80600BDF806304FF471
:1005B000FA629BB2534301E0039B013B0393039B0D
:1005C000002BF9D104B0704784B0ADF80600BDF837
:1005D00006309BB25B0001E0039B013B0393039B4E
:1005E000002BF9D104B0704710B5074C4FF480438D
:1005F00023610220FFF7E8FF4FF0804302202361D0
:10060000BDE81040FFF7E0BF000C014070B50F4C93
:100610004FF07C454FF4805625612661FFF7E4FFDB
:100620000120FFF7BFFF25612661FFF7DDFF0120F5
:10063000FFF7B8FF4FF4806325612361FFF7D4FF14
:100640000120BDE87040FFF7ADBF00BF000C0140C6
:10065000254B4FF07C4270B504460D461A6111B12E
:100660004FF400421A61E20644BF4FF400521A618F
:100670001D4B14F0200F1CBF4FF480521A61660608
:1006800044BF4FF400621A61174E14F0800F1CBF74
:100690004FF480633361FFF7A7FF4FF07053E0071B
:1006A000336103D5104B4FF400521A61A10703D5F3
:1006B0000D4B4FF480521A61620703D50A4B4FF479
:1006C00000621A61230703D5074B4FF480621A6159
:1006D000FFF78AFF0220FFF765FF1DB1024B4FF0C5
:1006E00000421A6170BD00BF000C0140034610B902
:1006F000082019460BE021B90AB90C2003E00D20AF
:1007000005E012B90E20114601E00F200021FFF78D
:100710009FBF01200021FFF79BBF08B56420FFF7B2
:1007200041FFFFF773FF012001460022FFF7DEFFC4
:10073000BDE80840FFF7EDBFC0B20121FFF788BF59
:10074000054B1870597011B940F0800002E040F07C
:10075000C0000021FFF77CBF760200202DE9F8439E
:1007600089460646DFF86C800127194C29E0B2283B
:1007700001D1492011E0AF2801D103200DE0DE288E
:1007800002D10120014609E0AA2801D1022004E09B
:10079000BF2884BF404410F8C00C0121FFF758FF68
:1007A000237865780133DBB2237055B9082B08D163
:1007B000B9F1020F05D128460121FFF7C1FF2570CD
:1007C000677016F8010B0028D1D1BDE8F88300BF8F
:1007D00076020020FC01002070B506460D4600247C
:1007E0000CE00121FFF734FF012D06D1E3B2072B06
:1007F00003D100202946FFF7A3FF0134305D002814
:10080000EFD170BDC00040F0400038B5C0B20D4619
:100810000021FFF71DFF0024285D01210134FFF7AF
:1008200017FF082CF8D180200021BDE83840FFF7E1
:100830000FBF2DE9F3410025042415271F264FF093
:100840000E08284669468DF800408DF803408DF863
:1008500005408DF801708DF802808DF804508DF8F8
:1008600006608DF80760FFF7CDFF012069468DF81F
:1008700002408DF806408DF800708DF801808DF8EB
:1008800003508DF804508DF805508DF80760FFF780
:10089000B9FF022069468DF801408DF805408DF8BA
:1008A00000508DF802808DF803708DF804508DF89B
:1008B00006608DF80760FFF7A5FF032069468DF8F5
:1008C00000408DF803408DF806408DF801808DF8CA
:1008D00002708DF804508DF805508DF80760FFF711
:1008E00091FF204669468DF800408DF803408DF851
:1008F00004408DF807408DF801808DF802708DF866
:1009000005708DF80680FFF77DFF02238DF800301B
:100910000A238DF803308DF804301C2307248DF84A
:1009200005308DF806300520082369468DF807301C
:100930008DF801408DF80240FFF764FF0F238DF81A
:10094000003005238DF801308DF802308DF803302A
:100950008DF804300620092369468DF806308DF89D
:1009600005708DF80750FFF74DFF11238DF800300B
:100970008DF801308DF802302046012369468DF84C
:1009800003608DF804308DF805308DF806308DF851
:100990000750FFF737FFBDE8FC810221FFF7DEBEFD
:1009A00010B5044608461146FFF7CAFE204602214C
:1009B000BDE81040FFF7D2BE08B5364B5A6822F4A6
:1009C00040725A605A6842F400725A605A6822F4BF
:1009D00040625A605A6842F480625A605A6822F44F
:1009E00040525A605A6842F400525A605A6822F4DF
:1009F00040425A605A6842F480425A605A6822F46F
:100A000040325A605A6842F400325A605A6822F4FE
:100A100040225A605A6842F480225A605A6822F48E
:100A200040125A605A6842F400125A605A6822F41E
:100A300040025A605A6842F480025A605A6822F0B2
:100A400040725A605A6842F000725A605A6822F046
:100A500040625A605A6842F080625A605A6822F0D6
:100A600040525A605A6842F000525A605A6822F066
:100A700040425A605A6842F080425A60FFF74DFE89
:100A8000FFF747FE002101200A46BDE80840FFF7B6
:100A90002DBE00BF000C0140CB782DE9F04303F0E0
:100AA0000F02DB0648BF8B780E8848BF1A4316F04A
:100AB000FF0F1FD0046800234FF001084FF00F0C08
:100AC00008FA03F707EA0605BD420FD19F000CFAAA
:100AD00007F902FA07F724EA09043C43CF78282FE4
:100AE00001D1456102E0482F08BF05610133082BA1
:100AF000E6D104600E88FF2E21D9446800234FF010
:100B000001084FF00F0C03F1080708FA07F707EA8E
:100B10000605BD420FD19F000CFA07F902FA07F74C
:100B200024EA09043C43CF78282F01D1456102E033
:100B3000482F08BF05610133082BE4D14460BDE8AC
:100B4000F083836819420CBF002001207047000029
:100B500008B503F013FA0248BDE80840FFF7B8BB38
:100B60001C4E000808B503F04FFA0248BDE80840E3
:100B7000FFF7AEBB214E000818B100210A46FFF76F
:100B80000FBF704784B0ADF80600BDF806304FF4D3
:100B900016629BB2534301E0039B013B0393039B0B
:100BA000002BF9D104B0704708B507200121FFF7E9
:100BB000C7FDFF200121FFF74BFD03F0DFF9044BD8
:100BC000C8209A68034B1A60BDE80840FFF7DABFF7
:100BD00054000020540A0020022808B5134B0AD103
:100BE0001A881349013292B209681A8012B28A42F5
:100BF0000CD3002209E0012808D11A88013A92B2E8
:100C00001A80120402D50A4A12681A80002001468E
:100C1000FFF796FD054B1120B3F90020054B00FBB3
:100C20000230BDE80840FFF7B8BE00BF78020020E0
:100C3000940600209806002010B5044600200146C6
:100C4000FFF77EFD0A4B188800B202F053FCFFF755
:100C5000A4FE0848FFF7A1FE022C08D1064B1A8813
:100C6000064B12B29A60BDE8104003F0CDB910BD3A
:100C700056060020374E00087002002004000020B5
:100C800010B5044600200146FFF75AFD0A4B1888AC
:100C900000B202F02FFCFFF780FE0848FFF77DFE50
:100CA000022C08D1064B1A88064B12B21A61BDE815
:100CB000104003F0A9B910BD56060020374E0008B9
:100CC000720200200400002010B5044600200146F6
:100CD000FFF736FD1548FFF760FE022C24D103F024
:100CE0008BF803F04FF8044600200146FFF728FD7B
:100CF0000F48FFF752FE4FF4FA60FFF743FF002062
:100D00000146FFF71DFD012C05D10A48FFF745FEFE
:100D10004FF4FA6004E00848FFF73FFE4FF47A60B2
:100D2000BDE81040FFF72EBF10BD00BF464E0008C3
:100D3000574E0008684E0008794E0008022810B58A
:100D40000E4C02D12369013303E0012802D123694B
:100D5000013B236100200146FFF7F2FC206902F00D
:100D6000C9FBFFF71AFE0648FFF717FE23694FF489
:100D700061625A43034B1A6010BD00BF540000204B
:100D80008A4E0008400A0020022810B50D4C02D1FE
:100D9000A3690A3303E0012802D1A3690A3BA361D6
:100DA00000200146FFF7CCFCA0690A23B0FBF3F05A
:100DB000012102F0D9FBFFF7F0FD0348BDE8104028
:100DC000FFF7EBBD540000208F4E0008022810B53D
:100DD0000D4C02D1236A0A3303E0012802D1236AB1
:100DE0000A3B236200200146FFF7AAFC206A0A237F
:100DF000B0FBF3F0012102F0B7FBFFF7CEFD034893
:100E0000BDE81040FFF7C9BD540000208F4E000818
:100E1000022810B50B4C02D1A36A013303E001286C
:100E200002D1A36A013BA36200200146FFF788FCC0
:100E3000A06A02F05FFBFFF7B0FD0348BDE8104079
:100E4000FFF7ABBD54000020944E0008022810B5F7
:100E50000B4C02D1236B013303E0012802D1236B39
:100E6000013B236300200146FFF76AFC206B02F080
:100E700041FBFFF792FD0348BDE81040FFF78DBD31
:100E800054000020944E0008022838B51A4C02D1B4
:100E9000A36B013303E0012802D1A36B013BA363E1
:100EA00000200146FFF74CFCA06B02F023FBFFF78C
:100EB00074FD1248FFF771FD206A0A250121B0FB7D
:100EC000F5F002F051FBFFF768FD0D48FFF765FDF7
:100ED000236AA06B64225843B0FBF2F01B1AB3FBE9
:100EE000F5F0012102F040FBFFF757FD0548BDE892
:100EF0003840FFF752BD00BF540000209D4E00084F
:100F0000A04E00088F4E000808B5084B1A68084B21
:100F10009B689A4209D107200121FFF711FCFF20AD
:100F20000121BDE80840FFF793BB08BD540A00202B
:100F30005400002010B5044600200146FFF700FCD5
:100F4000022C194B06D19A680132082A9A6009D1FD
:100F5000012206E0012C05D19A68013A9A600AB98B
:100F600007229A60104A9368013B062B18D8DFE8E5
:100F700003F00406080A0C0E10000C480AE00C48A6
:100F800008E00C4806E00C4804E00C4802E00C487D
:100F900000E00C48FFF701FDBDE81040FFF7B4BFCB
:100FA0000123936010BD00BF54000020A34E000831
:100FB000B44E0008C54E0008D64E0008E74E0008A3
:100FC000F84E0008094F000810B515481021FFF72A
:100FD000B8FD58B112482021FFF7B3FD40B11048C9
:100FE0004021FFF7AEFDB0B9012202E0032200E08C
:100FF00002220C4B40F2DC5059880CB2844203DDD3
:1010000040F2B451598004E0013189B21429598069
:1010100004D11A7110BD034B00225A8010BD00BFCD
:10102000000C014078020020034B0022187900B127
:101030009A601A71704700BF7802002038B51F48C7
:101040000121FFF70FF9002836D001211B48FFF7D7
:1010500014F91B4B1A8812B2002A07DC194CE568F8
:10106000188800B202F0EAFA4519E560144B1A88B4
:1010700012B2012A07DD134C2569188800B202F06C
:10108000DDFA451925610F4B1A7D012A02D19A69B3
:1010900001329A611B7F0B4A012B02D1136A013383
:1010A0001362084B93F82420012A02D19A6A013274
:1010B0009A62DA6A0132DA6238BD00BF0044014048
:1010C0005606002078020020034B00229A6201227B
:1010D00083F82420704700BF78020020034B0022D1
:1010E0009A62012283F82420704700BF7802002012
:1010F00038B504464FF46160B4FBF0F002F0FAF941
:10110000054602F0A1FA012803D81E480121FFF785
:1011100063FB28460121FFF75FFB01211A48FFF717
:101120005BFB3C23B4FBF3F2B2FBF3F003FB1020B8
:1011300002F0E0F9054602F087FA012803D81148C9
:101140000121FFF749FB01212846FFF745FB01215B
:101150000D48FFF741FB3C23B4FBF3F003FB1040C9
:1011600002F0C8F9044602F06FFA012803D80548D6
:101170000121FFF731FB20460121BDE83840FFF790
:101180002BBB00BF1A4F0008A94F000838B5044612
:101190004FF46160B4FBF0F002F0ACF9054602F0E8
:1011A00053FA012803D812480121FFF715FB01214A
:1011B0002846FFF711FB01210E48FFF70DFB3C23EA
:1011C000B4FBF3F4B4FBF3F003FB104002F092F92C
:1011D000044602F039FA012803D805480121FFF737
:1011E000FBFA20460121BDE83840FFF7F5BA00BF01
:1011F0001A4F0008A94F0008094B4FF480321A61BA
:101200004FF400321A614FF08072A3F580631A61C7
:10121000044B002283F8302083F83120704700BF50
:10122000000C014078020020074A01234FF40031EE
:1012300013611161054A82F8303082F83130044B75
:101240004FF480721A617047000C01407802002050
:101250000008014038B52D4B0122054683F83220A5
:10126000FFF7E2FF022D2A4C02D12388013303E06D
:10127000012D02D12388013B238000200146FFF786
:101280005FFA0221208802F06FF9FFF786FB214800
:10129000FFF783FB204B214A1888138880B21BB2CA
:1012A000002B21881E4B01DC46220AE0401A1188DF
:1012B00002B222EAE27242F21070424309B292FB99
:1012C000F1F2174C1A64206C02F014F9FFF765FB79
:1012D0001448FFF762FB144B19880F4B89B21A8828
:1012E0000E4B92B2188800B2002801DC0A230AE0F3
:1012F000891A1A880BB223EAE37342F210714B4346
:1013000012B293FBF2F3A36438BD00BF7802002051
:101310001C020020A04E0008740200205606002087
:10132000040000201C4F00085006002038B5174B61
:101330000122054683F83220FFF776FF022D144C78
:1013400002D1A36B013303E0012D02D1A36B013B5A
:10135000A36300200146FFF7F3F9A06B02F0CAF87F
:10136000FFF71BFB0B48FFF718FB00200121FFF7DD
:10137000E7F9094B0221188880B202F0F5F8FFF76F
:101380000CFB0648BDE83840FFF707BB7802002099
:1013900004000020164F000854060020274F0008C4
:1013A00038B5174B0122054683F83220FFF73CFF82
:1013B000022D144C02D1236B013303E0012D02D125
:1013C000236B013B236300200146FFF7B9F9206B33
:1013D00002F090F8FFF7E1FA0B48FFF7DEFA002081
:1013E0000121FFF7ADF9094B0221188880B202F004
:1013F000BBF8FFF7D2FA0648BDE83840FFF7CDBA90
:101400007802002004000020164F00085806002033
:10141000274F000838B5174B0122054683F83220C4
:10142000FFF702FF022D144C02D1A36A013303E03F
:10143000012D02D1A36A013BA36200200146FFF700
:101440007FF9A06A02F056F8FFF7A7FA0B48FFF7FA
:10145000A4FA00200121FFF773F9094B0221188833
:1014600080B202F081F8FFF798FA0648BDE83840EC
:10147000FFF793BA7802002004000020164F0008FE
:1014800050060020274F000838B5174B01220546AB
:1014900083F83220FFF7C8FE022D144C02D1A36955
:1014A000013303E0012D02D1A369013BA3610020B8
:1014B0000146FFF745F9A06902F01CF8FFF76DFA45
:1014C0000B48FFF76AFA01210020FFF739F9094BB1
:1014D000188800B202F00EF8FFF75FFA0648BDE880
:1014E0003840FFF75ABA00BF7802002004000020FD
:1014F000164F0008560600202B4F000870B52D4DE2
:1015000006460124002085F832400146FFF718F90D
:1015100095F83050F5B9284B0221188880B202F0B6
:1015200023F8FFF73AFA2548FFF737FA294607204C
:10153000FFF706F9224B188800B201F0DBFFFFF736
:101540002CFA2048FFF729FA05202146FFF7F8F882
:101550001D481DE01D4B0221188880B202F004F8DE
:10156000FFF71BFA1548FFF718FA00210720FFF7CD
:10157000E7F8134B188800B201F0BCFFFFF70DFA33
:101580001348FFF70AFA06202146FFF7D9F8114859
:10159000FFF703FA022E0BD1064B93F830301BB93C
:1015A000BDE87040FFF740BEBDE87040FFF724BEC5
:1015B00070BD00BF7802002050060020274F0008B1
:1015C00056060020304F0008364F0008580600200D
:1015D0003B4F0008424F0008034B93F831300BB9E2
:1015E000FFF722BEFFF708BE78020020084B4FF439
:1015F00080321A6102221A61064B012283F83020E0
:1016000083F83320044B4FF400621A61704700BF27
:10161000000C0140780200200008014008B5FFF7E7
:10162000EBFDBDE80840FFF7E1BF000038B5174B00
:101630000122054683F83220FFF7F0FF022D144CFB
:1016400002D1236A013303E0012D02D1236A013B59
:10165000236200200146FFF773F8206A01F04AFF79
:10166000FFF79BF90B48FFF798F901210020FFF7DE
:1016700067F8094B188800B201F03CFFFFF78DF9BD
:101680000648BDE83840FFF788B900BF780200205F
:1016900004000020164F0008560600202B4F0008BB
:1016A000084B4FF480321A614FF400321A61064B36
:1016B000002283F8302083F83320044B4FF000627F
:1016C0001A617047000C01407802002000080140B8
:1016D00008B5FFF7E5FFBDE80840FFF78DBD000046
:1016E00038B5144C144D23889BB2B3F5FA6F1DD254
:1016F000FFF7EEFFAB78DBB90123AB700F4D104B5A
:10170000EA681A6102F00AFCE86801F0F3FEFEF7ED
:10171000DFFD0C48FEF7DCFD20880B4980B2022279
:1017200002F082FD0A20FFF72DFAF5E70023AB70E7
:1017300038BD00BF540600201C02002078020020A3
:1017400094000020464F0008504F000808B5084894
:101750000121FEF787FD48B105480121FEF78DFD07
:10176000FFF732FCBDE80840FFF7BABF08BD00BF75
:101770000014004038B56F4B012193F83420044623
:1017800083F832103AB91A7583F83410197783F850
:101790003520DA601A62684B68491A88896992B202
:1017A000644B8A42DA8601D3002205E093F83520A3
:1017B0000AB9DA6A9A63012283F83520DA6A9B6BE8
:1017C0005C4DD31A032B06D995F835301BB1FFF7C2
:1017D0007FFF00232B77022C564B08D193F8303033
:1017E00013B9FFF71BFF0FE0FFF772FF0CE0012CAE
:1017F0000AD193F83C20013AD2B2110683F83C207A
:1018000002D5032283F83C204A4C94F93C0000287E
:1018100035D10146FEF794FF474B0221188880B26C
:1018200001F0A2FEFFF7B9F84548FFF7B6F8454BBF
:10183000188800B201F05EFEFFF7AFF84248FFF7EC
:10184000ACF894F8303013B90720012105E094F882
:101850003D3007200121052B03D8FEF771FF022040
:1018600002E0FEF76DFF03200121FEF765FF314B1B
:1018700093F83D200A2A02D9002283F83D202D4BFF
:1018800093F93C40012C13D100200146FEF758FF8C
:101890002E48FFF782F8294B214698690A23B0FBAE
:1018A000F3F001F061FEFFF778F82948FFF775F8CB
:1018B000204C94F93C30022B1AD100200146FEF74F
:1018C0003FFF2448FFF769F8234B98684FF46163A2
:1018D000B0FBF3F001F00EFEFFF75FF81F48FFF7D3
:1018E0005CF803200121FEF72BFF206CFFF74EFC74
:1018F000104C94F93C50032D1BD100200146FEF7FB
:101900001FFF1748FFF749F8E0684FF46163B0FB29
:10191000F3F001F0EFFDFFF740F81248FFF73DF854
:1019200028460121FEF70CFF206ABDE83840FFF78A
:101930002DBC38BD7802002058060020540000203D
:10194000A04E000856060020584F0008614F0008BE
:101950008F4E00086D4F000894000020704F000863
:10196000434F0008794F000808B5274B0122022891
:1019700083F8322007D193F8303013B9FFF74EFEC9
:1019800001E0FFF7A5FE00200146FEF7D9FE1F4B40
:101990000221188880B201F0E7FDFEF7FEFF1C4827
:1019A000FEF7FBFF1B4B188800B201F0A3FDFEF70A
:1019B000F4FF1948FEF7F1FF134B93F8302012B9EA
:1019C0000620012105E093F83D3006200121052B7A
:1019D00007D8FEF7B5FE02200121FEF7ADFE02207A
:1019E00006E0FEF7ADFE03200121FEF7A5FE032071
:1019F0000121FEF7A1FE044B93F83D200A2A02D9EB
:101A0000002283F83D2008BD7802002058060020FF
:101A1000A04E0008560600203B4F000808B5FFF70F
:101A20003FFEBDE80840FFF7FFBB000070B504466D
:101A300000200146FEF784FE6C4B012293F834101F
:101A400083F832201D4619B983F83420FFF73CFB98
:101A5000AA6A674D654EAB6A9A420DD8FFF7DEFF62
:101A6000644B1A882B6A92B29A4205D9FFF736FB6B
:101A7000B26AAB6AD318B3625C4B5D4D996AAA6ACD
:101A80001E46914209D9FFF7C9FD5A4B1A88AB6926
:101A900092B29A4201D2FFF721FB554BB26A196B01
:101AA0009B6ACB189A4201D9FFF718FB022C4F4BC7
:101AB00009D193F83C200132D2B2032A83F83C20AA
:101AC0000ED100220AE0012C0AD193F83C20013A01
:101AD000D2B2100683F83C2002D5022283F83C20C3
:101AE000424D95F93C40002C32D120462146FEF76C
:101AF00027FE404B0221188880B201F035FDFEF729
:101B00004CFF3D48FEF749FF3C4B188800B201F0FE
:101B1000F1FCFEF742FF3A48FEF73FFF06200121A5
:101B2000FEF70EFE05200121FEF706FE95F8315066
:101B30000720012D05D12946FEF702FE2046294641
:101B400004E00121FEF7FCFD02200121FEF7F4FD77
:101B5000264B93F93C40012C23D10020244D014613
:101B6000FEF7EEFD286901F0C5FCFEF716FF2548DB
:101B7000FEF713FFA8690A262146B0FBF6F001F034
:101B8000F3FCFEF70AFF1C48FEF707FF286A214610
:101B9000B0FBF6F001F0E8FCFEF7FFFE1A48FEF796
:101BA000FCFE124C94F93C30022B1DD10020104D4C
:101BB0000146FEF7C5FDA86A01F09CFCFEF7EDFEAC
:101BC0001248FEF7EAFE286B01F094FCFEF7E5FEF2
:101BD0000F48FEF7E2FE03200121FEF7B1FD206A67
:101BE000BDE87040FFF7D2BA70BD00BF7802002098
:101BF0005400002058060020A04E00085606002081
:101C0000824F0008C15200088A4F0008C74F0008E1
:101C1000914F0008F8B55C4D012795F834600446F3
:101C200085F83270E6B9594B1A88594B92B29B69C4
:101C30009A4207D385F84470FFF7F0FC2E62EE60FD
:101C40002F7706E0AE6185F844602E612F75FFF7AF
:101C5000E5FE4D4B012283F834204E4802F0A4FAF1
:101C6000494B4FF0000293F84410012922D11A7514
:101C70001977464946480988806989B28142D986E0
:101C800005D293F835200AB9DA6A9A63012283F8FB
:101C90003520DA6A9B6B3C4DD31A032B29D995F872
:101CA000353033B3FFF7BAFE0023AB6185F844301B
:101CB0002B611EE01A7701221A759A69364B1B6850
:101CC0009A4206D8314B1A88314B92B21B6A9A421B
:101CD0000FD9FFF7A3FC2C4B0122196A83F844208B
:101CE000002219641A62D8682C4983F8352088606C
:101CF000DA60022C244B09D193F83C200132D2B295
:101D0000052A83F83C200ED100220AE0012C0AD1DA
:101D100093F83C20013AD2B2140683F83C2002D555
:101D2000042283F83C20184D95F93C40002C44D106
:101D300020462146FEF704FD144B0221188880B28C
:101D400001F012FCFEF729FE1548FEF726FE154BA2
:101D5000188800B201F0CEFBFEF71FFE1248FEF716
:101D60001CFE06200121FEF7EBFC04200121FEF7FA
:101D7000E3FC95F831500720012D17D12946FEF7D5
:101D8000DFFC2046294616E0780200205806002095
:101D900054000020964F0008400A002094000020C4
:101DA000A04E000856060020824F00080121FEF7D1
:101DB000C7FC02200121FEF7BFFC524B93F93C40C7
:101DC000012C23D10020504D0146FEF7B9FC2869B3
:101DD00001F090FBFEF7E1FD4C48FEF7DEFDA8693F
:101DE0000A262146B0FBF6F001F0BEFBFEF7D5FD5A
:101DF0004748FEF7D2FD286A2146B0FBF6F001F015
:101E0000B3FBFEF7CAFD4348FEF7C7FD3D4C94F90E
:101E10003C50022D21D100200146FEF791FC2846BE
:101E20000121FEF789FC00210120FEF789FC3A48D8
:101E3000FEF7B3FDE0684FF46163B0FBF3F001F02F
:101E400059FBFEF7AAFD3548FEF7A7FD0320012147
:101E5000FEF776FC206AFFF799F92A4C94F93C507A
:101E6000032D22D100200146FEF76AFC0220012149
:101E7000FEF762FC00210120FEF762FC2848FEF715
:101E80008CFD284B98684FF46163B0FBF3F001F0D0
:101E900031FBFEF782FD2148FEF77FFD2846012138
:101EA000FEF74EFC206CFFF771F9164C94F93C30AC
:101EB000042B21D100200146FEF742FC0020012125
:101EC000FEF73AFC00210120FEF73AFC1648FEF727
:101ED00064FD20694FF46163B0FBF3F001F00AFB8D
:101EE000FEF75BFD0D48FEF758FD03200121FEF7CC
:101EF00027FCA069FFF74AF96420BDE8F840FEF727
:101F000041BE00BF7802002054000020C1520008EA
:101F1000A04E00088A4F0008434F0008794F000880
:101F20006D4F000894000020A54F000838B58A4B7B
:101F3000012193F83420044683F832102AB9197528
:101F400083F834101A771A619A619A69834B1B6877
:101F50009A4205D9FFF7BCFB7F4B00221A7515E0AA
:101F60007F49804A0888136A80B2984202D9FFF7F5
:101F7000AFFB0BE0926B64205A430988B2FBF0F28E
:101F800089B29B1A994201D2FFF748FD022C724B8D
:101F900008D193F8303013B9FFF740FD0FE0FFF799
:101FA00097FB0CE0012C0AD193F83C20013AD2B205
:101FB000150683F83C2002D5032283F83C20664CAA
:101FC00094F93C00002852D10146FEF7B9FB94F881
:101FD0003030A3B9644B0221188880B201F0C4FAF2
:101FE000FEF7DBFC6148FEF7D8FC5D4B0221188848
:101FF00080B201F0B9FAFEF7D0FC5D4812E0584B10
:102000000221188880B201F0AFFAFEF7C6FC5748EB
:10201000FEF7C3FC574B188800B201F06BFAFEF7CD
:10202000BCFC5548FEF7B9FC4B4B93F830402CB93B
:1020300007200121FEF784FB204608E093F83D309D
:1020400007200121052B04D8FEF77AFB002001218F
:1020500003E0FEF775FB01200146FEF76DFB3E4BEA
:1020600093F83D200A2A02D9002283F83D203A4BFA
:1020700093F93C40012C1BD100200146394DFEF75D
:102080005FFB3E48FEF789FC286901F033FAFEF752
:1020900084FC3B48FEF781FC286A0A23B0FBF3F07E
:1020A000214601F061FAFEF778FC3148FEF775FC35
:1020B000294B93F93C30022B29D12A4C00200146B0
:1020C000FEF73EFBA06B01F015FAFEF766FC2D480B
:1020D000FEF763FC206A0A250121B0FBF5F001F050
:1020E00043FAFEF75AFC2148FEF757FC236AA06B1F
:1020F00064225843B0FBF2F01B1AB3FBF5F0012148
:1021000001F032FAFEF749FC1948FEF746FC124C82
:1021100094F93C50032D19D100200146FEF710FB25
:102120001948FEF73AFC20694FF46163B0FBF3F005
:1021300001F0E0F9FEF731FC1448FEF72EFC2846CA
:102140000121FEF7FDFAA069FFF720F86420BDE841
:102150003840FEF717BD00BF78020020400A00207B
:10216000580600205400002050060020A04E000811
:102170008F4E000856060020584F0008A84F000850
:10218000AB4F00089D4E0008A54F0008794F00088E
:1021900038B5694B012193F83420044683F8321096
:1021A0002AB9197583F834101A771A619A619A69F5
:1021B000624B1B689A4206D8614B1A88614B92B2F7
:1021C0001B6A9A4204D9FFF783FA5B4B00221A7507
:1021D000022C594B08D193F8303013B9FFF71EFC8D
:1021E0000FE0FFF775FA0CE0012C0AD193F83C20C0
:1021F000013AD2B283F83C20120602D5022283F8BB
:102200003C204D4C94F93C00002852D10146FEF789
:1022100097FA94F83030A3B94B4B0221188880B25A
:1022200001F0A2F9FEF7B9FB4848FEF7B6FB444BB4
:102230000221188880B201F097F9FEF7AEFB4448FE
:1022400012E03F4B0221188880B201F08DF9FEF7B1
:10225000A4FB3E48FEF7A1FB3E4B188800B201F0FC
:1022600049F9FEF79AFB3C48FEF797FB324B93F88F
:1022700030402CB907200121FEF762FA204608E021
:1022800093F83D3007200121052B04D8FEF758FABA
:102290000020012103E0FEF753FA01200146FEF77A
:1022A0004BFA254B93F83D200A2A02D9002283F8E5
:1022B0003D20214B93F93C40012C1BD100200146CD
:1022C000204DFEF73DFA2548FEF767FB286901F02F
:1022D00011F9FEF762FB2248FEF75FFB286A0A232A
:1022E000B0FBF3F0214601F03FF9FEF756FB1D4825
:1022F000FEF753FB104C94F93C30022B1BD100200D
:102300000146FEF71DFA1848FEF747FB20694FF417
:102310006163B0FBF3F001F0EDF8FEF73EFB13480C
:10232000FEF73BFB03200121FEF70AFAA069BDE896
:102330003840FEF72BBF38BD78020020400A00204D
:10234000580600205400002050060020A04E00082F
:102350008A4F000856060020824F0008A84F000848
:10236000AB4F00088F4E0008A54F0008B34F000880
:10237000034B93F833300BB9FFF738B9FFF790B937
:1023800078020020F8B5994B0122022883F8322008
:102390000BD193F845200132D2B2082A83F84520A8
:1023A00017D1002283F8452013E0012811D193F8BA
:1023B0004530023BDBB2012B02D8FFF70DF901E0FB
:1023C000FEF71AFF894B93F94530042B01D1FFF733
:1023D000CFFF864B93F94500F0B90146FEF7B0F9FF
:1023E0008348FEF7DAFA834B012118880A2380B26A
:1023F000B0FBF3F001F0B8F8FEF7CFFA7E48FEF735
:10240000CCFA7E4B0221188880B201F0ADF8FEF7BD
:10241000C4FA7B48FEF7C1FA744B93F94530012B9F
:102420001BD100200146FEF78BF97648FEF7B5FA7E
:10243000754B0221188880B201F096F8FEF7ADFACC
:102440007248FEF7AAFA724BD88880B201F052F8AF
:10245000FEF7A3FA6F48FEF7A0FA644B93F94540E4
:10246000022C1BD100200146FEF76AF96A48FEF7EC
:1024700094FA6A4B2146188880B201F075F8FEF78D
:102480008CFA6248FEF789FA614B988880B201F0B5
:1024900031F8FEF782FA5F48FEF77FFA534B93F963
:1024A0004530032B1AD100200146FEF749F95C485C
:1024B000FEF773FA5B4B188800B201F01BF8FEF7C9
:1024C0006CFA5948FEF769FA514B588880B201F00E
:1024D00011F8FEF762FA4F48FEF75FFA434B93F9A3
:1024E0004530042B1AD100200146FEF729F94F4848
:1024F000FEF753FA4E4B188800B200F0FBFFFEF7D0
:102500004CFA4948FEF749FA414B188880B200F06E
:10251000F1FFFEF742FA3F48FEF73FFA334B93F9DB
:102520004530052B3BD1384D424CFEF77DFE2988C6
:10253000238889B29BB23B4FCB1A42F210714B43B6
:102540003A883D4E12B2002093FBF2F30146B36489
:10255000FEF7F6F83948FEF720FA306C00F0CAFFB3
:10256000FEF71BFA3648FEF718FAB06C00F0C2FF0F
:10257000FEF713FA3348FEF710FA3888324900B2F2
:10258000002201F051FE2888304980B2022201F079
:102590004BFE20882E4980B2022201F045FE134CEA
:1025A00094F94530062B06D100200146FEF7C8F805
:1025B000E06AFEF79DFD94F94530072B15D1002008
:1025C0000146FEF7BDF82348FEF7E7F9074B986C84
:1025D0004FF46163B0FBF3F000F08CFFFEF7DDF920
:1025E0001D48BDE8F840FEF7D8B9F8BD78020020D4
:1025F000BB4F000854060020C04F000852060020C0
:10260000154F0008C54F000850060020A04E0008D6
:10261000440A0020134F0008CA4F00085806002043
:10262000D04F000856060020D64F0008DA4F0008A9
:10263000720200207402002004000020E14F000814
:10264000E44F0008E94F0008F14F0008F54F00087B
:10265000FC4F0008045000080B500008F8B5404C2F
:10266000002500F0F1FDFFF733F83E482560FEF746
:1026700094F9FEF7DEF828462946FEF761F84FF494
:10268000FA60FEF77FFA01F07DFB68B94FF47A70CB
:10269000FEF778FA01F076FB30B93348FEF77DF9A2
:1026A0004FF47A60FEF76EFA01F0DCF82368322B03
:1026B00002D92B4B00221A602C48FDF709FE2C4B47
:1026C0002C4C1A692C4B27489A6423694FF4616299
:1026D0005A432A4B1A602A4BA2681A6001F064FD23
:1026E000FDF758FEFEF715F82648FDF739FDA368FB
:1026F000012B17D0022B01D1234814E0032B01D169
:10270000224810E0042B01D121480CE0052B01D117
:10271000204808E0062B01D11F4804E0072B01D117
:102720001E4800E01E48FDF703FD134D1C4E002718
:1027300095F83D3085F83270013385F83D30FEF76D
:1027400073FC0228044607D003282BD0012831D17E
:10275000FDF7E8FC40682BE0FDF7E4FC006827E0AB
:10276000940600201F020020195000082A5000087B
:10277000940000205400002078020020400A00202D
:10278000540A0020790B0008304500085C45000819
:1027900088450008B4450008E04500080C460008DC
:1027A000044500080220FDF7E5FCFDF7BBFCC0680E
:1027B000FDF7BEFCFDF7B6FCB04202D12046FEF7A5
:1027C0009DFEFDF7AFFC684B984202D12046FFF713
:1027D000CBF8FDF7A7FC654B984202D12046FFF7E6
:1027E000D7FCFDF79FFC624B984202D12046FFF7D1
:1027F0009DFBFDF797FC5F4B984202D12046FEF708
:10280000B9FFFDF78FFC5C4B984202D12046FFF7E1
:1028100001FAFDF787FC594B984202D12046FFF799
:1028200005F9FDF77FFC564B984202D12046FFF791
:10283000A9FDFDF777FC534B984202D12046FEF7E5
:10284000CBF9FDF76FFC504B984202D12046FEF7C2
:1028500017FAFDF767FC4D4B984202D12046FEF770
:10286000EBF9FDF75FFC4A4B984202D12046FEF798
:10287000DDFEFDF757FC474B984202D12046FEF79C
:1028800003FEFDF74FFC444B984202D12046FEF771
:102890004DFDFDF747FC414B984202D12046FEF723
:1028A0007FFDFDF73FFC3E4B984202D12046FEF7EC
:1028B000B1FDFDF737FC3B4B984202D12046FEF7B5
:1028C000C9FCFDF72FFC384B984202D12046FEF799
:1028D000FBF9FDF727FC354B984202D12046FEF765
:1028E0002DFAFDF71FFC324B984202D12046FEF72D
:1028F0004BFAFDF717FC2F4B984202D12046FEF70A
:1029000065FAFDF70FFC2C4B984202D12046FEF7EA
:102910007FFAFDF707FC294B984202D12046FEF7CB
:1029200095FAFDF7FFFB264B984202D12046FEF7B1
:10293000ABFAFDF7F7FB234B984202D12046FEF796
:10294000F9FA95F8324054B9FEF7C2FEEA681E4B18
:1029500085F834409A602B6A85F83C402B646420EB
:10296000FEF710F9E4E600BF304500085C450008BA
:1029700088450008B4450008E04500080C460008FA
:10298000384600086446000890460008BC46000827
:10299000E846000814470008404700085C47000864
:1029A00088470008B4470008D0470008EC470008F3
:1029B0001848000844480008704800089C4800086F
:1029C000C8480008F44800089400002070B592B090
:1029D0007E2312A9002621F8043D48488DF847605F
:1029E000FEF75AF801214FF4007000F03DFB012082
:1029F000014600F02DFB424B082502934FF4806303
:102A0000089380230693202309933E4B3E4801936D
:102A10004FF48073079301A94FF400530A93049570
:102A200003960B96059600F018FE0121364800F03B
:102A300032FE4FF4004000F0B9FA01244FF4602355
:102A400032480CA90E938DF835400F960C968DF8F0
:102A500040508DF8344000F019FC07232B482146E4
:102A6000224600F064FC02210A460723274800F0B2
:102A70005EFC03210A460723244800F058FC042189
:102A80000A460723214800F052FC05210A46072385
:102A90001E4800F04CFC06210A4607231B4800F0A4
:102AA00046FC204600F092FC0722134617481121ED
:102AB00000F03DFC2A4604231448102100F037FCA6
:102AC0001248214600F006FC1048214600F00BFC9D
:102AD0000E4800F011FC0D4800F013FC0028FAD15C
:102AE0000A4800F012FC094800F014FC0028FAD152
:102AF0000648012100F012FC12B070BD0008014030
:102B0000440A00204C2401400800024000240140F7
:102B10001FB50121022000F0B3FA104C01A8FDF707
:102B200083FB45F6BF53ADF804302046052301A9C9
:102B3000ADF80830FDF72EFB01210A462046FDF7CF
:102B400088FB20460121FDF778FB054B4FF0005232
:102B50001A60202283F81D231FBD00BF000400401F
:102B600000E100E0224A234B91682DE9F041083151
:102B70009160C91A002808BF0120A729C8BF936027
:102B8000936812681E689A4208BF194A184C08BF19
:102B90001660194F2268988015252146BC46D2F848
:102BA00000809845B2F8048008BF1660804503D2C3
:102BB000086818600B600020BA42246814D01168BD
:102BC000D1F800809845B1F8048008BF0E608045B8
:102BD00003D21068186013600020614504D0013DE5
:102BE000ADB20A68002DDAD1A088BDE8F08100BF3F
:102BF00030020020E40200208C030020234A244BF2
:102C000051692DE9F04108315161C91A002808BF06
:102C10000120B1F5A47FA8BF53615369D2681E6833
:102C20009A4208BF194A194908BFD66051F80C2FBB
:102C3000184F988029250C46BC46D2F8008098454C
:102C4000B2F8048008BF1660804503D2206818607F
:102C500023600020BA42096814D01468D4F80080B8
:102C60009845B4F8048008BF2660804503D21068F8
:102C7000186013600020644504D0013DADB22268A5
:102C8000002DDAD18888BDE8F08100BF3002002035
:102C900094030020DC040020234A244B116A2DE910
:102CA000F04108311162C91A002808BF0120B1F5AE
:102CB000A47FA8BF1362136A92691E689A4208BF74
:102CC000194A194908BF966151F8182F184F988072
:102CD00029250C46BC46D2F800809845B2F80480FD
:102CE00008BF1660804503D220681860236000206A
:102CF000BA42096814D01468D4F800809845B4F832
:102D0000048008BF2660804503D2106818601360F5
:102D10000020644504D0013DADB22268002DDAD117
:102D20008888BDE8F08100BF30020020E404002064
:102D30002C0600200F49D1F85433D1F85023C1F8A4
:102D400058339342C1F85423C1F8500307DC83423F
:102D500003DC9042A8BF104670479A4205DC8242CD
:102D600003DC9842A8BF184670479A42B4BF104689
:102D700018467047E40200200F49D1F86033D1F8BB
:102D80005C23C1F864339342C1F86023C1F85C034B
:102D900007DC834203DC9042A8BF104670479A428A
:102DA00005DC824203DC9842A8BF184670479A426D
:102DB000B4BF104618467047E40200202DE9F743DF
:102DC00070480121FDF74EFA002800F0D8806E4CC3
:102DD0000121D4F868336B480133C4F86833FDF738
:102DE0004CFA00250220ADF80450ADF8065000F072
:102DF00065FC022000F06CFC644E02212A46644807
:102E000000F054FC634BF1889B6A89B24B43B28952
:102E100092B2B3FBF2F39BB2ADF80630BDF80600F8
:102E200080B2FFF739FFA4F86C03B4F86C334FF4A9
:102E3000F0229BB2022B98BFA4F86C53B389554D76
:102E40009BB292FBF3F39BB2A4F86E33B1882B6B69
:102E500089B24B43B28992B2B3FBF2F39BB2ADF8A5
:102E60000630BDF8060080B2FFF77CFE80B2ADF8F8
:102E70000400BDF80420484B92B21A80BDF804301B
:102E80001BB2022B02DC0023ADF804303F4CAB6BCD
:102E90002189A28989B24B4392B2B3FBF2F39BB270
:102EA000ADF80630BDF80600DFF8DC8000B2FFF7B1
:102EB00063FFAB6980B24FF00A09A8F8700309FB01
:102EC00003F36188A28989B24B4392B2B3FBF2F358
:102ED0009BB2ADF80630BDF80600304F80B2FFF768
:102EE0008DFE296A80B2388009FB01F92288A38906
:102EF00092B202FB09F99BB2B9FBF3F91FFA89F907
:102F0000ADF80690BDF80600224E00B2FFF712FFA2
:102F1000234B80B2234A18809268920753BF3A88A5
:102F20001B883269B368D31A9BB2A8F87233164A69
:102F3000B8F87233174BBDF80410B2F872231B6C4B
:102F400012B25343184A93FBF2F35B189BB2ADF8ED
:102F50000430BDF804301BB2022B02DC0023ADF8B4
:102F60000430BDF80420084B92B20948A3F874233A
:102F70000221012203B0BDE8F04300F097BB03B08B
:102F8000BDE8F08300040040E4020020440A002071
:102F9000080002400400002074020020700200209B
:102FA00072020020000C0140F0D8FFFF034B5A686A
:102FB00022F4404210435860704700BF00100240A6
:102FC00010B51F4B5A6802F00C02042A01D0082ADF
:102FD00002D01C4B036011E05A685968C2F3834267
:102FE0000232C90301D4184B06E0DB6A154903F02D
:102FF0000F030133B1FBF3F35A430260104A134B42
:1030000051680468C1F30311595C24FA01F141606D
:103010005468C4F302241C5D21FA04F484605468EB
:10302000C4F3C2241C5D21FA04F1C1605268C2F3EA
:1030300081329B181B7CB1FBF3F1016110BD00BF15
:103040000010024000127A0000093D0054020020E6
:10305000044B5A6909B1104301E022EA00005861AB
:10306000704700BF00100240044B9A6909B1104339
:1030700001E022EA00009861704700BF00100240A2
:10308000044BDA6909B1104301E022EA0000D8617B
:10309000704700BF0010024008B501210820FFF76B
:1030A000E3FF214B1A6822F003021A601A6822F02B
:1030B0000C021A601A6842F002021A601A6822F0C2
:1030C0000C021A60194A516821F0030151605168DD
:1030D00021F00C015160516841F0020151605168CA
:1030E00021F00C015160516821F440515160516848
:1030F00021F440415160516841F4005151605168E0
:1031000021F4404151601A6822F030021A601A68B6
:1031100022F0C0021A601A6842F020021A601A688F
:1031200022F0C0021A6008BD000C014000080140F6
:1031300008B508200121FFF797FF164B1A6822F403
:1031400040121A601A6822F440021A601A6842F4A7
:1031500000021A6020221A611A6822F440321A60B2
:103160001A6822F440221A601A6842F400221A6097
:1031700010221A611A6822F040721A601A6822F04E
:1031800040621A601A6842F000621A6040221A61B6
:1031900008BD00BF000C01401FB501212020FFF732
:1031A0006FFF104C01A8FDF73FF840F65F13ADF834
:1031B000043020460A2301A9ADF80830FCF7EAFFE5
:1031C00001210A462046FDF744F820460121FDF77B
:1031D00034F8054B4FF400025A60502283F837232D
:1031E0001FBD00BF0014004000E100E01FB5012139
:1031F0004FF40030FFF738FF01A8FDF715F8104C29
:103200000023ADF8063045F6BF53ADF80430204634
:103210004FF47A7301A9ADF80830FCF7BBFF012128
:103220000A462046FDF715F820460121FDF705F86E
:10323000044B4FF000721A60102283F819231FBD4F
:103240000044014000E100E008B504200121FFF73F
:103250000BFF08200121FFF707FF10200121FFF7D6
:1032600003FFFDF7A9FB00F0FFFEFFF715FFFFF7D7
:103270005FFFFFF791FFFFF74BFCFFF7B7FFFFF78B
:103280000BFFBDE80840FFF7A1BB000043680A68D8
:1032900023F4702323F4807313430A7910B543EAAF
:1032A000022343608A68CB6884681A43084B234032
:1032B00013434A7943EA420383600B7CC26A013BB1
:1032C00022F47002DBB242EA0353C36210BD00BFB6
:1032D000FDF7F1FF836811B143F0010301E023F032
:1032E000010383607047836811B143F4807301E088
:1032F00023F4807383607047836843F0080383601E
:1033000070478068C0F3C0007047836843F00403CF
:10331000836070478068C0F380007047836811B194
:1033200043F4A00301E023F4A0038360704709295C
:1033300070B54FF003040DD94C4307251E3C05FA28
:1033400004F503FA04F3C66826EA050545EA030412
:10335000C4600BE04C43072505FA04F503FA04F4B6
:10336000066926EA050545EA04030361062A4FF0CB
:1033700005030CD8013A53431F2202FA03F201FA63
:1033800003F3446B24EA02021343436370BD0C2A27
:103390000DD853431F22233B02FA03F201FA03F133
:1033A000046B24EA020242EA0103036370BD534343
:1033B0001F22413B02FA03F201FA03F1C46A24EA34
:1033C000020242EA0103C36270BD0000044B9A6826
:1033D00010B142F4000201E022F400029A6070474A
:1033E0000024014030B5038ACA8823F440531B04EB
:1033F0001B0C134303820D4683890989AA8823F491
:10340000B0530A43698923F00C030A431B041B0CC5
:1034100092B213438381838AAA8923F440731B04E5
:103420001B0C87B013430446838201A8FFF7C8FD35
:10343000174BA2899C420CBF049B039B12B2002A2B
:103440004FF019012A6801FB03F101DA520000E094
:1034500092006423B1FBF2F1B1FBF3F21201100907
:1034600003FB1011A08900B2002806DAC90032312E
:10347000B1FBF3F303F0070305E009013231B1FBBF
:10348000F3F303F00F031A4392B2228107B030BD69
:1034900000380140838919B19BB243F4005303E023
:1034A00023F400531B041B0C83817047C1F34213A8
:1034B00010B5012401F01F01A34204FA01F101D16A
:1034C0000C3004E0022B01D1103000E0143003680E
:1034D0000AB1194301E023EA0101016010BDC905E9
:1034E000C90D81807047038819420CBF002001205C
:1034F000704700007FB580EAE072A2EBE0720DF148
:10350000FF3500230A2492FBF4F104FB1122303230
:1035100005F8012F1E4601330A1EDBB2F3DC00283A
:1035200007DA5BB204A8C3182D2203F8102CB31CD1
:10353000DBB25AB204A88118002001F8100C6844CC
:103540008118074811F8014C013BDBB2013900F842
:10355000014F002BF6D10348835404B070BD00BF67
:103560006706002068060020F0B58BB080EAE073A3
:10357000A3EBE0730DF1FF3600220A2593FBF5F46F
:1035800005FB1433303306F8013F17460132231E82
:10359000D2B2F3DC53B20AADEC180025012B04F8CB
:1035A000285C04D13023BA1C8DF80130D2B2022A33
:1035B00005D1012903D930238DF8023003220024DC
:1035C0000DF1280C23460CEB01062E2552B25FB2FA
:1035D0008F4203D1013306F8145CDBB25FB20DF108
:1035E000280C67441DF804C0013407F814CC67B2F6
:1035F00001339742DBB2EADB002807DA5AB20AA9A4
:103600008A1801332D2102F8141CDBB259B205AD22
:10361000084800226C1804E0A55C013B00F8015F3B
:10362000DBB2013A002BF7D1034841180B7410307C
:103630000BB0F0BD7706002068060020002802D0FD
:1036400001DC404200B270470346002001E0013037
:10365000C0B21A5C002AFAD170478B6810B50C6AA8
:10366000026823430C6922F4FE4223434C6922F092
:10367000F00223438C692343CC6923434C6A2343E0
:103680008C6A234313430360CB6843600B688360F9
:103690004B68C36010BD19B1036843F0010303E038
:1036A00002684FF6FE7313400360704703680AB167
:1036B000194301E023EA010101607047C2004CBFD9
:1036C000014B024B5860704700040240000002406A
:1036D000C3004CBF014B024B5860704700040240CE
:1036E00000000240C37810B5F3B1154B4178DB6898
:1036F0008478DB43C3F30223C3F1040201FA02F12D
:103700000F2222FA03F222400A430E4B01781201E3
:10371000CB18D2B283F8002303780122590903F0B1
:103720001F0302FA03F307E003780122590903F0AB
:103730001F0302FA03F32031024A42F8213010BD80
:1037400000ED00E000E100E00F4AD36813F0010F44
:103750000D4BFAD1DA68920601D52022DA601A6997
:1037600042F002021A6158611A6942F040021A617D
:10377000054AD168044B8906FBD52022DA601A6914
:1037800022F002021A61704700200240034B044AF3
:103790005A6002F188325A60704700BF0020024030
:1037A00023016745024B1A6942F080021A61704793
:1037B00000200240124AD36813F0010F104BFAD1D7
:1037C000DA68920601D52022DA601A6942F0010215
:1037D0001A618BB203800A4BDA6812F0200F084A94
:1037E000FAD02023090CD3604180D168044B8906AC
:1037F000FBD52022DA601A6922F001021A617047B3
:103800000020024070B572B6114CFFF7BFFF4FF4B5
:103810006B701049002200F007FD20680E4900225D
:1038200000F002FD0D48FFF78FFF0C4D0C4E2B19D9
:1038300003F17843A3F5F233284619680435FFF7FE
:10384000B9FFB542F3D1FFF7ADFF62B670BD00BF5F
:1038500094060020335100083A51000800E40108A2
:10386000ACE7010810B5074B0749084A58181C680F
:1038700000F178400433A0F5F23093420460F5D1B2
:10388000012010BD00E4010894060020ACE7010807
:1038900070B504680E468C4201D3944211D90A4B8C
:1038A00000251D7009492A4600F0BEFC2046084943
:1038B0002A4600F0B9FC074807492A4600F0B4FC44
:1038C0003446204670BD00BF680200204051000809
:1038D0005751000800EC01086951000810B5184C58
:1038E0006068FFF731FF60682168FFF763FFE068F9
:1038F000A168FFF75FFF60692169FFF75BFFE0697F
:10390000A169FFF757FF606A216AFFF753FFE06A7A
:10391000A16AFFF74FFF606B216BFFF74BFFE06B76
:10392000A16BFFF747FF606C216CFFF743FFE06C72
:10393000A16CFFF73FFF034800F036FC10BD00BF4D
:10394000040000208051000810B5184C6068FFF793
:10395000FBFE60682168FFF72DFFE068A168FFF7B4
:1039600029FF60692169FFF725FFE069A169FFF779
:1039700021FF606A216AFFF71DFFE06AA16AFFF775
:1039800019FF606B216BFFF715FFE06BA16BFFF771
:1039900011FF606C216CFFF70DFFE06CA16CFFF76D
:1039A00009FF034800F000FC10BD00BF5C010020CF
:1039B0009951000838B5224C002160684FF480729C
:1039C000FFF766FF002120604FF47A72E068FFF78E
:1039D0005FFF0021A0604FF47A726069FFF758FF23
:1039E000184D20610A212A46E069FFF751FF0A219C
:1039F000A0612A46606AFFF74BFF0A2120622A462F
:103A0000E06AFFF745FF0A21A0622A46606BFFF7D4
:103A10003FFF0A2120632A46E06BFFF739FF46216A
:103A2000A063C822606CFFF733FF0A212064C8221C
:103A3000E06CFFF72DFFA064034800F0B5FB38BD34
:103A400004000020A0860100B951000838B5224CBE
:103A5000002160684FF48072FFF71AFF0021206098
:103A60004FF47A72E068FFF713FF0021A0604FF473
:103A70007A726069FFF70CFF184D20610A212A460F
:103A8000E069FFF705FF0A21A0612A46606AFFF797
:103A9000FFFE0A2120622A46E06AFFF7F9FE0A21AA
:103AA000A0622A46606BFFF7F3FE0A2120632A46D4
:103AB000E06BFFF7EDFE4621A063C822606CFFF7C4
:103AC000E7FE0A212064C822E06CFFF7E1FEA06453
:103AD000034800F069FB38BDAC010020A08601005E
:103AE000D351000810B5144C6068FFF72DFE6068D4
:103AF0002168FFF75FFEE068A168FFF75BFE606981
:103B00002169FFF757FEE069A169FFF753FE606A7C
:103B1000216AFFF74FFEE06AA16AFFF74BFE606B78
:103B2000216BFFF747FEE06BA16BFFF743FE0348F5
:103B300000F03AFB10BD00BF54000020F651000811
:103B400010B5144C6068FFF7FFFD60682168FFF74F
:103B500031FEE068A168FFF72DFE60692169FFF77B
:103B600029FEE069A169FFF725FE606A216AFFF777
:103B700021FEE06AA16AFFF71DFE606B216BFFF773
:103B800019FEE06BA16BFFF715FE034800F00CFB7C
:103B900010BD00BFDC0000200C52000838B51D4CE1
:103BA000002160684FF48072FFF772FE01212060EF
:103BB0000A22E068FFF76CFE0121A0604FF47A72E0
:103BC0006069FFF765FE012120614FF47A62E069C8
:103BD000FFF75EFE0121A0614FF47A62606AFFF791
:103BE00057FE42F21075206200212A46E06AFFF774
:103BF0004FFE0021A0622A46606BFFF749FE0021BC
:103C000020636422E06BFFF743FEA063024800F0EC
:103C1000CBFA38BD540000202952000838B51D4C9D
:103C2000002160684FF48072FFF732FE01212060AE
:103C30000A22E068FFF72CFE0121A0604FF47A729F
:103C40006069FFF725FE012120614FF47A62E06987
:103C5000FFF71EFE0121A0614FF47A62606AFFF750
:103C600017FE42F21075206200212A46E06AFFF733
:103C70000FFE0021A0622A46606BFFF709FE0021BB
:103C800020636422E06BFFF703FEA063024800F0AC
:103C90008BFA38BD1C0100204052000810B50A4CB8
:103CA0006068FFF751FD60682168FFF783FDE068F9
:103CB000A168FFF77FFD60692169FFF77BFD03487D
:103CC00000F072FA10BD00BF94000020605200089E
:103CD00010B50A4C6068FFF737FD60682168FFF790
:103CE00069FDE068A168FFF765FD60692169FFF77C
:103CF00061FD034800F058FA10BD00BFAC00002081
:103D00007E52000838B50C4C002160684FF4807278
:103D1000FFF7BEFD094D206000212A46E068FFF74D
:103D2000B7FD0021A0602A466069FFF7B1FD206160
:103D3000034800F039FA38BD9400002040420F00DB
:103D4000A552000838B50C4C002160684FF4807211
:103D5000FFF79EFD094D206000212A46E068FFF72D
:103D600097FD0021A0602A466069FFF791FD206160
:103D7000034800F019FA38BDC400002040420F008B
:103D8000C452000870B50C4D01242C7072B6FFF7B8
:103D9000B9FFFFF703FFFFF70DFE62B62E782EB9CD
:103DA000064800F001FA2C70304670BD044800F05F
:103DB000FBF92C70204670BD68020020EC52000810
:103DC00005530008F0B5C1B007460D4614466846D5
:103DD00008494FF4807200F03FFA6E4617F8013B35
:103DE000013D5C40EDB2345D002DF7D1204641B07D
:103DF000F0BD00BF3350000838B572B6FFF7C6FCFF
:103E00004C2100223448FFF7DDFF344B0446186094
:103E1000FFF79AFDFFF71AFE4C2100223048FFF70A
:103E2000D1FF844203D12F4800F0BEF904E02E48B0
:103E300000F0BAF9FFF788FD3C2100222B48FFF77C
:103E4000C1FF00222A49044600F0EEF90022294968
:103E50003C2000F0E9F9284B1C60FFF771FEFFF7EA
:103E6000DDFE3C2100222548FFF7ACFF002220495F
:103E7000054600F0D9F93C2000221E4900F0D4F993
:103E8000AC4203D11E4800F08FF904E01D4800F059
:103E90008BF9FFF755FE142100221B48FFF792FF14
:103EA0001A4B04461860FFF713FFFFF74BFF14216E
:103EB00000221748FFF786FF844203D1154800F01F
:103EC00073F904E0144800F06FF9FFF701FFFFF702
:103ED00069FC62B638BD00BF600100205C010020B3
:103EE000B00100202053000845530008E0000020E6
:103EF0007553000880530008DC00002020010020DA
:103F00008C530008AE530008B0000020AC00002025
:103F1000C8000020DB5300080554000810B572B635
:103F2000142100221048FFF74DFF104B0446186083
:103F3000FFF72CFCFFF7B2FEFFF704FF142100226D
:103F40000B48FFF73FFF844203D10A4800F02CF9E9
:103F500004E0094800F028F9FFF7A0FEFFF722FC73
:103F600062B6012010BD00BF980000209400002020
:103F7000C8000020DC5300080654000838B572B6AB
:103F80003C2100221948FFF71DFF00221849044672
:103F900000F04AF9002217493C2000F045F9164B81
:103FA0001C60FFF7F3FBFFF79DFDFFF737FE3C2199
:103FB00000221248FFF706FF00220D49054600F0D7
:103FC00033F93C2000220B4900F02EF9AC4203D11A
:103FD0000B4800F0E9F804E00A4800F0E5F8FFF7C4
:103FE00081FDFFF7DFFB62B6012038BD58000020DD
:103FF000765300088153000854000020200100205F
:104000008D530008AF53000810B572B64C21002242
:104010001048FFF7D7FE104B04461860FFF7B6FBB9
:10402000FFF75CFCFFF712FD4C2100220B48FFF765
:10403000C9FE844203D10A4800F0B6F804E00948FA
:1040400000F0B2F8FFF74AFCFFF7ACFB62B60120C4
:1040500010BD00BF0800002004000020B0010020B7
:10406000215300084653000830B54FF4164387B07B
:10407000009300231C46ADF80430ADF80630ADF8CF
:104080000830ADF80C3004200C230121ADF80A30C3
:10409000FEF7EAFF01214FF48040FEF7E5FF4FF401
:1040A000C063154DADF8103018238DF8133004A9F6
:1040B000032312488DF81230FCF7EEFC69462846BF
:1040C000FFF790F925238DF814308DF81640222340
:1040D000012405A88DF815308DF81740FFF702FB75
:1040E00028462146FFF7D6F9284640F225512246B8
:1040F000FFF7DCF907B030BD00380140000801408F
:104100000A4B1A78C72A0FD85A78094988541A785E
:104110000132D2B21A705A780132D2B25A705A7839
:10412000C82A01D100225A70704700BF89060020BA
:10413000580A002010B5194C2388980603D5A0888A
:10414000C0B2FFF7DDFF2388144A19061AD5144BB5
:10415000997889B1D9781348415C91809A78013A6D
:10416000D2B29A70DA780132D2B2DA70DA78C82A2A
:1041700008D10022DA7005E0938923F080031B0444
:104180001B0C9381054A13885B0605D5138823F021
:1041900040031B041B0C138010BD00BF00380140FE
:1041A00089060020200B002010B504460AE00D48C7
:1041B0008021FFF798F90028F9D014F8011B09486D
:1041C000FFF78DF92378002BF1D106488021FFF706
:1041D0008AF90028F9D003480A21BDE81040FFF70A
:1041E0007EB900BF0038014082B0064B8DF8070051
:1041F0001A885206FCD59DF80720024B9A8002B01F
:10420000704700BF00380140064B1A4605E0198888
:104210004906FCD510F8011B918001780029F6D1E0
:10422000704700BF0038014037B501900C46019837
:1042300012B9FFF75FF902E01146FFF795F905465D
:104240002046FFF7E1FF2846FFF7DEFF0A2003B014
:10425000BDE83040FFF7C8BF0F2AF0B43AD941EAB1
:1042600000039B0738D10C46034615462668103DCF
:104270001E6066685E60A6689E60E6681034DE6058
:1042800010330F2DF2D8A2F1100424F00F0402F025
:104290000F021034032A00EB0403214411D90E4607
:1042A0001D46144656F8047B043C032C45F8047B59
:1042B000F8D8141F24F00304043402F0030209198F
:1042C0001B192AB111F8014B013A03F8014BF9D13E
:1042D000F0BC70470346F4E70346F3E70000000034
:1042E00000000000000000000000000000000000CE
:1042F00000000000513A200069693A20004352430F
:104300002843616C6962726174696F6E29203D0097
:1043100043616C6962726174696F6E3056616C756D
:1043200065466F7243757272656E74203D0043611D
:104330006C6962726174696F6E3056616C75654646
:104340006F7243757272656E7431203D0043616C0B
:104350006962726174696F6E56616C7565466F72E1
:1043600043757272656E74203D0043616C696272C0
:104370006174696F6E56616C7565466F72437572D4
:1043800072656E7431203D0043616C6962726174C4
:10439000696F6E56616C7565466F72566F6C7461AD
:1043A0006765203D0043616C6962726174696F6E7C
:1043B00056616C7565466F72566F6C7461676531D6
:1043C000203D0043616C6962726174696F6E566171
:1043D0006C7565466F72566F6C7461676532203D0F
:1043E00000526573697374616E6365436F6D705FCE
:1043F000497368756E745F5769726573203D00522A
:104400006573697374616E6365436F6D705F4D4F63
:1044100053464554203D0043524328536574746904
:104420006E67734461746129203D004F7074696F39
:104430006E31286D656E7520706F736974696F6E6B
:1044400029203D0043686172676554696D65203DB0
:10445000004C6F77566F6C74616765203D004D614D
:1044600078566F6C74616765203D004368617267C0
:10447000654164617074203D005377696E675F43E6
:104480006872675F74696D65203D005377696E6778
:104490005F44436872675F74696D65203D004352F5
:1044A000432853617665446174615768656E506F47
:1044B0007765724F666629203D00426174746572AB
:1044C0007943617061636974794469736368617287
:1044D000676550726576696F757356616C75652096
:1044E0003D004261747465727943617061636974FF
:1044F0007944697363686172676543757272656E4A
:1045000074203D00DC420008DC420008DC42000868
:10451000C44D000800000000000000002020202002
:10452000202020202020202020202020000000000B
:10453000DC420008DC420008DC420008984D00081C
:10454000000000000000000020202020202020206B
:10455000202020202020202000000000DC42000835
:10456000DC420008DC4200086C4D0008000000003E
:1045700000000000202020202020202020202020BB
:104580002020202000000000DC420008DC4200085F
:10459000DC420008404D0008000000000000000060
:1045A000202020202020202020202020202020200B
:1045B00000000000DC420008DC420008DC42000889
:1045C000144D000800000000000000002020202002
:1045D000202020202020202020202020000000005B
:1045E000DC420008DC420008DC420008E84C00081D
:1045F00000000000000000002020202020202020BB
:10460000202020202020202000000000DC42000884
:10461000DC420008DC420008BC4C0008000000003E
:10462000000000002020202020202020202020200A
:104630002020202000000000DC420008DC420008AE
:10464000DC420008904C0008000000000000000060
:10465000202020202020202020202020202020205A
:1046600000000000DC420008DC420008DC420008D8
:10467000644C000800000000000000002020202002
:1046800020202020202020202020202000000000AA
:10469000DC420008DC420008DC420008804A0008D6
:1046A00000000000650B0008202020202020202092
:1046B000202020202020202000000000DC420008D4
:1046C000DC420008DC420008AC4A000800000000A0
:1046D000650B0008202020202020202020202020E2
:1046E0002020202000000000DC420008DC420008FE
:1046F000DC420008284A000800000000650B0008A2
:1047000020202020202020202020202020202020A9
:1047100000000000DC420008DC420008DC42000827
:10472000544A000800000000650B000820202020EB
:1047300020202020202020202020202000000000F9
:10474000DC420008DC420008DC420008A449000802
:1047500000000000650B000800000000DC420008BB
:10476000DC420008DC420008D049000800000000DC
:10477000650B000820202020202020202020202041
:104780002020202000000000DC420008DC4200085D
:10479000DC420008FC49000800000000650B00082E
:1047A0002020202020202020202020202020202009
:1047B00000000000DC420008DC420008DC42000887
:1047C0007849000800000000650B000800000000A8
:1047D000DC420008DC420008DC4200084C490008CA
:1047E000000000000000000000000000DC420008A3
:1047F000DC420008DC4200080C4C0008000000000D
:10480000510B0008202020202020202020202020C4
:104810002020202000000000DC420008DC420008CC
:10482000DC420008E04B000800000000510B0008CB
:104830002020202020202020202020202020202078
:1048400000000000DC420008DC420008DC420008F6
:10485000B44B000800000000510B0008202020206D
:1048600020202020202020202020202000000000C8
:10487000DC420008DC420008DC420008884B0008EB
:1048800000000000510B00082020202020202020C4
:10489000202020202020202000000000DC420008F2
:1048A000DC420008DC4200085C4B0008000000000D
:1048B000510B000820202020202020202020202014
:1048C0002020202000000000DC420008DC4200081C
:1048D000DC420008304B000800000000510B0008CB
:1048E00020202020202020202020202020202020C8
:1048F00000000000DC420008DC420008DC42000846
:10490000044B000800000000A90B00082020202014
:104910002020202020202020202020200000000017
:10492000AC4A00084C490008DC420008384C00083A
:1049300000000000000000004F4B20746F206578DD
:104940006974202020202020000000002049000859
:1049500078490008DC420008D04700080000000049
:10496000000000004261636B20746F204661637435
:104970006F727920000000004C490008A44900082B
:10498000DC420008B44700080000000000000000FE
:1049900052657369737420636F6D702035563141B1
:1049A0000000000078490008D0490008DC420008F7
:1049B000404700080000000000000000566F6C74C3
:1049C00061676520496E2020202020200000000023
:1049D000A4490008FC490008DC4200085C470008C4
:1049E0000000000000000000566F6C7461676520D5
:1049F0004F7574202020202000000000D0490008BE
:104A0000284A0008DC42000888470008000000002F
:104A100000000000566F6C746167652050532020C1
:104A20002020202000000000FC490008544A000813
:104A3000DC420008E846000800000000000000001A
:104A400043555252454E54204C6F61642020202023
:104A500000000000284A0008804A0008DC420008E4
:104A600014470008000000000000000043555252A7
:104A7000454E54204F757420202020200000000057
:104A8000544A0008AC4A0008DC420008904600087E
:104A9000000000000000000043555252454E5420D3
:104AA0004C6F616420746F3000000000804A000881
:104AB00020490008DC420008BC4600080000000055
:104AC0000000000043555252454E54204F7574204B
:104AD000746F2030000000000C4C0008044B0008EC
:104AE000DC420008F04D000800000000000000005B
:104AF0004F4B20746F20657869742020202020207F
:104B000000000000D84A0008304B0008DC420008D2
:104B1000F4480008000000000000000030373A535D
:104B2000617665204D656E7520506F730000000042
:104B3000044B00085C4B0008DC420008C848000831
:104B4000000000000000000030363A4368617267E0
:104B5000652061646461707400000000304B0008DF
:104B6000884B0008DC4200089C4800080000000058
:104B70000000000030353A53776E6744697343682C
:104B800072672054000000005C4B0008B44B000822
:104B9000DC4200087048000800000000000000002F
:104BA00030343A5377696E67204368726720546DDA
:104BB00000000000884B0008E04B0008DC420008C1
:104BC00044480008000000000000000030333A4D67
:104BD000617820566F6C74616765202000000000CA
:104BE000B44B00080C4C0008DC42000818480008D0
:104BF000000000000000000030323A4C6F77205671
:104C00006F6C74616765202000000000E04B0008B5
:104C1000D84A0008DC420008EC4700080000000009
:104C20000000000030313A436861726765207469A2
:104C30006D65202000000000F04D0008644C000865
:104C4000DC420008AC4A0008000000000000000040
:104C500043414C4942524154494F4E20202020208C
:104C600000000000384C0008904C0008DC420008AE
:104C70006446000800000000000000004C4F472080
:104C800020202020202020202020202000000000A4
:104C9000644C0008BC4C0008DC42000838460008A0
:104CA0000000000000000000444941474E4F5354AB
:104CB000494320202020202000000000904C0008C4
:104CC000E84C0008DC4200080C4600080000000028
:104CD000000000005377696E6720202020202020EC
:104CE0002020202000000000BC4C0008144D0008CB
:104CF000DC420008E0450008000000000000000061
:104D0000547261696E696E67202020202020202067
:104D100000000000E84C0008404D0008DC4200089C
:104D2000B44500080000000000000000446973431F
:104D3000686172676520202020202020000000008C
:104D4000144D00086C4D0008DC420008884500083E
:104D50000000000000000000436861726765206188
:104D6000646461707420202000000000404D000841
:104D7000984D0008DC4200085C4500080000000077
:104D8000000000004368617267652043432043567A
:104D900020202020000000006C4D0008C44D0008B9
:104DA000DC42000830450008000000000000000060
:104DB0004C6F6164202020202020202020202020F3
:104DC00000000000984D0008F04D0008DC4200088B
:104DD000044500080000000000000000506F7765E7
:104DE00072537570706C7920202020200000000024
:104DF000C44D0008384C0008DC4200080C4C000888
:104E0000000000000000000053657474696E677351
:104E10002020202020202020000000005365657401
:104E20000071776572313233343536373839307A3C
:104E3000786376626E6D006D41203E3E207365742E
:104E4000203020202000466163746F72792D7072CB
:104E5000657373203E3E00496E2050726F63636538
:104E60007373202E2E2E2E00466163746F7279208C
:104E7000617265204F4B202000454570726F6D2098
:104E800072656164204641494C006820202000562C
:104E900020202000207365632E2020200025200084
:104EA000562000506F776572537570706C792020B2
:104EB000202020004C6F6164204D656E75202020FD
:104EC000202020200043686172676520434320430F
:104ED0005620202020004368617267652061646469
:104EE00061707420202000446973436861726765B3
:104EF0002020202020202000547261696E696E6796
:104F00002020202020202020005377696E67202059
:104F10002020202020202020200030006D4F6D20F8
:104F200020202020202000562020006D412020003D
:104F30006D41202020004F464620006D412020205A
:104F400020004F4E2000506F776572204F4646007C
:104F500055206F66663A20006D41202020202020D9
:104F6000004F66665768656E2056623C0050200010
:104F70006D41682020202020006D41482020202005
:104F800020006D41202020202000562020202020BD
:104F9000007320202000547261696E696E67204999
:104FA0006E69742000432000543A0068204D6178F7
:104FB000563A006D4148202020200055696E3D0082
:104FC0002055633D005570732000556F75742000A7
:104FD000496F757420006D412000496C6F61642039
:104FE00000523D006D4F6D20006D4F6D2020202040
:104FF00000493A2000555F50533A200055206F7504
:10500000743A20004F6C6420433D006D41682020BD
:10501000202020202020202000454570726F6D2028
:1050200052656164204641494C00506F776572209B
:105030004F4E0000070E091C1B1215383F36312455
:10504000232A2D70777E796C6B6265484F464154F8
:10505000535A5DE0E7EEE9FCFBF2F5D8DFD6D1C4A8
:10506000C3CACD90979E998C8B8285A8AFA6A1B418
:10507000B3BABDC7C0C9CEDBDCD5D2FFF8F1F6E3C9
:10508000E4EDEAB7B0B9BEABACA5A28F8881869338
:10509000949D9A2720292E3B3C35321F1811160368
:1050A000040D0A5750595E4B4C45426F6861667358
:1050B000747D7A898E878095929B9CB1B6BFB8AD7E
:1050C000AAA3A4F9FEF7F0E5E2EBECC1C6CFC8DD78
:1050D000DAD3D4696E676075727B7C51565F584D28
:1050E0004A4344191E171005020B0C21262F283D98
:1050F0003A33344E49404752555C5B7671787F6A4B
:105100006D64633E39303722252C2B0601080F1AB7
:105110001D1413AEA9A0A7B2B5BCBB9691989F8AE7
:105120008D8483DED9D0D7C2C5CCCBE6E1E8EFFAD7
:10513000FDF4F373697A653A200076616C3A2000D9
:105140004661696C20746F207265616420616464DB
:10515000726573733A2000454570726F6D56616CCD
:105160007565206973203A2000464C4153485F42E0
:105170004153452B313032342A313233203A20002A
:1051800043616C6962726174696F6E5772697465AC
:10519000546F466C617368200043616C6962726190
:1051A00074696F6E466163746F7279577269746562
:1051B000546F466C617368200043616C6962726170
:1051C00074696F6E5265616446726F6D466C61738F
:1051D00068200043616C6962726174696F6E526528
:1051E000616446726F6D466C617368466F72566596
:1051F00072696679200053657474696E67735772BB
:10520000697465546F466C617368200053657474EB
:10521000696E6773466163746F72795772697465FA
:10522000546F466C617368200053657474696E67CF
:10523000735265616446726F6D466C6173682000DD
:1052400053657474696E67735265616446726F6DFD
:10525000466C617368466F725665726966792000A4
:10526000446174615768656E506F7765724F66660A
:105270005772697465546F466C61736820004461AD
:1052800074615768656E506F7765724F66665F46EA
:105290006163746F72795F5772697465546F466C9D
:1052A0006173682000446174615768656E506F7760
:1052B00065724F66665265616446726F6D466C61D9
:1052C00073682000446174615768656E506F77653C
:1052D000724F66665265616446726F6D466C6173AB
:1052E00068466F725665726966792000526561641E
:1052F0002066726F6D20454570726F6D202D2046BF
:1053000041494C2000526561642066726F6D2045F2
:105310004570726F6D202D20535543434553530004
:105320004643616C6962726174696F6E207772695D
:10533000746520746F20466C6173682073756363B5
:1053400065737320004643616C6962726174696FB2
:105350006E20777269746520746F20466C61736883
:10536000204661696C2C2074727920616761696ED6
:105370002E2E2E200046435243206973203A2000EF
:105380004653697A65206973203A20004653657454
:1053900074696E677320777269746520746F204634
:1053A0006C61736820737563636573732000465383
:1053B000657474696E677320777269746520746FA1
:1053C00020466C617368204661696C2C2074727988
:1053D00020616761696E2E2E2E2000464461746143
:1053E0005768656E506F7765724F66662077726991
:1053F000746520746F20466C6173682073756363F5
:10540000657373200046446174615768656E506F20
:105410007765724F666620777269746520746F20B5
:10542000466C617368204661696C2C207472792027
:0A543000616761696E2E2E2E2000C8
:10543A00DC4200080000000000F001080000000043
:10544A0004F001080000000008F001080000000054
:10545A000CF001080000000010F001080000000034
:10546A0014F001080000000018F001080000000014
:10547A001CF001080000000020F0010800000000F4
:10548A0024F001080000000000EC01080000000000
:10549A0004EC01080000000008EC0108000000000C
:1054AA000CEC01080000000010EC010800000000EC
:1054BA0014EC01080000000018EC010800000000CC
:1054CA001CEC01080000000000E8010800000000D0
:1054DA0004E801080000000008E8010800000000D4
:1054EA0000E801080000000004E8010800000000CC
:1054FA0008E801080000000000E8010800000000B8
:10550A0004E801080000000008E8010800000000A3
:10551A0000EC01080100000004EC01080F00000083
:10552A0008EC01081A0400000CEC0108AA050000A6
:10553A0010EC01080A00000014EC01080A0000003F
:10554A0018EC0108060000001CEC0108000000002D
:10555A0000EC01080000000004EC01080000000053
:10556A0008EC0108000000000CEC01080000000033
:10557A0010EC01080000000014EC01080000000013
:10558A0018EC0108000000001CEC010800000000F3
:10559A0000F001080000000004F00108000000000B
:1055AA0008F00108840000000CF0010884000000E3
:1055BA0010F001083305000014F00108300500005E
:1055CA0018F00108330500001CF0010874000000FF
:1055DA0020F001082200000024F001080000000069
:1055EA0000F001080000000004F0010800000000BB
:1055FA0008F00108000000000CF00108000000009B
:10560A0010F001080000000014F00108000000007A
:10561A0018F00108000000001CF00108000000005A
:10562A0020F001080000000024F001084103423B79
:10563A003F455D337B404B064D484F5C50435460B9
:10564A00245805075B5F036904020100D601015073
:10565A0053203330562033412076312E363700011D
:10566A008C03002000000000E4020020DC0400207B
:10567A0000000000940300202C0600200000000017
:10568A00E4040020000000000102030401020304F4
:0C569A00060708090204060801000000D1
:0400000508000000EF
:00000001FF
