:020000040800F2
:10000000180E002085020008CD020008CD0200086D
:10001000CD020008CD020008CD020008000000005B
:10002000000000000000000000000000CD020008F9
:10003000CD02000800000000CD020008CD0200083B
:10004000CD020008CD020008CD020008CD02000854
:10005000CD020008CD020008CD020008CD02000844
:10006000CD020008CD020008CD020008CD02000834
:10007000CD020008CD020008CD020008CD02000824
:10008000CD020008CD020008CD02000800000000EB
:10009000000000000000000000000000CD02000889
:1000A000CD020008E1160008CD020008CD020008CC
:1000B000CD020008593D000800000000CD020008F4
:1000C000CD0200080000000000000000CD02000882
:1000D0000000000005560008CD02000800000000E6
:1000E000CD020008CD020008CD020008000000008B
:1000F0000000000000000000000000000000000000
:1001000000000000000000000000000000000000EF
:10011000000000000000000041390008551E0008E2
:100120005FF808F1014B1868704700BF000000201D
:10013000084B10B598420BD050B1074B074C1B68C9
:1001400020600BB11830984723681B6903B19847AA
:1001500010BD00BFAC570008A40200200000002022
:10016000024B1860024B1868FFF7E2BFA4020020A0
:100170000000002008B5054B054A1B68934203D0D8
:1001800013B15B6903B1984708BD00BF00000020B0
:10019000AC570008224A038890429BB212D002F565
:1001A000006290420ED0B0F1804F0BD0A2F5983291
:1001B000904207D002F58062904203D002F580623F
:1001C000904203D14A8823F070031343154A9042AA
:1001D00008D002F58062904204D023F44073CA88AC
:1001E0009BB2134303808B8883850B8803850C4B5C
:1001F00098420FD003F5006398420BD003F540639B
:10020000984207D003F58063984203D003F58063DA
:10021000984201D10B7A038601238382704700BF85
:10022000002C0140001000404FF6FF738380002334
:100230000380C380438003727047038819B19BB267
:1002400043F0010303E023F001031B041B0C0380B4
:10025000704783899BB20AB1194301E023EA010187
:1002600081817047038A828911EA030092B203D028
:1002700011420CBF002001207047C94389B201829E
:100280007047000008B50C4A0C4B0D4903E052F8CA
:10029000040B43F8040B8B42F9D30A480A494FF088
:1002A00000028842B8BF40F8042BFADB00F028FABD
:1002B000BDE8084003F044B98B6C00080000002042
:1002C000A4020020A4020020180A0020FEE700007B
:1002D0002DE9F843564D0646286804F09BF92B6833
:1002E00011210024594304E00A19AA18013413719A
:1002F000E4B2035D4E4A002BF6D113681121594335
:10030000081910183A25057104E00F2C09D80D19A9
:100310005519287116F8010B0134E4B20028F4D104
:100320000DE0112202FB034241498A18002111719C
:1003300005E01819081801340271E4B203E0112233
:100340003B49534320220F2C394DF2D9002220463D
:10035000384905F0D1F92B68112202FB034401331F
:100360002A190024172B14712B6057D90A26A0468E
:100370002F46204604F04EF94FF0110E00230EFBDD
:1003800004FE05E00EEB0301691801330A71DBB2CC
:10039000C25C1121002AF5D101FB04F27143D0188F
:1003A00038184FF03A0E013380F804E0DBB294467F
:1003B0005FFA84FE681810E0BEF1090F05D901EB61
:1003C0000309A94499F8049003E000EB030999F8A4
:1003D0000590013382F80490DBB20CEB0302AA18FB
:1003E00092F80490B9F1000FE6D1013B1121DBB284
:1003F0006143202204E0C818281801330271DBB2DF
:100400000F2BF8D9112202FB04330134FB180136FB
:100410000E2C83F80480ACD1054B1C6004F020FC4A
:10042000034B054918680022BDE8F84305F064B99C
:10043000D0060020C4570008C95700082DE9F0472E
:10044000554F054638680E4604F0E4F83B68112124
:100450000024594304E00A19BA1801341371E4B2B4
:10046000035D4D4A002BF6D1136811215943081939
:100470001018067104E00F2C09D80F19D71938711C
:1004800015F8010B0134E4B20028F4D10DE011227B
:1004900002FB034240498A180021117105E0181936
:1004A000081801340271E4B203E011223A495343BF
:1004B00020220F2C384DF2D900222046374905F072
:1004C0001BF92B68112202FB034401332A19002473
:1004D000172B14712B6054D90A27A146A846204631
:1004E00004F098F84FF0110E00230EFB04FE05E017
:1004F0000EEB0301691801330A71DBB2C25C1121F2
:10050000002AF5D101FB04F27943D01840440133AD
:100510000671DBB294465FFA84FE681810E0BEF103
:10052000090F05D901EB030AAA449AF804A003E0D5
:1005300000EB030A9AF805A0013382F804A0DBB2AD
:100540000CEB0302AA1892F804A0BAF1000FE6D14E
:10055000013B1121DBB26143202204E0C8182818B6
:1005600001330271DBB20F2BF8D9112202FB0433E5
:100570000134434401370E2C83F80490AFD1064B6D
:100580001C6004F06DFB044B054918680022BDE8AF
:10059000F04705F0B1B800BFD0060020C4570008EE
:1005A000C957000810B53E4C002220683D4905F0AF
:1005B000A3F8A06800223C4905F09EF820690022BB
:1005C0003A4905F099F8A0690022394905F094F8F4
:1005D000206A0022374905F08FF8A06A00223649C8
:1005E00005F08AF8206B0022344905F085F8A06BED
:1005F0000022334905F080F8206C0022314905F0D3
:100600007BF8A06C0022304905F076F8206D0022BE
:100610002E4905F071F8A06D00222D4905F06CF807
:10062000206E00222B4905F067F8A06E00222A49AF
:1006300005F062F8206F0022284905F05DF8D4F833
:1006400088000022264905F057F8A06F25490022AE
:1006500005F052F8D4F880000022234905F04CF848
:10066000D4F890000022214905F046F8D4F898000B
:1006700000221F4905F040F8D4F8A00000221D49CF
:1006800005F03AF8D4F8A80000221B4905F034F828
:10069000D4F8B00019490022BDE8104005F02CB88C
:1006A00004000020CD570008E0570008FE5700085E
:1006B0001D5800083A580008585800087558000896
:1006C00093580008B1580008CF580008E7580008B0
:1006D000FB58000814590008215900082E59000839
:1006E0003B590008495900085B5900086E59000839
:1006F0008B590008A7590008CF590008F159000884
:10070000314B82B01A6842F001021A6059682F4AD0
:100710000A405A601A6822F0847222F480321A6009
:100720001A6822F480221A605A6822F4FE025A6083
:100730004FF41F029A600022DA62009201921A6856
:1007400042F480321A601A6802F400320192009A70
:1007500001320092019A1AB9009AB2F5A06FF2D153
:10076000194B1B6813F4003318BF01230193019B3D
:10077000012B23D1144B5A685A605A685A605A6840
:100780005A605A6822F47C125A605A6842F49812ED
:100790005A601A6842F080721A6019680A4A890120
:1007A000FBD5536823F003035360536843F00203FF
:1007B0005360536803F00C03082BFAD1044B4FF03D
:1007C00000629A6002B07047001002400000FFF81B
:1007D00000ED00E084B0ADF80600BDF806304FF43F
:1007E000FA629BB2534301E0039B013B0393039BDB
:1007F000002BF9D104B0704784B0ADF80600BDF805
:1008000006309BB25B0001E0039B013B0393039B1B
:10081000002BF9D104B0704710B5074C4FF480435A
:1008200023610220FFF7E8FF4FF08043022023619D
:10083000BDE81040FFF7E0BF000C014070B50F4C61
:100840004FF07C454FF4805625612661FFF7E4FFA9
:100850000120FFF7BFFF25612661FFF7DDFF0120C3
:10086000FFF7B8FF4FF4806325612361FFF7D4FFE2
:100870000120BDE87040FFF7ADBF00BF000C014094
:10088000254B4FF07C4270B504460D461A6111B1FC
:100890004FF400421A61E20644BF4FF400521A615D
:1008A0001D4B14F0200F1CBF4FF480521A616606D6
:1008B00044BF4FF400621A61174E14F0800F1CBF42
:1008C0004FF480633361FFF7A7FF4FF07053E007E9
:1008D000336103D5104B4FF400521A61A10703D5C1
:1008E0000D4B4FF480521A61620703D50A4B4FF447
:1008F00000621A61230703D5074B4FF480621A6127
:10090000FFF78AFF0220FFF765FF1DB1024B4FF092
:1009100000421A6170BD00BF000C0140034610B9CF
:10092000082019460BE021B90AB90C2003E00D207C
:1009300005E012B90E20114601E00F200021FFF75B
:100940009FBF01200021FFF79BBF08B56420FFF780
:1009500041FFFFF773FF012001460022FFF7DEFF92
:10096000BDE80840FFF7EDBFC0B20121FFF788BF27
:10097000054B1870597011B940F0800002E040F04A
:10098000C0000021FFF77CBFAE0200202DE9F84334
:1009900089460646DFF86C800127194C29E0B22809
:1009A00001D1492011E0AF2801D103200DE0DE285C
:1009B00002D10120014609E0AA2801D1022004E069
:1009C000BF2884BF404410F8C00C0121FFF758FF36
:1009D000237865780133DBB2237055B9082B08D131
:1009E000B9F1020F05D128460121FFF7C1FF25709B
:1009F000677016F8010B0028D1D1BDE8F88300BF5D
:100A0000AE0200202C02002070B506460D460024E0
:100A10000CE00121FFF734FF012D06D1E3B2072BD3
:100A200003D100202946FFF7A3FF0134305D0028E1
:100A3000EFD170BDC00040F0400038B5C0B20D46E7
:100A40000021FFF71DFF0024285D01210134FFF77D
:100A500017FF082CF8D180200021BDE83840FFF7AF
:100A60000FBF2DE9F3410025042415271F264FF061
:100A70000E08284669468DF800408DF803408DF831
:100A800005408DF801708DF802808DF804508DF8C6
:100A900006608DF80760FFF7CDFF012069468DF8ED
:100AA00002408DF806408DF800708DF801808DF8B9
:100AB00003508DF804508DF805508DF80760FFF74E
:100AC000B9FF022069468DF801408DF805408DF888
:100AD00000508DF802808DF803708DF804508DF869
:100AE00006608DF80760FFF7A5FF032069468DF8C3
:100AF00000408DF803408DF806408DF801808DF898
:100B000002708DF804508DF805508DF80760FFF7DE
:100B100091FF204669468DF800408DF803408DF81E
:100B200004408DF807408DF801808DF802708DF833
:100B300005708DF80680FFF77DFF02238DF80030E9
:100B40000A238DF803308DF804301C2307248DF818
:100B500005308DF806300520082369468DF80730EA
:100B60008DF801408DF80240FFF764FF0F238DF8E8
:100B7000003005238DF801308DF802308DF80330F8
:100B80008DF804300620092369468DF806308DF86B
:100B900005708DF80750FFF74DFF11238DF80030D9
:100BA0008DF801308DF802302046012369468DF81A
:100BB00003608DF804308DF805308DF806308DF81F
:100BC0000750FFF737FFBDE8FC810221FFF7DEBECB
:100BD00010B5044608461146FFF7CAFE204602211A
:100BE000BDE81040FFF7D2BE08B5364B5A6822F474
:100BF00040725A605A6842F400725A605A6822F48D
:100C000040625A605A6842F480625A605A6822F41C
:100C100040525A605A6842F400525A605A6822F4AC
:100C200040425A605A6842F480425A605A6822F43C
:100C300040325A605A6842F400325A605A6822F4CC
:100C400040225A605A6842F480225A605A6822F45C
:100C500040125A605A6842F400125A605A6822F4EC
:100C600040025A605A6842F480025A605A6822F080
:100C700040725A605A6842F000725A605A6822F014
:100C800040625A605A6842F080625A605A6822F0A4
:100C900040525A605A6842F000525A605A6822F034
:100CA00040425A605A6842F080425A60FFF74DFE57
:100CB000FFF747FE002101200A46BDE80840FFF784
:100CC0002DBE00BF000C0140CB782DE9F04303F0AE
:100CD0000F02DB0648BF8B780E8848BF1A4316F018
:100CE000FF0F1FD0046800234FF001084FF00F0CD6
:100CF00008FA03F707EA0605BD420FD19F000CFA78
:100D000007F902FA07F724EA09043C43CF78282FB1
:100D100001D1456102E0482F08BF05610133082B6E
:100D2000E6D104600E88FF2E21D9446800234FF0DD
:100D300001084FF00F0C03F1080708FA07F707EA5C
:100D40000605BD420FD19F000CFA07F902FA07F71A
:100D500024EA09043C43CF78282F01D1456102E001
:100D6000482F08BF05610133082BE4D14460BDE87A
:100D7000F083836819420CBF0020012070470000F7
:100D8000014B00221A807047B002002004F05EBBC5
:100D900008B504F0A1FB0248BDE80840FFF798BA87
:100DA0002064000818B100210A46FFF711BF704700
:100DB00010B5134C002290B06068124904F09CFCFE
:100DC000626849F6AF239A4217D90BA9A06803F0CD
:100DD00026FE60684FF46163B0FBF3F001A903F0F5
:100DE00053FC09490BAA06AB03F085FD06A80121B7
:100DF000FFF724FB06A804F03FFC10B010BD00BFB5
:100E0000B00200202C6400083464000810B50F4CB8
:100E100049F6AF23E26890B09A4214D90BA9206931
:100E200003F0FDFDE0684FF46163B0FBF3F001A94E
:100E300003F02AFC06490BAA06AB03F05CFD06A8EA
:100E40000221FFF7FBFA10B010BD00BFB002002076
:100E50003464000884B0ADF80600BDF806304FF4E5
:100E600016629BB2534301E0039B013B0393039B38
:100E7000002BF9D104B0704708B507200121FFF716
:100E800077FDFF200121FFF7FBFC04F0DFFA044BA4
:100E9000C8201A6C034B1A60BDE80840FFF7DABFA0
:100EA000540000206C08002008B507200121FFF73E
:100EB0005FFDFF200121FFF7E3FC04F0C7FA044BBC
:100EC000C8209A68034B1A60BDE80840FFF7C2BF0C
:100ED000540000208408002008B53E4B93F914000C
:100EE00060B90146FFF744FD3B48FFF76EFE3B4B00
:100EF0004FF487629A6102F5BE721A62354B93F91C
:100F00001430012B0DD100200146FFF731FD34488C
:100F1000FFF75BFE314B4FF496729A614FF4D27239
:100F20001A622C4B93F91430022B0DD1002001468C
:100F3000FFF71EFD2B48FFF748FE284B4FF48C723D
:100F40009A614FF4B9721A62224B93F91430032B51
:100F50000CD100200146FFF70BFD2348FFF735FEBB
:100F60001E4BA0229A614FF48C721A62194B93F9AE
:100F70001430042B0DD100200146FFF7F9FC1B486B
:100F8000FFF723FE154B4FF448729A614FF4AA62A3
:100F90001A62104B93F91430052B0CD10020014636
:100FA000FFF7E6FC1248FFF710FE0C4B64229A6133
:100FB0004FF4FA621A62074B93F91420062A01D102
:100FC00000221A7504F042FA4FF41670BDE808408A
:100FD000FFF740BFB0020020386400085400002032
:100FE000496400085A6400086B6400087C640008C7
:100FF0008D64000882B00190019A4FF0804392B254
:101000009A8500229A8409221A80198A4FF0804218
:10101000C907FAD5138A23F001031B041B0C1382A2
:1010200002B0704710B596B000230446084610A9D8
:101030008DF854208DF8553003F0F1FC4FF46160C9
:1010400001A9B4FBF0F003F01FFB10AA06AB07499F
:1010500003F051FC06A915A80BAA03F033FC0BA85A
:101060000421FFF7EBF916B010BD00BF346400088F
:10107000022838B51E4B09D11A881E49013292B296
:1010800009681A8012B28A4213D310E0012810D1E5
:101090001A88013A92B210041A8003D5154A1268D0
:1010A000013A1A80124BB3F90020002A01DA00221B
:1010B0001A8000200F4C0146FFF75AFC0C4D2346C6
:1010C00053F8040BB5F900200138801A112202FBF5
:1010D0000030FFF77AFDB5F900000022064904F060
:1010E0000BFB206805490022BDE8384004F004BB32
:1010F000B0020020D00600209E640008AB64000807
:1011000010B5044600200146FFF732FC0A4B188850
:1011100000B203F07FFAFFF758FD0848FFF755FDCE
:10112000022C08D1064B1A88064B12B29A60BDE811
:10113000104004F0D1B910BD92060020BE64000832
:10114000A80200200400002010B50446002001463B
:10115000FFF70EFC0A4B188800B203F05BFAFFF7AA
:1011600034FD0848FFF731FD022C08D1064B1A88E0
:10117000064B12B21A61BDE8104004F0ADB910BDC3
:1011800092060020BE640008AA020020040000208D
:1011900010B5044600200146FFF7EAFB2048FFF7A0
:1011A00014FD022C3AD104F083F804F047F8044609
:1011B00000200146FFF7DCFB1A48FFF706FD4FF45D
:1011C000FA60FFF747FE00200146FFF7D1FB012C34
:1011D0001BD11548FFF7F9FC1448FFF779F84FF4D5
:1011E000FA60FFF737FE124B4FF461611A69114B39
:1011F0009A61114B1A695143104A11609968104A5B
:1012000011601A6C0F4B1A6010BD0F48FFF7DDFC20
:101210004FF47A60BDE81040FFF71CBE10BD00BF60
:10122000CD640008DE640008EF6400080065000873
:101230009C000020B0020020540000207008002014
:10124000840800206C0800200F650008022810B5F3
:101250000E4C02D12369013303E0012802D1236936
:10126000013B236100200146FFF782FB206903F068
:10127000D1F9FFF7AAFC0648FFF7A7FC23694FF452
:1012800061625A43034B1A6010BD00BF5400002036
:101290002065000870080020022810B5324B07D1E5
:1012A0001A7D0132D2B2072A1A750BD1002208E04A
:1012B000012807D11A7D013AD2B214061A7501D558
:1012C00006221A75284C94F9140028B90146FFF734
:1012D0004FFB2648FFF779FC94F91430012B06D117
:1012E00000200146FFF744FB2148FFF76EFC1E4C2F
:1012F00094F91430022B06D100200146FFF738FB89
:101300001C48FFF762FC94F91430032B06D100202F
:101310000146FFF72DFB1848FFF757FC124C94F9D4
:101320001430042B06D100200146FFF721FB13489F
:10133000FFF74BFC94F91430052B06D10020014631
:10134000FFF716FB0E48FFF740FC074B93F91430EC
:10135000062B08D100200146FFF70AFB0948BDE82B
:101360001040FFF732BC10BDB00200202565000818
:101370003665000848650008596500086965000879
:101380007A6500088A650008022810B50D4C02D164
:10139000A3690A3303E0012802D1A3690A3BA361D0
:1013A00000200146FFF7E4FAA0690A23B0FBF3F03E
:1013B000012103F0A3F9FFF708FC0348BDE8104042
:1013C000FFF703BC5400002055640008022810B544
:1013D0000D4C02D1236A0A3303E0012802D1236AAB
:1013E0000A3B236200200146FFF7C2FA206A0A2363
:1013F000B0FBF3F0012103F081F9FFF7E6FB0348AE
:10140000BDE81040FFF7E1BB540000205564000820
:10141000022810B50B4C02D1A36A013303E0012866
:1014200002D1A36A013BA36200200146FFF7A0FAA4
:10143000A06A03F0EFF8FFF7C8FB0348BDE81040CF
:10144000FFF7C3BB540000209A650008022810B5BE
:101450000B4C02D1236B013303E0012802D1236B33
:10146000013B236300200146FFF782FA206B03F063
:10147000D1F8FFF7AAFB0348BDE81040FFF7A5BB72
:10148000540000209A650008022838B51A4C02D191
:10149000A36B013303E0012802D1A36B013BA363DB
:1014A00000200146FFF764FAA06B03F0B3F8FFF7E2
:1014B0008CFB1248FFF789FB206A0A250121B0FB4B
:1014C000F5F003F01BF9FFF780FB0D48FFF77DFBFC
:1014D000236AA06B64225843B0FBF2F01B1AB3FBE3
:1014E000F5F0012103F00AF9FFF76FFB0548BDE8AD
:1014F0003840FFF76ABB00BF54000020A365000816
:10150000A66500085564000808B5084B1A68084B22
:101510009B689A4209D107200121FFF729FAFF2091
:101520000121BDE80840FFF7ABB908BD84080020E1
:101530005400002008B5084B1A68084B1B6C9A42EF
:1015400009D107200121FFF713FAFF200121BDE88F
:101550000840FFF795B908BD6C0800205400002032
:1015600010B5044600200146FFF702FA022C194B81
:1015700006D19A680132082A9A6009D1012206E050
:10158000012C05D19A68013A9A600AB907229A603B
:10159000104A9368013B062B18D8DFE803F00406D5
:1015A000080A0C0E10000C480AE00C4808E00C4831
:1015B00006E00C4804E00C4802E00C4800E00C484F
:1015C000FFF703FBBDE81040FFF79EBF01239360C8
:1015D00010BD00BF54000020A9650008BA650008CE
:1015E000CB650008DC650008ED650008FE650008B5
:1015F0000F66000810B5044600200146FFF7B8F951
:10160000022C134B06D11A6C0132042A1A6409D138
:10161000012206E0012C05D11A6C013A1A640AB9BC
:1016200003221A640A4A136C022B05D0032B05D03F
:10163000012B0AD1074802E0074800E00748FFF7FE
:10164000C4FABDE81040FFF775BF0123136410BD55
:101650005400002020660008316600084266000839
:1016600010B518481021FFF784FB80B115482021E0
:10167000FFF77FFB68B113484021FFF77AFB50B1B9
:1016800010488021FFF775FBC0B9042204E0032253
:1016900002E0022200E001220B4B40F2DC50998B69
:1016A0000CB2844203DD40F2B451998304E001316D
:1016B00089B21429998304D19A7710BD024B002274
:1016C0009A8310BD000C0140B0020020034B0022A1
:1016D000987F00B11A629A77704700BFB00200206D
:1016E00038B52C480121FEF7BDFD002842D001216C
:1016F0002848FEF7C2FD284B1A8812B2012A07DCDF
:10170000264CE568188800B203F0CDF84519E5606D
:10171000214B1A8812B2022A07DD204C656818880E
:1017200000B203F0C0F8451965601C4B93F8242003
:10173000012A02D19A6801329A6093F82530174A3B
:10174000012B02D1136901331361144B93F8262046
:10175000012A02D19A6A01329A62DA6A0132DA62A5
:10176000DB6A13F0010F0E4B0CBF4FF400424FF039
:1017700000421A610B480121FEF774FD40B109488F
:101780000121FEF77AFD0848BDE8384003F074BF38
:1017900038BD00BF0044014092060020B002002086
:1017A00000080140002C014053660008034B002252
:1017B0009A62012283F82620704700BFB002002001
:1017C000034B00229A62012283F82620704700BF53
:1017D000B002002038B504464FF46160B4FBF0F06D
:1017E00002F018FF054603F064F8012803D81248F8
:1017F0000121FFF709F901212846FFF705F9012129
:101800000E48FFF701F93C23B4FBF3F4B4FBF3F00B
:1018100003FB104002F0FEFE044603F04AF80128E4
:1018200003D805480121FFF7EFF820460121BDE864
:101830003840FFF7E9B800BF58660008D6670008CF
:10184000074B4FF480321A614FF08072A3F580632A
:101850001A61044B002283F8302083F8312070474E
:10186000000C0140B0020020064A01231361064A21
:1018700082F8303082F83130044B4FF480721A61B4
:10188000704700BF000C0140B0020020000801407A
:1018900038B52D4B0122054683F83220FFF7E4FFCF
:1018A000022D2A4C02D12388013303E0012D02D1FD
:1018B0002388013B238000200146FFF759F80221CD
:1018C000208802F01BFFFFF780F92148FFF77DF920
:1018D000204B214A1888138880B21BB2002B218824
:1018E0001E4B01DC46220AE0401A118802B222EAAD
:1018F000E27242F21070424309B292FBF1F2174CCD
:101900001A64206C02F086FEFFF75FF91448FFF7B7
:101910005CF9144B19880F4B89B21A880E4B92B29E
:10192000188800B2002801DC0A230AE0891A1A8804
:101930000BB223EAE37342F210714B4312B293FBF2
:10194000F2F3A36438BD00BFB00200204C020020B7
:10195000A6650008AC0200209206002004000020CA
:101960005A6600088C06002038B5174B0122054640
:1019700083F83220FFF778FF022D144C02D1A36BBD
:10198000013303E0012D02D1A36B013BA3630020CF
:101990000146FEF7EDFFA06B02F03CFEFFF715F9E4
:1019A0000B48FFF712F900200121FEF7E1FF094B78
:1019B0000221188880B202F0A1FEFFF706F906485E
:1019C000BDE83840FFF701B9B00200200400002054
:1019D0003E660008900600206566000838B5174B83
:1019E0000122054683F83220FFF73EFF022D144CFA
:1019F00002D1236B013303E0012D02D1236B013BA4
:101A0000236300200146FEF7B3FF206B02F002FEC5
:101A1000FFF7DBF80B48FFF7D8F800200121FEF7AD
:101A2000A7FF094B0221188880B202F067FEFFF77A
:101A3000CCF80648BDE83840FFF7C7B8B002002030
:101A4000040000203E660008940600206566000839
:101A500038B5174B0122054683F83220FFF704FF03
:101A6000022D144C02D1A36A013303E0012D02D1EF
:101A7000A36A013BA36200200146FEF779FFA06A3A
:101A800002F0C8FDFFF7A1F80B48FFF79EF8002011
:101A90000121FEF76DFF094B0221188880B202F088
:101AA0002DFEFFF792F80648BDE83840FFF78DB8E5
:101AB000B0020020040000203E6600088C060020D2
:101AC0006566000838B5174B0122054683F83220B9
:101AD000FFF7CAFE022D144C02D1A369013303E0C3
:101AE000012D02D1A369013BA36100200146FEF74D
:101AF0003FFFA06902F08EFDFFF767F80B48FFF784
:101B000064F801210020FEF733FF094B188800B26A
:101B100002F080FDFFF759F80648BDE83840FFF7AE
:101B200054B800BFB0020020040000203E66000848
:101B3000920600206966000810B50A4C6368022B03
:101B400003D1FFF791FE012363606368032B07D184
:101B5000054B9C69012C03D1FFF786FE014B5C60AD
:101B600010BD00BF4C0200209C00002070B52D4D20
:101B700006460124002085F832400146FEF7F8FEB3
:101B800095F83050F5B9284B0221188880B202F040
:101B9000B5FDFFF71AF82548FFF717F82946072083
:101BA000FEF7E6FE224B188800B202F033FDFFF785
:101BB0000CF82048FFF709F805202146FEF7D8FE6B
:101BC0001D481DE01D4B0221188880B202F096FDD1
:101BD000FEF7FBFF1548FEF7F8FF00210720FEF790
:101BE000C7FE134B188800B202F014FDFEF7EDFF9C
:101BF0001348FEF7EAFF06202146FEF7B9FE11481A
:101C0000FEF7E3FF022E08D1064B93F8303013B9EC
:101C1000FFF72AFE01E0FFF713FEBDE87040FFF773
:101C20008BBF00BFB00200208C0600206566000854
:101C3000920600206E660008936600089406002055
:101C4000746600087B660008064B02221A61064B88
:101C5000012283F8302083F83320044B4FF40062D4
:101C60001A617047000C0140B002002000080140DA
:101C700010B50B4C94F93430022B10D0022384F8A9
:101C80003430FFF7DDFDFFF7DFFF00233220A363D1
:101C9000FFF7B0F90348BDE8104003F0EDBC10BDFC
:101CA000B00200207F66000808B5FFF7C9FDFFF706
:101CB000CBFF3220BDE80840FFF79CB938B5174B81
:101CC0000122054683F83220FFF7EEFF022D144C67
:101CD00002D1236A013303E0012D02D1236A013BC3
:101CE000236200200146FEF743FE206A02F092FCC8
:101CF000FEF76BFF0B48FEF768FF01210020FEF79F
:101D000037FE094B188800B202F084FCFEF75DFF35
:101D10000648BDE83840FEF758BF00BFB0020020BB
:101D2000040000203E660008920600206966000854
:101D3000074B4FF400321A61064B002283F8302023
:101D400083F83320044B4FF000621A61704700BFE4
:101D5000000C0140B00200200008014008B5FFF768
:101D6000E7FFBDE80840FFF76BBD0000304B30B522
:101D70001B8891B09BB2B3F5E16F54D22D4DEB6A45
:101D8000062B50D92C4B2D4C9B6803F00103A3610B
:101D9000FFF7E4FF2A4B1A7A002A47D101221A7270
:101DA000EB68236103F016FB02222069254903F04A
:101DB000A3FCEA6849F6AF239A4214D90BA9286913
:101DC00002F02DFE20694FF46163B0FBF3F001A92E
:101DD00002F05AFC1C490BAA06AB02F08CFD06A8C7
:101DE0000221FEF72BFB124D0A23288801A980B29D
:101DF000B0FBF3F0012202F0EBFC06AA0146134807
:101E000002F060FDFEF764FA32242888104980B29F
:101E10000222013C03F070FCE4B20A20FFF71AF83A
:101E2000002CF2D102E0064B00221A7211B030BD34
:101E300090060020B0020020000C01409C00002011
:101E40004C02002089660008346400088E66000891
:101E50009866000808B509480121FEF703FA58B151
:101E600006480121FEF709FAFFF7FAFBFFF77EFFAC
:101E7000034B9A6B01329A6308BD00BF0014004007
:101E8000B002002038B5844B012193F83C20054670
:101E900083F832104AB983F8242083F83C1083F881
:101EA000252083F83D20DA601A617C4B7C491A8832
:101EB000896992B2784B8A42DA8701D3002205E021
:101EC00093F83D200AB9DA6A1A64012283F83D20AA
:101ED000DA6A1B6C704CD31A032B07D994F83D3087
:101EE00023B1FFF73BFF002384F82530022D6A4C15
:101EF0000CD194F830301BB9FFF7D6FE012302E075
:101F0000FFF72CFF002384F825300CE0012D0AD1C7
:101F100094F84430013BDBB21D0684F8443002D50E
:101F2000032384F844305C4C94F94400002835D1F4
:101F30000146FEF71DFD594B0221188880B202F0C0
:101F4000DDFBFEF742FE5748FEF73FFE564B188872
:101F500000B202F05FFBFEF738FE5448FEF735FE94
:101F600094F8303013B90720012105E094F845308A
:101F700007200121052B03D8FEF7FAFC022002E01E
:101F8000FEF7F6FC03200121FEF7EEFC424B93F82E
:101F900045200A2A02D9002283F845203E4B93F9B6
:101FA0004440012C13D100200146FEF7E1FC4048DB
:101FB000FEF70BFE3A4B214698690A23B0FBF3F07B
:101FC00002F09CFBFEF701FE3A48FEF7FEFD324CA4
:101FD00094F94430022B1AD100200146FEF7C8FCC8
:101FE0003548FEF7F2FD354B98684FF46163B0FB5E
:101FF000F3F002F00FFBFEF7E8FD3148FEF7E5FDD8
:1020000003200121FEF7B4FCA06CFFF7E3FB224C98
:1020100094F94450032D19D100200146FEF7A8FC85
:102020002848FEF7D2FDE0684FF46163B0FBF3F09F
:1020300002F0F0FAFEF7C9FD2348FEF7C6FD284678
:102040000121FEF795FC2069FFF7C4FB124C00222A
:1020500094F83C001D4903F04FFB94F83200002235
:102060001B4903F049FB94F824000022194903F0AE
:1020700043FBA0680022184903F03EFB94F82500BA
:102080000022164903F038FB206915490022BDE8FB
:10209000384003F031BB00BFB0020020940600209E
:1020A00054000020A665000892060020A0660008E3
:1020B000A966000855640008B56600089C00002069
:1020C000B86600087C660008C1660008CA66000899
:1020D000D8660008ED66000802670008126700086D
:1020E0002A67000810B50B4C94F93430012B10D03E
:1020F000012384F83430FFF71BFEFFF7B5FB002304
:102100003220A363FEF776FF0348BDE8104003F0DA
:10211000B3BA10BDB00200208266000870B5044654
:1021200000200146FEF724FC6F4B012293F83C107F
:1021300083F832201E4619B983F83C20FFF736FB9E
:10214000B26A6A4E684DB36A9A4211D8FFF7CAFF65
:10215000674B1A88336A92B29A4209D9AB6BB3F5CE
:10216000C87F05D9FFF72CFBAA6AB36AD318AB6204
:102170005D4D5E4EAA6AB36A9A420DD9FFF778FDAB
:102180005B4B1A88B36992B29A4205D2AB6BB3F536
:10219000C87F01D9FFF714FB544BAA6A196B9B6ADD
:1021A000CB189A4201D9FFF70BFB022C4E4B09D1F9
:1021B00093F844200132D2B2032A83F844200ED18E
:1021C00000220AE0012C0AD193F84420013AD2B24D
:1021D00083F84420120602D5022283F84420424D9F
:1021E00095F94440002C32D120462146FEF7C0FB31
:1021F0003F4B0221188880B202F080FAFEF7E5FC1E
:102200003C48FEF7E2FC3C4B188800B202F002FAB0
:10221000FEF7DBFC3948FEF7D8FC06200121FEF76B
:10222000A7FB05200121FEF79FFB95F83150072001
:10223000012D05D12946FEF79BFB2046294604E0E7
:102240000121FEF795FB02200121FEF78DFB264BB5
:1022500093F94440012C23D10020244D0146FEF780
:1022600087FB286902F0D6F9FEF7AFFC2448FEF799
:10227000ACFCA8690A262146B0FBF6F002F03EFA53
:10228000FEF7A3FC1B48FEF7A0FC286A2146B0FB22
:10229000F6F002F033FAFEF798FC1A48FEF795FCC8
:1022A000114C94F94430022B1DD100200F4D0146F2
:1022B000FEF75EFBA86A02F0ADF9FEF786FC124855
:1022C000FEF783FC286B02F0A5F9FEF77EFC0F48B1
:1022D000FEF77BFC03200121FEF74AFB2069BDE8E5
:1022E0007040FFF777BA70BDB002002054000020A4
:1022F00094060020A6650008920600203D670008AD
:10230000066B000897640008EF670008456700083F
:1023100070B5784B054693F83240002C3CD1764B93
:102320001A88764B92B21B6A05339A4215D221461F
:102330002046FEF71DFB7248FEF747FC4FF4FA609B
:10234000FEF758FE20462146FEF712FB6D48FEF7C9
:102350003CFC40F6B830FEF74DFE664B00240126EB
:1023600083F8326083F8244083F825409C601C6128
:102370009C645C60DC6083F82460FFF7B3FE624B12
:1023800020465E722146FEF7F3FA6048FEF71DFC18
:102390004FF47A70FEF72EFE5D4B188800B202F003
:1023A00082FA052840F369815A4B1A88534B92B23E
:1023B0009B699A421DD2544B5A7A022A19D14D4C2C
:1023C000A36BB3F57A7F14D9002384F82530E16834
:1023D000514B994203D9E0682169FEF723FE00239F
:1023E0000126A360636084F82460FFF77BFE464B00
:1023F0005E72484B1A88414B92B21B6A9A423D4B1F
:1024000007D9414A527A012A03D19A6BB2F57A7FF1
:1024100008D89A68414B1B689A4220D93A4B5B7A9C
:10242000012B1CD1334C002384F8243062683A4BD2
:102430009A4204D960680122A168FEF7F3FD23697E
:10244000A364E268364B9A6000232361E3600123B2
:1024500084F82530FFF70CFC2B4B02225A72022D18
:10246000244B09D193F844200132D2B2052A83F8D3
:1024700044200ED100220AE0012D0AD193F8442015
:10248000013AD2B2110683F8442002D5042283F81F
:102490004420184D95F94440002C4ED12046214649
:1024A000FEF766FA1B4B0221188880B202F026F96B
:1024B000FEF78BFB1B48FEF788FB154B188800B214
:1024C00002F0A8F8FEF781FB1748FEF77EFB062016
:1024D0000121FEF74DFA04200121FEF745FA95F897
:1024E00031500720012D21D12946FEF741FA20461F
:1024F000294620E0B00200208C0600205400002075
:102500004D6700085E6700084C0200206F670008F6
:1025100092060020940600204F8C050070080020D1
:102520009C000020A66500083D6700080121FEF719
:102530001FFA02200121FEF717FA6A4B93F9444073
:10254000012C23D10020684D0146FEF711FA2869BD
:1025500002F060F8FEF739FB6448FEF736FBA86925
:102560000A262146B0FBF6F002F0C8F8FEF72DFB74
:102570005F48FEF72AFB286A2146B0FBF6F002F01E
:10258000BDF8FEF722FB5B48FEF71FFB554C94F9A4
:102590004450022D21D100200146FEF7E9F92846DA
:1025A0000121FEF7E1F900210120FEF7E1F952488F
:1025B000FEF70BFBE0684FF46163B0FBF3F002F051
:1025C00029F8FEF702FB4D48FEF7FFFA0320012130
:1025D000FEF7CEF92069FFF7FDF8424C94F944501C
:1025E000032D21D100200146FEF7C2F90020012170
:1025F000FEF7BAF900210120FEF7BAF93E48FEF7CE
:10260000E4FA60684FF46163B0FBF3F002F002F8A3
:10261000FEF7DBFA3948FEF7D8FA28460121FEF723
:10262000A7F9A068FFF7D6F82E4C94F94430042B94
:102630002FD100200146FEF79BF902200121FEF771
:1026400093F900210120FEF793F92D48FEF7BDFA1A
:102650002C4B98684FF46163B0FBF3F001F0DAFFA4
:10266000FEF7B3FA2848FEF7B0FA03200121FEF77F
:102670007FF9A06CFFF7AEF80BE01A4B9B6BB3F53C
:102680007A7F06D900200146FEF772F91F48FEF74F
:102690009CFA144C002294F832001D4903F02CF8E7
:1026A00094F8240000221B4903F026F8A0680022B9
:1026B000194903F021F860680022184903F01CF85A
:1026C00094F825000022164903F016F8206900222C
:1026D000144903F011F8E06813490022BDE8704086
:1026E00003F00AB8B002002054000020066B000876
:1026F000A665000897640008406600088067000827
:10270000B56600089C000020C16600088A670008C2
:10271000D8660008ED660008026700089B6700089D
:10272000126700082A670008B3670008F8B5934BE2
:10273000054693F83240002C3ED1914B1A88914BBC
:1027400092B21B6A05339A4215D221462046FEF703
:102750000FF98D48FEF739FA4FF4FA60FEF74AFC9C
:1027600020462146FEF704F98848FEF72EFA40F687
:10277000B830FEF73FFC814C0027012684F8326018
:1027800084F8247084F82570A7602761A7646760C7
:10279000E76084F82460FFF7A5FC7D4B39465E7244
:1027A0003846FEF7E5F87B48FEF70FFA4FF47A70EB
:1027B000FEF720FC84F84C60704C94F94C30032BED
:1027C00000F3D080744B188800B202F06CF8052832
:1027D00040F3BB80714B1A886A4B92B29B699A4254
:1027E00027D26B4B5A7A022A23D1A36BB3F57A7F97
:1027F0001FD9002384F82530E168694B994203D939
:10280000E0682169FEF70EFC5C4C01262369A36495
:10281000E268644B84F824609A6000236360A360DC
:10282000FFF760FC94F84C309B1984F84C30584BFF
:102830005E725A4B1A88534B92B21B6A9A424F4BA4
:1028400007D9534A527A012A03D19A6BB2F57A7F9B
:1028500008D89A68544B1B689A4224D94C4B5B7A2F
:10286000012B20D1454C94F94C30022B1BDC00236A
:1028700084F8243062684A4B9A4204D96068012285
:10288000A168FEF7CFFB012384F825300023E36025
:102890002361FFF7EDF994F84C300222013384F8FC
:1028A0004C303B4B5A723D4B1A88364B92B21B6AE6
:1028B0009A42324B07D9364A527A012A03D19A6B8F
:1028C000B2F57A7F08D89A68374B1B689A4221D9AB
:1028D0002F4B5B7A012B1DD1284C94F94C30022BE5
:1028E00018DDFFF73BFA002384F8243084F8253004
:1028F00062682B4B9A4204D960680122A168FEF7F6
:1029000091FB1E4B93F84C20013283F84C2002229D
:1029100083F84420022D194B09D193F84420013249
:10292000D2B2042A83F844204FD100220AE0012DBC
:102930004BD193F84420013AD2B2140683F84420D4
:1029400043D5032283F844203FE0A36BB3F57A7F9D
:1029500040F2EA8000200146FEF70AF81348FEF72D
:1029600034F9E1E0022D23D194F844300133DBB295
:10297000042B84F8443028D1002324E0B002002046
:102980008C060020540000204D6700085E67000898
:102990004C0200206F670008920600209406002079
:1029A0004F8C05009C000020700800208A670008FA
:1029B000012D0AD194F84430013BDBB2180684F8AB
:1029C000443002D5032384F844306C4D95F94440DB
:1029D000002C32D120462146FDF7CAFF684B022168
:1029E000188880B201F08AFEFEF7EFF86548FEF71E
:1029F000ECF8654B188800B201F00CFEFEF7E5F824
:102A00006248FEF7E2F806200121FDF7B1FF04203D
:102A10000121FDF7A9FF95F831500720012D05D1BF
:102A20002946FDF7A5FF2046294604E00121FDF7D0
:102A30009FFF02200121FDF797FF504B93F944407F
:102A4000012C23D10020524D0146FDF791FF28694A
:102A500001F0E0FDFEF7B9F84E48FEF7B6F8A869B8
:102A60000A262146B0FBF6F001F048FEFEF7ADF86D
:102A70004448FEF7AAF8286A2146B0FBF6F001F0B8
:102A80003DFEFEF7A2F84448FEF79FF83B4C94F950
:102A90004450022D21D100200146FDF769FF284650
:102AA0000121FDF761FF00210120FDF761FF3B4897
:102AB000FEF78BF8E0684FF46163B0FBF3F001F0D0
:102AC000A9FDFEF782F83648FEF77FF803200121C2
:102AD000FDF74EFF2069FEF77DFE284C94F9445027
:102AE000032D21D100200146FDF742FF00200121E6
:102AF000FDF73AFF00210120FDF73AFF2748FEF7D6
:102B000064F860684FF46163B0FBF3F001F082FD9C
:102B1000FEF75BF82248FEF758F828460121FDF73A
:102B200027FFA068FEF756FE144C002294F83200EE
:102B30001C4902F0E1FD94F8240000221A4902F039
:102B4000DBFDA0680022194902F0D6FD6068002272
:102B5000174902F0D1FD94F825000022154902F032
:102B6000CBFD20690022144902F0C6FDE06813493C
:102B70000022BDE8F84002F0BFBD00BFB002002057
:102B800094060020A6650008920600203D67000814
:102B900054000020066B0008976400084066000897
:102BA00080670008D8660008ED6600080267000824
:102BB0009B670008126700082A670008B3670008CF
:102BC00008B5FFF7B5F8FEF74FFE3220BDE8084024
:102BD000FEF710BA38B5AF4B012293F83C400546DA
:102BE00083F8322044BBAC4B1A88AC4B92B21B6AC0
:102BF00005339A4215D221462046FDF7B9FEA84872
:102C0000FDF7E3FF4FF4FA60FEF7F4F920462146A2
:102C1000FDF7AEFEA348FDF7D8FF40F6B830FEF74B
:102C2000E9F99C4B0022012183F8242083F83C1011
:102C300083F825205A609A60964C9B4BA2681B68CB
:102C40009A4206D89949954A0888136A80B29842F0
:102C500003D9FFF783F800230CE0926B64205A43FA
:102C60000988B2FBF0F289B29B1A994204D2FFF7AD
:102C7000A7FF012384F82430FEF75EFF022D854C68
:102C80000CD194F830301BB9FFF79AFF012302E012
:102C9000FFF764F8002384F824300CE0012D0AD1FA
:102CA00094F84430013BDBB21D0684F8443002D571
:102CB000032384F84430774C94F94400002852D11F
:102CC0000146FDF755FE94F83030A3B9724B02214E
:102CD000188880B201F012FDFDF777FF7448FDF708
:102CE00074FF724B0221188880B201F007FDFDF7D6
:102CF0006CFF704812E06D4B0221188880B201F021
:102D0000FDFCFDF762FF6A48FDF75FFF6A4B18881C
:102D100000B201F07FFCFDF758FF6848FDF755FF52
:102D20005C4B93F830402CB907200121FDF720FEC1
:102D3000204608E093F8453007200121052B04D8F0
:102D4000FDF716FE0020012103E0FDF711FE012032
:102D50000146FDF709FE4F4B93F845200A2A02D998
:102D6000002283F845204B4B93F94440012C1BD1A2
:102D700000200146494DFDF7FBFD5148FDF725FFB9
:102D8000286901F047FCFDF720FF4E48FDF71DFFC5
:102D9000286A0A23B0FBF3F0214601F0AFFCFDF7EF
:102DA00014FF4448FDF711FF3A4B93F94430022BCE
:102DB00029D13A4C00200146FDF7DAFDA06B01F065
:102DC00029FCFDF702FF4048FDF7FFFE206A0A25B7
:102DD0000121B0FBF5F001F091FCFDF7F6FE34485F
:102DE000FDF7F3FE236AA06B64225843B0FBF2F0B8
:102DF0001B1AB3FBF5F0012101F080FCFDF7E5FEA5
:102E00002C48FDF7E2FE234C94F94450032D19D1D0
:102E100000200146FDF7ACFD2C48FDF7D6FE6068AA
:102E20004FF46163B0FBF3F001F0F4FBFDF7CDFE6E
:102E30002748FDF7CAFE28460121FDF799FDA06845
:102E4000FEF7C8FC134C6420FEF704F894F83C002D
:102E50000022204902F050FC94F8320000221E4962
:102E600002F04AFC94F8240000221C4902F044FCC1
:102E7000A06800221A4902F03FFC94F825000022C5
:102E8000184902F039FC206917490022BDE8384092
:102E900002F032BCB00200208C060020540000205A
:102EA0004D6700085E670008700800209406002047
:102EB000A66500085564000892060020A066000878
:102EC000D5670008D8670008A3650008E067000818
:102ED000C1660008CA660008D8660008ED660008EA
:102EE00002670008126700082A67000838B5904B8F
:102EF000012293F83C40054683F8322044BB8D4BB9
:102F00001A888D4B92B21B6A05339A4215D221461C
:102F10002046FDF72DFD8948FDF757FE4FF4FA6076
:102F2000FEF768F820462146FDF722FD8448FDF7AC
:102F30004CFE40F6B830FEF75DF87D4B00220121D3
:102F400083F8242083F83C1083F825205A609A6087
:102F5000774B9A687B4B1B689A4206D87A4B1A8843
:102F6000754B92B21B6A9A4205D9FEF7F7FE704B79
:102F7000002283F82420FEF7DFFD022D6C4C0CD1DB
:102F800094F830301BB9FFF71BFE012302E0FEF777
:102F9000E5FE002384F824300CE0012D0AD194F8DA
:102FA0004430013BDBB284F844301B0602D50223D7
:102FB00084F844305E4C94F94400002852D1014614
:102FC000FDF7D6FC94F83030A3B95A4B022118888B
:102FD00080B201F093FBFDF7F8FD5C48FDF7F5FDCD
:102FE000594B0221188880B201F088FBFDF7EDFDF6
:102FF000574812E0544B0221188880B201F07EFB42
:10300000FDF7E3FD5148FDF7E0FD524B188800B293
:1030100001F000FBFDF7D9FD4F48FDF7D6FD444B0D
:1030200093F830402CB907200121FDF7A1FC204680
:1030300008E093F8453007200121052B04D8FDF75F
:1030400097FC0020012103E0FDF792FC01200146DE
:10305000FDF78AFC364B93F845200A2A02D9002254
:1030600083F84520324B93F94440012C1BD10020BA
:103070000146314DFDF77CFC3848FDF7A6FD286977
:1030800001F0C8FAFDF7A1FD3548FDF79EFD286A5D
:103090000A23B0FBF3F0214601F030FBFDF795FD6C
:1030A0003048FDF792FD224C94F94430022B19D19F
:1030B00000200146FDF75CFC2B48FDF786FD6068AB
:1030C0004FF46163B0FBF3F001F0A4FAFDF77DFD6E
:1030D0002648FDF77AFD03200121FDF749FCA06891
:1030E000FEF778FB124C002294F83C00204902F0D5
:1030F00003FB94F8320000221E4902F0FDFA94F816
:10310000240000221C4902F0F7FAA06800221B49A3
:1031100002F0F2FA94F825000022194902F0ECFAC4
:10312000206918490022BDE8384002F0E5BA00BF26
:10313000B00200208C060020540000204D670008DB
:103140005E6700087008002094060020A66500084D
:1031500097640008920600203D670008D5670008C4
:10316000D867000855640008E0670008B8660008E2
:10317000CA660008D8660008ED6600080267000805
:10318000126700082A670008F0B5A24B0122022846
:1031900087B083F8322009D193F84D200132D2B2A2
:1031A000082A83F84D200ED100220AE001280AD116
:1031B00093F84D20013AD2B283F84D20120602D581
:1031C000072283F84D20934B93F94D400CBBFEF73B
:1031D000C5FD21462046FDF7CBFB8F48FDF7F5FCEA
:1031E0008E4B012118880A2380B2B0FBF3F001F066
:1031F00085FAFDF7EAFC8A48FDF7E7FC894B0221D6
:10320000188880B201F07AFAFDF7DFFC8648FDF7F6
:10321000DCFC804B93F94D30012B1DD1FEF79EFD58
:1032200000200146FDF7A4FB8048FDF7CEFC804B53
:103230000221188880B201F061FAFDF7C6FC7D48D2
:10324000FDF7C3FC7C4BD88880B201F0E3F9FDF7B1
:10325000BCFC7A48FDF7B9FC6E4B93F94D40022C4B
:103260001DD1FEF701FB00200146FDF781FB7448EC
:10327000FDF7ABFC734B2146188880B201F03EFA93
:10328000FDF7A3FC6B48FDF7A0FC6B4B988880B260
:1032900001F0C0F9FDF799FC6848FDF796FC5D4B1D
:1032A00093F94D30032B1ED1FEF742FDFEF7DCFAF9
:1032B00000200146FDF75CFB6348FDF786FC634B8D
:1032C000188800B201F0A6F9FDF77FFC6048FDF711
:1032D0007CFC594B588880B201F09CF9FDF775FCD5
:1032E0005648FDF772FC4B4B93F94D30042B1ED121
:1032F000FEF7A6FAFEF7A8FC00200146FDF738FB12
:103300005448FDF762FC544B188800B201F082F972
:10331000FDF75BFC4E48FDF758FC474B188880B220
:1033200001F078F9FDF751FC4C48FDF74EFC394BA4
:1033300093F94D30052B3DD13D4D494CFEF7F8FC3E
:10334000FEF792FA2988238889B29BB23F4FCB1AA5
:1033500042F210714B433A88424E12B2002093FB66
:10336000F2F30146B364FDF703FB3F48FDF72DFC84
:10337000306C01F04FF9FDF728FC3C48FDF725FCC7
:10338000B06C01F047F9FDF720FC3948FDF71DFC52
:103390003888384900B2002202F0AEF92888364950
:1033A00080B2022202F0A8F92088344980B20222B9
:1033B00002F0A2F9174C94F94D30062B0ED1FEF70E
:1033C000CDFC00200146FDF7D3FA01A9E06A01F027
:1033D000B5FAFDF7FAFB2A48FDF7F7FB0D4C94F917
:1033E0004D30072B14D1FEF7B9FC00200146FDF744
:1033F000BFFA2448FDF7E9FBA0694FF46163B0FB15
:10340000F3F001F007F9FDF7E0FB1F48FDF7DDFBE6
:1034100007B0F0BDB0020020E3670008900600206E
:10342000E86700088E0600203D660008ED6700088A
:103430008C060020A6650008740800203B66000882
:10344000F267000894060020F86700089206002042
:10345000FE67000802680008AA0200203A66000819
:10346000AC02002004000020086800080B68000877
:1034700010680008186800081C6800082368000825
:10348000396600082B6800083268000808B5274B29
:103490000122022883F8322007D193F8303013B983
:1034A000FEF7D2FB01E0FEF743FC00200146FDF7EA
:1034B0005FFA1F4B0221188880B201F01FF9FDF757
:1034C00084FB1C48FDF781FB1B4B188800B201F000
:1034D000A1F8FDF77AFB1948FDF777FB134B93F83A
:1034E000302012B90620012105E093F8453006206E
:1034F0000121052B07D8FDF73BFA02200121FDF73A
:1035000033FA022006E0FDF733FA03200121FDF72C
:103510002BFA03200121FDF727FA044B93F84520ED
:103520000A2A02D9002283F8452008BDB0020020F3
:1035300094060020A6650008920600207466000824
:103540002DE9F04100F00AFFA94B4FF40042A94DCC
:103550001A610024FEF702FCA7482C60FDF735FB3A
:10356000FDF77FFA21462046FDF702FA4FF4FA6094
:10357000FDF770FC01F0A4FB2B68172B88BF2C60B3
:1035800001F05CFE80B94FF47A70FDF763FC01F046
:1035900055FE48B99948FDF718FB4FF47A60FDF7DE
:1035A00059FC9748FCF794FE964B974C1A69974B39
:1035B00097489A6123694FF461625A43954B1A60A8
:1035C000A268954B1A60236C944A436013600A30DA
:1035D00002F052F8FCF7E6FFFDF7B3F99048FCF76C
:1035E000BFFDA368012B17D0022B01D18D4814E039
:1035F000032B01D18C4810E0042B01D18B480CE047
:10360000052B01D18A4808E0062B01D1894804E046
:10361000072B01D1884800E08848FCF789FD7B4DE5
:10362000874F864E95F84530013385F84530FEF7D3
:103630004DF80446B868834900F00100002202F00A
:103640005BF8631E032B17D8DFE803F002060A11AC
:10365000FCF768FD40680DE0FCF764FD006809E0D8
:103660000220FCF787FDFCF75DFDC06802E0FCF777
:1036700059FD8068FCF75CFDFCF754FDB04203D1B6
:103680002046FEF773FA3EE1FCF74CFDDFF894812B
:10369000404503D12046FFF7F9FE34E1FCF742FD37
:1036A00008F12C03984203D12046FFF71FFC2AE1C2
:1036B000FCF738FD08F15803984203D12046FFF784
:1036C00089FA20E1FCF72EFD08F18403984203D12A
:1036D0002046FEF7D7FB16E1FCF724FD08F58473BE
:1036E000984203D12046FFF721F80CE1FCF71AFDC0
:1036F00008F1B003984203D12046FEF709FE02E12B
:10370000FCF710FD08F1DC03984203D12046FEF7D8
:1037100005FDF8E0FCF706FD08F59A73984203D121
:103720002046FFF731FDEEE0FCF7FCFC08F5B07831
:10373000404503D12046FDF79BFCE4E0FCF7F2FC9A
:10374000DFF80481404503D12046FDF7FDFCDAE0B7
:10375000FCF7E8FC08F12C03984203D12046FDF762
:10376000CFFCD0E0FCF7DEFC08F15803984203D10F
:103770002046FEF7A3FAC6E0FCF7D4FC08F1840368
:10378000984203D12046FEF79DF9BCE0FCF7CAFC45
:1037900008F1B003984203D12046FEF7E5F8B2E005
:1037A000FCF7C0FC08F1CC03984203D12046FEF799
:1037B00015F9A8E0FCF7B6FC08F1F803984203D12C
:1037C0002046FEF745F99EE0FCF7ACFC08F5927345
:1037D000984203D12046FEF75BF894E0FCF7A2FC88
:1037E00008F5A073984231D12046FDF7D1FC8AE05C
:1037F00000080140D0060020560200204068000862
:10380000516800089C00002054000020B0020020F5
:103810004C02002070080020840800206C08002062
:10382000A50D00082C5A0008585A0008845A0008B0
:10383000B05A0008DC5A0008085B0008005A00086B
:10384000000C01405F680008B85B0008FCF76AFCE8
:1038500008F5AE78404503D12046FDF7F7FC52E06D
:10386000FCF760FCDFF8D480404503D12046FDF72B
:1038700013FD48E0FCF756FC08F12C03984203D1F5
:103880002046FDF781FD3EE0FCF74CFC08F15803B3
:10389000984203D12046FDF799FD34E0FCF742FC45
:1038A00008F18403984203D12046FDF7B1FD2AE0D8
:1038B000FCF738FC08F1B003984203D12046FDF72D
:1038C000C5FD20E0FCF72EFC08F1DC03984203D193
:1038D0002046FDF7D9FD16E0FCF724FC08F58473BB
:1038E000984203D12046FDF73BFE0CE0FCF71AFCA2
:1038F00008F59A78404503D12046FDF77BFE02E0AB
:10390000002385F8323095F832407CB9FEF726FA6C
:10391000EA68084B85F83C409A602B690122AB6449
:10392000054B85F8444085F834405A606420FDF723
:1039300061FB77E69C0000204C020020405D0008FF
:1039400008B507480121FCF78DFC40B1044801216E
:10395000FCF793FC0348BDE8084001F08DBE08BDAC
:10396000001000406468000870B592B07E2312A970
:10397000002621F8043D48488DF84760FDF7A4F97A
:1039800001214FF4007000F03DFB0120014600F0E2
:103990002DFB424B082502934FF48063089380234C
:1039A0000693202309933E4B3E4801934FF48073C6
:1039B000079301A94FF400530A93049503960B96BD
:1039C000059601F077F80121364801F091F84FF49F
:1039D000004000F0B9FA01244FF4602332480CA9EA
:1039E0000E938DF835400F960C968DF840508DF85B
:1039F000344000F0DBFC07232B482146224600F030
:103A000026FD02210A460723274800F020FD032156
:103A10000A460723244800F01AFD04210A4607231A
:103A2000214800F014FD05210A4607231E4800F036
:103A30000EFD06210A4607231B4800F008FD20461C
:103A400000F054FD072213461748112100F0FFFC37
:103A50002A4604231448102100F0F9FC124821469C
:103A600000F0C8FC1048214600F0CDFC0E4800F0E4
:103A7000D3FC0D4800F0D5FC0028FAD10A4800F02C
:103A8000D4FC094800F0D6FC0028FAD106480121F0
:103A900000F0D4FC12B070BD000801407408002092
:103AA0004C24014008000240002401401FB50121C0
:103AB000022000F0B3FA104C01A8FCF7B5FB45F664
:103AC000BF53ADF804302046052301A9ADF80830F6
:103AD000FCF760FB01210A462046FCF7BAFB2046B2
:103AE0000121FCF7AAFB054B4FF000521A6020227F
:103AF00083F81D231FBD00BF0004004000E100E06B
:103B0000224A234B91682DE9F04108319160C91A8E
:103B1000002808BF0120A729C8BF936093681268D6
:103B20001E689A4208BF194A184C08BF1660194F00
:103B30002268988015252146BC46D2F80080984519
:103B4000B2F8048008BF1660804503D20868186088
:103B50000B600020BA42246814D01168D1F80080AC
:103B60009845B1F8048008BF0E60804503D2106804
:103B7000186013600020614504D0013DADB20A68B1
:103B8000002DDAD1A088BDE8F08100BF68020020D6
:103B900020030020C8030020234A244B51692DE94B
:103BA000F04108315161C91A002808BF0120B1F560
:103BB000A47FA8BF53615369D2681E689A4208BFA8
:103BC000194A194908BFD66051F80C2F184F988030
:103BD00029250C46BC46D2F800809845B2F80480EE
:103BE00008BF1660804503D220681860236000205B
:103BF000BA42096814D01468D4F800809845B4F823
:103C0000048008BF2660804503D2106818601360E6
:103C10000020644504D0013DADB22268002DDAD108
:103C20008888BDE8F08100BF68020020D003002032
:103C300018050020234A244B116A2DE9F041083170
:103C40001162C91A002808BF0120B1F5A47FA8BFDE
:103C50001362136A92691E689A4208BF194A194989
:103C600008BF966151F8182F184F988029250C46E7
:103C7000BC46D2F800809845B2F8048008BF1660B0
:103C8000804503D22068186023600020BA4209688A
:103C900014D01468D4F800809845B4F8048008BFA4
:103CA0002660804503D210681860136000206445C8
:103CB00004D0013DADB22268002DDAD18888BDE87C
:103CC000F08100BF68020020200500206806002067
:103CD0000F49D1F85433D1F85023C1F858339342E7
:103CE000C1F85423C1F8500307DC834203DC90423F
:103CF000A8BF104670479A4205DC824203DC984216
:103D0000A8BF184670479A42B4BF1046184670477D
:103D1000200300200F49D1F86033D1F85C23C1F8AB
:103D200064339342C1F86023C1F85C0307DC83422B
:103D300003DC9042A8BF104670479A4205DC8242DD
:103D400003DC9842A8BF184670479A42B4BF104699
:103D500018467047200300202DE9F74370480121E1
:103D6000FCF780FA002800F0D8806E4C0121D4F8CE
:103D700068336B480133C4F86833FCF77EFA0025DA
:103D80000220ADF80450ADF8065000F0C5FE022048
:103D900000F0CCFE644E02212A46644800F0B3FED7
:103DA000634BF1889B6A89B24B43B28992B2B3FBF1
:103DB000F2F39BB2ADF80630BDF8060080B2FFF713
:103DC00039FFA4F86C03B4F86C334FF4F0229BB2C3
:103DD000022B98BFA4F86C53B389554D9BB292FB4C
:103DE000F3F39BB2A4F86E33B1882B6B89B24B43CB
:103DF000B28992B2B3FBF2F39BB2ADF80630BDF8D4
:103E0000060080B2FFF77CFE80B2ADF80400BDF87A
:103E10000420484B92B21A80BDF804301BB2022B2A
:103E200002DC0023ADF804303F4CAB6B2189A28942
:103E300089B24B4392B2B3FBF2F39BB2ADF80630BA
:103E4000BDF80600DFF8DC8000B2FFF763FFAB6966
:103E500080B24FF00A09A8F8700309FB03F36188E8
:103E6000A28989B24B4392B2B3FBF2F39BB2ADF895
:103E70000630BDF80600304F80B2FFF78DFE296A8C
:103E800080B2388009FB01F92288A38992B202FB33
:103E900009F99BB2B9FBF3F91FFA89F9ADF806905D
:103EA000BDF80600224E00B2FFF712FF234B80B28E
:103EB000234A18809268920753BF3A881B88326958
:103EC000B368D31A9BB2A8F87233164AB8F87233A3
:103ED000174BBDF80410B2F872231B6C12B2534397
:103EE000184A93FBF2F35B189BB2ADF80430BDF8AF
:103EF00004301BB2022B02DC0023ADF80430BDF805
:103F00000420084B92B20948A3F87423022101222D
:103F100003B0BDE8F04300F0F6BD03B0BDE8F083A8
:103F20000004004020030020740800200800024024
:103F300004000020AC020020A8020020AA020020F9
:103F4000000C0140F0D8FFFF034B5A6822F44042B6
:103F500010435860704700BF0010024010B51F4B5F
:103F60005A6802F00C02042A01D0082A02D01C4B25
:103F7000036011E05A685968C2F383420232C903F0
:103F800001D4184B06E0DB6A154903F00F03013337
:103F9000B1FBF3F35A430260104A134B51680468B3
:103FA000C1F30311595C24FA01F141605468C4F370
:103FB00002241C5D21FA04F484605468C4F3C22412
:103FC0001C5D21FA04F1C1605268C2F381329B1872
:103FD0001B7CB1FBF3F1016110BD00BF001002407A
:103FE00000127A0000093D008C020020044B5A693F
:103FF00009B1104301E022EA00005861704700BF98
:1040000000100240044B9A6909B1104301E022EA12
:1040100000009861704700BF00100240044BDA694D
:1040200009B1104301E022EA0000D861704700BFE7
:10403000001002404209012300F01F0003FA00F0C3
:10404000014B43F82200704700E100E000284FEAEE
:10405000011106DA064B00F00F00C9B2C318197639
:104060007047044BC9B2C31883F80013704700BFF0
:10407000FCEC00E000E100E038B5384C08200121FC
:10408000FFF7C0FF2368364D23F003032360236846
:10409000012023F00C0323602368014643F0020350
:1040A0002360236823F00C0323606B6823F0030371
:1040B0006B606B6823F00C036B606B6843F002036A
:1040C0006B606B6823F00C036B606B6823F44053E8
:1040D0006B606B6823F440436B606B6843F4005380
:1040E0006B606B6823F440436B60FFF78BFF1D4BE5
:1040F0005A6842F000725A606B6823F040536B605C
:104100006B6823F040436B606B6843F000536B6057
:104110006B6823F040436B60636823F003036360C4
:10412000636823F00C036360636843F00203636019
:10413000636823F00C036360236823F0300323607B
:10414000236823F0C0032360236843F02003236027
:10415000236823F0C003236038BD00BF000C01407A
:10416000000801400000014008B508200121FFF7C8
:1041700049FF1D4B1A6822F440121A601A6822F493
:1041800040021A601A6842F400021A6020221A6182
:104190001A6822F440321A601A6822F440221A6027
:1041A0001A6842F400221A6010221A611A6822F07A
:1041B00040721A601A6822F040621A601A6842F06F
:1041C00000621A6040221A611A6822F040521A6096
:1041D0001A6822F040421A601A6842F000421A60DF
:1041E00080221A6108BD00BF000C01401FB50121EB
:1041F0002020FFF713FF104C01A8FCF715F840F63C
:104200005F13ADF8043020460A2301A9ADF8083049
:10421000FBF7C0FF01210A462046FCF71AF80121EE
:104220002046FCF70AF83720FFF704FF3720052166
:10423000FFF70CFF1FBD00BF001400401FB5012198
:104240004FF40030FFF7DEFE01A8FBF7EDFF104C46
:104250000023ADF8063045F6BF53ADF804302046D4
:104260004FF47A7301A9ADF80830FBF793FF0121F1
:104270000A462046FBF7EDFF01212046FBF7DDFF54
:104280001920FFF7D7FE19200121FFF7DFFE1FBD20
:1042900000440140064BDA6942F00102DA614FF056
:1042A000804345F6BF521A8509221A80704700BF25
:1042B000001002401FB501211020FFF7AFFE104C87
:1042C00001A8FBF7B1FF45F6BF53ADF80430204617
:1042D0004FF47A7301A9ADF80830FBF75BFF0121B9
:1042E0000A462046FBF7B5FF01212046FBF7A5FF54
:1042F0003620FFF79FFE36200321FFF7A7FE1FBDE4
:10430000001000401FB501214FF40060FFF77AFE56
:1043100001A8FBF789FF104C0023ADF8063045F6E5
:10432000BF53ADF8043020464FF47A7301A9ADF8BD
:104330000830FBF72FFF01210A462046FBF789FFD3
:1043400001212046FBF779FF1920FFF773FE1920A2
:104350000121FFF77BFE1FBD002C014008B50420A2
:104360000121FFF74FFE08200121FFF74BFE10202F
:104370000121FFF747FEFCF737FC01F0DDF8FFF7FE
:104380007BFEFFF7F1FEFFF791FBFFF757FFFFF70B
:1043900081FFFFF771FEFFF7E7FAFFF727FFFFF74F
:1043A00089FFBDE80840FFF7ADBF000043680A6819
:1043B00023F4702323F4807313430A7910B543EA7E
:1043C000022343608A68CB6884681A43084B234001
:1043D00013434A7943EA420383600B7CC26A013B80
:1043E00022F47002DBB242EA0353C36210BD00BF85
:1043F000FDF7F1FF836811B143F0010301E023F001
:10440000010383607047836811B143F4807301E056
:1044100023F4807383607047836843F008038360EC
:1044200070478068C0F3C0007047836843F004039E
:10443000836070478068C0F380007047836811B163
:1044400043F4A00301E023F4A0038360704709292B
:1044500070B54FF003040DD94C4307251E3C05FAF7
:1044600004F503FA04F3C66826EA050545EA0304E1
:10447000C4600BE04C43072505FA04F503FA04F485
:10448000066926EA050545EA04030361062A4FF09A
:1044900005030CD8013A53431F2202FA03F201FA32
:1044A00003F3446B24EA02021343436370BD0C2AF6
:1044B0000DD853431F22233B02FA03F201FA03F102
:1044C000046B24EA020242EA0103036370BD534312
:1044D0001F22413B02FA03F201FA03F1C46A24EA03
:1044E000020242EA0103C36270BD0000044B9A68F5
:1044F00010B142F4000201E022F400029A60704719
:104500000024014030B5038ACA8823F440531B04B9
:104510001B0C134303820D4683890989AA8823F45F
:10452000B0530A43698923F00C030A431B041B0C94
:1045300092B213438381838AAA8923F440731B04B4
:104540001B0C87B013430446838201A8FFF706FDC6
:10455000174BA2899C420CBF049B039B12B2002AFA
:104560004FF019012A6801FB03F101DA520000E063
:1045700092006423B1FBF2F1B1FBF3F212011009D6
:1045800003FB1011A08900B2002806DAC9003231FD
:10459000B1FBF3F303F0070305E009013231B1FB8E
:1045A000F3F303F00F031A4392B2228107B030BD38
:1045B00000380140838919B19BB243F4005303E0F2
:1045C00023F400531B041B0C83817047C1F3421377
:1045D00010B5012401F01F01A34204FA01F101D139
:1045E0000C3004E0022B01D1103000E014300368DD
:1045F0000AB1194301E023EA0101016010BDC905B8
:10460000C90D81807047038819420CBF002001202A
:10461000704700007FB580EAE072A2EBE0720DF116
:10462000FF3500230A2492FBF4F104FB11223032FF
:1046300005F8012F1E4601330A1EDBB2F3DC002809
:1046400007DA5BB204A8C3182D2203F8102CB31CA0
:10465000DBB25AB204A88118002001F8100C68449B
:104660008118074811F8014C013BDBB2013900F811
:10467000014F002BF6D10348835404B070BD00BF36
:10468000A3060020A4060020F0B5034685B083EA07
:10469000E370A0EBE3700DF1FF3600220A2590FBDA
:1046A000F5F405FB1400303006F8010F174601320F
:1046B000201ED2B2F3DC002B07DA04AB52B29A18F8
:1046C0002D2302F8103CBA1CD2B250B204AC23180D
:1046D000002403F8104C0DEB040318180C46134685
:1046E00052B210F8015C013BDBB2013804F8015B07
:1046F000002BF6D18B54084605B0F0BDF0B58BB059
:1047000080EAE073A3EBE0730DF1FF3600220A2587
:1047100093FBF5F405FB1433303306F8013F1746DD
:104720000132231ED2B2F3DC53B20AADEC180025DD
:10473000012B04F8285C04D13023BA1C8DF8013019
:10474000D2B2022A05D1012903D930238DF80230D3
:10475000032200240DF1280C23460CEB01062E2524
:1047600052B25FB28F4203D1013306F8145CDBB260
:104770005FB20DF1280C67441DF804C0013407F83E
:1047800014CC67B201339742DBB2EADB002807DAC8
:104790005AB20AA98A1801332D2102F8141CDBB27F
:1047A00059B205AD084800226C1804E0A55C013B35
:1047B00000F8015FDBB2013A002BF7D10348411842
:1047C0000B7410300BB0F0BDB3060020A40600201F
:1047D0002DE9F04103468AB083EAE370A0EBE37071
:1047E0000DF1FF3700240A2690FBF6F506FB1500B5
:1047F000303007F8010FA4460134281EE4B2F3DC80
:1048000060B20AAE35180026012805F8286C05D1DB
:1048100030200CF102048DF80100E4B2022C05D125
:10482000012A03D930208DF80200032400250DF160
:104830002808284608EB02072E2664B24FFA80FCAF
:10484000944503D1013007F8146CC0B24FFA80FCD4
:104850000DF12808C4441DF8058001350CF8148CAE
:104860004FFA85FC0130A445C0B2E7DB002B07DA24
:1048700043B20AAAD31801302D2203F8142CC0B277
:1048800042B205AE0C460023B51804E0EE5C0138D8
:1048900004F8016BC0B2013B0028F7D188540846E8
:1048A0000AB0BDE8F081002802D001DC404200B22D
:1048B00070470346002001E00130C0B21A5C002AB4
:1048C000FAD1704730B50346002401E01555013494
:1048D0001D5DE0B2002DF9D12B4645B2551903E01C
:1048E0000130EC54C0B20133CC5C002CF8D140B2A2
:1048F0001454104630BD70B5002501E05E550135F9
:10490000465DECB2002EF9D1304666B29E1903E046
:1049100001343554E4B201300D5C002DF8D1294644
:1049200065B25D1903E001346854E4B20131505CB2
:104930000028F8D164B21855184670BD2DE9F04131
:10494000074686B04FF461600C46B7FBF0F001A952
:10495000FFF79AFE01A8FFF7ACFF012803D8302328
:104960002370012600E000260023A11902E0CA54AA
:10497000EEB201330DF1040813F80820751C002A6B
:10498000F5D13A2273B2E2543C23B7FBF3F2B2FB07
:10499000F3F003FB10204146FFF776FE4046FFF799
:1049A00088FF0128EDB204D86DB230236355B51CE1
:1049B000EDB269B20023611802E0CA54F5B20133C6
:1049C0000DF1040813F808206E1C002AF5D13A22D4
:1049D0006BB2E2543C23B7FBF3F003FB107041468B
:1049E000FFF752FE4046FFF764FF0128F6B204D8F5
:1049F00076B230230235A355EEB271B200236118AE
:104A000003E00136CA54F6B2013301AA9A5C002AC7
:104A1000F7D176B2A255204606B0BDE8F0812DE967
:104A2000F041804686B04FF461600C46B8FBF0F070
:104A300001A9FFF729FE01A8FFF73BFF012803D8D2
:104A400030232370012500E000250023611902E0D6
:104A5000CA54F5B2013301AFDA5D6E1C002AF7D1FA
:104A60003A226BB2E2543C23B8FBF3F8B8FBF3F004
:104A700003FB10803946FFF707FE3846FFF719FFA2
:104A80000128F6B204D876B230230235A355EEB22F
:104A900071B20023611803E00136CA54F6B2013343
:104AA00001AA9A5C002AF7D176B2A255204606B038
:104AB000BDE8F0818B6810B50C6A026823430C696D
:104AC00022F4FE4223434C6922F0F00223438C6916
:104AD0002343CC6923434C6A23438C6A2343134307
:104AE0000360CB6843600B6883604B68C36010BD94
:104AF00019B1036843F0010303E002684FF6FE7347
:104B000013400360704703680AB1194301E023EAC8
:104B10000101016070470000C2004CBF014B024B15
:104B2000586070470004024000000240C3004CBFC0
:104B3000014B024B586070470004024000000240E5
:104B4000C37810B5F3B1154B4178DB688478DB434B
:104B5000C3F30223C3F1040201FA02F10F2222FA85
:104B600003F222400A430E4B01781201CB18D2B255
:104B700083F8002303780122590903F01F0302FA86
:104B800003F307E003780122590903F01F0302FA37
:104B900003F32031024A42F8213010BD00ED00E05D
:104BA00000E100E00F4AD36813F0010F0D4BFAD17A
:104BB000DA68920601D52022DA601A6942F0020210
:104BC0001A6158611A6942F040021A61054AD168B7
:104BD000044B8906FBD52022DA601A6922F0020212
:104BE0001A61704700200240034B044A5A6002F1E8
:104BF00088325A60704700BF002002402301674599
:104C0000024B1A6942F080021A617047002002408C
:104C1000124AD36813F0010F104BFAD1DA689206EA
:104C200001D52022DA601A6942F001021A618BB2C2
:104C300003800A4BDA6812F0200F084AFAD02023CA
:104C4000090CD3604180D168044B8906FBD5202232
:104C5000DA601A6922F001021A61704700200240EE
:104C600070B572B6114CFFF7BFFF4FF4CE7010490C
:104C7000002200F041FD20680E49002200F03CFDBA
:104C80000D48FFF78FFF0C4D0C4E2B1903F17843A5
:104C9000A3F5F233284619680435FFF7B9FFB5428A
:104CA000F3D1FFF7ADFF62B670BD00BFD0060020A4
:104CB000696900087069000800E401089CE50108C2
:104CC00010B5074B0749084A58181C6800F178408E
:104CD0000433A0F5F23093420460F5D1012010BDF9
:104CE00000E40108D00600209CE5010870B50468C6
:104CF0000E468C4201D3944211D90A4B00251D70F7
:104D000009492A4600F0F8FC204608492A4600F0E6
:104D1000F3FC074807492A4600F0EEFC34462046DB
:104D200070BD00BFA0020020766900088D690008F0
:104D300000EC01089F69000810B5184C6068FFF787
:104D400031FF60682168FFF763FFE068A168FFF743
:104D50005FFF60692169FFF75BFFE069A169FFF709
:104D600057FF606A216AFFF753FFE06AA16AFFF705
:104D70004FFF606B216BFFF74BFFE06BA16BFFF701
:104D800047FF606C216CFFF743FFE06CA16CFFF7FD
:104D90003FFF034800F070FC10BD00BF040000207E
:104DA000B669000810B5184C6068FFF7FBFE606834
:104DB0002168FFF72DFFE068A168FFF729FF606910
:104DC0002169FFF725FFE069A169FFF721FF606A0C
:104DD000216AFFF71DFFE06AA16AFFF719FF606B08
:104DE000216BFFF715FFE06BA16BFFF711FF606C04
:104DF000216CFFF70DFFE06CA16CFFF709FF034882
:104E000000F03AFC10BD00BF8C010020CF69000803
:104E100038B5224C002160684FF48072FFF766FFBE
:104E2000002120604FF47A72E068FFF75FFF0021F5
:104E3000A0604FF47A726069FFF758FF184D206147
:104E40000A212A46E069FFF751FF0A21A0612A469C
:104E5000606AFFF74BFF0A2120622A46E06AFFF7EB
:104E600045FF0A21A0622A46606BFFF73FFF0A2137
:104E700020632A46E06BFFF739FF4621A063C82272
:104E8000606CFFF733FF0A212064C822E06CFFF753
:104E90002DFFA064034800F0EFFB38BD04000020A4
:104EA000A0860100EF69000838B5224C0021606837
:104EB0004FF48072FFF71AFF002120604FF47A72DE
:104EC000E068FFF713FF0021A0604FF47A72606979
:104ED000FFF70CFF184D20610A212A46E069FFF711
:104EE00005FF0A21A0612A46606AFFF7FFFE0A213A
:104EF00020622A46E06AFFF7F9FE0A21A0622A46EC
:104F0000606BFFF7F3FE0A2120632A46E06BFFF790
:104F1000EDFE4621A063C822606CFFF7E7FE0A2180
:104F20002064C822E06CFFF7E1FEA064034800F0B3
:104F3000A3FB38BDDC010020A0860100096A00083F
:104F400010B5164C6068FFF72DFE60682168FFF70A
:104F50005FFEE068A168FFF75BFE60692169FFF70B
:104F600057FEE069A169FFF753FE606A216AFFF707
:104F70004FFEE06AA16AFFF74BFE606B216BFFF703
:104F800047FEE06BA16BFFF743FE606C216CFFF7FF
:104F90003FFE034800F070FB10BD00BF540000202E
:104FA0002C6A000810B5164C6068FFF7FBFD6068BE
:104FB0002168FFF72DFEE068A168FFF729FE606910
:104FC0002169FFF725FEE069A169FFF721FE606A0C
:104FD000216AFFF71DFEE06AA16AFFF719FE606B08
:104FE000216BFFF715FEE06BA16BFFF711FE606C04
:104FF000216CFFF70DFE034800F03EFB10BD00BF23
:10500000FC000020426A000838B5204C002160688E
:105010004FF48072FFF76AFE012120600A22E068E7
:10502000FFF764FE0121A0604FF47A726069FFF718
:105030005DFE012120614FF47A62E069FFF756FEC0
:105040000121A0614FF47A62606AFFF74FFE42F2DD
:105050001075206200212A46E06AFFF747FE002112
:10506000A0622A46606BFFF741FE002120636422A4
:10507000E06BFFF73BFE0121A0630322606CFFF7AA
:1050800035FE2064024800F0F7FA38BD54000020D5
:105090005F6A000838B5204C002160684FF48072C8
:1050A000FFF724FE012120600A22E068FFF71EFEC0
:1050B0000121A0604FF47A726069FFF717FE0121A9
:1050C00020614FF47A62E069FFF710FE0121A061D0
:1050D0004FF47A62606AFFF709FE42F210752062AF
:1050E00000212A46E06AFFF701FE0021A0622A465D
:1050F000606BFFF7FBFD002120636422E06BFFF78C
:10510000F5FD0121A0630322606CFFF7EFFD206431
:10511000024800F0B1FA38BD44010020766A000868
:1051200010B50E4C0022A0680D4900F0E5FA606849
:10513000FFF738FD60682168FFF76AFDE068A16845
:10514000FFF766FD60692169FFF762FDE069A1690B
:10515000FFF75EFD034800F08FFA10BD9C000020B1
:10516000966A0008A56A000810B50C4C6068FFF745
:1051700019FD60682168FFF74BFDE068A168FFF743
:1051800047FD60692169FFF743FDE069A169FFF709
:105190003FFD034800F070FA10BD00BFBC000020C6
:1051A000C36A000838B50F4C002160684FF4807264
:1051B000FFF79CFD0C4D206000212A46E068FFF7B8
:1051C00095FD0021A0602A466069FFF78FFD002150
:1051D00020610122E069FFF789FDA061034800F02A
:1051E0004BFA38BD9C00002000286BEEEA6A0008EC
:1051F00038B50F4C002160684FF48072FFF776FDE0
:105200000C4D206000212A46E068FFF76FFD002169
:10521000A0602A466069FFF769FD00212061012234
:10522000E069FFF763FDA061034800F025FA38BD8F
:10523000DC00002000286BEE096B000870B50C4DF7
:1052400001242C7072B6FFF7ADFFFFF7DDFEFFF70C
:10525000DFFD62B62E782EB9064800F00DFA2C70EC
:10526000304670BD044800F007FA2C70204670BD2F
:10527000A0020020316B00084A6B0008F0B5C1B0F5
:1052800007460D461446684608494FF4807200F000
:105290004BFA6E4617F8013B013D5C40EDB2345DC0
:1052A000002DF7D1204641B0F0BD00BF696800086D
:1052B00038B572B6FFF798FC4C2100223448FFF74E
:1052C000DDFF344B04461860FFF76CFDFFF7ECFD83
:1052D0004C2100223048FFF7D1FF844203D12F48F0
:1052E00000F0CAF904E02E4800F0C6F9FFF75AFDB5
:1052F000442100222B48FFF7C1FF00222A4904461F
:1053000000F0FAF900222949442000F0F5F9284B71
:105310001C60FFF747FEFFF7BDFE44210022254831
:10532000FFF7ACFF00222049054600F0E5F94420D4
:1053300000221E4900F0E0F9AC4203D11E4800F003
:105340009BF904E01D4800F097F9FFF72BFE1C21A4
:1053500000221B48FFF792FF1A4B04461860FFF724
:1053600003FFFFF745FF1C2100221748FFF786FFC8
:10537000844203D1154800F07FF904E0144800F09E
:105380007BF9FFF7F1FEFFF73BFC62B638BD00BFCB
:10539000900100208C010020E0010020656B0008D6
:1053A0008A6B000800010020BA6B0008C56B00087A
:1053B000FC00002048010020D16B0008F36B0008BE
:1053C000C0000020BC000020E0000020206C00088D
:1053D0004A6C000838B572B61C2100221548FFF748
:1053E0004DFF154D04462860FFF7FEFBFFF798FEC2
:1053F000FFF7FEFEA869114D0022114900F07CF96B
:105400000022A8690E4900F077F9281D1C2100220E
:10541000FFF734FF844203D10A4800F02DF904E07D
:10542000094800F029F9FFF77BFEFFF7E9FB62B6B8
:10543000012038BDA00000209C000020DC000020DE
:105440007F6C0008216C00084B6C000838B572B600
:10545000442100221948FFF711FF00221849044691
:1054600000F04AF900221749442000F045F9164B94
:105470001C60FFF7B9FBFFF763FDFFF70BFE44214C
:1054800000221248FFF7FAFE00220D49054600F0FF
:1054900033F9442000220B4900F02EF9AC4203D12D
:1054A0000B4800F0E9F804E00A4800F0E5F8FFF7DF
:1054B00047FDFFF7A5FB62B6012038BD580000206C
:1054C000BB6B0008C66B0008540000204801002098
:1054D000D26B0008F46B000810B572B64C210022A4
:1054E0001048FFF7CBFE104B04461860FFF77CFB1B
:1054F000FFF722FCFFF7D8FC4C2100220B48FFF7F6
:10550000BDFE844203D10A4800F0B6F804E0094821
:1055100000F0B2F8FFF710FCFFF772FB62B6012053
:1055200010BD00BF0800002004000020E0010020A2
:10553000666B00088B6B000830B54FF4164387B0DC
:10554000009300231C46ADF80430ADF80630ADF8EA
:105550000830ADF80C3004200C230121ADF80A30DE
:10556000FEF750FD01214FF48040FEF74BFD4FF454
:10557000C063154DADF8103018238DF8133004A911
:10558000032312488DF81230FBF79EFB694628462C
:10559000FEF7B8FF25238DF814308DF8164022232E
:1055A000012405A88DF815308DF81740FFF7C8FACB
:1055B00028462146FEF7FEFF284640F225512246A6
:1055C000FFF704F807B030BD003801400008014083
:1055D0000A4B1A78C72A0FD85A78094988541A787A
:1055E0000132D2B21A705A780132D2B25A705A7855
:1055F000C82A01D100225A70704700BFC50600209A
:105600008808002010B5194C2388980603D5A08877
:10561000C0B2FFF7DDFF2388144A19061AD5144BD0
:10562000997889B1D9781348415C91809A78013A88
:10563000D2B29A70DA780132D2B2DA70DA78C82A45
:1056400008D10022DA7005E0938923F080031B045F
:105650001B0C9381054A13885B0605D5138823F03C
:1056600040031B041B0C138010BD00BF0038014019
:10567000C50600205009002010B504460AE00D4878
:105680008021FEF7C0FF0028F9D014F8011B09485B
:10569000FEF7B5FF2378002BF1D106488021FEF7F5
:1056A000B2FF0028F9D003480A21BDE81040FEF7F8
:1056B000A6BF00BF0038014082B0064B8DF807003E
:1056C0001A885206FCD59DF80720024B9A8002B03A
:1056D000704700BF00380140064B1A4605E01988A4
:1056E0004906FCD510F8011B918001780029F6D1FC
:1056F000704700BF0038014037B501900C46019853
:1057000012B9FEF787FF02E01146FEF7F7FF0546E4
:105710002046FFF7E1FF2846FFF7DEFF0A2003B02F
:10572000BDE83040FFF7C8BF0F2AF0B43AD941EACC
:1057300000039B0738D10C46034615462668103DEA
:105740001E6066685E60A6689E60E6681034DE6073
:1057500010330F2DF2D8A2F1100424F00F0402F040
:105760000F021034032A00EB0403214411D90E4622
:105770001D46144656F8047B043C032C45F8047B74
:10578000F8D8141F24F00304043402F003020919AA
:105790001B192AB111F8014B013A03F8014BF9D159
:1057A000F0BC70470346F4E70346F3E7000000004F
:1057B00000000000000000000000000000000000E9
:1057C0000000000069693A2000513A20004352432A
:1057D0002843616C6962726174696F6E29203D00B3
:1057E00043616C6962726174696F6E3056616C7589
:1057F00065466F7243757272656E74203D00436139
:105800006C6962726174696F6E3056616C75654661
:105810006F7243757272656E7431203D0043616C26
:105820006962726174696F6E56616C7565466F72FC
:1058300043757272656E74203D0043616C696272DB
:105840006174696F6E56616C7565466F72437572EF
:1058500072656E7431203D0043616C6962726174DF
:10586000696F6E56616C7565466F72566F6C7461C8
:105870006765203D0043616C6962726174696F6E97
:1058800056616C7565466F72566F6C7461676531F1
:10589000203D0043616C6962726174696F6E56618C
:1058A0006C7565466F72566F6C7461676532203D2A
:1058B00000526573697374616E6365436F6D705FE9
:1058C000497368756E745F5769726573203D005245
:1058D0006573697374616E6365436F6D705F4D4F7F
:1058E00053464554203D0043524328536574746920
:1058F0006E67734461746129203D004F7074696F55
:105900006E31286D656E7520706F736974696F6E86
:1059100029203D0043686172676554696D65203DCB
:10592000004C6F77566F6C74616765203D004D6168
:1059300078566F6C74616765203D004368617267DB
:10594000654164617074203D005377696E675F4301
:105950006872675F74696D65203D005377696E6793
:105960005F44436872675F74696D65203D004F70E6
:1059700074696F6E32284F555420616674657220C9
:10598000706F776572557029203D0043524328534C
:10599000617665446174615768656E506F776572B2
:1059A0004F666629203D00426174746572794361D7
:1059B0007061636974794469736368617267655083
:1059C000726576696F757356616C7565203D00422E
:1059D0006174746572794361706163697479446953
:1059E0007363686172676543757272656E74203D9A
:1059F000004F75745374617465203D2000000000F1
:105A0000AC570008AC570008C8630008C86300081A
:105A10000000000000000000202020202020202086
:105A2000202020202020202000000000AC5700086B
:105A3000AC5700089C6300089C630008000000004D
:105A400000000000202020202020202020202020D6
:105A50002020202000000000AC570008AC570008B0
:105A6000706300087063000800000000B10D0008BA
:105A70002020202020202020202020202020202026
:105A800000000000AC570008AC5700084463000851
:105A90004463000800000000B10D00082020202011
:105AA0002020202020202020202020200000000076
:105AB000AC570008AC5700081863000818630008CA
:105AC000000000000D0E00082020202020202020B3
:105AD000202020202020202000000000AC570008BB
