:020000040800F2
:10000000E00D002085020008CD020008CD020008A6
:10001000CD020008CD020008CD020008000000005B
:10002000000000000000000000000000CD020008F9
:10003000CD02000800000000CD020008CD0200083B
:10004000CD020008CD020008CD020008CD02000854
:10005000CD020008CD020008CD020008CD02000844
:10006000CD020008CD020008CD020008CD02000834
:10007000CD020008CD020008CD020008CD02000824
:10008000CD020008CD020008CD02000800000000EB
:10009000000000000000000000000000CD02000889
:1000A000CD020008AD150008CD020008CD02000801
:1000B000CD020008ED39000800000000CD02000864
:1000C000CD0200080000000000000000CD02000882
:1000D00000000000D1500008CD0200080000000020
:1000E000CD020008CD020008CD020008000000008B
:1000F0000000000000000000000000000000000000
:1001000000000000000000000000000000000000EF
:100110000000000000000000CD0200089D1C000847
:100120005FF808F1014B1868704700BF000000201D
:10013000084B10B598420BD050B1074B074C1B68C9
:1001400020600BB11830984723681B6903B19847AA
:1001500010BD00BF7852000870020020000000208F
:10016000024B1860024B1868FFF7E2BF70020020D4
:100170000000002008B5054B054A1B68934203D0D8
:1001800013B15B6903B1984708BD00BF00000020B0
:1001900078520008224A038890429BB212D002F59E
:1001A000006290420ED0B0F1804F0BD0A2F5983291
:1001B000904207D002F58062904203D002F580623F
:1001C000904203D14A8823F070031343154A9042AA
:1001D00008D002F58062904204D023F44073CA88AC
:1001E0009BB2134303808B8883850B8803850C4B5C
:1001F00098420FD003F5006398420BD003F540639B
:10020000984207D003F58063984203D003F58063DA
:10021000984201D10B7A038601238382704700BF85
:10022000002C0140001000404FF6FF738380002334
:100230000380C380438003727047038819B19BB267
:1002400043F0010303E023F001031B041B0C0380B4
:10025000704783899BB20AB1194301E023EA010187
:1002600081817047038A828911EA030092B203D028
:1002700011420CBF002001207047C94389B201829E
:100280007047000008B50C4A0C4B0D4903E052F8CA
:10029000040B43F8040B8B42F9D30A480A494FF088
:1002A00000028842B8BF40F8042BFADB00F018FACD
:1002B000BDE8084002F0D2BF5A66000800000020E6
:1002C0007002002070020020E0090020FEE700001C
:1002D0002DE9F843564D0646286803F035FF2B6894
:1002E00011210024594304E00A19AA18013413719A
:1002F000E4B2035D4E4A002BF6D113681121594335
:10030000081910183A25057104E00F2C09D80D19A9
:100310005519287116F8010B0134E4B20028F4D104
:100320000DE0112202FB034241498A18002111719C
:1003300005E01819081801340271E4B203E0112233
:100340003B49534320220F2C394DF2D9002220463D
:10035000384904F037FF2B68112202FB03440133B4
:100360002A190024172B14712B6057D90A26A0468E
:100370002F46204603F0E8FE4FF0110E00230EFB3F
:1003800004FE05E00EEB0301691801330A71DBB2CC
:10039000C25C1121002AF5D101FB04F27143D0188F
:1003A00038184FF03A0E013380F804E0DBB294467F
:1003B0005FFA84FE681810E0BEF1090F05D901EB61
:1003C0000309A94499F8049003E000EB030999F8A4
:1003D0000590013382F80490DBB20CEB0302AA18FB
:1003E00092F80490B9F1000FE6D1013B1121DBB284
:1003F0006143202204E0C818281801330271DBB2DF
:100400000F2BF8D9112202FB04330134FB180136FB
:100410000E2C83F80480ACD1054B1C6004F0BAF9B3
:10042000034B054918680022BDE8F84304F0CABE32
:100430009C06002090520008955200082DE9F047D4
:10044000554F054638680E4603F07EFE3B68112185
:100450000024594304E00A19BA1801341371E4B2B4
:10046000035D4D4A002BF6D1136811215943081939
:100470001018067104E00F2C09D80F19D71938711C
:1004800015F8010B0134E4B20028F4D10DE011227B
:1004900002FB034240498A180021117105E0181936
:1004A000081801340271E4B203E011223A495343BF
:1004B00020220F2C384DF2D900222046374904F073
:1004C00081FE2B68112202FB034401332A19002408
:1004D000172B14712B6054D90A27A146A846204631
:1004E00003F032FE4FF0110E00230EFB04FE05E078
:1004F0000EEB0301691801330A71DBB2C25C1121F2
:10050000002AF5D101FB04F27943D01840440133AD
:100510000671DBB294465FFA84FE681810E0BEF103
:10052000090F05D901EB030AAA449AF804A003E0D5
:1005300000EB030A9AF805A0013382F804A0DBB2AD
:100540000CEB0302AA1892F804A0BAF1000FE6D14E
:10055000013B1121DBB26143202204E0C8182818B6
:1005600001330271DBB20F2BF8D9112202FB0433E5
:100570000134434401370E2C83F80490AFD1064B6D
:100580001C6004F007F9044B054918680022BDE817
:10059000F04704F017BE00BF9C06002090520008F0
:1005A0009552000810B5384C00222068374904F0F5
:1005B00009FEA0680022364904F004FE20690022EA
:1005C000344904F0FFFDA0690022334904F0FAFD2C
:1005D000206A0022314904F0F5FDA06A002230496A
:1005E00004F0F0FD206B00222E4904F0EBFDA06B1F
:1005F00000222D4904F0E6FD206C00222B4904F076
:10060000E1FDA06C00222A4904F0DCFD206D0022EF
:10061000284904F0D7FDA06D0022274904F0D2FD3F
:10062000206E0022254904F0CDFDA06E0022244951
:1006300004F0C8FD206F0022224904F0C3FDD4F865
:1006400088000022204904F0BDFDA06F1F49002250
:1006500004F0B8FDD4F8800000221D4904F0B2FD7A
:10066000D4F8900000221B4904F0ACFDD4F89800A7
:100670000022194904F0A6FDD4F8A0001749002271
:10068000BDE8104004F09EBD04000020995200080F
:10069000AC520008CA520008E9520008065300088C
:1006A00024530008415300085F5300087D5300089D
:1006B0009B530008B3530008C7530008E0530008D9
:1006C000ED530008FA5300080754000815540008B9
:1006D000275400083A540008565400087E54000875
:1006E000314B82B01A6842F001021A6059682F4AF1
:1006F0000A405A601A6822F0847222F480321A602A
:100700001A6822F480221A605A6822F4FE025A60A3
:100710004FF41F029A600022DA62009201921A6876
:1007200042F480321A601A6802F400320192009A90
:1007300001320092019A1AB9009AB2F5A06FF2D173
:10074000194B1B6813F4003318BF01230193019B5D
:10075000012B23D1144B5A685A605A685A605A6860
:100760005A605A6822F47C125A605A6842F498120D
:100770005A601A6842F080721A6019680A4A890140
:10078000FBD5536823F003035360536843F002031F
:100790005360536803F00C03082BFAD1044B4FF05D
:1007A00000629A6002B07047001002400000FFF83B
:1007B00000ED00E084B0ADF80600BDF806304FF45F
:1007C000FA629BB2534301E0039B013B0393039BFB
:1007D000002BF9D104B0704784B0ADF80600BDF825
:1007E00006309BB25B0001E0039B013B0393039B3C
:1007F000002BF9D104B0704710B5074C4FF480437B
:1008000023610220FFF7E8FF4FF0804302202361BD
:10081000BDE81040FFF7E0BF000C014070B50F4C81
:100820004FF07C454FF4805625612661FFF7E4FFC9
:100830000120FFF7BFFF25612661FFF7DDFF0120E3
:10084000FFF7B8FF4FF4806325612361FFF7D4FF02
:100850000120BDE87040FFF7ADBF00BF000C0140B4
:10086000254B4FF07C4270B504460D461A6111B11C
:100870004FF400421A61E20644BF4FF400521A617D
:100880001D4B14F0200F1CBF4FF480521A616606F6
:1008900044BF4FF400621A61174E14F0800F1CBF62
:1008A0004FF480633361FFF7A7FF4FF07053E00709
:1008B000336103D5104B4FF400521A61A10703D5E1
:1008C0000D4B4FF480521A61620703D50A4B4FF467
:1008D00000621A61230703D5074B4FF480621A6147
:1008E000FFF78AFF0220FFF765FF1DB1024B4FF0B3
:1008F00000421A6170BD00BF000C0140034610B9F0
:10090000082019460BE021B90AB90C2003E00D209C
:1009100005E012B90E20114601E00F200021FFF77B
:100920009FBF01200021FFF79BBF08B56420FFF7A0
:1009300041FFFFF773FF012001460022FFF7DEFFB2
:10094000BDE80840FFF7EDBFC0B20121FFF788BF47
:10095000054B1870597011B940F0800002E040F06A
:10096000C0000021FFF77CBF7A0200202DE9F84388
:1009700089460646DFF86C800127194C29E0B22829
:1009800001D1492011E0AF2801D103200DE0DE287C
:1009900002D10120014609E0AA2801D1022004E089
:1009A000BF2884BF404410F8C00C0121FFF758FF56
:1009B000237865780133DBB2237055B9082B08D151
:1009C000B9F1020F05D128460121FFF7C1FF2570BB
:1009D000677016F8010B0028D1D1BDE8F88300BF7D
:1009E0007A020020FC01002070B506460D46002466
:1009F0000CE00121FFF734FF012D06D1E3B2072BF4
:100A000003D100202946FFF7A3FF0134305D002801
:100A1000EFD170BDC00040F0400038B5C0B20D4607
:100A20000021FFF71DFF0024285D01210134FFF79D
:100A300017FF082CF8D180200021BDE83840FFF7CF
:100A40000FBF2DE9F3410025042415271F264FF081
:100A50000E08284669468DF800408DF803408DF851
:100A600005408DF801708DF802808DF804508DF8E6
:100A700006608DF80760FFF7CDFF012069468DF80D
:100A800002408DF806408DF800708DF801808DF8D9
:100A900003508DF804508DF805508DF80760FFF76E
:100AA000B9FF022069468DF801408DF805408DF8A8
:100AB00000508DF802808DF803708DF804508DF889
:100AC00006608DF80760FFF7A5FF032069468DF8E3
:100AD00000408DF803408DF806408DF801808DF8B8
:100AE00002708DF804508DF805508DF80760FFF7FF
:100AF00091FF204669468DF800408DF803408DF83F
:100B000004408DF807408DF801808DF802708DF853
:100B100005708DF80680FFF77DFF02238DF8003009
:100B20000A238DF803308DF804301C2307248DF838
:100B300005308DF806300520082369468DF807300A
:100B40008DF801408DF80240FFF764FF0F238DF808
:100B5000003005238DF801308DF802308DF8033018
:100B60008DF804300620092369468DF806308DF88B
:100B700005708DF80750FFF74DFF11238DF80030F9
:100B80008DF801308DF802302046012369468DF83A
:100B900003608DF804308DF805308DF806308DF83F
:100BA0000750FFF737FFBDE8FC810221FFF7DEBEEB
:100BB00010B5044608461146FFF7CAFE204602213A
:100BC000BDE81040FFF7D2BE08B5364B5A6822F494
:100BD00040725A605A6842F400725A605A6822F4AD
:100BE00040625A605A6842F480625A605A6822F43D
:100BF00040525A605A6842F400525A605A6822F4CD
:100C000040425A605A6842F480425A605A6822F45C
:100C100040325A605A6842F400325A605A6822F4EC
:100C200040225A605A6842F480225A605A6822F47C
:100C300040125A605A6842F400125A605A6822F40C
:100C400040025A605A6842F480025A605A6822F0A0
:100C500040725A605A6842F000725A605A6822F034
:100C600040625A605A6842F080625A605A6822F0C4
:100C700040525A605A6842F000525A605A6822F054
:100C800040425A605A6842F080425A60FFF74DFE77
:100C9000FFF747FE002101200A46BDE80840FFF7A4
:100CA0002DBE00BF000C0140CB782DE9F04303F0CE
:100CB0000F02DB0648BF8B780E8848BF1A4316F038
:100CC000FF0F1FD0046800234FF001084FF00F0CF6
:100CD00008FA03F707EA0605BD420FD19F000CFA98
:100CE00007F902FA07F724EA09043C43CF78282FD2
:100CF00001D1456102E0482F08BF05610133082B8F
:100D0000E6D104600E88FF2E21D9446800234FF0FD
:100D100001084FF00F0C03F1080708FA07F707EA7C
:100D20000605BD420FD19F000CFA07F902FA07F73A
:100D300024EA09043C43CF78282F01D1456102E021
:100D4000482F08BF05610133082BE4D14460BDE89A
:100D5000F083836819420CBF002001207047000017
:100D6000014B00221A8070477C02002004F0D4B8A6
:100D700008B504F017F90248BDE80840FFF7A8BA23
:100D8000685E000818B100210A46FFF711BF7047DE
:100D900010B5134C002290B06068124904F012FAAA
:100DA000626849F6AF239A4217D90BA9A06803F0ED
:100DB000D0FB60684FF46163B0FBF3F001A903F06E
:100DC000FDF909490BAA06AB03F02FFB06A8012188
:100DD000FFF734FB06A804F0B5F910B010BD00BF52
:100DE0007C020020745E00087C5E000810B50F4C89
:100DF00049F6AF23E26890B09A4214D90BA9206952
:100E000003F0A7FBE0684FF46163B0FBF3F001A9C6
:100E100003F0D4F906490BAA06AB03F006FB06A8BB
:100E20000221FFF70BFB10B010BD00BF7C020020B9
:100E30007C5E000884B0ADF80600BDF806304FF4C3
:100E400016629BB2534301E0039B013B0393039B58
:100E5000002BF9D104B0704708B507200121FFF736
:100E600077FDFF200121FFF7FBFC04F055F8044B50
:100E7000C8209A68034B1A60BDE80840FFF7DABF44
:100E8000540000204C08002008B53E4B93F9140094
:100E900060B90146FFF75CFD3B48FFF786FE3B4B20
:100EA0004FF487629A6102F5BE721A62354B93F96C
:100EB0001430012B0DD100200146FFF749FD3448C5
:100EC000FFF773FE314B4FF496729A614FF4D27272
:100ED0001A622C4B93F91430022B0DD100200146DD
:100EE000FFF736FD2B48FFF760FE284B4FF48C725E
:100EF0009A614FF4B9721A62224B93F91430032BA2
:100F00000CD100200146FFF723FD2348FFF74DFEDB
:100F10001E4BA0229A614FF48C721A62194B93F9FE
:100F20001430042B0DD100200146FFF711FD1B48A2
:100F3000FFF73BFE154B4FF448729A614FF4AA62DB
:100F40001A62104B93F91430052B0CD10020014686
:100F5000FFF7FEFC1248FFF728FE0C4B64229A6153
:100F60004FF4FA621A62074B93F91420062A01D152
:100F700000221A7503F0D0FF4FF41670BDE8084048
:100F8000FFF758BF7C020020805E0008540000205C
:100F9000915E0008A25E0008B35E0008C45E00080F
:100FA000D55E000882B00190019A4FF0804392B262
:100FB0009A8500229A8409221A80198A4FF0804269
:100FC000C907FAD5138A23F001031B041B0C1382F3
:100FD00002B0704710B596B000230446084610A929
:100FE0008DF854208DF8553003F0B3FA4FF461605A
:100FF00001A9B4FBF0F003F0E1F810AA06AB074931
:1010000003F013FA06A915A80BAA03F0F5F90BA82B
:101010000421FFF713FA16B010BD00BF7C5E000874
:10102000022838B51E4B09D11A881E49013292B2E6
:1010300009681A8012B28A4213D310E0012810D135
:101040001A88013A92B210041A8003D5154A126820
:10105000013A1A80124BB3F90020002A01DA00226B
:101060001A8000200F4C0146FFF772FC0C4D2346FE
:1010700053F8040BB5F900200138801A112202FB45
:101080000030FFF792FDB5F900000022064904F098
:1010900099F8206805490022BDE8384004F092B86C
:1010A0007C0200209C060020E65E0008F35E00083B
:1010B00010B5044600200146FFF74AFC0A4B188889
:1010C00000B203F041F8FFF770FD0848FFF76DFD2F
:1010D000022C08D1064B1A88064B12B29A60BDE862
:1010E000104003F05FBF10BD5E060020065F0008E1
:1010F000740200200400002010B5044600200146C0
:10110000FFF726FC0A4B188800B203F01DF8FFF722
:101110004CFD0848FFF749FD022C08D1064B1A8800
:10112000064B12B21A61BDE8104003F03BBF10BD80
:101130005E060020065F0008760200200400002002
:1011400010B5044600200146FFF702FC1648FFF7E1
:101150002CFD022C27D103F01DFE03F0E1FD044617
:1011600000200146FFF7F4FB1048FFF71EFD4FF487
:10117000FA60FFF75FFE00200146FFF7E9FB012C54
:1011800008D10B48FFF711FD0A48FFF7A1F84FF40B
:10119000FA6004E00848FFF708FD4FF47A60BDE804
:1011A0001040FFF747BE10BD155F0008265F00081E
:1011B000375F0008485F0008575F0008022810B535
:1011C0000E4C02D12369013303E0012802D12369C7
:1011D000013B236100200146FFF7BAFB206902F0C2
:1011E000B3FFFFF7E2FC0648FFF7DFFC23694FF48B
:1011F00061625A43034B1A6010BD00BF54000020C7
:10120000685F000838080020022810B5324B07D16B
:101210001A7D0132D2B2072A1A750BD1002208E0DA
:10122000012807D11A7D013AD2B214061A7501D5E8
:1012300006221A75284C94F9140028B90146FFF7C4
:1012400087FB2648FFF7B1FC94F91430012B06D137
:1012500000200146FFF77CFB2148FFF7A6FC1E4C4F
:1012600094F91430022B06D100200146FFF770FBE1
:101270001C48FFF79AFC94F91430032B06D1002088
:101280000146FFF765FB1848FFF78FFC124C94F9F5
:101290001430042B06D100200146FFF759FB1348F8
:1012A000FFF783FC94F91430052B06D1002001468A
:1012B000FFF74EFB0E48FFF778FC074B93F914300D
:1012C000062B08D100200146FFF742FB0948BDE884
:1012D0001040FFF76ABC10BD7C0200206D5F000863
:1012E0007E5F0008905F0008A15F0008B15F000802
:1012F000C25F0008D25F0008022810B50D4C02D171
:10130000A3690A3303E0012802D1A3690A3BA36160
:1013100000200146FFF71CFBA0690A23B0FBF3F095
:10132000012102F085FFFFF740FC0348BDE81040B3
:10133000FFF73BBC540000209D5E0008022810B55A
:101340000D4C02D1236A0A3303E0012802D1236A3B
:101350000A3B236200200146FFF7FAFA206A0A23BB
:10136000B0FBF3F0012102F063FFFFF71EFC03481E
:10137000BDE81040FFF719BC540000209D5E000836
:10138000022810B50B4C02D1A36A013303E00128F7
:1013900002D1A36A013BA36200200146FFF7D8FAFD
:1013A000A06A02F0D1FEFFF700FC0348BDE8104040
:1013B000FFF7FBBB54000020E25F0008022810B5D5
:1013C0000B4C02D1236B013303E0012802D1236BC4
:1013D000013B236300200146FFF7BAFA206B02F0BD
:1013E000B3FEFFF7E2FB0348BDE81040FFF7DDBBAB
:1013F00054000020E25F0008022838B51A4C02D1E0
:10140000A36B013303E0012802D1A36B013BA3636B
:1014100000200146FFF79CFAA06B02F095FEFFF753
:10142000C4FB1248FFF7C1FB206A0A250121B0FB6B
:10143000F5F002F0FDFEFFF7B8FB0D48FFF7B5FB36
:10144000236AA06B64225843B0FBF2F01B1AB3FB73
:10145000F5F0012102F0ECFEFFF7A7FB0548BDE81F
:101460003840FFF7A2BB00BF54000020EB5F00082C
:10147000EE5F00089D5E000808B5084B1A68084B2F
:101480009B689A4209D107200121FFF761FAFF20EA
:101490000121BDE80840FFF7E3B908BD4C08002072
:1014A0005400002010B5044600200146FFF750FA12
:1014B000022C194B06D19A680132082A9A6009D188
:1014C000012206E0012C05D19A68013A9A600AB916
:1014D00007229A60104A9368013B062B18D8DFE870
:1014E00003F00406080A0C0E10000C480AE00C4831
:1014F00008E00C4806E00C4804E00C4802E00C4808
:1015000000E00C48FFF751FBBDE81040FFF7B4BF07
:101510000123936010BD00BF54000020F15F00085C
:1015200002600008136000082460000835600008AD
:10153000466000085760000810B515481021FFF7F5
:1015400008FC58B112482021FFF703FC40B11048B5
:101550004021FFF7FEFBB0B9012202E0032200E0C8
:1015600002220C4B40F2DC50D98A0CB2844203DDDB
:1015700040F2B451D98204E0013189B21429D982F0
:1015800004D11A7610BD034B0022DA8210BD00BFD1
:10159000000C01407C020020034B0022187E00B1A9
:1015A000DA611A76704700BF7C02002038B5204807
:1015B0000121FEF757FE002838D001211C48FEF714
:1015C0005CFE1C4B1A8812B2012A07DC1A4CE56833
:1015D000188800B202F001FF4519E560154B1A8822
:1015E00012B2022A07DD144C6568188800B202F0B6
:1015F000F4FE45196560104B93F82020012A02D1B2
:101600009A6801329A6093F821300B4A012B02D17B
:10161000136901331361084B93F82220012A02D188
:101620005A6A01325A629A6A01329A6238BD00BF20
:10163000004401405E0600207C020020034B002293
:101640005A62012283F82220704700BF7C020020EA
:10165000034B00225A62012283F82220704700BF08
:101660007C02002038B504464FF46160B4FBF0F012
:1016700002F06AFD054602F0B6FE012803D81248C2
:101680000121FFF7B1F901212846FFF7ADF901214A
:101690000E48FFF7A9F93C23B4FBF3F4B4FBF3F0D5
:1016A00003FB104002F050FD044602F09CFE0128AE
:1016B00003D805480121FFF797F920460121BDE82D
:1016C0003840FFF791B900BF68600008BD610008AD
:1016D000074B4FF480321A614FF08072A3F580639C
:1016E0001A61044B002283F82C2083F82D207047C8
:1016F000000C01407C020020064A01231361064AC7
:1017000082F82C3082F82D30044B4FF480721A612D
:10171000704700BF000C01407C020020000801401F
:1017200038B52D4B0122054683F82E20FFF7E4FF44
:10173000022D2A4C02D12388013303E0012D02D16E
:101740002388013B238000200146FFF701F9022195
:10175000208802F06DFDFFF728FA2148FFF725FAEF
:10176000204B214A1888138880B21BB2002B218895
:101770001E4B01DC46220AE0401A118802B222EA1E
:10178000E27242F21070424309B292FBF1F2174C3E
:101790001A64206C02F0D8FCFFF707FA1448FFF730
:1017A00004FA144B19880F4B89B21A880E4B92B267
:1017B000188800B2002801DC0A230AE0891A1A8876
:1017C0000BB223EAE37342F210714B4312B293FB64
:1017D000F2F3A36438BD00BF7C0200201C0200208D
:1017E000EE5F0008780200205E0600200400002062
:1017F0006A6000085806002038B5174B01220546DC
:1018000083F82E20FFF778FF022D144C02D1A36B32
:10181000013303E0012D02D1A36B013BA363002040
:101820000146FFF795F8A06B02F08EFCFFF7BDF9BB
:101830000B48FFF7BAF900200121FFF789F8094B9F
:101840000221188880B202F0F3FCFFF7AEF90648D7
:10185000BDE83840FFF7A9B97C0200200400002051
:10186000646000085C0600207560000838B5174BFE
:101870000122054683F82E20FFF73EFF022D144C6F
:1018800002D1236B013303E0012D02D1236B013B15
:10189000236300200146FFF75BF8206B02F054FC45
:1018A000FFF783F90B48FFF780F900200121FFF7CC
:1018B0004FF8094B0221188880B202F0B9FCFFF7FB
:1018C00074F90648BDE83840FFF76FB97C02002084
:1018D00004000020646000086006002075600008B5
:1018E00038B5174B0122054683F82E20FFF704FF79
:1018F000022D144C02D1A36A013303E0012D02D161
:10190000A36A013BA36200200146FFF721F8A06A09
:1019100002F01AFCFFF749F90B48FFF746F90020DF
:101920000121FFF715F8094B0221188880B202F057
:101930007FFCFFF73AF90648BDE83840FFF735B9B4
:101940007C0200200400002064600008580600208B
:101950007560000838B5174B0122054683F82E2024
:10196000FFF7CAFE022D144C02D1A369013303E034
:10197000012D02D1A369013BA36100200146FEF7BE
:10198000E7FFA06902F0E0FBFFF70FF90B48FFF754
:101990000CF901210020FEF7DBFF094B188800B28B
:1019A00002F0D2FBFFF701F90648BDE83840FFF727
:1019B000FCB800BF7C020020040000206460000826
:1019C0005E0600207960000870B52D4D06460124A2
:1019D000002085F82E400146FEF7BAFF95F82C50FE
:1019E000F5B9284B0221188880B202F021FCFFF7DC
:1019F000DCF82548FFF7D9F829460720FEF7A8FFAD
:101A0000224B188800B202F09FFBFFF7CEF8204867
:101A1000FFF7CBF805202146FEF79AFF1D481DE091
:101A20001D4B0221188880B202F002FCFFF7BDF8BE
:101A30001548FFF7BAF800210720FEF789FF134B7E
:101A4000188800B202F080FBFFF7AFF81348FFF7E9
:101A5000ACF806202146FEF77BFF1148FFF7A5F8FA
:101A6000022E0BD1064B93F82C301BB9BDE8704009
:101A7000FFF742BEBDE87040FFF72ABE70BD00BF51
:101A80007C02002058060020756000085E060020D9
:101A90007E600008A36000086006002084600008E3
:101AA0008B600008064B02221A61064B012283F864
:101AB0002C2083F82F20044B4FF400621A617047EA
:101AC000000C01407C0200200008014010B50B4CC6
:101AD00094F93030022B10D0022384F83030FFF715
:101AE000F7FDFFF7DFFF002332206363FFF75AFAA9
:101AF0000348BDE8104003F025BB10BD7C02002068
:101B00008F60000808B5FFF7E3FDFFF7CBFF322039
:101B1000BDE80840FFF746BA38B5174B0122054625
:101B200083F82E20FFF7EEFF022D144C02D1236A1A
:101B3000013303E0012D02D1236A013B236200201F
:101B40000146FEF705FF206A02F0FEFAFFF72DF8C6
:101B50000B48FFF72AF801210020FEF7F9FE094B98
:101B6000188800B202F0F0FAFFF71FF80648BDE847
:101B70003840FFF71AB800BF7C02002004000020A4
:101B8000646000085E06002079600008074B4FF48F
:101B900000321A61064B002283F82C2083F82F2094
:101BA000044B4FF000621A61704700BF000C014007
:101BB0007C0200200008014008B5FFF7E7FFBDE800
:101BC0000840FFF785BD00002C4B30B51B8891B055
:101BD0009BB2B3F5FA6F2A4C4BD2FFF7EDFFA37817
:101BE000002B48D1274D0123A370EB68264C2361BD
:101BF00003F062F902222069244903F0E3FAEA685B
:101C000049F6AF239A4214D90BA9286902F0A1FC26
:101C100020694FF46163B0FBF3F001A902F0CEFA42
:101C20001B490BAA06AB02F000FC06A80221FEF736
:101C300005FC124D0A23288801A980B2B0FBF3F0FD
:101C4000012202F05FFB06AA0146124802F0D4FB13
:101C5000FEF73EFB322428880F4980B20222013C65
:101C600003F0B0FAE4B20A20FFF7E4F8002CF2D156
:101C700001E00023A37011B030BD00BF5C0600205E
:101C80001C0200207C0200209400002099600008C3
:101C90007C5E00089E600008A860000808B509483E
:101CA0000121FEF7DFFA58B106480121FEF7E5FAF7
:101CB000FFF742FCFFF788FF034B5A6B01325A6370
:101CC00008BD00BF001400407C02002038B5844BE2
:101CD000012193F83820054683F82E104AB983F87D
:101CE000202083F8381083F8212083F83920DA6027
:101CF0001A617C4B7C491A88896992B2784B8A4276
:101D00005A8701D3002205E093F839200AB99A6A6C
:101D1000DA63012283F839209A6ADB6B704CD31A9C
:101D2000032B07D994F8393023B1FFF745FF00237F
:101D300084F82130022D6A4C0CD194F82C301BB958
:101D4000FFF7E0FE012302E0FFF736FF002384F8EF
:101D500021300CE0012D0AD194F84030013BDBB278
:101D60001D0684F8403002D5032384F840305C4CD3
:101D700094F94000002835D10146FEF7E9FD594BA2
:101D80000221188880B202F053FAFEF70EFF57487E
:101D9000FEF70BFF564B188800B202F0D5F9FEF79C
:101DA00004FF5448FEF701FF94F82C3013B90720C4
:101DB000012105E094F8413007200121052B03D8CB
:101DC000FEF7C6FD022002E0FEF7C2FD032001215E
:101DD000FEF7BAFD424B93F841200A2A02D90022AD
:101DE00083F841203E4B93F94040012C13D1002051
:101DF0000146FEF7ADFD4048FEF7D7FE3A4B2146BF
:101E000098690A23B0FBF3F002F012FAFEF7CDFE58
:101E10003A48FEF7CAFE324C94F94030022B1AD1F0
:101E200000200146FEF794FD3548FEF7BEFE354B17
:101E300098684FF46163B0FBF3F002F085F9FEF7A8
:101E4000B4FE3148FEF7B1FE03200121FEF780FD0C
:101E5000606CFFF707FC224C94F94050032D19D118
:101E600000200146FEF774FD2848FEF79EFEE0685C
:101E70004FF46163B0FBF3F002F066F9FEF795FEF4
:101E80002348FEF792FE28460121FEF761FD2069F6
:101E9000FFF7E8FB124C002294F838001D4903F0CC
:101EA00091F994F82E0000221B4903F08BF994F865
:101EB00020000022194903F085F9A0680022184982
:101EC00003F080F994F821000022164903F07AF912
:101ED000206915490022BDE8384003F073B900BFFE
:101EE0007C0200206006002054000020EE5F000805
:101EF0005E060020B0600008B96000089D5E000822
:101F0000C560000894000020C86000088C600008CC
:101F1000D1600008DA600008E8600008FD60000891
:101F200012610008226100083A61000810B50B4CEC
:101F300094F93030012B10D0012384F83030FFF7B2
:101F400025FEFFF7D9FB002332206363FFF72AF851
:101F50000348BDE8104003F0F5B810BD7C02002036
:101F60009260000870B5044600200146FEF7F0FCC0
:101F70006F4B012293F8381083F82E201E4619B9B2
:101F800083F83820FFF75AFB726A6A4E684DB36ACD
:101F90009A4211D8FFF7CAFF674B1A88336A92B288
:101FA0009A4209D96B6BB3F5C87F05D9FFF750FB8F
:101FB0006A6AB36AD3186B625D4D5E4E6A6AB36A31
:101FC0009A420DD9FFF782FD5B4B1A88B36992B232
:101FD0009A4205D26B6BB3F5C87F01D9FFF738FB86
:101FE000544B6A6A196B9B6ACB189A4201D9FFF766
:101FF0002FFB022C4E4B09D193F840200132D2B274
:10200000032A83F840200ED100220AE0012C0AD1D5
:1020100093F84020013AD2B283F84020120602D54C
:10202000022283F84020424D95F94040002C32D1E5
:1020300020462146FEF78CFC3F4B0221188880B2D7
:1020400002F0F6F8FEF7B1FD3C48FEF7AEFD3C4B62
:10205000188800B202F078F8FEF7A7FD3948FEF7BD
:10206000A4FD06200121FEF773FC05200121FEF7E7
:102070006BFC95F82D500720012D05D12946FEF760
:1020800067FC2046294604E00121FEF761FC02209E
:102090000121FEF759FC264B93F94040012C23D136
:1020A0000020244D0146FEF753FC286902F04CF84D
:1020B000FEF77BFD2448FEF778FDA8690A26214635
:1020C000B0FBF6F002F0B4F8FEF76FFD1B48FEF728
:1020D0006CFD286A2146B0FBF6F002F0A9F8FEF785
:1020E00064FD1A48FEF761FD114C94F94030022B53
:1020F0001DD100200F4D0146FEF72AFCA86A02F010
:1021000023F8FEF752FD1248FEF74FFD286B02F050
:102110001BF8FEF74AFD0F48FEF747FD032001219B
:10212000FEF716FC2069BDE87040FFF79BBA70BD52
:102130007C0200205400002060060020EE5F0008B2
:102140005E0600204D610008E1640008DF5E0008C3
:10215000D36100085561000870B5694B054693F8D6
:102160002E201446EAB9012183F82E1083F820208E
:1021700083F821209A601A615A645A60DA6083F801
:102180002110FFF7A3FC5F4B0222DA7020462146A4
:10219000FEF7DEFB5C48FEF708FD4FF47A70FEF7B1
:1021A00001FF5A4B188800B202F017F9052840F3D6
:1021B0006481574B1A88574B92B29B699A4222D23C
:1021C000504BDA78022A1ED14D4C636BB3F57A7FFF
:1021D00019D9002384F82130E1684F4B994203D983
:1021E000E0682169FEF7F6FE23694C4A6364002328
:1021F0002361E1680126E360916084F82060FFF7C5
:1022000095FE404BDE70424B1A88424B92B21B6ADD
:102210009A423B4B07D93B4AD278012A03D15A6BE9
:10222000B2F57A7F08D89A683D4B1B689A421BD951
:10223000344BDB78012B17D1314C002384F820304C
:102240006268354B9A4204D960680122A168FEF7A2
:10225000C1FE0023A3606360012384F82130FFF7EF
:1022600035FC284B0222DA70022D254B09D193F858
:1022700040200132D2B2052A83F840200ED100223C
:102280000AE0012D0AD193F84020013AD2B211069A
:1022900083F8402002D5042283F84020184D95F998
:1022A0004040002C49D120462146FEF751FB184BF7
:1022B0000221188880B201F0BBFFFEF776FC1948B6
:1022C000FEF773FC114B188800B201F03DFFFEF7DA
:1022D0006CFC1548FEF769FC06200121FEF738FB6F
:1022E00004200121FEF730FB95F82D500720012D29
:1022F0001CD12946FEF72CFB204629461BE000BFD7
:102300007C0200201C0200205D6100085E060020A7
:1023100060060020540000204F8C0500940000202F
:1023200038080020EE5F00084D6100080121FEF72B
:102330000FFB02200121FEF707FB6A4B93F9404097
:10234000012C23D10020684D0146FEF701FB2869CE
:1023500001F0FAFEFEF729FC6448FEF726FCA869A6
:102360000A262146B0FBF6F001F062FFFEF71DFCE5
:102370005F48FEF71AFC286A2146B0FBF6F001F030
:1023800057FFFEF712FC5B48FEF70FFC554C94F923
:102390004050022D21D100200146FEF7D9FA2846EF
:1023A0000121FEF7D1FA00210120FEF7D1FA5248AF
:1023B000FEF7FBFBE0684FF46163B0FBF3F001F064
:1023C000C3FEFEF7F2FB4D48FEF7EFFB03200121B1
:1023D000FEF7BEFA2069FFF745F9424C94F94050E8
:1023E000032D22D100200146FEF7B2FA022001217E
:1023F000FEF7AAFA00210120FEF7AAFA4048FEF7EC
:10240000D4FB404B98684FF46163B0FBF3F001F0EC
:102410009BFEFEF7CAFB3948FEF7C7FB28460121A1
:10242000FEF796FA606CFFF71DF92E4C94F94030D8
:10243000042B2ED100200146FEF78AFA002001214C
:10244000FEF782FA00210120FEF782FA2E48FEF7FD
:10245000ACFB60684FF46163B0FBF3F001F074FE15
:10246000FEF7A3FB2548FEF7A0FB03200121FEF7A2
:102470006FFAA068FFF7F6F80BE01A4B5B6BB3F549
:102480007A7F06D900200146FEF762FA1F48FEF760
:102490008CFB144C002294F82E001D4902F092FE91
:1024A00094F8200000221B4902F08CFEA068002254
:1024B000194902F087FE94F821000022174902F022
:1024C00081FE20690022164902F07CFEE0680022AD
:1024D000144902F077FE606813490022BDE870409D
:1024E00002F070BE7C02002054000020E16400086D
:1024F000EE5F0008DF5E00088C600008D160000815
:10250000C5600008940000206E6100087161000839
:10251000E8600008FD600008126100082261000800
:102520003A61000882610008A4610008F8B58C4C8B
:10253000054694F82E301F46F3B9012684F82E6024
:1025400084F8203084F82130A360236163646360E1
:10255000E36084F82060FFF7E9FC824B3946DE70C7
:102560003846FEF7F5F98048FEF71FFB4FF47A7006
:10257000FEF718FD84F84860794C94F94830032B35
:1025800000F39D80794B188800B201F026FF0528E2
:1025900040F38880764B1A88764B92B29B699A42B8
:1025A00027D2704BDA78022A23D1636BB3F57A7F96
:1025B0001FD9002384F82130E1686F4B994203D979
:1025C000E0682169FEF706FD654C6C4A2369012627
:1025D000636400232361E168E360916084F8206014
:1025E000FFF7A4FC94F848309B1984F848305D4B01
:1025F000DE705F4B1A885F4B92B21B6A9A42584B4F
:1026000007D9584AD278012A03D15A6BB2F57A7F9A
:1026100008D89A685A4B1B689A4220D9514BDB78EC
:10262000012B1CD14E4C002384F820306268524BA1
:102630009A4204D960680122A168FEF7CBFC00230E
:10264000A3606360012384F82130FFF73FFA94F818
:1026500048300222013384F84830424BDA70404B54
:1026600093F94820032A02DD032283F84020022D3B
:1026700009D193F840200132D2B2052A83F84020D4
:102680003CD100220AE0012D38D193F84020013AD4
:10269000D2B2140683F8402030D50422304B83F8A0
:1026A00040202BE0636BB3F57A7F40F21781002066
:1026B0000146FEF74DF93348FEF777FA0EE1FFF7D2
:1026C0007BFA0023022D84F8203084F8213008D1D1
:1026D00094F840200132D2B2052A84F840200DD16E
:1026E0000AE0012D0AD194F84030013BDBB2180614
:1026F00084F8403002D5042384F84030184D95F911
:102700004040002C4BD120462146FEF721F9184BC2
:102710000221188880B201F08BFDFEF746FA1A48B4
:10272000FEF743FA114B188800B201F00DFDFEF7D9
:102730003CFA1648FEF739FA06200121FEF708F99F
:1027400004200121FEF700F995F82D500720012DF6
:102750001ED12946FEF7FCF8204629461DE000BFA1
:102760007C0200201C0200205D6100085E06002043
:1027700060060020540000204F8C050094000020CB
:102780003808002071610008EE5F00084D61000804
:102790000121FEF7DDF802200121FEF7D5F8644B98
:1027A00093F94040012C23D10020624D0146FEF7F1
:1027B000CFF8286901F0C8FCFEF7F7F95E48FEF78C
:1027C000F4F9A8690A262146B0FBF6F001F030FDC5
:1027D000FEF7EBF95948FEF7E8F9286A2146B0FB05
:1027E000F6F001F025FDFEF7E0F95548FEF7DDF9BA
:1027F0004F4C94F94050022D21D100200146FEF7A4
:10280000A7F828460121FEF79FF800210120FEF7D6
:102810009FF84C48FEF7C9F9E0684FF46163B0FBDC
:10282000F3F001F091FCFEF7C0F94748FEF7BDF95F
:1028300003200121FEF78CF82069FEF713FF3C4CC2
:1028400094F94050032D22D100200146FEF780F874
:1028500002200121FEF778F800210120FEF778F828
:102860003A48FEF7A2F93A4B98684FF46163B0FB1F
:10287000F3F001F069FCFEF798F93348FEF795F99B
:1028800028460121FEF764F8606CFEF7EBFE284C49
:1028900094F94030042B21D100200146FEF758F86E
:1028A00000200121FEF750F800210120FEF750F82A
:1028B0002848FEF77AF960684FF46163B0FBF3F0E3
:1028C00001F042FCFEF771F91F48FEF76EF9032094
:1028D0000121FEF73DF8A068FEF7C4FE144C00226B
:1028E00094F82E001C4902F06DFC94F820000022A0
:1028F0001A4902F067FCA0680022194902F062FC44
:1029000094F821000022174902F05CFC20690022A3
:10291000154902F057FCE0680022144902F052FC0D
:10292000606813490022BDE8F84002F04BBC00BFCC
:102930007C02002054000020E1640008EE5F0008E3
:10294000DF5E00088C600008D1600008C5600008E8
:10295000940000206E610008E8600008FD60000837
:1029600012610008226100083A61000882610008D3
:10297000A461000808B5FFF709F9FEF7BDFE322093
:10298000BDE80840FEF70EBB38B59E4B012193F819
:102990003820054683F82E103AB983F8202083F8B2
:1029A000381083F821205A609A609A68964B954CAB
:1029B0001B689A4206D89549954A0888136A80B2DE
:1029C000984203D9FFF7F8F800230CE0926B6420DB
:1029D0005A430988B2FBF0F289B29B1A994204D299
:1029E000FFF7C8FF012384F82030022D854C0CD15D
:1029F00094F82C301BB9FFF7BDFF012302E0FFF76D
:102A0000DBF8002384F820300CE0012D0AD194F883
:102A10004030013BDBB21D0684F8403002D5032371
:102A200084F84030774C94F94000002852D1014698
:102A3000FDF78EFF94F82C30A3B9764B022118884D
:102A400080B201F0F5FBFEF7B0F87348FEF7ADF881
:102A50006E4B0221188880B201F0EAFBFEF7A5F860
:102A60006E4812E0694B0221188880B201F0E0FB49
:102A7000FEF79BF86848FEF798F8694B188800B293
:102A800001F062FBFEF791F86648FEF78EF85D4BA9
:102A900093F82C402CB907200121FDF759FF20465F
:102AA00008E093F8413007200121052B04D8FDF7F9
:102AB0004FFF0020012103E0FDF74AFF01200146FE
:102AC000FDF742FF4F4B93F841200A2A02D900221A
:102AD00083F841204B4B93F94040012C1BD100203F
:102AE00001464B4DFDF734FF4F48FEF75EF828696D
:102AF00001F02AFBFEF759F84C48FEF756F8286A11
:102B00000A23B0FBF3F0214601F092FBFEF74DF8EB
:102B10004248FEF74AF83B4B93F94030022B29D14B
:102B20003B4C00200146FDF713FFA06B01F00CFBAE
:102B3000FEF73BF83E48FEF738F8206A0A250121E7
:102B4000B0FBF5F001F074FBFEF72FF83248FEF70A
:102B50002CF8236AA06B64225843B0FBF2F01B1AD6
:102B6000B3FBF5F0012101F063FBFEF71EF82B48E3
:102B7000FEF71BF8234C94F94050032D19D1002087
:102B80000146FDF7E5FE2B48FEF70FF860684FF4AD
:102B90006163B0FBF3F001F0D7FAFEF706F82648C0
:102BA000FEF703F828460121FDF7D2FEA068FEF7E4
:102BB00059FD144C6420FEF73DF994F838000022CA
:102BC0001E4902F0FFFA94F82E0000221C4902F080
:102BD000F9FA94F8200000221A4902F0F3FAA068EA
:102BE0000022194902F0EEFA94F821000022174958
:102BF00002F0E8FA206916490022BDE8384002F0E8
:102C0000E1BA00BF7C0200203808002060060020E6
:102C10005400002058060020EE5F00089D5E00086A
:102C20005E060020B0600008BC610008BF610008BB
:102C3000EB5F00086E610008D1600008DA600008F0
:102C4000E8600008FD6000081261000822610008C9
:102C50003A61000838B57E4B012193F838200546CB
:102C600083F82E103AB983F8202083F8381083F8BF
:102C700021205A609A609A68764B1B689A4206D85F
:102C8000754B1A88754B92B21B6A9A4205D9FEF7AA
:102C900093FF6F4B002283F82020022D6C4C0CD147
:102CA00094F82C301BB9FFF765FE012302E0FEF714
:102CB00083FF002384F820300CE0012D0AD194F822
:102CC0004030013BDBB284F840301B0602D50223C2
:102CD00084F840305E4C94F94000002852D10146FF
:102CE000FDF736FE94F82C30A3B95D4B022118880D
:102CF00080B201F09DFAFDF758FF5A48FDF755FFE5
:102D0000554B0221188880B201F092FAFDF74DFF71
:102D1000554812E0504B0221188880B201F088FA21
:102D2000FDF743FF4F48FDF740FF504B188800B2B6
:102D300001F00AFAFDF739FF4D48FDF736FF444B25
:102D400093F82C402CB907200121FDF701FE204605
:102D500008E093F8413007200121052B04D8FDF746
:102D6000F7FD0020012103E0FDF7F2FD01200146FF
:102D7000FDF7EAFD364B93F841200A2A02D90022DA
:102D800083F84120324B93F94040012C1BD10020A5
:102D90000146324DFDF7DCFD3648FDF706FF286998
:102DA00001F0D2F9FDF701FF3348FDF7FEFE286A76
:102DB0000A23B0FBF3F0214601F03AFAFDF7F5FEE5
:102DC0002E48FDF7F2FE224C94F94030022B19D127
:102DD00000200146FDF7BCFD2948FDF7E6FE6068CE
:102DE0004FF46163B0FBF3F001F0AEF9FDF7DDFEE7
:102DF0002448FDF7DAFE03200121FDF7A9FDA068B4
:102E0000FEF730FC124C002294F838001E4902F004
:102E1000D9F994F82E0000221C4902F0D3F994F855
:102E2000200000221A4902F0CDF9A06800221949B9
:102E300002F0C8F994F821000022174902F0C2F903
:102E4000206916490022BDE8384002F0BBB900BF36
:102E50007C0200203808002060060020540000207A
:102E600058060020EE5F0008DF5E00085E060020C6
:102E70004D610008BC610008BF6100089D5E00084C
:102E80006E610008C8600008DA600008E8600008A9
:102E9000FD60000812610008226100083A61000824
:102EA00008B5274B0122022883F82E2007D193F87A
:102EB0002C3013B9FEF7F6FD01E0FEF767FE0020A7
:102EC0000146FDF745FD1F4B0221188880B201F035
:102ED000AFF9FDF76AFE1C48FDF767FE1B4B18882B
:102EE00000B201F031F9FDF760FE1948FDF75DFE13
:102EF000134B93F82C2012B90620012105E093F81A
:102F0000413006200121052B07D8FDF721FD0220C5
:102F10000121FDF719FD022006E0FDF719FD032050
:102F20000121FDF711FD03200121FDF70DFD044BEB
:102F300093F841200A2A02D9002283F8412008BDD3
:102F40007C02002060060020EE5F00085E06002084
:102F500084600008034B93F82F300BB9FEF7A2BD35
:102F6000FEF714BE7C020020034B93F82D300BB902
:102F7000FEF7C2BBFEF7ACBB7C020020F0B59B4B5A
:102F80000122022887B083F82E200BD193F8492024
:102F90000132D2B2082A83F8492017D1002283F8DF
:102FA000492013E0012811D193F84930023BDBB2EC
:102FB000012B02D8FFF7D8FF01E0FEF789FB8B4B0E
:102FC00093F94930042B01D1FFF7C4FF874B93F9E4
:102FD0004900F0B90146FDF7BBFC8548FDF7E5FD6A
:102FE000844B012118880A2380B2B0FBF3F001F072
:102FF0001FF9FDF7DAFD8048FDF7D7FD7F4B022171
:10300000188880B201F014F9FDF7CFFD7C48FDF778
:10301000CCFD764B93F94930012B1BD100200146A2
:10302000FDF796FC7748FDF7C0FD774B0221188825
:1030300080B201F0FDF8FDF7B8FD7448FDF7B5FD6D
:10304000734BD88880B201F07FF8FDF7AEFD714870
:10305000FDF7ABFD654B93F94940022C1BD10020D5
:103060000146FDF775FC6C48FDF79FFD6B4B214653
:10307000188880B201F0DCF8FDF797FD6348FDF792
:1030800094FD634B988880B201F05EF8FDF78DFDEA
:103090006048FDF78AFD554B93F94930032B1AD14F
:1030A00000200146FDF754FC5D48FDF77EFD5D4BB9
:1030B000188800B201F048F8FDF777FD5A48FDF78F
:1030C00074FD534B588880B201F03EF8FDF76DFD5A
:1030D0005048FDF76AFD454B93F94930042B1AD14E
:1030E00000200146FDF734FC5048FDF75EFD504BD3
:1030F000188800B201F028F8FDF757FD4A48FDF79F
:1031000054FD434B188880B201F01EF8FDF74DFDC9
:103110004048FDF74AFD354B93F94930052B3BD12B
:10312000394D444CFEF7E8FA2988238889B29BB2CE
:103130003C4FCB1A42F210714B433A883E4E12B2CA
:10314000002093FBF2F30146B364FDF701FC3B481A
:10315000FDF72BFD306C00F0F7FFFDF726FD38483A
:10316000FDF723FDB06C00F0EFFFFDF71EFD3548C5
:10317000FDF71BFD3888344900B2002202F022F826
:103180002888324980B2022202F01CF82088304997
:1031900080B2022202F016F8144C94F94930062B42
:1031A00009D100200146FDF7D3FB01A9A06A01F077
:1031B0005FF9FDF7FAFC0D4C94F94930072B12D159
:1031C00000200146FDF7C4FB2248FDF7EEFCE06C51
:1031D0004FF46163B0FBF3F000F0B6FFFDF7E5FCE0
:1031E0001D48FDF7E2FC07B0F0BD00BF7C020020E7
:1031F000C76100085C060020CC6100085A06002068
:1032000063600008D161000858060020EE5F0008E6
:103210003C08002061600008D661000860060020BC
:10322000DC6100085E060020E2610008E66100083B
:10323000760200207802002004000020ED610008E2
:10324000F0610008F5610008FD61000801620008F6
:103250000862000810620008176200082DE9F041BA
:10326000AD4D002400F018FEFEF7A6FCAB482C6024
:10327000FDF79BFCFDF7E5FB21462046FDF768FBCB
:103280004FF4FA60FDF7D6FD01F0B4FA2B68172B66
:1032900088BF2C6001F044FD80B94FF47A70FDF7CF
:1032A000C9FD01F03DFD48B99D48FDF77EFC4FF496
:1032B0007A60FDF7BFFD9B48FDF70AF89A4B9B4CDF
:1032C0001A699B4B9548DA6423694FF461625A434B
:1032D000984B1A60984BA2681A6001F033FFFDF713
:1032E00061F9FDF71EFB9548FCF73AFFA368012B37
:1032F00017D0022B01D1924814E0032B01D1914841
:1033000010E0042B01D190480CE0052B01D18F482F
:1033100008E0062B01D18E4804E0072B01D18D482F
:1033200000E08D48FCF704FF8B4F814D07F12C081E
:1033300095F84130013385F84130FEF72DF9022828
:10334000044607D0032809D001280FD1FCF7EAFE74
:10335000406809E0FCF7E6FE006805E00220FCF7A3
:1033600009FFFCF7DFFEC068FCF7E2FEFCF7DAFEBF
:10337000B84203D12046FEF727FB28E1FCF7D2FE36
:10338000404503D12046FFF78BFD20E1FCF7CAFE44
:103390006C4EB04203D12046FFF75CFC17E1FCF70E
:1033A000C1FE06F12C03984203D12046FFF7ECFA48
:1033B0000DE1FCF7B7FE06F15803984203D1204611
:1033C000FEF784FC03E1FCF7ADFE06F1DC03984256
:1033D00003D12046FFF7AAF8F9E0FCF7A3FE06F1B7
:1033E0008403984203D12046FEF7B6FEEFE0FCF7D7
:1033F00099FE06F1B003984203D12046FEF7B2FDD4
:10340000E5E0FCF78FFE06F58473984203D1204671
:10341000FFF7B4FDDBE0FCF785FE06F59A76B042D7
:1034200003D12046FDF7FCFDD1E0FCF77BFE4B4EBF
:10343000B04203D12046FDF75FFEC8E0FCF772FE04
:1034400006F12C03984203D12046FDF731FEBEE081
:10345000FCF768FE06F15803984203D12046FEF7B8
:103460005BFBB4E0FCF75EFE06F18403984203D1F7
:103470002046FEF76FFAAAE0FCF754FE06F1B0030F
:10348000984203D12046FEF7B7F9A0E0FCF74AFEC8
:1034900006F1CC03984203D12046FEF7E7F996E007
:1034A000FCF740FE06F1F803984203D12046FEF7F0
:1034B00017FA8CE0FCF736FE06F59273984203D1BA
:1034C0002046FEF72DF982E0FCF72CFE06F5A073EE
:1034D000984203D12046FDF733FE78E0FCF722FE48
:1034E00006F5AE76B04203D12046FDF767FE6EE0EA
:1034F000FCF718FE1A4EB04203D12046FDF784FEB9
:1035000065E0FCF70FFE06F12C0398422AD1204615
:10351000FDF7F2FE5BE000BF9C06002020020020C9
:103520002562000836620008940000205400002044
:103530007C020020380800204C080020850D00087F
:10354000CC540008F85400082455000850550008D1
:103550007C550008A8550008A054000858560008DB
:10356000E0570008FCF7DEFD06F15803984203D14E
:103570002046FDF7E3FE2AE0FCF7D4FD06F18403C4
:10358000984203D12046FDF7FBFE20E0FCF7CAFD80
:1035900006F1B003984203D12046FDF70FFF16E075
:1035A000FCF7C0FD06F1DC03984203D12046FDF78D
:1035B00023FF0CE0FCF7B6FD06F58476B04203D19C
:1035C0002046FDF76FFF02E0002385F82E3095F8C6
:1035D0002E4064B9FEF7F0FAEA68074B85F83840E8
:1035E0009A602B6985F840406B6485F83040642010
:1035F000FDF7D8FC9CE600BF9400002070B592B0A7
:103600007E2312A9002621F8043D48488DF8476022
:10361000FDF74AFB01214FF4007000F03DFB012053
:10362000014600F02DFB424B082502934FF48063C6
:10363000089380230693202309933E4B3E48019331
:103640004FF48073079301A94FF400530A93049534
:1036500003960B96059600F0C7FF0121364800F04F
:10366000E1FF4FF4004000F0B9FA01244FF4602369
:1036700032480CA90E938DF835400F960C968DF8B4
:1036800040508DF8344000F02BFC07232B48214696
:10369000224600F076FC02210A460723274800F064
:1036A00070FC03210A460723244800F06AFC042129
:1036B0000A460723214800F064FC05210A46072337
:1036C0001E4800F05EFC06210A4607231B4800F056
:1036D00058FC204600F0A4FC07221346174811218D
:1036E00000F04FFC2A4604231448102100F049FC46
:1036F0001248214600F018FC1048214600F01DFC3D
:103700000E4800F023FC0D4800F025FC0028FAD1FB
:103710000A4800F024FC094800F026FC0028FAD1F1
:103720000648012100F024FC12B070BD00080140E1
:103730003C0800204C2401400800024000240140C5
:103740001FB50121022000F0B3FA104C01A8FCF7CC
:103750006BFD45F6BF53ADF804302046052301A9A3
:10376000ADF80830FCF716FD01210A462046FCF7AB
:1037700070FD20460121FCF760FD054B4FF0005223
:103780001A60202283F81D231FBD00BF00040040E3
:1037900000E100E0224A234B91682DE9F041083115
:1037A0009160C91A002808BF0120A729C8BF9360EB
:1037B000936812681E689A4208BF194A184C08BFDD
:1037C0001660194F2268988015252146BC46D2F80C
:1037D00000809845B2F8048008BF1660804503D287
:1037E000086818600B600020BA42246814D0116881
:1037F000D1F800809845B1F8048008BF0E6080457C
:1038000003D21068186013600020614504D0013DA8
:10381000ADB20A68002DDAD1A088BDE8F08100BF02
:1038200034020020EC02002094030020234A244BA1
:1038300051692DE9F04108315161C91A002808BFCA
:103840000120B1F5A47FA8BF53615369D2681E68F7
:103850009A4208BF194A194908BFD66051F80C2F7F
:10386000184F988029250C46BC46D2F80080984510
:10387000B2F8048008BF1660804503D22068186043
:1038800023600020BA42096814D01468D4F800807C
:103890009845B4F8048008BF2660804503D21068BC
:1038A000186013600020644504D0013DADB2226869
:1038B000002DDAD18888BDE8F08100BF34020020F5
:1038C0009C030020E4040020234A244B116A2DE9C4
:1038D000F04108311162C91A002808BF0120B1F572
:1038E000A47FA8BF1362136A92691E689A4208BF38
:1038F000194A194908BF966151F8182F184F988036
:1039000029250C46BC46D2F800809845B2F80480C0
:1039100008BF1660804503D220681860236000202D
:10392000BA42096814D01468D4F800809845B4F8F5
:10393000048008BF2660804503D2106818601360B9
:103940000020644504D0013DADB22268002DDAD1DB
:103950008888BDE8F08100BF34020020EC0400201C
:10396000340600200F49D1F85433D1F85023C1F860
:1039700058339342C1F85423C1F8500307DC834203
:1039800003DC9042A8BF104670479A4205DC824291
:1039900003DC9842A8BF184670479A42B4BF10464D
:1039A00018467047EC0200200F49D1F86033D1F877
:1039B0005C23C1F864339342C1F86023C1F85C030F
:1039C00007DC834203DC9042A8BF104670479A424E
:1039D00005DC824203DC9842A8BF184670479A4231
:1039E000B4BF104618467047EC0200202DE9F7439B
:1039F00070480121FCF736FC002800F0D8806E4C9E
:103A00000121D4F868336B480133C4F86833FCF7FC
:103A100034FC00250220ADF80450ADF8065000F04B
:103A200015FE022000F01CFE644E02212A46644866
:103A300000F003FE634BF1889B6A89B24B43B28965
:103A400092B2B3FBF2F39BB2ADF80630BDF80600BC
:103A500080B2FFF739FFA4F86C03B4F86C334FF46D
:103A6000F0229BB2022B98BFA4F86C53B389554D3A
:103A70009BB292FBF3F39BB2A4F86E33B1882B6B2D
:103A800089B24B43B28992B2B3FBF2F39BB2ADF869
:103A90000630BDF8060080B2FFF77CFE80B2ADF8BC
:103AA0000400BDF80420484B92B21A80BDF80430DF
:103AB0001BB2022B02DC0023ADF804303F4CAB6B91
:103AC0002189A28989B24B4392B2B3FBF2F39BB234
:103AD000ADF80630BDF80600DFF8DC8000B2FFF775
:103AE00063FFAB6980B24FF00A09A8F8700309FBC5
:103AF00003F36188A28989B24B4392B2B3FBF2F31C
:103B00009BB2ADF80630BDF80600304F80B2FFF72B
:103B10008DFE296A80B2388009FB01F92288A389C9
:103B200092B202FB09F99BB2B9FBF3F91FFA89F9CA
:103B3000ADF80690BDF80600224E00B2FFF712FF66
:103B4000234B80B2234A18809268920753BF3A8869
:103B50001B883269B368D31A9BB2A8F87233164A2D
:103B6000B8F87233174BBDF80410B2F872231B6C0F
:103B700012B25343184A93FBF2F35B189BB2ADF8B1
:103B80000430BDF804301BB2022B02DC0023ADF878
:103B90000430BDF80420084B92B20948A3F87423FE
:103BA0000221012203B0BDE8F04300F046BD03B09E
:103BB000BDE8F08300040040EC0200203C08002037
:103BC0000800024004000020780200207402002057
:103BD00076020020000C0140F0D8FFFF034B5A682A
:103BE00022F4404210435860704700BF001002406A
:103BF00010B51F4B5A6802F00C02042A01D0082AA3
:103C000002D01C4B036011E05A685968C2F383422A
:103C10000232C90301D4184B06E0DB6A154903F0F0
:103C20000F030133B1FBF3F35A430260104A134B05
:103C300051680468C1F30311595C24FA01F1416031
:103C40005468C4F302241C5D21FA04F484605468AF
:103C5000C4F3C2241C5D21FA04F1C1605268C2F3AE
:103C600081329B181B7CB1FBF3F1016110BD00BFD9
:103C70000010024000127A0000093D0058020020A6
:103C8000044B5A6909B1104301E022EA000058616F
:103C9000704700BF00100240044B9A6909B11043FD
:103CA00001E022EA00009861704700BF0010024066
:103CB000044BDA6909B1104301E022EA0000D8613F
:103CC000704700BF0010024008B501210820FFF72F
:103CD000E3FF214B1A6822F003021A601A6822F0EF
:103CE0000C021A601A6842F002021A601A6822F086
:103CF0000C021A60194A516821F0030151605168A1
:103D000021F00C015160516841F00201516051688D
:103D100021F00C015160516821F44051516051680B
:103D200021F440415160516841F4005151605168A3
:103D300021F4404151601A6822F030021A601A687A
:103D400022F0C0021A601A6842F020021A601A6853
:103D500022F0C0021A6008BD000C014000080140BA
:103D600008B508200121FFF797FF164B1A6822F4C7
:103D700040121A601A6822F440021A601A6842F46B
:103D800000021A6020221A611A6822F440321A6076
:103D90001A6822F440221A601A6842F400221A605B
:103DA00010221A611A6822F040721A601A6822F012
:103DB00040621A601A6842F000621A6040221A617A
:103DC00008BD00BF000C01401FB501212020FFF7F6
:103DD0006FFF104C01A8FCF727FA40F65F13ADF80F
:103DE000043020460A2301A9ADF80830FCF7D2F9C7
:103DF00001210A462046FCF72CFA20460121FCF757
:103E00001CFA054B4FF400025A60502283F8372306
:103E10001FBD00BF0014004000E100E01FB50121FC
:103E20004FF40030FFF738FF01A8FCF7FDF9104C04
:103E30000023ADF8063045F6BF53ADF804302046F8
:103E40004FF47A7301A9ADF80830FCF7A3F901210A
:103E50000A462046FCF7FDF920460121FCF7EDF962
:103E6000044B4FF000721A60102283F819231FBD13
:103E70000044014000E100E0064BDA6942F0010233
:103E8000DA614FF0804345F6BF521A8509221A8045
:103E9000704700BF0010024008B504200121FFF761
:103EA000FBFE08200121FFF7F7FE10200121FFF79C
:103EB000F3FEFCF789FE01F0A5F8FFF705FFFFF719
:103EC0004FFFFFF781FFFFF73BFCFFF7A7FFFFF76F
:103ED000D3FFFFF7F9FEBDE80840FFF78FBB0000F6
:103EE00043680A6823F4702323F4807313430A7928
:103EF00010B543EA022343608A68CB6884681A439A
:103F0000084B234013434A7943EA420383600B7C06
:103F1000C26A013B22F47002DBB242EA0353C3627D
:103F200010BD00BFFDF7F1FF836811B143F001033D
:103F300001E023F0010383607047836811B143F40B
:103F4000807301E023F4807383607047836843F0DB
:103F50000803836070478068C0F3C00070478368BF
:103F600043F00403836070478068C0F380007047AB
:103F7000836811B143F4A00301E023F4A00383603C
:103F80007047092970B54FF003040DD94C4307253C
:103F90001E3C05FA04F503FA04F3C66826EA050593
:103FA00045EA0304C4600BE04C43072505FA04F519
:103FB00003FA04F4066926EA050545EA04030361E9
:103FC000062A4FF005030CD8013A53431F2202FA88
:103FD00003F201FA03F3446B24EA0202134343633E
:103FE00070BD0C2A0DD853431F22233B02FA03F263
:103FF00001FA03F1046B24EA020242EA01030363BB
:1040000070BD53431F22413B02FA03F201FA03F150
:10401000C46A24EA020242EA0103C36270BD0000DE
:10402000044B9A6810B142F4000201E022F400024D
:104030009A6070470024014030B5038ACA8823F48F
:1040400040531B041B0C134303820D4683890989CB
:10405000AA8823F4B0530A43698923F00C030A4366
:104060001B041B0C92B213438381838AAA8923F415
:1040700040731B041B0C87B013430446838201A8C2
:10408000FFF7B6FD174BA2899C420CBF049B039B14
:1040900012B2002A4FF019012A6801FB03F101DA7C
:1040A000520000E092006423B1FBF2F1B1FBF3F2A5
:1040B0001201100903FB1011A08900B2002806DAD2
:1040C000C9003231B1FBF3F303F0070305E0090146
:1040D0003231B1FBF3F303F00F031A4392B22281A2
:1040E00007B030BD00380140838919B19BB243F459
:1040F000005303E023F400531B041B0C838170471F
:10410000C1F3421310B5012401F01F01A34204FAC8
:1041100001F101D10C3004E0022B01D1103000E09C
:10412000143003680AB1194301E023EA0101016078
:1041300010BDC905C90D81807047038819420CBFA5
:1041400000200120704700007FB580EAE072A2EBFA
:10415000E0720DF1FF3500230A2492FBF4F104FB19
:104160001122303205F8012F1E4601330A1EDBB240
:10417000F3DC002807DA5BB204A8C3182D2203F889
:10418000102CB31CDBB25AB204A88118002001F82D
:10419000100C68448118074811F8014C013BDBB250
:1041A000013900F8014F002BF6D10348835404B0C5
:1041B00070BD00BF6F06002070060020F0B50346FA
:1041C00085B083EAE370A0EBE3700DF1FF360022C7
:1041D0000A2590FBF5F405FB1400303006F8010FBA
:1041E00017460132201ED2B2F3DC002B07DA04ABF3
:1041F00052B29A182D2302F8103CBA1CD2B250B217
:1042000004AC2318002403F8104C0DEB0403181819
:104210000C46134652B210F8015C013BDBB2013888
:1042200004F8015B002BF6D18B54084605B0F0BDB5
:10423000F0B58BB080EAE073A3EBE0730DF1FF36CD
:1042400000220A2593FBF5F405FB1433303306F8FE
:10425000013F17460132231ED2B2F3DC53B20AAD3E
:10426000EC180025012B04F8285C04D13023BA1C7B
:104270008DF80130D2B2022A05D1012903D93023A9
:104280008DF80230032200240DF1280C23460CEB9C
:1042900001062E2552B25FB28F4203D1013306F8D8
:1042A000145CDBB25FB20DF1280C67441DF804C04A
:1042B000013407F814CC67B201339742DBB2EADB72
:1042C000002807DA5AB20AA98A1801332D2102F808
:1042D000141CDBB259B205AD084800226C1804E08A
:1042E000A55C013B00F8015FDBB2013A002BF7D17E
:1042F000034841180B7410300BB0F0BD7F0600204E
:10430000700600202DE9F04103468AB083EAE3708D
:10431000A0EBE3700DF1FF3700240A2690FBF6F5C1
:1043200006FB1500303007F8010FA4460134281EA3
:10433000E4B2F3DC60B20AAE35180026012805F8B5
:10434000286C05D130200CF102048DF80100E4B294
:10435000022C05D1012A03D930208DF80200032454
:1043600000250DF12808284608EB02072E2664B226
:104370004FFA80FC944503D1013007F8146CC0B2A9
:104380004FFA80FC0DF12808C4441DF80580013562
:104390000CF8148C4FFA85FC0130A445C0B2E7DB61
:1043A000002B07DA43B20AAAD31801302D2203F8F2
:1043B000142CC0B242B205AE0C460023B51804E07E
:1043C000EE5C013804F8016BC0B2013B0028F7D164
:1043D000885408460AB0BDE8F081002802D001DC0C
:1043E000404200B270470346002001E00130C0B2F5
:1043F0001A5C002AFAD1704730B50346002401E068
:10440000155501341D5DE0B2002DF9D12B4645B2A2
:10441000551903E00130EC54C0B20133CC5C002CE0
:10442000F8D140B21454104630BD70B5002501E0FB
:104430005E550135465DECB2002EF9D1304666B2CC
:104440009E1903E001343554E4B201300D5C002DB7
:10445000F8D1294665B25D1903E001346854E4B22D
:104460000131505C0028F8D164B21855184670BD6F
:104470002DE9F041074686B04FF461600C46B7FB6A
:10448000F0F001A9FFF79AFE01A8FFF7ACFF0128A1
:1044900003D830232370012600E000260023A11951
:1044A00002E0CA54EEB201330DF1040813F80820FB
:1044B000751C002AF5D13A2273B2E2543C23B7FBB3
:1044C000F3F2B2FBF3F003FB10204146FFF776FE58
:1044D0004046FFF788FF0128EDB204D86DB23023C3
:1044E0006355B51CEDB269B20023611802E0CA54ED
:1044F000F5B201330DF1040813F808206E1C002AF0
:10450000F5D13A226BB2E2543C23B7FBF3F003FB44
:1045100010704146FFF752FE4046FFF764FF012846
:10452000F6B204D876B230230235A355EEB271B29A
:104530000023611803E00136CA54F6B2013301AA20
:104540009A5C002AF7D176B2A255204606B0BDE8A3
:10455000F0812DE9F041804686B04FF461600C4651
:10456000B8FBF0F001A9FFF729FE01A8FFF73BFF18
:10457000012803D830232370012500E00025002303
:10458000611902E0CA54F5B2013301AFDA5D6E1C65
:10459000002AF7D13A226BB2E2543C23B8FBF3F87D
:1045A000B8FBF3F003FB10803946FFF707FE3846EF
:1045B000FFF719FF0128F6B204D876B2302302358E
:1045C000A355EEB271B20023611803E00136CA545C
:1045D000F6B2013301AA9A5C002AF7D176B2A2554D
:1045E000204606B0BDE8F0818B6810B50C6A026801
:1045F00023430C6922F4FE4223434C6922F0F0026B
:1046000023438C692343CC6923434C6A23438C6A3C
:10461000234313430360CB6843600B6883604B689C
:10462000C36010BD19B1036843F0010303E00268E1
:104630004FF6FE7313400360704703680AB11943D5
:1046400001E023EA0101016070470000C2004CBF95
:10465000014B024B586070470004024000000240CA
:10466000C3004CBF014B024B58607047000402402E
:1046700000000240C37810B5F3B1154B4178DB68F8
:104680008478DB43C3F30223C3F1040201FA02F18D
:104690000F2222FA03F222400A430E4B0178120144
:1046A000CB18D2B283F8002303780122590903F012
:1046B0001F0302FA03F307E003780122590903F00C
:1046C0001F0302FA03F32031024A42F8213010BDE1
:1046D00000ED00E000E100E00F4AD36813F0010FA5
:1046E0000D4BFAD1DA68920601D52022DA601A69F8
:1046F00042F002021A6158611A6942F040021A61DE
:10470000054AD168044B8906FBD52022DA601A6974
:1047100022F002021A61704700200240034B044A53
:104720005A6002F188325A60704700BF0020024090
:1047300023016745024B1A6942F080021A617047F3
:1047400000200240124AD36813F0010F104BFAD137
:10475000DA68920601D52022DA601A6942F0010275
:104760001A618BB203800A4BDA6812F0200F084AF4
:10477000FAD02023090CD3604180D168044B89060C
:10478000FBD52022DA601A6922F001021A61704713
:104790000020024070B572B6114CFFF7BFFF4FF416
:1047A000CE701049002200F00DFD20680E49002255
:1047B00000F008FD0D48FFF78FFF0C4D0C4E2B1934
:1047C00003F17843A3F5F233284619680435FFF75F
:1047D000B9FFB542F3D1FFF7ADFF62B670BD00BFC0
:1047E0009C060020446300084B63000800E40108B5
:1047F0009CE5010810B5074B0749084A58181C6882
:1048000000F178400433A0F5F23093420460F5D112
:10481000012010BD00E401089C0600209CE5010871
:1048200070B504680E468C4201D3944211D90A4BEC
:1048300000251D7009492A4600F0C4FC204608499D
:104840002A4600F0BFFC074807492A4600F0BAFC98
:104850003446204670BD00BF6C0200205163000842
:104860006863000800EC01087A63000810B5184C72
:104870006068FFF731FF60682168FFF763FFE06859
:10488000A168FFF75FFF60692169FFF75BFFE069DF
:10489000A169FFF757FF606A216AFFF753FFE06ADB
:1048A000A16AFFF74FFF606B216BFFF74BFFE06BD7
:1048B000A16BFFF747FF606C216CFFF743FFE06CD3
:1048C000A16CFFF73FFF034800F03CFC10BD00BFA8
:1048D000040000209163000810B5184C6068FFF7D1
:1048E000FBFE60682168FFF72DFFE068A168FFF715
:1048F00029FF60692169FFF725FFE069A169FFF7DA
:1049000021FF606A216AFFF71DFFE06AA16AFFF7D5
:1049100019FF606B216BFFF715FFE06BA16BFFF7D1
:1049200011FF606C216CFFF70DFFE06CA16CFFF7CD
:1049300009FF034800F006FC10BD00BF5C01002029
:10494000AA63000838B5224C002160684FF48072D9
:10495000FFF766FF002120604FF47A72E068FFF7EE
:104960005FFF0021A0604FF47A726069FFF758FF83
:10497000184D20610A212A46E069FFF751FF0A21FC
:10498000A0612A46606AFFF74BFF0A2120622A468F
:10499000E06AFFF745FF0A21A0622A46606BFFF735
:1049A0003FFF0A2120632A46E06BFFF739FF4621CB
:1049B000A063C822606CFFF733FF0A212064C8227D
:1049C000E06CFFF72DFFA064034800F0BBFB38BD8F
:1049D00004000020A0860100CA63000838B5224CFC
:1049E000002160684FF48072FFF71AFF00212060F9
:1049F0004FF47A72E068FFF713FF0021A0604FF4D4
:104A00007A726069FFF70CFF184D20610A212A466F
:104A1000E069FFF705FF0A21A0612A46606AFFF7F7
:104A2000FFFE0A2120622A46E06AFFF7F9FE0A210A
:104A3000A0622A46606BFFF7F3FE0A2120632A4634
:104A4000E06BFFF7EDFE4621A063C822606CFFF724
:104A5000E7FE0A212064C822E06CFFF7E1FEA064B3
:104A6000034800F06FFB38BDAC010020A0860100B8
:104A7000E463000810B5144C6068FFF72DFE606811
:104A80002168FFF75FFEE068A168FFF75BFE6069E1
:104A90002169FFF757FEE069A169FFF753FE606ADD
:104AA000216AFFF74FFEE06AA16AFFF74BFE606BD9
:104AB000216BFFF747FEE06BA16BFFF743FE034856
:104AC00000F040FB10BD00BF540000200764000848
:104AD00010B5144C6068FFF7FFFD60682168FFF7B0
:104AE00031FEE068A168FFF72DFE60692169FFF7DC
:104AF00029FEE069A169FFF725FE606A216AFFF7D8
:104B000021FEE06AA16AFFF71DFE606B216BFFF7D3
:104B100019FEE06BA16BFFF715FE034800F012FBD6
:104B200010BD00BFDC0000201D64000838B51D4C1E
:104B3000002160684FF48072FFF772FE012120604F
:104B40000A22E068FFF76CFE0121A0604FF47A7240
:104B50006069FFF765FE012120614FF47A62E06928
:104B6000FFF75EFE0121A0614FF47A62606AFFF7F1
:104B700057FE42F21075206200212A46E06AFFF7D4
:104B80004FFE0021A0622A46606BFFF749FE00211C
:104B900020636422E06BFFF743FEA063024800F04D
:104BA000D1FA38BD540000203A64000838B51D4CD5
:104BB000002160684FF48072FFF732FE012120600F
:104BC0000A22E068FFF72CFE0121A0604FF47A7200
:104BD0006069FFF725FE012120614FF47A62E069E8
:104BE000FFF71EFE0121A0614FF47A62606AFFF7B1
:104BF00017FE42F21075206200212A46E06AFFF794
:104C00000FFE0021A0622A46606BFFF709FE00211B
:104C100020636422E06BFFF703FEA063024800F00C
:104C200091FA38BD1C0100205164000810B50C4CED
:104C30000022A0680B4900F0C5FA6068FFF74CFD40
:104C400060682168FFF77EFDE068A168FFF77AFDE4
:104C500060692169FFF776FD034800F073FA10BD23
:104C600094000020716400088064000810B50A4CAC
:104C70006068FFF731FD60682168FFF763FDE06859
:104C8000A168FFF75FFD60692169FFF75BFD0348DD
:104C900000F058FA10BD00BFAC0000209E64000870
:104CA00038B50C4C002160684FF48072FFF7B8FDF6
:104CB000094D206000212A46E068FFF7B1FD002180
:104CC000A0602A466069FFF7ABFD2061034800F051
:104CD00039FA38BD9400002000286BEEC564000846
:104CE00038B50C4C002160684FF48072FFF798FDD6
:104CF000094D206000212A46E068FFF791FD002160
:104D0000A0602A466069FFF78BFD2061034800F030
:104D100019FA38BDC400002000286BEEE4640008D6
:104D200070B50C4D01242C7072B6FFF7B9FFFFF778
:104D3000FDFEFFF707FE62B62E782EB9064800F09A
:104D400001FA2C70304670BD044800F0FBF92C705D
:104D5000204670BD6C0200200C6500082565000827
:104D6000F0B5C1B007460D461446684608494FF4F1
:104D7000807200F03FFA6E4617F8013B013D5C403F
:104D8000EDB2345D002DF7D1204641B0F0BD00BF3B
:104D90004462000838B572B6FFF7C0FC4C2100220F
:104DA0003448FFF7DDFF344B04461860FFF794FDED
:104DB000FFF714FE4C2100223048FFF7D1FF844258
:104DC00003D12F4800F0BEF904E02E4800F0BAF9F4
:104DD000FFF782FD3C2100222B48FFF7C1FF002294
:104DE0002A49044600F0EEF9002229493C2000F04F
:104DF000E9F9284B1C60FFF76BFEFFF7D7FE3C215B
:104E000000222548FFF7ACFF00222049054600F0AC
:104E1000D9F93C2000221E4900F0D4F9AC4203D15C
:104E20001E4800F08FF904E01D4800F08BF9FFF7F1
:104E30004FFE142100221B48FFF792FF1A4B044635
:104E40001860FFF713FFFFF74BFF142100221748EC
:104E5000FFF786FF844203D1154800F073F904E0A0
:104E6000144800F06FF9FFF701FFFFF763FC62B62B
:104E700038BD00BF600100205C010020B0010020AF
:104E80004065000865650008E000002095650008A1
:104E9000A0650008DC00002020010020AC650008AF
:104EA000CE650008B0000020AC000020C800002043
:104EB000FB6500082566000810B572B614210022B3
:104EC0001048FFF74DFF104B04461860FFF726FC13
:104ED000FFF7ACFEFFF704FF142100220B48FFF799
:104EE0003FFF844203D10A4800F02CF904E009484E
:104EF00000F028F9FFF79AFEFFF71CFC62B60120CC
:104F000010BD00BF9800002094000020C8000020C1
:104F1000FC6500082666000838B572B63C21002200
:104F20001948FFF71DFF00221849044600F04AF90E
:104F3000002217493C2000F045F9164B1C60FFF792
:104F4000EDFBFFF797FDFFF731FE3C2100221248F1
:104F5000FFF706FF00220D49054600F033F93C201B
:104F600000220B4900F02EF9AC4203D10B4800F0AF
:104F7000E9F804E00A4800F0E5F8FFF77BFDFFF7E9
:104F8000D9FB62B6012038BD5800002096650008A4
:104F9000A16500085400002020010020AD65000834
:104FA000CF65000810B572B64C2100221048FFF7FB
:104FB000D7FE104B04461860FFF7B0FBFFF756FC16
:104FC000FFF70CFD4C2100220B48FFF7C9FE84427D
:104FD00003D10A4800F0B6F804E0094800F0B2F83E
:104FE000FFF744FCFFF7A6FB62B6012010BD00BF2F
:104FF0000800002004000020B001002041650008E6
:105000006665000830B54FF4164387B0009300235F
:105010001C46ADF80430ADF80630ADF80830ADF8F8
:105020000C3004200C230121ADF80A30FEF734FEC9
:1050300001214FF48040FEF72FFE4FF4C063154D61
:10504000ADF8103018238DF8133004A9032312484B
:105050008DF81230FBF728FE69462846FEF7ECFF74
:1050600025238DF814308DF816402223012405A83D
:105070008DF815308DF81740FFF7FCFA28462146C9
:10508000FFF732F8284640F225512246FFF738F85C
:1050900007B030BD00380140000801400A4B1A78C3
:1050A000C72A0FD85A78094988541A780132D2B2DF
:1050B0001A705A780132D2B25A705A78C82A01D17D
:1050C00000225A70704700BF91060020500800204F
:1050D00010B5194C2388980603D5A088C0B2FFF7F5
:1050E000DDFF2388144A19061AD5144B997889B123
:1050F000D9781348415C91809A78013AD2B29A707B
:10510000DA780132D2B2DA70DA78C82A08D100220D
:10511000DA7005E0938923F080031B041B0C938154
:10512000054A13885B0605D5138823F040031B044A
:105130001B0C138010BD00BF0038014091060020F9
:105140001809002010B504460AE00D488021FEF73A
:10515000F4FF0028F9D014F8011B0948FEF7E9FF15
:105160002378002BF1D106488021FEF7E6FF0028C6
:10517000F9D003480A21BDE81040FEF7DABF00BFAE
:105180000038014082B0064B8DF807001A8852069D
:10519000FCD59DF80720024B9A8002B0704700BFF3
:1051A00000380140064B1A4605E019884906FCD52F
:1051B00010F8011B918001780029F6D1704700BFDB
:1051C0000038014037B501900C46019812B9FEF73E
:1051D000BBFF02E01146FFF72BF805462046FFF71C
:1051E000E1FF2846FFF7DEFF0A2003B0BDE83040AC
:1051F000FFF7C8BF0F2AF0B43AD941EA00039B0772
:1052000038D10C46034615462668103D1E60666878
:105210005E60A6689E60E6681034DE6010330F2D75
:10522000F2D8A2F1100424F00F0402F00F0210349F
:10523000032A00EB0403214411D90E461D461446EF
:1052400056F8047B043C032C45F8047BF8D8141F63
:1052500024F00304043402F0030209191B192AB1D3
:1052600011F8014B013A03F8014BF9D1F0BC70473A
:105270000346F4E70346F3E70000000000000000E7
:10528000000000000000000000000000000000001E
:1052900069693A2000513A20004352432843616C27
:1052A0006962726174696F6E29203D0043616C69A7
:1052B00062726174696F6E3056616C7565466F72AB
:1052C00043757272656E74203D0043616C69627251
:1052D0006174696F6E3056616C7565466F724375A7
:1052E0007272656E7431203D0043616C6962726157
:1052F00074696F6E56616C7565466F724375727234
:10530000656E74203D0043616C6962726174696FFF
:105310006E56616C7565466F7243757272656E7418
:1053200031203D0043616C6962726174696F6E5631
:10533000616C7565466F72566F6C74616765203D70
:105340000043616C6962726174696F6E56616C755D
:1053500065466F72566F6C7461676531203D00431E
:10536000616C6962726174696F6E56616C756546D5
:105370006F72566F6C7461676532203D00526573C1
:10538000697374616E6365436F6D705F49736875AF
:105390006E745F5769726573203D0052657369735F
:1053A00074616E6365436F6D705F4D4F5346455436
:1053B000203D004352432853657474696E677344FB
:1053C00061746129203D004F7074696F6E31286DE2
:1053D000656E7520706F736974696F6E29203D006A
:1053E00043686172676554696D65203D004C6F7755
:1053F000566F6C74616765203D004D6178566F6C27
:1054000074616765203D004368617267654164614E
:105410007074203D005377696E675F436872675F01
:1054200074696D65203D005377696E675F4443681A
:1054300072675F74696D65203D0043524328536174
:105440007665446174615768656E506F7765724F19
:10545000666629203D00426174746572794361700B
:1054600061636974794469736368617267655072D6
:105470006576696F757356616C7565203D00426194
:105480007474657279436170616369747944697396
:1054900063686172676543757272656E74203D0062
:1054A000785200087852000878520008105E000810
:1054B00000000000000000002020202020202020EC
:1054C000202020202020202000000000785200080A
:1054D0007852000878520008E45D000800000000DF
:1054E000000000002020202020202020202020203C
:1054F0002020202000000000785200087852000888
:1055000078520008B85D000800000000910D000806
:10551000202020202020202020202020202020208B
:105520000000000078520008785200087852000805
:105530008C5D000800000000910D00082020202054
:1055400020202020202020202020202000000000DB
:10555000785200087852000878520008605D000810
:1055600000000000ED0D0008202020202020202039
:105570002020202020202020000000007852000859
:105580007852000878520008085D0008000000000A
:10559000000000002020202020202020202020208B
:1055A00020202020000000007852000878520008D7
:1055B00078520008DC5C00080000000000000000D9
:1055C00020202020202020202020202020202020DB
:1055D0000000000078520008785200087852000855
:1055E000345D0008000000000000000020202020A2
:1055F000202020202020202020202020000000002B
:10560000785200087852000878520008B05C000810
:10561000000000000000000020202020202020208A
:1056200020202020202020200000000078520008A8
:105630007852000878520008845C000800000000DE
:10564000610D000820202020202020202020202064
:105650002020202000000000785200087852000826
:1056600078520008745A000800000000710D00080C
:10567000202020202020202020202020202020202A
:1056800000000000785200087852000878520008A4
:10569000A05A000800000000710D00082020202002
:1056A000202020202020202020202020000000007A
:1056B0007852000878520008785200081C5A0008F6
:1056C00000000000710D0008202020202020202054
:1056D00020202020202020200000000078520008F8
:1056E0007852000878520008485A0008000000006C
:1056F000710D0008202020202020202020202020A4
:105700002020202000000000785200087852000875
:10571000785200089859000800000000710D000838
:105720000000000078520008785200087852000803
:10573000C459000800000000710D0008202020203E
:1057400020202020202020202020202000000000D9
:10575000785200087852000878520008F059000882
:1057600000000000710D00082020202020202020B3
:105770002020202020202020000000007852000857
:1057800078520008785200086C59000800000000A8
:10579000710D0008000000007852000878520008DF
:1057A0007852000840590008000000000000000086
:1057B0000000000078520008785200087852000873
:1057C0002C5C0008000000006D0D00082020202047
:1057D0002020202020202020202020200000000049
:1057E000785200087852000878520008005C0008DF
:1057F00000000000890E000820202020202020200A
:1058000020202020202020200000000078520008C6
:105810007852000878520008D45B000800000000AD
:105820006D0D000820202020202020202020202076
:105830002020202000000000785200087852000844
:1058400078520008A85B0008000000006D0D0008F9
:105850002020202020202020202020202020202048
:1058600000000000785200087852000878520008C2
:105870007C5B0008000000006D0D00082020202047
:105880002020202020202020202020200000000098
:10589000785200087852000878520008505B0008DF
:1058A000000000006D0D0008202020202020202076
:1058B0002020202020202020000000007852000816
:1058C0007852000878520008245B000800000000AD
:1058D0006D0D0008202020202020202020202020C6
:1058E0002020202000000000785200087852000894
:1058F00078520008F85A000800000000590E00080D
:105900002020202020202020202020202020202097
:1059100000000000A05A0008405900087852000812
:10592000585C000800000000000000004F4B20748D
:105930006F2065786974202020202020000000005E
:10594000145900086C59000878520008985700084C
:1059500000000000000000004261636B20746F20B3
:10596000466163746F72792000000000405900089E
:1059700098590008785200087C5700080000000081
:105980000000000052657369737420636F6D7020AE
:1059900035563141000000006C590008C459000818
:1059A00078520008085700080000000000000000BE
:1059B000566F6C7461676520496E2020202020207E
:1059C0000000000098590008F059000878520008BB
:1059D000245700080000000000000000566F6C749F
:1059E000616765204F757420202020200000000092
:1059F000C45900081C5A0008785200085057000883
:105A00000000000000000000566F6C7461676520A4
:105A1000505320202020202000000000F0590008D2
:105A2000485A000878520008B056000800000000EC
:105A30000000000043555252454E54204C6F6164A3
:105A400020202020000000001C5A0008745A000882
:105A500078520008DC56000800000000000000003A
:105A600043555252454E54204F757420202020201B
:105A700000000000485A0008A05A000878520008A8
:105A80005856000800000000000000004355525224
:105A9000454E54204C6F616420746F30000000004C
:105AA000745A0008145900087852000884560008F7
:105AB000000000000000000043555252454E5420A3
:105AC0004F757420746F2030000000002C5C0008BB
:105AD000F85A0008785200083C5E000800000000F8
