:020000040800F2
:10000000980E002085020008CD020008CD020008ED
:10001000CD020008CD020008CD020008000000005B
:10002000000000000000000000000000CD020008F9
:10003000CD02000800000000CD020008CD0200083B
:10004000CD020008CD020008CD020008CD02000854
:10005000CD020008CD020008CD020008CD02000844
:10006000CD020008CD020008CD020008CD02000834
:10007000CD020008CD020008CD020008CD02000824
:10008000CD020008CD020008CD02000800000000EB
:10009000000000000000000000000000CD02000889
:1000A000CD02000835180008CD020008CD02000876
:1000B000CD0200087D3F000800000000CD020008CE
:1000C000CD0200080000000000000000CD02000882
:1000D0000000000059570008CD0200080000000091
:1000E000CD020008CD020008CD020008000000008B
:1000F0000000000000000000000000000000000000
:1001000000000000000000000000000000000000EF
:100110000000000000000000CD020008891F000858
:100120005FF808F1014B1868704700BF000000201D
:10013000084B10B598420BD050B1074B074C1B68C9
:1001400020600BB11830984723681B6903B19847AA
:1001500010BD00BF00590008C402002000000020AC
:10016000024B1860024B1868FFF7E2BFC402002080
:100170000000002008B5054B054A1B68934203D0D8
:1001800013B15B6903B1984708BD00BF00000020B0
:1001900000590008224A038890429BB212D002F50F
:1001A000006290420ED0B0F1804F0BD0A2F5983291
:1001B000904207D002F58062904203D002F580623F
:1001C000904203D14A8823F070031343154A9042AA
:1001D00008D002F58062904204D023F44073CA88AC
:1001E0009BB2134303808B8883850B8803850C4B5C
:1001F00098420FD003F5006398420BD003F540639B
:10020000984207D003F58063984203D003F58063DA
:10021000984201D10B7A038601238382704700BF85
:10022000002C0140001000404FF6FF738380002334
:100230000380C380438003727047038819B19BB267
:1002400043F0010303E023F001031B041B0C0380B4
:10025000704783899BB20AB1194301E023EA010187
:1002600081817047038A828911EA030092B203D028
:1002700011420CBF002001207047C94389B201829E
:100280007047000008B50C4A0C4B0D4903E052F8CA
:10029000040B43F8040B8B42F9D30A480A494FF088
:1002A00000028842B8BF40F8042BFADB00F0D2FA13
:1002B000BDE8084003F05EBA356E0008000000207B
:1002C000C4020020C4020020980A0020FEE70000BB
:1002D000354B2DE9F041354A354D03F11C0742F20B
:1002E000107633F9020CB3F90240B3F90010241A66
:1002F000744333F904EF42F8081CC1EB0E0E94FB73
:10030000FEF4614391FBF5F14018BB4242F8044C06
:1003100042F80C0BE5D1274A274BB2F91E2003F116
:100320000C045A6503F1600842F21075022754F874
:100330000C0C0022214905F089FA54F8080C00221F
:100340001F4905F083FA54F8040C00221D4905F0FA
:100350007DFA54F8083C54F80C0C0022584354F829
:10036000043C90FBF5F0C018174905F06FFA2368BC
:1003700054F80C6C0022F61A96FBF7F6F618304685
:10038000124905F063FA54F8080C54F8043C704321
:1003900090FBF5F00022C0180D490C3405F056FA18
:1003A0004445C4D1BDE8F0810600002004070020C8
:1003B000F0D8FFFF04000020FC06002018590008B8
:1003C0001B59000823590008265900082A5900081B
:1003D0002E590008104A1368984219DC002311684E
:1003E00088420FDCD16888420CDD0B4A0C2101FBEE
:1003F00003235A689B68504342F2107290FBF2F05C
:10040000C018704701330C32072BE8D1C820704761
:100410006FF00900704700BFFC0600202DE9F8438B
:10042000564D0646286804F09FF92B6811210024D8
:10043000594304E00A19AA1801341371E4B2035DA8
:100440004E4A002BF6D11368112159430819101890
:100450003A25057104E00F2C09D80D19551928719A
:1004600016F8010B0134E4B20028F4D10DE011229A
:1004700002FB034241498A180021117105E0181955
:10048000081801340271E4B203E011223B495343DE
:1004900020220F2C394DF2D900222046384905F090
:1004A000D5F92B68112202FB034401332A190024D9
:1004B000172B14712B6057D90A26A0462F462046C9
:1004C00004F052F94FF0110E00230EFB04FE05E07C
:1004D0000EEB0301691801330A71DBB2C25C112112
:1004E000002AF5D101FB04F27143D01838184FF0FF
:1004F0003A0E013380F804E0DBB294465FFA84FEE2
:10050000681810E0BEF1090F05D901EB0309A944F1
:1005100099F8049003E000EB030999F80590013382
:1005200082F80490DBB20CEB0302AA1892F8049054
:10053000B9F1000FE6D1013B1121DBB2614320226A
:1005400004E0C818281801330271DBB20F2BF8D968
:10055000112202FB04330134FB1801360E2C83F800
:100560000480ACD1054B1C6004F024FC034B05490E
:1005700018680022BDE8F84305F068B9500700206C
:1005800031590008365900082DE9F047554F054606
:1005900038680E4604F0E8F83B68112100245943FE
:1005A00004E00A19BA1801341371E4B2035D4D4A2C
:1005B000002BF6D113681121594308191018067140
:1005C00004E00F2C09D80F19D719387115F8010B51
:1005D0000134E4B20028F4D10DE0112202FB034201
:1005E00040498A180021117105E0181908180134D2
:1005F0000271E4B203E011223A49534320220F2C46
:10060000384DF2D900222046374905F01FF92B68F2
:10061000112202FB034401332A190024172B147101
:100620002B6054D90A27A146A846204604F09CF81E
:100630004FF0110E00230EFB04FE05E00EEB03014C
:10064000691801330A71DBB2C25C1121002AF5D1AD
:1006500001FB04F27943D018404401330671DBB248
:1006600094465FFA84FE681810E0BEF1090F05D9C0
:1006700001EB030AAA449AF804A003E000EB030A82
:100680009AF805A0013382F804A0DBB20CEB030258
:10069000AA1892F804A0BAF1000FE6D1013B11218B
:1006A000DBB26143202204E0C8182818013302712C
:1006B000DBB20F2BF8D9112202FB0433013443447F
:1006C00001370E2C83F80490AFD1064B1C6004F068
:1006D00071FB044B054918680022BDE8F04705F09E
:1006E000B5B800BF5007002031590008365900083E
:1006F00010B5404C0022206A3F4905F0A7F8A06AD7
:1007000000223E4905F0A2F8206B00223C4905F08A
:100710009DF8A06B00223B4905F098F8206C002260
:10072000394905F093F8A06C0022384905F08EF89D
:10073000206D0022364905F089F8A06D0022354968
:1007400005F084F8206E0022334905F07FF8A06E92
:100750000022324905F07AF8206F0022304905F076
:1007600075F8A06F00222F4905F070F8D4F88000CA
:1007700000222D4905F06AF8D4F8880000222B49A0
:1007800005F064F8D4F890000022294905F05EF8DD
:10079000D4F8A8000022274905F058F8D4F89800AA
:1007A0002549002205F052F8D4F8A0000022234980
:1007B00005F04CF8D4F8B0000022214905F046F8C5
:1007C000D4F8B80000221F4905F040F8D4F8C00062
:1007D00000221D4905F03AF8D4F8C80000221B4950
:1007E00005F034F8D4F8D00019490022BDE81040D3
:1007F00005F02CB8040000203A5900084D590008B3
:100800006B5900088A590008A7590008C559000803
:10081000E2590008005A00081E5A00083C5A000815
:10082000545A0008685A0008815A00088E5A000875
:100830009B5A0008A85A0008B65A0008C85A00086F
:10084000DB5A0008F85A0008145B00083C5B0008FB
:100850005E5B0008314B82B01A6842F001021A60F8
:1008600059682F4A0A405A601A6822F0847222F4AA
:1008700080321A601A6822F480221A605A6822F4C0
:10088000FE025A604FF41F029A600022DA62009260
:1008900001921A6842F480321A601A6802F4003237
:1008A0000192009A01320092019A1AB9009AB2F5A7
:1008B000A06FF2D1194B1B6813F4003318BF01234A
:1008C0000193019B012B23D1144B5A685A605A683B
:1008D0005A605A685A605A6822F47C125A605A6800
:1008E00042F498125A601A6842F080721A601968CD
:1008F0000A4A8901FBD5536823F003035360536808
:1009000043F002035360536803F00C03082BFAD141
:10091000044B4FF000629A6002B070470010024032
:100920000000FFF800ED00E084B0ADF80600BDF86F
:1009300006304FF4FA629BB2534301E0039B013B44
:100940000393039B002BF9D104B0704784B0ADF83A
:100950000600BDF806309BB25B0001E0039B013B43
:100960000393039B002BF9D104B0704710B5074CDB
:100970004FF4804323610220FFF7E8FF4FF08043EC
:1009800002202361BDE81040FFF7E0BF000C0140EA
:1009900070B50F4C4FF07C454FF4805625612661B1
:1009A000FFF7E4FF0120FFF7BFFF25612661FFF796
:1009B000DDFF0120FFF7B8FF4FF48063256123615D
:1009C000FFF7D4FF0120BDE87040FFF7ADBF00BFC7
:1009D000000C0140254B4FF07C4270B504460D469B
:1009E0001A6111B14FF400421A61E20644BF4FF49C
:1009F00000521A611D4B14F0200F1CBF4FF480529F
:100A00001A61660644BF4FF400621A61174E14F073
:100A1000800F1CBF4FF480633361FFF7A7FF4FF0D7
:100A20007053E007336103D5104B4FF400521A6145
:100A3000A10703D50D4B4FF480521A61620703D50D
:100A40000A4B4FF400621A61230703D5074B4FF49A
:100A500080621A61FFF78AFF0220FFF765FF1DB170
:100A6000024B4FF000421A6170BD00BF000C014004
:100A7000034610B9082019460BE021B90AB90C2029
:100A800003E00D2005E012B90E20114601E00F2011
:100A90000021FFF79FBF01200021FFF79BBF08B592
:100AA0006420FFF741FFFFF773FF0120014600229A
:100AB000FFF7DEFFBDE80840FFF7EDBFC0B2012140
:100AC000FFF788BF054B1870597011B940F08000CE
:100AD00002E040F0C0000021FFF77CBFD8020020F8
:100AE0002DE9F84389460646DFF86C800127194C4A
:100AF00029E0B22801D1492011E0AF2801D103201B
:100B00000DE0DE2802D10120014609E0AA2801D12A
:100B1000022004E0BF2884BF404410F8C00C01212B
:100B2000FFF758FF237865780133DBB2237055B99E
:100B3000082B08D1B9F1020F05D128460121FFF792
:100B4000C1FF2570677016F8010B0028D1D1BDE8F0
:100B5000F88300BFD80200204C02002070B5064682
:100B60000D4600240CE00121FFF734FF012D06D1D2
:100B7000E3B2072B03D100202946FFF7A3FF01347E
:100B8000305D0028EFD170BDC00040F0400038B5A6
:100B9000C0B20D460021FFF71DFF0024285D012192
:100BA0000134FFF717FF082CF8D180200021BDE8A1
:100BB0003840FFF70FBF2DE9F34100250424152726
:100BC0001F264FF00E08284669468DF800408DF824
:100BD00003408DF805408DF801708DF802808DF886
:100BE00004508DF806608DF80760FFF7CDFF0120F7
:100BF00069468DF802408DF806408DF800708DF83A
:100C000001808DF803508DF804508DF805508DF853
:100C10000760FFF7B9FF022069468DF801408DF8A3
:100C200005408DF800508DF802808DF803708DF826
:100C300004508DF806608DF80760FFF7A5FF0320CC
:100C400069468DF800408DF803408DF806408DF818
:100C500001808DF802708DF804508DF805508DF8E4
:100C60000760FFF791FF204669468DF800408DF838
:100C700003408DF804408DF807408DF801808DF811
:100C800002708DF805708DF80680FFF77DFF022356
:100C90008DF800300A238DF803308DF804301C23C2
:100CA00007248DF805308DF80630052008236946A5
:100CB0008DF807308DF801408DF80240FFF764FF92
:100CC0000F238DF8003005238DF801308DF80230A8
:100CD0008DF803308DF804300620092369468DF81D
:100CE00006308DF805708DF80750FFF74DFF112382
:100CF0008DF800308DF801308DF802302046012348
:100D000069468DF803608DF804308DF805308DF854
:100D100006308DF80750FFF737FFBDE8FC81022150
:100D2000FFF7DEBE10B5044608461146FFF7CAFEBF
:100D300020460221BDE81040FFF7D2BE08B5364B71
:100D40005A6822F440725A605A6842F400725A603B
:100D50005A6822F440625A605A6842F480625A60CB
:100D60005A6822F440525A605A6842F400525A605B
:100D70005A6822F440425A605A6842F480425A60EB
:100D80005A6822F440325A605A6842F400325A607B
:100D90005A6822F440225A605A6842F480225A600B
:100DA0005A6822F440125A605A6842F400125A609B
:100DB0005A6822F440025A605A6842F480025A602B
:100DC0005A6822F040725A605A6842F000725A60C3
:100DD0005A6822F040625A605A6842F080625A6053
:100DE0005A6822F040525A605A6842F000525A60E3
:100DF0005A6822F040425A605A6842F080425A6073
:100E0000FFF74DFEFFF747FE002101200A46BDE82F
:100E10000840FFF72DBE00BF000C0140CB782DE944
:100E2000F04303F00F02DB0648BF8B780E8848BF03
:100E30001A4316F0FF0F1FD0046800234FF001087B
:100E40004FF00F0C08FA03F707EA0605BD420FD171
:100E50009F000CFA07F902FA07F724EA09043C4359
:100E6000CF78282F01D1456102E0482F08BF0561E6
:100E70000133082BE6D104600E88FF2E21D9446887
:100E800000234FF001084FF00F0C03F1080708FA98
:100E900007F707EA0605BD420FD19F000CFA07F9D4
:100EA00002FA07F724EA09043C43CF78282F01D13E
:100EB000456102E0482F08BF05610133082BE4D1EA
:100EC0004460BDE8F083836819420CBF0020012014
:100ED00070470000014B00221A807047DC0200209E
:100EE00004F05EBB08B504F0A1FB0248BDE8084071
:100EF000FFF794BAE465000818B100210A46FFF72D
:100F000011BF704710B5134C002290B060681249B1
:100F100004F09CFC626849F6AF239A4217D90BA9EA
:100F2000A06803F026FE60684FF46163B0FBF3F045
:100F300001A903F053FC09490BAA06AB03F085FD98
:100F400006A80121FFF720FB06A804F03FFC10B023
:100F500010BD00BFDC020020F0650008F865000845
:100F600010B50F4C49F6AF23E26890B09A4214D9FD
:100F70000BA9206903F0FDFDE0684FF46163B0FB4D
:100F8000F3F001A903F02AFC06490BAA06AB03F013
:100F90005CFD06A80221FFF7F7FA10B010BD00BFF4
:100FA000DC020020F865000884B0ADF80600BDF84A
:100FB00006304FF416629BB2534301E0039B013BA2
:100FC0000393039B002BF9D104B0704708B50720A9
:100FD0000121FFF777FDFF200121FFF7FBFC04F063
:100FE000DFFA044BC8201A6C034B1A60BDE80840B6
:100FF000FFF7DABF74000020EC08002008B50720D6
:101000000121FFF75FFDFF200121FFF7E3FC04F062
:10101000C7FA044BC8209A68034B1A60BDE8084021
:10102000FFF7C2BF740000200409002008B53E4B42
:1010300093F9140060B90146FFF744FD3B48FFF700
:101040006EFE3B4B4FF487629A6102F5BE721A62E4
:10105000354B93F91430012B0DD100200146FFF7D9
:1010600031FD3448FFF75BFE314B4FF496729A61C5
:101070004FF4D2721A622C4B93F91430022B0DD11B
:1010800000200146FFF71EFD2B48FFF748FE284BC6
:101090004FF48C729A614FF4B9721A62224B93F931
:1010A0001430032B0CD100200146FFF70BFD234821
:1010B000FFF735FE1E4BA0229A614FF48C721A6224
:1010C000194B93F91430042B0DD100200146FFF782
:1010D000F9FC1B48FFF723FE154B4FF448729A6149
:1010E0004FF4AA621A62104B93F91430052B0CD1FD
:1010F00000200146FFF7E6FC1248FFF710FE0C4BFC
:1011000064229A614FF4FA621A62074B93F9142031
:10111000062A01D100221A7504F042FA4FF4167023
:10112000BDE80840FFF740BFDC020020FC65000876
:10113000740000200D6600081E6600082F66000877
:10114000406600085166000882B00190019A4FF095
:10115000804392B29A8500229A8409221A80198AC1
:101160004FF08042C907FAD5138A23F001031B040C
:101170001B0C138202B0704710B596B000230446D2
:10118000084610A98DF854208DF8553003F0F1FC75
:101190004FF4616001A9B4FBF0F003F01FFB10AA4B
:1011A00006AB074903F051FC06A915A80BAA03F0EA
:1011B00033FC0BA80421FFF7E7F916B010BD00BF00
:1011C000F8650008022838B51E4B09D11A881E4957
:1011D000013292B209681A8012B28A4213D310E027
:1011E000012810D11A88013A92B210041A8003D54E
:1011F000154A1268013A1A80124BB3F90020002AEE
:1012000001DA00221A8000200F4C0146FFF75AFC39
:101210000C4D234653F8040BB5F900200138801A11
:10122000112202FB0030FFF77AFDB5F90000002221
:10123000064904F00BFB206805490022BDE8384050
:1012400004F004BBDC0200205007002062660008A6
:101250006F66000810B5044600200146FFF732FC17
:101260000A4B188800B203F07FFAFFF758FD0848D0
:10127000FFF755FD022C08D1064B1A88064B12B217
:101280009A60BDE8104004F0D1B910BDBE06002040
:1012900082660008D00200202400002010B5044619
:1012A00000200146FFF70EFC0A4B188800B203F03D
:1012B0005BFAFFF734FD0848FFF731FD022C08D137
:1012C000064B1A88064B12B21A61BDE8104004F0B2
:1012D000ADB910BDBE06002082660008D202002013
:1012E0002400002010B5044600200146FFF7EAFB69
:1012F0002048FFF714FD022C3AD104F083F804F0E3
:1013000047F8044600200146FFF7DCFB1A48FFF7C8
:1013100006FD4FF4FA60FFF747FE00200146FFF795
:10132000D1FB012C1BD11548FFF7F9FC1448FFF73E
:1013300075F84FF4FA60FFF737FE124B4FF4616116
:101340001A69114B9A61114B1A695143104A116085
:101350009968104A11601A6C0F4B1A6010BD0F4843
:10136000FFF7DDFC4FF47A60BDE81040FFF71CBECC
:1013700010BD00BF91660008A2660008B3660008B1
:10138000C4660008BC000020DC02002074000020BD
:10139000F008002004090020EC080020D3660008B3
:1013A000022810B50E4C02D12369013303E0012855
:1013B00002D12369013B236100200146FFF782FB34
:1013C000206903F0D1F9FFF7AAFC0648FFF7A7FC54
:1013D00023694FF461625A43034B1A6010BD00BF8A
:1013E00074000020E4660008F0080020022810B510
:1013F000324B07D11A7D0132D2B2072A1A750BD1AE
:10140000002208E0012807D11A7D013AD2B2140661
:101410001A7501D506221A75284C94F9140028B9BA
:101420000146FFF74FFB2648FFF779FC94F914308B
:10143000012B06D100200146FFF744FB2148FFF7AE
:101440006EFC1E4C94F91430022B06D1002001468C
:10145000FFF738FB1C48FFF762FC94F91430032BAC
:1014600006D100200146FFF72DFB1848FFF757FC77
:10147000124C94F91430042B06D100200146FFF7DA
:1014800021FB1348FFF74BFC94F91430052B06D1D0
:1014900000200146FFF716FB0E48FFF740FC074B04
:1014A00093F91430062B08D100200146FFF70AFB00
:1014B0000948BDE81040FFF732BC10BDDC02002037
:1014C000E9660008FA6600080C6700081D67000856
:1014D0002D6700083E6700084E670008022810B517
:1014E0000D4C02D1A3690A3303E0012802D1A3699C
:1014F0000A3BA36100200146FFF7E4FAA0690A2332
:10150000B0FBF3F0012103F0A3F9FFF708FC034857
:10151000BDE81040FFF703BC740000201966000806
:10152000022810B50D4C02D1236A0A3303E00128CA
:1015300002D1236A0A3B236200200146FFF7C2FA68
:10154000206A0A23B0FBF3F0012103F081F9FFF7D1
:10155000E6FB0348BDE81040FFF7E1BB7400002044
:1015600019660008022810B50B4C02D1A36A01339A
:1015700003E0012802D1A36A013BA36200200146D7
:10158000FFF7A0FAA06A03F0EFF8FFF7C8FB0348E3
:10159000BDE81040FFF7C3BB740000205E67000881
:1015A000022810B50B4C02D1236B013303E0012854
:1015B00002D1236B013B236300200146FFF782FA2F
:1015C000206B03F0D1F8FFF7AAFB0348BDE81040F9
:1015D000FFF7A5BB740000205E670008022838B53D
:1015E0001A4C02D1A36B013303E0012802D1A36B93
:1015F000013BA36300200146FFF764FAA06B03F0F0
:10160000B3F8FFF78CFB1248FFF789FB206A0A2525
:101610000121B0FBF5F003F01BF9FFF780FB0D484B
:10162000FFF77DFB236AA06B64225843B0FBF2F006
:101630001B1AB3FBF5F0012103F00AF9FFF76FFB6A
:101640000548BDE83840FFF76ABB00BF74000020C2
:10165000676700086A6700081966000808B5084B44
:101660001A68084B9B689A4209D107200121FFF7AD
:1016700029FAFF200121BDE80840FFF7ABB908BDFA
:10168000040900207400002008B5084B1A68084BB4
:101690001B6C9A4209D107200121FFF713FAFF20A2
:1016A0000121BDE80840FFF795B908BDEC0800200E
:1016B0007400002010B5044600200146FFF702FA2E
:1016C000022C194B06D19A680132082A9A6009D176
:1016D000012206E0012C05D19A68013A9A600AB904
:1016E00007229A60104A9368013B062B18D8DFE85E
:1016F00003F00406080A0C0E10000C480AE00C481F
:1017000008E00C4806E00C4804E00C4802E00C48F5
:1017100000E00C48FFF703FBBDE81040FFF79EBF59
:101720000123936010BD00BF740000206D670008A6
:101730007E6700088F670008A0670008B16700088F
:10174000C2670008D367000810B5044600200146B0
:10175000FFF7B8F9022C134B06D11A6C0132042A98
:101760001A6409D1012206E0012C05D11A6C013A54
:101770001A640AB903221A640A4A136C022B05D0B0
:10178000032B05D0012B0AD1074802E0074800E0EF
:101790000748FFF7C4FABDE81040FFF775BF012303
:1017A000136410BD74000020E4670008F5670008AA
:1017B0000668000810B518481021FFF784FB80B1B7
:1017C00015482021FFF77FFB68B113484021FFF740
:1017D0007AFB50B110488021FFF775FBC0B9042295
:1017E00004E0032202E0022200E001220B4B40F25F
:1017F000DC50998B0CB2844203DD40F2B4519983E2
:1018000004E0013189B21429998304D19A7710BD7B
:10181000024B00229A8310BD000C0140DC02002024
:10182000034B0022987F00B11A629A77704700BF7D
:10183000DC02002038B526480121FEF713FD002800
:1018400044D001212248FEF718FD224B1A8812B21B
:10185000012A07DC204CE568188800B203F0CDF8B7
:101860004519E5601B4B1A8812B2022A07DD1A4C93
:101870006568188800B203F0C0F845196560164B1A
:1018800093F82420012A02D19A6801329A6093F8D1
:101890002530114A012B02D11369013313610E4B1C
:1018A00093F82620012A02D19A6A01329A62DA6AF2
:1018B0000132DA62DB6A13F0010F084B03D14FF4F7
:1018C00000421A6138BD4FF000421A6138BD00BFB6
:1018D00000440140BE060020DC0200200008014058
:1018E000034B00229A62012283F82620704700BF32
:1018F000DC020020034B00229A62012283F826209A
:10190000704700BFDC02002038B504464FF4616028
:10191000B4FBF0F002F028FF054603F074F801284C
:1019200003D812480121FFF719F901212846FFF7D2
:1019300015F901210E48FFF711F93C23B4FBF3F42C
:10194000B4FBF3F003FB104002F00EFF044603F07B
:101950005AF8012803D805480121FFF7FFF820466F
:101960000121BDE83840FFF7F9B800BF176800084B
:1019700021590008074B4FF480321A614FF08072F2
:10198000A3F580631A61044B002283F8302083F8AA
:1019900031207047000C0140DC020020064A012380
:1019A0001361064A82F8303082F83130044B4FF42C
:1019B00080721A61704700BF000C0140DC020020F9
:1019C0000008014038B52D4B0122054683F832202E
:1019D000FFF7E4FF022D2A4C02D12388013303E0F4
:1019E000012D02D12388013B238000200146FFF70F
:1019F00069F80221208802F02BFFFFF790F92148B7
:101A0000FFF78DF9204B214A1888138880B21BB24A
:101A1000002B21881E4B01DC46220AE0401A118867
:101A200002B222EAE27242F21070424309B292FB21
:101A3000F1F2174C1A64206C02F096FEFFF76FF972
:101A40001448FFF76CF9144B19880F4B89B21A88A8
:101A50000E4B92B2188800B2002801DC0A230AE07B
:101A6000891A1A880BB223EAE37342F210714B43CE
:101A700012B293FBF2F3A36438BD00BFDC02002076
:101A80006C0200206A670008D4020020BE06002015
:101A90002400002019680008B806002038B5174B4C
:101AA0000122054683F83220FFF778FF022D144CFF
:101AB00002D1A36B013303E0012D02D1A36B013BE3
:101AC000A36300200146FEF7FDFFA06B02F04CFE71
:101AD000FFF725F90B48FFF722F900200121FEF757
:101AE000F1FF094B0221188880B202F0B1FEFFF726
:101AF00016F90648BDE83840FFF711B9DC020020AE
:101B00002400002002680008BC06002024680008A9
:101B100038B5174B0122054683F83220FFF73EFF08
:101B2000022D144C02D1236B013303E0012D02D1AD
:101B3000236B013B236300200146FEF7C3FF206BAC
:101B400002F012FEFFF7EBF80B48FFF7E8F8002071
:101B50000121FEF7B7FF094B0221188880B202F07D
:101B600077FEFFF7DCF80648BDE83840FFF7D7B846
:101B7000DC0200202400002002680008C0060020CB
:101B80002468000838B5174B0122054683F8322037
:101B9000FFF704FF022D144C02D1A36A013303E0C6
:101BA000012D02D1A36A013BA36200200146FEF78A
:101BB00089FFA06A02F0D8FDFFF7B1F80B48FFF7E4
:101BC000AEF800200121FEF77DFF094B02211888A5
:101BD00080B202F03DFEFFF7A2F80648BDE83840AB
:101BE000FFF79DB8DC0200202400002002680008F6
:101BF000B80600202468000838B5174B01220546B6
:101C000083F83220FFF7CAFE022D144C02D1A369DB
:101C1000013303E0012D02D1A369013BA361002040
:101C20000146FEF74FFFA06902F09EFDFFF777F82F
:101C30000B48FFF774F801210020FEF743FF094B22
:101C4000188800B202F090FDFFF769F80648BDE879
:101C50003840FFF764B800BFDC02002024000020F9
:101C600002680008BE0600202868000810B50A4C6B
:101C70006368022B03D1FFF791FE01236360636861
:101C8000032B07D1054B9C69012C03D1FFF786FE7E
:101C9000014B5C6010BD00BF6C020020BC00002046
:101CA00070B52D4D06460124002085F832400146CE
:101CB000FEF708FF95F83050F5B9284B0221188837
:101CC00080B202F0C5FDFFF72AF82548FFF727F894
:101CD00029460720FEF7F6FE224B188800B202F0D4
:101CE00043FDFFF71CF82048FFF719F805202146AF
:101CF000FEF7E8FE1D481DE01D4B0221188880B24A
:101D000002F0A6FDFFF70BF81548FFF708F80021D1
:101D10000720FEF7D7FE134B188800B202F024FD0F
:101D2000FEF7FDFF1348FEF7FAFF06202146FEF7F7
:101D3000C9FE1148FEF7F3FF022E08D1064B93F8B7
:101D4000303013B9FFF72AFE01E0FFF713FEBDE8BC
:101D50007040FFF78BBF00BFDC020020B8060020F8
:101D600024680008BE0600202D680008526800089C
:101D7000C0060020336800083A680008064B0222BB
:101D80001A61064B012283F8302083F83320044B7C
:101D90004FF400621A617047000C0140DC02002021
:101DA0000008014010B50B4C94F93430022B10D0D0
:101DB000022384F83430FFF7DDFDFFF7DFFF002357
:101DC0003220A363FFF7C0F90348BDE8104003F0D9
:101DD000FDBC10BDDC0200203E68000808B5FFF71E
:101DE000C9FDFFF7CBFF3220BDE80840FFF7ACB9D3
:101DF00038B5174B0122054683F83220FFF7EEFF76
:101E0000022D144C02D1236A013303E0012D02D1CB
:101E1000236A013B236200200146FEF753FE206A3D
:101E200002F0A2FCFEF77BFF0B48FEF778FF0121D2
:101E30000020FEF747FE094B188800B202F094FC20
:101E4000FEF76DFF0648BDE83840FEF768BF00BFEB
:101E5000DC0200202400002002680008BE060020EA
:101E600028680008074B4FF400321A61064B002225
:101E700083F8302083F83320044B4FF000621A615E
:101E8000704700BF000C0140DC0200200008014048
:101E900008B5FFF7E7FFBDE80840FFF76BBD00009E
:101EA000304B30B51B8891B09BB2B3F5E16F54D283
:101EB0002D4DEB6A062B50D92C4B2D4C9B6803F013
:101EC0000103A361FFF7E4FF2A4B1A7A002A47D1E6
:101ED00001221A72EB68236103F026FB02222069BB
:101EE000254903F0B3FCEA6849F6AF239A4214D9B6
:101EF0000BA9286902F03DFE20694FF46163B0FB35
:101F0000F3F001A902F06AFC1C490BAA06AB02F02F
:101F10009CFD06A80221FEF737FB124D0A232888F4
:101F200001A980B2B0FBF3F0012202F0FBFC06AA8B
:101F30000146134802F070FDFEF770FA322428883B
:101F4000104980B20222013C03F080FCE4B20A2076
:101F5000FFF72AF8002CF2D102E0064B00221A7299
:101F600011B030BDBC060020DC020020000C014096
:101F7000BC0000206C02002048680008F8650008DA
:101F80004D6800085768000808B509480121FEF7A8
:101F900069F958B106480121FEF76FF9FFF70AFC0D
:101FA000FFF77EFF034B9A6B01329A6308BD00BFB7
:101FB00000140040DC02002038B5844B012193F866
:101FC0003C20054683F832104AB983F8242083F870
:101FD0003C1083F8252083F83D20DA601A617C4BA1
:101FE0007C491A88896992B2784B8A42DA8701D390
:101FF000002205E093F83D200AB9DA6A1A6401224A
:1020000083F83D20DA6A1B6C704CD31A032B07D976
:1020100094F83D3023B1FFF73BFF002384F82530CF
:10202000022D6A4C0CD194F830301BB9FFF7D6FE64
:10203000012302E0FFF72CFF002384F825300CE099
:10204000012D0AD194F84430013BDBB21D0684F81F
:10205000443002D5032384F844305C4C94F94400A6
:10206000002835D10146FEF72DFD594B0221188875
:1020700080B202F0EDFBFEF752FE5748FEF74FFE2E
:10208000564B188800B202F06FFBFEF748FE54482A
:10209000FEF745FE94F8303013B90720012105E022
:1020A00094F8453007200121052B03D8FEF70AFDDF
:1020B000022002E0FEF706FD03200121FEF7FEFCF0
:1020C000424B93F845200A2A02D9002283F8452082
:1020D0003E4B93F94440012C13D100200146FEF7FA
:1020E000F1FC4048FEF71BFE3A4B214698690A2353
:1020F000B0FBF3F002F0ACFBFEF711FE3A48FEF73E
:102100000EFE324C94F94430022B1AD100200146C5
:10211000FEF7D8FC3548FEF702FE354B98684FF4C1
:102120006163B0FBF3F002F01FFBFEF7F8FD3148EE
:10213000FEF7F5FD03200121FEF7C4FCA06CFFF7BC
:10214000E3FB224C94F94450032D19D100200146A1
:10215000FEF7B8FC2848FEF7E2FDE0684FF4616343
:10216000B0FBF3F002F000FBFEF7D9FD2348FEF7C9
:10217000D6FD28460121FEF7A5FC2069FFF7C4FB28
:10218000124C002294F83C001D4903F05FFB94F8C8
:10219000320000221B4903F059FB94F8240000226E
:1021A000194903F053FBA0680022184903F04EFBC5
:1021B00094F825000022164903F048FB20691549D0
:1021C0000022BDE8384003F041BB00BFDC02002024
:1021D000C0060020740000206A670008BE060020C8
:1021E0005F680008686800081966000874680008DD
:1021F000BC000020776800083B6800088068000881
:102200008968000897680008AC680008C168000881
:10221000D1680008E968000810B50B4C94F9343017
:10222000012B10D0012384F83430FFF71BFEFFF799
:10223000B5FB00233220A363FEF786FF0348BDE809
:10224000104003F0C3BA10BDDC0200204168000852
:1022500070B5044600200146FEF734FC6F4B0122A6
:1022600093F83C1083F832201E4619B983F83C20BD
:10227000FFF736FBB26A6A4E684DB36A9A4211D8CC
:10228000FFF7CAFF674B1A88336A92B29A4209D99C
:10229000AB6BB3F5C87F05D9FFF72CFBAA6AB36A0D
:1022A000D318AB625D4D5E4EAA6AB36A9A420DD9ED
:1022B000FFF778FD5B4B1A88B36992B29A4205D258
:1022C000AB6BB3F5C87F01D9FFF714FB544BAA6A77
:1022D000196B9B6ACB189A4201D9FFF70BFB022CB2
:1022E0004E4B09D193F844200132D2B2032A83F82D
:1022F00044200ED100220AE0012C0AD193F8442098
:10230000013AD2B283F84420120602D5022283F8A1
:102310004420424D95F94440002C32D120462146BC
:10232000FEF7D0FB3F4B0221188880B202F090FAF2
:10233000FEF7F5FC3C48FEF7F2FC3C4B188800B277
:1023400002F012FAFEF7EBFC3948FEF7E8FC062033
:102350000121FEF7B7FB05200121FEF7AFFB95F841
:1023600031500720012D05D12946FEF7ABFB204651
:10237000294604E00121FEF7A5FB02200121FEF71A
:102380009DFB264B93F94440012C23D10020244D82
:102390000146FEF797FB286902F0E6F9FEF7BFFC5D
:1023A0002448FEF7BCFCA8690A262146B0FBF6F0DB
:1023B00002F04EFAFEF7B3FC1B48FEF7B0FC286AA9
:1023C0002146B0FBF6F002F043FAFEF7A8FC1A48EB
:1023D000FEF7A5FC114C94F94430022B1DD10020CE
:1023E0000F4D0146FEF76EFBA86A02F0BDF9FEF73D
:1023F00096FC1248FEF793FC286B02F0B5F9FEF745
:102400008EFC0F48FEF78BFC03200121FEF75AFBE0
:102410002069BDE87040FFF777BA70BDDC0200208C
:1024200074000020C00600206A670008BE06002075
:10243000FC680008B06C00085B660008AB69000827
:102440000469000870B5784B054693F83240002CBB
:102450003CD1764B1A88764B92B21B6A05339A426E
:1024600015D221462046FEF72DFB7248FEF757FC99
:102470004FF4FA60FEF768FE20462146FEF722FB85
:102480006D48FEF74CFC40F6B830FEF75DFE664B3B
:102490000024012683F8326083F8244083F8254025
:1024A0009C601C619C645C60DC6083F82460FFF7C6
:1024B000B3FE624B20465E722146FEF703FB604886
:1024C000FEF72DFC4FF47A70FEF73EFE5D4B188848
:1024D00000B202F092FA052840F369815A4B1A883B
:1024E000534B92B29B699A421DD2544B5A7A022A9C
:1024F00019D14D4CA36BB3F57A7F14D9002384F81E
:102500002530E168514B994203D9E0682169FEF713
:1025100033FE00230126A360636084F82460FFF784
:102520007BFE464B5E72484B1A88414B92B21B6A47
:102530009A423D4B07D9414A527A012A03D19A6BFC
:10254000B2F57A7F08D89A68414B1B689A4220D925
:102550003A4B5B7A012B1CD1334C002384F8243096
:1025600062683A4B9A4204D960680122A168FEF77A
:1025700003FE2369A364E268364B9A60002323615B
:10258000E360012384F82530FFF70CFC2B4B02227B
:102590005A72022D244B09D193F844200132D2B251
:1025A000052A83F844200ED100220AE0012D0AD129
:1025B00093F84420013AD2B2110683F8442002D5A0
:1025C000042283F84420184D95F94440002C4ED144
:1025D00020462146FEF776FA1B4B0221188880B26E
:1025E00002F036F9FEF79BFB1B48FEF798FB154BF4
:1025F000188800B202F0B8F8FEF791FB1748FEF712
:102600008EFB06200121FEF75DFA04200121FEF772
:1026100055FA95F831500720012D21D12946FEF7B2
:1026200051FA2046294620E0DC020020B8060020AE
:10263000740000200C6900081D6900086C0200206D
:102640002E690008BE060020C00600204F8C050041
:10265000F0080020BC0000206A670008FC68000841
:102660000121FEF72FFA02200121FEF727FA6A4B1B
:1026700093F94440012C23D10020684D0146FEF718
:1026800021FA286902F070F8FEF749FB6448FEF76A
:1026900046FBA8690A262146B0FBF6F002F0D8F8FE
:1026A000FEF73DFB5F48FEF73AFB286A2146B0FB88
:1026B000F6F002F0CDF8FEF732FB5B48FEF72FFB99
:1026C000554C94F94450022D21D100200146FEF7CB
:1026D000F9F928460121FEF7F1F900210120FEF762
:1026E000F1F95248FEF71BFBE0684FF46163B0FB61
:1026F000F3F002F039F8FEF712FB4D48FEF70FFB3E
:1027000003200121FEF7DEF92069FFF7FDF8424CB6
:1027100094F94450032D21D100200146FEF7D2F94F
:1027200000200121FEF7CAF900210120FEF7CAF9B5
:102730003E48FEF7F4FA60684FF46163B0FBF3F0D3
:1027400002F012F8FEF7EBFA3948FEF7E8FA2846ED
:102750000121FEF7B7F9A068FFF7D6F82E4C94F9DF
:102760004430042B2FD100200146FEF7ABF90220A4
:102770000121FEF7A3F900210120FEF7A3F92D485E
:10278000FEF7CDFA2C4B98684FF46163B0FBF3F081
:1027900001F0EAFFFEF7C3FA2848FEF7C0FA03206B
:1027A0000121FEF78FF9A06CFFF7AEF80BE01A4B92
:1027B0009B6BB3F57A7F06D900200146FEF782F9BC
:1027C0001F48FEF7ACFA144C002294F832001D4961
:1027D00003F03CF894F8240000221B4903F036F87B
:1027E000A0680022194903F031F8606800221849F6
:1027F00003F02CF894F825000022164903F026F87F
:1028000020690022144903F021F8E06813490022EE
:10281000BDE8704003F01AB8DC020020740000200C
:10282000B06C00086A6700085B660008046800086E
:102830003F69000874680008BC0000208068000838
:102840004969000897680008AC680008C16800087A
:102850005A690008D1680008E96800087269000830
:10286000F8B5934B054693F83240002C3ED1914B7E
:102870001A88914B92B21B6A05339A4215D22146AF
:102880002046FEF71FF98D48FEF749FA4FF4FA602B
:10289000FEF75AFC20462146FEF714F98848FEF759
:1028A0003EFA40F6B830FEF74FFC814C0027012677
:1028B00084F8326084F8247084F82570A76027615A
:1028C000A7646760E76084F82460FFF7A5FC7D4B90
:1028D00039465E723846FEF7F5F87B48FEF71FFA78
:1028E0004FF47A70FEF730FC84F84C60704C94F929
:1028F0004C30032B00F3D080744B188800B202F0E8
:102900007CF8052840F3BB80714B1A886A4B92B261
:102910009B699A4227D26B4B5A7A022A23D1A36B26
:10292000B3F57A7F1FD9002384F82530E168694B1D
:10293000994203D9E0682169FEF71EFC5C4C012630
:102940002369A364E268644B84F824609A600023DE
:102950006360A360FFF760FC94F84C309B1984F827
:102960004C30584B5E725A4B1A88534B92B21B6ACA
:102970009A424F4B07D9534A527A012A03D19A6B94
:10298000B2F57A7F08D89A68544B1B689A4224D9CA
:102990004C4B5B7A012B20D1454C94F94C30022BE7
:1029A0001BDC002384F8243062684A4B9A4204D925
:1029B00060680122A168FEF7DFFB012384F825305F
:1029C0000023E3602361FFF7EDF994F84C30022215
:1029D000013384F84C303B4B5A723D4B1A88364BCE
:1029E00092B21B6A9A42324B07D9364A527A012A6E
:1029F00003D19A6BB2F57A7F08D89A68374B1B6877
:102A00009A4221D92F4B5B7A012B1DD1284C94F986
:102A10004C30022B18DDFFF73BFA002384F82430FA
:102A200084F8253062682B4B9A4204D960680122F1
:102A3000A168FEF7A1FB1E4B93F84C20013283F8EE
:102A40004C20022283F84420022D194B09D193F81F
:102A500044200132D2B2042A83F844204FD100220C
:102A60000AE0012D4BD193F84420013AD2B214066A
:102A700083F8442043D5032283F844203FE0A36B2E
:102A8000B3F57A7F40F2EA8000200146FEF71AF89B
:102A90001348FEF744F9E1E0022D23D194F84430C5
:102AA0000133DBB2042B84F8443028D1002324E026
:102AB000DC020020B8060020740000200C69000829
:102AC0001D6900086C0200202E690008BE06002067
:102AD000C00600204F8C0500BC000020F00800203C
:102AE00049690008012D0AD194F84430013BDBB25A
:102AF000180684F8443002D5032384F844306C4D22
:102B000095F94440002C32D120462146FDF7DAFFEA
:102B1000684B0221188880B201F09AFEFEF7FFF898
:102B20006548FEF7FCF8654B188800B201F01CFE02
:102B3000FEF7F5F86248FEF7F2F806200121FDF7EE
:102B4000C1FF04200121FDF7B9FF95F8315007209E
:102B5000012D05D12946FDF7B5FF2046294604E0A1
:102B60000121FDF7AFFF02200121FDF7A7FF504B28
:102B700093F94440012C23D10020524D0146FDF72A
:102B8000A1FF286901F0F0FDFEF7C9F84E48FEF7F5
:102B9000C6F8A8690A262146B0FBF6F001F058FEF7
:102BA000FEF7BDF84448FEF7BAF8286A2146B0FBA4
:102BB000F6F001F04DFEFEF7B2F84448FEF7AFF82C
:102BC0003B4C94F94450022D21D100200146FDF7E1
:102BD00079FF28460121FDF771FF00210120FDF753
:102BE00071FF3B48FEF79BF8E0684FF46163B0FB70
:102BF000F3F001F0B9FDFEF792F83648FEF78FF8D2
:102C000003200121FDF75EFF2069FEF77DFE284CC1
:102C100094F94450032D21D100200146FDF752FFC5
:102C200000200121FDF74AFF00210120FDF74AFFA6
:102C30002748FEF774F860684FF46163B0FBF3F067
:102C400001F092FDFEF76BF82248FEF768F828467F
:102C50000121FDF737FFA068FEF756FE144C002255
:102C600094F832001C4902F0F1FD94F8240000228F
:102C70001A4902F0EBFDA0680022194902F0E6FDB6
:102C800060680022174902F0E1FD94F82500002257
:102C9000154902F0DBFD20690022144902F0D6FD3F
:102CA000E06813490022BDE8F84002F0CFBD00BF44
:102CB000DC020020C00600206A670008BE06002073
:102CC000FC68000874000020B06C00085B66000817
:102CD000046800083F69000897680008AC680008AD
:102CE000C16800085A690008D1680008E96800084E
:102CF0007269000808B5FFF7B5F8FEF74FFE3220FD
:102D0000BDE80840FEF720BA38B5AF4B012293F872
:102D10003C40054683F8322044BBAC4B1A88AC4B90
:102D200092B21B6A05339A4215D221462046FDF71E
:102D3000C9FEA848FDF7F3FF4FF4FA60FEF704FA66
:102D400020462146FDF7BEFEA348FDF7E8FF40F60A
:102D5000B830FEF7F9F99C4B0022012183F82420BA
:102D600083F83C1083F825205A609A60964C9B4B60
:102D7000A2681B689A4206D89949954A0888136A3E
:102D800080B2984203D9FFF783F800230CE0926BDE
:102D900064205A430988B2FBF0F289B29B1A994227
:102DA00004D2FFF7A7FF012384F82430FEF75EFF6B
:102DB000022D854C0CD194F830301BB9FFF79AFFE7
:102DC000012302E0FFF764F8002384F824300CE0CC
:102DD000012D0AD194F84430013BDBB21D0684F882
:102DE000443002D5032384F84430774C94F94400EE
:102DF000002852D10146FDF765FE94F83030A3B9A2
:102E0000724B0221188880B201F022FDFDF787FF86
:102E10007448FDF784FF724B0221188880B201F0DC
:102E200017FDFDF77CFF704812E06D4B02211888FA
:102E300080B201F00DFDFDF772FF6A48FDF76FFFEC
:102E40006A4B188800B201F08FFCFDF768FF6848F4
:102E5000FDF765FF5C4B93F830402CB9072001214A
:102E6000FDF730FE204608E093F8453007200121A9
:102E7000052B04D8FDF726FE0020012103E0FDF715
:102E800021FE01200146FDF719FE4F4B93F8452026
:102E90000A2A02D9002283F845204B4B93F944407B
:102EA000012C1BD100200146494DFDF70BFE514876
:102EB000FDF735FF286901F057FCFDF730FF4E485C
:102EC000FDF72DFF286A0A23B0FBF3F0214601F03D
:102ED000BFFCFDF724FF4448FDF721FF3A4B93F96F
:102EE0004430022B29D13A4C00200146FDF7EAFD7F
:102EF000A06B01F039FCFDF712FF4048FDF70FFF12
:102F0000206A0A250121B0FBF5F001F0A1FCFDF7D4
:102F100006FF3448FDF703FF236AA06B6422584381
:102F2000B0FBF2F01B1AB3FBF5F0012101F090FCAD
:102F3000FDF7F5FE2C48FDF7F2FE234C94F94450C2
:102F4000032D19D100200146FDF7BCFD2C48FDF7EB
:102F5000E6FE60684FF46163B0FBF3F001F004FC3F
:102F6000FDF7DDFE2748FDF7DAFE28460121FDF7D3
:102F7000A9FDA068FEF7C8FC134C6420FEF714F806
:102F800094F83C000022204902F060FC94F83200E2
:102F900000221E4902F05AFC94F8240000221C4929
:102FA00002F054FCA06800221A4902F04FFC94F889
:102FB00025000022184902F049FC20691749002227
:102FC000BDE8384002F042BCDC020020B806002018
:102FD000740000200C6900081D690008F00800203A
:102FE000C00600206A67000819660008BE060020B7
:102FF0005F6800082E590008946900086767000898
:103000009C690008806800088968000897680008C3
:10301000AC680008C1680008D1680008E9680008C9
:1030200038B5904B012293F83C40054683F8322096
:1030300044BB8D4B1A888D4B92B21B6A05339A4262
:1030400015D221462046FDF73DFD8948FDF767FE74
:103050004FF4FA60FEF778F820462146FDF732FD7E
:103060008448FDF75CFE40F6B830FEF76DF87D4B06
:103070000022012183F8242083F83C1083F82520C6
:103080005A609A60774B9A687B4B1B689A4206D8C5
:103090007A4B1A88754B92B21B6A9A4205D9FEF791
:1030A000F7FE704B002283F82420FEF7DFFD022D8F
:1030B0006C4C0CD194F830301BB9FFF71BFE012388
:1030C00002E0FEF7E5FE002384F824300CE0012D39
:1030D0000AD194F84430013BDBB284F844301B063B
:1030E00002D5022384F844305E4C94F94400002851
:1030F00052D10146FDF7E6FC94F83030A3B95A4BA3
:103100000221188880B201F0A3FBFDF708FE5C489D
:10311000FDF705FE594B0221188880B201F098FB9B
:10312000FDF7FDFD574812E0544B0221188880B28C
:1031300001F08EFBFDF7F3FD5148FDF7F0FD524B1A
:10314000188800B201F010FBFDF7E9FD4F48FDF7CC
:10315000E6FD444B93F830402CB907200121FDF7E0
:10316000B1FC204608E093F8453007200121052BEB
:1031700004D8FDF7A7FC0020012103E0FDF7A2FC25
:1031800001200146FDF79AFC364B93F845200A2AA8
:1031900002D9002283F84520324B93F94440012C98
:1031A0001BD100200146314DFDF78CFC3848FDF75E
:1031B000B6FD286901F0D8FAFDF7B1FD3548FDF7F5
:1031C000AEFD286A0A23B0FBF3F0214601F040FB74
:1031D000FDF7A5FD3048FDF7A2FD224C94F94430DF
:1031E000022B19D100200146FDF76CFC2B48FDF79E
:1031F00096FD60684FF46163B0FBF3F001F0B4FA40
:10320000FDF78DFD2648FDF78AFD03200121FDF71E
:1032100059FCA068FEF778FB124C002294F83C00A1
:10322000204902F013FB94F8320000221E4902F0FC
:103230000DFB94F8240000221C4902F007FBA06853
:1032400000221B4902F002FB94F8250000221949D4
:1032500002F0FCFA206918490022BDE8384002F06B
:10326000F5BA00BFDC020020B80600207400002080
:103270000C6900081D690008F0080020C006002045
:103280006A6700085B660008BE060020FC6800084C
:103290002E59000894690008196600089C69000806
:1032A000776800088968000897680008AC6800081B
:1032B000C1680008D1680008E9680008F0B5A84BAB
:1032C0000122022887B083F8322009D193F84D20DB
:1032D0000132D2B2082A83F84D200ED100220AE032
:1032E00001280AD193F84D20013AD2B283F84D203B
:1032F000120602D5072283F84D20994B93F94D40D1
:103300000CBBFEF7C5FD21462046FDF7DBFB9548CB
:10331000FDF705FD944B012118880A2380B2B0FB0C
:10332000F3F001F095FAFDF7FAFC9048FDF7F7FC91
:103330008F4B0221188880B201F08AFAFDF7EFFC6A
:103340008C48FDF7ECFC864B93F94D30012B1DD1D9
:10335000FEF79EFD00200146FDF7B4FB8648FDF711
:10336000DEFC864B0221188880B201F071FAFDF76D
:10337000D6FC8348FDF7D3FC824BD88880B201F09D
:10338000F3F9FDF7CCFC8048FDF7C9FC744B93F9C9
:103390004D40022C1DD1FEF701FB00200146FDF738
:1033A00091FB7A48FDF7BBFC794B2146188880B227
:1033B00001F04EFAFDF7B3FC7148FDF7B0FC714B1C
:1033C000988880B201F0D0F9FDF7A9FC6E48FDF7AE
:1033D000A6FC634B93F94D30032B1ED1FEF742FD43
:1033E000FEF7DCFA00200146FDF76CFB6948FDF7AB
:1033F00096FC694B188800B201F0B6F9FDF78FFC16
:103400006648FDF78CFC5F4B588880B201F0ACF940
:10341000FDF785FC5C48FDF782FC514B93F94D307C
:10342000042B1ED1FEF7A6FAFEF7A8FC00200146E9
:10343000FDF748FB5A48FDF772FC5A4B188800B25A
:1034400001F092F9FDF76BFC5448FDF768FC4D4B19
:10345000188880B201F088F9FDF761FC5248FDF749
:103460005EFC3F4B93F94D30052B3DD1434D4F4C06
:10347000FEF7F8FCFEF792FA2988238889B29BB2FE
:10348000454FCB1A42F210714B433A88484E12B264
:10349000002093FBF2F30146B364FDF713FB4548AC
:1034A000FDF73DFC306C01F05FF9FDF738FC424858
:1034B000FDF735FCB06C01F057F9FDF730FC3F48E3
:1034C000FDF72DFC38883E4900B2002202F0BEF91B
:1034D00028883C4980B2022202F0B8F920883A4993
:1034E00080B2022202F0B2F91D4C94F94D30062B45
:1034F0000ED1FEF7CDFC00200146FDF7E3FA01A94D
:10350000E06A01F0C5FAFDF70AFC3048FDF707FC58
:10351000134B93F94D30072B1FD1FEF7A3FCFEF799
:103520003DFA00200146FDF7CDFA2948FDF7F7FBEB
:10353000284B1868FCF74EFF01F016F9FDF7EFFB7A
:103540002548FDF7ECFB0F4B588980B201F00CF9D0
:10355000FDF7E5FB0748FDF7E2FB07B0F0BD00BF54
:10356000DC0200209F690008BC060020A469000856
:10357000BA06002001680008A9690008B806002002
:103580006A670008F4080020FF670008AE690008B9
:10359000C0060020B4690008BE060020BA69000811
:1035A000BE690008D2020020FE670008D402002095
:1035B00024000020C4690008C7690008CC6900081D
:1035C000D4690008D8690008DF690008FD670008B1
:1035D000E7690008C8020020EA69000870B52F4DAD
:1035E00006460124002085F832400146FDF76AFABC
:1035F00095F83050F5B92A4B0221188880B201F0B5
:1036000027F9FDF78CFB2748FDF789FB29460720A2
:10361000FDF758FA244B188800B201F0A5F8FDF721
:103620007EFB2248FDF77BFB05202146FDF74AFA89
:103630001F481DE01F4B0221188880B201F008F9D5
:10364000FDF76DFB1748FDF76AFB00210720FDF72A
:1036500039FA154B188800B201F086F8FDF75FFBC8
:103660001548FDF75CFB06202146FDF72BFA1348B1
:10367000FDF755FB022E0FD1084B93F830302BB9D4
:10368000FEF78CF9BDE87040FEF778BBFEF772F9E3
:10369000BDE87040FEF7E6BB70BD00BFDC02002055
:1036A000B806002024680008BE0600202D68000827
:1036B00052680008C0060020336800083A68000815
:1036C00008B5274B0122022883F8322007D193F84E
:1036D000303013B9FEF752FB01E0FEF7C3FB0020C8
:1036E0000146FDF7EFF91F4B0221188880B201F067
:1036F000AFF8FDF714FB1C48FDF711FB1B4B1888B6
:1037000000B201F031F8FDF70AFB1948FDF707FB9D
:10371000134B93F8302012B90620012105E093F8ED
:10372000453006200121052B07D8FDF7CBF90220F3
:103730000121FDF7C3F9022006E0FDF7C3F90320DC
:103740000121FDF7BBF903200121FDF7B7F9044B77
:1037500093F845200A2A02D9002283F8452008BDA3
:10376000DC020020C00600206A670008BE060020B8
:10377000336800082DE9F04100F09EFEAA4B4FF49B
:103780000042AA4D1A610024FEF782FBA8482C6073
:10379000FDF7C5FAFDF70FFA21462046FDF792F92D
:1037A0004FF4FA60FDF700FC01F034FB2B68172B97
:1037B00088BF2C6001F0ECFD80B94FF47A70FDF702
:1037C000F3FB01F0E5FD48B99A48FDF7A8FA4FF47C
:1037D0007A60FDF7E9FB9848FCF720FE974B984C80
:1037E0001A69984B98489A6123694FF461625A4369
:1037F000964B1A60A268964B1A60236C954A4360F8
:1038000013600A3001F0E2FFFCF772FFFCF760FD85
:10381000FDF741F99048FCF7A3FCA368012B17D0F2
:10382000022B01D18D4814E0032B01D18C4810E00C
:10383000042B01D18B480CE0052B01D18A4808E00C
:10384000062B01D1894804E0072B01D1884800E00C
:103850008848FCF76DFC7B4D874F864E95F84530C8
:10386000013385F84530FDF7DBFF0446B86883492E
:1038700000F00100002201F0E9FF631E032B17D8BE
:10388000DFE803F002060A11FCF74CFC40680DE08B
:10389000FCF748FC006809E00220FCF76BFCFCF731
:1038A00041FCC06802E0FCF73DFC8068FCF740FC8E
:1038B000FCF738FCB04203D12046FEF7F1F948E1AD
:1038C000FCF730FCDFF89481404503D12046FFF738
:1038D000F7FE3EE1FCF726FC08F12C03984203D1E9
:1038E0002046FFF79DFB34E1FCF71CFC08F1580370
:1038F000984203D12046FFF707FA2AE1FCF712FCB1
:1039000008F18403984203D12046FEF755FB20E1DD
:10391000FCF708FC08F58473984203D12046FEF7B3
:103920009FFF16E1FCF7FEFB08F1B003984203D1BC
:103930002046FEF787FD0CE1FCF7F4FB08F1DC0301
:10394000984203D12046FEF783FC02E1FCF7EAFB34
:1039500008F59A73984203D12046FFF73FFEF8E03E
:10396000FCF7E0FB08F5B078404503D12046FFF7AF
:10397000A5FCEEE0FCF7D6FBDFF80481404503D15F
:103980002046FDF71FFCE4E0FCF7CCFB08F12C031C
:10399000984203D12046FDF781FCDAE0FCF7C2FB38
:1039A00008F15803984203D12046FDF753FCD0E0BC
:1039B000FCF7B8FB08F18403984203D12046FEF7D8
:1039C00017FAC6E0FCF7AEFB08F1B003984203D14A
:1039D0002046FEF711F9BCE0FCF7A4FB08F1DC037C
:1039E000984203D12046FEF759F8B2E0FCF79AFB63
:1039F00008F1F803984203D12046FEF789F8A8E0C1
:103A0000FCF790FB08F59273984203D12046FEF72D
:103A1000B9F89EE0FCF786FB08F5A873984231D10F
:103A20002046FDF7CFFF94E000080140500700203A
:103A300076020020EF690008006A0008BC00002040
:103A400074000020DC0200206C020020F00800203E
:103A500004090020EC080020F90E0008985B00081B
:103A6000C45B0008F05B00081C5C0008485C0008B0
:103A7000745C00086C5B0008000C01400E6A0008D2
:103A8000245D0008FCF74EFB08F5B678404503D1ED
:103A90002046FDF727FC5CE0FCF744FBDFF8E880FC
:103AA000404503D12046FDF77BFC52E0FCF73AFB92
:103AB00008F12C03984203D12046FDF797FC48E01B
:103AC000FCF730FB08F15803984203D12046FDF77C
:103AD00005FD3EE0FCF726FB08F18403984203D184
:103AE0002046FDF71DFD34E0FCF71CFB08F1B00398
:103AF000984203D12046FDF735FD2AE0FCF712FB82
:103B000008F1DC03984203D12046FDF749FD20E08F
:103B1000FCF708FB08F58473984203D12046FDF7B3
:103B20005DFD16E0FCF7FEFA08F59A73984203D1A2
:103B30002046FDF7BFFD0CE0FCF7F4FA08F5B0787D
:103B4000404503D12046FDF7FFFD02E0002385F844
:103B5000323095F832407CB9FEF79AF9EA68084BA2
:103B600085F83C409A602B690122AB64054B85F8CF
:103B7000444085F834405A606420FDF7E5FA6DE66C
:103B8000BC0000206C020020AC5E000870B592B052
:103B90007E2312A9002621F8043D48488DF847608D
:103BA000FDF73CF901214FF4007000F04BFB0120C0
:103BB000014600F03BFB424B082502934FF4806323
:103BC000089380230693202309933E4B3E4801939C
:103BD0004FF48073079301A94FF400530A9304959F
:103BE00003960B96059601F00FF80121364801F077
:103BF00029F84FF4004000F0C7FA01244FF4602385
:103C000032480CA90E938DF835400F960C968DF81E
:103C100040508DF8344000F073FC07232B482146B8
:103C2000224600F0BEFC02210A460723274800F086
:103C3000B8FC03210A460723244800F0B2FC042103
:103C40000A460723214800F0ACFC05210A46072359
:103C50001E4800F0A6FC06210A4607231B4800F078
:103C6000A0FC204600F0ECFC072213461748112167
:103C700000F097FC2A4604231448102100F091FC20
:103C80001248214600F060FC1048214600F065FC17
:103C90000E4800F06BFC0D4800F06DFC0028FAD1D6
:103CA0000A4800F06CFC094800F06EFC0028FAD1CC
:103CB0000648012100F06CFC12B070BD0008014004
:103CC000F40800204C240140080002400024014078
:103CD0001FB50121022000F0C1FA104C01A8FCF729
:103CE000A3FA45F6BF53ADF804302046052301A9D9
:103CF000ADF80830FCF74EFA01210A462046FCF7E1
:103D0000A8FA20460121FCF798FA054B4FF0005223
:103D10001A60202283F81D231FBD00BF000400404D
:103D200000E100E0224A234B91682DE9F04108317F
:103D30009160C91A002808BF0120A729C8BF936055
:103D4000936812681E689A4208BF194A184C08BF47
:103D50001660194F2268988015252146BC46D2F876
:103D600000809845B2F8048008BF1660804503D2F1
:103D7000086818600B600020BA42246814D01168EB
:103D8000D1F800809845B1F8048008BF0E608045E6
:103D900003D21068186013600020614504D0013D13
:103DA000ADB20A68002DDAD1A088BDE8F08100BF6D
:103DB000880200204C030020F4030020234A244BF7
:103DC00051692DE9F04108315161C91A002808BF35
:103DD0000120B1F5A47FA8BF53615369D2681E6862
:103DE0009A4208BF194A194908BFD66051F80C2FEA
:103DF000184F988029250C46BC46D2F8008098457B
:103E0000B2F8048008BF1660804503D220681860AD
:103E100023600020BA42096814D01468D4F80080E6
:103E20009845B4F8048008BF2660804503D2106826
:103E3000186013600020644504D0013DADB22268D3
:103E4000002DDAD18888BDE8F08100BF880200200B
:103E5000FC03002044050020234A244B116A2DE96D
:103E6000F04108311162C91A002808BF0120B1F5DC
:103E7000A47FA8BF1362136A92691E689A4208BFA2
:103E8000194A194908BF966151F8182F184F9880A0
:103E900029250C46BC46D2F800809845B2F804802B
:103EA00008BF1660804503D2206818602360002098
:103EB000BA42096814D01468D4F800809845B4F860
:103EC000048008BF2660804503D210681860136024
:103ED0000020644504D0013DADB22268002DDAD146
:103EE0008888BDE8F08100BF880200204C050020D2
:103EF000940600200F49D1F85433D1F85023C1F86B
:103F000058339342C1F85423C1F8500307DC83426D
:103F100003DC9042A8BF104670479A4205DC8242FB
:103F200003DC9842A8BF184670479A42B4BF1046B7
:103F3000184670474C0300200F49D1F86033D1F880
:103F40005C23C1F864339342C1F86023C1F85C0379
:103F500007DC834203DC9042A8BF104670479A42B8
:103F600005DC824203DC9842A8BF184670479A429B
:103F7000B4BF1046184670474C0300202DE9F743A4
:103F800076480121FCF76EF9002800F0E380744CBC
:103F90000121D4F8683371480133C4F86833FCF761
:103FA0006CF9002502206F4EADF80450ADF80650B4
:103FB00000F05CFE022000F063FE02212A466A48FF
:103FC00000F04BFE7389B2899BB2D90292B201EB29
:103FD000430393FBF2F3654A1360654BF1889B6AD8
:103FE00089B24B43B28992B2B3FBF2F39BB2ADF804
:103FF0000630BDF8060080B2FFF72EFFA4F86C0370
:10400000B4F86C334FF4F0229BB2022B98BFA4F8A3
:104010006C53B389564D9BB292FBF3F39BB2A4F859
:104020006E33B1882B6B89B24B43B28992B2B3FB2A
:10403000F2F39BB2ADF80630BDF8060080B2FFF790
:1040400071FE80B2ADF80400BDF80420494B92B275
:104050001A80BDF804301BB2022B02DC0023ADF83D
:104060000430404CAB6B2189A28989B24B4392B298
:10407000B3FBF2F39BB2ADF80630BDF80600DFF8F3
:10408000E08000B2FFF758FFAB6980B24FF00A0939
:10409000A8F8700309FB03F36188A28989B24B4336
:1040A00092B2B3FBF2F39BB2ADF80630BDF8060056
:1040B000314F80B2FFF782FE296A80B2388009FB57
:1040C00001F92288A38992B202FB09F99BB2B9FBDC
:1040D000F3F91FFA89F9ADF80690BDF80600244EF1
:1040E00000B2FFF707FF254B80B2254A188092687F
:1040F000920753BF3A881B883269B368D31A9BB2C0
:10410000A8F87233164AB8F87233194BBDF8041088
:10411000B2F872231B6C12B253431A4A93FBF2F3A8
:104120005B189BB2ADF80430BDF804301BB2022B13
:1041300002DC0023ADF80430BDF80420084B92B235
:104140000948A3F874230221012203B0BDE8F0431B
:1041500000F083BD03B0BDE8F08300BF0004004061
:104160004C030020F408002008000240C802002090
:1041700024000020D4020020D0020020D20200201F
:10418000000C0140F0D8FFFF034B5A6822F4404274
:1041900010435860704700BF0010024010B51F4B1D
:1041A0005A6802F00C02042A01D0082A02D01C4BE3
:1041B000036011E05A685968C2F383420232C903AE
:1041C00001D4184B06E0DB6A154903F00F030133F5
:1041D000B1FBF3F35A430260104A134B5168046871
:1041E000C1F30311595C24FA01F141605468C4F32E
:1041F00002241C5D21FA04F484605468C4F3C224D0
:104200001C5D21FA04F1C1605268C2F381329B182F
:104210001B7CB1FBF3F1016110BD00BF0010024037
:1042200000127A0000093D00AC020020044B5A69DC
:1042300009B1104301E022EA00005861704700BF55
:1042400000100240044B9A6909B1104301E022EAD0
:1042500000009861704700BF00100240044BDA690B
:1042600009B1104301E022EA0000D861704700BFA5
:104270000010024038B5384C08200121FFF7E2FF5A
:104280002368364D23F0030323602368012023F0C5
:104290000C0323602368014643F002032360236874
:1042A00023F00C0323606B6823F003036B606B68DF
:1042B00023F00C036B606B6843F002036B606B6868
:1042C00023F00C036B606B6823F440536B606B68E6
:1042D00023F440436B606B6843F400536B606B687E
:1042E00023F440436B60FFF7ADFF1D4B5A6842F06B
:1042F00000725A606B6823F040536B606B6823F068
:1043000040436B606B6843F000536B606B6823F055
:1043100040436B60636823F003036360636823F0CA
:104320000C036360636843F002036360636823F017
:104330000C036360236823F030032360236823F0B9
:10434000C0032360236843F020032360236823F025
:10435000C003236038BD00BF000C014000080140CD
:104360000000014008B508200121FFF76BFF1D4B3D
:104370001A6822F440121A601A6822F440021A6085
:104380001A6842F400021A6020221A611A6822F4A4
:1043900040321A601A6822F440221A601A6842F405
:1043A00000221A6010221A611A6822F040721A6004
:1043B0001A6822F040621A601A6842F000621A60BD
:1043C00040221A611A6822F040521A601A6822F0DC
:1043D00040421A601A6842F000421A6080221A6154
:1043E00008BD00BF000C01401FB501212020FFF7D0
:1043F00035FF104C01A8FBF717FF40F65F13ADF82F
:10440000043020460A2301A9ADF80830FBF7C2FEAC
:1044100001210A462046FBF71CFF20460121FBF73D
:104420000CFF054B4FF400025A60502283F83723EB
:104430001FBD00BF0014004000E100E01FB50121D6
:104440004FF40030FFF7FEFE01A8FBF7EDFE104C25
:104450000023ADF8063045F6BF53ADF804302046D2
:104460004FF47A7301A9ADF80830FBF793FE0121F0
:104470000A462046FBF7EDFE20460121FBF7DDFE54
:10448000044B4FF000721A60102283F819231FBDED
:104490000044014000E100E0064BDA6942F001020D
:1044A000DA614FF0804345F6BF521A8509221A801F
:1044B000704700BF0010024008B504200121FFF73B
:1044C000C1FE08200121FFF7BDFE10200121FFF7EA
:1044D000B9FEFCF733FC01F0D9F8FFF7CBFEFFF78C
:1044E00041FFFFF7F5FBFFF7A9FFFFF7D5FFFFF748
:1044F000C1FEFFF74BFBBDE80840FFF775BF0000AA
:1045000043680A6823F4702323F4807313430A7901
:1045100010B543EA022343608A68CB6884681A4373
:10452000084B234013434A7943EA420383600B7CE0
:10453000C26A013B22F47002DBB242EA0353C36257
:1045400010BD00BFFDF7F1FF836811B143F0010317
:1045500001E023F0010383607047836811B143F4E5
:10456000807301E023F4807383607047836843F0B5
:104570000803836070478068C0F3C0007047836899
:1045800043F00403836070478068C0F38000704785
:10459000836811B143F4A00301E023F4A003836016
:1045A0007047092970B54FF003040DD94C43072516
:1045B0001E3C05FA04F503FA04F3C66826EA05056D
:1045C00045EA0304C4600BE04C43072505FA04F5F3
:1045D00003FA04F4066926EA050545EA04030361C3
:1045E000062A4FF005030CD8013A53431F2202FA62
:1045F00003F201FA03F3446B24EA02021343436318
:1046000070BD0C2A0DD853431F22233B02FA03F23C
:1046100001FA03F1046B24EA020242EA0103036394
:1046200070BD53431F22413B02FA03F201FA03F12A
:10463000C46A24EA020242EA0103C36270BD0000B8
:10464000044B9A6810B142F4000201E022F4000227
:104650009A6070470024014030B5038ACA8823F469
:1046600040531B041B0C134303820D4683890989A5
:10467000AA8823F4B0530A43698923F00C030A4340
:104680001B041B0C92B213438381838AAA8923F4EF
:1046900040731B041B0C87B013430446838201A89C
:1046A000FFF77CFD174BA2899C420CBF049B039B28
:1046B00012B2002A4FF019012A6801FB03F101DA56
:1046C000520000E092006423B1FBF2F1B1FBF3F27F
:1046D0001201100903FB1011A08900B2002806DAAC
:1046E000C9003231B1FBF3F303F0070305E0090120
:1046F0003231B1FBF3F303F00F031A4392B222817C
:1047000007B030BD00380140838919B19BB243F432
:10471000005303E023F400531B041B0C83817047F8
:10472000C1F3421310B5012401F01F01A34204FAA2
:1047300001F101D10C3004E0022B01D1103000E076
:10474000143003680AB1194301E023EA0101016052
:1047500010BDC905C90D81807047038819420CBF7F
:1047600000200120704700007FB580EAE072A2EBD4
:10477000E0720DF1FF3500230A2492FBF4F104FBF3
:104780001122303205F8012F1E4601330A1EDBB21A
:10479000F3DC002807DA5BB204A8C3182D2203F863
:1047A000102CB31CDBB25AB204A88118002001F807
:1047B000100C68448118074811F8014C013BDBB22A
:1047C000013900F8014F002BF6D10348835404B09F
:1047D00070BD00BFCF060020D0060020F0B5034614
:1047E00085B083EAE370A0EBE3700DF1FF360022A1
:1047F0000A2590FBF5F405FB1400303006F8010F94
:1048000017460132201ED2B2F3DC002B07DA04ABCC
:1048100052B29A182D2302F8103CBA1CD2B250B2F0
:1048200004AC2318002403F8104C0DEB04031818F3
:104830000C46134652B210F8015C013BDBB2013862
:1048400004F8015B002BF6D18B54084605B0F0BD8F
:10485000F0B58BB080EAE073A3EBE0730DF1FF36A7
:1048600000220A2593FBF5F405FB1433303306F8D8
:10487000013F17460132231ED2B2F3DC53B20AAD18
:10488000EC180025012B04F8285C04D13023BA1C55
:104890008DF80130D2B2022A05D1012903D9302383
:1048A0008DF80230032200240DF1280C23460CEB76
:1048B00001062E2552B25FB28F4203D1013306F8B2
:1048C000145CDBB25FB20DF1280C67441DF804C024
:1048D000013407F814CC67B201339742DBB2EADB4C
:1048E000002807DA5AB20AA98A1801332D2102F8E2
:1048F000141CDBB259B205AD084800226C1804E064
:10490000A55C013B00F8015FDBB2013A002BF7D157
:10491000034841180B7410300BB0F0BDDF060020C7
:10492000D00600202DE9F04103468AB083EAE37007
:10493000A0EBE3700DF1FF3700240A2690FBF6F59B
:1049400006FB1500303007F8010FA4460134281E7D
:10495000E4B2F3DC60B20AAE35180026012805F88F
:10496000286C05D130200CF102048DF80100E4B26E
:10497000022C05D1012A03D930208DF8020003242E
:1049800000250DF12808284608EB02072E2664B200
:104990004FFA80FC944503D1013007F8146CC0B283
:1049A0004FFA80FC0DF12808C4441DF8058001353C
:1049B0000CF8148C4FFA85FC0130A445C0B2E7DB3B
:1049C000002B07DA43B20AAAD31801302D2203F8CC
:1049D000142CC0B242B205AE0C460023B51804E058
:1049E000EE5C013804F8016BC0B2013B0028F7D13E
:1049F000885408460AB0BDE8F081002802D001DCE6
:104A0000404200B270470346002001E00130C0B2CE
:104A10001A5C002AFAD1704730B50346002401E041
:104A2000155501341D5DE0B2002DF9D12B4645B27C
:104A3000551903E00130EC54C0B20133CC5C002CBA
:104A4000F8D140B21454104630BD70B5002501E0D5
:104A50005E550135465DECB2002EF9D1304666B2A6
:104A60009E1903E001343554E4B201300D5C002D91
:104A7000F8D1294665B25D1903E001346854E4B207
:104A80000131505C0028F8D164B21855184670BD49
:104A90002DE9F041074686B04FF461600C46B7FB44
:104AA000F0F001A9FFF79AFE01A8FFF7ACFF01287B
:104AB00003D830232370012600E000260023A1192B
:104AC00002E0CA54EEB201330DF1040813F80820D5
:104AD000751C002AF5D13A2273B2E2543C23B7FB8D
:104AE000F3F2B2FBF3F003FB10204146FFF776FE32
:104AF0004046FFF788FF0128EDB204D86DB230239D
:104B00006355B51CEDB269B20023611802E0CA54C6
:104B1000F5B201330DF1040813F808206E1C002AC9
:104B2000F5D13A226BB2E2543C23B7FBF3F003FB1E
:104B300010704146FFF752FE4046FFF764FF012820
:104B4000F6B204D876B230230235A355EEB271B274
:104B50000023611803E00136CA54F6B2013301AAFA
:104B60009A5C002AF7D176B2A255204606B0BDE87D
:104B7000F0812DE9F041804686B04FF461600C462B
:104B8000B8FBF0F001A9FFF729FE01A8FFF73BFFF2
:104B9000012803D830232370012500E000250023DD
:104BA000611902E0CA54F5B2013301AFDA5D6E1C3F
:104BB000002AF7D13A226BB2E2543C23B8FBF3F857
:104BC000B8FBF3F003FB10803946FFF707FE3846C9
:104BD000FFF719FF0128F6B204D876B23023023568
:104BE000A355EEB271B20023611803E00136CA5436
:104BF000F6B2013301AA9A5C002AF7D176B2A25527
:104C0000204606B0BDE8F0818B6810B50C6A0268DA
:104C100023430C6922F4FE4223434C6922F0F00244
:104C200023438C692343CC6923434C6A23438C6A16
:104C3000234313430360CB6843600B6883604B6876
:104C4000C36010BD19B1036843F0010303E00268BB
:104C50004FF6FE7313400360704703680AB11943AF
:104C600001E023EA0101016070470000C2004CBF6F
:104C7000014B024B586070470004024000000240A4
:104C8000C3004CBF014B024B586070470004024008
:104C900000000240C37810B5F3B1154B4178DB68D2
:104CA0008478DB43C3F30223C3F1040201FA02F167
:104CB0000F2222FA03F222400A430E4B017812011E
:104CC000CB18D2B283F8002303780122590903F0EC
:104CD0001F0302FA03F307E003780122590903F0E6
:104CE0001F0302FA03F32031024A42F8213010BDBB
:104CF00000ED00E000E100E00F4AD36813F0010F7F
:104D00000D4BFAD1DA68920601D52022DA601A69D1
:104D100042F002021A6158611A6942F040021A61B7
:104D2000054AD168044B8906FBD52022DA601A694E
:104D300022F002021A61704700200240034B044A2D
:104D40005A6002F188325A60704700BF002002406A
:104D500023016745024B1A6942F080021A617047CD
:104D600000200240124AD36813F0010F104BFAD111
:104D7000DA68920601D52022DA601A6942F001024F
:104D80001A618BB203800A4BDA6812F0200F084ACE
:104D9000FAD02023090CD3604180D168044B8906E6
:104DA000FBD52022DA601A6922F001021A617047ED
:104DB0000020024070B572B6114CFFF7BFFF4FF4F0
:104DC000CE701049002200F041FD20680E490022FB
:104DD00000F03CFD0D48FFF78FFF0C4D0C4E2B19DA
:104DE00003F17843A3F5F233284619680435FFF739
:104DF000B9FFB542F3D1FFF7ADFF62B670BD00BF9A
:104E000050070020136B00081A6B000800E401082B
:104E10009CE5010810B5074B0749084A58181C685B
:104E200000F178400433A0F5F23093420460F5D1EC
:104E3000012010BD00E40108500700209CE5010896
:104E400070B504680E468C4201D3944211D90A4BC6
:104E500000251D7009492A4600F0F8FC2046084943
:104E60002A4600F0F3FC074807492A4600F0EEFC0A
:104E70003446204670BD00BFC0020020206B0008F1
:104E8000376B000800EC0108496B000810B5184C9E
:104E90006068FFF731FF60682168FFF763FFE06833
:104EA000A168FFF75FFF60692169FFF75BFFE069B9
:104EB000A169FFF757FF606A216AFFF753FFE06AB5
:104EC000A16AFFF74FFF606B216BFFF74BFFE06BB1
:104ED000A16BFFF747FF606C216CFFF743FFE06CAD
:104EE000A16CFFF73FFF034800F070FC10BD00BF4E
:104EF00024000020606B000810B5184C6068FFF7B4
:104F0000FBFE60682168FFF72DFFE068A168FFF7EE
:104F100029FF60692169FFF725FFE069A169FFF7B3
:104F200021FF606A216AFFF71DFFE06AA16AFFF7AF
:104F300019FF606B216BFFF715FFE06BA16BFFF7AB
:104F400011FF606C216CFFF70DFFE06CA16CFFF7A7
:104F500009FF034800F03AFC10BD00BFAC0100207F
:104F6000796B000838B5224C002160684FF48072DC
:104F7000FFF766FF002120604FF47A72E068FFF7C8
:104F80005FFF0021A0604FF47A726069FFF758FF5D
:104F9000184D20610A212A46E069FFF751FF0A21D6
:104FA000A0612A46606AFFF74BFF0A2120622A4669
:104FB000E06AFFF745FF0A21A0622A46606BFFF70F
:104FC0003FFF0A2120632A46E06BFFF739FF4621A5
:104FD000A063C822606CFFF733FF0A212064C82257
:104FE000E06CFFF72DFFA064034800F0EFFB38BD35
:104FF00024000020A0860100996B000838B5224CDF
:10500000002160684FF48072FFF71AFF00212060D2
:105010004FF47A72E068FFF713FF0021A0604FF4AD
:105020007A726069FFF70CFF184D20610A212A4649
:10503000E069FFF705FF0A21A0612A46606AFFF7D1
:10504000FFFE0A2120622A46E06AFFF7F9FE0A21E4
:10505000A0622A46606BFFF7F3FE0A2120632A460E
:10506000E06BFFF7EDFE4621A063C822606CFFF7FE
:10507000E7FE0A212064C822E06CFFF7E1FEA0648D
:10508000034800F0A3FB38BDFC010020A08601000E
:10509000B36B000810B5164C6068FFF72DFE606812
:1050A0002168FFF75FFEE068A168FFF75BFE6069BB
:1050B0002169FFF757FEE069A169FFF753FE606AB7
:1050C000216AFFF74FFEE06AA16AFFF74BFE606BB3
:1050D000216BFFF747FEE06BA16BFFF743FE606CAF
:1050E000216CFFF73FFE034800F070FB10BD00BFCE
:1050F00074000020D66B000810B5164C6068FFF7EE
:10510000FBFD60682168FFF72DFEE068A168FFF7EE
:1051100029FE60692169FFF725FEE069A169FFF7B3
:1051200021FE606A216AFFF71DFEE06AA16AFFF7AF
:1051300019FE606B216BFFF715FEE06BA16BFFF7AB
:1051400011FE606C216CFFF70DFE034800F03EFB82
:1051500010BD00BF1C010020EC6B000838B5204CCE
:10516000002160684FF48072FFF76AFE0121206021
:105170000A22E068FFF764FE0121A0604FF47A7212
:105180006069FFF75DFE012120614FF47A62E069FA
:10519000FFF756FE0121A0614FF47A62606AFFF7C3
:1051A0004FFE42F21075206200212A46E06AFFF7A6
:1051B00047FE0021A0622A46606BFFF741FE0021F6
:1051C00020636422E06BFFF73BFE0121A063032212
:1051D000606CFFF735FE2064024800F0F7FA38BD36
:1051E00074000020096C000838B5204C002160686C
:1051F0004FF48072FFF724FE012120600A22E0684C
:10520000FFF71EFE0121A0604FF47A726069FFF77C
:1052100017FE012120614FF47A62E069FFF710FE6A
:105220000121A0614FF47A62606AFFF709FE42F241
:105230001075206200212A46E06AFFF701FE002176
:10524000A0622A46606BFFF7FBFD00212063642209
:10525000E06BFFF7F5FD0121A0630322606CFFF70F
:10526000EFFD2064024800F0B1FA38BD640100206F
:10527000206C000810B50E4C0022A0680D4900F00B
:10528000E5FA6068FFF738FD60682168FFF76AFD9E
:10529000E068A168FFF766FD60692169FFF762FDBC
:1052A000E069A169FFF75EFD034800F08FFA10BDC9
:1052B000BC000020406C00084F6C000810B50C4C7E
:1052C0006068FFF719FD60682168FFF74BFDE06833
:1052D000A168FFF747FD60692169FFF743FDE069B9
:1052E000A169FFF73FFD034800F070FA10BD00BF51
:1052F000DC0000206D6C000838B50F4C00216068A0
:105300004FF48072FFF79CFD0C4D206000212A466F
:10531000E068FFF795FD0021A0602A466069FFF76D
:105320008FFD002120610122E069FFF789FDA06166
:10533000034800F04BFA38BDBC00002000286BEE9B
:10534000946C000838B50F4C002160684FF48072EF
:10535000FFF776FD0C4D206000212A46E068FFF73C
:105360006FFD0021A0602A466069FFF769FD0021FA
:1053700020610122E069FFF763FDA061034800F0AE
:1053800025FA38BDFC00002000286BEEB36C000845
:1053900070B50C4D01242C7072B6FFF7ADFFFFF70E
:1053A000DDFEFFF7DFFD62B62E782EB9064800F06D
:1053B0000DFA2C70304670BD044800F007FA2C70CE
:1053C000204670BDC0020020DB6C0008F46C0008B1
:1053D000F0B5C1B007460D461446684608494FF47B
:1053E000807200F04BFA6E4617F8013B013D5C40BD
:1053F000EDB2345D002DF7D1204641B0F0BD00BFC5
:10540000136A000838B572B6FFF798FC4C210022E9
:105410003448FFF7DDFF344B04461860FFF76CFD9E
:10542000FFF7ECFD4C2100223048FFF7D1FF84420A
:1054300003D12F4800F0CAF904E02E4800F0C6F965
:10544000FFF75AFD442100222B48FFF7C1FF00223D
:105450002A49044600F0FAF900222949442000F0C4
:10546000F5F9284B1C60FFF747FEFFF7BDFE44210E
:1054700000222548FFF7ACFF00222049054600F036
:10548000E5F9442000221E4900F0E0F9AC4203D1C6
:105490001E4800F09BF904E01D4800F097F9FFF763
:1054A0002BFE1C2100221B48FFF792FF1A4B0446DB
:1054B0001860FFF703FFFFF745FF1C210022174884
:1054C000FFF786FF844203D1154800F07FF904E01E
:1054D000144800F07BF9FFF7F1FEFFF73BFC62B6E2
:1054E00038BD00BFB0010020AC0100200002002048
:1054F0000F6D0008346D000820010020646D000865
:105500006F6D00081C010020680100207B6D000801
:105510009D6D0008E0000020DC000020000100205C
:10552000CA6D0008F46D000838B572B61C2100225F
:105530001548FFF74DFF154D04462860FFF7FEFBA9
:10554000FFF798FEFFF7FEFEA869114D00221149F2
:1055500000F07CF90022A8690E4900F077F9281DB7
:105560001C210022FFF734FF844203D10A4800F0D7
:105570002DF904E0094800F029F9FFF77BFEFFF759
:10558000E9FB62B6012038BDC0000020BC0000204D
:10559000FC000020296E0008CB6D0008F56D0008A6
:1055A00038B572B6442100221948FFF711FF0022D6
:1055B0001849044600F04AF900221749442000F037
:1055C00045F9164B1C60FFF7B9FBFFF763FDFFF7CA
:1055D0000BFE442100221248FFF7FAFE00220D497B
:1055E000054600F033F9442000220B4900F02EF963
:1055F000AC4203D10B4800F0E9F804E00A4800F09F
:10560000E5F8FFF747FDFFF7A5FB62B6012038BDBF
:1056100078000020656D0008706D0008740000209F
:10562000680100207C6D00089E6D000810B572B600
:105630004C2100221048FFF7CBFE104B04461860A7
:10564000FFF77CFBFFF722FCFFF7D8FC4C21002280
:105650000B48FFF7BDFE844203D10A4800F0B6F8BC
:1056600004E0094800F0B2F8FFF710FCFFF772FB06
:1056700062B6012010BD00BF2800002024000020D9
:1056800000020020106D0008356D000830B54FF4A1
:10569000164387B0009300231C46ADF80430ADF8E4
:1056A0000630ADF80830ADF80C3004200C23012191
:1056B000ADF80A30FEF7C6FD01214FF48040FEF739
:1056C000C1FD4FF4C063154DADF8103018238DF8AF
:1056D000133004A9032312488DF81230FBF79EFB08
:1056E00069462846FEF7B8FF25238DF814308DF85B
:1056F00016402223012405A88DF815308DF8174097
:10570000FFF7C8FA28462146FEF7FEFF284640F27A
:1057100025512246FFF704F807B030BD003801409C
:10572000000801400A4B1A78C72A0FD85A7809494D
:1057300088541A780132D2B21A705A780132D2B231
:105740005A705A78C82A01D100225A70704700BF97
:10575000F10600200809002010B5194C238898068E
:1057600003D5A088C0B2FFF7DDFF2388144A1906CD
:105770001AD5144B997889B1D9781348415C918036
:105780009A78013AD2B29A70DA780132D2B2DA70EB
:10579000DA78C82A08D10022DA7005E0938923F06C
:1057A00080031B041B0C9381054A13885B0605D5F7
:1057B000138823F040031B041B0C138010BD00BF93
:1057C00000380140F1060020D009002010B5044641
:1057D0000AE00D488021FEF7C0FF0028F9D014F838
:1057E000011B0948FEF7B5FF2378002BF1D10648CD
:1057F0008021FEF7B2FF0028F9D003480A21BDE856
:105800001040FEF7A6BF00BF0038014082B0064B33
:105810008DF807001A885206FCD59DF80720024B28
:105820009A8002B0704700BF00380140064B1A460C
:1058300005E019884906FCD510F8011B9180017814
:105840000029F6D1704700BF0038014037B50190FC
:105850000C46019812B9FEF787FF02E01146FEF7E9
:10586000F7FF05462046FFF7E1FF2846FFF7DEFF7A
:105870000A2003B0BDE83040FFF7C8BF0F2AF0B4DC
:105880003AD941EA00039B0738D10C460346154636
:105890002668103D1E6066685E60A6689E60E668C9
:1058A0001034DE6010330F2DF2D8A2F1100424F072
:1058B0000F0402F00F021034032A00EB040321440A
:1058C00011D90E461D46144656F8047B043C032CA1
:1058D00045F8047BF8D8141F24F00304043402F0C4
:1058E000030209191B192AB111F8014B013A03F8F7
:1058F000014BF9D1F0BC70470346F4E70346F3E7E8
:105900000000000000000000000000000000000097
:105910000000000000000000523A004131303030F9
:10592000303A00423A0054303A00633D2000543A85
:105930000069693A2000513A2000435243284361EC
:105940006C6962726174696F6E29203D0043616CFD
:105950006962726174696F6E3056616C7565466F0D
:105960007243757272656E74203D0043616C6962AA
:10597000726174696F6E3056616C7565466F724303
:10598000757272656E7431203D0043616C6962729C
:105990006174696F6E56616C7565466F724375729E
:1059A00072656E74203D0043616C69627261746956
:1059B0006F6E56616C7565466F7243757272656E77
:1059C0007431203D0043616C6962726174696F6E6D
:1059D00056616C7565466F72566F6C7461676520B1
:1059E0003D0043616C6962726174696F6E56616CEF
:1059F0007565466F72566F6C7461676531203D0046
:105A000043616C6962726174696F6E56616C756531
:105A1000466F72566F6C7461676532203D00526547
:105A200073697374616E6365436F6D705F4973680A
:105A3000756E745F5769726573203D0052657369B6
:105A40007374616E6365436F6D705F4D4F53464570
:105A500054203D004352432853657474696E677344
:105A60004461746129203D004F7074696F6E312864
:105A70006D656E7520706F736974696F6E29203D56
:105A80000043686172676554696D65203D004C6F25
:105A900077566F6C74616765203D004D6178566F75
:105AA0006C74616765203D0043686172676541649D
:105AB000617074203D005377696E675F4368726759
:105AC0005F74696D65203D005377696E675F44437D
:105AD0006872675F74696D65203D004F7074696F0F
