:020000040800F2
:10000000700B002085020008CD020008CD02000818
:10001000CD020008CD020008CD020008000000005B
:10002000000000000000000000000000CD020008F9
:10003000CD02000800000000CD020008CD0200083B
:10004000CD020008CD020008CD020008CD02000854
:10005000CD020008CD020008CD020008CD02000844
:10006000CD020008CD020008CD020008CD02000834
:10007000CD020008CD020008CD020008CD02000824
:10008000CD020008CD020008CD02000800000000EB
:10009000000000000000000000000000CD02000889
:1000A000CD020008DD0E0008CD020008CD020008D8
:1000B000CD020008E52B000800000000CD0200087A
:1000C000CD0200080000000000000000CD02000882
:1000D00000000000FD390008CD020008000000000B
:1000E000CD020008CD020008CD020008000000008B
:1000F0000000000000000000000000000000000000
:1001000000000000000000000000000000000000EF
:100110000000000000000000CD020008D915000812
:100120005FF808F1014B1868704700BF000000201D
:10013000084B10B598420BD050B1074B074C1B68C9
:1001400020600BB11830984723681B6903B19847AA
:1001500010BD00BF203B0008A401002000000020CB
:10016000024B1860024B1868FFF7E2BFA4010020A1
:100170000000002008B5054B054A1B68934203D0D8
:1001800013B15B6903B1984708BD00BF00000020B0
:10019000203B0008224A038890429BB212D002F50D
:1001A000006290420ED0B0F1804F0BD0A2F5983291
:1001B000904207D002F58062904203D002F580623F
:1001C000904203D14A8823F070031343154A9042AA
:1001D00008D002F58062904204D023F44073CA88AC
:1001E0009BB2134303808B8883850B8803850C4B5C
:1001F00098420FD003F5006398420BD003F540639B
:10020000984207D003F58063984203D003F58063DA
:10021000984201D10B7A038601238382704700BF85
:10022000002C0140001000404FF6FF738380002334
:100230000380C380438003727047038819B19BB267
:1002400043F0010303E023F001031B041B0C0380B4
:10025000704783899BB20AB1194301E023EA010187
:1002600081817047038A828911EA030092B203D028
:1002700011420CBF002001207047C94389B201829E
:100280007047000008B50C4A0C4B0D4903E052F8CA
:10029000040B43F8040B8B42F9D30A480A494FF088
:1002A00000028842B8BF40F8042BFADB00F09EF849
:1002B000BDE8084002F018B95448000800000020CA
:1002C000A4010020A40100206C070020FEE700002C
:1002D00010B5324C00222068314903F009FCA068B7
:1002E0000022304903F004FC206900222E4903F06B
:1002F000FFFBA06900222D4903F0FAFB206A0022CF
:100300002B4903F0F5FBA06A00222A4903F0F0FB19
:10031000206B0022284903F0EBFBA06B0022274949
:1003200003F0E6FB206C0022254903F0E1FBA06C02
:100330000022244903F0DCFB206D0022224903F057
:10034000D7FBA06D0022214903F0D2FB206E0022D2
:100350001F4903F0CDFBA06E00221E4903F0C8FB2D
:10036000206F00221C4903F0C3FBA06F00221B4931
:1003700003F0BEFBD4F880001949002203F0B8FB5B
:10038000D4F888000022174903F0B2FBD4F890009B
:1003900015490022BDE8104003F0AABB040000206C
:1003A000383B0008633B00088D3B00086D3B0008AC
:1003B000953B0008A23B0008AF3B0008C13B00088A
:1003C000D43B0008F63B0008143C0008333C00080E
:1003D000503C00086E3C00088B3C0008A93C00081B
:1003E000C73C0008D53C0008F33C0008314B82B004
:1003F0001A6842F001021A6059682F4A0A405A608E
:100400001A6822F0847222F480321A601A6822F488
:1004100080221A605A6822F4FE025A604FF41F02CA
:100420009A600022DA62009201921A6842F48032E5
:100430001A601A6802F400320192009A01320092A6
:10044000019A1AB9009AB2F5A06FF2D1194B1B6844
:1004500013F4003318BF01230193019B012B23D117
:10046000144B5A685A605A685A605A685A605A68F7
:1004700022F47C125A605A6842F498125A601A6840
:1004800042F080721A6019680A4A8901FBD55368E4
:1004900023F003035360536843F00203536053682F
:1004A00003F00C03082BFAD1044B4FF000629A6062
:1004B00002B07047001002400000FFF800ED00E0BD
:1004C00084B0ADF80600BDF806304FF4FA629BB276
:1004D000534301E0039B013B0393039B002BF9D1A2
:1004E00004B0704784B0ADF80600BDF806309BB28A
:1004F0005B0001E0039B013B0393039B002BF9D1BD
:1005000004B0704710B5074C4FF4804323610220BC
:10051000FFF7E8FF4FF0804302202361BDE8104061
:10052000FFF7E0BF000C014070B50F4C4FF07C4569
:100530004FF4805625612661FFF7E4FF0120FFF7A5
:10054000BFFF25612661FFF7DDFF0120FFF7B8FF40
:100550004FF4806325612361FFF7D4FF0120BDE8DC
:100560007040FFF7ADBF00BF000C0140254B4FF0BE
:100570007C4270B504460D461A6111B14FF4004239
:100580001A61E20644BF4FF400521A611D4B14F089
:10059000200F1CBF4FF480521A61660644BF4FF40F
:1005A00000621A61174E14F0800F1CBF4FF4806375
:1005B0003361FFF7A7FF4FF07053E007336103D5B6
:1005C000104B4FF400521A61A10703D50D4B4FF4A5
:1005D00080521A61620703D50A4B4FF400621A6118
:1005E000230703D5074B4FF480621A61FFF78AFF98
:1005F0000220FFF765FF1DB1024B4FF000421A6168
:1006000070BD00BF000C0140034610B90820194618
:100610000BE021B90AB90C2003E00D2005E012B966
:100620000E20114601E00F200021FFF79FBF01209F
:100630000021FFF79BBF08B56420FFF741FFFFF7DC
:1006400073FF012001460022FFF7DEFFBDE80840EE
:10065000FFF7EDBFC0B20121FFF788BF054B18704F
:10066000597011B940F0800002E040F0C000002154
:10067000FFF77CBFAE0100202DE9F843894606460E
:10068000DFF86C800127194C29E0B22801D14920FC
:1006900011E0AF2801D103200DE0DE2802D10120B6
:1006A000014609E0AA2801D1022004E0BF2884BF46
:1006B000404410F8C00C0121FFF758FF23786578FB
:1006C0000133DBB2237055B9082B08D1B9F1020F01
:1006D00005D128460121FFF7C1FF2570677016F884
:1006E000010B0028D1D1BDE8F88300BFAE01002086
:1006F0003401002070B506460D4600240CE00121AF
:10070000FFF734FF012D06D1E3B2072B03D1002000
:100710002946FFF7A3FF0134305D0028EFD170BDFB
:10072000C00040F0400038B5C0B20D460021FFF7D0
:100730001DFF0024285D01210134FFF717FF082C5D
:10074000F8D180200021BDE83840FFF70FBF2DE928
:10075000F3410025042415271F264FF00E082846D4
:1007600069468DF800408DF803408DF805408DF8FE
:1007700001708DF802808DF804508DF806608DF8B8
:100780000760FFF7CDFF012069468DF802408DF824
:1007900006408DF800708DF801808DF803508DF8BB
:1007A00004508DF805508DF80760FFF7B9FF02205F
:1007B00069468DF801408DF805408DF800508DF8A0
:1007C00002808DF803708DF804508DF806608DF866
:1007D0000760FFF7A5FF032069468DF800408DF8FC
:1007E00003408DF806408DF801808DF802708DF879
:1007F00004508DF805508DF80760FFF791FF2046F3
:1008000069468DF800408DF803408DF804408DF85E
:1008100007408DF801808DF802708DF805708DF815
:100820000680FFF77DFF02238DF800300A238DF844
:1008300003308DF804301C2307248DF805308DF823
:1008400006300520082369468DF807308DF80140F1
:100850008DF80240FFF764FF0F238DF80030052369
:100860008DF801308DF802308DF803308DF80430AA
:100870000620092369468DF806308DF805708DF83D
:100880000750FFF74DFF11238DF800308DF8013030
:100890008DF802302046012369468DF803608DF8FB
:1008A00004308DF805308DF806308DF80750FFF7CD
:1008B00037FFBDE8FC810221FFF7DEBE10B504461C
:1008C00008461146FFF7CAFE20460221BDE8104047
:1008D000FFF7D2BE08B5364B5A6822F440725A6010
:1008E0005A6842F400725A605A6822F440625A60B0
:1008F0005A6842F480625A605A6822F440525A6040
:100900005A6842F400525A605A6822F440425A60CF
:100910005A6842F480425A605A6822F440325A605F
:100920005A6842F400325A605A6822F440225A60EF
:100930005A6842F480225A605A6822F440125A607F
:100940005A6842F400125A605A6822F440025A600F
:100950005A6842F480025A605A6822F040725A6023
:100960005A6842F000725A605A6822F040625A6037
:100970005A6842F080625A605A6822F040525A60C7
:100980005A6842F000525A605A6822F040425A6057
:100990005A6842F080425A60FFF74DFEFFF747FE6B
:1009A000002101200A46BDE80840FFF72DBE00BF28
:1009B000000C0140CB782DE9F04303F00F02DB0679
:1009C00048BF8B780E8848BF1A4316F0FF0F1FD020
:1009D000046800234FF001084FF00F0C08FA03F7EA
:1009E00007EA0605BD420FD19F000CFA07F902FA8B
:1009F00007F724EA09043C43CF78282F01D1456149
:100A000002E0482F08BF05610133082BE6D10460DE
:100A10000E88FF2E21D9446800234FF001084FF0C3
:100A20000F0C03F1080708FA07F707EA0605BD42AD
:100A30000FD19F000CFA07F902FA07F724EA09041C
:100A40003C43CF78282F01D1456102E0482F08BFF1
:100A500005610133082BE4D14460BDE8F08383686D
:100A600019420CBF00200120704702F001BE18B1EE
:100A700000210A46FFF722BF704784B0ADF8060098
:100A8000BDF806304FF416629BB2534301E0039B5E
:100A9000013B0393039B002BF9D104B07047000086
:100AA00008B507200121FFF7D9FDFF200121FFF73D
:100AB0005DFD02F0DDFD044BC8209A68034B1A600F
:100AC000BDE80840FFF7D9BF04000020D80500208A
:100AD00010B5044600200146FFF7C0FD0A4B1888F8
:100AE00000B202F017FCFFF7E6FE0848FFF7E3FE4E
:100AF000022C08D1064B1A88064B12B29A64BDE844
:100B0000104002F0B5BD10BD8A050020CC4500089C
:100B1000A80100200400002010B504460020014672
:100B2000FFF79CFD0A4B188800B202F0F3FBFFF7B9
:100B3000C2FE0848FFF7BFFE022C08D1064B1A88F8
:100B4000064B12B21A65BDE8104002F091BD10BD0F
:100B50008A050020CC450008AA01002004000020DE
:100B600010B5044600200146FFF778FD1548FFF751
:100B7000A2FE022C24D102F0DFFD02F041FE044669
:100B800000200146FFF76AFD0F48FFF794FE4FF47F
:100B9000FA60FFF772FF00200146FFF75FFD012CAE
:100BA00005D10A48FFF787FE4FF4FA6004E00848D1
:100BB000FFF781FE4FF47A60BDE81040FFF75DBF9C
:100BC00010BD00BFDB450008EC450008FD450008EE
:100BD0000E460008022810B50E4C02D123690133DD
:100BE00003E0012802D12369013B23610020014673
:100BF000FFF734FD206902F08DFBFFF75CFE06482D
:100C0000FFF759FE23694FF461625A43034B1A60A0
:100C100010BD00BF040000201F460008C4050020CE
:100C2000022810B50D4C02D1236A0A3303E00128D3
:100C300002D1236A0A3B236200200146FFF70EFD22
:100C4000206A0A23B0FBF3F0012102F09DFBFFF7BD
:100C500032FE0348BDE81040FFF72DBE040000201F
:100C600024460008022810B50D4C02D1A36A0A33AD
:100C700003E0012802D1A36A0A3BA36200200146D7
:100C8000FFF7ECFCA06A0A23B0FBF3F0012102F0AD
:100C90007BFBFFF710FE0348BDE81040FFF70BBEDB
:100CA0000400002024460008022810B50B4C02D195
:100CB000236B013303E0012802D1236B013B236343
:100CC00000200146FFF7CAFC206B02F023FBFFF770
:100CD000F2FD0348BDE81040FFF7EDBD0400002021
:100CE00029460008022810B50B4C02D1A36B013332
:100CF00003E0012802D1A36B013BA363002001465E
:100D0000FFF7ACFCA06B02F005FBFFF7D4FD034836
:100D1000BDE81040FFF7CFBD0400002029460008C1
:100D2000022838B51C4C03D1D4F88030013304E0DC
:100D3000012804D1D4F88030013BC4F88030002071
:100D40000146FFF78BFCD4F8800002F0E3FAFFF7CE
:100D5000B2FD1248FFF7AFFDA06A0A250121B0FBE2
:100D6000F5F002F011FBFFF7A6FD0D48FFF7A3FD1C
:100D7000A36AD4F8800064225843B0FBF2F01B1A37
:100D8000B3FBF5F0012102F0FFFAFFF794FD0548EF
:100D9000BDE83840FFF78FBD040000203246000850
:100DA000354600082446000808B5084B1A68084B69
:100DB0009B689A4209D107200121FFF74FFCFF20D1
:100DC0000121BDE80840FFF7D1BB08BDD8050020D0
:100DD0000400002010B5044600200146FFF73EFC49
:100DE000022C194B06D19A680132082A9A6009D15F
:100DF000012206E0012C05D19A68013A9A600AB9ED
:100E000007229A60104A9368013B062B18D8DFE846
:100E100003F00406080A0C0E10000C480AE00C4807
:100E200008E00C4806E00C4804E00C4802E00C48DE
:100E300000E00C48FFF73FFDBDE81040FFF7B4BFEE
:100E40000123936010BD00BF040000203846000855
:100E5000494600085A4600086B4600087C460008D0
:100E60008D4600089E46000810B515481021FFF772
:100E7000F6FD58B112482021FFF7F1FD40B11048AE
:100E80004021FFF7ECFDB0B9012202E0032200E0AF
:100E900002220C4B40F2DC5019880CB2844203DD74
:100EA00040F2B451198004E0013189B2142919804B
:100EB00004D19A7010BD034B00221A8010BD00BFF0
:100EC000000C0140B0010020034B0022987800B1D3
:100ED0005A609A70704700BFB001002038B51F48B3
:100EE0000121FFF7BFF9002836D001211B48FFF789
:100EF000C4F91B4B1A8812B2002A07DC194CA568EA
:100F0000188800B202F0AAFA4519A560144B1A8895
:100F100012B2012A07DD134CE568188800B202F00E
:100F20009DFA4519E5600F4B1A7C012A02D15A69D6
:100F300001325A611B7E0B4A012B02D1D369013366
:100F4000D361084B93F82020012A02D15A6A01325A
:100F50005A629A6A01329A6238BD00BF0044014069
:100F60008A050020B0010020034B00225A620122B2
:100F700083F82020704700BFB0010020034B0022FF
:100F80005A62012283F82020704700BFB001002080
:100F900038B504464FF46160B4FBF0F002F0BAF9E2
:100FA000054602F061FA012803D81E480121FFF727
:100FB000A1FB28460121FFF79DFB01211A48FFF7FD
:100FC00099FB3C23B4FBF3F2B2FBF3F003FB1020DC
:100FD00002F0A0F9054602F047FA012803D81148AB
:100FE0000121FFF787FB01212846FFF783FB012141
:100FF0000D48FFF77FFB3C23B4FBF3F003FB1040ED
:1010000002F088F9044602F02FFA012803D80548B7
:101010000121FFF76FFB20460121BDE83840FFF7B3
:1010200069BB00BFAF4600083747000838B5044623
:101030004FF46160B4FBF0F002F06CF9054602F089
:1010400013FA012803D812480121FFF753FB0121AD
:101050002846FFF74FFB01210E48FFF74BFB3C23CF
:10106000B4FBF3F4B4FBF3F003FB104002F052F9CD
:10107000044602F0F9F9012803D805480121FFF7D9
:1010800039FB20460121BDE83840FFF733BB00BFE4
:10109000AF46000837470008094B4FF480321A6109
:1010A0004FF400321A614FF08072A3F580631A6129
:1010B000044B002283F82C2083F82D20704700BFBA
:1010C000000C0140B0010020074A01234FF4003119
:1010D00013611161054A82F82C3082F82D30044BDF
:1010E0004FF480721A617047000C0140B00100207B
:1010F0000008014038B52E4B0122054683F82E200A
:10110000FFF7E2FF022D2B4C02D12388013303E0CD
:10111000012D02D12388013B238000200146FFF7E7
:101120009DFA0221208802F02FF9FFF7C4FB224824
:10113000FFF7C1FB214B224A1888138880B21BB2EB
:10114000002B21881F4B01DC46220AE0401A11883F
:1011500002B222EAE27242F21070424309B292FBFA
:10116000F1F2184CC3F88820D4F8880002F0D2F8C5
:10117000FFF7A1FB1448FFF79EFB144B19880F4B98
:1011800089B21A880E4B92B2188800B2002801DC8E
:101190000A230AE0891A1A880BB223EAE37342F29F
:1011A00010714B4312B293FBF2F3C4F8903038BD88
:1011B000B00100205401002035460008AC01002099
:1011C0008A05002004000020B146000884050020A4
:1011D00038B5174B0122054683F82E20FFF774FF20
:1011E000022D144C02D1A36F013303E0012D02D173
:1011F000A36F013BA36700200146FFF72FFAA06F02
:1012000002F088F8FFF757FB0B48FFF754FB00206C
:101210000121FFF723FA094B0221188880B202F05E
:10122000B3F8FFF748FB0648BDE83840FFF743BB7B
:10123000B001002004000020AB4600088805002013
:10124000BC46000838B5174B0122054683F82E200E
:10125000FFF73AFF022D144C02D1236F013303E054
:10126000012D02D1236F013B236700200146FFF7C8
:10127000F5F9206F02F04EF8FFF71DFB0B48FFF762
:101280001AFB00200121FFF7E9F9094B0221188818
:1012900080B202F079F8FFF70EFB0648BDE838404F
:1012A000FFF709BBB001002004000020AB46000896
:1012B0008C050020BC46000838B5174B01220546B6
:1012C00083F82E20FFF700FF022D144C02D1A36EED
:1012D000013303E0012D02D1A36E013BA366002080
:1012E0000146FFF7BBF9A06E02F014F8FFF7E3FA2E
:1012F0000B48FFF7E0FA00200121FFF7AFF9094B97
:101300000221188880B202F03FF8FFF7D4FA0648AD
:10131000BDE83840FFF7CFBAB0010020040000203C
:10132000AB46000884050020BC46000838B5174BC2
:101330000122054683F82E20FFF7C6FE022D144C2D
:1013400002D1A36D013303E0012D02D1A36D013B56
:10135000A36500200146FFF781F9A06D01F0DAFFD7
:10136000FFF7A9FA0B48FFF7A6FA01210020FFF7C3
:1013700075F9094B188800B201F0CCFFFFF79BFA12
:101380000648BDE83840FFF796BA00BFB00100201C
:1013900004000020AB4600088A050020C046000873
:1013A00070B52D4D06460124002085F82E400146DB
:1013B000FFF754F995F82C50F5B9284B02211888FD
:1013C00080B201F0E1FFFFF776FA2548FFF773FAE4
:1013D00029460720FFF742F9224B188800B201F096
:1013E00099FFFFF768FA2048FFF765FA05202146C4
:1013F000FFF734F91D481DE01D4B0221188880B20B
:1014000001F0C2FFFFF757FA1548FFF754FA002121
:101410000720FFF723F9134B188800B201F07AFF79
:10142000FFF749FA1348FFF746FA06202146FFF76F
:1014300015F91148FFF73FFA022E0BD1064B93F82E
:101440002C301BB9BDE87040FFF73EBEBDE87040D0
:10145000FFF722BE70BD00BFB00100208405002050
:10146000BC4600088A050020C5460008CB46000897
:101470008C050020D0460008D7460008034B93F89F
:101480002D300BB9FFF720BEFFF706BEB0010020DC
:10149000084B4FF480321A6102221A61064B012276
:1014A00083F82C2083F82F20044B4FF400621A613C
:1014B000704700BF000C0140B0010020000801404F
:1014C00008B5FFF7E9FDBDE80840FFF7E1BF000000
:1014D00038B5174B0122054683F82E20FFF7F0FFA1
:1014E000022D144C02D1236E013303E0012D02D1F1
:1014F000236E013B236600200146FFF7AFF8206E04
:1015000001F008FFFFF7D7F90B48FFF7D4F90121E5
:101510000020FFF7A3F8094B188800B201F0FAFE8B
:10152000FFF7C9F90648BDE83840FFF7C4B900BF66
:10153000B001002004000020AB4600088A0500200E
:10154000C0460008084B4FF480321A614FF4003255
:101550001A61064B002283F82C2083F82F20044BBD
:101560004FF000621A617047000C0140B00100208A
:101570000008014008B5FFF7E5FFBDE80840FFF7A8
:101580008BBD000038B50F4C0F4D23889BB2B3F5CF
:10159000FA6F13D2FFF7EEFFAB788BB90123AB7074
:1015A0000A4B9A680A4B1A6402F062F820880949CB
:1015B00080B20222BDE8384002F09ABA0023AB7034
:1015C00038BD00BF8805002054010020B001002074
:1015D00004000020DB46000808B508480121FEF79A
:1015E00041FE48B105480121FEF747FEFFF73CFCEC
:1015F000BDE80840FFF7C6BF08BD00BF00140040AB
:1016000038B56F4B012193F83020044683F82E1033
:101610003AB91A7483F83010197683F831209A6039
:10162000DA61684B68491A88096A92B2644B8A4247
:101630005A8601D3002205E093F831200AB99A6A4C
:101640005A63012283F831209A6A5B6B5C4DD31A8E
:10165000032B06D995F831301BB1FFF78BFF002320
:101660002B76022C564B08D193F82C3013B9FFF788
:1016700027FF0FE0FFF77EFF0CE0012C0AD193F863
:101680003820013AD2B283F83820120602D503225C
:1016900083F838204A4C94F93800002835D10146A7
:1016A000FEF7DCFF474B0221188880B201F06CFE88
:1016B000FFF701F94548FFF7FEF8454B188800B2DF
:1016C00001F028FEFFF7F7F84248FFF7F4F894F826
:1016D0002C3013B90720012105E094F83930072098
:1016E0000121052B03D8FEF7B9FF022002E0FEF727
:1016F000B5FF03200121FEF7ADFF314B93F83920F0
:101700000A2A02D9002283F839202D4B93F9384058
:10171000012C13D100200146FEF7A0FF2E48FFF751
:10172000CAF8294B2146186A0A23B0FBF3F001F0EE
:101730002BFEFFF7C0F82948FFF7BDF8204C94F9BD
:101740003830022B1AD100200146FEF787FF2448CB
:10175000FFF7B1F81C4B98694FF46163B0FBF3F0ED
:1017600001F0D8FDFFF7A7F81E48FFF7A4F8032003
:101770000121FEF773FFE06BFFF758FC104C94F962
:101780003850032D1BD100200146FEF767FF164895
:10179000FFF791F8A0684FF46163B0FBF3F001F03C
:1017A000B9FDFFF788F81148FFF785F828460121B1
:1017B000FEF754FFE069BDE83840FFF737BC38BD9D
:1017C000B00100208C0500200400002035460008F0
:1017D0008A050020E3460008EC460008244600087D
:1017E000F8460008FB460008D846000804470008F1
:1017F00008B5274B0122022883F82E2007D193F841
:101800002C3013B9FFF75CFE01E0FFF7B3FE0020B8
:101810000146FEF723FF1F4B0221188880B201F01A
:10182000B3FDFFF748F81C48FFF745F81B4B188835
:1018300000B201F06FFDFFF73EF81948FFF73BF8E3
:10184000134B93F82C2012B90620012105E093F8E0
:10185000393006200121052B07D8FEF7FFFE0220B4
:101860000121FEF7F7FE022006E0FEF7F7FE032057
:101870000121FEF7EFFE03200121FEF7EBFE044BF2
:1018800093F839200A2A02D9002283F8392008BDAA
:10189000B00100208C050020354600088A05002094
:1018A000D046000808B5FFF74DFEBDE80840FFF739
:1018B0000BBC000070B5044600200146FEF7CEFECA
:1018C0006C4B012293F8301083F82E201D4619B975
:1018D00083F83020FFF748FB6A6A674D654E2B6B33
:1018E0009A420DD8FFF7DEFF644B1A88AB6A92B2BA
:1018F0009A4205D9FFF742FB726A2B6BD3187362C9
:101900005C4B5D4D596A2A6B1E46914209D9FFF71F
:10191000D7FD5A4B1A882B6A92B29A4201D2FFF72E
:101920002DFB554B726A996B1B6BCB189A4201D9F0
:10193000FFF724FB022C4F4B09D193F838200132DA
:10194000D2B2032A83F838200ED100220AE0012CFB
:101950000AD193F83820013AD2B2110683F8382020
:1019600002D5022283F83820424D95F93840002CE8
:1019700032D120462146FEF771FE404B02211888E5
:1019800080B201F001FDFEF796FF3D48FEF793FFA0
:101990003C4B188800B201F0BDFCFEF78CFF3A48C2
:1019A000FEF789FF06200121FEF758FE05200121E0
:1019B000FEF750FE95F82D500720012D05D1294640
:1019C000FEF74CFE2046294604E00121FEF746FEC4
:1019D00002200121FEF73EFE264B93F93840012CF0
:1019E00023D10020244D0146FEF738FE286901F07E
:1019F00091FCFEF760FF2548FEF75DFF286A0A2686
:101A00002146B0FBF6F001F0BFFCFEF754FF1C4886
:101A1000FEF751FFA86A2146B0FBF6F001F0B4FCD6
:101A2000FEF749FF1A48FEF746FF124C94F938308A
:101A3000022B1DD10020104D0146FEF70FFE286B32
:101A400001F068FCFEF737FF1248FEF734FFA86B81
:101A500001F060FCFEF72FFF0F48FEF72CFF03207C
:101A60000121FEF7FBFDE069BDE87040FFF7DEBA3B
:101A700070BD00BFB0010020040000208C050020D4
:101A8000354600088A0500200D4700081547000864
:101A900018470008554700081F470008F8B55C4D77
:101AA000012795F83060044685F82E70E6B9594B49
:101AB0001A88594B92B21B6A9A4207D385F8407034
:101AC000FFF7FEFCEE61AE602F7606E06E6185F8F2
:101AD0004060EE602F74FFF7E5FE4D4B012283F866
:101AE00030204E4801F0C4FF494B4FF0000293F8FC
:101AF0004010012922D11A741976464946480988AE
:101B0000006A89B28142598605D293F831200AB918
:101B10009A6A5A63012283F831209A6A5B6B3C4DC2
:101B2000D31A032B29D995F8313033B3FFF7BAFE16
:101B300000236B6185F84030EB601EE01A760122CD
:101B40001A745A69364B1B689A4206D8314B1A8868
:101B5000314B92B29B6A9A420FD9FFF7B1FC2C4BE2
:101B60000122D96983F840200022D963DA6198689C
:101B7000294983F8312088619A60022C244B09D1CD
:101B800093F838200132D2B2052A83F838200ED1DA
:101B900000220AE0012C0AD193F83820013AD2B28F
:101BA000100683F8382002D5042283F83820184D17
:101BB00095F93840002C42D120462146FEF74EFDD3
:101BC000144B0221188880B201F0DEFBFEF773FE91
:101BD0001448FEF770FE144B188800B201F09AFB0F
:101BE000FEF769FE1148FEF766FE06200121FEF7AA
:101BF00035FD04200121FEF72DFD95F82D5007201D
:101C0000012D15D12946FEF729FD2046294614E06D
:101C1000B00100208C0500200400002024470008AB
:101C2000C4050020354600088A0500200D4700083D
:101C30000121FEF713FD02200121FEF70BFD524B9F
:101C400093F93840012C23D10020504D0146FEF776
:101C500005FD286901F05EFBFEF72DFE4C48FEF7FE
:101C60002AFE286A0A262146B0FBF6F001F08CFB1A
:101C7000FEF721FE4748FEF71EFEA86A2146B0FB8C
:101C8000F6F001F081FBFEF716FE4348FEF713FE67
:101C90003D4C94F93850022D21D100200146FEF729
:101CA000DDFC28460121FEF7D5FC00210120FEF7CE
:101CB000D5FC3A48FEF7FFFDA0684FF46163B0FB26
:101CC000F3F001F027FBFEF7F6FD3548FEF7F3FDD4
:101CD00003200121FEF7C2FCE069FFF7A7F92A4CB7
:101CE00094F93850032D22D100200146FEF7B6FCAE
:101CF00002200121FEF7AEFC00210120FEF7AEFC20
:101D00002848FEF7D8FD214B98694FF46163B0FB7A
:101D1000F3F001F0FFFAFEF7CEFD2148FEF7CBFD10
:101D200028460121FEF79AFCE06BFFF77FF9164C7D
:101D300094F93830042B21D100200146FEF78EFCA7
:101D400000200121FEF786FC00210120FEF786FC21
:101D50001548FEF7B0FDE0684FF46163B0FBF3F0A7
:101D600001F0D8FAFEF7A7FD0D48FEF7A4FD032009
:101D70000121FEF773FC6069FFF758F96420BDE8A4
:101D8000F840FEF77ABE00BFB0010020040000203A
:101D9000154700083546000818470008D8460008CF
:101DA00004470008F84600083347000838B58B4B55
:101DB000012193F83020044683F82E102AB91974B3
:101DC00083F830101A76DA605A615A69844B1B68BE
:101DD0009A4205D9FFF7CEFB804B00221A7416E019
:101DE0008049814A0888936A80B2984202D9FFF7F5
:101DF000C1FB0CE0D2F8802064205A430988B2FB72
:101E0000F0F289B29B1A994201D2FFF74BFD022CE6
:101E1000724B08D193F82C3013B9FFF743FD0FE054
:101E2000FFF7A8FB0CE0012C0AD193F83820013A07
:101E3000D2B2140683F8382002D5032283F8382062
:101E4000664C94F93800002852D10146FEF706FC92
:101E500094F82C30A3B9654B0221188880B201F0A8
:101E600093FAFEF728FD6248FEF725FD5D4B02213F
:101E7000188880B201F088FAFEF71DFD5D4812E077
:101E8000584B0221188880B201F07EFAFEF713FD4C
:101E90005748FEF710FD584B188800B201F03AFA87
:101EA000FEF709FD5548FEF706FD4C4B93F82C4014
:101EB0002CB907200121FEF7D1FB204608E093F85A
:101EC000393007200121052B04D8FEF7C7FB00207D
:101ED000012103E0FEF7C2FB01200146FEF7BAFB39
:101EE0003E4B93F839200A2A02D9002283F8392080
:101EF0003A4B93F93840012C1BD1002001463A4D52
:101F0000FEF7ACFB3E48FEF7D6FC286901F002FA6A
:101F1000FEF7D1FC3B48FEF7CEFCA86A0A23B0FBD3
:101F2000F3F0214601F030FAFEF7C5FC3148FEF728
:101F3000C2FC2A4B93F93830022B2BD12A4C0020BB
:101F40000146FEF78BFBD4F8800001F0E3F9FEF7C1
:101F5000B2FC2D48FEF7AFFCA06A0A250121B0FBB8
:101F6000F5F001F011FAFEF7A6FC2148FEF7A3FCFC
:101F7000A36AD4F8800064225843B0FBF2F01B1A25
:101F8000B3FBF5F0012101F0FFF9FEF794FC1948CD
:101F9000FEF791FC114C94F93850032D19D1002013
:101FA0000146FEF75BFB1948FEF785FCE0684FF43D
:101FB0006163B0FBF3F001F0ADF9FEF77CFC14486F
:101FC000FEF779FC28460121FEF748FB6069FFF720
:101FD0002DF86420BDE83840FEF74FBDB001002069
:101FE000C40500208C05002004000020840500208A
:101FF00035460008244600088A050020E34600080C
:1020000036470008394700083246000833470008C1
:102010000447000838B5694B012193F83020044685
:1020200083F82E102AB9197483F830101A76DA6002
:102030005A615A69624B1B689A4206D8614B1A88EA
:10204000614B92B29B6A9A4204D9FFF793FA5B4BB9
:1020500000221A74022C594B08D193F82C3013B972
:10206000FFF720FC0FE0FFF785FA0CE0012C0AD106
:1020700093F83820013AD2B283F83820120602D5FC
:10208000022283F838204D4C94F93800002852D1B0
:102090000146FEF7E3FA94F82C30A3B94B4B02212A
:1020A000188880B201F070F9FEF705FC4848FEF789
:1020B00002FC444B0221188880B201F065F9FEF75A
:1020C000FAFB444812E03F4B0221188880B201F02D
:1020D0005BF9FEF7F0FB3E48FEF7EDFB3E4B188840
:1020E00000B201F017F9FEF7E6FB3C48FEF7E3FB10
:1020F000324B93F82C402CB907200121FEF7AEFAA1
:10210000204608E093F8393007200121052B04D838
:10211000FEF7A4FA0020012103E0FEF79FFA012058
:102120000146FEF797FA254B93F839200A2A02D97F
:10213000002283F83920214B93F93840012C1BD120
:1021400000200146204DFEF789FA2548FEF7B3FB33
:10215000286901F0DFF8FEF7AEFB2248FEF7ABFB83
:10216000A86A0A23B0FBF3F0214601F00DF9FEF74F
:10217000A2FB1D48FEF79FFB104C94F93830022B50
:102180001BD100200146FEF769FA1848FEF793FBC1
:10219000E0684FF46163B0FBF3F001F0BBF8FEF7C9
:1021A0008AFB1348FEF787FB03200121FEF756FA4E
:1021B0006069BDE83840FEF739BF38BDB001002086
:1021C000C40500208C0500200400002084050020A8
:1021D00035460008184700088A0500200D4700080A
:1021E00036470008394700082446000833470008EE
:1021F00041470008034B93F82F300BB9FFF748B95C
:10220000FFF7A0B9B0010020F8B59B4B01220228CE
:1022100083F82E200BD193F841200132D2B2082A44
:1022200083F8412017D1002283F8412013E00128D0
:1022300011D193F84130023BDBB2012B02D8FFF7FA
:102240001DF901E0FEF728FF8B4B93F94130042B79
:1022500001D1FFF7CFFF884B93F94100F0B9014658
:10226000FEF7FCF98548FEF726FB854B012118880F
:102270000A2380B2B0FBF3F001F086F8FEF71BFBF7
:102280008048FEF718FB804B0221188880B201F0CD
:102290007BF8FEF710FB7D48FEF70DFB764B93F9BC
:1022A0004130012B1BD100200146FEF7D7F97848B9
:1022B000FEF701FB774B0221188880B201F064F829
:1022C000FEF7F9FA7448FEF7F6FA744BD88880B234
:1022D00001F020F8FEF7EFFA7148FEF7ECFA664BD2
:1022E00093F94140022C1BD100200146FEF7B6F9BC
:1022F0006C48FEF7E0FA6C4B2146188880B201F07A
:1023000043F8FEF7D8FA6448FEF7D5FA634B98888D
:1023100080B200F0FFFFFEF7CEFA6148FEF7CBFA7D
:10232000554B93F94130032B1AD100200146FEF79B
:1023300095F95E48FEF7BFFA5D4B188800B200F0D1
:10234000E9FFFEF7B8FA5B48FEF7B5FA534B588839
:1023500080B200F0DFFFFEF7AEFA5148FEF7ABFAAD
:10236000454B93F94130042B1AD100200146FEF76A
:1023700075F95148FEF79FFA504B188800B200F0EB
:10238000C9FFFEF798FA4B48FEF795FA434B1888B9
:1023900080B200F0BFFFFEF78EFA4148FEF78BFADD
:1023A000354B93F94130052B3ED13A4D444CFEF765
:1023B0008BFE2988238889B29BB23D4FCB1A42F20B
:1023C00010714B433A883F4E12B2002093FBF2F358
:1023D0000146C6F89030FEF741F93B48FEF76BFA2C
:1023E000D6F8880000F096FFFEF765FA3748FEF74A
:1023F00062FAD6F8900000F08DFFFEF75CFA3448E0
:10240000FEF759FA3888334900B2002201F070FB18
:102410002888314980B2022201F06AFB20882F49C6
:1024200080B2022201F064FB134C94F94130062B78
:1024300006D100200146FEF711F9A06AFEF7A8FDBB
:1024400094F94130072B15D100200146FEF706F91B
:102450002348FEF730FA084B586C4FF46163B0FB29
:10246000F3F000F057FFFEF726FA1E48BDE8F840EB
:10247000FEF721BAF8BD00BFB001002049470008AF
:10248000880500204E47000886050020AA4600085F
:10249000534700088405002035460008C805002081
:1024A000A8460008584700088C0500205E47000831
:1024B0008A0500206447000868470008AA01002038
:1024C000AC010020040000206F470008724700089C
:1024D000774700087F470008834700088A470008BD
:1024E0009247000899470008F8B500F0BDFDFFF7D6
:1024F00041F8A348FEF7DFF9FEF729F9002001466D
:10250000FEF7ACF84FF4FA60FEF7B7FA01F078F98D
:1025100068B94FF47A70FEF7B0FA01F071F930B98A
:102520009848FEF7C8F94FF47A60FEF7A6FA964C81
:10253000964B226C92485A6423694FF461625A4365
:10254000934B1A60934BA2681A6001F091FAFDF761
:10255000BFFEFEF76CF89048FDF702FEA368012B62
:1025600017D0022B01D18D4814E0032B01D18C48E8
:1025700010E0042B01D18B480CE0052B01D18A48D7
:1025800008E0062B01D1894804E0072B01D18848D7
:1025900000E08848FDF7CCFD7C4D864E002795F87D
:1025A000393085F82E70013385F83930FEF78CFC10
:1025B0000228044607D0032809D001280FD1FDF7CF
:1025C000B1FD406809E0FDF7ADFD006805E00220BF
:1025D000FDF7D0FDFDF7A6FDC068FDF7A9FDFDF7ED
:1025E000A1FDB04202D12046FEF7DAFEFDF79AFDCA
:1025F0006A4B984202D12046FFF7FAF8FDF792FDA8
:10260000674B984202D12046FFF704FDFDF78AFD93
:10261000644B984202D12046FFF7C8FBFDF782FDCC
:10262000614B984202D12046FEF7EAFFFDF77AFDA2
:102630005E4B984202D12046FFF730FAFDF772FD5B
:102640005B4B984202D12046FFF734F9FDF76AFD53
:10265000594B984202D12046FFF7D6FDFDF762FDA7
:10266000564B984202D12046FEF756FAFDF75AFD26
:10267000534B984202D12046FEF72AFAFDF752FD4D
:10268000504B984202D12046FEF722FFFDF74AFD4B
:102690004D4B984202D12046FEF748FEFDF742FD21
:1026A0004A4B984202D12046FEF792FDFDF73AFDD3
:1026B000474B984202D12046FEF7C4FDFDF732FD9C
:1026C000444B984202D12046FEF7F6FDFDF72AFD65
:1026D000414B984202D12046FEF70CFDFDF722FD4A
:1026E0003E4B984202D12046FEF73AFAFDF71AFD1A
:1026F0003B4B984202D12046FEF76CFAFDF712FDE3
:10270000384B984202D12046FEF78AFAFDF70AFDBF
:10271000354B984202D12046FEF7A4FAFDF702FDA0
:10272000324B984202D12046FEF7BEFAFDF7FAFC82
:102730002F4B984202D12046FEF7D4FAFDF7F2FC67
:102740002C4B984202D12046FEF7EAFAFDF7EAFC4C
:10275000294B984202D12046FEF73CFB95F82E40CB
:1027600054B9FEF707FFAA68074B85F830409A6115
:10277000EB6985F83840EB636420FEF77EF90EE7DD
:1027800057010020A747000804000020B0010020E6
:10279000C4050020D80500206F0A0008383D000855
:1027A000643D0008903D0008BC3D0008E83D00087D
:1027B000143E00080C3D0008403E00086C3E000836
:1027C000983E0008C43E0008F03E00081C3F000888
:1027D000383F0008643F0008903F0008AC3F000805
:1027E000C83F0008F43F0008204000084C400008A3
:1027F00078400008A4400008D040000870B592B0AE
:102800007E2312A9002621F8043D48488DF8476030
:10281000FEF7D0F801214FF4007000F03BFB0120DF
:10282000014600F02BFB424B082502934FF48063D6
:10283000089380230693202309933E4B3E4801933F
:102840004FF48073079301A94FF400530A93049542
:1028500003960B96059600F010FE0121364800F015
:102860002AFE4FF4004000F0B7FA01244FF4602331
:1028700032480CA90E938DF835400F960C968DF8C2
:1028800040508DF8344000F011FC07232B482146BE
:10289000224600F05CFC02210A460723274800F08C
:1028A00056FC03210A460723244800F050FC04216B
:1028B0000A460723214800F04AFC05210A4607235F
:1028C0001E4800F044FC06210A4607231B4800F07E
:1028D0003EFC204600F08AFC0722134617481121CF
:1028E00000F035FC2A4604231448102100F02FFC88
:1028F0001248214600F0FEFB1048214600F003FC80
:102900000E4800F009FC0D4800F00BFC0028FAD13D
:102910000A4800F00AFC094800F00CFC0028FAD133
:102920000648012100F00AFC12B070BD0008014009
:10293000C80500204C24014008000240002401404A
:102940001FB50121022000F0B1FA0E4C01A8FDF7DD
:102950006BFC45F6BF53ADF804302046052301A9B2
:10296000ADF80830FDF716FC01210A462046FDF7B8
:1029700070FC20460121FDF760FC034B4FF0005234
:102980001A601FBD0004004000E100E0224A234B12
:1029900091682DE9F04108319160C91A002808BFFB
:1029A0000120A729C8BF9360936812681E689A42E5
:1029B00008BF194A184C08BF1660194F2268988042
:1029C00015252146BC46D2F800809845B2F804800F
:1029D00008BF1660804503D2086818600B600020AD
:1029E000BA42246814D01168D1F800809845B1F833
:1029F000048008BF0E60804503D210681860136021
:102A00000020614504D0013DADB20A68002DDAD145
:102A1000A088BDE8F08100BF6801002018020020F6
:102A2000C0020020234A244B51692DE9F0410831AE
:102A30005161C91A002808BF0120B1F5A47FA8BFC1
:102A400053615369D2681E689A4208BF194A1949EE
:102A500008BFD66051F80C2F184F988029250C46D6
:102A6000BC46D2F800809845B2F8048008BF1660D2
:102A7000804503D22068186023600020BA420968AC
:102A800014D01468D4F800809845B4F8048008BFC6
:102A90002660804503D210681860136000206445EA
:102AA00004D0013DADB22268002DDAD18888BDE89E
:102AB000F08100BF68010020C8020020100400203F
:102AC000234A244B116A2DE9F04108311162C91AD9
:102AD000002808BF0120B1F5A47FA8BF1362136AC4
:102AE00092691E689A4208BF194A194908BF96613F
:102AF00051F8182F184F988029250C46BC46D2F85B
:102B000000809845B2F8048008BF1660804503D263
:102B10002068186023600020BA42096814D0146845
:102B2000D4F800809845B4F8048008BF266080453A
:102B300003D21068186013600020644504D0013D82
:102B4000ADB22268002DDAD18888BDE8F08100BFDF
:102B50006801002018040020600500200F49D1F80A
:102B60005433D1F85023C1F858339342C1F8542359
:102B7000C1F8500307DC834203DC9042A8BF104633
:102B800070479A4205DC824203DC9842A8BF18468F
:102B900070479A42B4BF104618467047180200208A
:102BA0000F49D1F86033D1F85C23C1F86433934204
:102BB000C1F86023C1F85C0307DC834203DC904268
:102BC000A8BF104670479A4205DC824203DC984257
:102BD000A8BF184670479A42B4BF104618467047BF
:102BE000180200202DE9F74371480121FDF73AFB57
:102BF000002800F0D9806F4C0121D4F868336C486C
:102C00000133C4F86833FDF738FB00250220ADF826
:102C10000450ADF8065000F061FC022000F068FCA2
:102C2000654E02212A46654800F050FC644BF1884D
:102C30009B6E89B24B43B28992B2B3FBF2F39BB263
:102C4000ADF80630BDF8060080B2FFF739FFA4F8F2
:102C50006C03B4F86C334FF4F0229BB2022B98BF94
:102C6000A4F86C53B389564D9BB292FBF3F39BB21D
:102C7000A4F86E33B1882B6F89B24B43B28992B2FC
:102C8000B3FBF2F39BB2ADF80630BDF8060080B29C
:102C9000FFF77CFE80B2ADF80400BDF80420494B7C
:102CA00092B21A80BDF804301BB2022B02DC002362
:102CB000ADF80430404CAB6F2189A28989B24B43F7
:102CC00092B2B3FBF2F39BB2ADF80630BDF806004A
:102CD000DFF8E08000B2FFF763FFAB6D80B24FF02A
:102CE0000A09A8F8700309FB03F36188A28989B275
:102CF0004B4392B2B3FBF2F39BB2ADF80630BDF892
:102D00000600314F80B2FFF78DFE296E80B2388009
:102D100009FB01F92288A38992B202FB09F99BB24F
:102D2000B9FBF3F91FFA89F9ADF80690BDF8060072
:102D3000234E00B2FFF712FF244B80B2244A1880C2
:102D40009268920753BF3A881B88326DB36CD31ACE
:102D50009BB2A8F87233174AB8F87233184BBDF813
:102D60000410B2F87223D3F8883012B25343194AD0
:102D700093FBF2F35B189BB2ADF80430BDF804305E
:102D80001BB2022B02DC0023ADF80430BDF8042096
:102D9000084B92B20948A3F874230221012203B020
:102DA000BDE8F04300F092BB03B0BDE8F08300BF84
:102DB0000004004018020020C8050020080002405E
:102DC00004000020AC010020A8010020AA0100207E
:102DD000000C0140F0D8FFFF034B5A6822F4404238
:102DE00010435860704700BF0010024010B51F4BE1
:102DF0005A6802F00C02042A01D0082A02D01C4BA7
:102E0000036011E05A685968C2F383420232C90371
:102E100001D4184B06E0DB6A154903F00F030133B8
:102E2000B1FBF3F35A430260104A134B5168046834
:102E3000C1F30311595C24FA01F141605468C4F3F1
:102E400002241C5D21FA04F484605468C4F3C22493
:102E50001C5D21FA04F1C1605268C2F381329B18F3
:102E60001B7CB1FBF3F1016110BD00BF00100240FB
:102E700000127A0000093D008C010020044B5A69C1
:102E800009B1104301E022EA00005861704700BF19
:102E900000100240044B9A6909B1104301E022EA94
:102EA00000009861704700BF00100240044BDA69CF
:102EB00009B1104301E022EA0000D861704700BF69
:102EC0000010024008B501210820FFF7E3FF214B65
:102ED0001A6822F003021A601A6822F00C021A60C3
:102EE0001A6842F002021A601A6822F00C021A6094
:102EF000194A516821F003015160516821F00C0119
:102F00005160516841F002015160516821F00C019B
:102F10005160516821F440515160516821F44041A1
:102F20005160516841F400515160516821F44041B1
:102F300051601A6822F030021A601A6822F0C0024A
:102F40001A601A6842F020021A601A6822F0C00261
:102F50001A6008BD000C01400008014008B50820B7
:102F60000121FFF797FF164B1A6822F440121A60EE
:102F70001A6822F440021A601A6842F400021A60C9
:102F800020221A611A6822F440321A601A6822F468
:102F900040221A601A6842F400221A6010221A6154
:102FA0001A6822F040721A601A6822F040621A60B1
:102FB0001A6842F000621A6040221A6108BD00BF20
:102FC000000C01401FB501212020FFF76FFF0E4CC0
:102FD00001A8FDF729F940F65F13ADF8043020464B
:102FE0000A2301A9ADF80830FDF7D4F801210A46FB
:102FF0002046FDF72EF920460121FDF71EF9034B6F
:103000004FF400025A601FBD0014004000E100E0D0
:103010001FB501214FF40030FFF73CFF01A8FDF779
:1030200003F90F4C0023ADF8063045F6BF53ADF859
:10303000043020464FF47A7301A9ADF80830FDF74B
:10304000A9F801210A462046FDF703F9204601218F
:10305000FDF7F3F8034B4FF000721A601FBD00BF7D
:103060000044014000E100E008B504200121FFF721
:1030700011FF08200121FFF70DFF10200121FFF7AC
:1030800009FFFDF727FC00F053FCFFF71BFFFFF7DC
:1030900065FFFFF797FFFFF753FCFFF7B9FFFFF757
:1030A00011FFBDE80840FFF7A9BB000043680A68AC
:1030B00023F4702323F4807313430A7910B543EA91
:1030C000022343608A68CB6884681A43084B234014
:1030D00013434A7943EA420383600B7CC26A013B93
:1030E00022F47002DBB242EA0353C36210BD00BF98
:1030F000FDF7F1FF836811B143F0010301E023F014
:10310000010383607047836811B143F4807301E069
:1031100023F4807383607047836843F008038360FF
:1031200070478068C0F3C0007047836843F00403B1
:10313000836070478068C0F380007047836811B176
:1031400043F4A00301E023F4A0038360704709293E
:1031500070B54FF003040DD94C4307251E3C05FA0A
:1031600004F503FA04F3C66826EA050545EA0304F4
:10317000C4600BE04C43072505FA04F503FA04F498
:10318000066926EA050545EA04030361062A4FF0AD
:1031900005030CD8013A53431F2202FA03F201FA45
:1031A00003F3446B24EA02021343436370BD0C2A09
:1031B0000DD853431F22233B02FA03F201FA03F115
:1031C000046B24EA020242EA0103036370BD534325
:1031D0001F22413B02FA03F201FA03F1C46A24EA16
:1031E000020242EA0103C36270BD0000044B9A6808
:1031F00010B142F4000201E022F400029A6070472C
:103200000024014030B5038ACA8823F440531B04CC
:103210001B0C134303820D4683890989AA8823F472
:10322000B0530A43698923F00C030A431B041B0CA7
:1032300092B213438381838AAA8923F440731B04C7
:103240001B0C87B013430446838201A8FFF7CEFD11
:10325000174BA2899C420CBF049B039B12B2002A0D
:103260004FF019012A6801FB03F101DA520000E076
:1032700092006423B1FBF2F1B1FBF3F212011009E9
:1032800003FB1011A08900B2002806DAC900323110
:10329000B1FBF3F303F0070305E009013231B1FBA1
:1032A000F3F303F00F031A4392B2228107B030BD4B
:1032B00000380140838919B19BB243F4005303E005
:1032C00023F400531B041B0C83817047C1F342138A
:1032D00010B5012401F01F01A34204FA01F101D14C
:1032E0000C3004E0022B01D1103000E014300368F0
:1032F0000AB1194301E023EA0101016010BDC905CB
:10330000C90D81807047038819420CBF002001203D
:10331000704700007FB580EAE072A2EBE0720DF129
:10332000FF3500230A2492FBF4F104FB1122303212
:1033300005F8012F1E4601330A1EDBB2F3DC00281C
:1033400007DA5BB204A8C3182D2203F8102CB31CB3
:10335000DBB25AB204A88118002001F8100C6844AE
:103360008118074811F8014C013BDBB2013900F824
:10337000014F002BF6D10348835404B070BD00BF49
:103380009B0500209C050020F0B58BB080EAE0731F
:10339000A3EBE0730DF1FF3600220A2593FBF5F451
:1033A00005FB1433303306F8013F17460132231E64
:1033B000D2B2F3DC53B20AADEC180025012B04F8AD
:1033C000285C04D13023BA1C8DF80130D2B2022A15
:1033D00005D1012903D930238DF8023003220024BE
:1033E0000DF1280C23460CEB01062E2552B25FB2DC
:1033F0008F4203D1013306F8145CDBB25FB20DF1EA
:10340000280C67441DF804C0013407F814CC67B2D7
:1034100001339742DBB2EADB002807DA5AB20AA985
:103420008A1801332D2102F8141CDBB259B205AD04
:10343000084800226C1804E0A55C013B00F8015F1D
:10344000DBB2013A002BF7D1034841180B7410305E
:103450000BB0F0BDAB0500209C050020002802D079
:1034600001DC404200B270470346002001E0013019
:10347000C0B21A5C002AFAD170478B6810B50C6A8A
:10348000026823430C6922F4FE4223434C6922F074
:10349000F00223438C692343CC6923434C6A2343C2
:1034A0008C6A234313430360CB6843600B688360DB
:1034B0004B68C36010BD19B1036843F0010303E01A
:1034C00002684FF6FE7313400360704703680AB149
:1034D000194301E023EA010101607047C2004CBFBB
:1034E000014B024B5860704700040240000002404C
:1034F000C3004CBF014B024B5860704700040240B0
:1035000000000240C37810B5F3B1154B4178DB6879
:103510008478DB43C3F30223C3F1040201FA02F10E
:103520000F2222FA03F222400A430E4B01781201C5
:10353000CB18D2B283F8002303780122590903F093
:103540001F0302FA03F307E003780122590903F08D
:103550001F0302FA03F32031024A42F8213010BD62
:1035600000ED00E000E100E00F4AD36813F0010F26
:103570000D4BFAD1DA68920601D52022DA601A6979
:1035800042F002021A6158611A6942F040021A615F
:10359000054AD168044B8906FBD52022DA601A69F6
:1035A00022F002021A61704700200240034B044AD5
:1035B0005A6002F188325A60704700BF0020024012
:1035C00023016745024B1A6942F080021A61704775
:1035D00000200240124AD36813F0010F104BFAD1B9
:1035E000DA68920601D52022DA601A6942F00102F7
:1035F0001A618BB203800A4BDA6812F0200F084A76
:10360000FAD02023090CD3604180D168044B89068D
:10361000FBD52022DA601A6922F001021A61704794
:103620000020024070B504680E468C4201D39442DB
:1036300011D90A4B00251D7009492A4600F058FA95
:10364000204608492A4600F053FA074807492A4607
:1036500000F04EFA3446204670BD00BFA0010020A5
:10366000B8470008CF47000800F00108E14700080C
:1036700010B52F4CFFF79AFF6068FFF775FF606881
:103680002168FFF7A7FFE068A168FFF7A3FF606963
:103690002169FFF79FFFE069A169FFF79BFF606A5F
:1036A000216AFFF797FFE06AA16AFFF793FF606B5B
:1036B000216BFFF78FFFE06BA16BFFF78BFF606C57
:1036C000216CFFF787FFE06CA16CFFF783FF606D53
:1036D000216DFFF77FFFE06DA16DFFF77BFF606E4F
:1036E000216EFFF777FFE06EA16EFFF773FF606F4B
:1036F000216FFFF76FFFE06FA16FFFF76BFFD4F84B
:103700008400D4F88010FFF765FFD4F88C00D4F85B
:103710008810FFF75FFFD4F89400D4F89010FFF7FB
:1037200059FFFFF74FFF034800F0A2F9012010BD39
:1037300004000020F847000810B52F4CFFF736FFB3
:103740006068FFF711FF60682168FFF743FFE068DA
:10375000A168FFF73FFF60692169FFF73BFFE06960
:10376000A169FFF737FF606A216AFFF733FFE06A5C
:10377000A16AFFF72FFF606B216BFFF72BFFE06B58
:10378000A16BFFF727FF606C216CFFF723FFE06C54
:10379000A16CFFF71FFF606D216DFFF71BFFE06D50
:1037A000A16DFFF717FF606E216EFFF713FFE06E4C
:1037B000A16EFFF70FFF606F216FFFF70BFFE06F48
:1037C000A16FFFF707FFD4F88400D4F88010FFF74B
:1037D00001FFD4F88C00D4F88810FFF7FBFED4F872
:1037E0009400D4F89010FFF7F5FEFFF7EBFE0348C6
:1037F00000F03EF9012010BD9C00002006480008A2
:1038000070B5454C01210A22E068FFF70BFF01214A
:10381000A0604FF47A726069FFF704FF0021206115
:103820003E4AE069FFF7FEFE0121A0614FF47A6293
:10383000606AFFF7F7FE012120624FF47A62E06AC6
:10384000FFF7F0FE0021A06242F21072606BFFF7FA
:10385000E9FE0021206342F21072E06BFFF7E2FE06
:103860000021A0632D4A606CFFF7DCFE002120647C
:103870004FF47A72E06CFFF7D5FE0021A0644FF49C
:103880007A72606DFFF7CEFE0A212065244AE06D52
:10389000FFF7C8FE0A21A065214A606EFFF7C2FE4D
:1038A0000A2120661E4AE06EFFF7BCFE0A21A066D0
:1038B0001B4A606FFFF7B6FE0A212067184AE06FC7
:1038C000FFF7B0FE0021A0676422D4F88400FFF760
:1038D000A9FE4621C4F88000C822D4F88C00FFF766
:1038E000A1FE0A21C4F88800C822D4F89400FFF78A
:1038F00099FE0C4DC4F890002E7801242EB90A4888
:1039000000F0B6F82C70304670BD084800F0B0F8F2
:103910002C70204670BD00BF0400002040420F0004
:10392000A0860100A00100202048000839480008B6
:1039300030B54FF4164387B0009300231C46ADF812
:103940000430ADF80630ADF80830ADF80C30042086
:103950000C230121ADF80A30FFF79CFA01214FF446
:103960008040FFF797FA4FF4C063154DADF8103063
:1039700018238DF8133004A9032312488DF8123050
:10398000FDF718F869462846FFF73CFC25238DF81B
:1039900014308DF816402223012405A88DF8153027
:1039A0008DF81740FFF7AEFD28462146FFF782FC51
:1039B000284640F225512246FFF788FC07B030BD6B
:1039C00000380140000801400A4B1A78C72A0FD876
:1039D0005A78094988541A780132D2B21A705A7842
:1039E0000132D2B25A705A78C82A01D100225A70D4
:1039F000704700BFBD050020DC05002010B5194C44
:103A00002388980603D5A088C0B2FFF7DDFF23887E
:103A1000144A19061AD5144B997889B1D9781348E4
:103A2000415C91809A78013AD2B29A70DA78013288
:103A3000D2B2DA70DA78C82A08D10022DA7005E04A
:103A4000938923F080031B041B0C9381054A138880
:103A50005B0605D5138823F040031B041B0C138061
:103A600010BD00BF00380140BD050020A4060020A5
:103A700010B504460AE00D488021FFF744FC0028F9
:103A8000F9D014F8011B0948FFF739FC2378002B03
:103A9000F1D106488021FFF736FC0028F9D0034811
:103AA0000A21BDE81040FFF72ABC00BF00380140E2
:103AB00082B0064B8DF807001A885206FCD59DF897
:103AC0000720024B9A8002B0704700BF00380140C7
:103AD000064B1A4605E019884906FCD510F8011B6B
:103AE000918001780029F6D1704700BF003801406D
:103AF00037B501900C46019812B9FFF70BFC02E0B4
:103B00001146FFF741FC05462046FFF7E1FF284636
:103B1000FFF7DEFF0A2003B0BDE83040FFF7C8BF63
:103B20000000000000000000000000000000000095
:103B3000000000000000000044656661756C74566A
:103B4000616C75657346726F6D454570726F6D4F30
:103B5000724E6F7441667465724275726E696E67FB
:103B6000203D004F7074696F6E31203D00426174DA
:103B700074657279436170616369747944697363D0
:103B8000686172676550726576696F757356616CAE
:103B90007565203D004C6F77566F6C7461676520CA
:103BA0003D004D6178566F6C74616765203D005330
:103BB00077696E675F436872675F74696D65203D02
:103BC000005377696E675F44436872675F74696D1D
:103BD00065203D0042617474657279436170616370
:103BE0006974794469736368617267654375727259
:103BF000656E74203D0043616C6962726174696F27
:103C00006E3056616C7565466F7243757272656E83
:103C100074203D0043616C6962726174696F6E303B
:103C200056616C7565466F7243757272656E74315C
:103C3000203D0043616C6962726174696F6E566108
:103C40006C7565466F7243757272656E74203D00C7
:103C500043616C6962726174696F6E56616C7565FF
:103C6000466F7243757272656E7431203D00436118
:103C70006C6962726174696F6E56616C7565466FCE
:103C800072566F6C74616765203D0043616C6962B8
:103C9000726174696F6E56616C7565466F72566FAE
:103CA0006C7461676531203D0043616C69627261CB
:103CB00074696F6E56616C7565466F72566F6C7481
:103CC00061676532203D00436861726765416461E8
:103CD0007074203D00526573697374616E6365434F
:103CE0006F6D705F497368756E745F576972657345
:103CF000203D00526573697374616E6365436F6D37
:103D0000705F4D4F53464554203D0000203B000856
:103D1000203B0008203B000874450008000000001C
:103D20000000000020202020202020202020202013
:103D30002020202000000000203B0008203B00083D
:103D4000203B00084845000800000000000000007B
:103D50002020202020202020202020202020202063
:103D600000000000203B0008203B0008203B00082A
:103D70001C4500080000000000000000202020205A
:103D800020202020202020202020202000000000B3
:103D9000203B0008203B0008203B0008F0440008BE
:103DA0000000000000000000202020202020202013
:103DB000202020202020202000000000203B0008A0
:103DC000203B0008203B0008C4440008000000001D
:103DD0000000000020202020202020202020202063
:103DE0002020202000000000203B0008203B00088D
:103DF000203B00089844000800000000000000007C
:103E000020202020202020202020202020202020B2
:103E100000000000203B0008203B0008203B000879
:103E20006C4400080000000000000000202020205A
:103E30002020202020202020202020200000000002
:103E4000203B0008203B0008203B000840440008BD
:103E50000000000000000000202020202020202062
:103E6000202020202020202000000000203B0008EF
:103E7000203B0008203B00085C42000800000000D6
:103E80006B0A000820202020202020202020202035
:103E90002020202000000000203B0008203B0008DC
:103EA000203B000888420008000000006B0A000860
:103EB0002020202020202020202020202020202002
:103EC00000000000203B0008203B0008203B0008C9
:103ED00004420008000000006B0A00082020202097
:103EE0002020202020202020202020200000000052
:103EF000203B0008203B0008203B0008304200081F
:103F0000000000006B0A0008202020202020202034
:103F1000202020202020202000000000203B00083E
:103F2000203B0008203B0008804100080000000002
:103F30006B0A000800000000203B0008203B00083E
:103F4000203B0008AC410008000000006B0A00089C
:103F50002020202020202020202020202020202061
:103F600000000000203B0008203B0008203B000828
:103F7000D8410008000000006B0A00082020202023
:103F800020202020202020202020202000000000B1
:103F9000203B0008203B0008203B0008544100085B
:103FA000000000006B0A000800000000203B000831
:103FB000203B0008203B00082841000800000000CA
:103FC0000000000000000000203B0008203B00082B
:103FD000203B0008E8430008000000006B0A0008CE
:103FE00020202020202020202020202020202020D1
:103FF00000000000203B0008203B0008203B000898
:10400000BC430008000000006B0A000820202020AC
:104010002020202020202020202020200000000020
:10402000203B0008203B0008203B0008904300088C
:10403000000000006B0A0008202020202020202003
:10404000202020202020202000000000203B00080D
:10405000203B0008203B00086443000800000000EB
:104060006B0A000820202020202020202020202053
:104070002020202000000000203B0008203B0008FA
:10408000203B000838430008000000006B0A0008CD
:104090002020202020202020202020202020202020
:1040A00000000000203B0008203B0008203B0008E7
:1040B0000C430008000000006B0A000820202020AC
:1040C0002020202020202020202020200000000070
:1040D000203B0008203B0008203B0008E04200088D
:1040E00000000000A10A000820202020202020201D
:1040F00020202020202020200000000088420008EE
:1041000028410008203B000814440008000000007B
:10411000000000004F4B20746F20657869742020E8
:104120002020202000000000FC400008544100082E
:10413000203B0008AC3F0008000000000000000029
:104140004261636B20746F20466163746F727920E3
:10415000000000002841000880410008203B0008C2
:10416000903F0008000000000000000052657369E5
:10417000737420636F6D702035563141000000006C
:1041800054410008AC410008203B00081C3F0008D7
:104190000000000000000000566F6C74616765202D
:1041A000496E2020202020200000000080410008CF
:1041B000D8410008203B0008383F000800000000FC
:1041C00000000000566F6C74616765204F757420A5
:1041D0002020202000000000AC410008044200081C
:1041E000203B0008643F00080000000000000000C1
:1041F000566F6C746167652050532020202020206A
:1042000000000000D841000830420008203B0008B0
:10421000C43E000800000000000000004355525258
:10422000454E54204C6F6164202020200000000087
:10423000044200085C420008203B0008F03E0008F1
:10424000000000000000000043555252454E54202B
:104250004F7574202020202000000000304200080C
:1042600088420008203B00086C3E00080000000067
:104270000000000043555252454E54204C6F61647B
:1042800020746F30000000005C420008FC40000811
:10429000203B0008983E00080000000000000000DD
:1042A00043555252454E54204F757420746F203040
:1042B00000000000E8430008E0420008203B00083E
:1042C000A045000800000000000000004F4B2074D3
:1042D0006F206578697420202020202000000000D5
:1042E000B44200080C430008203B0008D0400008FE
:1042F000000000000000000030373A53617665206E
:104300004D656E7520506F7300000000E04200089C
:1043100038430008203B0008A440000800000000CB
:104320000000000030363A436861726765206164BE
:1043300064617074000000000C43000864430008CE
:10434000203B00087840000800000000000000004A
:1043500030353A53776E6744697343687267205407
:10436000000000003843000890430008203B00088C
:104370004C400008000000000000000030343A53B8
:1043800077696E67204368726720546D00000000F3
:1043900064430008BC430008203B0008204000089C
:1043A000000000000000000030333A4D61782056D4
:1043B0006F6C746167652020000000009043000866
:1043C000E8430008203B0008F43F0008000000001C
:1043D0000000000030323A4C6F7720566F6C7461E9
:1043E0006765202000000000BC430008B4420008BC
:1043F000203B0008C83F000800000000000000004B
:1044000030313A4368617267652074696D652020B8
:1044100000000000A045000840440008203B0008C0
:1044200088420008000000000000000043414C49A1
:1044300042524154494F4E202020202000000000CD
:10444000144400086C440008203B0008403E00086B
:104450000000000000000000444941474E4F535403
:104460004943202020202020000000004044000874
:1044700098440008203B0008143E0008000000009B
:10448000000000005377696E672020202020202044
:1044900020202020000000006C440008C4440008D4
:1044A000203B0008E83D000800000000000000007C
:1044B000547261696E696E672020202020202020C0
:1044C0000000000098440008F0440008203B000869
:1044D000BC3D000800000000000000004469734378
:1044E00068617267652020202020202000000000E5
:1044F000C44400081C450008203B0008903D00080B
:1045000000000000000000004368617267652061E0
:10451000646461707420202000000000F0440008F2
:1045200048450008203B0008643D000800000000EA
:1045300000000000436861726765204343204356D2
:1045400020202020000000001C45000874450008C1
:10455000203B0008383D000800000000000000007B
:104560004C6F61642020202020202020202020204B
:104570000000000048450008A0450008203B000856
:104580000C3D00080000000000000000506F77653F
:1045900072537570706C792020202020000000007C
:1045A0007445000814440008203B0008E843000854
:1045B000000000000000000053657474696E6773AA
:1045C0002020202020202020000000006D41203EDF
:1045D0003E20736574203020202000466163746F94
:1045E00072792D7072657373203E3E00496E2050C3
:1045F000726F6363657373202E2E2E2E00466163E7
:10460000746F727920617265204F4B202000454500
:1046100070726F6D2072656164204641494C00687C
:10462000202020005620202000207365632E2020AB
:104630002000252000562000506F7765725375705A
:10464000706C792020202020004C6F6164204D6523
:104650006E7520202020202020004368617267654D
:104660002043432043562020202000436861726786
:104670006520616464617074202020004469734384
:10468000686172676520202020202020005472611C
:10469000696E696E6720202020202020200053773B
:1046A000696E67202020202020202020202000303C
:1046B000006D4F6D2020202020202000562020005B
:1046C0006D412020006D41202020004F46462000F3
:1046D0006D4120202020004F4E200055206F66663F
:1046E0003A20006D41202020202020004F66665790
:1046F00068656E2056623C005020006D41682020A5
:10470000202020006D41482020202020006D4120E5
:104710002020202000682000562020202020007328
:1047200020202000547261696E696E6720496E69AD
:10473000742000432000543A0068204D6178563AB6
:10474000006D4148202020200055696E3D00205515
:10475000633D005570732000556F75742000496FDC
:10476000757420006D412000496C6F616420005217
:104770003D006D4F6D20006D4F6D202020200049C1
:104780003A2000555F50533A200055206F75743A17
:1047900020004F6C6420433D006D416820202020A4
:1047A00020202020202000454570726F6D2052652A
:1047B0006164204641494C004661696C20746F2059
:1047C0007265616420616464726573733A200045A8
:1047D0004570726F6D56616C7565206973203A2063
:1047E00000464C4153485F424153452B31303234EF
:1047F0002A313234203A2000454570726F6D20779F
:10480000726974652000466163746F727945457002
:10481000726F6D57726974652077726974652000D4
:10482000526561642066726F6D20454570726F6DD0
:10483000202D204641494C2000526561642066725B
:104840006F6D20454570726F6D202D205355434389
:044850004553530079
:10485400203B00080000000000F0010800000000F8
:1048640004F001080000000008F001080000000046
:104874000CF001080000000010F001080000000026
:1048840014F001080000000018F001080000000006
:104894001CF001080000000020F0010800000000E6
:1048A40024F001080000000028F0010800000000C6
:1048B4002CF001080000000030F0010800000000A6
:1048C40034F001080000000038F001080000000086
:1048D4003CF001080000000040F001080000000066
:1048E40044F001080000000048F001080100000045
:1048F40000F001080100000004F001080F000000AE
:1049040008F00108000000000CF001081A0400007F
:1049140010F00108AA05000014F001080A000000C4
:1049240018F001080A0000001CF001080000000053
:1049340020F001080000000024F00108000000003D
:1049440028F001089B0000002CF001089B000000E7
:1049540030F001083305000034F00108330500008D
:1049640038F00108330500003CF001080A0000009B
:1049740040F001088300000044F001082200000018
:1049840048F001084103423B3F455D337B404B0601
:104994004D484F5C50435460245805075B5F0369DE
:1049A40004020100D6010150532033305620334114
:1049B4002076312E36310001C002002000000000B4
:1049C400180200201004002000000000C80200208B
:1049D4006005002000000000180400200000000012
:1049E400010203040102030406070809020406087D
:0449F40001000000BE
:0400000508000000EF
:00000001FF
