:020000040800F2
:10000000D00D002085020008CD020008CD020008B6
:10001000CD020008CD020008CD020008000000005B
:10002000000000000000000000000000CD020008F9
:10003000CD02000800000000CD020008CD0200083B
:10004000CD020008CD020008CD020008CD02000854
:10005000CD020008CD020008CD020008CD02000844
:10006000CD020008CD020008CD020008CD02000834
:10007000CD020008CD020008CD020008CD02000824
:10008000CD020008CD020008CD02000800000000EB
:10009000000000000000000000000000CD02000889
:1000A000CD02000825130008CD020008CD0200088B
:1000B000CD0200087931000800000000CD020008E0
:1000C000CD0200080000000000000000CD02000882
:1000D0000000000039480008CD02000800000000C0
:1000E000CD020008CD020008CD020008000000008B
:1000F0000000000000000000000000000000000000
:1001000000000000000000000000000000000000EF
:100110000000000000000000CD020008E9190008FE
:100120005FF808F1014B1868704700BF000000201D
:10013000084B10B598420BD050B1074B074C1B68C9
:1001400020600BB11830984723681B6903B19847AA
:1001500010BD00BFE04900086C0200200000002034
:10016000024B1860024B1868FFF7E2BF6C020020D8
:100170000000002008B5054B054A1B68934203D0D8
:1001800013B15B6903B1984708BD00BF00000020B0
:10019000E0490008224A038890429BB212D002F53F
:1001A000006290420ED0B0F1804F0BD0A2F5983291
:1001B000904207D002F58062904203D002F580623F
:1001C000904203D14A8823F070031343154A9042AA
:1001D00008D002F58062904204D023F44073CA88AC
:1001E0009BB2134303808B8883850B8803850C4B5C
:1001F00098420FD003F5006398420BD003F540639B
:10020000984207D003F58063984203D003F58063DA
:10021000984201D10B7A038601238382704700BF85
:10022000002C0140001000404FF6FF738380002334
:100230000380C380438003727047038819B19BB267
:1002400043F0010303E023F001031B041B0C0380B4
:10025000704783899BB20AB1194301E023EA010187
:1002600081817047038A828911EA030092B203D028
:1002700011420CBF002001207047C94389B201829E
:100280007047000008B50C4A0C4B0D4903E052F8CA
:10029000040B43F8040B8B42F9D30A480A494FF088
:1002A00000028842B8BF40F8042BFADB00F018FACD
:1002B000BDE8084002F0B2BBF75B00080000002078
:1002C0006C0200206C020020D0090020FEE7000034
:1002D0002DE9F843564D0646286803F0E9FA2B68E5
:1002E00011210024594304E00A19AA18013413719A
:1002F000E4B2035D4E4A002BF6D113681121594335
:10030000081910183A25057104E00F2C09D80D19A9
:100310005519287116F8010B0134E4B20028F4D104
:100320000DE0112202FB034241498A18002111719C
:1003300005E01819081801340271E4B203E0112233
:100340003B49534320220F2C394DF2D9002220463D
:10035000384904F0EBFA2B68112202FB0344013305
:100360002A190024172B14712B6057D90A26A0468E
:100370002F46204603F09CFA4FF0110E00230EFB8F
:1003800004FE05E00EEB0301691801330A71DBB2CC
:10039000C25C1121002AF5D101FB04F27143D0188F
:1003A00038184FF03A0E013380F804E0DBB294467F
:1003B0005FFA84FE681810E0BEF1090F05D901EB61
:1003C0000309A94499F8049003E000EB030999F8A4
:1003D0000590013382F80490DBB20CEB0302AA18FB
:1003E00092F80490B9F1000FE6D1013B1121DBB284
:1003F0006143202204E0C818281801330271DBB2DF
:100400000F2BF8D9112202FB04330134FB180136FB
:100410000E2C83F80480ACD1054B1C6003F06EFDFC
:10042000034B054918680022BDE8F84304F07EBA82
:100430008C060020F8490008FD4900082DE9F04726
:10044000554F054638680E4603F032FA3B681121D5
:100450000024594304E00A19BA1801341371E4B2B4
:10046000035D4D4A002BF6D1136811215943081939
:100470001018067104E00F2C09D80F19D71938711C
:1004800015F8010B0134E4B20028F4D10DE011227B
:1004900002FB034240498A180021117105E0181936
:1004A000081801340271E4B203E011223A495343BF
:1004B00020220F2C384DF2D900222046374904F073
:1004C00035FA2B68112202FB034401332A19002458
:1004D000172B14712B6054D90A27A146A846204631
:1004E00003F0E6F94FF0110E00230EFB04FE05E0C9
:1004F0000EEB0301691801330A71DBB2C25C1121F2
:10050000002AF5D101FB04F27943D01840440133AD
:100510000671DBB294465FFA84FE681810E0BEF103
:10052000090F05D901EB030AAA449AF804A003E0D5
:1005300000EB030A9AF805A0013382F804A0DBB2AD
:100540000CEB0302AA1892F804A0BAF1000FE6D14E
:10055000013B1121DBB26143202204E0C8182818B6
:1005600001330271DBB20F2BF8D9112202FB0433E5
:100570000134434401370E2C83F80490AFD1064B6D
:100580001C6003F0BBFC044B054918680022BDE861
:10059000F04704F0CBB900BF8C060020F8490008F2
:1005A000FD49000810B5384C00222068374904F096
:1005B000BDF9A0680022364904F0B8F9206900228C
:1005C000344904F0B3F9A0690022334904F0AEF9CC
:1005D000206A0022314904F0A9F9A06A00223049BA
:1005E00004F0A4F9206B00222E4904F09FF9A06BBF
:1005F00000222D4904F09AF9206C00222B4904F0C6
:1006000095F9A06C00222A4904F090F9206D00228F
:10061000284904F08BF9A06D0022274904F086F9DF
:10062000206E0022254904F081F9A06E00222449A1
:1006300004F07CF9206F0022224904F077F9D4F805
:1006400088000022204904F071F9A06F1F490022A0
:1006500004F06CF9D4F8800000221D4904F066F91A
:10066000D4F8900000221B4904F060F9D4F89800F7
:100670000022194904F05AF9D4F8A00017490022C1
:10068000BDE8104004F052B904000020014A0008FF
:10069000144A0008324A0008514A00086E4A00080D
:1006A0008C4A0008A94A0008C74A0008E54A000821
:1006B000034B00081B4B00082F4B0008484B000859
:1006C000554B0008624B00086F4B00087D4B00083B
:1006D0008F4B0008A24B0008BE4B0008E64B0008F9
:1006E000314B82B01A6842F001021A6059682F4AF1
:1006F0000A405A601A6822F0847222F480321A602A
:100700001A6822F480221A605A6822F4FE025A60A3
:100710004FF41F029A600022DA62009201921A6876
:1007200042F480321A601A6802F400320192009A90
:1007300001320092019A1AB9009AB2F5A06FF2D173
:10074000194B1B6813F4003318BF01230193019B5D
:10075000012B23D1144B5A685A605A685A605A6860
:100760005A605A6822F47C125A605A6842F498120D
:100770005A601A6842F080721A6019680A4A890140
:10078000FBD5536823F003035360536843F002031F
:100790005360536803F00C03082BFAD1044B4FF05D
:1007A00000629A6002B07047001002400000FFF83B
:1007B00000ED00E084B0ADF80600BDF806304FF45F
:1007C000FA629BB2534301E0039B013B0393039BFB
:1007D000002BF9D104B0704784B0ADF80600BDF825
:1007E00006309BB25B0001E0039B013B0393039B3C
:1007F000002BF9D104B0704710B5074C4FF480437B
:1008000023610220FFF7E8FF4FF0804302202361BD
:10081000BDE81040FFF7E0BF000C014070B50F4C81
:100820004FF07C454FF4805625612661FFF7E4FFC9
:100830000120FFF7BFFF25612661FFF7DDFF0120E3
:10084000FFF7B8FF4FF4806325612361FFF7D4FF02
:100850000120BDE87040FFF7ADBF00BF000C0140B4
:10086000254B4FF07C4270B504460D461A6111B11C
:100870004FF400421A61E20644BF4FF400521A617D
:100880001D4B14F0200F1CBF4FF480521A616606F6
:1008900044BF4FF400621A61174E14F0800F1CBF62
:1008A0004FF480633361FFF7A7FF4FF07053E00709
:1008B000336103D5104B4FF400521A61A10703D5E1
:1008C0000D4B4FF480521A61620703D50A4B4FF467
:1008D00000621A61230703D5074B4FF480621A6147
:1008E000FFF78AFF0220FFF765FF1DB1024B4FF0B3
:1008F00000421A6170BD00BF000C0140034610B9F0
:10090000082019460BE021B90AB90C2003E00D209C
:1009100005E012B90E20114601E00F200021FFF77B
:100920009FBF01200021FFF79BBF08B56420FFF7A0
:1009300041FFFFF773FF012001460022FFF7DEFFB2
:10094000BDE80840FFF7EDBFC0B20121FFF788BF47
:10095000054B1870597011B940F0800002E040F06A
:10096000C0000021FFF77CBF760200202DE9F8438C
:1009700089460646DFF86C800127194C29E0B22829
:1009800001D1492011E0AF2801D103200DE0DE287C
:1009900002D10120014609E0AA2801D1022004E089
:1009A000BF2884BF404410F8C00C0121FFF758FF56
:1009B000237865780133DBB2237055B9082B08D151
:1009C000B9F1020F05D128460121FFF7C1FF2570BB
:1009D000677016F8010B0028D1D1BDE8F88300BF7D
:1009E00076020020FC01002070B506460D4600246A
:1009F0000CE00121FFF734FF012D06D1E3B2072BF4
:100A000003D100202946FFF7A3FF0134305D002801
:100A1000EFD170BDC00040F0400038B5C0B20D4607
:100A20000021FFF71DFF0024285D01210134FFF79D
:100A300017FF082CF8D180200021BDE83840FFF7CF
:100A40000FBF2DE9F3410025042415271F264FF081
:100A50000E08284669468DF800408DF803408DF851
:100A600005408DF801708DF802808DF804508DF8E6
:100A700006608DF80760FFF7CDFF012069468DF80D
:100A800002408DF806408DF800708DF801808DF8D9
:100A900003508DF804508DF805508DF80760FFF76E
:100AA000B9FF022069468DF801408DF805408DF8A8
:100AB00000508DF802808DF803708DF804508DF889
:100AC00006608DF80760FFF7A5FF032069468DF8E3
:100AD00000408DF803408DF806408DF801808DF8B8
:100AE00002708DF804508DF805508DF80760FFF7FF
:100AF00091FF204669468DF800408DF803408DF83F
:100B000004408DF807408DF801808DF802708DF853
:100B100005708DF80680FFF77DFF02238DF8003009
:100B20000A238DF803308DF804301C2307248DF838
:100B300005308DF806300520082369468DF807300A
:100B40008DF801408DF80240FFF764FF0F238DF808
:100B5000003005238DF801308DF802308DF8033018
:100B60008DF804300620092369468DF806308DF88B
:100B700005708DF80750FFF74DFF11238DF80030F9
:100B80008DF801308DF802302046012369468DF83A
:100B900003608DF804308DF805308DF806308DF83F
:100BA0000750FFF737FFBDE8FC810221FFF7DEBEEB
:100BB00010B5044608461146FFF7CAFE204602213A
:100BC000BDE81040FFF7D2BE08B5364B5A6822F494
:100BD00040725A605A6842F400725A605A6822F4AD
:100BE00040625A605A6842F480625A605A6822F43D
:100BF00040525A605A6842F400525A605A6822F4CD
:100C000040425A605A6842F480425A605A6822F45C
:100C100040325A605A6842F400325A605A6822F4EC
:100C200040225A605A6842F480225A605A6822F47C
:100C300040125A605A6842F400125A605A6822F40C
:100C400040025A605A6842F480025A605A6822F0A0
:100C500040725A605A6842F000725A605A6822F034
:100C600040625A605A6842F080625A605A6822F0C4
:100C700040525A605A6842F000525A605A6822F054
:100C800040425A605A6842F080425A60FFF74DFE77
:100C9000FFF747FE002101200A46BDE80840FFF7A4
:100CA0002DBE00BF000C0140CB782DE9F04303F0CE
:100CB0000F02DB0648BF8B780E8848BF1A4316F038
:100CC000FF0F1FD0046800234FF001084FF00F0CF6
:100CD00008FA03F707EA0605BD420FD19F000CFA98
:100CE00007F902FA07F724EA09043C43CF78282FD2
:100CF00001D1456102E0482F08BF05610133082B8F
:100D0000E6D104600E88FF2E21D9446800234FF0FD
:100D100001084FF00F0C03F1080708FA07F707EA7C
:100D20000605BD420FD19F000CFA07F902FA07F73A
:100D300024EA09043C43CF78282F01D1456102E021
:100D4000482F08BF05610133082BE4D14460BDE89A
:100D5000F083836819420CBF002001207047000017
:100D6000014B00221A8070477802002003F088BCF3
:100D700008B503F0CBFC0248BDE80840FFF7A8BA6D
:100D80002055000818B100210A46FFF711BF70472F
:100D900010B50F4C49F6AF23626890B09A4214D94F
:100DA0000BA9A06802F089FF60684FF46163B0FB93
:100DB000F3F001A902F0B6FD06490BAA06AB02F05A
:100DC000E8FE06A80221FFF739FB10B010BD00BFF6
:100DD000780200202C55000810B5134C002290B06A
:100DE000E068124903F0A2FDE26849F6AF239A4297
:100DF00017D90BA9206902F060FFE0684FF4616326
:100E0000B0FBF3F001A902F08DFD09490BAA06AB76
:100E100002F0BFFE06A80121FFF710FB06A803F0B1
:100E200045FD10B010BD00BF78020020305500080D
:100E30002C55000884B0ADF80600BDF806304FF41C
:100E400016629BB2534301E0039B013B0393039B58
:100E5000002BF9D104B0704708B507200121FFF736
:100E600077FDFF200121FFF7FBFC03F009FC044B99
:100E7000C8209A68034B1A60BDE80840FFF7DABF44
:100E8000540000203C080020022838B51E4B09D130
:100E90001A881E49013292B209681A8012B28A4237
:100EA00013D310E0012810D11A88013A92B21A80A7
:100EB000120403D5154A1268013A1A80124BB3F98D
:100EC0000020002A01DA00221A8000200F4C01467F
:100ED000FFF73EFD0C4D234653F8040BB5F90020F7
:100EE0000138801A112202FB0030FFF75EFEB5F9CF
:100EF00000000022064903F019FD20680549002280
:100F0000BDE8384003F012BD780200208C060020B6
:100F1000385500084555000810B504460020014624
:100F2000FFF716FD0A4B188800B202F0C1FCFFF76C
:100F30003CFE0848FFF739FE022C08D1064B1A8800
:100F4000064B12B29A60BDE8104003F0DFBB10BD43
:100F50004E060020585500087002002004000020B2
:100F600010B5044600200146FFF7F2FC0A4B188832
:100F700000B202F09DFCFFF718FE0848FFF715FECF
:100F8000022C08D1064B1A88064B12B21A61BDE832
:100F9000104003F0BBBB10BD4E06002058550008A2
:100FA000720200200400002010B504460020014613
:100FB000FFF7CEFC1648FFF7F8FD022C27D103F00F
:100FC0009DFA03F061FA044600200146FFF7C0FCD9
:100FD0001048FFF7EAFD4FF4FA60FFF72BFF0020FF
:100FE0000146FFF7B5FC012C08D10B48FFF7DDFDEA
:100FF0000A48FFF76DF94FF4FA6004E00848FFF77C
:10100000D4FD4FF47A60BDE81040FFF713BF10BD68
:101010006755000878550008895500089A5500085A
:10102000A9550008022810B50E4C02D123690133DE
:1010300003E0012802D12369013B2361002001461E
:10104000FFF786FC206902F033FCFFF7AEFD06488F
:10105000FFF7ABFD23694FF461625A43034B1A60FB
:1010600010BD00BF54000020BA5500082808002019
:10107000022810B50D4C02D1A3690A3303E0012800
:1010800002D1A3690A3BA36100200146FFF760FC7F
:10109000A0690A23B0FBF3F0012102F07DFCFFF709
:1010A00084FD0348BDE81040FFF77FBD54000020D9
:1010B000BF550008022810B50D4C02D1236A0A332F
:1010C00003E0012802D1236A0A3B23620020014683
:1010D000FFF73EFC206A0A23B0FBF3F0012102F087
:1010E0005BFCFFF762FD0348BDE81040FFF75DBD04
:1010F00054000020BF550008022810B50B4C02D147
:10110000A36A013303E0012802D1A36A013BA36271
:1011100000200146FFF71CFCA06A02F0C9FBFFF7A4
:1011200044FD0348BDE81040FFF73FBD54000020D8
:10113000C4550008022810B50B4C02D1236B0133B3
:1011400003E0012802D1236B013B23630020014609
:10115000FFF7FEFB206B02F0ABFBFFF726FD034819
:10116000BDE81040FFF721BD54000020C455000821
:10117000022838B51A4C02D1A36B013303E00128D1
:1011800002D1A36B013BA36300200146FFF7E0FB04
:10119000A06B02F08DFBFFF708FD1248FFF705FD7D
:1011A000206A0A250121B0FBF5F002F0F5FBFFF7FC
:1011B000FCFC0D48FFF7F9FC236AA06B642258433E
:1011C000B0FBF2F01B1AB3FBF5F0012102F0E4FBD7
:1011D000FFF7EBFC0548BDE83840FFF7E6BC00BF71
:1011E00054000020CD550008D0550008BF55000818
:1011F00008B5084B1A68084B9B689A4209D107202A
:101200000121FFF7A5FBFF200121BDE80840FFF702
:1012100027BB08BD3C0800205400002010B5044640
:1012200000200146FFF794FB022C194B06D19A6867
:101230000132082A9A6009D1012206E0012C05D169
:101240009A68013A9A600AB907229A60104A93682C
:10125000013B062B18D8DFE803F00406080A0C0E41
:1012600010000C480AE00C4808E00C4806E00C4866
:1012700004E00C4802E00C4800E00C48FFF795FC45
:10128000BDE81040FFF7B4BF0123936010BD00BF5D
:1012900054000020D3550008E4550008F555000817
:1012A0000656000817560008285600083956000848
:1012B00010B515481021FFF74CFD58B112482021F8
:1012C000FFF747FD40B110484021FFF742FDB0B99C
:1012D000012202E0032200E002220C4B40F2DC502B
:1012E000998A0CB2844203DD40F2B451998204E041
:1012F000013189B21429998204D19A7510BD034B2A
:1013000000229A8210BD00BF000C0140780200202C
:10131000034B0022987D00B19A619A75704700BF17
:101320007802002038B51E480121FEF79BFF0028F7
:1013300035D001211A48FEF7A0FF1A4B1A8812B2C5
:10134000012A07DC184C6568188800B202F0F9FB26
:1013500045196560134B1A8812B2022A07DD124C38
:10136000E568188800B202F0ECFB4519E5600E4B09
:101370001A7F012A02D11A6901321A615B7F0A4A77
:10138000012B02D1936801339360074B9A7F012AA6
:1013900002D11A6A01321A625A6A01325A6238BD9F
:1013A000004401404E06002078020020024B00223B
:1013B0001A6201229A77704778020020024B0022BD
:1013C0001A6201229A7770477802002038B50446E5
:1013D0004FF46160B4FBF0F002F06AFA054602F0E7
:1013E000B6FB012803D812480121FFF7FDFA0121BD
:1013F0002846FFF7F9FA01210E48FFF7F5FA3C23DA
:10140000B4FBF3F4B4FBF3F003FB104002F050FA2A
:10141000044602F09CFB012803D805480121FFF790
:10142000E3FA20460121BDE83840FFF7DDBA00BFEE
:101430004A5600085A570008094B4FF480321A6187
:101440004FF400321A614FF08072A3F580631A6185
:10145000044B002283F8282083F82920704700BF1E
:10146000000C014078020020074A01234FF40031AC
:1014700013611161054A82F8283082F82930044B43
:101480004FF480721A617047000C0140780200200E
:101490000008014038B52D4B0122054683F82A206B
:1014A000FFF7E2FF022D2A4C02D12388013303E02B
:1014B000012D02D12388013B238000200146FFF744
:1014C00047FA0221208802F067FAFFF76EFB2148F5
:1014D000FFF76BFB204B214A1888138880B21BB2A0
:1014E000002B21881E4B01DC46220AE0401A11889D
:1014F00002B222EAE27242F21070424309B292FB57
:10150000F1F2174C1A64206C02F0D2F9FFF74DFB90
:101510001448FFF74AFB144B19880F4B89B21A88FD
:101520000E4B92B2188800B2002801DC0A230AE0B0
:10153000891A1A880BB223EAE37342F210714B4303
:1015400012B293FBF2F3A36438BD00BF780200200F
:101550001C020020D0550008740200204E06002016
:10156000040000204C5600084806002038B5174BF0
:101570000122054683F82A20FFF776FF022D144C3E
:1015800002D1A36B013303E0012D02D1A36B013B18
:10159000A36300200146FFF7DBF9A06B02F088F996
:1015A000FFF703FB0B48FFF700FB00200121FFF7CB
:1015B000CFF9094B0221188880B202F0EDF9FFF74C
:1015C000F4FA0648BDE83840FFF7EFBA7802002089
:1015D00004000020465600084C060020575600081C
:1015E00038B5174B0122054683F82A20FFF73CFF48
:1015F000022D144C02D1236B013303E0012D02D1E3
:10160000236B013B236300200146FFF7A1F9206B08
:1016100002F04EF9FFF7C9FA0B48FFF7C6FA0020AF
:101620000121FFF795F9094B0221188880B202F0D9
:10163000B3F9FFF7BAFA0648BDE83840FFF7B5BA84
:1016400078020020040000204656000850060020C2
:101650005756000838B5174B0122054683F82A2053
:10166000FFF702FF022D144C02D1A36A013303E0FD
:10167000012D02D1A36A013BA36200200146FFF7BE
:1016800067F9A06A02F014F9FFF78FFA0B48FFF729
:101690008CFA00200121FFF75BF9094B0221188821
:1016A00080B202F079F9FFF780FA0648BDE83840C9
:1016B000FFF77BBA7802002004000020465600089D
:1016C000480600205756000838B5174B012205463A
:1016D00083F82A20FFF7C8FE022D144C02D1A3691B
:1016E000013303E0012D02D1A369013BA361002076
:1016F0000146FFF72DF9A06902F0DAF8FFF755FA75
:101700000B48FFF752FA01210020FFF721F9094B9E
:10171000188800B202F0CCF8FFF747FA0648BDE897
:101720003840FFF742BA00BF7802002004000020D2
:10173000465600084E0600205B56000870B52D4D39
:1017400006460124002085F82A400146FFF700F9EB
:1017500095F82850F5B9284B0221188880B202F07C
:101760001BF9FFF722FA2548FFF71FFA2946072041
:10177000FFF7EEF8224B188800B202F099F8FFF755
:1017800014FA2048FFF711FA05202146FFF7E0F888
:101790001D481DE01D4B0221188880B202F0FCF8A4
:1017A000FFF703FA1548FFF700FA00210720FFF7BB
:1017B000CFF8134B188800B202F07AF8FFF7F5F96A
:1017C0001348FFF7F2F906202146FFF7C1F8114848
:1017D000FFF7EBF9022E0BD1064B93F828301BB91B
:1017E000BDE87040FFF740BEBDE87040FFF724BE83
:1017F00070BD00BF78020020480600205756000840
:101800004E060020605600087B5600085006002057
:10181000665600086D560008034B93F829300BB943
:10182000FFF722BEFFF708BE78020020084B4FF4F6
:1018300080321A6102221A61064B012283F82820A5
:1018400083F82B20044B4FF400621A61704700BFED
:10185000000C0140780200200008014008B5FFF7A5
:10186000EBFDBDE80840FFF7E1BF000038B5174BBE
:101870000122054683F82A20FFF7F0FF022D144CC1
:1018800002D1236A013303E0012D02D1236A013B17
:10189000236200200146FFF75BF8206A02F008F897
:1018A000FFF783F90B48FFF780F901210020FFF7CC
:1018B0004FF8094B188800B201F0FAFFFFF775F9ED
:1018C0000648BDE83840FFF770B900BF7802002035
:1018D00004000020465600084E0600205B56000813
:1018E000084B4FF480321A614FF400321A61064BF4
:1018F000002283F8282083F82B20044B4FF000624D
:101900001A617047000C0140780200200008014075
:1019100008B5FFF7E5FFBDE80840FFF78DBD000003
:10192000294B30B51B8891B09BB2B3F5FA6F274CA9
:1019300046D2FFF7EDFFA378002B43D1244D0123BE
:10194000A3706B68234C236102F06AFE02222069B7
:10195000214902F0EBFF6A6849F6AF239A4214D995
:101960000BA9A86802F0A9F920694FF46163B0FBE4
:10197000F3F001A901F0D6FF18490BAA06AB02F05B
:1019800008F906A80221FEF759FD0F4C0A2320880A
:1019900001A980B2B0FBF3F0012202F067F806AAB9
:1019A00001460F4802F0DCF8FEF792FC20880D4952
:1019B00080B2022202F0BAFF0A20FFF73BFAF5E7F5
:1019C0000023A37011B030BD4C0600201C02002083
:1019D0007802002094000020715600082C55000861
:1019E000765600088056000808B508480121FEF721
:1019F00039FC48B105480121FEF73FFCFFF758FCD0
:101A0000BDE80840FFF78CBF08BD00BF00140040D0
:101A100038B5814B012193F82C20054683F82A1014
:101A20003AB91A7783F82C105A7783F82D205A6028
:101A30009A607A4B7A491A88896992B2764B8A42BF
:101A4000DA8501D3002205E093F82D200AB95A6AFD
:101A50001A63012283F82D205A6A1B6B6E4CD31A2D
:101A6000032B06D994F82D301BB1FFF751FF00234B
:101A70006377022D684C0BD194F828301BB9FFF71F
:101A8000EDFE012302E0FFF743FF002363770CE044
:101A9000012D0AD194F83430013BDBB2190684F8E9
:101AA000343002D5032384F834305B4C94F934008D
:101AB000002835D10146FEF74BFF584B022118880C
:101AC00080B201F069FFFFF770F85648FFF76DF834
:101AD000554B188800B201F0EBFEFFF766F853484B
:101AE000FFF763F894F8283013B90720012105E0C7
:101AF00094F8353007200121052B03D8FEF728FF85
:101B0000022002E0FEF724FF03200121FEF71CFF64
:101B1000414B93F835200A2A02D9002283F8352058
:101B20003D4B93F93440012C13D100200146FEF7C0
:101B30000FFF3F48FFF739F8394B214698690A23D0
:101B4000B0FBF3F001F028FFFFF72FF83948FFF75B
:101B50002CF8314C94F93430022B1AD10020014674
:101B6000FEF7F6FE3448FFF720F8344B98684FF440
:101B70006163B0FBF3F001F09BFEFFF716F830480D
:101B8000FFF713F803200121FEF7E2FEA06BFFF739
:101B90001DFC214C94F93450032D19D1002001462D
:101BA000FEF7D6FE2748FFF700F860684FF4616340
:101BB000B0FBF3F001F07CFEFEF7F7FF2248FEF7E2
:101BC000F4FF28460121FEF7C3FEA068FFF7FEFBE5
:101BD000114C002294F82C001C4902F0A7FE94F846
:101BE0002A0000221A4902F0A1FE207F0022194992
:101BF00002F09CFE20690022174902F097FE607FE8
:101C00000022164902F092FEA06815490022BDE8A4
:101C1000384002F08BBE00BF780200205006002042
:101C200054000020D05500084E06002088560008B9
:101C300091560008BF5500089D56000894000020EA
:101C4000A05600086E560008A9560008B2560008B3
:101C5000C0560008E3560008F85600080857000868
:101C60002057000808B5274B0122022883F82A20B4
:101C700007D193F8283013B9FFF7F0FD01E0FFF723
:101C800047FE00200146FEF763FE1F4B0221188825
:101C900080B201F081FEFEF788FF1C48FEF785FF49
:101CA0001B4B188800B201F003FEFEF77EFF1948B7
:101CB000FEF77BFF134B93F8282012B90620012171
:101CC00005E093F8353006200121052B07D8FEF7F3
:101CD0003FFE02200121FEF737FE022006E0FEF75C
:101CE00037FE03200121FEF72FFE03200121FEF71E
:101CF0002BFE044B93F835200A2A02D9002283F8E0
:101D0000352008BD7802002050060020D05500087C
:101D10004E0600206656000808B5FFF7E1FDBDE855
:101D20000840FFF7A1BB000070B504460020014643
:101D3000FEF70EFE6C4B012293F82C1083F82A203C
:101D40001D4619B983F82C20FFF730FB2A6A674D2E
:101D5000654EAB6A9A420DD8FFF7DEFF644B1A88D6
:101D60002B6A92B29A4205D9FFF728FB326AAB6A16
:101D7000D31833625C4B5D4D196AAA6A1E469142C4
:101D800009D9FFF76BFD5A4B1A88AB6992B29A4298
:101D900001D2FFF713FB554B326A196B9B6ACB18C4
:101DA0009A4201D9FFF70AFB022C4F4B09D193F855
:101DB00034200132D2B2032A83F834200ED100221B
:101DC0000AE0012C0AD193F83420013AD2B210066D
:101DD00083F8342002D5022283F83420424D95F94D
:101DE0003440002C32D120462146FEF7B1FD404B55
:101DF0000221188880B201F0CFFDFEF7D6FE3D48E3
:101E0000FEF7D3FE3C4B188800B201F051FDFEF7FF
:101E1000CCFE3A48FEF7C9FE06200121FEF798FDE8
:101E200005200121FEF790FD95F829500720012D8E
:101E300005D12946FEF78CFD2046294604E0012104
:101E4000FEF786FD02200121FEF77EFD264B93F969
:101E50003440012C23D10020244D0146FEF778FDAB
:101E6000286901F025FDFEF7A0FE2548FEF79DFE3E
:101E7000A8690A262146B0FBF6F001F08DFDFEF7B9
:101E800094FE1C48FEF791FE286A2146B0FBF6F04E
:101E900001F082FDFEF789FE1A48FEF786FE124C1D
:101EA00094F93430022B1DD10020104D0146FEF76D
:101EB0004FFDA86A01F0FCFCFEF777FE1248FEF722
:101EC00074FE286B01F0F4FCFEF76FFE0F48FEF77E
:101ED0006CFE03200121FEF73BFDA068BDE87040C9
:101EE000FFF774BA70BD00BF7802002054000020D4
:101EF00050060020D05500084E0600203357000839
:101F00007E5A00083B5700087057000842570008E7
:101F1000F8B55C4D012795F82C60044685F82A70C9
:101F2000E6B9594B1A88594B92B29B699A4207D32A
:101F300085F83C70FFF792FCAE606E606F7706E04C
:101F40002E6185F83C60EE602F77FFF7E5FE4D4B84
:101F5000012283F82C204E4802F0A8FC494B4FF098
:101F6000000293F83C10012922D11A77597746498B
:101F700046480988806989B28142D98505D293F89B
:101F80002D200AB95A6A1A63012283F82D205A6A51
:101F90001B6B3C4DD31A032B29D995F82D3033B345
:101FA000FFF7BAFE00232B6185F83C30EB601EE0A2
:101FB0005A7701221A771A69364B1B689A4206D85B
:101FC000314B1A88314B92B21B6A9A420FD9FFF7F4
:101FD00045FC2C4B0122996883F83C200022996330
:101FE0009A6058682C4983F82D2088605A60022C2A
:101FF000244B09D193F834200132D2B2052A83F858
:1020000034200ED100220AE0012C0AD193F83420AA
:10201000013AD2B2140683F8342002D5042283F8A0
:102020003420184D95F93440002C44D120462146E7
:10203000FEF78EFC144B0221188880B201F0ACFC34
:10204000FEF7B3FD1548FEF7B0FD154B188800B23A
:1020500001F02EFCFEF7A9FD1248FEF7A6FD0620B2
:102060000121FEF775FC04200121FEF76DFC95F8B7
:1020700029500720012D17D12946FEF769FC20467B
:10208000294616E078020020500600205400002067
:10209000475700082808002094000020D055000869
:1020A0004E060020335700080121FEF751FC0220A4
:1020B0000121FEF749FC524B93F93440012C23D106
:1020C0000020504D0146FEF743FC286901F0F0FB6B
:1020D000FEF76BFD4C48FEF768FDA8690A2621460D
:1020E000B0FBF6F001F058FCFEF75FFD4748FEF745
:1020F0005CFD286A2146B0FBF6F001F04DFCFEF7CE
:1021000054FD4348FEF751FD3D4C94F93450022DE7
:1021100021D100200146FEF71BFC28460121FEF7D5
:1021200013FC00210120FEF713FC3A48FEF73DFDA9
:1021300060684FF46163B0FBF3F001F0B9FBFEF7A8
:1021400034FD3548FEF731FD03200121FEF700FC88
:10215000A068FFF73BF92A4C94F93450032D22D1A3
:1021600000200146FEF7F4FB02200121FEF7ECFB04
:1021700000210120FEF7ECFB2848FEF716FD284B56
:1021800098684FF46163B0FBF3F001F091FBFEF748
:102190000CFD2148FEF709FD28460121FEF7D8FB7A
:1021A000A06BFFF713F9164C94F93430042B21D1AE
:1021B00000200146FEF7CCFB00200121FEF7C4FB06
:1021C00000210120FEF7C4FB1648FEF7EEFCE06894
:1021D0004FF46163B0FBF3F001F06AFBFEF7E5FC3E
:1021E0000D48FEF7E2FC03200121FEF7B1FB206958
:1021F000FFF7ECF86420BDE8F840FEF71BBE00BF17
:1022000078020020540000207E5A0008D0550008B3
:102210003B5700086E560008A95600089D56000856
:10222000940000205657000838B59B4B012193F8C5
:102230002C20054683F82A102AB91A7783F82C1027
:102240005A77DA601A611A69944B934C1B689A4268
:1022500006D89349934A0888136A80B2984203D9F2
:10226000FFF756FB00230CE0926B64205A43098869
:10227000B2FBF0F289B29B1A994203D2FFF74CFDF0
:1022800001232377022D844C0BD194F828301BB9FD
:10229000FFF742FD012302E0FFF73AFB002323771B
:1022A0000CE0012D0AD194F83430013BDBB21D065D
:1022B00084F8343002D5032384F83430764C94F912
:1022C0003400002852D10146FEF742FB94F8283032
:1022D000A3B9754B0221188880B201F05DFBFEF7AF
:1022E00064FC7248FEF761FC6D4B0221188880B2D5
:1022F00001F052FBFEF759FC6D4812E0684B0221D9
:10230000188880B201F048FBFEF74FFC6748FEF7E3
:102310004CFC684B188800B201F0CAFAFEF745FC85
:102320006548FEF742FC5C4B93F828402CB9072027
:102330000121FEF70DFB204608E093F83530072019
:102340000121052B04D8FEF703FB0020012103E047
:10235000FEF7FEFA01200146FEF7F6FA4E4B93F81F
:1023600035200A2A02D9002283F835204A4B93F9F6
:102370003440012C1BD1002001464A4DFEF7E8FAFB
:102380004E48FEF712FC286901F092FAFEF70DFCA8
:102390004B48FEF70AFC286A0A23B0FBF3F02146FB
:1023A00001F0FAFAFEF701FC4148FEF7FEFB3A4B5A
:1023B00093F93430022B29D13A4C00200146FEF724
:1023C000C7FAA06B01F074FAFEF7EFFB3D48FEF789
:1023D000ECFB206A0A250121B0FBF5F001F0DCFAE4
:1023E000FEF7E3FB3148FEF7E0FB236AA06B6422B3
:1023F0005843B0FBF2F01B1AB3FBF5F0012101F0DA
:10240000CBFAFEF7D2FB2A48FEF7CFFB224C94F919
:102410003450032D19D100200146FEF799FA2A48BD
:10242000FEF7C3FBE0684FF46163B0FBF3F001F02B
:102430003FFAFEF7BAFB2548FEF7B7FB2846012115
:10244000FEF786FA2069FEF7C1FF134C6420FEF701
:10245000F1FC94F82C0000221D4902F067FA94F870
:102460002A0000221B4902F061FA207F00221A494B
:1024700002F05CFA20690022184902F057FA607FE6
:102480000022174902F052FAA06816490022BDE85E
:10249000384002F04BBA00BF780200202808002024
:1024A000500600205400002048060020D0550008A7
:1024B000BF5500084E0600208856000859570008EE
:1024C0005C570008CD55000856570008A95600086B
:1024D000B2560008C0560008E3560008F856000837
:1024E000085700082057000838B57B4B012193F8A6
:1024F0002C20054683F82A102AB91A7783F82C1065
:102500005A77DA601A611A69744B1B689A4206D8C6
:10251000734B1A88734B92B21B6A9A4204D9FFF725
:10252000F7F96D4B00221A77022D6B4C0BD194F802
:1025300028301BB9FFF7F0FB012302E0FFF7E8F9B1
:10254000002323770CE0012D0AD194F83430013BAD
:10255000DBB284F834301B0602D5022384F8343011
:102560005D4C94F93400002852D10146FEF7F0F991
:1025700094F82830A3B95C4B0221188880B201F08E
:102580000BFAFEF712FB5948FEF70FFB544B0221E2
:10259000188880B201F000FAFEF707FB544812E0F9
:1025A0004F4B0221188880B201F0F6F9FEF7FDFAD0
:1025B0004E48FEF7FAFA4F4B188800B201F078F94E
:1025C000FEF7F3FA4C48FEF7F0FA434B93F8284035
:1025D0002CB907200121FEF7BBF9204608E093F84B
:1025E000353007200121052B04D8FEF7B1F9002072
:1025F000012103E0FEF7ACF901200146FEF7A4F942
:10260000354B93F835200A2A02D9002283F8352069
:10261000314B93F93440012C1BD100200146314D40
:10262000FEF796F93548FEF7C0FA286901F040F93F
:10263000FEF7BBFA3248FEF7B8FA286A0A23B0FB65
:10264000F3F0214601F0A8F9FEF7AFFA2D48FEF7A6
:10265000ACFA214C94F93430022B19D100200146F8
:10266000FEF776F92848FEF7A0FAE0684FF46163B8
:10267000B0FBF3F001F01CF9FEF797FA2348FEF7E0
:1026800094FA03200121FEF763F92069FEF79EFE0C
:10269000114C002294F82C001D4902F047F994F8DF
:1026A0002A0000221B4902F041F9207F00221A492A
:1026B00002F03CF920690022184902F037F9607FE6
:1026C0000022174902F032F9A06816490022BDE83D
:1026D000384002F02BB900BF780200202808002003
:1026E000500600205400002048060020D055000865
:1026F0003B5700084E060020335700085957000882
:102700005C570008BF55000856570008A05600083F
:10271000B2560008C0560008E3560008F8560008F4
:102720000857000820570008034B93F82B300BB9CB
:10273000FFF77CB8FFF7D4B878020020F0B59B4BC8
:102740000122022887B083F82A200BD193F83D207C
:102750000132D2B2082A83F83D2017D1002283F833
:102760003D2013E0012811D193F83D30023BDBB24C
:10277000012B02D8FFF750F801E0FEF75DFE8B4B0E
:1027800093F93D30042B01D1FFF7CEFF874B93F92E
:102790003D00F0B90146FEF7DBF88548FEF705FA83
:1027A000844B012118880A2380B2B0FBF3F001F0BA
:1027B000F3F8FEF7FAF98048FEF7F7F97F4B0221AC
:1027C000188880B201F0E8F8FEF7EFF97C48FEF7D0
:1027D000ECF9764B93F93D30012B1BD100200146DB
:1027E000FEF7B6F87748FEF7E0F9774B0221188834
:1027F00080B201F0D1F8FEF7D8F97448FEF7D5F9A8
:10280000734BD88880B201F053F8FEF7CEF97148C7
:10281000FEF7CBF9654B93F93D40022C1BD100200C
:102820000146FEF795F86C48FEF7BFF96B4B214661
:10283000188880B201F0B0F8FEF7B7F96348FEF7E8
:10284000B4F9634B988880B201F032F8FEF7ADF925
:102850006048FEF7AAF9554B93F93D30032B1AD186
:1028600000200146FEF774F85D48FEF79EF95D4BC7
:10287000188800B201F01CF8FEF797F95A48FEF7E5
:1028800094F9534B588880B201F012F8FEF78DF995
:102890005048FEF78AF9454B93F93D30042B1AD185
:1028A00000200146FEF754F85048FEF77EF9504BE1
:1028B000188800B200F0FCFFFEF777F94A48FEF7EF
:1028C00074F9434B188880B200F0F2FFFEF76DF9FF
:1028D0004048FEF76AF9354B93F93D30052B3BD163
:1028E000394D444CFEF7C0FD2988238889B29BB23C
:1028F0003C4FCB1A42F210714B433A883E4E12B213
:10290000002093FBF2F30146B364FEF721F83B4845
:10291000FEF74BF9306C00F0CBFFFEF746F9384874
:10292000FEF743F9B06C00F0C3FFFEF73EF93548FF
:10293000FEF73BF93888344900B2002201F0F6FF77
:102940002888324980B2022201F0F0FF2088304905
:1029500080B2022201F0EAFF144C94F93D30062BBC
:1029600009D100200146FDF7F3FF01A9606A01F0DB
:1029700033F9FEF71AF90D4C94F93D30072B12D1BB
:1029800000200146FDF7E4FF2248FEF70EF9206C17
:102990004FF46163B0FBF3F000F08AFFFEF705F936
:1029A0001D48FEF702F907B0F0BD00BF7802002015
:1029B000645700084C060020695700084A060020AA
:1029C000455600086E57000848060020D0550008FC
:1029D0002C080020435600087357000850060020BA
:1029E000795700084E0600207F57000883570008DB
:1029F0007202002074020020040000208A570008A0
:102A00008D570008925700089A5700089E570008F3
:102A1000A5570008AD570008B4570008F8B53F4D5A
:102A2000002400F0EFFDFEF773FF3D482C60FEF739
:102A3000BCF8FEF706F821462046FDF789FF4FF463
:102A4000FA60FEF7F7F901F089FA2B68172B88BFB7
:102A50002C6001F019FD80B94FF47A70FEF7EAF9A5
:102A600001F012FD48B92F48FEF79FF84FF47A6045
:102A7000FEF7E0F92C48FDF72BFC2C4B2C4C1A6987
:102A80002C4B27481A6423694FF461625A432A4B3E
:102A90001A602A4BA2681A6001F008FFFDF782FD58
:102AA000FDF73FFF2648FDF75BFBA368012B17D01E
:102AB000022B01D1234814E0032B01D1224810E05E
:102AC000042B01D121480CE0052B01D1204808E05E
:102AD000062B01D11F4804E0072B01D11E4800E05E
:102AE0001E48FDF725FB134D1C4E002795F8353089
:102AF00085F82A70013385F83530FEF709FC022885
:102B0000044607D003282BD0012831D1FDF70AFB5A
:102B100040682BE0FDF706FB006827E08C060020EC
:102B20001F020020C2570008D3570008940000205D
:102B30005400002078020020280800203C080020D3
:102B4000850D0008344C0008604C00088C4C0008CF
:102B5000B84C0008E44C0008104D0008084C000870
:102B60000220FDF707FBFDF7DDFAC068FDF7E0FA8C
:102B7000FDF7D8FAB04202D12046FEF7DFFDFDF79F
:102B8000D1FA684B984202D12046FFF76BF8FDF767
:102B9000C9FA654B984202D12046FFF7A5FCFDF724
:102BA000C1FA624B984202D12046FFF73DFBFDF788
:102BB000B9FA5F4B984202D12046FEF729FFFDF794
:102BC000B1FA5C4B984202D12046FFF7A1F9FDF71C
:102BD000A9FA594B984202D12046FFF7A5F8FDF714
:102BE000A1FA564B984202D12046FFF7A7FDFDF708
:102BF00099FA534B984202D12046FEF745F9FDF76A
:102C000091FA504B984202D12046FEF7A9F9FDF700
:102C100089FA4D4B984202D12046FEF77DF9FDF727
:102C200081FA4A4B984202D12046FEF71FFEFDF77B
:102C300079FA474B984202D12046FEF745FDFDF751
:102C400071FA444B984202D12046FEF78FFCFDF703
:102C500069FA414B984202D12046FEF7C1FCFDF7CC
:102C600061FA3E4B984202D12046FEF7F3FCFDF795
:102C700059FA3B4B984202D12046FEF70BFCFDF778
:102C800051FA384B984202D12046FEF78DF9FDF7F4
:102C900049FA354B984202D12046FEF7C3F9FDF7B9
:102CA00041FA324B984202D12046FEF7E1F9FDF796
:102CB00039FA2F4B984202D12046FEF7FBF9FDF777
:102CC00031FA2C4B984202D12046FEF715FAFDF757
:102CD00029FA294B984202D12046FEF72BFAFDF73C
:102CE00021FA264B984202D12046FEF741FAFDF721
:102CF00019FA234B984202D12046FEF78FFA95F835
:102D00002A4054B9FEF704FE6A681E4B85F82C4031
:102D10009A60AB6885F83440AB636420FEF78AF8AC
:102D2000E4E600BF344C0008604C00088C4C0008FE
:102D3000B84C0008E44C0008104D00083C4D000859
:102D4000684D0008944D0008C04D0008EC4D000887
:102D5000184E0008444E0008604E00088C4E0008D3
:102D6000B84E0008D44E0008F04E00081C4F000872
:102D7000484F0008744F0008A04F0008CC4F0008CF
:102D8000F84F00089400002070B592B07E2312A97D
:102D9000002621F8043D48488DF84760FDF784FF80
:102DA00001214FF4007000F03DFB0120014600F0CE
:102DB0002DFB424B082502934FF480630893802338
:102DC0000693202309933E4B3E4801934FF48073B2
:102DD000079301A94FF400530A93049503960B96A9
:102DE000059600F0B5FF0121364800F0CFFF4FF403
:102DF000004000F0B9FA01244FF4602332480CA9D6
:102E00000E938DF835400F960C968DF840508DF846
:102E1000344000F019FC07232B482146224600F0DD
:102E200064FC02210A460723274800F05EFC0321C8
:102E30000A460723244800F058FC04210A460723C9
:102E4000214800F052FC05210A4607231E4800F0E5
:102E50004CFC06210A4607231B4800F046FC20468E
:102E600000F092FC072213461748112100F03DFCA8
:102E70002A4604231448102100F037FC124821464A
:102E800000F006FC1048214600F00BFC0E4800F054
:102E900011FC0D4800F013FC0028FAD10A4800F09C
:102EA00012FC094800F014FC0028FAD10648012160
:102EB00000F012FC12B070BD000801402C08002088
:102EC0004C24014008000240002401401FB50121AC
:102ED000022000F0B3FA104C01A8FDF7A5F945F661
:102EE000BF53ADF804302046052301A9ADF80830E2
:102EF000FDF750F901210A462046FDF7AAF92046C0
:102F00000121FDF79AF9054B4FF000521A6020227B
:102F100083F81D231FBD00BF0004004000E100E056
:102F2000224A234B91682DE9F04108319160C91A7A
:102F3000002808BF0120A729C8BF936093681268C2
:102F40001E689A4208BF194A184C08BF1660194FEC
:102F50002268988015252146BC46D2F80080984505
:102F6000B2F8048008BF1660804503D20868186074
:102F70000B600020BA42246814D01168D1F8008098
:102F80009845B1F8048008BF0E60804503D21068F0
:102F9000186013600020614504D0013DADB20A689D
:102FA000002DDAD1A088BDE8F08100BF30020020FA
:102FB000DC02002084030020234A244B51692DE9C0
:102FC000F04108315161C91A002808BF0120B1F54C
:102FD000A47FA8BF53615369D2681E689A4208BF94
:102FE000194A194908BFD66051F80C2F184F98801C
:102FF00029250C46BC46D2F800809845B2F80480DA
:1030000008BF1660804503D2206818602360002046
:10301000BA42096814D01468D4F800809845B4F80E
:10302000048008BF2660804503D2106818601360D2
:103030000020644504D0013DADB22268002DDAD1F4
:103040008888BDE8F08100BF300200208C0300209A
:10305000D4040020234A244B116A2DE9F0410831A1
:103060001162C91A002808BF0120B1F5A47FA8BFCA
:103070001362136A92691E689A4208BF194A194975
:1030800008BF966151F8182F184F988029250C46D3
:10309000BC46D2F800809845B2F8048008BF16609C
:1030A000804503D22068186023600020BA42096876
:1030B00014D01468D4F800809845B4F8048008BF90
:1030C0002660804503D210681860136000206445B4
:1030D00004D0013DADB22268002DDAD18888BDE868
:1030E000F08100BF30020020DC0400202406002014
:1030F0000F49D1F85433D1F85023C1F858339342D3
:10310000C1F85423C1F8500307DC834203DC90422A
:10311000A8BF104670479A4205DC824203DC984201
:10312000A8BF184670479A42B4BF10461846704769
:10313000DC0200200F49D1F86033D1F85C23C1F8DC
:1031400064339342C1F86023C1F85C0307DC834217
:1031500003DC9042A8BF104670479A4205DC8242C9
:1031600003DC9842A8BF184670479A42B4BF104685
:1031700018467047DC0200202DE9F7437048012112
:10318000FDF770F8002800F0D8806E4C0121D4F8CB
:1031900068336B480133C4F86833FDF76EF80025D7
:1031A0000220ADF80450ADF8065000F003FE0220F6
:1031B00000F00AFE644E02212A46644800F0F1FD48
:1031C000634BF1889B6A89B24B43B28992B2B3FBDD
:1031D000F2F39BB2ADF80630BDF8060080B2FFF7FF
:1031E00039FFA4F86C03B4F86C334FF4F0229BB2AF
:1031F000022B98BFA4F86C53B389554D9BB292FB38
:10320000F3F39BB2A4F86E33B1882B6B89B24B43B6
:10321000B28992B2B3FBF2F39BB2ADF80630BDF8BF
:10322000060080B2FFF77CFE80B2ADF80400BDF866
:103230000420484B92B21A80BDF804301BB2022B16
:1032400002DC0023ADF804303F4CAB6B2189A2892E
:1032500089B24B4392B2B3FBF2F39BB2ADF80630A6
:10326000BDF80600DFF8DC8000B2FFF763FFAB6952
:1032700080B24FF00A09A8F8700309FB03F36188D4
:10328000A28989B24B4392B2B3FBF2F39BB2ADF881
:103290000630BDF80600304F80B2FFF78DFE296A78
:1032A00080B2388009FB01F92288A38992B202FB1F
:1032B00009F99BB2B9FBF3F91FFA89F9ADF8069049
:1032C000BDF80600224E00B2FFF712FF234B80B27A
:1032D000234A18809268920753BF3A881B88326944
:1032E000B368D31A9BB2A8F87233164AB8F872338F
:1032F000174BBDF80410B2F872231B6C12B2534383
:10330000184A93FBF2F35B189BB2ADF80430BDF89A
:1033100004301BB2022B02DC0023ADF80430BDF8F0
:103320000420084B92B20948A3F874230221012219
:1033300003B0BDE8F04300F034BD03B0BDE8F08356
:1033400000040040DC0200202C080020080002409D
:10335000040000207402002070020020720200208D
:10336000000C0140F0D8FFFF034B5A6822F44042A2
:1033700010435860704700BF0010024010B51F4B4B
:103380005A6802F00C02042A01D0082A02D01C4B11
:10339000036011E05A685968C2F383420232C903DC
:1033A00001D4184B06E0DB6A154903F00F03013323
:1033B000B1FBF3F35A430260104A134B516804689F
:1033C000C1F30311595C24FA01F141605468C4F35C
:1033D00002241C5D21FA04F484605468C4F3C224FE
:1033E0001C5D21FA04F1C1605268C2F381329B185E
:1033F0001B7CB1FBF3F1016110BD00BF0010024066
:1034000000127A0000093D0054020020044B5A6962
:1034100009B1104301E022EA00005861704700BF83
:1034200000100240044B9A6909B1104301E022EAFE
:1034300000009861704700BF00100240044BDA6939
:1034400009B1104301E022EA0000D861704700BFD3
:103450000010024008B501210820FFF7E3FF214BCF
:103460001A6822F003021A601A6822F00C021A602D
:103470001A6842F002021A601A6822F00C021A60FE
:10348000194A516821F003015160516821F00C0183
:103490005160516841F002015160516821F00C0106
:1034A0005160516821F440515160516821F440410C
:1034B0005160516841F400515160516821F440411C
:1034C00051601A6822F030021A601A6822F0C002B5
:1034D0001A601A6842F020021A601A6822F0C002CC
:1034E0001A6008BD000C01400008014008B5082022
:1034F0000121FFF797FF164B1A6822F440121A6059
:103500001A6822F440021A601A6842F400021A6033
:1035100020221A611A6822F440321A601A6822F4D2
:1035200040221A601A6842F400221A6010221A61BE
:103530001A6822F040721A601A6822F040621A601B
:103540001A6842F000621A6040221A6108BD00BF8A
:10355000000C01401FB501212020FFF76FFF104C28
:1035600001A8FCF761FE40F65F13ADF80430204679
:103570000A2301A9ADF80830FCF70CFE01210A4628
:103580002046FCF766FE20460121FCF756FE054B5F
:103590004FF400025A60502283F837231FBD00BF4A
:1035A0000014004000E100E01FB501214FF400309D
:1035B000FFF738FF01A8FCF737FE104C0023ADF8E9
:1035C000063045F6BF53ADF8043020464FF47A7309
:1035D00001A9ADF80830FCF7DDFD01210A462046BF
:1035E000FCF737FE20460121FCF727FE044B4FF085
:1035F00000721A60102283F819231FBD0044014095
:1036000000E100E008B504200121FFF70BFF0820CE
:103610000121FFF707FF10200121FFF703FFFDF74E
:10362000D3FA01F0A3F8FFF715FFFFF75FFFFFF7ED
:1036300091FFFFF74BFCFFF7B7FFFFF70BFFBDE86C
:103640000840FFF7A1BB000043680A6823F4702319
:1036500023F4807313430A7910B543EA02234360CD
:103660008A68CB6884681A43084B234013434A791D
:1036700043EA420383600B7CC26A013B22F470027E
:10368000DBB242EA0353C36210BD00BFFDF7F1FF96
:10369000836811B143F0010301E023F0010383606B
:1036A0007047836811B143F4807301E023F48073A1
:1036B00083607047836843F00803836070478068C5
:1036C000C0F3C0007047836843F004038360704711
:1036D0008068C0F380007047836811B143F4A00391
:1036E00001E023F4A00383607047092970B54FF00F
:1036F00003040DD94C4307251E3C05FA04F503FAD3
:1037000004F3C66826EA050545EA0304C4600BE035
:103710004C43072505FA04F503FA04F4066926EA82
:10372000050545EA04030361062A4FF005030CD89A
:10373000013A53431F2202FA03F201FA03F3446BE6
:1037400024EA02021343436370BD0C2A0DD853438D
:103750001F22233B02FA03F201FA03F1046B24EA6D
:10376000020242EA0103036370BD53431F22413B3F
:1037700002FA03F201FA03F1C46A24EA020242EAFD
:103780000103C36270BD0000044B9A6810B142F49B
:10379000000201E022F400029A6070470024014018
:1037A00030B5038ACA8823F440531B041B0C13430F
:1037B00003820D4683890989AA8823F4B0530A43FA
:1037C000698923F00C030A431B041B0C92B21343B8
:1037D0008381838AAA8923F440731B041B0C87B05E
:1037E00013430446838201A8FFF7C8FD174BA28943
:1037F0009C420CBF049B039B12B2002A4FF019019C
:103800002A6801FB03F101DA520000E09200642310
:10381000B1FBF2F1B1FBF3F21201100903FB10113D
:10382000A08900B2002806DAC9003231B1FBF3F3F7
:1038300003F0070305E009013231B1FBF3F303F0B4
:103840000F031A4392B2228107B030BD0038014005
:10385000838919B19BB243F4005303E023F400536E
:103860001B041B0C83817047C1F3421310B5012464
:1038700001F01F01A34204FA01F101D10C3004E070
:10388000022B01D1103000E0143003680AB1194353
:1038900001E023EA0101016010BDC905C90D818065
:1038A0007047038819420CBF0020012070470000B8
:1038B0007FB580EAE072A2EBE0720DF1FF350023E4
:1038C0000A2492FBF4F104FB1122303205F8012F97
:1038D0001E4601330A1EDBB2F3DC002807DA5BB2B6
:1038E00004A8C3182D2203F8102CB31CDBB25AB263
:1038F00004A88118002001F8100C684481180748BA
:1039000011F8014C013BDBB2013900F8014F002BEB
:10391000F6D10348835404B070BD00BF5F06002099
:1039200060060020F0B5034685B083EAE370A0EBA3
:10393000E3700DF1FF3600220A2590FBF5F405FB3C
:103940001400303006F8010F17460132201ED2B2A3
:10395000F3DC002B07DA04AB52B29A182D2302F8DD
:10396000103CBA1CD2B250B204AC2318002403F8A5
:10397000104C0DEB040318180C46134652B210F805
:10398000015C013BDBB2013804F8015B002BF6D18E
:103990008B54084605B0F0BDF0B58BB080EAE073FB
:1039A000A3EBE0730DF1FF3600220A2593FBF5F43B
:1039B00005FB1433303306F8013F17460132231E4E
:1039C000D2B2F3DC53B20AADEC180025012B04F897
:1039D000285C04D13023BA1C8DF80130D2B2022AFF
:1039E00005D1012903D930238DF8023003220024A8
:1039F0000DF1280C23460CEB01062E2552B25FB2C6
:103A00008F4203D1013306F8145CDBB25FB20DF1D3
:103A1000280C67441DF804C0013407F814CC67B2C1
:103A200001339742DBB2EADB002807DA5AB20AA96F
:103A30008A1801332D2102F8141CDBB259B205ADEE
:103A4000084800226C1804E0A55C013B00F8015F07
:103A5000DBB2013A002BF7D1034841180B74103048
:103A60000BB0F0BD6F060020600600202DE9F0418C
:103A700003468AB083EAE370A0EBE3700DF1FF37F1
:103A800000240A2690FBF6F506FB1500303007F8F7
:103A9000010FA4460134281EE4B2F3DC60B20AAE82
:103AA00035180026012805F8286C05D130200CF1C6
:103AB00002048DF80100E4B2022C05D1012A03D9D9
:103AC00030208DF80200032400250DF12808284637
:103AD00008EB02072E2664B24FFA80FC944503D10E
:103AE000013007F8146CC0B24FFA80FC0DF12808C1
:103AF000C4441DF8058001350CF8148C4FFA85FC80
:103B00000130A445C0B2E7DB002B07DA43B20AAAB2
:103B1000D31801302D2203F8142CC0B242B205AEE6
:103B20000C460023B51804E0EE5C013804F8016B84
:103B3000C0B2013B0028F7D1885408460AB0BDE85E
:103B4000F081002802D001DC404200B270470346F9
:103B5000002001E00130C0B21A5C002AFAD170479F
:103B600030B50346002401E0155501341D5DE0B277
:103B7000002DF9D12B4645B2551903E00130EC5424
:103B8000C0B20133CC5C002CF8D140B214541046C2
:103B900030BD70B5002501E05E550135465DECB2E3
:103BA000002EF9D1304666B29E1903E00134355437
:103BB000E4B201300D5C002DF8D1294665B25D19E3
:103BC00003E001346854E4B20131505C0028F8D1BC
:103BD00064B21855184670BD2DE9F041074686B00D
:103BE0004FF461600C46B7FBF0F001A9FFF79AFEB5
:103BF00001A8FFF7ACFF012803D83023237001266A
:103C000000E000260023A11902E0CA54EEB20133FD
:103C10000DF1040813F80820751C002AF5D13A228A
:103C200073B2E2543C23B7FBF3F2B2FBF3F003FBB5
:103C300010204146FFF776FE4046FFF788FF012837
:103C4000EDB204D86DB230236355B51CEDB269B244
:103C50000023611802E0CA54F5B201330DF10408E3
:103C600013F808206E1C002AF5D13A226BB2E254F8
:103C70003C23B7FBF3F003FB10704146FFF752FE05
:103C80004046FFF764FF0128F6B204D876B230232D
:103C90000235A355EEB271B20023611803E001367C
:103CA000CA54F6B2013301AA9A5C002AF7D176B25F
:103CB000A255204606B0BDE8F0812DE9F0418046CE
:103CC00086B04FF461600C46B8FBF0F001A9FFF735
:103CD00029FE01A8FFF73BFF012803D830232370FA
:103CE000012500E000250023611902E0CA54F5B265
:103CF000013301AFDA5D6E1C002AF7D13A226BB2B4
:103D0000E2543C23B8FBF3F8B8FBF3F003FB10805C
:103D10003946FFF707FE3846FFF719FF0128F6B2CC
:103D200004D876B230230235A355EEB271B2002327
:103D3000611803E00136CA54F6B2013301AA9A5C55
:103D4000002AF7D176B2A255204606B0BDE8F08130
:103D50008B6810B50C6A026823430C6922F4FE429A
:103D600023434C6922F0F00223438C692343CC693E
:103D700023434C6A23438C6A234313430360CB6879
:103D800043600B6883604B68C36010BD19B1036862
:103D900043F0010303E002684FF6FE731340036033
:103DA000704703680AB1194301E023EA0101016089
:103DB00070470000C2004CBF014B024B5860704777
:103DC0000004024000000240C3004CBF014B024B04
:103DD000586070470004024000000240C37810B5EC
:103DE000F3B1154B4178DB688478DB43C3F30223DE
:103DF000C3F1040201FA02F10F2222FA03F2224077
:103E00000A430E4B01781201CB18D2B283F800237B
:103E100003780122590903F01F0302FA03F307E0B4
:103E200003780122590903F01F0302FA03F320313A
:103E3000024A42F8213010BD00ED00E000E100E050
:103E40000F4AD36813F0010F0D4BFAD1DA689206CE
:103E500001D52022DA601A6942F002021A61586123
:103E60001A6942F040021A61054AD168044B89067A
:103E7000FBD52022DA601A6922F002021A6170472B
:103E800000200240034B044A5A6002F188325A6013
:103E9000704700BF0020024023016745024B1A69AA
:103EA00042F080021A61704700200240124AD36833
:103EB00013F0010F104BFAD1DA68920601D52022D7
:103EC000DA601A6942F001021A618BB203800A4B70
:103ED000DA6812F0200F084AFAD02023090CD360C8
:103EE0004180D168044B8906FBD52022DA601A692B
:103EF00022F001021A6170470020024070B572B6CC
:103F0000114CFFF7BFFF4FF4CE701049002200F0B4
:103F10000DFD20680E49002200F008FD0D48FFF756
:103F20008FFF0C4D0C4E2B1903F17843A3F5F233A0
:103F3000284619680435FFF7B9FFB542F3D1FFF7FA
:103F4000ADFF62B670BD00BF8C060020E1580008CE
:103F5000E858000800E401089CE5010810B5074B8B
:103F60000749084A58181C6800F178400433A0F546
:103F7000F23093420460F5D1012010BD00E4010845
:103F80008C0600209CE5010870B504680E468C4242
:103F900001D3944211D90A4B00251D7009492A46C4
:103FA00000F0C4FC204608492A4600F0BFFC074840
:103FB00007492A4600F0BAFC3446204670BD00BFCF
:103FC00068020020EE5800080559000800EC0108BE
:103FD0001759000810B5184C6068FFF731FF60688A
:103FE0002168FFF763FFE068A168FFF75FFF606982
:103FF0002169FFF75BFFE069A169FFF757FF606A7E
:10400000216AFFF753FFE06AA16AFFF74FFF606B79
:10401000216BFFF74BFFE06BA16BFFF747FF606C75
:10402000216CFFF743FFE06CA16CFFF73FFF0348F3
:1040300000F03CFC10BD00BF040000202E59000819
:1040400010B5184C6068FFF7FBFE60682168FFF749
:104050002DFFE068A168FFF729FF60692169FFF77C
:1040600025FFE069A169FFF721FF606A216AFFF778
:104070001DFFE06AA16AFFF719FF606B216BFFF774
:1040800015FFE06BA16BFFF711FF606C216CFFF770
:104090000DFFE06CA16CFFF709FF034800F006FC80
:1040A00010BD00BF5C0100204759000838B5224C04
:1040B000002160684FF48072FFF766FF00212060E6
:1040C0004FF47A72E068FFF75FFF0021A0604FF4C1
:1040D0007A726069FFF758FF184D20610A212A465D
:1040E000E069FFF751FF0A21A0612A46606AFFF7E5
:1040F0004BFF0A2120622A46E06AFFF745FF0A21AA
:10410000A0622A46606BFFF73FFF0A2120632A4620
:10411000E06BFFF739FF4621A063C822606CFFF710
:1041200033FF0A212064C822E06CFFF72DFFA06452
:10413000034800F0BBFB38BD04000020A08601004E
:104140006759000838B5224C002160684FF480722E
:10415000FFF71AFF002120604FF47A72E068FFF742
:1041600013FF0021A0604FF47A726069FFF70CFF23
:10417000184D20610A212A46E069FFF705FF0A2150
:10418000A0612A46606AFFF7FFFE0A2120622A46E4
:10419000E06AFFF7F9FE0A21A0622A46606BFFF78A
:1041A000F3FE0A2120632A46E06BFFF7EDFE46216D
:1041B000A063C822606CFFF7E7FE0A212064C822D2
:1041C000E06CFFF7E1FEA064034800F06FFB38BD30
:1041D000AC010020A08601008159000810B5144CE4
:1041E0006068FFF72DFE60682168FFF75FFEE068FA
:1041F000A168FFF75BFE60692169FFF757FEE06980
:10420000A169FFF753FE606A216AFFF74FFEE06A7B
:10421000A16AFFF74BFE606B216BFFF747FEE06B77
:10422000A16BFFF743FE034800F040FB10BD00BF49
:1042300054000020A459000810B5144C6068FFF722
:10424000FFFD60682168FFF731FEE068A168FFF7B5
:104250002DFE60692169FFF729FEE069A169FFF77A
:1042600025FE606A216AFFF721FEE06AA16AFFF776
:104270001DFE606B216BFFF719FEE06BA16BFFF772
:1042800015FE034800F012FB10BD00BFDC0000204B
:10429000BA59000838B51D4C002160684FF480728F
:1042A000FFF772FE012120600A22E068FFF76CFE32
:1042B0000121A0604FF47A726069FFF765FE012169
:1042C00020614FF47A62E069FFF75EFE0121A06190
:1042D0004FF47A62606AFFF757FE42F2107520626F
:1042E00000212A46E06AFFF74FFE0021A0622A461D
:1042F000606BFFF749FE002120636422E06BFFF74B
:1043000043FEA063024800F0D1FA38BD54000020FB
:10431000D759000838B51D4C002160684FF48072F1
:10432000FFF732FE012120600A22E068FFF72CFE31
:104330000121A0604FF47A726069FFF725FE012128
:1043400020614FF47A62E069FFF71EFE0121A0614F
:104350004FF47A62606AFFF717FE42F2107520622E
:1043600000212A46E06AFFF70FFE0021A0622A46DC
:10437000606BFFF709FE002120636422E06BFFF70A
:1043800003FEA063024800F091FA38BD1C01002032
:10439000EE59000810B50C4C0022A0680B4900F043
:1043A000C5FA6068FFF74CFD60682168FFF77EFD85
:1043B000E068A168FFF77AFD60692169FFF776FD83
:1043C000034800F073FA10BD940000200E5A000854
:1043D0001D5A000810B50A4C6068FFF731FD60688F
:1043E0002168FFF763FDE068A168FFF75FFD606982
:1043F0002169FFF75BFD034800F058FA10BD00BFCC
:10440000AC0000203B5A000838B50C4C0021606815
:104410004FF48072FFF7B8FD094D206000212A4655
:10442000E068FFF7B1FD0021A0602A466069FFF750
:10443000ABFD2061034800F039FA38BD940000203C
:1044400000286BEE625A000838B50C4C00216068F9
:104450004FF48072FFF798FD094D206000212A4635
:10446000E068FFF791FD0021A0602A466069FFF730
:104470008BFD2061034800F019FA38BDC40000200C
:1044800000286BEE815A000870B50C4D01242C7089
:1044900072B6FFF7B9FFFFF7FDFEFFF707FE62B642
:1044A0002E782EB9064800F001FA2C70304670BD07
:1044B000044800F0FBF92C70204670BD6802002013
:1044C000A95A0008C25A0008F0B5C1B007460D4607
:1044D0001446684608494FF4807200F03FFA6E4671
:1044E00017F8013B013D5C40EDB2345D002DF7D182
:1044F000204641B0F0BD00BFE157000838B572B6A4
:10450000FFF7C0FC4C2100223448FFF7DDFF344B9D
:1045100004461860FFF794FDFFF714FE4C210022BB
:104520003048FFF7D1FF844203D12F4800F0BEF995
:1045300004E02E4800F0BAF9FFF782FD3C2100228A
:104540002B48FFF7C1FF00222A49044600F0EEF98C
:10455000002229493C2000F0E9F9284B1C60FFF7B4
:104560006BFEFFF7D7FE3C2100222548FFF7ACFF8A
:1045700000222049054600F0D9F93C2000221E49BE
:1045800000F0D4F9AC4203D11E4800F08FF904E0EA
:104590001D4800F08BF9FFF74FFE142100221B4845
:1045A000FFF792FF1A4B04461860FFF713FFFFF75F
:1045B0004BFF142100221748FFF786FF844203D1E6
:1045C000154800F073F904E0144800F06FF9FFF7A4
:1045D00001FFFFF763FC62B638BD00BF6001002039
:1045E0005C010020B0010020DD5A0008025B0008D9
:1045F000E0000020325B00083D5B0008DC0000208A
:1046000020010020495B00086B5B0008B00000201F
:10461000AC000020C8000020985B0008C25B0008C6
:1046200010B572B6142100221048FFF74DFF104B51
:1046300004461860FFF726FCFFF7ACFEFFF704FF07
:10464000142100220B48FFF73FFF844203D10A48A0
:1046500000F02CF904E0094800F028F9FFF79AFE71
:10466000FFF71CFC62B6012010BD00BF98000020BF
:1046700094000020C8000020995B0008C35B00087C
:1046800038B572B63C2100221948FFF71DFF002201
:104690001849044600F04AF9002217493C2000F06E
:1046A00045F9164B1C60FFF7EDFBFFF797FDFFF791
:1046B00031FE3C2100221248FFF706FF00220D497F
:1046C000054600F033F93C2000220B4900F02EF99A
:1046D000AC4203D10B4800F0E9F804E00A4800F0CE
:1046E000E5F8FFF77BFDFFF7D9FB62B6012038BD87
:1046F00058000020335B00083E5B00085400002097
:10470000200100204A5B00086C5B000810B572B6FF
:104710004C2100221048FFF7D7FE104B04461860CA
:10472000FFF7B0FBFFF756FCFFF70CFD4C21002212
:104730000B48FFF7C9FE844203D10A4800F0B6F8DF
:1047400004E0094800F0B2F8FFF744FCFFF7A6FBCD
:1047500062B6012010BD00BF080000200400002048
:10476000B0010020DE5A0008035B000830B54FF4AA
:10477000164387B0009300231C46ADF80430ADF813
:104780000630ADF80830ADF80C3004200C230121C0
:10479000ADF80A30FEF746FE01214FF48040FEF7E7
:1047A00041FE4FF4C063154DADF8103018238DF85D
:1047B000133004A9032312488DF81230FCF774FA61
:1047C00069462846FEF7ECFF25238DF814308DF856
:1047D00016402223012405A88DF815308DF81740C6
:1047E000FFF7FCFA28462146FFF732F8284640F248
:1047F00025512246FFF738F807B030BD0038014098
:10480000000801400A4B1A78C72A0FD85A7809497C
:1048100088541A780132D2B21A705A780132D2B260
:104820005A705A78C82A01D100225A70704700BFC6
:10483000810600204008002010B5194C23889806F6
:1048400003D5A088C0B2FFF7DDFF2388144A1906FC
:104850001AD5144B997889B1D9781348415C918065
:104860009A78013AD2B29A70DA780132D2B2DA701A
:10487000DA78C82A08D10022DA7005E0938923F09B
:1048800080031B041B0C9381054A13885B0605D526
:10489000138823F040031B041B0C138010BD00BFC2
:1048A00000380140810600200809002010B50446A8
:1048B0000AE00D488021FEF7F4FF0028F9D014F833
:1048C000011B0948FEF7E9FF2378002BF1D10648C8
:1048D0008021FEF7E6FF0028F9D003480A21BDE851
:1048E0001040FEF7DABF00BF0038014082B0064B2F
:1048F0008DF807001A885206FCD59DF80720024B58
:104900009A8002B0704700BF00380140064B1A463B
:1049100005E019884906FCD510F8011B9180017843
:104920000029F6D1704700BF0038014037B501902B
:104930000C46019812B9FEF7BBFF02E01146FFF7E3
:104940002BF805462046FFF7E1FF2846FFF7DEFF7C
:104950000A2003B0BDE83040FFF7C8BF0F2AF0B40B
:104960003AD941EA00039B0738D10C460346154665
:104970002668103D1E6066685E60A6689E60E668F8
:104980001034DE6010330F2DF2D8A2F1100424F0A1
:104990000F0402F00F021034032A00EB0403214439
:1049A00011D90E461D46144656F8047B043C032CD0
:1049B00045F8047BF8D8141F24F00304043402F0F3
:1049C000030209191B192AB111F8014B013A03F826
:1049D000014BF9D1F0BC70470346F4E70346F3E717
:1049E00000000000000000000000000000000000C7
:1049F000000000000000000069693A2000513A20E0
:104A0000004352432843616C6962726174696F6E3E
:104A100029203D0043616C6962726174696F6E3078
:104A200056616C7565466F7243757272656E74205F
:104A30003D0043616C6962726174696F6E305661EA
:104A40006C7565466F7243757272656E7431203D88
:104A50000043616C6962726174696F6E56616C7556
:104A600065466F7243757272656E74203D004361D6
:104A70006C6962726174696F6E56616C7565466FC0
:104A80007243757272656E7431203D0043616C69CA
:104A900062726174696F6E56616C7565466F7256AD
:104AA0006F6C74616765203D0043616C696272617F
:104AB00074696F6E56616C7565466F72566F6C7473
:104AC00061676531203D0043616C696272617469A0
:104AD0006F6E56616C7565466F72566F6C74616768
:104AE0006532203D00526573697374616E6365437E
:104AF0006F6D705F497368756E745F576972657327
:104B0000203D00526573697374616E6365436F6D18
:104B1000705F4D4F53464554203D00435243285348
:104B2000657474696E67734461746129203D004F38
:104B30007074696F6E31286D656E7520706F736962
:104B400074696F6E29203D0043686172676554691E
:104B50006D65203D004C6F77566F6C746167652002
:104B60003D004D6178566F6C74616765203D004370
:104B700068617267654164617074203D00537769B4
:104B80006E675F436872675F74696D65203D0053AF
:104B900077696E675F44436872675F74696D65200B
:104BA0003D00435243285361766544617461576800
:104BB000656E506F7765724F666629203D004261D1
:104BC000747465727943617061636974794469735F
:104BD00063686172676550726576696F7573566157
:104BE0006C7565203D004261747465727943617033
:104BF0006163697479446973636861726765437559
:104C00007272656E74203D00E0490008E0490008BA
:104C1000E0490008C854000800000000000000003F
:104C20002020202020202020202020202020202084
:104C300000000000E0490008E0490008E0490008E1
:104C40009C540008000000000000000020202020EC
:104C500020202020202020202020202000000000D4
:104C6000E0490008E0490008E049000870540008E5
:104C700000000000D90D0008202020202020202046
:104C8000202020202020202000000000E0490008F3
:104C9000E0490008E0490008445400080000000012
:104CA000D90D000820202020202020202020202096
:104CB0002020202000000000E0490008E049000812
:104CC000E04900081854000800000000910D000899
:104CD00020202020202020202020202020202020D4
:104CE00000000000E0490008E0490008E049000831
:104CF000EC530008000000000000000020202020ED
:104D00002020202020202020202020200000000023
:104D1000E0490008E0490008E0490008C0530008E5
:104D20000000000000000000202020202020202083
:104D3000202020202020202000000000E049000842
:104D4000E0490008E0490008945300080000000012
:104D500000000000202020202020202020202020D3
:104D60002020202000000000E0490008E049000861
:104D7000E04900086853000800000000610D0008C9
:104D80002020202020202020202020202020202023
:104D900000000000E0490008E0490008E049000880
:104DA0008451000800000000710D00082020202020
:104DB0002020202020202020202020200000000073
:104DC000E0490008E0490008E0490008B051000847
:104DD00000000000710D000820202020202020204D
:104DE000202020202020202000000000E049000892
:104DF000E0490008E04900082C51000800000000CC
:104E0000710D00082020202020202020202020209C
:104E10002020202000000000E0490008E0490008B0
:104E2000E04900085851000800000000710D00081A
:104E30002020202020202020202020202020202072
:104E400000000000E0490008E0490008E0490008CF
:104E5000A850000800000000710D000800000000CC
:104E6000E0490008E0490008E0490008D450000883
:104E700000000000710D00082020202020202020AC
:104E8000202020202020202000000000E0490008F1
:104E9000E0490008E0490008005100080000000057
:104EA000710D0008202020202020202020202020FC
:104EB0002020202000000000E0490008E049000810
:104EC000E04900087C50000800000000710D000857
:104ED00000000000E0490008E0490008E04900083F
:104EE000505000080000000000000000000000001A
:104EF000E0490008E0490008E049000810530008B4
:104F0000000000006D0D000820202020202020201F
:104F1000202020202020202000000000E049000860
:104F2000E0490008E0490008E452000800000000E1
:104F30006D0D00082020202020202020202020206F
:104F40002020202000000000E0490008E04900087F
:104F5000E0490008B8520008000000006D0D00088C
:104F60002020202020202020202020202020202041
:104F700000000000E0490008E0490008E04900089E
:104F80008C520008000000006D0D00082020202039
:104F90002020202020202020202020200000000091
:104FA000E0490008E0490008E049000860520008B4
:104FB000000000006D0D000820202020202020206F
:104FC000202020202020202000000000E0490008B0
:104FD000E0490008E04900083452000800000000E1
:104FE0006D0D0008202020202020202020202020BF
:104FF0002020202000000000E0490008E0490008CF
:10500000E04900080852000800000000590E00089E
:105010002020202020202020202020202020202090
:1050200000000000B051000850500008E04900089E
:105030003C53000800000000000000004F4B2074AB
:105040006F20657869742020202020200000000057
:10505000245000087C500008E0490008D44E0008A5
:1050600000000000000000004261636B20746F20AC
:10507000466163746F727920000000005050000890
:10508000A8500008E0490008B84E000800000000E1
:105090000000000052657369737420636F6D7020A7
:1050A00035563141000000007C500008D450000803
:1050B000E0490008444E0008000000000000000025
:1050C000566F6C7461676520496E20202020202077
:1050D00000000000A850000800510008E049000846
:1050E000604E00080000000000000000566F6C7465
:1050F000616765204F75742020202020000000008B
:10510000D45000082C510008E04900088C4E0008DB
:105110000000000000000000566F6C74616765209D
:1051200050532020202020200000000000510008C3
:1051300058510008E0490008EC4D0008000000004C
:105140000000000043555252454E54204C6F61649C
:1051500020202020000000002C510008845100086D
:10516000E0490008184E00080000000000000000A0
:1051700043555252454E54204F7574202020202014
:105180000000000058510008B0510008E049000834
:10519000944D0008000000000000000043555252EA
:1051A000454E54204C6F616420746F300000000045
:1051B0008451000824500008E0490008C04D000850
:1051C000000000000000000043555252454E54209C
:1051D0004F757420746F20300000000010530008D9
:1051E00008520008E0490008F454000800000000DC
:1051F000000000004F4B20746F20657869742020F8
:105200002020202000000000DC510008345200085B
:10521000E0490008F84F000800000000000000000E
:1052200030373A53617665204D656E7520506F7347
:10523000000000000852000860520008E049000821
:10524000CC4F0008000000000000000030363A4358
:1052500068617267652061646461707400000000B9
:10526000345200088C520008E0490008A04F0008A2
:10527000000000000000000030353A53776E6744AC
:105280006973436872672054000000006052000890
:10529000B8520008E0490008744F00080000000000
:1052A0000000000030343A5377696E67204368721B
:1052B0006720546D000000008C520008E452000882
:1052C000E0490008484F000800000000000000000E
:1052D00030333A4D617820566F6C746167652020D9
:1052E00000000000B852000810530008E049000810
:1052F0001C4F0008000000000000000030323A4C53
:105300006F7720566F6C7461676520200000000085
:10531000E4520008DC510008E0490008F04E0008A3
:10532000000000000000000030313A4368617267FD
:10533000652074696D65202000000000F4540008A9
:1053400068530008E0490008B05100080000000060
:105350000000000043414C4942524154494F4E2005
:1053600020202020000000003C5300089453000837
:10537000E0490008684D000800000000000000003F
:105380004C4F47202020202020202020202020209B
:105390000000000068530008C0530008E0490008FE
:1053A0003C4D000800000000000000004449414757
:1053B0004E4F53544943202020202020000000005D
:1053C00094530008EC530008E0490008104D000811
:1053D00000000000000000005377696E6720202065
:1053E000202020202020202000000000C0530008A2
:1053F00018540008E0490008E44C000800000000D0
:1054000000000000547261696E696E6720202020E0
:105410002020202000000000EC5300084454000825
:10542000E0490008B84C000800000000000000003F
:105430004469734368617267652020202020202022
:10544000000000001854000870540008E0490008EB
:105450008C4C0008000000000000000043686172EE
:105460006765206164646170742020200000000082
:10547000445400089C540008E0490008604C0008AF
:10548000000000000000000043686172676520436F
:1054900043204356202020200000000070540008C4
:1054A000C8540008E0490008344C0008000000001F
:1054B000000000004C6F616420202020202020206C
:1054C00020202020000000009C540008F454000814
:1054D000E0490008084C000800000000000000003F
:1054E000506F776572537570706C79202020202082
:1054F00000000000C85400083C530008E0490008C0
:105500001053000800000000000000005365747490
:10551000696E6773202020202020202000000000DA
:1055200043616C6962726174696F6E006D416800FD
:105530006368617267653D00695F4C6F67497465B8
:105540006D733A20004D5265636F726473517561DB
:105550006E746974793A20006D41203E3E20736577
:1055600074203020202000466163746F72792D70A2
:1055700072657373203E3E00496E2050726F636304
:10558000657373202E2E2E2E00466163746F727920
:1055900020617265204F4B202000466163746F725A
:1055A0007920617265204F4B00454570726F6D2008
:1055B00072656164204641494C00682020200056F5
:1055C00020202000207365632E202020002520004D
:1055D000562000506F776572537570706C7920207B
:1055E000202020004C6F6164204D656E75202020C6
:1055F00020202020004368617267652043432043D8
:105600005620202020004368617267652061646431
:10561000617074202020004469734368617267657B
:105620002020202020202000547261696E696E675E
:105630002020202020202020005377696E67202022
:105640002020202020202020200030006D4F6D20C1
:1056500020202020202000562020006D4120200006
:105660006D41202020006D4120202020004F4E2041
:105670000064633A2000506F7765724F4646200001
:1056800055206F66663A20006D41202020202020A2
:10569000004F66665768656E2056623C00502000D9
:1056A0006D41682020202020006D414820202020CE
:1056B0002000496E6974207374617475733A200018
:1056C000656E74657265645F696E5F636861726759
:1056D000655F6469736368617267655F6D656E7548
:1056E0003A20004368617267657374617475732052
:1056F00074696D65723A2000436861726765546928
:105700006D655365633A200044697363686172672D
:10571000657374617475732074696D65723A2000E5
:1057200044697363686172676554696D6553656345
:105730003A20006D412020202020005620202020EB
:1057400020007320202000547261696E696E67200A
:10575000496E69742000432000543A0068204D616E
:1057600078563A0055696E3D002055633D005570EE
:10577000732000556F75742000496F757420006D9B
:10578000412000496C6F61642000523D006D4F6DF7
:1057900020006D4F6D2020202000493A2000555FE9
:1057A00050533A200055206F75743A20004F6C64B6
:1057B00020433D006D416820202020202020202013
:1057C0002000454570726F6D20526561642046412E
:1057D000494C00454570726D526561644641494CC3
:1057E0000000070E091C1B1215383F363124232AEE
:1057F0002D70777E796C6B6265484F464154535AE1
:105800005DE0E7EEE9FCFBF2F5D8DFD6D1C4C3CA10
:10581000CD90979E998C8B8285A8AFA6A1B4B3BA80
:10582000BDC7C0C9CEDBDCD5D2FFF8F1F6E3E4EDAD
:10583000EAB7B0B9BEABACA5A28F88818693949D20
:105840009A2720292E3B3C35321F18111603040DD0
:105850000A5750595E4B4C45426F68616673747DC0
:105860007A898E878095929B9CB1B6BFB8ADAAA36A
:10587000A4F9FEF7F0E5E2EBECC1C6CFC8DDDAD360
:10588000D4696E676075727B7C51565F584D4A4390
:1058900044191E171005020B0C21262F283D3A3300
:1058A000344E49404752555C5B7671787F6A6D642F
:1058B000633E39303722252C2B0601080F1A1D14A0
:1058C00013AEA9A0A7B2B5BCBB9691989F8A8D8450
:1058D00083DED9D0D7C2C5CCCBE6E1E8EFFAFDF440
:1058E000F373697A653A200076616C3A200046616C
:1058F000696C20746F2072656164206164647265F4
:1059000073733A2000454570726F6D56616C756512
:10591000206973203A2000464C4153485F4241536E
:10592000452B313032342A313233203A2000436162
:105930006C6962726174696F6E5772697465546FD5
:10594000466C617368200043616C696272617469BE
:105950006F6E466163746F72795772697465546FC4
:10596000466C617368200043616C6962726174699E
:105970006F6E5265616446726F6D466C617368202C
:105980000043616C6962726174696F6E5265616433
:1059900046726F6D466C617368466F7256657269C8
:1059A0006679200053657474696E67735772697401
:1059B00065546F466C617368200053657474696E3A
:1059C0006773466163746F72795772697465546F57
:1059D000466C617368200053657474696E67735216
:1059E00065616446726F6D466C6173682000536533
:1059F0007474696E67735265616446726F6D466C4C
:105A0000617368466F7256657269667920005772D5
:105A10006974652043206D6148203A200044617418
:105A2000615768656E506F7765724F666657726929
:105A30007465546F466C61736820004461746157EB
:105A400068656E506F7765724F66665F4661637416
:105A50006F72795F5772697465546F466C617368D1
:105A60002000446174615768656E506F7765724FAE
:105A700066665265616446726F6D466C617368203C
:105A800000446174615768656E506F7765724F6648
:105A9000665265616446726F6D466C617368466FED
:105AA000725665726966792000526561642066727B
:105AB0006F6D20454570726F6D202D204641494C19
:105AC0002000526561642066726F6D2045457072DA
:105AD0006F6D202D2053554343455353004643617A
