:020000040800F2
:10000000E00D002085020008CD020008CD020008A6
:10001000CD020008CD020008CD020008000000005B
:10002000000000000000000000000000CD020008F9
:10003000CD02000800000000CD020008CD0200083B
:10004000CD020008CD020008CD020008CD02000854
:10005000CD020008CD020008CD020008CD02000844
:10006000CD020008CD020008CD020008CD02000834
:10007000CD020008CD020008CD020008CD02000824
:10008000CD020008CD020008CD02000800000000EB
:10009000000000000000000000000000CD02000889
:1000A000CD020008B9150008CD020008CD020008F5
:1000B000CD020008393B000800000000CD02000816
:1000C000CD0200080000000000000000CD02000882
:1000D0000000000059520008CD0200080000000096
:1000E000CD020008CD020008CD020008000000008B
:1000F0000000000000000000000000000000000000
:1001000000000000000000000000000000000000EF
:100110000000000000000000CD020008A91C00083B
:100120005FF808F1014B1868704700BF000000201D
:10013000084B10B598420BD050B1074B074C1B68C9
:1001400020600BB11830984723681B6903B19847AA
:1001500010BD00BF00540008700200200000002005
:10016000024B1860024B1868FFF7E2BF70020020D4
:100170000000002008B5054B054A1B68934203D0D8
:1001800013B15B6903B1984708BD00BF00000020B0
:1001900000540008224A038890429BB212D002F514
:1001A000006290420ED0B0F1804F0BD0A2F5983291
:1001B000904207D002F58062904203D002F580623F
:1001C000904203D14A8823F070031343154A9042AA
:1001D00008D002F58062904204D023F44073CA88AC
:1001E0009BB2134303808B8883850B8803850C4B5C
:1001F00098420FD003F5006398420BD003F540639B
:10020000984207D003F58063984203D003F58063DA
:10021000984201D10B7A038601238382704700BF85
:10022000002C0140001000404FF6FF738380002334
:100230000380C380438003727047038819B19BB267
:1002400043F0010303E023F001031B041B0C0380B4
:10025000704783899BB20AB1194301E023EA010187
:1002600081817047038A828911EA030092B203D028
:1002700011420CBF002001207047C94389B201829E
:100280007047000008B50C4A0C4B0D4903E052F8CA
:10029000040B43F8040B8B42F9D30A480A494FF088
:1002A00000028842B8BF40F8042BFADB00F018FACD
:1002B000BDE8084003F06AB812680008000000209A
:1002C0007002002070020020E0090020FEE700001C
:1002D0002DE9F843564D0646286803F0F9FF2B68D0
:1002E00011210024594304E00A19AA18013413719A
:1002F000E4B2035D4E4A002BF6D113681121594335
:10030000081910183A25057104E00F2C09D80D19A9
:100310005519287116F8010B0134E4B20028F4D104
:100320000DE0112202FB034241498A18002111719C
:1003300005E01819081801340271E4B203E0112233
:100340003B49534320220F2C394DF2D9002220463D
:10035000384904F0FBFF2B68112202FB03440133F0
:100360002A190024172B14712B6057D90A26A0468E
:100370002F46204603F0ACFF4FF0110E00230EFB7A
:1003800004FE05E00EEB0301691801330A71DBB2CC
:10039000C25C1121002AF5D101FB04F27143D0188F
:1003A00038184FF03A0E013380F804E0DBB294467F
:1003B0005FFA84FE681810E0BEF1090F05D901EB61
:1003C0000309A94499F8049003E000EB030999F8A4
:1003D0000590013382F80490DBB20CEB0302AA18FB
:1003E00092F80490B9F1000FE6D1013B1121DBB284
:1003F0006143202204E0C818281801330271DBB2DF
:100400000F2BF8D9112202FB04330134FB180136FB
:100410000E2C83F80480ACD1054B1C6004F07EFAEE
:10042000034B054918680022BDE8F84304F08EBF6D
:100430009C060020185400081D5400082DE9F047C0
:10044000554F054638680E4603F042FF3B681121C0
:100450000024594304E00A19BA1801341371E4B2B4
:10046000035D4D4A002BF6D1136811215943081939
:100470001018067104E00F2C09D80F19D71938711C
:1004800015F8010B0134E4B20028F4D10DE011227B
:1004900002FB034240498A180021117105E0181936
:1004A000081801340271E4B203E011223A495343BF
:1004B00020220F2C384DF2D900222046374904F073
:1004C00045FF2B68112202FB034401332A19002443
:1004D000172B14712B6054D90A27A146A846204631
:1004E00003F0F6FE4FF0110E00230EFB04FE05E0B4
:1004F0000EEB0301691801330A71DBB2C25C1121F2
:10050000002AF5D101FB04F27943D01840440133AD
:100510000671DBB294465FFA84FE681810E0BEF103
:10052000090F05D901EB030AAA449AF804A003E0D5
:1005300000EB030A9AF805A0013382F804A0DBB2AD
:100540000CEB0302AA1892F804A0BAF1000FE6D14E
:10055000013B1121DBB26143202204E0C8182818B6
:1005600001330271DBB20F2BF8D9112202FB0433E5
:100570000134434401370E2C83F80490AFD1064B6D
:100580001C6004F0CBF9044B054918680022BDE853
:10059000F04704F0DBBE00BF9C06002018540008A2
:1005A0001D54000810B5384C00222068374904F06B
:1005B000CDFEA0680022364904F0C8FE2069002262
:1005C000344904F0C3FEA0690022334904F0BEFEA2
:1005D000206A0022314904F0B9FEA06A00223049A5
:1005E00004F0B4FE206B00222E4904F0AFFEA06B95
:1005F00000222D4904F0AAFE206C00222B4904F0B1
:10060000A5FEA06C00222A4904F0A0FE206D002265
:10061000284904F09BFEA06D0022274904F096FEB5
:10062000206E0022254904F091FEA06E002224498C
:1006300004F08CFE206F0022224904F087FED4F8DB
:1006400088000022204904F081FEA06F1F4900228B
:1006500004F07CFED4F8800000221D4904F076FEF0
:10066000D4F8900000221B4904F070FED4F89800E2
:100670000022194904F06AFED4F8A00017490022AC
:10068000BDE8104004F062BE0400002021540008C0
:100690003454000852540008715400088E54000865
:1006A000AC540008C9540008E75400080555000878
:1006B000235500083B5500084F55000868550008B1
:1006C00075550008825500088F5500089D55000893
:1006D000AF550008C2550008DE5500080656000850
:1006E000314B82B01A6842F001021A6059682F4AF1
:1006F0000A405A601A6822F0847222F480321A602A
:100700001A6822F480221A605A6822F4FE025A60A3
:100710004FF41F029A600022DA62009201921A6876
:1007200042F480321A601A6802F400320192009A90
:1007300001320092019A1AB9009AB2F5A06FF2D173
:10074000194B1B6813F4003318BF01230193019B5D
:10075000012B23D1144B5A685A605A685A605A6860
:100760005A605A6822F47C125A605A6842F498120D
:100770005A601A6842F080721A6019680A4A890140
:10078000FBD5536823F003035360536843F002031F
:100790005360536803F00C03082BFAD1044B4FF05D
:1007A00000629A6002B07047001002400000FFF83B
:1007B00000ED00E084B0ADF80600BDF806304FF45F
:1007C000FA629BB2534301E0039B013B0393039BFB
:1007D000002BF9D104B0704784B0ADF80600BDF825
:1007E00006309BB25B0001E0039B013B0393039B3C
:1007F000002BF9D104B0704710B5074C4FF480437B
:1008000023610220FFF7E8FF4FF0804302202361BD
:10081000BDE81040FFF7E0BF000C014070B50F4C81
:100820004FF07C454FF4805625612661FFF7E4FFC9
:100830000120FFF7BFFF25612661FFF7DDFF0120E3
:10084000FFF7B8FF4FF4806325612361FFF7D4FF02
:100850000120BDE87040FFF7ADBF00BF000C0140B4
:10086000254B4FF07C4270B504460D461A6111B11C
:100870004FF400421A61E20644BF4FF400521A617D
:100880001D4B14F0200F1CBF4FF480521A616606F6
:1008900044BF4FF400621A61174E14F0800F1CBF62
:1008A0004FF480633361FFF7A7FF4FF07053E00709
:1008B000336103D5104B4FF400521A61A10703D5E1
:1008C0000D4B4FF480521A61620703D50A4B4FF467
:1008D00000621A61230703D5074B4FF480621A6147
:1008E000FFF78AFF0220FFF765FF1DB1024B4FF0B3
:1008F00000421A6170BD00BF000C0140034610B9F0
:10090000082019460BE021B90AB90C2003E00D209C
:1009100005E012B90E20114601E00F200021FFF77B
:100920009FBF01200021FFF79BBF08B56420FFF7A0
:1009300041FFFFF773FF012001460022FFF7DEFFB2
:10094000BDE80840FFF7EDBFC0B20121FFF788BF47
:10095000054B1870597011B940F0800002E040F06A
:10096000C0000021FFF77CBF7A0200202DE9F84388
:1009700089460646DFF86C800127194C29E0B22829
:1009800001D1492011E0AF2801D103200DE0DE287C
:1009900002D10120014609E0AA2801D1022004E089
:1009A000BF2884BF404410F8C00C0121FFF758FF56
:1009B000237865780133DBB2237055B9082B08D151
:1009C000B9F1020F05D128460121FFF7C1FF2570BB
:1009D000677016F8010B0028D1D1BDE8F88300BF7D
:1009E0007A020020FC01002070B506460D46002466
:1009F0000CE00121FFF734FF012D06D1E3B2072BF4
:100A000003D100202946FFF7A3FF0134305D002801
:100A1000EFD170BDC00040F0400038B5C0B20D4607
:100A20000021FFF71DFF0024285D01210134FFF79D
:100A300017FF082CF8D180200021BDE83840FFF7CF
:100A40000FBF2DE9F3410025042415271F264FF081
:100A50000E08284669468DF800408DF803408DF851
:100A600005408DF801708DF802808DF804508DF8E6
:100A700006608DF80760FFF7CDFF012069468DF80D
:100A800002408DF806408DF800708DF801808DF8D9
:100A900003508DF804508DF805508DF80760FFF76E
:100AA000B9FF022069468DF801408DF805408DF8A8
:100AB00000508DF802808DF803708DF804508DF889
:100AC00006608DF80760FFF7A5FF032069468DF8E3
:100AD00000408DF803408DF806408DF801808DF8B8
:100AE00002708DF804508DF805508DF80760FFF7FF
:100AF00091FF204669468DF800408DF803408DF83F
:100B000004408DF807408DF801808DF802708DF853
:100B100005708DF80680FFF77DFF02238DF8003009
:100B20000A238DF803308DF804301C2307248DF838
:100B300005308DF806300520082369468DF807300A
:100B40008DF801408DF80240FFF764FF0F238DF808
:100B5000003005238DF801308DF802308DF8033018
:100B60008DF804300620092369468DF806308DF88B
:100B700005708DF80750FFF74DFF11238DF80030F9
:100B80008DF801308DF802302046012369468DF83A
:100B900003608DF804308DF805308DF806308DF83F
:100BA0000750FFF737FFBDE8FC810221FFF7DEBEEB
:100BB00010B5044608461146FFF7CAFE204602213A
:100BC000BDE81040FFF7D2BE08B5364B5A6822F494
:100BD00040725A605A6842F400725A605A6822F4AD
:100BE00040625A605A6842F480625A605A6822F43D
:100BF00040525A605A6842F400525A605A6822F4CD
:100C000040425A605A6842F480425A605A6822F45C
:100C100040325A605A6842F400325A605A6822F4EC
:100C200040225A605A6842F480225A605A6822F47C
:100C300040125A605A6842F400125A605A6822F40C
:100C400040025A605A6842F480025A605A6822F0A0
:100C500040725A605A6842F000725A605A6822F034
:100C600040625A605A6842F080625A605A6822F0C4
:100C700040525A605A6842F000525A605A6822F054
:100C800040425A605A6842F080425A60FFF74DFE77
:100C9000FFF747FE002101200A46BDE80840FFF7A4
:100CA0002DBE00BF000C0140CB782DE9F04303F0CE
:100CB0000F02DB0648BF8B780E8848BF1A4316F038
:100CC000FF0F1FD0046800234FF001084FF00F0CF6
:100CD00008FA03F707EA0605BD420FD19F000CFA98
:100CE00007F902FA07F724EA09043C43CF78282FD2
:100CF00001D1456102E0482F08BF05610133082B8F
:100D0000E6D104600E88FF2E21D9446800234FF0FD
:100D100001084FF00F0C03F1080708FA07F707EA7C
:100D20000605BD420FD19F000CFA07F902FA07F73A
:100D300024EA09043C43CF78282F01D1456102E021
:100D4000482F08BF05610133082BE4D14460BDE89A
:100D5000F083836819420CBF002001207047000017
:100D6000014B00221A8070477C02002004F098B9E1
:100D700008B504F0DBF90248BDE80840FFF7A8BA5F
:100D8000F05F000818B100210A46FFF711BF704755
:100D900010B5134C002290B06068124904F0D6FAE6
:100DA000626849F6AF239A4217D90BA9A06803F0ED
:100DB00094FC60684FF46163B0FBF3F001A903F0A9
:100DC000C1FA09490BAA06AB03F0F3FB06A80121FF
:100DD000FFF734FB06A804F079FA10B010BD00BF8D
:100DE0007C020020FC5F00080460000810B50F4C76
:100DF00049F6AF23E26890B09A4214D90BA9206952
:100E000003F06BFCE0684FF46163B0FBF3F001A901
:100E100003F098FA06490BAA06AB03F0CAFB06A832
:100E20000221FFF70BFB10B010BD00BF7C020020B9
:100E30000460000884B0ADF80600BDF806304FF439
:100E400016629BB2534301E0039B013B0393039B58
:100E5000002BF9D104B0704708B507200121FFF736
:100E600077FDFF200121FFF7FBFC04F019F9044B8B
:100E7000C8209A68034B1A60BDE80840FFF7DABF44
:100E8000540000204C08002008B53E4B93F9140094
:100E900060B90146FFF75CFD3B48FFF786FE3B4B20
:100EA0004FF487629A6102F5BE721A62354B93F96C
:100EB0001430012B0DD100200146FFF749FD3448C5
:100EC000FFF773FE314B4FF496729A614FF4D27272
:100ED0001A622C4B93F91430022B0DD100200146DD
:100EE000FFF736FD2B48FFF760FE284B4FF48C725E
:100EF0009A614FF4B9721A62224B93F91430032BA2
:100F00000CD100200146FFF723FD2348FFF74DFEDB
:100F10001E4BA0229A614FF48C721A62194B93F9FE
:100F20001430042B0DD100200146FFF711FD1B48A2
:100F3000FFF73BFE154B4FF448729A614FF4AA62DB
:100F40001A62104B93F91430052B0CD10020014686
:100F5000FFF7FEFC1248FFF728FE0C4B64229A6153
:100F60004FF4FA621A62074B93F91420062A01D152
:100F700000221A7504F094F84FF41670BDE808408A
:100F8000FFF758BF7C0200200860000854000020D2
:100F9000196000082A6000083B6000084C600008E7
:100FA0005D60000882B00190019A4FF0804392B2D8
:100FB0009A8500229A8409221A80198A4FF0804269
:100FC000C907FAD5138A23F001031B041B0C1382F3
:100FD00002B0704710B596B000230446084610A929
:100FE0008DF854208DF8553003F077FB4FF4616095
:100FF00001A9B4FBF0F003F0A5F910AA06AB07496C
:1010000003F0D7FA06A915A80BAA03F0B9FA0BA8A2
:101010000421FFF713FA16B010BD00BF04600008EA
:10102000022838B51E4B09D11A881E49013292B2E6
:1010300009681A8012B28A4213D310E0012810D135
:101040001A88013A92B210041A8003D5154A126820
:10105000013A1A80124BB3F90020002A01DA00226B
:101060001A8000200F4C0146FFF772FC0C4D2346FE
:1010700053F8040BB5F900200138801A112202FB45
:101080000030FFF792FDB5F900000022064904F098
:101090005DF9206805490022BDE8384004F056B9E2
:1010A0007C0200209C0600206E6000087B60000827
:1010B00010B5044600200146FFF74AFC0A4B188889
:1010C00000B203F005F9FFF770FD0848FFF76DFD6A
:1010D000022C08D1064B1A88064B12B29A60BDE862
:1010E000104004F023B810BD5E0600208E6000089A
:1010F000740200200400002010B5044600200146C0
:10110000FFF726FC0A4B188800B203F0E1F8FFF75E
:101110004CFD0848FFF749FD022C08D1064B1A8800
:10112000064B12B21A61BDE8104003F0FFBF10BDBC
:101130005E0600208E600008760200200400002079
:1011400010B5044600200146FFF702FC1648FFF7E1
:101150002CFD022C27D103F0E1FE03F0A5FE04468E
:1011600000200146FFF7F4FB1048FFF71EFD4FF487
:10117000FA60FFF75FFE00200146FFF7E9FB012C54
:1011800008D10B48FFF711FD0A48FFF7A1F84FF40B
:10119000FA6004E00848FFF708FD4FF47A60BDE804
:1011A0001040FFF747BE10BD9D600008AE6000080C
:1011B000BF600008D0600008DF600008022810B59A
:1011C0000E4C02D12369013303E0012802D12369C7
:1011D000013B236100200146FFF7BAFB206903F0C1
:1011E00077F8FFF7E2FC0648FFF7DFFC23694FF4CE
:1011F00061625A43034B1A6010BD00BF54000020C7
:10120000F060000838080020022810B5324B07D1E2
:101210001A7D0132D2B2072A1A750BD1002208E0DA
:10122000012807D11A7D013AD2B214061A7501D5E8
:1012300006221A75284C94F9140028B90146FFF7C4
:1012400087FB2648FFF7B1FC94F91430012B06D137
:1012500000200146FFF77CFB2148FFF7A6FC1E4C4F
:1012600094F91430022B06D100200146FFF770FBE1
:101270001C48FFF79AFC94F91430032B06D1002088
:101280000146FFF765FB1848FFF78FFC124C94F9F5
:101290001430042B06D100200146FFF759FB1348F8
:1012A000FFF783FC94F91430052B06D1002001468A
:1012B000FFF74EFB0E48FFF778FC074B93F914300D
:1012C000062B08D100200146FFF742FB0948BDE884
:1012D0001040FFF76ABC10BD7C020020F5600008DA
:1012E00006610008186100082961000839610008DA
:1012F0004A6100085A610008022810B50D4C02D15D
:10130000A3690A3303E0012802D1A3690A3BA36160
:1013100000200146FFF71CFBA0690A23B0FBF3F095
:10132000012103F049F8FFF740FC0348BDE81040F5
:10133000FFF73BBC5400002025600008022810B5D0
:101340000D4C02D1236A0A3303E0012802D1236A3B
:101350000A3B236200200146FFF7FAFA206A0A23BB
:10136000B0FBF3F0012103F027F8FFF71EFC034860
:10137000BDE81040FFF719BC5400002025600008AC
:10138000022810B50B4C02D1A36A013303E00128F7
:1013900002D1A36A013BA36200200146FFF7D8FAFD
:1013A000A06A02F095FFFFF700FC0348BDE810407B
:1013B000FFF7FBBB540000206A610008022810B54B
:1013C0000B4C02D1236B013303E0012802D1236BC4
:1013D000013B236300200146FFF7BAFA206B02F0BD
:1013E00077FFFFF7E2FB0348BDE81040FFF7DDBBE6
:1013F000540000206A610008022838B51A4C02D156
:10140000A36B013303E0012802D1A36B013BA3636B
:1014100000200146FFF79CFAA06B02F059FFFFF78E
:10142000C4FB1248FFF7C1FB206A0A250121B0FB6B
:10143000F5F002F0C1FFFFF7B8FB0D48FFF7B5FB71
:10144000236AA06B64225843B0FBF2F01B1AB3FB73
:10145000F5F0012102F0B0FFFFF7A7FB0548BDE85A
:101460003840FFF7A2BB00BF5400002073610008A2
:10147000766100082560000808B5084B1A68084B1B
:101480009B689A4209D107200121FFF761FAFF20EA
:101490000121BDE80840FFF7E3B908BD4C08002072
:1014A0005400002010B5044600200146FFF750FA12
:1014B000022C194B06D19A680132082A9A6009D188
:1014C000012206E0012C05D19A68013A9A600AB916
:1014D00007229A60104A9368013B062B18D8DFE870
:1014E00003F00406080A0C0E10000C480AE00C4831
:1014F00008E00C4806E00C4804E00C4802E00C4808
:1015000000E00C48FFF751FBBDE81040FFF7B4BF07
:101510000123936010BD00BF5400002079610008D2
:101520008A6100089B610008AC610008BD61000889
:10153000CE610008DF61000810B518481021FFF7E0
:1015400008FC80B115482021FFF703FC68B113485F
:101550004021FFF7FEFB50B110488021FFF7F9FB57
:10156000C0B9042204E0032202E0022200E00122CA
:101570000B4B40F2DC50D98A0CB2844203DD40F2BE
:10158000B451D98204E0013189B21429D98204D13D
:101590001A7610BD024B0022DA8210BD000C014009
:1015A0007C020020034B0022187E00B1DA611A761B
:1015B000704700BF7C02002038B520480121FEF7AB
:1015C00051FE002838D001211C48FEF756FE1C4B66
:1015D0001A8812B2012A07DC1A4CE568188800B292
:1015E00002F0BFFF4519E560154B1A8812B2022AB6
:1015F00007DD144C6568188800B202F0B2FF451987
:101600006560104B93F82020012A02D19A680132BC
:101610009A6093F821300B4A012B02D113690133F0
:101620001361084B93F82220012A02D15A6A013231
:101630005A629A6A01329A6238BD00BF0044014082
:101640005E0600207C020020034B00225A62012229
:1016500083F82220704700BF7C020020034B002249
:101660005A62012283F82220704700BF7C020020CA
:1016700038B504464FF46160B4FBF0F002F028FE88
:10168000054602F074FF012803D812480121FFF734
:10169000ABF901212846FFF7A7F901210E48FFF712
:1016A000A3F93C23B4FBF3F4B4FBF3F003FB1040C9
:1016B00002F00EFE044602F05AFF012803D8054846
:1016C0000121FFF791F920460121BDE83840FFF7DD
:1016D0008BB900BFF06100086E630008074B4FF440
:1016E00080321A614FF08072A3F580631A61044B57
:1016F000002283F82C2083F82D207047000C014035
:101700007C020020064A01231361064A82F82C302D
:1017100082F82D30044B4FF480721A61704700BF7D
:10172000000C01407C0200200008014038B52D4B20
:101730000122054683F82E20FFF7E4FF022D2A4CF4
:1017400002D12388013303E0012D02D12388013B1C
:10175000238000200146FFF7FBF80221208802F0D9
:101760002BFEFFF722FA2148FFF71FFA204B214AF0
:101770001888138880B21BB2002B21881E4B01DC15
:1017800046220AE0401A118802B222EAE27242F2CC
:101790001070424309B292FBF1F2174C1A64206CAC
:1017A00002F096FDFFF701FA1448FFF7FEF9144B1B
:1017B00019880F4B89B21A880E4B92B2188800B262
:1017C000002801DC0A230AE0891A1A880BB223EAEE
:1017D000E37342F210714B4312B293FBF2F3A36432
:1017E00038BD00BF7C0200201C020020766100088A
:1017F000780200205E06002004000020F26100084C
:101800005806002038B5174B0122054683F82E20D4
:10181000FFF778FF022D144C02D1A36B013303E0D4
:10182000012D02D1A36B013BA36300200146FFF70A
:101830008FF8A06B02F04CFDFFF7B7F90B48FFF7EC
:10184000B4F900200121FFF783F8094B0221188821
:1018500080B202F0B1FDFFF7A8F90648BDE83840B4
:10186000FFF7A3B97C02002004000020EC6100080F
:101870005C060020FD61000838B5174B01220546C3
:1018800083F82E20FFF73EFF022D144C02D1236B6C
:10189000013303E0012D02D1236B013B23630020C0
:1018A0000146FFF755F8206B02F012FDFFF77DF9B6
:1018B0000B48FFF77AF900200121FFF749F8094B9F
:1018C0000221188880B202F077FDFFF76EF9064812
:1018D000BDE83840FFF769B97C0200200400002011
:1018E000EC61000860060020FD61000838B5174B68
:1018F0000122054683F82E20FFF704FF022D144C29
:1019000002D1A36A013303E0012D02D1A36A013B96
:10191000A36200200146FFF71BF8A06A02F0D8FC82
:10192000FFF743F90B48FFF740F900200121FFF7CB
:101930000FF8094B0221188880B202F03DFDFFF735
:1019400034F90648BDE83840FFF72FB97C02002083
:1019500004000020EC61000858060020FD6100082A
:1019600038B5174B0122054683F82E20FFF7CAFE33
:10197000022D144C02D1A369013303E0012D02D1E1
:10198000A369013BA36100200146FEF7E1FFA069C6
:1019900002F09EFCFFF709F90B48FFF706F9012159
:1019A0000020FEF7D5FF094B188800B202F090FC2A
:1019B000FFF7FBF80648BDE83840FFF7F6B800BF70
:1019C0007C02002004000020EC6100085E0600207C
:1019D0000162000870B52D4D06460124002085F8EF
:1019E0002E400146FEF7B4FF95F82C50F5B9284B70
:1019F0000221188880B202F0DFFCFFF7D6F82548F4
:101A0000FFF7D3F829460720FEF7A2FF224B1888DC
:101A100000B202F05DFCFFF7C8F82048FFF7C5F8F8
:101A200005202146FEF794FF1D481DE01D4B0221B5
:101A3000188880B202F0C0FCFFF7B7F81548FFF72E
:101A4000B4F800210720FEF783FF134B188800B27B
:101A500002F03EFCFFF7A9F81348FFF7A6F80620AE
:101A60002146FEF775FF1148FFF79FF8022E0BD1B4
:101A7000064B93F82C301BB9BDE87040FFF742BE0F
:101A8000BDE87040FFF72ABE70BD00BF7C02002099
:101A900058060020FD6100085E060020066200086E
:101AA0002B620008600600200C6200081362000828
:101AB000064B02221A61064B012283F82C2083F880
:101AC0002F20044B4FF400621A617047000C014054
:101AD0007C0200200008014010B50B4C94F9303016
:101AE000022B10D0022384F83030FFF7F7FDFFF708
:101AF000DFFF002332206363FFF754FA0348BDE899
:101B0000104003F0E3BB10BD7C0200201762000808
:101B100008B5FFF7E3FDFFF7CBFF3220BDE8084033
:101B2000FFF740BA38B5174B0122054683F82E203F
:101B3000FFF7EEFF022D144C02D1236A013303E0BC
:101B4000012D02D1236A013B236200200146FEF7EA
:101B5000FFFE206A02F0BCFBFFF727F80B48FFF7F7
:101B600024F801210020FEF7F3FE094B188800B28B
:101B700002F0AEFBFFF719F80648BDE83840FFF762
:101B800014B800BF7C02002004000020EC610008B3
:101B90005E06002001620008074B4FF400321A6114
:101BA000064B002283F82C2083F82F20044B4FF0A3
:101BB00000621A61704700BF000C01407C020020E7
:101BC0000008014008B5FFF7E7FFBDE80840FFF750
:101BD00085BD00002C4B30B51B8891B09BB2B3F58E
:101BE000FA6F2A4C4BD2FFF7EDFFA378002B48D1B8
:101BF000274D0123A370EB68264C236103F020FAE4
:101C000002222069244903F0A1FBEA6849F6AF23C8
:101C10009A4214D90BA9286902F05FFD20694FF49C
:101C20006163B0FBF3F001A902F08CFB1B490BAA26
:101C300006AB02F0BEFC06A80221FEF7FFFB124D28
:101C40000A23288801A980B2B0FBF3F0012202F038
:101C50001DFC06AA0146124802F092FCFEF738FB72
:101C6000322428880F4980B20222013C03F06EFB27
:101C7000E4B20A20FFF7DEF8002CF2D101E00023E5
:101C8000A37011B030BD00BF5C0600201C02002014
:101C90007C020020940000202162000804600008FB
:101CA000266200083062000808B509480121FEF7E5
:101CB000D9FA58B106480121FEF7DFFAFFF73CFCDC
:101CC000FFF788FF034B5A6B01325A6308BD00BF10
:101CD000001400407C02002038B5844B012193F8A9
:101CE0003820054683F82E104AB983F8202083F85F
:101CF000381083F8212083F83920DA601A617C4B90
:101D00007C491A88896992B2784B8A425A8701D3F2
:101D1000002205E093F839200AB99A6ADA630122B1
:101D200083F839209A6ADB6B704CD31A032B07D9DE
:101D300094F8393023B1FFF745FF002384F82130B0
:101D4000022D6A4C0CD194F82C301BB9FFF7E0FE41
:101D5000012302E0FFF736FF002384F821300CE076
:101D6000012D0AD194F84030013BDBB21D0684F806
:101D7000403002D5032384F840305C4C94F9400095
:101D8000002835D10146FEF7E3FD594B02211888A2
:101D900080B202F011FBFEF708FF5748FEF705FF7F
:101DA000564B188800B202F093FAFEF7FEFE544834
:101DB000FEF7FBFE94F82C3013B90720012105E053
:101DC00094F8413007200121052B03D8FEF7C0FD10
:101DD000022002E0FEF7BCFD03200121FEF7B4FD66
:101DE000424B93F841200A2A02D9002283F841206D
:101DF0003E4B93F94040012C13D100200146FEF7E1
:101E0000A7FD4048FEF7D1FE3A4B214698690A23C8
:101E1000B0FBF3F002F0D0FAFEF7C7FE3A48FEF747
:101E2000C4FE324C94F94030022B1AD100200146F6
:101E3000FEF78EFD3548FEF7B8FE354B98684FF437
:101E40006163B0FBF3F002F043FAFEF7AEFE3148F7
:101E5000FEF7ABFE03200121FEF77AFD606CFFF771
:101E600007FC224C94F94050032D19D10020014663
:101E7000FEF76EFD2848FEF798FEE0684FF46163B8
:101E8000B0FBF3F002F024FAFEF78FFE2348FEF7D2
:101E90008CFE28460121FEF75BFD2069FFF7E8FB79
:101EA000124C002294F838001D4903F04FFA94F8C0
:101EB0002E0000221B4903F049FA94F8200000226A
:101EC000194903F043FAA0680022184903F03EFACA
:101ED00094F821000022164903F038FA20691549C8
:101EE0000022BDE8384003F031BA00BF7C02002078
:101EF0006006002054000020766100085E06002085
:101F00003862000841620008256000084D62000840
:101F10009400002050620008146200085962000812
:101F20006262000870620008856200089A62000818
:101F3000AA620008C262000810B50B4C94F9303058
:101F4000012B10D0012384F83030FFF725FEFFF776
:101F5000D9FB002332206363FFF724F80348BDE870
:101F6000104003F0B3B910BD7C0200201A620008D3
:101F700070B5044600200146FEF7EAFC6F4B0122D3
:101F800093F8381083F82E201E4619B983F83820AC
:101F9000FFF75AFB726A6A4E684DB36A9A4211D8CB
:101FA000FFF7CAFF674B1A88336A92B29A4209D97F
:101FB0006B6BB3F5C87F05D9FFF750FB6A6AB36A4C
:101FC000D3186B625D4D5E4E6A6AB36A9A420DD950
:101FD000FFF782FD5B4B1A88B36992B29A4205D231
:101FE0006B6BB3F5C87F01D9FFF738FB544B6A6AB6
:101FF000196B9B6ACB189A4201D9FFF72FFB022C71
:102000004E4B09D193F840200132D2B2032A83F813
:1020100040200ED100220AE0012C0AD193F8402082
:10202000013AD2B283F84020120602D5022283F888
:102030004020424D95F94040002C32D120462146A7
:10204000FEF786FC3F4B0221188880B202F0B4F9FB
:10205000FEF7ABFD3C48FEF7A8FD3C4B188800B2EC
:1020600002F036F9FEF7A1FD3948FEF79EFD062085
:102070000121FEF76DFC05200121FEF765FC95F8B6
:102080002D500720012D05D12946FEF761FC204681
:10209000294604E00121FEF75BFC02200121FEF746
:1020A00053FC264B93F94040012C23D10020244DB2
:1020B0000146FEF74DFC286902F00AF9FEF775FDAE
:1020C0002448FEF772FDA8690A262146B0FBF6F007
:1020D00002F072F9FEF769FD1B48FEF766FD286AFB
:1020E0002146B0FBF6F002F067F9FEF75EFD1A48F4
:1020F000FEF75BFD114C94F94030022B1DD10020FE
:102100000F4D0146FEF724FCA86A02F0E1F8FEF745
:102110004CFD1248FEF749FD286B02F0D9F8FEF796
:1021200044FD0F48FEF741FD03200121FEF710FC9E
:102130002069BDE87040FFF79BBA70BD7C020020AB
:102140005400002060060020766100085E06002032
:10215000D562000899660008676000088763000878
:10216000DD62000870B5784B054693F82E40002CD0
:102170003CD1764B1A88764B92B21B6A05339A4251
:1021800015D221462046FEF7E3FB7248FEF70DFD0F
:102190004FF4FA60FEF706FF20462146FEF7D8FB13
:1021A0006D48FEF702FD40F6B830FEF7FBFE664BC9
:1021B0000024012683F82E6083F8204083F8214014
:1021C0009C601C615C645C60DC6083F82060FFF7ED
:1021D000B3FE624B2046DE702146FEF7B9FB604835
:1021E000FEF7E3FC4FF47A70FEF7DCFE5D4B1888D7
:1021F00000B202F0B6F9052840F369815A4B1A88FB
:10220000534B92B29B699A421DD2544BDA78022A00
:1022100019D14D4C636BB3F57A7F14D9002384F840
:102220002130E168514B994203D9E0682169FEF7FA
:10223000D1FE00230126A360636084F82060FFF7CD
:102240007BFE464BDE70484B1A88414B92B21B6AAC
:102250009A423D4B07D9414AD278012A03D15A6BA1
:10226000B2F57A7F08D89A68414B1B689A4220D908
:102270003A4BDB78012B1CD1334C002384F82030FF
:1022800062683A4B9A4204D960680122A168FEF75D
:10229000A1FE23696364E268364B9A6000232361E0
:1022A000E360012384F82130FFF716FC2B4B022258
:1022B000DA70022D244B09D193F840200132D2B2BA
:1022C000052A83F840200ED100220AE0012D0AD110
:1022D00093F84020013AD2B2110683F8402002D58B
:1022E000042283F84020184D95F94040002C4ED12F
:1022F00020462146FEF72CFB1B4B0221188880B29A
:1023000002F05AF8FEF751FC1B48FEF74EFC154B45
:10231000188800B201F0DCFFFEF747FC1748FEF713
:1023200044FC06200121FEF713FB04200121FEF7E7
:102330000BFB95F82D500720012D21D12946FEF7E2
:1023400007FB2046294620E07C020020580600209A
:1023500054000020E5620008F66200081C0200201C
:10236000076300085E060020600600204F8C050011
:10237000380800209400002076610008D56200082B
:102380000121FEF7E5FA02200121FEF7DDFA6A4B92
:1023900093F94040012C23D10020684D0146FEF7FF
:1023A000D7FA286901F094FFFEF7FFFB6448FEF7B7
:1023B000FCFBA8690A262146B0FBF6F001F0FCFF01
:1023C000FEF7F3FB5F48FEF7F0FB286A2146B0FBFF
:1023D000F6F001F0F1FFFEF7E8FB5B48FEF7E5FBE6
:1023E000554C94F94050022D21D100200146FEF7B2
:1023F000AFFA28460121FEF7A7FA00210120FEF7D7
:10240000A7FA5248FEF7D1FBE0684FF46163B0FBD6
:10241000F3F001F05DFFFEF7C8FB4D48FEF7C5FB8A
:1024200003200121FEF794FA2069FFF721F9424CBD
:1024300094F94050032D21D100200146FEF788FA7F
:1024400000200121FEF780FA00210120FEF780FA2A
:102450003E48FEF7AAFB60684FF46163B0FBF3F0FF
:1024600001F036FFFEF7A1FB3948FEF79EFB284638
:102470000121FEF76DFAA068FFF7FAF82E4C94F9E7
:102480004030042B2FD100200146FEF761FA0220D4
:102490000121FEF759FA00210120FEF759FA2D48D3
:1024A000FEF783FB2C4B98684FF46163B0FBF3F0AD
:1024B00001F00EFFFEF779FB2848FEF776FB0320BC
:1024C0000121FEF745FA606CFFF7D2F80BE01A4BDA
:1024D0005B6BB3F57A7F06D900200146FEF738FA28
:1024E0001F48FEF762FB144C002294F82E001D4991
:1024F00002F02CFF94F8200000221B4902F026FF76
:10250000A0680022194902F021FF606800221849E2
:1025100002F01CFF94F821000022164902F016FF79
:1025200020690022144902F011FFE06813490022DB
:10253000BDE8704002F00ABF7C0200205400002079
:10254000996600087661000867600008EE6100087F
:10255000186300084D6200089400002059620008CA
:102560002263000870620008856200089A62000811
:1025700033630008AA620008C26200084B630008C7
:10258000F8B5934B054693F82E40002C3ED1914B65
:102590001A88914B92B21B6A05339A4215D2214692
:1025A0002046FEF7D5F98D48FEF7FFFA4FF4FA60A2
:1025B000FEF7F8FC20462146FEF7CAF98848FEF7E8
:1025C000F4FA40F6B830FEF7EDFC814C0027012606
:1025D00084F82E6084F8207084F82170A760276149
:1025E00067646760E76084F82060FFF7A5FC7D4BB7
:1025F0003946DE703846FEF7ABF97B48FEF7D5FA70
:102600004FF47A70FEF7CEFC84F84860704C94F971
:102610004830032B00F3D080744B188800B201F0CF
:10262000A0FF052840F3BB80714B1A886A4B92B219
:102630009B699A4227D26B4BDA78022A23D1636BCB
:10264000B3F57A7F1FD9002384F82130E168694B04
:10265000994203D9E0682169FEF7BCFC5C4C012675
:1026600023696364E268644B84F820609A60002305
:102670006360A360FFF760FC94F848309B1984F80E
:102680004830584BDE705A4B1A88534B92B21B6A33
:102690009A424F4B07D9534AD278012A03D15A6B39
:1026A000B2F57A7F08D89A68544B1B689A4224D9AD
:1026B0004C4BDB78012B20D1454C94F94830022B50
:1026C0001BDC002384F8203062684A4B9A4204D90C
:1026D00060680122A168FEF77DFC012384F82130A7
:1026E0000023E3602361FFF7F7F994F848300222F2
:1026F000013384F848303B4BDA703D4B1A88364B37
:1027000092B21B6A9A42324B07D9364AD278012AD2
:1027100003D15A6BB2F57A7F08D89A68374B1B6899
:102720009A4221D92F4BDB78012B1DD1284C94F9EB
:102730004830022B18DDFFF745FA002384F82030DB
:1027400084F8213062682B4B9A4204D960680122D8
:10275000A168FEF73FFC1E4B93F84820013283F836
:102760004820022283F84020022D194B09D193F80A
:1027700040200132D2B2042A83F840204FD10022F7
:102780000AE0012D4BD193F84020013AD2B2140651
:1027900083F8402043D5032283F840203FE0636B59
:1027A000B3F57A7F40F2EA8000200146FEF7D0F8C8
:1027B0001348FEF7FAF9E1E0022D23D194F84030F6
:1027C0000133DBB2042B84F8403028D1002324E00D
:1027D0007C0200205806002054000020E56200081A
:1027E000F66200081C020020076300085E06002055
:1027F000600600204F8C050094000020380800205F
:1028000022630008012D0AD194F84030013BDBB26D
:10281000180684F8403002D5032384F840306C4D0C
:1028200095F94040002C32D120462146FEF790F821
:10283000684B0221188880B201F0BEFDFEF7B5F9A1
:102840006548FEF7B2F9654B188800B201F040FD0B
:10285000FEF7ABF96248FEF7A8F906200121FEF762
:1028600077F804200121FEF76FF895F82D50072026
:10287000012D05D12946FEF76BF82046294604E0D4
:102880000121FEF765F802200121FEF75DF8504BAB
:1028900093F94040012C23D10020524D0146FEF710
:1028A00057F8286901F014FDFEF77FF94E48FEF74E
:1028B0007CF9A8690A262146B0FBF6F001F07CFD00
:1028C000FEF773F94448FEF770F9286A2146B0FB19
:1028D000F6F001F071FDFEF768F94448FEF765F97E
:1028E0003B4C94F94050022D21D100200146FEF7C7
:1028F0002FF828460121FEF727F800210120FEF7D6
:1029000027F83B48FEF751F9E0684FF46163B0FBEC
:10291000F3F001F0DDFCFEF748F93648FEF745F923
:1029200003200121FEF714F82069FEF7A1FE284CD0
:1029300094F94050032D21D100200146FEF708F8FC
:1029400000200121FEF700F800210120FEF700F829
:102950002748FEF72AF960684FF46163B0FBF3F093
:1029600001F0B6FCFEF721F92248FEF71EF92846D1
:102970000121FDF7EDFFA068FEF77AFE144C00225E
:1029800094F82E001C4902F0E1FC94F8200000228B
:102990001A4902F0DBFCA0680022194902F0D6FCBB
:1029A00060680022174902F0D1FC94F8210000224F
:1029B000154902F0CBFC20690022144902F0C6FC44
:1029C000E06813490022BDE8F84002F0BFBC00BF38
:1029D0007C02002060060020766100085E06002070
:1029E000D56200085400002099660008676000085E
:1029F000EE61000818630008706200088562000834
:102A00009A62000833630008AA620008C2620008E4
:102A10004B63000808B5FFF7BFF8FEF773FE3220DE
:102A2000BDE80840FEF7BEBA38B5AE4B012293F8B8
:102A30003840054683F82E2044BBAB4B1A88AB4B7D
:102A400092B21B6A05339A4215D221462046FDF701
:102A50007FFFA748FEF7A9F84FF4FA60FEF7A2FA45
:102A600020462146FDF774FFA248FEF79EF840F687
:102A7000B830FEF797FA9B4B0022012183F8202003
:102A800083F8381083F821205A609A60954C9A4B4D
:102A9000A2681B689A4206D89849944A0888136A23
:102AA00080B2984203D9FFF78DF800230CE0926BB7
:102AB00064205A430988B2FBF0F289B29B1A99420A
:102AC00004D2FFF7A7FF012384F82030022D854CA4
:102AD0000CD194F82C301BB9FFF79CFF012302E0C6
:102AE000FFF770F8002384F820300CE0012D0AD1A4
:102AF00094F84030013BDBB21D0684F8403002D52B
:102B0000032384F84030774C94F94000002852D1D8
:102B10000146FDF71DFF94F82C30A3B9724B02213A
:102B2000188880B201F048FCFEF73FF87448FEF7C1
:102B30003CF8724B0221188880B201F03DFCFEF790
:102B400034F8704812E06D4B0221188880B201F011
:102B500033FCFEF72AF86A48FEF727F86A4B188814
:102B600000B201F0B5FBFEF720F86848FEF71DF84B
:102B70005C4B93F82C402CB907200121FDF7E8FEAF
:102B8000204608E093F8413007200121052B04D8A6
:102B9000FDF7DEFE0020012103E0FDF7D9FE012054
:102BA0000146FDF7D1FE4F4B93F841200A2A02D986
:102BB000002283F841204B4B93F94040012C1BD15C
:102BC00000200146494DFDF7C3FE5148FDF7EDFFDA
:102BD000286901F07DFBFDF7E8FF4E48FDF7E5FFB2
:102BE000286A0A23B0FBF3F0214601F0E5FBFDF76C
:102BF000DCFF4448FDF7D9FF3A4B93F94030022BF4
:102C000029D13A4C00200146FDF7A2FEA06B01F04D
:102C10005FFBFDF7CAFF4048FDF7C7FF206A0A25A2
:102C20000121B0FBF5F001F0C7FBFDF7BEFF344812
:102C3000FDF7BBFF236AA06B64225843B0FBF2F0A0
:102C40001B1AB3FBF5F0012101F0B6FBFDF7ADFF58
:102C50002C48FDF7AAFF234C94F94050032D19D1BD
:102C600000200146FDF774FE2C48FDF79EFF6068CA
:102C70004FF46163B0FBF3F001F02AFBFDF795FF21
:102C80002748FDF792FF28460121FDF761FEA06865
:102C9000FEF7EEFC134C6420FEF7CCF894F83800F5
:102CA0000022204902F052FB94F82E0000221E4917
:102CB00002F04CFB94F8200000221C4902F046FB75
:102CC000A06800221A4902F041FB94F8210000227A
:102CD000184902F03BFB206917490022BDE8384043
:102CE00002F034BB7C020020580600205400002073
:102CF000E5620008F662000838080020600600203F
:102D000076610008256000085E0600203862000831
:102D10006D63000870630008736100087863000841
:102D2000596200086262000870620008856200084B
:102D30009A620008AA620008C262000838B58F4B88
:102D4000012293F83840054683F82E2044BB8C4B73
:102D50001A888C4B92B21B6A05339A4215D22146CF
:102D60002046FDF7F5FD8848FDF71FFF4FF4FA6098
:102D7000FEF718F920462146FDF7EAFD8348FDF7E6
:102D800014FF40F6B830FEF70DF97C4B002201210C
:102D900083F8202083F8381083F821205A609A6045
:102DA000764B9A687A4B1B689A4206D8794B1A88F8
:102DB000744B92B21B6A9A4205D9FEF703FF6F4B20
:102DC000002283F82020022D6C4C0CD194F82C307A
:102DD0001BB9FFF71FFE012302E0FEF7F3FE0023FD
:102DE00084F820300CE0012D0AD194F84030013BEA
:102DF000DBB284F840301B0602D5022384F8403051
:102E00005E4C94F94000002852D10146FDF7A0FD28
:102E100094F82C30A3B95A4B0221188880B201F0E3
:102E2000CBFAFDF7C2FE5C48FDF7BFFE594B02210D
:102E3000188880B201F0C0FAFDF7B7FE574812E0DB
:102E4000544B0221188880B201F0B6FAFDF7ADFEAE
:102E50005148FDF7AAFE524B188800B201F038FA2B
:102E6000FDF7A3FE4F48FDF7A0FE444B93F82C401E
:102E70002CB907200121FDF76BFD204608E093F8EF
:102E8000413007200121052B04D8FDF761FD00200A
:102E9000012103E0FDF75CFD01200146FDF754FD33
:102EA000364B93F841200A2A02D9002283F84120A8
:102EB000324B93F94040012C1BD100200146314D8B
:102EC000FDF746FD3848FDF770FE286901F000FA6D
:102ED000FDF76BFE3548FDF768FE286A0A23B0FB54
:102EE000F3F0214601F068FAFDF75FFE3048FDF788
:102EF0005CFE224C94F94030022B19D1002001468F
:102F0000FDF726FD2B48FDF750FE60684FF4616326
:102F1000B0FBF3F001F0DCF9FDF747FE2648FDF7C2
:102F200044FE03200121FDF713FDA068FEF7A0FB7E
:102F3000124C002294F83800204902F007FA94F865
:102F40002E0000221E4902F001FA94F8200000220F
:102F50001C4902F0FBF9A06800221B4902F0F6F9B7
:102F600094F821000022194902F0F0F9206918496B
:102F70000022BDE8384002F0E9B900BF7C02002021
:102F80005806002054000020E5620008F6620008A0
:102F9000380800206006002076610008676000089D
:102FA0005E060020D56200086D63000870630008AB
:102FB000256000087863000850620008626200081B
:102FC00070620008856200089A620008AA62000820
:102FD000C2620008F0B5A24B0122022887B083F834
:102FE0002E2009D193F849200132D2B2082A83F861
:102FF00049200ED100220AE001280AD193F8492085
:10300000013AD2B283F84920120602D5072283F88A
:103010004920934B93F949400CBBFEF7D3FD214661
:103020002046FDF795FC8F48FDF7BFFD8E4B012133
:1030300018880A2380B2B0FBF3F001F0BDF9FDF768
:10304000B4FD8A48FDF7B1FD894B0221188880B292
:1030500001F0B2F9FDF7A9FD8648FDF7A6FD804B0A
:1030600093F94930012B1DD1FEF7ACFD002001463C
:10307000FDF76EFC8048FDF798FD804B0221188813
:1030800080B201F099F9FDF790FD7D48FDF78DFDC7
:103090007C4BD88880B201F01BF9FDF786FD7A4899
:1030A000FDF783FD6E4B93F94940022C1DD1FEF7CD
:1030B00029FB00200146FDF74BFC7448FDF775FD28
:1030C000734B2146188880B201F076F9FDF76DFD4B
:1030D0006B48FDF76AFD6B4B988880B201F0F8F8F9
:1030E000FDF763FD6848FDF760FD5D4B93F94930DE
:1030F000032B1ED1FEF750FDFEF704FB0020014616
:10310000FDF726FC6348FDF750FD634B188800B2BD
:1031100001F0DEF8FDF749FD6048FDF746FD594B2B
:10312000588880B201F0D4F8FDF73FFD5648FDF70E
:103130003CFD4B4B93F94930042B1ED1FEF7CEFAE0
:10314000FEF7B6FC00200146FDF702FC5448FDF7EF
:103150002CFD544B188800B201F0BAF8FDF725FD9C
:103160004E48FDF722FD474B188880B201F0B0F8B9
:10317000FDF71BFD4C48FDF718FD394B93F949301D
:10318000052B3DD13D4D494CFEF706FDFEF7BAFA41
:103190002988238889B29BB23F4FCB1A42F2107123
:1031A0004B433A88424E12B2002093FBF2F30146A1
:1031B000B364FDF7CDFB3F48FDF7F7FC306C01F041
:1031C00087F8FDF7F2FC3C48FDF7EFFCB06C01F02E
:1031D0007FF8FDF7EAFC3948FDF7E7FC3888384905
:1031E00000B2002202F0B2F82888364980B20222EA
:1031F00002F0ACF82088344980B2022202F0A6F82E
:10320000174C94F94930062B0ED1FEF7DBFC002059
:103210000146FDF79DFB01A9A06A01F0EDF9FDF75C
:10322000C4FC2A48FDF7C1FC0D4C94F94930072B2A
:1032300014D1FEF7C7FC00200146FDF789FB2448A6
:10324000FDF7B3FCE06C4FF46163B0FBF3F001F009
:103250003FF8FDF7AAFC1F48FDF7A7FC07B0F0BD3B
:103260007C0200207B6300085C060020806300086D
:103270005A060020EB61000885630008580600200C
:10328000766100083C080020E96100088A630008B4
:1032900060060020906300085E0600209663000828
:1032A0009A63000876020020E86100087802002096
:1032B00004000020A0630008A3630008A8630008BE
:1032C000B0630008B4630008BB630008E76100084E
:1032D000C3630008CA63000808B5274B012202280F
:1032E00083F82E2007D193F82C3013B9FEF7E0FBBA
:1032F00001E0FEF751FC00200146FDF729FB1F4BC2
:103300000221188880B201F057F8FDF74EFC1C48E6
:10331000FDF74BFC1B4B188800B200F0D9FFFDF7FE
:1033200044FC1948FDF741FC134B93F82C2012B9CB
:103330000620012105E093F8413006200121052BEC
:1033400007D8FDF705FB02200121FDF7FDFA022059
:1033500006E0FDF7FDFA03200121FDF7F5FA032051
:103360000121FDF7F1FA044B93F841200A2A02D912
:10337000002283F8412008BD7C0200206006002066
:10338000766100085E0600200C6200082DE9F0411D
:10339000A94D002400F044FEFEF714FCA7482C6061
:1033A000FDF703FCFDF74DFB21462046FDF7D0FA63
:1033B0004FF4FA60FDF73EFD01F0E0FA2B68172BA1
:1033C00088BF2C6001F070FD80B94FF47A70FDF772
:1033D00031FD01F069FD48B99948FDF7E6FB4FF46E
:1033E0007A60FDF727FD9748FCF772FF964B974CE4
:1033F0001A69974B9148DA6423694FF461625A4322
:10340000944B1A60944BA2681A6001F05FFFFDF7BD
:10341000C9F8FDF786FA9148FCF7A2FEA368012BD4
:1034200017D0022B01D18E4814E0032B01D18D4817
:1034300010E0042B01D18C480CE0052B01D18B4806
:1034400008E0062B01D18A4804E0072B01D1894806
:1034500000E08948FCF76CFE874E7D4D06F12C0795
:1034600095F84130013385F84130FEF79BF88349E8
:103470000446002201F06AFF631E032B17D8DFE821
:1034800003F002060A11FCF74DFE40680DE0FCF760
:1034900049FE006809E00220FCF76CFEFCF742FEE2
:1034A000C06802E0FCF73EFE8068FCF741FEFCF7D6
:1034B00039FEB04203D12046FEF78CFA2BE1FCF72F
:1034C00031FEB84203D12046FFF706FF23E1FCF7A7
:1034D00029FEDFF89081404503D12046FFF72EFCFE
:1034E00019E1FCF71FFE08F12C03984203D1204696
:1034F000FFF79AFA0FE1FCF715FE08F1580398421E
:1035000003D12046FEF7E8FB05E1FCF70BFE08F1CE
:10351000DC03984203D12046FFF732F8FBE0FCF7CA
:1035200001FE08F18403984203D12046FEF71AFEFB
:10353000F1E0FCF7F7FD08F1B003984203D1204613
:10354000FEF716FDE7E0FCF7EDFD08F58473984201
:1035500003D12046FFF73EFDDDE0FCF7E3FD08F573
:103560009A78404503D12046FDF75AFDD3E0FCF799
:10357000D9FDDFF80C81404503D12046FDF7BCFDA5
:10358000C9E0FCF7CFFD08F12C03984203D1204697
:10359000FDF78EFDBFE0FCF7C5FD08F1580398422A
:1035A00003D12046FEF7BEFAB5E0FCF7BBFD08F1FB
:1035B0008403984203D12046FEF7D2F9ABE0FCF732
:1035C000B1FD08F1B003984203D12046FEF71AF985
:1035D000A1E0FCF7A7FD08F1CC03984203D12046F7
:1035E000FEF74AF997E0FCF79DFD08F1F8039842D1
:1035F00003D12046FEF77AF98DE0FCF793FD08F53C
:103600009273984203D12046FEF790F883E0FCF7CE
:1036100089FD08F5A073984203D12046FDF790FD7F
:1036200079E0FCF77FFD08F5AE7840452AD12046C9
:10363000FDF7C4FD6FE000BF9C06002020020020C3
:10364000D8630008E96300089400002054000020BB
:103650007C020020380800204C080020850D00085E
:103660005456000880560008AC560008D85600088A
:10367000045700083057000828560008F763000870
:10368000E0570008FCF74EFDDFF8B880404503D155
:103690002046FDF7B9FD3EE0FCF744FD08F12C03A0
:1036A000984203D12046FDF727FE34E0FCF73AFDAF
:1036B00008F15803984203D12046FDF73FFE2AE067
:1036C000FCF730FD08F18403984203D12046FDF752
:1036D00057FE20E0FCF726FD08F1B003984203D125
:1036E0002046FDF76BFE16E0FCF71CFD08F1DC033D
:1036F000984203D12046FDF77FFE0CE0FCF712FD57
:1037000008F58478404503D12046FDF7CBFE02E062
:10371000002385F82E3095F82E4064B9FEF752FA52
:10372000EA68074B85F838409A602B6985F8404075
:103730006B6485F830406420FDF734FC90E600BFF0
:10374000940000206859000870B592B07E2312A939
:10375000002621F8043D48488DF84760FDF7A4FA9B
:1037600001214FF4007000F03DFB0120014600F004
:103770002DFB424B082502934FF48063089380236E
:103780000693202309933E4B3E4801934FF48073E8
:10379000079301A94FF400530A93049503960B96DF
:1037A000059600F0E5FF0121364800F0FFFF4FF4D9
:1037B000004000F0B9FA01244FF4602332480CA90C
:1037C0000E938DF835400F960C968DF840508DF87D
:1037D000344000F049FC07232B482146224600F0E4
:1037E00094FC02210A460723274800F08EFC03219F
:1037F0000A460723244800F088FC04210A460723D0
:10380000214800F082FC05210A4607231E4800F0EB
:103810007CFC06210A4607231B4800F076FC204664
:1038200000F0C2FC072213461748112100F06DFC7E
:103830002A4604231448102100F067FC1248214650
:1038400000F036FC1048214600F03BFC0E4800F02A
:1038500041FC0D4800F043FC0028FAD10A4800F072
:1038600042FC094800F044FC0028FAD10648012136
:1038700000F042FC12B070BD000801403C0800207E
:103880004C24014008000240002401401FB50121E2
:10389000022000F0B3FA104C01A8FCF7C5FC45F675
:1038A000BF53ADF804302046052301A9ADF8083018
:1038B000FCF770FC01210A462046FCF7CAFC2046B2
:1038C0000121FCF7BAFC054B4FF000521A60202290
:1038D00083F81D231FBD00BF0004004000E100E08D
:1038E000224A234B91682DE9F04108319160C91AB1
:1038F000002808BF0120A729C8BF936093681268F9
:103900001E689A4208BF194A184C08BF1660194F22
:103910002268988015252146BC46D2F8008098453B
:10392000B2F8048008BF1660804503D208681860AA
:103930000B600020BA42246814D01168D1F80080CE
:103940009845B1F8048008BF0E60804503D2106826
:10395000186013600020614504D0013DADB20A68D3
:10396000002DDAD1A088BDE8F08100BF340200202C
:10397000EC02002094030020234A244B51692DE9D6
:10398000F04108315161C91A002808BF0120B1F582
:10399000A47FA8BF53615369D2681E689A4208BFCA
:1039A000194A194908BFD66051F80C2F184F988052
:1039B00029250C46BC46D2F800809845B2F8048010
:1039C00008BF1660804503D220681860236000207D
:1039D000BA42096814D01468D4F800809845B4F845
:1039E000048008BF2660804503D210681860136009
:1039F0000020644504D0013DADB22268002DDAD12B
:103A00008888BDE8F08100BF340200209C030020BC
:103A1000E4040020234A244B116A2DE9F0410831C7
:103A20001162C91A002808BF0120B1F5A47FA8BF00
:103A30001362136A92691E689A4208BF194A1949AB
:103A400008BF966151F8182F184F988029250C4609
:103A5000BC46D2F800809845B2F8048008BF1660D2
:103A6000804503D22068186023600020BA420968AC
:103A700014D01468D4F800809845B4F8048008BFC6
:103A80002660804503D210681860136000206445EA
:103A900004D0013DADB22268002DDAD18888BDE89E
:103AA000F08100BF34020020EC0400203406002026
:103AB0000F49D1F85433D1F85023C1F85833934209
:103AC000C1F85423C1F8500307DC834203DC904261
:103AD000A8BF104670479A4205DC824203DC984238
:103AE000A8BF184670479A42B4BF104618467047A0
:103AF000EC0200200F49D1F86033D1F85C23C1F803
:103B000064339342C1F86023C1F85C0307DC83424D
:103B100003DC9042A8BF104670479A4205DC8242FF
:103B200003DC9842A8BF184670479A42B4BF1046BB
:103B300018467047EC0200202DE9F7437048012138
:103B4000FCF790FB002800F0D8806E4C0121D4F8DF
:103B500068336B480133C4F86833FCF78EFB0025EB
:103B60000220ADF80450ADF8065000F033FE0220FC
:103B700000F03AFE644E02212A46644800F021FE1D
:103B8000634BF1889B6A89B24B43B28992B2B3FB13
:103B9000F2F39BB2ADF80630BDF8060080B2FFF735
:103BA00039FFA4F86C03B4F86C334FF4F0229BB2E5
:103BB000022B98BFA4F86C53B389554D9BB292FB6E
:103BC000F3F39BB2A4F86E33B1882B6B89B24B43ED
:103BD000B28992B2B3FBF2F39BB2ADF80630BDF8F6
:103BE000060080B2FFF77CFE80B2ADF80400BDF89D
:103BF0000420484B92B21A80BDF804301BB2022B4D
:103C000002DC0023ADF804303F4CAB6B2189A28964
:103C100089B24B4392B2B3FBF2F39BB2ADF80630DC
:103C2000BDF80600DFF8DC8000B2FFF763FFAB6988
:103C300080B24FF00A09A8F8700309FB03F361880A
:103C4000A28989B24B4392B2B3FBF2F39BB2ADF8B7
:103C50000630BDF80600304F80B2FFF78DFE296AAE
:103C600080B2388009FB01F92288A38992B202FB55
:103C700009F99BB2B9FBF3F91FFA89F9ADF806907F
:103C8000BDF80600224E00B2FFF712FF234B80B2B0
:103C9000234A18809268920753BF3A881B8832697A
:103CA000B368D31A9BB2A8F87233164AB8F87233C5
:103CB000174BBDF80410B2F872231B6C12B25343B9
:103CC000184A93FBF2F35B189BB2ADF80430BDF8D1
:103CD00004301BB2022B02DC0023ADF80430BDF827
:103CE0000420084B92B20948A3F874230221012250
:103CF00003B0BDE8F04300F064BD03B0BDE8F0835D
:103D000000040040EC0200203C08002008000240B3
:103D100004000020780200207402002076020020B7
:103D2000000C0140F0D8FFFF034B5A6822F44042D8
:103D300010435860704700BF0010024010B51F4B81
:103D40005A6802F00C02042A01D0082A02D01C4B47
:103D5000036011E05A685968C2F383420232C90312
:103D600001D4184B06E0DB6A154903F00F03013359
:103D7000B1FBF3F35A430260104A134B51680468D5
:103D8000C1F30311595C24FA01F141605468C4F392
:103D900002241C5D21FA04F484605468C4F3C22434
:103DA0001C5D21FA04F1C1605268C2F381329B1894
:103DB0001B7CB1FBF3F1016110BD00BF001002409C
:103DC00000127A0000093D0058020020044B5A6995
:103DD00009B1104301E022EA00005861704700BFBA
:103DE00000100240044B9A6909B1104301E022EA35
:103DF00000009861704700BF00100240044BDA6970
:103E000009B1104301E022EA0000D861704700BF09
:103E10000010024008B501210820FFF7E3FF294BFD
:103E20001A6822F003021A601A6822F00C021A6063
:103E30001A6842F002021A601A6822F00C021A6034
:103E4000214A516821F003015160516821F00C01B1
:103E50005160516841F002015160516821F00C013C
:103E60005160516821F440515160516821F4404142
:103E70005160516841F400515160516821F4404152
:103E800051605A6822F003025A605A6822F00C020C
:103E90005A605A6842F002025A605A6822F00C02D4
:103EA0005A601A6822F030021A601A6822F0C002C2
:103EB0001A601A6842F020021A601A6822F0C002E2
:103EC0001A6008BD000C01400008014008B5082038
:103ED0000121FFF787FF1D4B1A6822F440121A6078
:103EE0001A6822F440021A601A6842F400021A604A
:103EF00020221A611A6822F440321A601A6822F4E9
:103F000040221A601A6842F400221A6010221A61D4
:103F10001A6822F040721A601A6822F040621A6031
:103F20001A6842F000621A6040221A611A6822F090
:103F300040521A601A6822F040421A601A6842F031
:103F400000421A6080221A6108BD00BF000C0140C7
:103F50001FB501212020FFF751FF104C01A8FCF7ED
:103F600063F940F65F13ADF8043020460A2301A937
:103F7000ADF80830FCF70EF901210A462046FCF79F
:103F800068F920460121FCF758F9054B4FF400026F
:103F90005A60502283F837231FBD00BF0014004031
:103FA00000E100E01FB501214FF40030FFF71AFFD8
:103FB00001A8FCF739F9104C0023ADF8063045F69E
:103FC000BF53ADF8043020464FF47A7301A9ADF821
:103FD0000830FCF7DFF801210A462046FCF739F9E2
:103FE00020460121FCF729F9044B4FF000721A60BA
:103FF000102283F819231FBD0044014000E100E0B6
:10400000064BDA6942F00102DA614FF0804345F66F
:10401000BF521A8509221A80704700BF0010024063
:1040200008B504200121FFF7DDFE08200121FFF77C
:10403000D9FE10200121FFF7D5FEFCF7C5FD01F0E8
:10404000A5F8FFF7E7FEFFF741FFFFF781FFFFF756
:104050001DFCFFF7A7FFFFF7D3FFFFF7DBFEBDE86F
:104060000840FFF771BB000043680A6823F470231F
:1040700023F4807313430A7910B543EA02234360A3
:104080008A68CB6884681A43084B234013434A79F3
:1040900043EA420383600B7CC26A013B22F4700254
:1040A000DBB242EA0353C36210BD00BFFDF7F1FF6C
:1040B000836811B143F0010301E023F00103836041
:1040C0007047836811B143F4807301E023F4807377
:1040D00083607047836843F008038360704780689B
:1040E000C0F3C0007047836843F0040383607047E7
:1040F0008068C0F380007047836811B143F4A00367
:1041000001E023F4A00383607047092970B54FF0E4
:1041100003040DD94C4307251E3C05FA04F503FAA8
:1041200004F3C66826EA050545EA0304C4600BE00B
:104130004C43072505FA04F503FA04F4066926EA58
:10414000050545EA04030361062A4FF005030CD870
:10415000013A53431F2202FA03F201FA03F3446BBC
:1041600024EA02021343436370BD0C2A0DD8534363
:104170001F22233B02FA03F201FA03F1046B24EA43
:10418000020242EA0103036370BD53431F22413B15
:1041900002FA03F201FA03F1C46A24EA020242EAD3
:1041A0000103C36270BD0000044B9A6810B142F471
:1041B000000201E022F400029A60704700240140EE
:1041C00030B5038ACA8823F440531B041B0C1343E5
:1041D00003820D4683890989AA8823F4B0530A43D0
:1041E000698923F00C030A431B041B0C92B213438E
:1041F0008381838AAA8923F440731B041B0C87B034
:1042000013430446838201A8FFF798FD174BA28948
:104210009C420CBF049B039B12B2002A4FF0190171
:104220002A6801FB03F101DA520000E092006423E6
:10423000B1FBF2F1B1FBF3F21201100903FB101113
:10424000A08900B2002806DAC9003231B1FBF3F3CD
:1042500003F0070305E009013231B1FBF3F303F08A
:104260000F031A4392B2228107B030BD00380140DB
:10427000838919B19BB243F4005303E023F4005344
:104280001B041B0C83817047C1F3421310B501243A
:1042900001F01F01A34204FA01F101D10C3004E046
:1042A000022B01D1103000E0143003680AB1194329
:1042B00001E023EA0101016010BDC905C90D81803B
:1042C0007047038819420CBF00200120704700008E
:1042D0007FB580EAE072A2EBE0720DF1FF350023BA
:1042E0000A2492FBF4F104FB1122303205F8012F6D
:1042F0001E4601330A1EDBB2F3DC002807DA5BB28C
:1043000004A8C3182D2203F8102CB31CDBB25AB238
:1043100004A88118002001F8100C6844811807488F
:1043200011F8014C013BDBB2013900F8014F002BC1
:10433000F6D10348835404B070BD00BF6F0600205F
:1043400070060020F0B5034685B083EAE370A0EB69
:10435000E3700DF1FF3600220A2590FBF5F405FB12
:104360001400303006F8010F17460132201ED2B279
:10437000F3DC002B07DA04AB52B29A182D2302F8B3
:10438000103CBA1CD2B250B204AC2318002403F87B
:10439000104C0DEB040318180C46134652B210F8DB
:1043A000015C013BDBB2013804F8015B002BF6D164
:1043B0008B54084605B0F0BDF0B58BB080EAE073D1
:1043C000A3EBE0730DF1FF3600220A2593FBF5F411
:1043D00005FB1433303306F8013F17460132231E24
:1043E000D2B2F3DC53B20AADEC180025012B04F86D
:1043F000285C04D13023BA1C8DF80130D2B2022AD5
:1044000005D1012903D930238DF80230032200247D
:104410000DF1280C23460CEB01062E2552B25FB29B
:104420008F4203D1013306F8145CDBB25FB20DF1A9
:10443000280C67441DF804C0013407F814CC67B297
:1044400001339742DBB2EADB002807DA5AB20AA945
:104450008A1801332D2102F8141CDBB259B205ADC4
:10446000084800226C1804E0A55C013B00F8015FDD
:10447000DBB2013A002BF7D1034841180B7410301E
:104480000BB0F0BD7F060020700600202DE9F04142
:1044900003468AB083EAE370A0EBE3700DF1FF37C7
:1044A00000240A2690FBF6F506FB1500303007F8CD
:1044B000010FA4460134281EE4B2F3DC60B20AAE58
:1044C00035180026012805F8286C05D130200CF19C
:1044D00002048DF80100E4B2022C05D1012A03D9AF
:1044E00030208DF80200032400250DF1280828460D
:1044F00008EB02072E2664B24FFA80FC944503D1E4
:10450000013007F8146CC0B24FFA80FC0DF1280896
:10451000C4441DF8058001350CF8148C4FFA85FC55
:104520000130A445C0B2E7DB002B07DA43B20AAA88
:10453000D31801302D2203F8142CC0B242B205AEBC
:104540000C460023B51804E0EE5C013804F8016B5A
:10455000C0B2013B0028F7D1885408460AB0BDE834
:10456000F081002802D001DC404200B270470346CF
:10457000002001E00130C0B21A5C002AFAD1704775
:1045800030B50346002401E0155501341D5DE0B24D
:10459000002DF9D12B4645B2551903E00130EC54FA
:1045A000C0B20133CC5C002CF8D140B21454104698
:1045B00030BD70B5002501E05E550135465DECB2B9
:1045C000002EF9D1304666B29E1903E0013435540D
:1045D000E4B201300D5C002DF8D1294665B25D19B9
:1045E00003E001346854E4B20131505C0028F8D192
:1045F00064B21855184670BD2DE9F041074686B0E3
:104600004FF461600C46B7FBF0F001A9FFF79AFE8A
:1046100001A8FFF7ACFF012803D83023237001263F
:1046200000E000260023A11902E0CA54EEB20133D3
:104630000DF1040813F80820751C002AF5D13A2260
:1046400073B2E2543C23B7FBF3F2B2FBF3F003FB8B
:1046500010204146FFF776FE4046FFF788FF01280D
:10466000EDB204D86DB230236355B51CEDB269B21A
:104670000023611802E0CA54F5B201330DF10408B9
:1046800013F808206E1C002AF5D13A226BB2E254CE
:104690003C23B7FBF3F003FB10704146FFF752FEDB
:1046A0004046FFF764FF0128F6B204D876B2302303
:1046B0000235A355EEB271B20023611803E0013652
:1046C000CA54F6B2013301AA9A5C002AF7D176B235
:1046D000A255204606B0BDE8F0812DE9F0418046A4
:1046E00086B04FF461600C46B8FBF0F001A9FFF70B
:1046F00029FE01A8FFF73BFF012803D830232370D0
:10470000012500E000250023611902E0CA54F5B23A
:10471000013301AFDA5D6E1C002AF7D13A226BB289
:10472000E2543C23B8FBF3F8B8FBF3F003FB108032
:104730003946FFF707FE3846FFF719FF0128F6B2A2
:1047400004D876B230230235A355EEB271B20023FD
:10475000611803E00136CA54F6B2013301AA9A5C2B
:10476000002AF7D176B2A255204606B0BDE8F08106
:104770008B6810B50C6A026823430C6922F4FE4270
:1047800023434C6922F0F00223438C692343CC6914
:1047900023434C6A23438C6A234313430360CB684F
:1047A00043600B6883604B68C36010BD19B1036838
:1047B00043F0010303E002684FF6FE731340036009
:1047C000704703680AB1194301E023EA010101605F
:1047D00070470000C2004CBF014B024B586070474D
:1047E0000004024000000240C3004CBF014B024BDA
:1047F000586070470004024000000240C37810B5C2
:10480000F3B1154B4178DB688478DB43C3F30223B3
:10481000C3F1040201FA02F10F2222FA03F222404C
:104820000A430E4B01781201CB18D2B283F8002351
:1048300003780122590903F01F0302FA03F307E08A
:1048400003780122590903F01F0302FA03F3203110
:10485000024A42F8213010BD00ED00E000E100E026
:104860000F4AD36813F0010F0D4BFAD1DA689206A4
:1048700001D52022DA601A6942F002021A615861F9
:104880001A6942F040021A61054AD168044B890650
:10489000FBD52022DA601A6922F002021A61704701
:1048A00000200240034B044A5A6002F188325A60E9
:1048B000704700BF0020024023016745024B1A6980
:1048C00042F080021A61704700200240124AD36809
:1048D00013F0010F104BFAD1DA68920601D52022AD
:1048E000DA601A6942F001021A618BB203800A4B46
:1048F000DA6812F0200F084AFAD02023090CD3609E
:104900004180D168044B8906FBD52022DA601A6900
:1049100022F001021A6170470020024070B572B6A1
:10492000114CFFF7BFFF4FF4CE701049002200F08A
:104930000DFD20680E49002200F008FD0D48FFF72C
:104940008FFF0C4D0C4E2B1903F17843A3F5F23376
:10495000284619680435FFF7B9FFB542F3D1FFF7D0
:10496000ADFF62B670BD00BF9C060020FC6400086D
:104970000365000800E401089CE5010810B5074B39
:104980000749084A58181C6800F178400433A0F51C
:10499000F23093420460F5D1012010BD00E401081B
:1049A0009C0600209CE5010870B504680E468C4208
:1049B00001D3944211D90A4B00251D7009492A469A
:1049C00000F0C4FC204608492A4600F0BFFC074816
:1049D00007492A4600F0BAFC3446204670BD00BFA5
:1049E0006C020020096500082065000800EC010841
:1049F0003265000810B5184C6068FFF731FF606839
:104A00002168FFF763FFE068A168FFF75FFF606957
:104A10002169FFF75BFFE069A169FFF757FF606A53
:104A2000216AFFF753FFE06AA16AFFF74FFF606B4F
:104A3000216BFFF74BFFE06BA16BFFF747FF606C4B
:104A4000216CFFF743FFE06CA16CFFF73FFF0348C9
:104A500000F03CFC10BD00BF0400002049650008C8
:104A600010B5184C6068FFF7FBFE60682168FFF71F
:104A70002DFFE068A168FFF729FF60692169FFF752
:104A800025FFE069A169FFF721FF606A216AFFF74E
:104A90001DFFE06AA16AFFF719FF606B216BFFF74A
:104AA00015FFE06BA16BFFF711FF606C216CFFF746
:104AB0000DFFE06CA16CFFF709FF034800F006FC56
:104AC00010BD00BF5C0100206265000838B5224CB3
:104AD000002160684FF48072FFF766FF00212060BC
:104AE0004FF47A72E068FFF75FFF0021A0604FF497
:104AF0007A726069FFF758FF184D20610A212A4633
:104B0000E069FFF751FF0A21A0612A46606AFFF7BA
:104B10004BFF0A2120622A46E06AFFF745FF0A217F
:104B2000A0622A46606BFFF73FFF0A2120632A46F6
:104B3000E06BFFF739FF4621A063C822606CFFF7E6
:104B400033FF0A212064C822E06CFFF72DFFA06428
:104B5000034800F0BBFB38BD04000020A086010024
:104B60008265000838B5224C002160684FF48072DD
:104B7000FFF71AFF002120604FF47A72E068FFF718
:104B800013FF0021A0604FF47A726069FFF70CFFF9
:104B9000184D20610A212A46E069FFF705FF0A2126
:104BA000A0612A46606AFFF7FFFE0A2120622A46BA
:104BB000E06AFFF7F9FE0A21A0622A46606BFFF760
:104BC000F3FE0A2120632A46E06BFFF7EDFE462143
:104BD000A063C822606CFFF7E7FE0A212064C822A8
:104BE000E06CFFF7E1FEA064034800F06FFB38BD06
:104BF000AC010020A08601009C65000810B5144C93
:104C00006068FFF72DFE60682168FFF75FFEE068CF
:104C1000A168FFF75BFE60692169FFF757FEE06955
:104C2000A169FFF753FE606A216AFFF74FFEE06A51
:104C3000A16AFFF74BFE606B216BFFF747FEE06B4D
:104C4000A16BFFF743FE034800F040FB10BD00BF1F
:104C500054000020BF65000810B5144C6068FFF7D1
:104C6000FFFD60682168FFF731FEE068A168FFF78B
:104C70002DFE60692169FFF729FEE069A169FFF750
:104C800025FE606A216AFFF721FEE06AA16AFFF74C
:104C90001DFE606B216BFFF719FEE06BA16BFFF748
:104CA00015FE034800F012FB10BD00BFDC00002021
:104CB000D565000838B51D4C002160684FF480723E
:104CC000FFF772FE012120600A22E068FFF76CFE08
:104CD0000121A0604FF47A726069FFF765FE01213F
:104CE00020614FF47A62E069FFF75EFE0121A06166
:104CF0004FF47A62606AFFF757FE42F21075206245
:104D000000212A46E06AFFF74FFE0021A0622A46F2
:104D1000606BFFF749FE002120636422E06BFFF720
:104D200043FEA063024800F0D1FA38BD54000020D1
:104D3000F265000838B51D4C002160684FF48072A0
:104D4000FFF732FE012120600A22E068FFF72CFE07
:104D50000121A0604FF47A726069FFF725FE0121FE
:104D600020614FF47A62E069FFF71EFE0121A06125
:104D70004FF47A62606AFFF717FE42F21075206204
:104D800000212A46E06AFFF70FFE0021A0622A46B2
:104D9000606BFFF709FE002120636422E06BFFF7E0
:104DA00003FEA063024800F091FA38BD1C01002008
:104DB0000966000810B50C4C0022A0680B4900F0F1
:104DC000C5FA6068FFF74CFD60682168FFF77EFD5B
:104DD000E068A168FFF77AFD60692169FFF776FD59
:104DE000034800F073FA10BD940000202966000803
:104DF0003866000810B50A4C6068FFF731FD60683E
:104E00002168FFF763FDE068A168FFF75FFD606957
:104E10002169FFF75BFD034800F058FA10BD00BFA1
:104E2000AC0000205666000838B50C4C00216068C4
:104E30004FF48072FFF7B8FD094D206000212A462B
:104E4000E068FFF7B1FD0021A0602A466069FFF726
:104E5000ABFD2061034800F039FA38BD9400002012
:104E600000286BEE7D66000838B50C4C00216068A8
:104E70004FF48072FFF798FD094D206000212A460B
:104E8000E068FFF791FD0021A0602A466069FFF706
:104E90008BFD2061034800F019FA38BDC4000020E2
:104EA00000286BEE9C66000870B50C4D01242C7038
:104EB00072B6FFF7B9FFFFF7FDFEFFF707FE62B618
:104EC0002E782EB9064800F001FA2C70304670BDDD
:104ED000044800F0FBF92C70204670BD6C020020E5
:104EE000C4660008DD660008F0B5C1B007460D468F
:104EF0001446684608494FF4807200F03FFA6E4647
:104F000017F8013B013D5C40EDB2345D002DF7D157
:104F1000204641B0F0BD00BFFC63000838B572B652
:104F2000FFF7C0FC4C2100223448FFF7DDFF344B73
:104F300004461860FFF794FDFFF714FE4C21002291
:104F40003048FFF7D1FF844203D12F4800F0BEF96B
:104F500004E02E4800F0BAF9FFF782FD3C21002260
:104F60002B48FFF7C1FF00222A49044600F0EEF962
:104F7000002229493C2000F0E9F9284B1C60FFF78A
:104F80006BFEFFF7D7FE3C2100222548FFF7ACFF60
:104F900000222049054600F0D9F93C2000221E4994
:104FA00000F0D4F9AC4203D11E4800F08FF904E0C0
:104FB0001D4800F08BF9FFF74FFE142100221B481B
:104FC000FFF792FF1A4B04461860FFF713FFFFF735
:104FD0004BFF142100221748FFF786FF844203D1BC
:104FE000154800F073F904E0144800F06FF9FFF77A
:104FF00001FFFFF763FC62B638BD00BF600100200F
:105000005C010020B0010020F86600081D67000860
:10501000E00000204D67000858670008DC00002011
:10502000200100206467000886670008B0000020A7
:10503000AC000020C8000020B3670008DD6700084E
:1050400010B572B6142100221048FFF74DFF104B27
:1050500004461860FFF726FCFFF7ACFEFFF704FFDD
:10506000142100220B48FFF73FFF844203D10A4876
:1050700000F02CF904E0094800F028F9FFF79AFE47
:10508000FFF71CFC62B6012010BD00BF9800002095
:1050900094000020C8000020B4670008DE67000804
:1050A00038B572B63C2100221948FFF71DFF0022D7
:1050B0001849044600F04AF9002217493C2000F044
:1050C00045F9164B1C60FFF7EDFBFFF797FDFFF767
:1050D00031FE3C2100221248FFF706FF00220D4955
:1050E000054600F033F93C2000220B4900F02EF970
:1050F000AC4203D10B4800F0E9F804E00A4800F0A4
:10510000E5F8FFF77BFDFFF7D9FB62B6012038BD5C
:10511000580000204E67000859670008540000201E
:1051200020010020656700088767000810B572B687
:105130004C2100221048FFF7D7FE104B04461860A0
:10514000FFF7B0FBFFF756FCFFF70CFD4C210022E8
:105150000B48FFF7C9FE844203D10A4800F0B6F8B5
:1051600004E0094800F0B2F8FFF744FCFFF7A6FBA3
:1051700062B6012010BD00BF08000020040000201E
:10518000B0010020F96600081E67000830B54FF432
:10519000164387B0009300231C46ADF80430ADF8E9
:1051A0000630ADF80830ADF80C3004200C23012196
:1051B000ADF80A30FEF716FE01214FF48040FEF7ED
:1051C00011FE4FF4C063154DADF8103018238DF863
:1051D000133004A9032312488DF81230FBF764FD45
:1051E00069462846FEF7ECFF25238DF814308DF82C
:1051F00016402223012405A88DF815308DF817409C
:10520000FFF7FCFA28462146FFF732F8284640F21D
:1052100025512246FFF738F807B030BD003801406D
:10522000000801400A4B1A78C72A0FD85A78094952
:1052300088541A780132D2B21A705A780132D2B236
:105240005A705A78C82A01D100225A70704700BF9C
:10525000910600205008002010B5194C23889806AC
:1052600003D5A088C0B2FFF7DDFF2388144A1906D2
:105270001AD5144B997889B1D9781348415C91803B
:105280009A78013AD2B29A70DA780132D2B2DA70F0
:10529000DA78C82A08D10022DA7005E0938923F071
:1052A00080031B041B0C9381054A13885B0605D5FC
:1052B000138823F040031B041B0C138010BD00BF98
:1052C00000380140910600201809002010B504465E
:1052D0000AE00D488021FEF7F4FF0028F9D014F809
:1052E000011B0948FEF7E9FF2378002BF1D106489E
:1052F0008021FEF7E6FF0028F9D003480A21BDE827
:105300001040FEF7DABF00BF0038014082B0064B04
:105310008DF807001A885206FCD59DF80720024B2D
:105320009A8002B0704700BF00380140064B1A4611
:1053300005E019884906FCD510F8011B9180017819
:105340000029F6D1704700BF0038014037B5019001
:105350000C46019812B9FEF7BBFF02E01146FFF7B9
:105360002BF805462046FFF7E1FF2846FFF7DEFF52
:105370000A2003B0BDE83040FFF7C8BF0F2AF0B4E1
:105380003AD941EA00039B0738D10C46034615463B
:105390002668103D1E6066685E60A6689E60E668CE
:1053A0001034DE6010330F2DF2D8A2F1100424F077
:1053B0000F0402F00F021034032A00EB040321440F
:1053C00011D90E461D46144656F8047B043C032CA6
:1053D00045F8047BF8D8141F24F00304043402F0C9
:1053E000030209191B192AB111F8014B013A03F8FC
:1053F000014BF9D1F0BC70470346F4E70346F3E7ED
:10540000000000000000000000000000000000009C
:10541000000000000000000069693A2000513A20B5
:10542000004352432843616C6962726174696F6E14
:1054300029203D0043616C6962726174696F6E304E
:1054400056616C7565466F7243757272656E742035
:105450003D0043616C6962726174696F6E305661C0
:105460006C7565466F7243757272656E7431203D5E
:105470000043616C6962726174696F6E56616C752C
:1054800065466F7243757272656E74203D004361AC
:105490006C6962726174696F6E56616C7565466F96
:1054A0007243757272656E7431203D0043616C69A0
:1054B00062726174696F6E56616C7565466F725683
:1054C0006F6C74616765203D0043616C6962726155
:1054D00074696F6E56616C7565466F72566F6C7449
:1054E00061676531203D0043616C69627261746976
:1054F0006F6E56616C7565466F72566F6C7461673E
:105500006532203D00526573697374616E63654353
:105510006F6D705F497368756E745F5769726573FC
:10552000203D00526573697374616E6365436F6DEE
:10553000705F4D4F53464554203D0043524328531E
:10554000657474696E67734461746129203D004F0E
:105550007074696F6E31286D656E7520706F736938
:1055600074696F6E29203D004368617267655469F4
:105570006D65203D004C6F77566F6C7461676520D8
:105580003D004D6178566F6C74616765203D004346
:1055900068617267654164617074203D005377698A
:1055A0006E675F436872675F74696D65203D005385
:1055B00077696E675F44436872675F74696D6520E1
:1055C0003D004352432853617665446174615768D6
:1055D000656E506F7765724F666629203D004261A7
:1055E0007474657279436170616369747944697335
:1055F00063686172676550726576696F757356612D
:105600006C7565203D004261747465727943617008
:10561000616369747944697363686172676543752E
:105620007272656E74203D0000540008005400083A
:10563000985F0008985F000800000000000000006C
:10564000202020202020202020202020202020205A
:105650000000000000540008005400086C5F0008BF
:105660006C5F0008000000000000000020202020E7
:1056700020202020202020202020202000000000AA
:105680000054000800540008405F0008405F000814
:1056900000000000910D0008202020202020202064
:1056A000202020202020202000000000005400089E
:1056B00000540008145F0008145F00080000000098
:1056C000910D0008202020202020202020202020B4
:1056D0002020202000000000005400080054000892
:1056E000E85E0008E85E000800000000ED0D00081C
:1056F00020202020202020202020202020202020AA
:10570000000000000054000800540008905E0008EB
:10571000905E000800000000000000002020202013
:1057200020202020202020202020202000000000F9
:105730000054000800540008645E0008645E00081D
:105740000000000000000000202020202020202059
:1057500020202020202020200000000000540008ED
:1057600000540008BC5E0008BC5E00080000000099
:1057700000000000202020202020202020202020A9
:1057800020202020000000000054000800540008E1
:10579000385E0008385E00080000000000000000CD
:1057A00020202020202020202020202020202020F9
:1057B0000000000000540008005400080C5E0008BF
:1057C0000C5E000800000000610D00082020202071
:1057D0002020202020202020202020200000000049
:1057E0000054000800540008FC5B0008FC5B000843
:1057F00000000000710D0008202020202020202023
:10580000202020202020202000000000005400083C
:1058100000540008285C0008285C00080000000014
:10582000710D000820202020202020202020202072
:105830002020202000000000005400080054000830
:10584000A45B0008A45B000800000000710D0008C4
:105850002020202020202020202020202020202048
:10586000000000000054000800540008D05B00084D
:10587000D05B000800000000710D000820202020EF
:105880002020202020202020202020200000000098
:105890000054000800540008205B0008205B00084A
:1058A00000000000710D0008000000000054000816
:1058B000005400084C5B00084C5B0008000000002E
:1058C000710D0008202020202020202020202020D2
:1058D0002020202000000000005400080054000890
:1058E000785B0008785B000800000000710D00087C
:1058F00020202020202020202020202020202020A8
:10590000000000000054000800540008F45A000889
:10591000F45A000800000000710D000800000000AB
:105920000054000800540008C85A0008C85A00086B
:10593000000000000000000000000000005400080B
:1059400000540008B45D0008B45D000800000000C9
:105950006D0D000820202020202020202020202045
:1059600020202020000000000054000800540008FF
:10597000885D0008885D000800000000890E0008AE
:105980002020202020202020202020202020202017
:105990000000000000540008005400085C5D00088E
:1059A0005C5D0008000000006D0D00082020202034
:1059B0002020202020202020202020200000000067
:1059C0000054000800540008305D0008305D0008F5
:1059D000000000006D0D0008202020202020202045
:1059E000202020202020202000000000005400085B
:1059F00000540008045D0008045D00080000000079
:105A00006D0D000820202020202020202020202094
:105A1000202020200000000000540008005400084E
:105A2000D85C0008D85C0008000000006D0D00087C
:105A30002020202020202020202020202020202066
:105A4000000000000054000800540008AC5C00088E
:105A5000AC5C0008000000006D0D00082020202034
:105A600020202020202020202020202000000000B6
:105A70000054000800540008805C0008805C0008A6
:105A800000000000590E00082020202020202020A7
:105A9000202020202020202000000000285C00087A
:105AA000C85A0008E05D0008E05D00080000000042
:105AB000000000004F4B20746F206578697420202F
:105AC00020202020000000009C5A0008F45A000802
:105AD000E05D000820590008000000000000000000
