:020000040800F2
:10000000600B002085020008CD020008CD02000828
:10001000CD020008CD020008CD020008000000005B
:10002000000000000000000000000000CD020008F9
:10003000CD02000800000000CD020008CD0200083B
:10004000CD020008CD020008CD020008CD02000854
:10005000CD020008CD020008CD020008CD02000844
:10006000CD020008CD020008CD020008CD02000834
:10007000CD020008CD020008CD020008CD02000824
:10008000CD020008CD020008CD02000800000000EB
:10009000000000000000000000000000CD02000889
:1000A000CD020008DD0D0008CD020008CD020008D9
:1000B000CD020008B529000800000000CD020008AC
:1000C000CD0200080000000000000000CD02000882
:1000D0000000000095370008CD0200080000000075
:1000E000CD020008CD020008CD020008000000008B
:1000F0000000000000000000000000000000000000
:1001000000000000000000000000000000000000EF
:100110000000000000000000CD0200087914000873
:100120005FF808F1014B1868704700BF000000201D
:10013000084B10B598420BD050B1074B074C1B68C9
:1001400020600BB11830984723681B6903B19847AA
:1001500010BD00BFB8380008980100200000002042
:10016000024B1860024B1868FFF7E2BF98010020AD
:100170000000002008B5054B054A1B68934203D0D8
:1001800013B15B6903B1984708BD00BF00000020B0
:10019000B8380008224A038890429BB212D002F578
:1001A000006290420ED0B0F1804F0BD0A2F5983291
:1001B000904207D002F58062904203D002F580623F
:1001C000904203D14A8823F070031343154A9042AA
:1001D00008D002F58062904204D023F44073CA88AC
:1001E0009BB2134303808B8883850B8803850C4B5C
:1001F00098420FD003F5006398420BD003F540639B
:10020000984207D003F58063984203D003F58063DA
:10021000984201D10B7A038601238382704700BF85
:10022000002C0140001000404FF6FF738380002334
:100230000380C380438003727047038819B19BB267
:1002400043F0010303E023F001031B041B0C0380B4
:10025000704783899BB20AB1194301E023EA010187
:1002600081817047038A828911EA030092B203D028
:1002700011420CBF002001207047C94389B201829E
:100280007047000008B50C4A0C4B0D4903E052F8CA
:10029000040B43F8040B8B42F9D30A480A494FF088
:1002A00000028842B8BF40F8042BFADB00F096F851
:1002B000BDE8084002F032B8B44400080000002055
:1002C00098010020980100205C070020FEE7000054
:1002D00010B52F4C002220682E4903F0D5FA0022D9
:1002E000A0682D4903F0D0FA002220692B4903F0C1
:1002F000CBFA0022A0692A4903F0C6FA0022206A3C
:10030000284903F0C1FA0022A06A274903F0BCFA89
:100310000022206B254903F0B7FA0022A06B244984
:1003200003F0B2FA0022206C224903F0ADFA002259
:10033000A06C214903F0A8FA0022206D1F4903F0A8
:10034000A3FA0022A06D1E4903F09EFA0022206E3F
:100350001C4903F099FA0022A06E1B4903F094FA9D
:100360000022206F194903F08FFA0022A06F18496C
:1003700003F08AFAD4F880001649002203F084FAC8
:10038000D4F8880014490022BDE8104003F07CBA7C
:1003900004000020D0380008FB3800082539000888
:1003A000053900082D3900083A3900084739000896
:1003B000593900086C3900088E390008AC3900083A
:1003C000CB390008E8390008063A0008233A00084B
:1003D000413A00085F3A00086D3A0008314B82B09C
:1003E0001A6842F001021A6059682F4A0A405A609E
:1003F0001A6822F0847222F480321A601A6822F499
:1004000080221A605A6822F4FE025A604FF41F02DA
:100410009A600022DA62009201921A6842F48032F5
:100420001A601A6802F400320192009A01320092B6
:10043000019A1AB9009AB2F5A06FF2D1194B1B6854
:1004400013F4003318BF01230193019B012B23D127
:10045000144B5A685A605A685A605A685A605A6807
:1004600022F47C125A605A6842F498125A601A6850
:1004700042F080721A6019680A4A8901FBD55368F4
:1004800023F003035360536843F00203536053683F
:1004900003F00C03082BFAD1044B4FF000629A6072
:1004A00002B07047001002400000FFF800ED00E0CD
:1004B00084B0ADF80600BDF806304FF4FA629BB286
:1004C000534301E0039B013B0393039B002BF9D1B2
:1004D00004B0704784B0ADF80600BDF806309BB29A
:1004E0005B0001E0039B013B0393039B002BF9D1CD
:1004F00004B0704710B5074C4FF4804323610220CD
:10050000FFF7E8FF4FF0804302202361BDE8104071
:10051000FFF7E0BF000C014070B50F4C4FF07C4579
:100520004FF4805625612661FFF7E4FF0120FFF7B5
:10053000BFFF25612661FFF7DDFF0120FFF7B8FF50
:100540004FF4806325612361FFF7D4FF0120BDE8EC
:100550007040FFF7ADBF00BF000C0140254B4FF0CE
:100560007C4270B504460D461A6111B14FF4004249
:100570001A61E20644BF4FF400521A611D4B14F099
:10058000200F1CBF4FF480521A61660644BF4FF41F
:1005900000621A61174E14F0800F1CBF4FF4806385
:1005A0003361FFF7A7FF4FF07053E007336103D5C6
:1005B000104B4FF400521A61A10703D50D4B4FF4B5
:1005C00080521A61620703D50A4B4FF400621A6128
:1005D000230703D5074B4FF480621A61FFF78AFFA8
:1005E0000220FFF765FF1DB1024B4FF000421A6178
:1005F00070BD00BF000C0140034610B90820194629
:100600000BE021B90AB90C2003E00D2005E012B976
:100610000E20114601E00F200021FFF79FBF0120AF
:100620000021FFF79BBF08B56420FFF741FFFFF7EC
:1006300073FF012001460022FFF7DEFFBDE80840FE
:10064000FFF7EDBFC0B20121FFF788BF054B18705F
:10065000597011B940F0800002E040F0C000002164
:10066000FFF77CBFA20100202DE9F843894606462A
:10067000DFF86C800127194C29E0B22801D149200C
:1006800011E0AF2801D103200DE0DE2802D10120C6
:10069000014609E0AA2801D1022004E0BF2884BF56
:1006A000404410F8C00C0121FFF758FF237865780B
:1006B0000133DBB2237055B9082B08D1B9F1020F11
:1006C00005D128460121FFF7C1FF2570677016F894
:1006D000010B0028D1D1BDE8F88300BFA2010020A2
:1006E0002401002070B506460D4600240CE00121CF
:1006F000FFF734FF012D06D1E3B2072B03D1002011
:100700002946FFF7A3FF0134305D0028EFD170BD0B
:10071000C00040F0400038B5C0B20D460021FFF7E0
:100720001DFF0024285D01210134FFF717FF082C6D
:10073000F8D180200021BDE83840FFF70FBF2DE938
:10074000F3410025042415271F264FF00E082846E4
:1007500069468DF800408DF803408DF805408DF80E
:1007600001708DF802808DF804508DF806608DF8C8
:100770000760FFF7CDFF012069468DF802408DF834
:1007800006408DF800708DF801808DF803508DF8CB
:1007900004508DF805508DF80760FFF7B9FF02206F
:1007A00069468DF801408DF805408DF800508DF8B0
:1007B00002808DF803708DF804508DF806608DF876
:1007C0000760FFF7A5FF032069468DF800408DF80C
:1007D00003408DF806408DF801808DF802708DF889
:1007E00004508DF805508DF80760FFF791FF204603
:1007F00069468DF800408DF803408DF804408DF86F
:1008000007408DF801808DF802708DF805708DF825
:100810000680FFF77DFF02238DF800300A238DF854
:1008200003308DF804301C2307248DF805308DF833
:1008300006300520082369468DF807308DF8014001
:100840008DF80240FFF764FF0F238DF80030052379
:100850008DF801308DF802308DF803308DF80430BA
:100860000620092369468DF806308DF805708DF84D
:100870000750FFF74DFF11238DF800308DF8013040
:100880008DF802302046012369468DF803608DF80B
:1008900004308DF805308DF806308DF80750FFF7DD
:1008A00037FFBDE8FC810221FFF7DEBE10B504462C
:1008B00008461146FFF7CAFE20460221BDE8104057
:1008C000FFF7D2BE08B5364B5A6822F440725A6020
:1008D0005A6842F400725A605A6822F440625A60C0
:1008E0005A6842F480625A605A6822F440525A6050
:1008F0005A6842F400525A605A6822F440425A60E0
:100900005A6842F480425A605A6822F440325A606F
:100910005A6842F400325A605A6822F440225A60FF
:100920005A6842F480225A605A6822F440125A608F
:100930005A6842F400125A605A6822F440025A601F
:100940005A6842F480025A605A6822F040725A6033
:100950005A6842F000725A605A6822F040625A6047
:100960005A6842F080625A605A6822F040525A60D7
:100970005A6842F000525A605A6822F040425A6067
:100980005A6842F080425A60FFF74DFEFFF747FE7B
:10099000002101200A46BDE80840FFF72DBE00BF38
:1009A000000C0140CB782DE9F04303F00F02DB0689
:1009B00048BF8B780E8848BF1A4316F0FF0F1FD030
:1009C000046800234FF001084FF00F0C08FA03F7FA
:1009D00007EA0605BD420FD19F000CFA07F902FA9B
:1009E00007F724EA09043C43CF78282F01D1456159
:1009F00002E0482F08BF05610133082BE6D10460EF
:100A00000E88FF2E21D9446800234FF001084FF0D3
:100A10000F0C03F1080708FA07F707EA0605BD42BD
:100A20000FD19F000CFA07F902FA07F724EA09042C
:100A30003C43CF78282F01D1456102E0482F08BF01
:100A400005610133082BE4D14460BDE8F08383687D
:100A500019420CBF00200120704702F0EBBC18B116
:100A600000210A46FFF722BF704784B0ADF80600A8
:100A7000BDF806304FF416629BB2534301E0039B6E
:100A8000013B0393039B002BF9D104B07047000096
:100A900010B5044600200146FFF7D8FD0A4B188820
:100AA00000B202F033FBFFF7FEFE0848FFF7FBFE43
:100AB000022C08D1064B1A88064B12B29A64BDE884
:100AC000104002F0B7BC10BD80050020E8420008CD
:100AD0009C0100200400002010B5044600200146BF
:100AE000FFF7B4FD0A4B188800B202F00FFBFFF7C6
:100AF000DAFE0848FFF7D7FE022C08D1064B1A8809
:100B0000064B12B21A65BDE8104002F093BC10BD4E
:100B100080050020E84200089E010020040000201B
:100B200010B5044600200146FFF790FD1548FFF779
:100B3000BAFE022C24D102F0DBFC02F037FD0446A1
:100B400000200146FFF782FD0F48FFF7ACFE4FF48F
:100B5000FA60FFF78AFF00200146FFF777FD012CBE
:100B600005D10A48FFF79FFE4FF4FA6004E00848F9
:100B7000FFF799FE4FF47A60BDE81040FFF775BFAC
:100B800010BD00BFF74200080843000819430008E1
:100B90002A430008022810B50E4C02D12369013304
:100BA00003E0012802D12369013B236100200146B3
:100BB000FFF74CFD206902F0A9FAFFF774FE064822
:100BC000FFF771FE23694FF461625A43034B1A60C9
:100BD00010BD00BF040000203B430008B805002002
:100BE000022810B50D4C02D1236A0A3303E0012814
:100BF00002D1236A0A3B236200200146FFF726FD4B
:100C0000206A0A23B0FBF3F0012102F0B9FAFFF7E2
:100C10004AFE0348BDE81040FFF745BE040000202F
:100C200040430008022810B50D4C02D1A36A0A33D4
:100C300003E0012802D1A36A0A3BA3620020014617
:100C4000FFF704FDA06A0A23B0FBF3F0012102F0D4
:100C500097FAFFF728FE0348BDE81040FFF723BED0
:100C60000400002040430008022810B50B4C02D1BC
:100C7000236B013303E0012802D1236B013B236383
:100C800000200146FFF7E2FC206B02F03FFAFFF77D
:100C90000AFE0348BDE81040FFF705BE040000202F
:100CA00045430008022810B50B4C02D1A36B013359
:100CB00003E0012802D1A36B013BA363002001469E
:100CC000FFF7C4FCA06B02F021FAFFF7ECFD03482C
:100CD000BDE81040FFF7E7BD0400002045430008D1
:100CE000022838B51C4C03D1D4F88030013304E01D
:100CF000012804D1D4F88030013BC4F880300020B2
:100D00000146FFF7A3FCD4F8800002F0FFF9FFF7DB
:100D1000CAFD1248FFF7C7FDA06A0A250121B0FBF2
:100D2000F5F002F02DFAFFF7BEFD0D48FFF7BBFD11
:100D3000A36AD4F8800064225843B0FBF2F01B1A77
:100D4000B3FBF5F0012102F01BFAFFF7ACFD0548FB
:100D5000BDE83840FFF7A7BD040000204E4300085F
:100D6000544300084043000810B515481021FFF710
:100D70006EFE58B112482021FFF769FE40B11048BD
:100D80004021FFF764FEB0B9012202E0032200E037
:100D900002220C4B40F2DC5019880CB2844203DD75
:100DA00040F2B451198004E0013189B2142919804C
:100DB00004D19A7010BD034B00221A8010BD00BFF1
:100DC000000C0140A4010020034B0022987800B1E0
:100DD0005A609A70704700BFA401002038B51F48C0
:100DE0000121FFF73FFA002836D001211B48FFF709
:100DF00044FA1B4B1A8812B2002A07DC194CA5686A
:100E0000188800B202F026FA4519A560144B1A881A
:100E100012B2012A07DD134CE568188800B202F00F
:100E200019FA4519E5600F4B1A7C012A02D15A695B
:100E300001325A611B7E0B4A012B02D1D369013367
:100E4000D361084B93F82020012A02D15A6A01325B
:100E50005A629A6A01329A6238BD00BF004401406A
:100E600080050020A4010020034B00225A620122C9
:100E700083F82020704700BFA4010020034B00220C
:100E80005A62012283F82020704700BFA40100208D
:100E900038B504464FF46160B4FBF0F002F036F967
:100EA000054602F0DDF9012803D81E480121FFF7AD
:100EB00019FC28460121FFF715FC01211A48FFF70C
:100EC00011FC3C23B4FBF3F2B2FBF3F003FB102064
:100ED00002F01CF9054602F0C3F9012803D81148B5
:100EE0000121FFF7FFFB01212846FFF7FBFB012152
:100EF0000D48FFF7F7FB3C23B4FBF3F003FB104076
:100F000002F004F9044602F0ABF9012803D80548C1
:100F10000121FFF7E7FB20460121BDE83840FFF73C
:100F2000E1BB00BF51430008E743000838B5044661
:100F30004FF46160B4FBF0F002F0E8F8054602F00F
:100F40008FF9012803D812480121FFF7CBFB0121BB
:100F50002846FFF7C7FB01210E48FFF7C3FB3C23E0
:100F6000B4FBF3F4B4FBF3F003FB104002F0CEF853
:100F7000044602F075F9012803D805480121FFF75E
:100F8000B1FB20460121BDE83840FFF7ABBB00BFF5
:100F900051430008E7430008094B4FF480321A61BF
:100FA0004FF400321A614FF08072A3F580631A612A
:100FB000044B002283F82C2083F82D20704700BFBB
:100FC000000C0140A4010020074A01234FF4003126
:100FD00013611161054A82F82C3082F82D30044BE0
:100FE0004FF480721A617047000C0140A401002088
:100FF0000008014038B51C4B0122054683F82E201D
:10100000FFF7E2FF022D194C02D12368013303E000
:10101000012D02D12368013B236000200146FFF728
:1010200015FB23680A20584302F070F8FFF73BFCD9
:101030000F48FFF738FC0F4B226818880E4B80B220
:10104000801A42F2107250431B881BB2B0FBF3F0BF
:101050000A4BC3F8880002F059F8FFF724FC08484F
:10106000BDE83840FFF71FBCA40100204401002068
:1010700053430008A0010020800500200400002048
:101080005743000838B5174B0122054683F82E2038
:10109000FFF79AFF022D144C02D1A36F013303E036
:1010A000012D02D1A36F013BA36700200146FFF78A
:1010B000CDFAA06F02F02AF8FFF7F5FB0B48FFF717
:1010C000F2FB00200121FFF7C1FA094B0221188829
:1010D00080B202F055F8FFF7E6FB0648BDE838405D
:1010E000FFF7E1BBA4010020040000202E4400080B
:1010F0007E0500205F43000838B5174B01220546E6
:1011000083F82E20FFF760FF022D144C02D1236FCD
:10111000013303E0012D02D1236F013B236700203F
:101120000146FFF793FA206F01F0F0FFFFF7BBFBDA
:101130000B48FFF7B8FB00200121FFF787FA094BA6
:101140000221188880B202F01BF8FFF7ACFB0648BA
:10115000BDE83840FFF7A7BBA40100200400002031
:101160002E4400087C0500205F43000838B5174B6B
:101170000122054683F82E20FFF726FF022D144C8E
:1011800002D1A36E013303E0012D02D1A36E013B16
:10119000A36600200146FFF759FAA06E01F0B6FFE2
:1011A000FFF781FB0B48FFF77EFB00200121FFF7D3
:1011B0004DFA094B0221188880B201F0E1FFFFF7D8
:1011C00072FB0648BDE83840FFF76DBBA401002064
:1011D000040000202E440008780500205F4300082A
:1011E00038B5174B0122054683F82E20FFF7ECFE99
:1011F000022D144C02D1A36D013303E0012D02D165
:10120000A36D013BA36500200146FFF71FFAA06D07
:1012100001F07CFFFFF747FB0B48FFF744FB012180
:101220000020FFF713FA094B188800B201F06EFF97
:10123000FFF739FB0648BDE83840FFF734BB00BF75
:10124000A4010020040000202E4400088005002096
:101250006343000838B5284C0546002001230146A9
:1012600084F82E30FFF7F2F994F82C30B3B9234B01
:101270000221188880B201F083FFFFF714FB204899
:10128000FFF711FB1F4B188800B201F03FFFFFF77B
:101290000AFB1D48FFF707FB1C4815E01C4B022109
:1012A000188880B201F06CFFFFF7FDFA1448FFF7D1
:1012B000FAFA144B188800B201F028FFFFF7F3FA8E
:1012C0001148FFF7F0FA1348FFF7EDFA022D11D19C
:1012D000094C114994F82C00002202F0D5FA94F838
:1012E0002C301BB9BDE83840FFF76EBEBDE8384072
:1012F000FFF752BE38BD00BFA401002078050020D2
:101300005443000880050020684300086C4300082F
:101310007C0500207343000879430008034B93F8D1
:101320002D300BB9FFF750BEFFF736BEA4010020E9
:10133000084B4FF480321A6102221A61064B0122D7
:1013400083F82C2083F82F20044B4FF400621A619D
:10135000704700BF000C0140A401002000080140BC
:1013600008B5FFF719FEBDE80840FFF7E1BF000030
:1013700038B5174B0122054683F82E20FFF7F0FF02
:10138000022D144C02D1236E013303E0012D02D152
:10139000236E013B236600200146FFF757F9206EBC
:1013A00001F0B4FEFFF77FFA0B48FFF77CFA01214A
:1013B0000020FFF74BF9094B188800B201F0A6FE98
:1013C000FFF771FA0648BDE83840FFF76CBA00BF76
:1013D000A4010020040000202E4400088005002005
:1013E00063430008084B4FF480321A614FF4003217
:1013F0001A61064B002283F82C2083F82F20044B1F
:101400004FF000621A617047000C0140A4010020F7
:101410000008014008B5FFF7E5FFBDE80840FFF709
:10142000BBBD000038B50F4C0F4D23889BB2B3F500
:101430002F7F13D2FFF7EEFF2B798BB901232B718E
:101440000A4B9A680A4B1A6401F0F4FF2088094994
:1014500080B20222BDE8384002F016BA00232B7198
:1014600038BD00BF7E05002044010020A4010020FB
:10147000040000208143000808B508480121FEF758
:10148000F1FE48B105480121FEF7F7FEFFF76CFCBD
:10149000BDE80840FFF7C6BF08BD00BF001400400C
:1014A00038B56F4B012193F83020044683F82E1095
:1014B0003AB91A7483F83010197683F831209A609B
:1014C000DA61684B68491A88096A92B2644B8A42A9
:1014D0005A8601D3002205E093F831200AB99A6AAE
:1014E0005A63012283F831209A6A5B6B5C4DD31AF0
:1014F000032B06D995F831301BB1FFF78BFF002382
:101500002B76022C564B08D193F82C3013B9FFF7E9
:1015100027FF0FE0FFF77EFF0CE0012C0AD193F8C4
:101520003820013AD2B283F83820120602D50322BD
:1015300083F838204A4C94F93800002835D1014608
:10154000FFF784F8474B0221188880B201F018FE9B
:10155000FFF7A9F94548FFF7A6F9454B188800B2EF
:1015600001F0D4FDFFF79FF94248FFF79CF994F88A
:101570002C3013B90720012105E094F839300720F9
:101580000121052B03D8FFF761F8022002E0FFF7E5
:101590005DF803200121FFF755F8314B93F839200E
:1015A0000A2A02D9002283F839202D4B93F93840BA
:1015B000012C13D100200146FFF748F82E48FFF711
:1015C00072F9294B2146186A0A23B0FBF3F001F0A7
:1015D000D7FDFFF768F92948FFF765F9204C94F922
:1015E0003830022B1AD100200146FFF72FF824488B
:1015F000FFF759F91C4B98694FF46163B0FBF3F0A6
:1016000001F084FDFFF74FF91E48FFF74CF9032066
:101610000121FFF71BF8E06BFFF788FC104C94F9F1
:101620003850032D1BD100200146FFF70FF8164854
:10163000FFF739F9A0684FF46163B0FBF3F001F0F4
:1016400065FDFFF730F91148FFF72DF92846012114
:10165000FEF7FCFFE069BDE83840FFF767BC38BD26
:10166000A40100207C050020040000205443000851
:101670008005002089430008924300084043000889
:101680009E430008A1430008AA430008AD43000898
:1016900008B5274B0122022883F82E2007D193F8A2
:1016A0002C3013B9FFF75CFE01E0FFF7B3FE00201A
:1016B0000146FEF7CBFF1F4B0221188880B201F0D4
:1016C0005FFDFFF7F0F81C48FFF7EDF81B4B18889B
:1016D00000B201F01BFDFFF7E6F81948FFF7E3F849
:1016E000134B93F82C2012B90620012105E093F842
:1016F000393006200121052B07D8FEF7A7FF02206D
:101700000121FEF79FFF022006E0FEF79FFF032066
:101710000121FEF797FF03200121FEF793FF044B01
:1017200093F839200A2A02D9002283F8392008BD0B
:10173000A40100207C0500205443000880050020FF
:10174000B643000808B5FFF74DFEBDE80840FFF7B7
:101750003BBC000070B5044600200146FEF776FF52
:101760006D4B012293F8301083F82E201D4619B9D5
:1017700083F83020FFF778FB684B696A1A6B1D46C7
:10178000914201D8FFF7DEFF634B2A6B596A1D4671
:10179000914201D9FFF7E4FD604B696A986B1A6BBF
:1017A0001D468218914201D9FFF768FB5C4A2B6AFB
:1017B0001188154689B2994201D2FFF75FFB2A884A
:1017C000564D92B2AB6A9A4206D9FFF757FB524B7D
:1017D0002A6B596A8A185A62022C4F4B09D193F826
:1017E00038200132D2B2032A83F838200ED10022E9
:1017F0000AE0012C0AD193F83820013AD2B211063E
:1018000083F8382002D5022283F83820424D95F91A
:101810003840002C32D120462146FEF717FF404BBE
:101820000221188880B201F0ABFCFFF73CF83D487C
:10183000FFF739F83C4B188800B201F067FCFFF75E
:1018400032F83A48FFF72FF806200121FEF7FEFE96
:1018500005200121FEF7F6FE95F82D500720012DF9
:1018600005D12946FEF7F2FE2046294604E0012173
:10187000FEF7ECFE02200121FEF7E4FE264B93F971
:101880003840012C23D10020244D0146FEF7DEFE16
:10189000286901F03BFCFFF706F82548FFF703F83D
:1018A000286A0A262146B0FBF6F001F069FCFEF733
:1018B000FAFF1C48FEF7F7FFA86A2146B0FBF6F0D6
:1018C00001F05EFCFEF7EFFF1A48FEF7ECFF124C4A
:1018D00094F93830022B1DD10020104D0146FEF73F
:1018E000B5FE286B01F012FCFEF7DDFF1248FEF793
:1018F000DAFFA86B01F00AFCFEF7D5FF0F48FEF7F0
:10190000D2FF03200121FEF7A1FEE069BDE870408F
:10191000FFF70CBB70BD00BFA40100200400002035
:101920007C0500205443000880050020BD430008CA
:10193000C5430008C843000810440008CF4300080E
:10194000F8B55C4D012795F83060044685F82E7097
:10195000E6B9594B1A88594B92B21B6A9A4207D37F
:1019600085F84070FFF7FCFCEE61AE602F7606E074
:101970006E6185F84060EE602F74FFF7E3FE4D4B1B
:10198000012283F830204E4801F03EFF494B4FF0D2
:10199000000293F84010012922D11A7419764649A1
:1019A00046480988006A89B28142598605D293F86F
:1019B00031200AB99A6A5A63012283F831209A6A5F
:1019C0005B6B3C4DD31A032B29D995F8313033B3D7
:1019D000FFF7B8FE00236B6185F84030EB601EE036
:1019E0001A7601221A745A69364B1B689A4206D835
:1019F000314B1A88314B92B29B6A9A420FD9FFF74A
:101A0000AFFC2C4B0122D96983F840200022D96316
:101A1000DA619868294983F8312088619A60022C3C
:101A2000244B09D193F838200132D2B2052A83F829
:101A300038200ED100220AE0012C0AD193F8382078
:101A4000013AD2B2100683F8382002D5042283F876
:101A50003820184D95F93840002C42D120462146B7
:101A6000FEF7F4FD144B0221188880B201F088FBC8
:101A7000FEF719FF1448FEF716FF144B188800B242
:101A800001F044FBFEF70FFF1148FEF70CFF0620A4
:101A90000121FEF7DBFD04200121FEF7D3FD95F8BF
:101AA0002D500720012D15D12946FEF7CFFD2046E8
:101AB000294614E0A40100207C0500200400002039
:101AC000D4430008B80500205443000880050020D6
:101AD000BD4300080121FEF7B9FD02200121FEF7F8
:101AE000B1FD524B93F93840012C23D10020504DC9
:101AF0000146FEF7ABFD286901F008FBFEF7D3FEB7
:101B00004C48FEF7D0FE286A0A262146B0FBF6F0C4
:101B100001F036FBFEF7C7FE4748FEF7C4FEA86A91
:101B20002146B0FBF6F001F02BFBFEF7BCFE43486C
:101B3000FEF7B9FE3D4C94F93850022D21D100201A
:101B40000146FEF783FD28460121FEF77BFD0021BB
:101B50000120FEF77BFD3A48FEF7A5FEA0684FF492
:101B60006163B0FBF3F001F0D1FAFEF79CFE35485B
:101B7000FEF799FE03200121FEF768FDE069FFF7FB
:101B8000D5F92A4C94F93850032D22D10020014672
:101B9000FEF75CFD02200121FEF754FD002101202B
:101BA000FEF754FD2848FEF77EFE214B98694FF45E
:101BB0006163B0FBF3F001F0A9FAFEF774FE21486F
:101BC000FEF771FE28460121FEF740FDE06BFFF7AE
:101BD000ADF9164C94F93830042B21D10020014680
:101BE000FEF734FD00200121FEF72CFD002101202D
:101BF000FEF72CFD1548FEF756FEE0684FF46163D2
:101C0000B0FBF3F001F082FAFEF74DFE0D48FEF74F
:101C10004AFE03200121FEF719FD6069FFF786F9EE
:101C20006420BDE8F840FEF720BF00BFA4010020FB
:101C300004000020C543000854430008C8430008BE
:101C4000AA430008AD4300089E430008E343000890
:101C500038B58B4B012193F83020044683F82E10C1
:101C60002AB9197483F830101A76DA605A615A6901
:101C7000844B1B689A4205D9FFF7CCFB804B0022AE
:101C80001A7416E08049814A0888936A80B29842A3
:101C900002D9FFF7BFFB0CE0D2F8802064205A4342
:101CA0000988B2FBF0F289B29B1A994201D2FFF780
:101CB00049FD022C724B08D193F82C3013B9FFF771
:101CC00041FD0FE0FFF7A6FB0CE0012C0AD193F8D1
:101CD0003820013AD2B2140683F8382002D5032204
:101CE00083F83820664C94F93800002852D1014618
:101CF000FEF7ACFC94F82C30A3B9654B0221188890
:101D000080B201F03DFAFEF7CEFD6248FEF7CBFD52
:101D10005D4B0221188880B201F032FAFEF7C3FD54
:101D20005D4812E0584B0221188880B201F028FA71
:101D3000FEF7B9FD5748FEF7B6FD584B188800B2BC
:101D400001F0E4F9FEF7AFFD5548FEF7ACFD4C4B52
:101D500093F82C402CB907200121FEF777FC204690
:101D600008E093F8393007200121052B04D8FEF74D
:101D70006DFC0020012103E0FEF768FC0120014614
:101D8000FEF760FC3E4B93F839200A2A02D9002264
:101D900083F839203A4B93F93840012C1BD10020AD
:101DA00001463A4DFEF752FC3E48FEF77CFD28699D
:101DB00001F0ACF9FEF777FD3B48FEF774FDA86A29
:101DC0000A23B0FBF3F0214601F0DAF9FEF76BFDD0
:101DD0003148FEF768FD2A4B93F93830022B2BD19E
:101DE0002A4C00200146FEF731FCD4F8800001F0B7
:101DF0008DF9FEF758FD2D48FEF755FDA06A0A251E
:101E00000121B0FBF5F001F0BBF9FEF74CFD2148D4
:101E1000FEF749FDA36AD4F8800064225843B0FB62
:101E2000F2F01B1AB3FBF5F0012101F0A9F9FEF75E
:101E30003AFD1948FEF737FD114C94F93850032D3F
:101E400019D100200146FEF701FC1948FEF72BFDD1
:101E5000E0684FF46163B0FBF3F001F057F9FEF76F
:101E600022FD1448FEF71FFD28460121FEF7EEFB78
:101E70006069FFF75BF86420BDE83840FEF7F5BD08
:101E8000A4010020B80500207C05002004000020EB
:101E900078050020544300084043000880050020D6
:101EA00089430008E6430008E94300084E43000860
:101EB000E3430008AD43000838B5694B012193F8AE
:101EC0003020044683F82E102AB9197483F8301094
:101ED0001A76DA605A615A69624B1B689A4206D8D0
:101EE000614B1A88614B92B29B6A9A4204D9FFF700
:101EF00091FA5B4B00221A74022C594B08D193F8CB
:101F00002C3013B9FFF71EFC0FE0FFF783FA0CE04B
:101F1000012C0AD193F83820013AD2B283F8382044
:101F2000120602D5022283F838204D4C94F938006D
:101F3000002852D10146FEF789FB94F82C30A3B952
:101F40004B4B0221188880B201F01AF9FEF7ABFC66
:101F50004848FEF7A8FC444B0221188880B201F0E3
:101F60000FF9FEF7A0FC444812E03F4B022118880D
:101F700080B201F005F9FEF796FC3E48FEF793FCAF
:101F80003E4B188800B201F0C1F8FEF78CFC3C48CB
:101F9000FEF789FC324B93F82C402CB90720012125
:101FA000FEF754FB204608E093F839300720012162
:101FB000052B04D8FEF74AFB0020012103E0FEF7C1
:101FC00045FB01200146FEF73DFB254B93F83920E8
:101FD0000A2A02D9002283F83920214B93F938408C
:101FE000012C1BD100200146204DFEF72FFB254878
:101FF000FEF759FC286901F089F8FEF754FC2248E5
:10200000FEF751FCA86A0A23B0FBF3F0214601F069
:10201000B7F8FEF748FC1D48FEF745FC104C94F954
:102020003830022B1BD100200146FEF70FFB184869
:10203000FEF739FCE0684FF46163B0FBF3F001F0A8
:1020400065F8FEF730FC1348FEF72DFC0320012154
:10205000FEF7FCFA6069BDE83840FEF767BF38BD9F
:10206000A4010020B80500207C0500200400002009
:102070007805002054430008C8430008800500206C
:10208000BD430008E6430008E94300084043000858
:10209000E3430008F1430008034B93F82F300BB9DA
:1020A000FFF746B9FFF79EB9A4010020844B012237
:1020B000022810B583F82E200BD193F8412001326D
:1020C000D2B2082A83F8412017D1002283F8412098
:1020D00013E0012811D193F84130023BDBB2012B10
:1020E00002D8FFF71BF901E0FEF756FF744B93F996
:1020F0004130042B01D1FFF7CFFF714B93F9410021
:10210000F0B90146FEF7A2FA6E48FEF7CCFB6E4B23
:10211000012118880A2380B2B0FBF3F001F030F8F7
:10212000FEF7C1FB6948FEF7BEFB694B0221188828
:1021300080B201F025F8FEF7B6FB6648FEF7B3FB68
:102140005F4B93F94130012B1BD100200146FEF774
:102150007DFA6148FEF7A7FB604B0221188880B228
:1021600001F00EF8FEF79FFB5D48FEF79CFB5D4B10
:10217000D88880B200F0CAFFFEF795FB5A48FEF7F8
:1021800092FB4F4B93F94130022B1BD100200146AB
:10219000FEF75CFA5548FEF786FB554B012118887F
:1021A00080B200F0EDFFFEF77EFB4D48FEF77BFBB3
:1021B0004C4B988880B200F0A9FFFEF774FB4A48A8
:1021C000FEF771FB3E4B93F94130032B1AD10020EF
:1021D0000146FEF73BFA4748FEF765FB464B188879
:1021E00000B200F093FFFEF75EFB4448FEF75BFB96
:1021F0003C4B588880B200F089FFFEF754FB3A4808
:10220000FEF751FB2E4B93F94130042B1AD10020DD
:102210000146FEF71BFA3A48FEF745FB394B188892
:1022200000B200F073FFFEF73EFB3448FEF73BFBC5
:102230002C4B188880B200F069FFFEF734FB2A4867
:10224000FEF731FB1E4B93F94130052B10D10020D6
:102250000146FEF7FBF92C48FEF725FB2B4BD3F884
:10226000880000F053FFFEF71EFB2948FEF71BFB1A
:10227000134C94F94130062B06D100200146FEF79D
:10228000E5F9A06AFEF704FE94F94130072B15D159
:1022900000200146FEF7DAF91E48FEF704FB084B62
:1022A000586C4FF46163B0FBF3F000F02FFFFEF7C2
:1022B000FAFA1948BDE81040FEF7F5BA10BD00BFA4
:1022C000A4010020F94300087E050020FE43000819
:1022D0007A0500202D4400080344000878050020FA
:1022E00054430008BC0500202B44000808440008A3
:1022F0007C0500200E44000880050020684300088B
:10230000134400089E0100201A4400080400002025
:102310001D4400083244000839440008F8B500F0B4
:102320009FFDFFF777F88C48FEF7BDFAFEF707FA36
:1023300000200146FEF78AF94FF4FA60FEF795FB9C
:1023400001F034F930B98548FEF7ADFA4FF47A6000
:10235000FEF78BFB824B834D1A6C1B696A644FF44A
:1023600061625A43804B7C481A6001F04DFAFDF7D8
:10237000AFFFFEF754F97D48FDF7F2FE7C48FDF70C
:10238000D7FE7B4E002795F8393085F82E70013343
:1023900085F83930FEF718FD0228044607D00328D7
:1023A00009D001280FD1FDF7BDFE406809E0FDF717
:1023B000B9FE006805E00220FDF7DCFEFDF7B2FE85
:1023C000C068FDF7B5FEFDF7ADFEB04202D1204674
:1023D000FEF740FFFDF7A6FE664B984202D120466D
:1023E000FFF756F9FDF79EFE634B984202D1204657
:1023F000FFF762FDFDF796FE604B984202D1204642
:10240000FFF726FCFDF78EFE5D4B984202D1204679
:10241000FFF746F8FDF786FE5A4B984202D1204658
:10242000FFF78EFAFDF77EFE574B984202D1204609
:10243000FFF790F9FDF776FE544B984202D1204603
:10244000FFF734FEFDF76EFE514B984202D1204655
:10245000FEF742FBFDF766FE4E4B984202D1204646
:10246000FEF716FBFDF75EFE4B4B984202D120466D
:10247000FEF77EFFFDF756FE484B984202D12046FC
:10248000FEF7AEFEFDF74EFE454B984202D12046C8
:10249000FEF7F8FDFDF746FE424B984202D120467A
:1024A000FEF72AFEFDF73EFE3F4B984202D1204642
:1024B000FEF75CFEFDF736FE3C4B984202D120460B
:1024C000FEF798FDFDF72EFE394B984202D12046CB
:1024D000FEF726FBFDF726FE364B984202D120463A
:1024E000FEF758FBFDF71EFE334B984202D1204603
:1024F000FEF776FBFDF716FE304B984202D12046E0
:10250000FEF790FBFDF70EFE2D4B984202D12046C0
:10251000FEF7AAFBFDF706FE2A4B984202D12046A1
:10252000FEF7C0FBFDF7FEFD274B984202D1204687
:10253000FEF7D6FB95F82E4054B9FEF76BFFAA685C
:10254000074B85F830409A61EB6985F83840EB63BA
:102550006420FEF78AFA16E7490100204744000884
:1025600004000020A4010020B80500205F0A000834
:10257000803A0008AC3A0008D83A0008043B00084A
:10258000303B00085C3B0008883B0008B43B000877
:10259000E03B00080C3C0008383C0008643C0008A4
:1025A000903C0008AC3C0008D83C0008043D000802
:1025B000203D00083C3D0008683D0008943D0008AF
:1025C000C03D0008EC3D0008183E000870B592B010
:1025D0007E2312A9002621F8043D48488DF8476063
:1025E000FEF7E0F901214FF4007000F04FFB0120ED
:1025F000014600F03FFB424B082502934FF48063F5
:10260000089380230693202309933E4B3E48019371
:102610004FF48073079301A94FF400530A93049574
:1026200003960B96059600F024FE0121364800F033
:102630003EFE4FF4004000F0CBFA01244FF460233B
:1026400032480CA90E938DF835400F960C968DF8F4
:1026500040508DF8344000F025FC07232B482146DC
:10266000224600F070FC02210A460723274800F0AA
:102670006AFC03210A460723244800F064FC042175
:102680000A460723214800F05EFC05210A4607237D
:102690001E4800F058FC06210A4607231B4800F09C
:1026A00052FC204600F09EFC0722134617481121D9
:1026B00000F049FC2A4604231448102100F043FC92
:1026C0001248214600F012FC1048214600F017FC89
:1026D0000E4800F01DFC0D4800F01FFC0028FAD148
:1026E0000A4800F01EFC094800F020FC0028FAD13E
:1026F0000648012100F01EFC12B070BD0008014028
:10270000BC0500204C240140080002400024014088
:102710001FB50121022000F0C5FA0E4C01A8FDF7FB
:1027200083FD45F6BF53ADF804302046052301A9CB
:10273000ADF80830FDF72EFD01210A462046FDF7D1
:1027400088FD20460121FDF778FD034B4FF0005234
:102750001A601FBD0004004000E100E0224A234B44
:1027600091682DE9F04108319160C91A002808BF2D
:102770000120A729C8BF9360936812681E689A4217
:1027800008BF194A184C08BF1660194F2268988074
:1027900015252146BC46D2F800809845B2F8048041
:1027A00008BF1660804503D2086818600B600020DF
:1027B000BA42246814D01168D1F800809845B1F865
:1027C000048008BF0E60804503D210681860136053
:1027D0000020614504D0013DADB20A68002DDAD178
:1027E000A088BDE8F08100BF5C0100200C02002041
:1027F000B4020020234A244B51692DE9F0410831ED
:102800005161C91A002808BF0120B1F5A47FA8BFF3
:1028100053615369D2681E689A4208BF194A194920
:1028200008BFD66051F80C2F184F988029250C4608
:10283000BC46D2F800809845B2F8048008BF166004
:10284000804503D22068186023600020BA420968DE
:1028500014D01468D4F800809845B4F8048008BFF8
:102860002660804503D2106818601360002064451C
:1028700004D0013DADB22268002DDAD18888BDE8D0
:10288000F08100BF5C010020BC0200200404002095
:10289000234A244B116A2DE9F04108311162C91A0B
:1028A000002808BF0120B1F5A47FA8BF1362136AF6
:1028B00092691E689A4208BF194A194908BF966171
:1028C00051F8182F184F988029250C46BC46D2F88D
:1028D00000809845B2F8048008BF1660804503D296
:1028E0002068186023600020BA42096814D0146878
:1028F000D4F800809845B4F8048008BF266080456D
:1029000003D21068186013600020644504D0013DB4
:10291000ADB22268002DDAD18888BDE8F08100BF11
:102920005C0100200C040020540500200F49D1F860
:102930005433D1F85023C1F858339342C1F854238B
:10294000C1F8500307DC834203DC9042A8BF104665
:1029500070479A4205DC824203DC9842A8BF1846C1
:1029600070479A42B4BF1046184670470C020020C8
:102970000F49D1F86033D1F85C23C1F86433934236
:10298000C1F86023C1F85C0307DC834203DC90429A
:10299000A8BF104670479A4205DC824203DC984289
:1029A000A8BF184670479A42B4BF104618467047F1
:1029B0000C0200202DE9F0437B4885B00121FDF792
:1029C00051FC002800F0ED80784D0121D5F86833E6
:1029D00075480133C5F86833FDF74FFC00246623C2
:1029E000ADF80C40ADF80E40019402940193019BA8
:1029F0004FF4A57253436E4A022093FBF2F3163351
:102A0000029300F067FC022000F06EFC694E022188
:102A10002246694800F056FC684BF1889B6E89B2EB
:102A20004B43B28992B2B3FBF2F39BB2ADF80E30D6
:102A3000BDF80E0080B2FFF72BFFA5F86C03B5F8C8
:102A40006C334FF4F0229BB2022B98BFA5F86C4375
:102A5000B3895A4C9BB292FBF3F39BB2A5F86E3349
:102A6000B188236F89B24B43B28992B2B3FBF2F3C0
:102A70009BB2ADF80E30BDF80E0080B2FFF76EFECF
:102A8000A5F87003B5F870234D4B92B21A80B5F8D3
:102A9000703325469BB2022B03D8444B0022A3F887
:102AA0007023444CAB6F2189A28989B24B4392B207
:102AB000B3FBF2F39BB2ADF80E30BDF80E00DFF8B9
:102AC000EC8000B2FFF754FFAB6D80B24FF00A0903
:102AD000A8F8720309FB03F36188A28989B24B430A
:102AE00092B2B3FBF2F39BB2ADF80E30BDF80E001C
:102AF000344F80B2FFF77EFE296E80B2388009FB2A
:102B000001F92288A38992B202FB09F99BB2B9FBB1
:102B1000F3F91FFA89F9ADF80E90BDF80E00274EB3
:102B200000B2FFF703FF284B80B2284A1880926852
:102B3000920753BF3A881B88326DB36CD31A9BB28D
:102B4000A8F87433B8F87033184A9BB2ADF80C305B
:102B5000B8F87433194BBDF80C10B2F87423D3F8DD
:102B6000883012B2534342F21072B3FBF2F3CB1A25
:102B70009BB2ADF80C30BDF80C301BB2022B02DC5E
:102B80000023ADF80C30BDF80C20084B92B20A4877
:102B9000A3F870230221012205B0BDE8F04300F044
:102BA00091BB05B0BDE8F083000400400C0200209A
:102BB00018FCFFFFBC0500200800024004000020B4
:102BC000A00100209C0100209E010020000C01407B
:102BD000034B5A6822F4404210435860704700BFCC
:102BE0000010024010B51F4B5A6802F00C02042A74
:102BF00001D0082A02D01C4B036011E05A685968C2
:102C0000C2F383420232C90301D4184B06E0DB6AE7
:102C1000154903F00F030133B1FBF3F35A4302608C
:102C2000104A134B51680468C1F30311595C24FA2C
:102C300001F141605468C4F302241C5D21FA04F4DC
:102C400084605468C4F3C2241C5D21FA04F1C1609D
:102C50005268C2F381329B181B7CB1FBF3F1016116
:102C600010BD00BF0010024000127A0000093D00B4
:102C700080010020044B5A6909B1104301E022EAA7
:102C800000005861704700BF00100240044B9A6971
:102C900009B1104301E022EA00009861704700BFCB
:102CA00000100240044BDA6909B1104301E022EA46
:102CB0000000D861704700BF0010024008B5012134
:102CC0000820FFF7E3FF214B1A6822F003021A6085
:102CD0001A6822F00C021A601A6842F002021A60A6
:102CE0001A6822F00C021A60194A516821F0030197
:102CF0005160516821F00C015160516841F00201AE
:102D00005160516821F00C015160516821F440512B
:102D10005160516821F440415160516841F40051C3
:102D20005160516821F4404151601A6822F030022C
:102D30001A601A6822F0C0021A601A6842F0200273
:102D40001A601A6822F0C0021A6008BD000C014027
:102D50000008014008B508200121FFF797FF164B36
:102D60001A6822F440121A601A6822F440021A60AB
:102D70001A6842F400021A6020221A611A6822F4CA
:102D800040321A601A6822F440221A601A6842F42B
:102D900000221A6010221A611A6822F040721A602A
:102DA0001A6822F040621A601A6842F000621A60E3
:102DB00040221A6108BD00BF000C01401FB501216F
:102DC0002020FFF76FFF0E4C01A8FDF72DFA40F60B
:102DD0005F13ADF8043020460A2301A9ADF808308E
:102DE000FDF7D8F901210A462046FDF732FA2046C0
:102DF0000121FDF722FA034B4FF400025A601FBD78
:102E00000014004000E100E01FB501214FF4003044
:102E1000FFF73CFF01A8FDF707FA0F4C0023ADF8C0
:102E2000063045F6BF53ADF8043020464FF47A73B0
:102E300001A9ADF80830FDF7ADF901210A46204699
:102E4000FDF707FA20460121FDF7F7F9034B4FF094
:102E500000721A601FBD00BF0044014000E100E0A5
:102E600008B504200121FFF711FF08200121FFF719
:102E70000DFF01211020FFF709FFFDF723FD00F0F2
:102E800023FCFFF71BFFFFF765FFFFF797FFFFF737
:102E90003FFCFFF7B9FFFFF711FFBDE80840FFF760
:102EA00095BB000043680A6823F4702323F4807301
:102EB00013430A7910B543EA022343608A68CB685A
:102EC00084681A43084B234013434A7943EA420378
:102ED00083600B7CC26A013B22F47002DBB242EADF
:102EE0000353C36210BD00BFFDF7F1FF836811B14A
:102EF00043F0010301E023F001038360704783681E
:102F000011B143F4807301E023F480738360704750
:102F1000836843F00803836070478068C0F3C00093
:102F20007047836843F00403836070478068C0F390
:102F300080007047836811B143F4A00301E023F4DB
:102F4000A00383607047092970B54FF003040DD9C1
:102F50004C4307251E3C05FA04F503FA04F3C66842
:102F600026EA050545EA0304C4600BE04C43072547
:102F700005FA04F503FA04F4066926EA050545EAAC
:102F800004030361062A4FF005030CD8013A5343AA
:102F90001F2202FA03F201FA03F3446B24EA02024D
:102FA0001343436370BD0C2A0DD853431F22233BA8
:102FB00002FA03F201FA03F1046B24EA020242EA84
:102FC0000103036370BD53431F22413B02FA03F226
:102FD00001FA03F1C46A24EA020242EA0103C3626D
:102FE00070BD0000044B9A6810B142F4000201E089
:102FF00022F400029A6070470024014030B5038A31
:10300000CA8823F440531B041B0C134303820D4650
:1030100083890989AA8823F4B0530A43698923F074
:103020000C030A431B041B0C92B213438381838A53
:10303000AA8923F440731B041B0C87B01343044676
:10304000838201A8FFF7CEFD174BA2899C420CBFDB
:10305000049B039B12B2002A4FF019012A6801FB5E
:1030600003F101DA520000E092006423B1FBF2F1B7
:10307000B1FBF3F21201100903FB1011A08900B299
:10308000002806DAC9003231B1FBF3F303F007037D
:1030900005E009013231B1FBF3F303F00F031A43EA
:1030A00092B2228107B030BD00380140838919B146
:1030B0009BB243F4005303E023F400531B041B0CA6
:1030C00083817047C1F3421310B5012401F01F0141
:1030D000A34204FA01F101D10C3004E0022B01D12A
:1030E000103000E0143003680AB1194301E023EA0C
:1030F0000101016010BDC905C90D818070470388B9
:1031000019420CBF00200120704700007FB580EA03
:10311000E072A2EBE0720DF1FF3500230A2492FB6E
:10312000F4F104FB1122303205F8012F1E46013361
:103130000A1EDBB2F3DC002807DA5BB204A8C3186E
:103140002D2203F8102CB31CDBB25AB204A881184C
:10315000002001F8100C68448118074811F8014C50
:10316000013BDBB2013900F8014F002BF6D10348D7
:10317000835404B070BD00BF8F050020900500206F
:10318000F0B58BB080EAE073A3EBE0730DF1FF368E
:1031900000220A2593FBF5F405FB1433303306F8BF
:1031A000013F17460132231ED2B2F3DC53B20AADFF
:1031B000EC180025012B04F8285C04D13023BA1C3C
:1031C0008DF80130D2B2022A05D1012903D930236A
:1031D0008DF80230032200240DF1280C23460CEB5D
:1031E00001062E2552B25FB28F4203D1013306F899
:1031F000145CDBB25FB20DF1280C67441DF804C00B
:10320000013407F814CC67B201339742DBB2EADB32
:10321000002807DA5AB20AA98A1801332D2102F8C8
:10322000141CDBB259B205AD084800226C1804E04A
:10323000A55C013B00F8015FDBB2013A002BF7D13E
:10324000034841180B7410300BB0F0BD9F050020EF
:1032500090050020002802D001DC404200B27047F7
:103260000346002001E00130C0B21A5C002AFAD106
:1032700070478B6810B50C6A026823430C6922F40E
:10328000FE4223434C6922F0F00223438C6923431E
:10329000CC6923434C6A23438C6A23431343036062
:1032A000CB6843600B6883604B68C36010BD19B185
:1032B000036843F0010303E002684FF6FE73134016
:1032C0000360704703680AB1194301E023EA010172
:1032D00001607047C2004CBF014B024B5860704701
:1032E0000004024000000240C3004CBF014B024BEF
:1032F000586070470004024000000240C37810B5D7
:10330000F3B1154B4178DB688478DB43C3F30223C8
:10331000C3F1040201FA02F10F2222FA03F2224061
:103320000A430E4B01781201CB18D2B283F8002366
:1033300003780122590903F01F0302FA03F307E09F
:1033400003780122590903F01F0302FA03F3203125
:10335000024A42F8213010BD00ED00E000E100E03B
:103360000F4AD36813F0010F0D4BFAD1DA689206B9
:1033700001D52022DA601A6942F002021A6158610E
:103380001A6942F040021A61054AD168044B890665
:10339000FBD52022DA601A6922F002021A61704716
:1033A00000200240034B044A5A6002F188325A60FE
:1033B000704700BF0020024023016745024B1A6995
:1033C00042F080021A61704700200240124AD3681E
:1033D00013F0010F104BFAD1DA68920601D52022C2
:1033E000DA601A6942F001021A618BB203800A4B5B
:1033F000DA6812F0200F084AFAD02023090CD360B3
:103400004180D168044B8906FBD52022DA601A6915
:1034100022F001021A6170470020024000688842D1
:1034200001D3904203D9024B00221A70084670471C
:103430009401002010B52C4CFFF7B4FF6068FFF733
:103440008FFF60682168FFF7C1FFE068A168FFF7A0
:10345000BDFF60692169FFF7B9FFE069A169FFF766
:10346000B5FF606A216AFFF7B1FFE06AA16AFFF762
:10347000ADFF606B216BFFF7A9FFE06BA16BFFF75E
:10348000A5FF606C216CFFF7A1FFE06CA16CFFF75A
:103490009DFF606D216DFFF799FFE06DA16DFFF756
:1034A00095FF606E216EFFF791FFE06EA16EFFF752
:1034B0008DFF606F216FFFF789FFE06FA16FFFF74E
:1034C00085FFD4F88400D4F88010FFF77FFFD4F88C
:1034D0008C00D4F88810FFF779FFFFF76FFF0348DF
:1034E00000F092F9012010BD0400002058440008AB
:1034F00010B52C4CFFF756FF6068FFF731FF60688E
:103500002168FFF763FFE068A168FFF75FFF60696C
:103510002169FFF75BFFE069A169FFF757FF606A68
:10352000216AFFF753FFE06AA16AFFF74FFF606B64
:10353000216BFFF74BFFE06BA16BFFF747FF606C60
:10354000216CFFF743FFE06CA16CFFF73FFF606D5C
:10355000216DFFF73BFFE06DA16DFFF737FF606E58
:10356000216EFFF733FFE06EA16EFFF72FFF606F54
:10357000216FFFF72BFFE06FA16FFFF727FFD4F854
:103580008400D4F88010FFF721FFD4F88C00D4F821
:103590008810FFF71BFFFFF711FF034800F034F915
:1035A000012010BD940000206644000810B5404C76
:1035B00001210A22E068FFF731FF0121A0604FF4EA
:1035C0007A726069FFF72AFF00212061394AE069B9
:1035D000FFF724FF0121A0614FF47A62606AFFF7D0
:1035E0001DFF012120624FF47A62E06AFFF716FFA7
:1035F0000021A06242F21072606BFFF70FFF002102
:10360000206342F21072E06BFFF708FF0021A06315
:10361000284A606CFFF702FF002120644FF47A72A1
:10362000E06CFFF7FBFE0021A0644FF47A72606D3E
:10363000FFF7F4FE0A2120651F4AE06DFFF7EEFE5A
:103640000A21A0651C4A606EFFF7E8FE0A21206689
:10365000194AE06EFFF7E2FE0A21A066164A606F83
:10366000FFF7DCFE0A212067134AE06FFFF7D6FE62
:103670000021A0676422D4F88400FFF7CFFE002168
:10368000C4F8800042F21072D4F88C00FFF7C6FE36
:103690000A4BC4F888001C7824B9094800F0B4F833
:1036A000204610BD074800F0AFF8012010BD00BF54
:1036B0000400002040420F00A08601009401002079
:1036C000804400089944000830B54FF4164387B091
:1036D000009300231C46ADF80430ADF80630ADF879
:1036E0000830ADF80C3004200C230121ADF80A306D
:1036F000FFF7CCFA01214FF48040FFF7C7FA4FF4EF
:10370000C063154DADF8103018238DF8133004A99F
:10371000032312488DF81230FDF744F96946284614
:10372000FFF76CFC25238DF814308DF8164022230A
:10373000012405A88DF815308DF81740FFF7DEFD40
:1037400028462146FFF7B2FC284640F22551224682
:10375000FFF7B8FC07B030BD003801400008014059
:103760000A4B1A78C72A0FD85A78094988541A7808
:103770000132D2B21A705A780132D2B25A705A78E3
:10378000C82A01D100225A70704700BFB10500203D
:10379000CC05002010B5194C2388980603D5A088C5
:1037A000C0B2FFF7DDFF2388144A19061AD5144B5F
:1037B000997889B1D9781348415C91809A78013A17
:1037C000D2B29A70DA780132D2B2DA70DA78C82AD4
:1037D00008D10022DA7005E0938923F080031B04EE
:1037E0001B0C9381054A13885B0605D5138823F0CB
:1037F00040031B041B0C138010BD00BF00380140A8
:10380000B10500209406002010B504460AE00D48DA
:103810008021FFF774FC0028F9D014F8011B094837
:10382000FFF769FC2378002BF1D106488021FFF7D0
:1038300066FC0028F9D003480A21BDE81040FFF7D4
:103840005ABC00BF0038014082B0064B8DF807001B
:103850001A885206FCD59DF80720024B9A8002B0C8
:10386000704700BF00380140064B1A4605E0198832
:103870004906FCD510F8011B918001780029F6D18A
:10388000704700BF0038014037B501900C460198E1
:1038900012B9FFF73BFC02E01146FFF771FC054649
:1038A0002046FFF7E1FF2846FFF7DEFF0A2003B0BE
:1038B000BDE83040FFF7C8BF000000000000000076
:1038C00000000000000000000000000000000000F8
:1038D00044656661756C7456616C75657346726F8C
:1038E0006D454570726F6D4F724E6F7441667465B1
:1038F000724275726E696E67203D004F7074696F19
:103900006E31203D0042617474657279436170616B
:10391000636974794469736368617267655072653D
:1039200076696F757356616C7565203D004C6F77D5
:10393000566F6C74616765203D004D6178566F6C01
:1039400074616765203D005377696E675F436872F5
:10395000675F74696D65203D005377696E675F44EA
:10396000436872675F74696D65203D0042617474DD
:1039700065727943617061636974794469736368DE
:103980006172676543757272656E74203D004361B4
:103990006C6962726174696F6E3056616C756546F0
:1039A0006F7243757272656E74203D0043616C697D
:1039B00062726174696F6E3056616C7565466F72C4
:1039C00043757272656E7431203D0043616C6962AB
:1039D000726174696F6E56616C7565466F7243757E
:1039E0007272656E74203D0043616C69627261742D
:1039F000696F6E56616C7565466F7243757272655C
:103A00006E7431203D0043616C6962726174696F4C
:103A10006E56616C7565466F72566F6C7461676542
:103A2000203D0043616C6962726174696F6E56611A
:103A30006C7565466F72566F6C7461676531203DB9
:103A40000043616C6962726174696F6E56616C7576
:103A500065466F72566F6C7461676532203D004336
:103A600068617267654164617074203D00526573DE
:103A7000697374616E6365436F6D70203D00000073
:103A8000B8380008B8380008B83800089042000874
:103A90000000000000000000202020202020202026
:103AA000202020202020202000000000B83800081E
:103AB000B8380008B8380008644200080000000068
:103AC0000000000020202020202020202020202076
:103AD0002020202000000000B8380008B838000876
:103AE000B83800083842000800000000000000005C
:103AF00020202020202020202020202020202020C6
:103B000000000000B8380008B8380008B8380008CD
:103B10000C420008000000000000000020202020CF
:103B20002020202020202020202020200000000015
:103B3000B8380008B8380008B8380008E041000874
:103B40000000000000000000202020202020202075
:103B5000202020202020202000000000B83800086D
:103B6000B8380008B8380008B44100080000000068
:103B700000000000202020202020202020202020C5
:103B80002020202000000000B8380008B8380008C5
:103B9000B83800088841000800000000000000005C
:103BA0002020202020202020202020202020202015
:103BB00000000000B8380008B8380008B83800081D
:103BC0005C410008000000000000000020202020D0
:103BD0002020202020202020202020200000000065
:103BE000B8380008B8380008B8380008A43F000802
:103BF000000000005B0A0008202020202020202058
:103C0000202020202020202000000000B8380008BC
:103C1000B8380008B8380008D03F0008000000009D
:103C20005B0A0008202020202020202020202020A7
:103C30002020202000000000B8380008B838000814
:103C4000B83800084C3F0008000000005B0A00087C
:103C50002020202020202020202020202020202064
:103C600000000000B8380008B8380008B83800086C
:103C7000783F0008000000005B0A00082020202098
:103C800020202020202020202020202000000000B4
:103C9000B8380008B8380008B8380008C83E00082E
:103CA000000000005B0A000800000000B8380008AF
:103CB000B8380008B8380008F43E000800000000DA
:103CC0005B0A000820202020202020202020202007
:103CD0002020202000000000B8380008B838000874
:103CE000B8380008203F0008000000005B0A000808
:103CF00020202020202020202020202020202020C4
:103D000000000000B8380008B8380008B8380008CB
:103D10009C3E0008000000005B0A00080000000054
:103D2000B8380008B8380008B8380008703E0008F5
:103D3000000000000000000000000000B83800088B
:103D4000B8380008B8380008044100080000000036
:103D50005B0A000820202020202020202020202076
:103D60002020202000000000B8380008B8380008E3
:103D7000B8380008D8400008000000005B0A0008BE
:103D80002020202020202020202020202020202033
:103D900000000000B8380008B8380008B83800083B
:103DA000AC400008000000005B0A00082020202032
:103DB0002020202020202020202020200000000083
:103DC000B8380008B8380008B83800088040000843
:103DD000000000005B0A0008202020202020202076
:103DE000202020202020202000000000B8380008DB
:103DF000B8380008B8380008544000080000000037
:103E00005B0A0008202020202020202020202020C5
:103E10002020202000000000B8380008B838000832
:103E2000B838000828400008000000005B0A0008BD
:103E30002020202020202020202020202020202082
:103E400000000000D03F0008703E0008B8380008AD
:103E50003041000800000000000000004F4B2074BB
:103E60006F20657869742020202020200000000049
:103E7000443E00089C3E0008B8380008203D000879
:103E800000000000000000004261636B20746F209E
:103E9000466163746F72792000000000703E000874
:103EA000C83E0008B8380008043D000800000000C3
:103EB0000000000052657369737420636F6D702099
:103EC00035563141000000009C3E0008F43E0008D9
:103ED000B8380008903C0008000000000000000016
:103EE000566F6C7461676520496E20202020202069
:103EF00000000000C83E0008203F0008B838000855
:103F0000AC3C00080000000000000000566F6C741C
:103F1000616765204F75742020202020000000007C
:103F2000F43E00084C3F0008B8380008D83C0008B0
:103F30000000000000000000566F6C74616765208F
:103F4000505320202020202000000000203F0008A7
:103F5000783F0008B8380008383C0008000000002E
:103F60000000000043555252454E54204C6F61648E
:103F700020202020000000004C3F0008A43F000843
:103F8000B8380008643C0008000000000000000091
:103F900043555252454E54204F7574202020202006
:103FA00000000000783F0008D03F0008B838000843
:103FB000E03B0008000000000000000043555252A2
:103FC000454E54204C6F616420746F300000000037
:103FD000A43F0008443E0008B83800080C3C000824
:103FE000000000000000000043555252454E54208E
:103FF0004F757420746F20300000000004410008E9
:1040000028400008B8380008BC4200080000000042
:10401000000000004F4B20746F20657869742020E9
:104020002020202000000000FC3F00085440000831
:10403000B8380008183E000800000000000000002A
:10404000436861726765206164646170742C202527
:10405000000000002840000880400008B838000830
:10406000EC3D0008000000000000000053776E6780
:10407000446973436872672054696D6500000000ED
:1040800054400008AC400008B8380008C03D0008A3
:1040900000000000000000005377696E672043684D
:1040A0006172672054696D6500000000804000085F
:1040B000D8400008B8380008943D0008000000000F
:1040C000000000004D617820566F6C7461676520B8
:1040D0002020202000000000AC400008044100081F
:1040E000B8380008683D000800000000000000002B
:1040F0004C6F7720566F6C746167652020202020FC
:1041000000000000D8400008FC3F0008B838000854
:104110003C3D0008000000000000000043686172A0
:1041200067652074696D652C206820200000000000
:10413000BC4200085C410008B8380008D03F0008C5
:10414000000000000000000043414C49425241542D
:10415000494F4E2020202020000000003041000860
:1041600088410008B8380008B43B0008000000008F
:1041700000000000444941474E4F5354494320201A
:1041800020202020000000005C410008B44100080D
:10419000B8380008883B000800000000000000005C
:1041A0005377696E672020202020202020202020A7
:1041B0000000000088410008E0410008B83800080D
:1041C0005C3B0008000000000000000054726169C0
:1041D0006E696E6720202020202020200000000033
:1041E000B44100080C420008B8380008303B000811
:1041F00000000000000000004469734368617267BA
:10420000652020202020202000000000E041000840
:1042100038420008B8380008043B000800000000DD
:10422000000000004368617267652061646461702A
:1042300074202020000000000C42000864420008A6
:10424000B8380008D83A000800000000000000005C
:104250004368617267652043432043562020202035
:10426000000000003842000890420008B8380008FA
:10427000AC3A000800000000000000004C6F6164D0
:1042800020202020202020202020202000000000AE
:1042900064420008BC420008B8380008803A0008B0
:1042A0000000000000000000506F776572537570C9
:1042B000706C79202020202000000000904200082F
:1042C00030410008B8380008044100080000000030
:1042D0000000000053657474696E6773202020200D
:1042E00020202020000000006D41203E3E2073650C
:1042F00074203020202000466163746F72792D7025
:1043000072657373203E3E00496E2050726F636386
:10431000657373202E2E2E2E00466163746F7279A2
:1043200020617265204F4B202000454570726F6DF3
:104330002072656164204641494C006820202000BD
:104340005620202000207365632E20202000252089
:104350000030006D5620006D4F6D2020202000564B
:104360002020006D412020006D4120004F46462056
:104370002020004F4E2020200053656C6563743A66
:104380000055206F66663A20006D412020202020D5
:1043900020004F66665768656E2056623C005020CC
:1043A000006D41682020202020004E20006D4148F3
:1043B0002020202020006D4120202020006D412061
:1043C000202020200068200056202020202000737C
:1043D00020202000547261696E696E6720496E6901
:1043E000742000432000543A0068204D6178563A0A
:1043F000006D4148202020200055696E3D00205569
:10440000633D005570732000556F7574200049702E
:10441000732000496C6F61642000523D006D4F6D48
:10442000202020202020202020202020202020208C
:1044300020004F6C6420433D006D41682020202007
:1044400020202020202000454570726F6D2052658D
:104450006164204641494C00454570726F6D20777C
:10446000726974652000466163746F7279454570A6
:10447000726F6D5772697465207772697465200078
:10448000526561642066726F6D20454570726F6D74
:10449000202D204641494C200052656164206672FF
:1044A0006F6D20454570726F6D202D20535543432D
:0444B000455353001D
:1044B400B83800080000000000F001080000000007
:1044C40004F001080000000008F0010800000000EA
:1044D4000CF001080000000010F0010800000000CA
:1044E40014F001080000000018F0010800000000AA
:1044F4001CF001080000000020F00108000000008A
:1045040024F001080000000028F001080000000069
:104514002CF001080000000030F001080000000049
:1045240034F001080000000038F001080000000029
:104534003CF001080000000040F001080000000009
:1045440044F001080100000000F00108010000002F
:1045540004F001080F00000008F00108000000004A
:104564000CF001081A04000010F00108AA0500006C
:1045740014F001080A00000018F001080A00000005
:104584001CF001080000000020F0010800000000F9
:1045940024F001080000000028F001089B0000003E
:1045A4002CF001089B00000030F0010833050000E6
:1045B40034F001083305000038F001083305000029
:1045C4003CF001080A00000040F0010883000000EC
:1045D40044F001084103423B3F455D337B404B06B9
:1045E4004D484F5C50435460245805075B5F036992
:1045F40004020000D601000001505320333056203D
:1046040033412076312E353400010000B4020020FD
:10461400000000000C020020040400200000000040
:10462400BC02002054050020000000000C040020FF
:104634000000000001020304010203040607080944
:08464400020406080100000059
:0400000508000000EF
:00000001FF
