:020000040800F2
:10000000E00D002085020008CD020008CD020008A6
:10001000CD020008CD020008CD020008000000005B
:10002000000000000000000000000000CD020008F9
:10003000CD02000800000000CD020008CD0200083B
:10004000CD020008CD020008CD020008CD02000854
:10005000CD020008CD020008CD020008CD02000844
:10006000CD020008CD020008CD020008CD02000834
:10007000CD020008CD020008CD020008CD02000824
:10008000CD020008CD020008CD02000800000000EB
:10009000000000000000000000000000CD02000889
:1000A000CD02000871150008CD020008CD0200083D
:1000B000CD0200082D35000800000000CD02000828
:1000C000CD0200080000000000000000CD02000882
:1000D00000000000ED4B0008CD0200080000000009
:1000E000CD020008CD020008CD020008000000008B
:1000F0000000000000000000000000000000000000
:1001000000000000000000000000000000000000EF
:100110000000000000000000CD0200085D1C000887
:100120005FF808F1014B1868704700BF000000201D
:10013000084B10B598420BD050B1074B074C1B68C9
:1001400020600BB11830984723681B6903B19847AA
:1001500010BD00BF944D0008700200200000002078
:10016000024B1860024B1868FFF7E2BF70020020D4
:100170000000002008B5054B054A1B68934203D0D8
:1001800013B15B6903B1984708BD00BF00000020B0
:10019000944D0008224A038890429BB212D002F587
:1001A000006290420ED0B0F1804F0BD0A2F5983291
:1001B000904207D002F58062904203D002F580623F
:1001C000904203D14A8823F070031343154A9042AA
:1001D00008D002F58062904204D023F44073CA88AC
:1001E0009BB2134303808B8883850B8803850C4B5C
:1001F00098420FD003F5006398420BD003F540639B
:10020000984207D003F58063984203D003F58063DA
:10021000984201D10B7A038601238382704700BF85
:10022000002C0140001000404FF6FF738380002334
:100230000380C380438003727047038819B19BB267
:1002400043F0010303E023F001031B041B0C0380B4
:10025000704783899BB20AB1194301E023EA010187
:1002600081817047038A828911EA030092B203D028
:1002700011420CBF002001207047C94389B201829E
:100280007047000008B50C4A0C4B0D4903E052F8CA
:10029000040B43F8040B8B42F9D30A480A494FF088
:1002A00000028842B8BF40F8042BFADB00F018FACD
:1002B000BDE8084002F07EBDFC60000800000020A0
:1002C0007002002070020020E0090020FEE700001C
:1002D0002DE9F843564D0646286803F0C3FC2B6809
:1002E00011210024594304E00A19AA18013413719A
:1002F000E4B2035D4E4A002BF6D113681121594335
:10030000081910183A25057104E00F2C09D80D19A9
:100310005519287116F8010B0134E4B20028F4D104
:100320000DE0112202FB034241498A18002111719C
:1003300005E01819081801340271E4B203E0112233
:100340003B49534320220F2C394DF2D9002220463D
:10035000384904F0C5FC2B68112202FB0344013329
:100360002A190024172B14712B6057D90A26A0468E
:100370002F46204603F076FC4FF0110E00230EFBB3
:1003800004FE05E00EEB0301691801330A71DBB2CC
:10039000C25C1121002AF5D101FB04F27143D0188F
:1003A00038184FF03A0E013380F804E0DBB294467F
:1003B0005FFA84FE681810E0BEF1090F05D901EB61
:1003C0000309A94499F8049003E000EB030999F8A4
:1003D0000590013382F80490DBB20CEB0302AA18FB
:1003E00092F80490B9F1000FE6D1013B1121DBB284
:1003F0006143202204E0C818281801330271DBB2DF
:100400000F2BF8D9112202FB04330134FB180136FB
:100410000E2C83F80480ACD1054B1C6003F048FF20
:10042000034B054918680022BDE8F84304F058BCA6
:100430009C060020AC4D0008B14D00082DE9F047A6
:10044000554F054638680E4603F00CFC3B681121F9
:100450000024594304E00A19BA1801341371E4B2B4
:10046000035D4D4A002BF6D1136811215943081939
:100470001018067104E00F2C09D80F19D71938711C
:1004800015F8010B0134E4B20028F4D10DE011227B
:1004900002FB034240498A180021117105E0181936
:1004A000081801340271E4B203E011223A495343BF
:1004B00020220F2C384DF2D900222046374904F073
:1004C0000FFC2B68112202FB034401332A1900247C
:1004D000172B14712B6054D90A27A146A846204631
:1004E00003F0C0FB4FF0110E00230EFB04FE05E0ED
:1004F0000EEB0301691801330A71DBB2C25C1121F2
:10050000002AF5D101FB04F27943D01840440133AD
:100510000671DBB294465FFA84FE681810E0BEF103
:10052000090F05D901EB030AAA449AF804A003E0D5
:1005300000EB030A9AF805A0013382F804A0DBB2AD
:100540000CEB0302AA1892F804A0BAF1000FE6D14E
:10055000013B1121DBB26143202204E0C8182818B6
:1005600001330271DBB20F2BF8D9112202FB0433E5
:100570000134434401370E2C83F80490AFD1064B6D
:100580001C6003F095FE044B054918680022BDE885
:10059000F04704F0A5BB00BF9C060020AC4D00084E
:1005A000B14D000810B5384C00222068374904F0DE
:1005B00097FBA0680022364904F092FB20690022D4
:1005C000344904F08DFBA0690022334904F088FB14
:1005D000206A0022314904F083FBA06A00223049DE
:1005E00004F07EFB206B00222E4904F079FBA06B07
:1005F00000222D4904F074FB206C00222B4904F0EA
:100600006FFBA06C00222A4904F06AFB206D0022D7
:10061000284904F065FBA06D0022274904F060FB27
:10062000206E0022254904F05BFBA06E00222449C5
:1006300004F056FB206F0022224904F051FBD4F84D
:1006400088000022204904F04BFBA06F1F490022C4
:1006500004F046FBD4F8800000221D4904F040FB62
:10066000D4F8900000221B4904F03AFBD4F898001B
:100670000022194904F034FBD4F8A00017490022E5
:10068000BDE8104004F02CBB04000020B54D00086C
:10069000C84D0008E64D0008054E0008224E00082F
:1006A000404E00085D4E00087B4E0008994E000841
:1006B000B74E0008CF4E0008E34E0008FC4E00087D
:1006C000094F0008164F0008234F0008314F00085B
:1006D000434F0008564F0008724F00089A4F000819
:1006E000314B82B01A6842F001021A6059682F4AF1
:1006F0000A405A601A6822F0847222F480321A602A
:100700001A6822F480221A605A6822F4FE025A60A3
:100710004FF41F029A600022DA62009201921A6876
:1007200042F480321A601A6802F400320192009A90
:1007300001320092019A1AB9009AB2F5A06FF2D173
:10074000194B1B6813F4003318BF01230193019B5D
:10075000012B23D1144B5A685A605A685A605A6860
:100760005A605A6822F47C125A605A6842F498120D
:100770005A601A6842F080721A6019680A4A890140
:10078000FBD5536823F003035360536843F002031F
:100790005360536803F00C03082BFAD1044B4FF05D
:1007A00000629A6002B07047001002400000FFF83B
:1007B00000ED00E084B0ADF80600BDF806304FF45F
:1007C000FA629BB2534301E0039B013B0393039BFB
:1007D000002BF9D104B0704784B0ADF80600BDF825
:1007E00006309BB25B0001E0039B013B0393039B3C
:1007F000002BF9D104B0704710B5074C4FF480437B
:1008000023610220FFF7E8FF4FF0804302202361BD
:10081000BDE81040FFF7E0BF000C014070B50F4C81
:100820004FF07C454FF4805625612661FFF7E4FFC9
:100830000120FFF7BFFF25612661FFF7DDFF0120E3
:10084000FFF7B8FF4FF4806325612361FFF7D4FF02
:100850000120BDE87040FFF7ADBF00BF000C0140B4
:10086000254B4FF07C4270B504460D461A6111B11C
:100870004FF400421A61E20644BF4FF400521A617D
:100880001D4B14F0200F1CBF4FF480521A616606F6
:1008900044BF4FF400621A61174E14F0800F1CBF62
:1008A0004FF480633361FFF7A7FF4FF07053E00709
:1008B000336103D5104B4FF400521A61A10703D5E1
:1008C0000D4B4FF480521A61620703D50A4B4FF467
:1008D00000621A61230703D5074B4FF480621A6147
:1008E000FFF78AFF0220FFF765FF1DB1024B4FF0B3
:1008F00000421A6170BD00BF000C0140034610B9F0
:10090000082019460BE021B90AB90C2003E00D209C
:1009100005E012B90E20114601E00F200021FFF77B
:100920009FBF01200021FFF79BBF08B56420FFF7A0
:1009300041FFFFF773FF012001460022FFF7DEFFB2
:10094000BDE80840FFF7EDBFC0B20121FFF788BF47
:10095000054B1870597011B940F0800002E040F06A
:10096000C0000021FFF77CBF7A0200202DE9F84388
:1009700089460646DFF86C800127194C29E0B22829
:1009800001D1492011E0AF2801D103200DE0DE287C
:1009900002D10120014609E0AA2801D1022004E089
:1009A000BF2884BF404410F8C00C0121FFF758FF56
:1009B000237865780133DBB2237055B9082B08D151
:1009C000B9F1020F05D128460121FFF7C1FF2570BB
:1009D000677016F8010B0028D1D1BDE8F88300BF7D
:1009E0007A020020FC01002070B506460D46002466
:1009F0000CE00121FFF734FF012D06D1E3B2072BF4
:100A000003D100202946FFF7A3FF0134305D002801
:100A1000EFD170BDC00040F0400038B5C0B20D4607
:100A20000021FFF71DFF0024285D01210134FFF79D
:100A300017FF082CF8D180200021BDE83840FFF7CF
:100A40000FBF2DE9F3410025042415271F264FF081
:100A50000E08284669468DF800408DF803408DF851
:100A600005408DF801708DF802808DF804508DF8E6
:100A700006608DF80760FFF7CDFF012069468DF80D
:100A800002408DF806408DF800708DF801808DF8D9
:100A900003508DF804508DF805508DF80760FFF76E
:100AA000B9FF022069468DF801408DF805408DF8A8
:100AB00000508DF802808DF803708DF804508DF889
:100AC00006608DF80760FFF7A5FF032069468DF8E3
:100AD00000408DF803408DF806408DF801808DF8B8
:100AE00002708DF804508DF805508DF80760FFF7FF
:100AF00091FF204669468DF800408DF803408DF83F
:100B000004408DF807408DF801808DF802708DF853
:100B100005708DF80680FFF77DFF02238DF8003009
:100B20000A238DF803308DF804301C2307248DF838
:100B300005308DF806300520082369468DF807300A
:100B40008DF801408DF80240FFF764FF0F238DF808
:100B5000003005238DF801308DF802308DF8033018
:100B60008DF804300620092369468DF806308DF88B
:100B700005708DF80750FFF74DFF11238DF80030F9
:100B80008DF801308DF802302046012369468DF83A
:100B900003608DF804308DF805308DF806308DF83F
:100BA0000750FFF737FFBDE8FC810221FFF7DEBEEB
:100BB00010B5044608461146FFF7CAFE204602213A
:100BC000BDE81040FFF7D2BE08B5364B5A6822F494
:100BD00040725A605A6842F400725A605A6822F4AD
:100BE00040625A605A6842F480625A605A6822F43D
:100BF00040525A605A6842F400525A605A6822F4CD
:100C000040425A605A6842F480425A605A6822F45C
:100C100040325A605A6842F400325A605A6822F4EC
:100C200040225A605A6842F480225A605A6822F47C
:100C300040125A605A6842F400125A605A6822F40C
:100C400040025A605A6842F480025A605A6822F0A0
:100C500040725A605A6842F000725A605A6822F034
:100C600040625A605A6842F080625A605A6822F0C4
:100C700040525A605A6842F000525A605A6822F054
:100C800040425A605A6842F080425A60FFF74DFE77
:100C9000FFF747FE002101200A46BDE80840FFF7A4
:100CA0002DBE00BF000C0140CB782DE9F04303F0CE
:100CB0000F02DB0648BF8B780E8848BF1A4316F038
:100CC000FF0F1FD0046800234FF001084FF00F0CF6
:100CD00008FA03F707EA0605BD420FD19F000CFA98
:100CE00007F902FA07F724EA09043C43CF78282FD2
:100CF00001D1456102E0482F08BF05610133082B8F
:100D0000E6D104600E88FF2E21D9446800234FF0FD
:100D100001084FF00F0C03F1080708FA07F707EA7C
:100D20000605BD420FD19F000CFA07F902FA07F73A
:100D300024EA09043C43CF78282F01D1456102E021
:100D4000482F08BF05610133082BE4D14460BDE89A
:100D5000F083836819420CBF002001207047000017
:100D6000014B00221A8070477C02002003F062BE13
:100D700008B503F0A5FE0248BDE80840FFF7A8BA91
:100D80002C59000818B100210A46FFF711BF70471F
:100D900010B5134C002290B06068124903F0A0FF18
:100DA000626849F6AF239A4217D90BA9A06803F0ED
:100DB0005EF960684FF46163B0FBF3F001A902F0E3
:100DC0008BFF09490BAA06AB03F0BDF806A8012169
:100DD000FFF734FB06A803F043FF10B010BD00BFBF
:100DE0007C020020385900084059000810B50F4C0B
:100DF00049F6AF23E26890B09A4214D90BA9206952
:100E000003F035F9E0684FF46163B0FBF3F001A93A
:100E100002F062FF06490BAA06AB03F094F806A89D
:100E20000221FFF70BFB10B010BD00BF7C020020B9
:100E30004059000884B0ADF80600BDF806304FF404
:100E400016629BB2534301E0039B013B0393039B58
:100E5000002BF9D104B0704708B507200121FFF736
:100E600077FDFF200121FFF7FBFC03F0E3FD044BBE
:100E7000C8209A68034B1A60BDE80840FFF7DABF44
:100E8000540000204C08002010B53B4B93F914008F
:100E900060B90146FFF75CFD3848FFF786FE384B26
:100EA00040F224429A6102F5C8721A62324B93F9F9
:100EB0001430012B0DD100200146FFF749FD3148C8
:100EC000FFF773FE2E4B4FF4B4729A614FF4D27257
:100ED0001A62294B93F91430022B0DD100200146E0
:100EE000FFF736FD2848FFF760FE254B4FF48C7264
:100EF0009A614FF4B9721A621F4B93F91430032BA5
:100F00000DD100200146FFF723FD2048FFF74DFEDD
:100F10001B4B40F224429A6102F5C8721A62164CC9
:100F200094F91430042B06D100200146FFF710FD80
:100F30001748FFF73AFE94F91430052B0CD1002026
:100F40000146FFF705FD1348FFF72FFE0C4B642207
:100F50009A614FF4FA621A62074B93F91420062A39
:100F600001D100221A7503F065FD4FF41670BDE83B
:100F70001040FFF75FBF00BF7C020020445900080B
:100F80005400002055590008665900087759000898
:100F9000885900089959000810B596B000230446F6
:100FA000084610A98DF854208DF8553003F05FF8ED
:100FB0004FF4616001A9B4FBF0F002F08DFE10AABD
:100FC00006AB074902F0BFFF06A915A80BAA02F05D
:100FD000A1FF0BA80421FFF731FA16B010BD00BF26
:100FE00040590008022838B51E4B09D11A881E49FD
:100FF000013292B209681A8012B28A4213D310E009
:10100000012810D11A88013A92B21A80120403D52D
:10101000154A1268013A1A80124BB3F90020002ACF
:1010200001DA00221A8000200F4C0146FFF790FCE5
:101030000C4D234653F8040BB5F900200138801AF3
:10104000112202FB0030FFF7B0FDB5F900000022CD
:10105000064903F045FE206805490022BDE83840F6
:1010600003F03EBE7C0200209C060020AA59000826
:10107000B759000810B5044600200146FFF768FC88
:101080000A4B188800B202F0EDFDFFF78EFD08480C
:10109000FFF78BFD022C08D1064B1A88064B12B2C3
:1010A0009A60BDE8104003F00BBD10BD5E06002045
:1010B000CA590008740200200400002010B504463C
:1010C00000200146FFF744FC0A4B188800B202F0EA
:1010D000C9FDFFF76AFD0848FFF767FD022C08D13C
:1010E000064B1A88064B12B21A61BDE8104003F095
:1010F000E7BC10BD5E060020CA5900087602002039
:101100000400002010B5044600200146FFF720FC33
:101110001648FFF74AFD022C27D103F0C9FB03F064
:101120008DFB044600200146FFF712FC1048FFF734
:101130003CFD4FF4FA60FFF77DFE00200146FFF70B
:1011400007FC012C08D10B48FFF72FFD0A48FFF7D9
:10115000BFF84FF4FA6004E00848FFF726FD4FF4AB
:101160007A60BDE81040FFF765BE10BDD959000890
:10117000EA590008FB5900080C5A00081B5A0008DD
:10118000022810B50E4C02D12369013303E0012877
:1011900002D12369013B236100200146FFF7D8FB00
:1011A000206902F05FFDFFF700FD0648FFF7FDFC38
:1011B00023694FF461625A43034B1A6010BD00BFAC
:1011C000540000202C5A000838080020022810B5CE
:1011D000324B07D11A7D0132D2B2072A1A750BD1D0
:1011E000002208E0012807D11A7D013AD2B2110687
:1011F0001A7501D506221A75284C94F9140028B9DD
:101200000146FFF7A5FB2648FFF7CFFC94F9143001
:10121000012B06D100200146FFF79AFB2148FFF77A
:10122000C4FC1E4C94F91430022B06D10020014658
:10123000FFF78EFB1C48FFF7B8FC94F91430032B22
:1012400006D100200146FFF783FB1848FFF7ADFCED
:10125000124C94F91430042B06D100200146FFF7FC
:1012600077FB1348FFF7A1FC94F91430052B06D146
:1012700000200146FFF76CFB0E48FFF796FC074B7A
:1012800093F91430062B08D100200146FFF760FBCC
:101290000948BDE81040FFF788BC10BD7C02002063
:1012A000315A0008425A0008545A0008655A00088A
:1012B00088590008755A0008855A0008022810B598
:1012C0000D4C02D1A3690A3303E0012802D1A369BE
:1012D0000A3BA36100200146FFF73AFBA0690A23FD
:1012E000B0FBF3F0012102F031FDFFF75EFC034893
:1012F000BDE81040FFF759BC5400002061590008B8
:10130000022810B50D4C02D1236A0A3303E00128EC
:1013100002D1236A0A3B236200200146FFF718FB33
:10132000206A0A23B0FBF3F0012102F00FFDFFF762
:101330003CFC0348BDE81040FFF737BC54000020D8
:1013400061590008022810B50B4C02D1A36A013381
:1013500003E0012802D1A36A013BA36200200146F9
:10136000FFF7F6FAA06A02F07DFCFFF71EFC0348C7
:10137000BDE81040FFF719BC54000020955A000842
:10138000022810B50B4C02D1236B013303E0012876
:1013900002D1236B013B236300200146FFF7D8FAFB
:1013A000206B02F05FFCFFF700FC0348BDE8104033
:1013B000FFF7FBBB54000020955A0008022838B5FF
:1013C0001A4C02D1A36B013303E0012802D1A36BB5
:1013D000013BA36300200146FFF7BAFAA06B02F0BD
:1013E00041FCFFF7E2FB1248FFF7DFFB206A0A250A
:1013F0000121B0FBF5F002F0A9FCFFF7D6FB0D4888
:10140000FFF7D3FB236AA06B64225843B0FBF2F0D2
:101410001B1AB3FBF5F0012102F098FCFFF7C5FBA6
:101420000548BDE83840FFF7C0BB00BF54000020AE
:101430009E5A0008A15A00086159000808B5084BD7
:101440001A68084B9B689A4209D107200121FFF7CF
:101450007FFAFF200121BDE80840FFF701BA08BD6F
:101460004C0800205400002010B50446002001461E
:10147000FFF76EFA022C194B06D19A680132082A3E
:101480009A6009D1012206E0012C05D19A68013A3F
:101490009A600AB907229A60104A9368013B062BAA
:1014A00018D8DFE803F00406080A0C0E10000C48F8
:1014B0000AE00C4808E00C4806E00C4804E00C4840
:1014C00002E00C4800E00C48FFF76FFBBDE810405D
:1014D000FFF7B4BF0123936010BD00BF540000208C
:1014E000A45A0008B55A0008C65A0008D75A00087E
:1014F000E85A0008F95A00080A5B000810B51548B8
:101500001021FFF726FC58B112482021FFF721FCDB
:1015100040B110484021FFF71CFCB0B9012202E0A5
:10152000032200E002220C4B40F2DC50D98A0CB2BC
:10153000844203DD40F2B451D98204E0013189B222
:101540001429D98204D11A7610BD034B0022DA8205
:1015500010BD00BF000C01407C020020034B0022A4
:10156000187E00B1DA611A76704700BF7C02002055
:1015700038B520480121FEF775FE002838D001213A
:101580001C48FEF77AFE1C4B1A8812B2012A07DCAF
:101590001A4CE568188800B202F0ADFC4519E56008
:1015A000154B1A8812B2022A07DD144C6568188898
:1015B00000B202F0A0FC45196560104B93F82020A2
:1015C000012A02D19A6801329A6093F821300B4ABD
:1015D000012B02D1136901331361084B93F82220C8
:1015E000012A02D15A6A01325A629A6A01329A6217
:1015F00038BD00BF004401405E0600207C02002090
:10160000034B00225A62012283F82220704700BF58
:101610007C020020034B00225A62012283F8222020
:10162000704700BF7C02002038B504464FF461606B
:10163000B4FBF0F002F016FB054602F062FC012854
:1016400003D812480121FFF7CFF901212846FFF7FF
:10165000CBF901210E48FFF7C7F93C23B4FBF3F4A3
:10166000B4FBF3F003FB104002F0FCFA044602F076
:1016700048FC012803D805480121FFF7B5F92046A9
:101680000121BDE83840FFF7AFB900BF1B5B000880
:101690005F5C0008074B4FF480321A614FF0807294
:1016A000A3F580631A61044B002283F82C2083F891
:1016B0002D207047000C01407C020020064A0123C7
:1016C0001361064A82F82C3082F82D30044B4FF417
:1016D00080721A61704700BF000C01407C0200203C
:1016E0000008014038B52D4B0122054683F82E2015
:1016F000FFF7E4FF022D2A4C02D12388013303E0D7
:10170000012D02D12388013B238000200146FFF7F1
:101710001FF90221208802F019FBFFF746FA214841
:10172000FFF743FA204B214A1888138880B21BB276
:10173000002B21881E4B01DC46220AE0401A11884A
:1017400002B222EAE27242F21070424309B292FB04
:10175000F1F2174C1A64206C02F084FAFFF725FAB4
:101760001448FFF722FA144B19880F4B89B21A88D4
:101770000E4B92B2188800B2002801DC0A230AE05E
:10178000891A1A880BB223EAE37342F210714B43B1
:1017900012B293FBF2F3A36438BD00BF7C020020B9
:1017A0001C020020A15A0008780200205E060020DA
:1017B000040000201D5B00085806002038B5174BB8
:1017C0000122054683F82E20FFF778FF022D144CE6
:1017D00002D1A36B013303E0012D02D1A36B013BC6
:1017E000A36300200146FFF7B3F8A06B02F03AFABA
:1017F000FFF7DBF90B48FFF7D8F900200121FFF7CD
:10180000A7F8094B0221188880B202F09FFAFFF76F
:10181000CCF90648BDE83840FFF7C7B97C02002084
:1018200004000020175B00085C060020285B00080D
:1018300038B5174B0122054683F82E20FFF73EFFEF
:10184000022D144C02D1236B013303E0012D02D190
:10185000236B013B236300200146FFF779F8206BDF
:1018600002F000FAFFF7A1F90B48FFF79EF90020FC
:101870000121FFF76DF8094B0221188880B202F0B0
:1018800065FAFFF792F90648BDE83840FFF78DB9D1
:101890007C02002004000020175B00086006002086
:1018A000285B000838B5174B0122054683F82E2027
:1018B000FFF704FF022D144C02D1A36A013303E0A9
:1018C000012D02D1A36A013BA36200200146FFF76C
:1018D0003FF8A06A02F0C6F9FFF767F90B48FFF777
:1018E00064F900200121FFF733F8094B0221188821
:1018F00080B202F02BFAFFF758F90648BDE83840ED
:10190000FFF753B97C02002004000020175B000899
:1019100058060020285B000838B5174B0122054601
:1019200083F82E20FFF7CAFE022D144C02D1A369C2
:10193000013303E0012D02D1A369013BA361002023
:101940000146FFF705F8A06902F08CF9FFF72DF9C1
:101950000B48FFF72AF901210020FEF7F9FF094B98
:10196000188800B202F07EF9FFF71FF90648BDE8BB
:101970003840FFF71AB900BF7C02002004000020A5
:10198000175B00085E0600202C5B000870B52D4D2B
:1019900006460124002085F82E400146FEF7D8FFB8
:1019A00095F82C50F5B9284B0221188880B202F026
:1019B000CDF9FFF7FAF82548FFF7F7F82946072091
:1019C000FEF7C6FF224B188800B202F04BF9FFF772
:1019D000ECF82048FFF7E9F805202146FEF7B8FFAC
:1019E0001D481DE01D4B0221188880B202F0AEF99F
:1019F000FFF7DBF81548FFF7D8F800210720FEF7BE
:101A0000A7FF134B188800B202F02CF9FFF7CDF8AE
:101A10001348FFF7CAF806202146FEF799FF114840
:101A2000FFF7C3F8022E0BD1064B93F82C301BB9ED
:101A3000BDE87040FFF742BEBDE87040FFF72ABE28
:101A400070BD00BF7C02002058060020285B000803
:101A50005E060020315B0008565B0008600600202F
:101A6000375B00083E5B0008064B02221A61064BFA
:101A7000012283F82C2083F82F20044B4FF40062BE
:101A80001A617047000C01407C02002000080140F0
:101A900010B50B4C94F93030022B10D0022384F88F
:101AA0003030FFF7F7FDFFF7DFFF002332206363DD
:101AB000FFF7C0F90348BDE8104003F0D1B810BDEE
:101AC0007C020020425B000808B5FFF7E3FDBDE89B
:101AD0000840FFF7C9BF000038B5174B0122054683
:101AE00083F82E20FFF7F0FF022D144C02D1236A59
:101AF000013303E0012D02D1236A013B2362002060
:101B00000146FEF725FF206A02F0ACF8FFF74DF81A
:101B10000B48FFF74AF801210020FEF719FF094B97
:101B2000188800B202F09EF8FFF73FF80648BDE8BB
:101B30003840FFF73AB800BF7C02002004000020C4
:101B4000175B00085E0600202C5B0008074B4FF473
:101B500000321A61064B002283F82C2083F82F20D4
:101B6000044B4FF000621A61704700BF000C014047
:101B70007C0200200008014008B5FFF7E7FFBDE840
:101B80000840FFF787BD00002C4B30B51B8891B093
:101B90009BB2B3F5FA6F2A4C4BD2FFF7EDFFA37857
:101BA000002B48D1274D0123A370EB68264C2361FD
:101BB00002F010FF02222069244903F091F8EA683C
:101BC00049F6AF239A4214D90BA9286902F04FFABB
:101BD00020694FF46163B0FBF3F001A902F07CF8D7
:101BE0001B490BAA06AB02F0AEF906A80221FEF7CC
:101BF00025FC124D0A23288801A980B2B0FBF3F01E
:101C0000012202F00DF906AA0146124802F082F9FB
:101C1000FEF75EFB322428880F4980B20222013C85
:101C200003F05EF8E4B20A20FFF704F9002CF2D1C9
:101C300001E00023A37011B030BD00BF5C0600209E
:101C40001C0200207C020020940000204C5B000855
:101C500040590008515B00085B5B000808B5094863
:101C60000121FEF7FFFA58B106480121FEF705FBF6
:101C7000FFF744FCFFF788FF034B5A6B01325A63AE
:101C800008BD00BF001400407C02002038B5844B22
:101C9000012193F83820054683F82E104AB983F8BD
:101CA000202083F8381083F8212083F83920DA6067
:101CB0001A617C4B7C491A88896992B2784B8A42B6
:101CC0005A8701D3002205E093F839200AB99A6AAD
:101CD000DA63012283F839209A6ADB6B704CD31ADD
:101CE000032B07D994F8393023B1FFF745FF0023C0
:101CF00084F82130022D6A4C0CD194F82C301BB999
:101D0000FFF7E2FE012302E0FFF736FF002384F82D
:101D100021300CE0012D0AD194F84030013BDBB2B8
:101D2000180684F8403002D5032384F840305C4C18
:101D300094F94000002835D10146FEF709FE594BC1
:101D40000221188880B202F001F8FEF72EFF5748F2
:101D5000FEF72BFF564B188800B201F083FFFEF709
:101D600024FF5448FEF721FF94F82C3013B90720C4
:101D7000012105E094F8413007200121052B03D80B
:101D8000FEF7E6FD022002E0FEF7E2FD032001215E
:101D9000FEF7DAFD424B93F841200A2A02D90022CD
:101DA00083F841203E4B93F94040012C13D1002091
:101DB0000146FEF7CDFD4048FEF7F7FE3A4B2146BF
:101DC00098690A23B0FBF3F001F0C0FFFEF7EDFEC7
:101DD0003A48FEF7EAFE324C94F94030022B1AD111
:101DE00000200146FEF7B4FD3548FEF7DEFE354B18
:101DF00098684FF46163B0FBF3F001F033FFFEF736
:101E0000D4FE3148FEF7D1FE03200121FEF7A0FDEC
:101E1000606CFFF709FC224C94F94050032D19D156
:101E200000200146FEF794FD2848FEF7BEFEE0685C
:101E30004FF46163B0FBF3F001F014FFFEF7B5FE61
:101E40002348FEF7B2FE28460121FEF781FD2069F6
:101E5000FFF7EAFB124C002294F838001D4902F00B
:101E60003FFF94F82E0000221B4902F039FF94F83E
:101E700020000022194902F033FFA068002218490F
:101E800002F02EFF94F821000022164902F028FFEC
:101E9000206915490022BDE8384002F021BF00BF8B
:101EA0007C0200206006002054000020A15A000897
:101EB0005E060020635B00086C5B00086159000847
:101EC000785B0008940000207B5B00083F5B000803
:101ED000845B00088D5B00089B5B0008B05B00081A
:101EE000C55B0008D55B0008ED5B000810B50B4C26
:101EF00094F93030012B10D0012384F83030FFF7F3
:101F000025FEFFF7DBFB002332206363FEF792FF21
:101F10000348BDE8104002F0A3BE10BD7C020020C3
:101F2000455B000870B5044600200146FEF710FD31
:101F30006F4B012293F8381083F82E201E4619B9F2
:101F400083F83820FFF75CFB726A6A4E684DB36A0B
:101F50009A4211D8FFF7CAFF674B1A88336A92B2C8
:101F60009A4209D96B6BB3F5C87F05D9FFF752FBCD
:101F70006A6AB36AD3186B625D4D5E4E6A6AB36A71
:101F80009A420DD9FFF784FD5B4B1A88B36992B270
:101F90009A4205D26B6BB3F5C87F01D9FFF73AFBC4
:101FA000544B6A6A196B9B6ACB189A4201D9FFF7A6
:101FB00031FB022C4E4B09D193F840200132D2B2B2
:101FC000032A83F840200ED100220AE0012C0AD116
:101FD00093F84020013AD2B2140683F8402002D58B
:101FE000022283F84020424D95F94040002C32D126
:101FF00020462146FEF7ACFC3F4B0221188880B2F8
:1020000001F0A4FEFEF7D1FD3C48FEF7CEFD3C4BAF
:10201000188800B201F026FEFEF7C7FD3948FEF72A
:10202000C4FD06200121FEF793FC05200121FEF7E7
:102030008BFC95F82D500720012D05D12946FEF780
:1020400087FC2046294604E00121FEF781FC02209E
:102050000121FEF779FC264B93F94040012C23D156
:102060000020244D0146FEF773FC286901F0FAFDBB
:10207000FEF79BFD2448FEF798FDA8690A26214635
:10208000B0FBF6F001F062FEFEF78FFD1B48FEF795
:102090008CFD286A2146B0FBF6F001F057FEFEF7F2
:1020A00084FD1A48FEF781FD114C94F94030022B53
:1020B0001DD100200F4D0146FEF74AFCA86A01F031
:1020C000D1FDFEF772FD1248FEF76FFD286B01F09F
:1020D000C9FDFEF76AFD0F48FEF767FD03200121E9
:1020E000FEF736FC2069BDE87040FFF79DBA70BD71
:1020F0007C0200205400002060060020A15A000845
:102100005E060020005C0008835F0008A3590008F9
:10211000755C0008085C000808B5FFF717FDBDE80E
:102120000840FFF7CBBA000070B5644B054693F842
:102130002E10A9B9012083F82E0083F8201083F80F
:1021400021109960196159645960D96083F82100A0
:10215000FFF7BAFC5A4B0222DA706420FEF76AFEDF
:10216000584B188800B201F0C6FE052840F3618183
:10217000554B1A88554B92B29B699A4222D2504BCA
:10218000DA78022A1ED14D4C002384F82130E16810
:102190004F4B994203D9E0682169FEF7FDFE2369A0
:1021A0004C4A636400232361E1680126E360916087
:1021B00084F82060FFF7B0FF4FF49670FEF73AFE08
:1021C0003F4BDE70404B1A88404B92B21B6A9A42DA
:1021D00003D93B4BDB78012B09D0384B9A683E4B37
:1021E0001B689A421ED9364BDB78012B1AD1334C2F
:1021F000002384F820306268354B9A4204D9606825
:102200000122A168FEF7C8FE0023A36063600123DA
:1022100084F82130FFF758FC6420FEF70BFE284BB2
:102220000222DA70022D254B09D193F840200132A9
:10223000D2B2052A83F840200ED100220AE0012DF7
:102240000AD193F84020013AD2B2150683F8402013
:1022500002D5042283F84020184D95F94040002C07
:1022600047D120462146FEF773FB174B0221188801
:1022700080B201F06BFDFEF798FC1848FEF795FC64
:10228000104B188800B201F0EDFCFEF78EFC1448EC
:10229000FEF78BFC06200121FEF75AFB04200121EA
:1022A000FEF752FB95F82D500720012D1AD1294633
:1022B000FEF74EFB2046294619E000BF7C020020B5
:1022C0001C0200205E060020600600205400002052
:1022D0004F8C05009400002038080020A15A000807
:1022E000005C00080121FEF733FB02200121FEF70C
:1022F0002BFB694B93F94040012C23D10020674D03
:102300000146FEF725FB286901F0ACFCFEF74DFC09
:102310006348FEF74AFCA8690A262146B0FBF6F09E
:1023200001F014FDFEF741FC5E48FEF73EFC286A12
:102330002146B0FBF6F001F009FDFEF736FC5A48E5
:10234000FEF733FC544C94F94050022D21D100206B
:102350000146FEF7FDFA28460121FEF7F5FA0021B5
:102360000120FEF7F5FA5148FEF71FFCE0684FF434
:102370006163B0FBF3F001F075FCFEF716FC4C480E
:10238000FEF713FC03200121FEF7E2FA2069FFF7B4
:102390004BF9414C94F94050032D22D100200146C5
:1023A000FEF7D6FA02200121FEF7CEFA0021012025
:1023B000FEF7CEFA3F48FEF7F8FB3F4B98684FF424
:1023C0006163B0FBF3F001F04DFCFEF7EEFB384823
:1023D000FEF7EBFB28460121FEF7BAFA606CFFF727
:1023E00023F92D4C94F94030042B29D100200146CB
:1023F000FEF7AEFA00200121FEF7A6FA0021012027
:10240000FEF7A6FA2D48FEF7D0FB60684FF4616333
:10241000B0FBF3F001F026FCFEF7C7FB2448FEF703
:10242000C4FB03200121FEF793FAA068FFF7FCF834
:1024300006E000200146FEF78BFA2148FEF7B5FBC7
:10244000154C002294F82E001E4902F049FC94F825
:10245000200000221C4902F043FCA06800221B4916
:1024600002F03EFC94F821000022194902F038FCE9
:1024700020690022174902F033FCE0680022164967
:1024800002F02EFC60681549002202F029FC64204D
:10249000BDE87040FEF7CEBC7C0200205400002056
:1024A000835F0008A15A0008A35900083F5B000899
:1024B000845B0008785B000894000020105C000832
:1024C000135C00089B5B0008B05B0008C55B00085C
:1024D000D55B0008ED5B0008245C0008465C000842
:1024E00038B59E4B012193F83820054683F82E100D
:1024F0003AB983F8202083F8381083F821205A60F5
:102500009A609A68964B954C1B689A4206D89549F2
:10251000954A0888136A80B2984203D9FFF72CFBCA
:1025200000230CE0926B64205A430988B2FBF0F25E
:1025300089B29B1A994204D2FFF7EEFD012384F879
:102540002030022D854C0CD194F82C301BB9FFF7AC
:10255000E3FD012302E0FFF70FFB002384F82030A6
:102560000CE0012D0AD194F84030013BDBB284F835
:1025700040301B0602D5032384F84030774C94F991
:102580004000002852D10146FEF7E2F994F82C30C1
:10259000A3B9764B0221188880B201F0D7FBFEF771
:1025A00004FB7348FEF701FB6E4B0221188880B2D2
:1025B00001F0CCFBFEF7F9FA6E4812E0694B0221FC
:1025C000188880B201F0C2FBFEF7EFFA6848FEF708
:1025D000ECFA694B188800B201F044FBFEF7E5FA0B
:1025E0006648FEF7E2FA5D4B93F82C402CB90720C1
:1025F0000121FEF7ADF9204608E093F841300720AD
:102600000121052B04D8FEF7A3F90020012103E0E6
:10261000FEF79EF901200146FEF796F94F4B93F81D
:1026200041200A2A02D9002283F841204B4B93F91A
:102630004040012C1BD1002001464B4DFEF788F98C
:102640004F48FEF7B2FA286901F00CFBFEF7ADFA2D
:102650004C48FEF7AAFA286A0A23B0FBF3F0214699
:1026600001F074FBFEF7A1FA4248FEF79EFA3B4BDD
:1026700093F94030022B29D13B4C00200146FEF754
:1026800067F9A06B01F0EEFAFEF78FFA3E48FEF70D
:102690008CFA206A0A250121B0FBF5F001F056FB07
:1026A000FEF783FA3248FEF780FA236AA06B6422B1
:1026B0005843B0FBF2F01B1AB3FBF5F0012101F017
:1026C00045FBFEF772FA2B48FEF76FFA234C94F99C
:1026D0004050032D19D100200146FEF739F92B484F
:1026E000FEF763FA60684FF46163B0FBF3F001F04A
:1026F000B9FAFEF75AFA2648FEF757FA284601219A
:10270000FEF726F9A068FEF78FFF144C6420FEF751
:1027100091FB94F8380000221E4902F0E1FA94F887
:102720002E0000221C4902F0DBFA94F8200000225F
:102730001A4902F0D5FAA0680022194902F0D0FA2D
:1027400094F821000022174902F0CAFA20691649BC
:102750000022BDE8384002F0C3BA00BF7C0200206E
:102760003808002060060020540000205806002091
:10277000A15A0008615900085E060020635B00084A
:102780005E5C0008615C00089E5A0008105C00084E
:10279000845B00088D5B00089B5B0008B05B000851
:1027A000C55B0008D55B0008ED5B000838B57E4BC3
:1027B000012193F83820054683F82E103AB983F8A2
:1027C000202083F8381083F821205A609A609A6894
:1027D000764B1B689A4206D8754B1A88754B92B295
:1027E0001B6A9A4205D9FFF7C7F96F4B002283F89D
:1027F0002020022D6C4C0CD194F82C301BB9FFF723
:102800008BFC012302E0FFF7B7F9002384F82030A6
:102810000CE0012D0AD194F84030013BDBB21A06DE
:1028200084F8403002D5022384F840305E4C94F99D
:102830004000002852D10146FEF78AF894F82C3067
:10284000A3B95D4B0221188880B201F07FFAFEF730
:10285000ACF95A48FEF7A9F9554B0221188880B205
:1028600001F074FAFEF7A1F9554812E0504B02212D
:10287000188880B201F06AFAFEF797F94F48FEF720
:1028800094F9504B188800B201F0ECF9FEF78DF97D
:102890004D48FEF78AF9444B93F82C402CB9072099
:1028A0000121FEF755F8204608E093F84130072053
:1028B0000121052B04D8FEF74BF80020012103E08D
:1028C000FEF746F801200146FEF73EF8364B93F836
:1028D00041200A2A02D9002283F84120324B93F981
:1028E0004040012C1BD100200146324DFEF730F84C
:1028F0003648FEF75AF9286901F0B4F9FEF755F9A0
:102900003348FEF752F9286A0A23B0FBF3F0214658
:1029100001F01CFAFEF749F92E48FEF746F9224C61
:1029200094F94030022B19D100200146FEF710F82F
:102930002948FEF73AF960684FF46163B0FBF3F0A1
:1029400001F090F9FEF731F92448FEF72EF9032043
:102950000121FDF7FDFFA068FEF766FE124C002284
:1029600094F838001E4902F0BBF994F82E000022BA
:102970001C4902F0B5F994F8200000221A4902F02F
:10298000AFF9A0680022194902F0AAF994F82100D1
:102990000022174902F0A4F9206916490022BDE877
:1029A000384002F09DB900BF7C02002038080020AA
:1029B000600600205400002058060020A15A00089C
:1029C000A35900085E060020005C00085E5C000859
:1029D000615C000861590008105C00087B5B00081E
:1029E0008D5B00089B5B0008B05B0008C55B0008BE
:1029F000D55B0008ED5B000808B5274B01220228D3
:102A000083F82E2007D193F82C3013B9FFF72CF858
:102A100001E0FFF79BF800200146FDF799FF1F4BEF
:102A20000221188880B201F091F9FEF7BEF81C4827
:102A3000FEF7BBF81B4B188800B201F013F9FEF744
:102A4000B4F81948FEF7B1F8134B93F82C2012B9DB
:102A50000620012105E093F8413006200121052BD5
:102A600007D8FDF775FF02200121FDF76DFF022059
:102A700006E0FDF76DFF03200121FDF765FF032050
:102A80000121FDF761FF044B93F841200A2A02D986
:102A9000002283F8412008BD7C020020600600204F
:102AA000A15A00085E060020375B0008034B93F82C
:102AB0002F300BB9FEF7D8BFFFF748B87C020020D3
:102AC000034B93F82D300BB9FEF7F8BDFEF7E2BDCE
:102AD0007C020020F0B59B4B0122022887B083F8CE
:102AE0002E200BD193F848200132D2B2082A83F865
:102AF000482017D1002283F8482013E0012811D183
:102B000093F84830023BDBB2012B02D8FFF7D8FF25
:102B100001E0FEF7BFFD8B4B93F94830042B01D148
:102B2000FFF7C4FF874B93F94800F0B90146FDF762
:102B30000FFF8548FEF739F8844B012118880A23D6
:102B400080B2B0FBF3F001F001F9FEF72EF88048F7
:102B5000FEF72BF87F4B0221188880B201F0F6F8BF
:102B6000FEF723F87C48FEF720F8764B93F94830BF
:102B7000012B1BD100200146FDF7EAFE7748FEF746
:102B800014F8774B0221188880B201F0DFF8FEF7C5
:102B90000CF87448FEF709F8734BD88880B201F03E
:102BA00061F8FEF702F87148FDF7FFFF654B93F9F6
:102BB0004840022C1BD100200146FDF7C9FE6C489D
:102BC000FDF7F3FF6B4B2146188880B201F0BEF889
:102BD000FDF7EBFF6348FDF7E8FF634B988880B291
:102BE00001F040F8FDF7E1FF6048FDF7DEFF554BCF
:102BF00093F94830032B1AD100200146FDF7A8FEB7
:102C00005D48FDF7D2FF5D4B188800B201F02AF84D
:102C1000FDF7CBFF5A48FDF7C8FF534B588880B2E9
:102C200001F020F8FDF7C1FF5048FDF7BEFF454B0E
:102C300093F94830042B1AD100200146FDF788FE95
:102C40005048FDF7B2FF504B188800B201F00AF867
:102C5000FDF7ABFF4A48FDF7A8FF434B188880B249
:102C600001F000F8FDF7A1FF4048FDF79EFF354B4E
:102C700093F94830052B3BD1394D444CFEF71EFDEE
:102C80002988238889B29BB23C4FCB1A42F210713B
:102C90004B433A883E4E12B2002093FBF2F30146BA
:102CA000B364FDF755FE3B48FDF77FFF306C00F045
:102CB000D9FFFDF77AFF3848FDF777FFB06C00F0D9
:102CC000D1FFFDF772FF3548FDF76FFF38883449B3
:102CD00000B2002202F004F82888324980B20222B1
:102CE00001F0FEFF2088304980B2022201F0F8FF97
:102CF000144C94F94830062B09D100200146FDF709
:102D000027FE01A9A06A01F041F9FDF74EFF0D4C25
:102D100094F94830072B12D100200146FDF718FE28
:102D20002248FDF742FFE06C4FF46163B0FBF3F023
:102D300000F098FFFDF739FF1D48FDF736FF07B09B
:102D4000F0BD00BF7C020020695C00085C0600202A
:102D50006E5C00085A060020165B0008735C0008D1
:102D600058060020A15A00083C080020145B000807
:102D7000785C0008600600207E5C00085E0600208B
:102D8000845C0008885C000876020020780200203D
:102D9000040000208F5C0008925C0008975C00082B
:102DA0009F5C0008A35C0008AA5C0008B25C0008F5
:102DB000B95C00082DE9F041AD4D002400F0FCFDA8
:102DC000FEF7DAFEAB482C60FDF7EFFEFDF739FEAB
:102DD00021462046FDF7BCFD4FF4FA60FEF72AF8C5
:102DE00001F096FA2B68172B88BF2C6001F026FDA6
:102DF00080B94FF47A70FEF71DF801F01FFD48B955
:102E00009D48FDF7D2FE4FF47A60FEF713F89B4819
:102E1000FDF75EFA9A4B9B4C1A699B4B9548DA6416
:102E200023694FF461625A43984B1A60984BA26829
:102E30001A6001F015FFFDF7B5FBFDF772FD95482F
:102E4000FDF78EF9A368012B17D0022B01D1924810
:102E500014E0032B01D1914810E0042B01D19048DC
:102E60000CE0052B01D18F4808E0062B01D18E48DC
:102E700004E0072B01D18D4800E08D48FDF758F99B
:102E80008B4F814D07F12C0895F84130013385F8BF
:102E90004130FEF763FB0228044607D0032809D01F
:102EA00001280FD1FDF73EF9406809E0FDF73AF936
:102EB000006805E00220FDF75DF9FDF733F9C06811
:102EC000FDF736F9FDF72EF9B84203D12046FEF79B
:102ED0005DFD1DE1FDF726F9404503D12046FFF7D2
:102EE0008BFD15E1FDF71EF96C4EB04203D1204673
:102EF000FFF75CFC0CE1FDF715F906F12C03984295
:102F000003D12046FFF7ECFA02E1FDF70BF906F1D9
:102F10005803984203D12046FEF7B8FEF8E0FDF7CB
:102F200001F906F18403984203D12046FFF7FCF82B
:102F3000EEE0FDF7F7F806F1B003984203D1204622
:102F4000FEF7F0FFE4E0FDF7EDF806F1DC03984250
:102F500003D12046FFF7BEFDDAE0FDF7E3F806F502
:102F60008473984203D12046FEF73CF8D0E0FDF789
:102F7000D9F806F59A76B04203D12046FEF79EF8BE
:102F8000C6E0FDF7CFF84B4EB04203D12046FEF726
:102F900071F8BDE0FDF7C6F806F12C03984203D1A5
:102FA0002046FEF799FDB3E0FDF7BCF806F15803A3
:102FB000984203D12046FEF7AFFCA9E0FDF7B2F836
:102FC00006F18403984203D12046FEF7F7FB9FE009
:102FD000FDF7A8F806F1A003984203D12046FEF7BA
:102FE00027FC95E0FDF79EF806F1CC03984203D14B
:102FF0002046FEF757FC8BE0FDF794F806F1F80346
:10300000984203D12046FEF76DFB81E0FDF78AF878
:1030100006F58A73984203D12046FEF773F877E0ED
:10302000FDF780F806F59873984203D12046FEF725
:10303000A7F86DE0FDF776F806F5AE76B04203D15D
:103040002046FEF7C3F863E0FDF76CF81A4EB04275
:1030500003D12046FEF732F95AE0FDF763F806F196
:103060002C0398422AD12046FEF74AF950E000BFCF
:103070009C06002020020020C75C0008D85C0008E5
:1030800094000020540000207C020020380800201A
:103090004C080020850D0008E84F00081450000877
:1030A000405000086C50000898500008C4500008B8
:1030B000BC4F000874510008FC520008FDF732F8BC
:1030C00006F15803984203D12046FEF73BF91FE072
:1030D000FDF728F806F18403984203D12046FEF755
:1030E0004FF915E0FDF71EF806F1B003984203D141
:1030F0002046FEF763F90BE0FDF714F8DC36B0422A
:1031000003D12046FEF7B0F902E0002385F82E3007
:1031100095F82E4064B9FEF72FFDEA68064B85F856
:1031200038409A602B6985F840406B6485F83040E0
:103130006420FDF77FFEA7E69400002070B592B0F2
:103140007E2312A9002621F8043D48488DF84760E7
:10315000FDF7AAFD01214FF4007000F03DFB0120B6
:10316000014600F02DFB424B082502934FF480638B
:10317000089380230693202309933E4B3E480193F6
:103180004FF48073079301A94FF400530A930495F9
:1031900003960B96059600F0B5FF0121364800F026
:1031A000CFFF4FF4004000F0B9FA01244FF4602340
:1031B00032480CA90E938DF835400F960C968DF879
:1031C00040508DF8344000F019FC07232B4821466D
:1031D000224600F064FC02210A460723274800F03B
:1031E0005EFC03210A460723244800F058FC042112
:1031F0000A460723214800F052FC05210A4607230E
:103200001E4800F04CFC06210A4607231B4800F02C
:1032100046FC204600F092FC072213461748112175
:1032200000F03DFC2A4604231448102100F037FC2E
:103230001248214600F006FC1048214600F00BFC25
:103240000E4800F011FC0D4800F013FC0028FAD1E4
:103250000A4800F012FC094800F014FC0028FAD1DA
:103260000648012100F012FC12B070BD00080140B8
:103270003C0800204C24014008000240002401408A
:103280001FB50121022000F0B3FA104C01A8FCF791
:10329000CBFF45F6BF53ADF804302046052301A906
:1032A000ADF80830FCF776FF01210A462046FCF70E
:1032B000D0FF20460121FCF7C0FF054B4FF0005224
:1032C0001A60202283F81D231FBD00BF00040040A8
:1032D00000E100E0224A234B91682DE9F0410831DA
:1032E0009160C91A002808BF0120A729C8BF9360B0
:1032F000936812681E689A4208BF194A184C08BFA2
:103300001660194F2268988015252146BC46D2F8D0
:1033100000809845B2F8048008BF1660804503D24B
:10332000086818600B600020BA42246814D0116845
:10333000D1F800809845B1F8048008BF0E60804540
:1033400003D21068186013600020614504D0013D6D
:10335000ADB20A68002DDAD1A088BDE8F08100BFC7
:1033600034020020EC02002094030020234A244B66
:1033700051692DE9F04108315161C91A002808BF8F
:103380000120B1F5A47FA8BF53615369D2681E68BC
:103390009A4208BF194A194908BFD66051F80C2F44
:1033A000184F988029250C46BC46D2F800809845D5
:1033B000B2F8048008BF1660804503D22068186008
:1033C00023600020BA42096814D01468D4F8008041
:1033D0009845B4F8048008BF2660804503D2106881
:1033E000186013600020644504D0013DADB222682E
:1033F000002DDAD18888BDE8F08100BF34020020BA
:103400009C030020E4040020234A244B116A2DE988
:10341000F04108311162C91A002808BF0120B1F536
:10342000A47FA8BF1362136A92691E689A4208BFFC
:10343000194A194908BF966151F8182F184F9880FA
:1034400029250C46BC46D2F800809845B2F8048085
:1034500008BF1660804503D22068186023600020F2
:10346000BA42096814D01468D4F800809845B4F8BA
:10347000048008BF2660804503D21068186013607E
:103480000020644504D0013DADB22268002DDAD1A0
:103490008888BDE8F08100BF34020020EC040020E1
:1034A000340600200F49D1F85433D1F85023C1F825
:1034B00058339342C1F85423C1F8500307DC8342C8
:1034C00003DC9042A8BF104670479A4205DC824256
:1034D00003DC9842A8BF184670479A42B4BF104612
:1034E00018467047EC0200200F49D1F86033D1F83C
:1034F0005C23C1F864339342C1F86023C1F85C03D4
:1035000007DC834203DC9042A8BF104670479A4212
:1035100005DC824203DC9842A8BF184670479A42F5
:10352000B4BF104618467047EC0200202DE9F7435F
:1035300070480121FCF796FE002800F0D8806E4C00
:103540000121D4F868336B480133C4F86833FCF7C1
:1035500094FE00250220ADF80450ADF8065000F0AE
:1035600003FE022000F00AFE644E02212A4664484F
:1035700000F0F1FD634BF1889B6A89B24B43B2893D
:1035800092B2B3FBF2F39BB2ADF80630BDF8060081
:1035900080B2FFF739FFA4F86C03B4F86C334FF432
:1035A000F0229BB2022B98BFA4F86C53B389554DFF
:1035B0009BB292FBF3F39BB2A4F86E33B1882B6BF2
:1035C00089B24B43B28992B2B3FBF2F39BB2ADF82E
:1035D0000630BDF8060080B2FFF77CFE80B2ADF881
:1035E0000400BDF80420484B92B21A80BDF80430A4
:1035F0001BB2022B02DC0023ADF804303F4CAB6B56
:103600002189A28989B24B4392B2B3FBF2F39BB2F8
:10361000ADF80630BDF80600DFF8DC8000B2FFF739
:1036200063FFAB6980B24FF00A09A8F8700309FB89
:1036300003F36188A28989B24B4392B2B3FBF2F3E0
:103640009BB2ADF80630BDF80600304F80B2FFF7F0
:103650008DFE296A80B2388009FB01F92288A3898E
:1036600092B202FB09F99BB2B9FBF3F91FFA89F98F
:10367000ADF80690BDF80600224E00B2FFF712FF2B
:10368000234B80B2234A18809268920753BF3A882E
:103690001B883269B368D31A9BB2A8F87233164AF2
:1036A000B8F87233174BBDF80410B2F872231B6CD4
:1036B00012B25343184A93FBF2F35B189BB2ADF876
:1036C0000430BDF804301BB2022B02DC0023ADF83D
:1036D0000430BDF80420084B92B20948A3F87423C3
:1036E0000221012203B0BDE8F04300F034BD03B075
:1036F000BDE8F08300040040EC0200203C080020FC
:10370000080002400400002078020020740200201B
:1037100076020020000C0140F0D8FFFF034B5A68EE
:1037200022F4404210435860704700BF001002402E
:1037300010B51F4B5A6802F00C02042A01D0082A67
:1037400002D01C4B036011E05A685968C2F38342EF
:103750000232C90301D4184B06E0DB6A154903F0B5
:103760000F030133B1FBF3F35A430260104A134BCA
:1037700051680468C1F30311595C24FA01F14160F6
:103780005468C4F302241C5D21FA04F48460546874
:10379000C4F3C2241C5D21FA04F1C1605268C2F373
:1037A00081329B181B7CB1FBF3F1016110BD00BF9E
:1037B0000010024000127A0000093D00580200206B
:1037C000044B5A6909B1104301E022EA0000586134
:1037D000704700BF00100240044B9A6909B11043C2
:1037E00001E022EA00009861704700BF001002402B
:1037F000044BDA6909B1104301E022EA0000D86104
:10380000704700BF0010024008B501210820FFF7F3
:10381000E3FF214B1A6822F003021A601A6822F0B3
:103820000C021A601A6842F002021A601A6822F04A
:103830000C021A60194A516821F003015160516865
:1038400021F00C015160516841F002015160516852
:1038500021F00C015160516821F4405151605168D0
:1038600021F440415160516841F400515160516868
:1038700021F4404151601A6822F030021A601A683F
:1038800022F0C0021A601A6842F020021A601A6818
:1038900022F0C0021A6008BD000C0140000801407F
:1038A00008B508200121FFF797FF164B1A6822F48C
:1038B00040121A601A6822F440021A601A6842F430
:1038C00000021A6020221A611A6822F440321A603B
:1038D0001A6822F440221A601A6842F400221A6020
:1038E00010221A611A6822F040721A601A6822F0D7
:1038F00040621A601A6842F000621A6040221A613F
:1039000008BD00BF000C01401FB501212020FFF7BA
:103910006FFF104C01A8FCF787FC40F65F13ADF871
:10392000043020460A2301A9ADF80830FCF732FC28
:1039300001210A462046FCF78CFC20460121FCF7B9
:103940007CFC054B4FF400025A60502283F8372369
:103950001FBD00BF0014004000E100E01FB50121C1
:103960004FF40030FFF738FF01A8FCF75DFC104C66
:103970000023ADF8063045F6BF53ADF804302046BD
:103980004FF47A7301A9ADF80830FCF703FC01216C
:103990000A462046FCF75DFC20460121FCF74DFC61
:1039A000044B4FF000721A60102283F819231FBDD8
:1039B0000044014000E100E008B504200121FFF7C8
:1039C0000BFF08200121FFF707FF10200121FFF75F
:1039D00003FFFDF7F9F801F0A3F8FFF715FFFFF774
:1039E0005FFFFFF791FFFFF74BFCFFF7B7FFFFF714
:1039F0000BFFBDE80840FFF7A1BB000043680A6861
:103A000023F4702323F4807313430A7910B543EA37
:103A1000022343608A68CB6884681A43084B2340BA
:103A200013434A7943EA420383600B7CC26A013B39
:103A300022F47002DBB242EA0353C36210BD00BF3E
:103A4000FDF7F1FF836811B143F0010301E023F0BA
:103A5000010383607047836811B143F4807301E010
:103A600023F4807383607047836843F008038360A6
:103A700070478068C0F3C0007047836843F0040358
:103A8000836070478068C0F380007047836811B11D
:103A900043F4A00301E023F4A003836070470929E5
:103AA00070B54FF003040DD94C4307251E3C05FAB1
:103AB00004F503FA04F3C66826EA050545EA03049B
:103AC000C4600BE04C43072505FA04F503FA04F43F
:103AD000066926EA050545EA04030361062A4FF054
:103AE00005030CD8013A53431F2202FA03F201FAEC
:103AF00003F3446B24EA02021343436370BD0C2AB0
:103B00000DD853431F22233B02FA03F201FA03F1BB
:103B1000046B24EA020242EA0103036370BD5343CB
:103B20001F22413B02FA03F201FA03F1C46A24EABC
:103B3000020242EA0103C36270BD0000044B9A68AE
:103B400010B142F4000201E022F400029A607047D2
:103B50000024014030B5038ACA8823F440531B0473
:103B60001B0C134303820D4683890989AA8823F419
:103B7000B0530A43698923F00C030A431B041B0C4E
:103B800092B213438381838AAA8923F440731B046E
:103B90001B0C87B013430446838201A8FFF7C8FDBE
:103BA000174BA2899C420CBF049B039B12B2002AB4
:103BB0004FF019012A6801FB03F101DA520000E01D
:103BC00092006423B1FBF2F1B1FBF3F21201100990
:103BD00003FB1011A08900B2002806DAC9003231B7
:103BE000B1FBF3F303F0070305E009013231B1FB48
:103BF000F3F303F00F031A4392B2228107B030BDF2
:103C000000380140838919B19BB243F4005303E0AB
:103C100023F400531B041B0C83817047C1F3421330
:103C200010B5012401F01F01A34204FA01F101D1F2
:103C30000C3004E0022B01D1103000E01430036896
:103C40000AB1194301E023EA0101016010BDC90571
:103C5000C90D81807047038819420CBF00200120E4
:103C6000704700007FB580EAE072A2EBE0720DF1D0
:103C7000FF3500230A2492FBF4F104FB11223032B9
:103C800005F8012F1E4601330A1EDBB2F3DC0028C3
:103C900007DA5BB204A8C3182D2203F8102CB31C5A
:103CA000DBB25AB204A88118002001F8100C684455
:103CB0008118074811F8014C013BDBB2013900F8CB
:103CC000014F002BF6D10348835404B070BD00BFF0
:103CD0006F06002070060020F0B5034685B083EA29
:103CE000E370A0EBE3700DF1FF3600220A2590FB94
:103CF000F5F405FB1400303006F8010F17460132C9
:103D0000201ED2B2F3DC002B07DA04AB52B29A18B1
:103D10002D2302F8103CBA1CD2B250B204AC2318C6
:103D2000002403F8104C0DEB040318180C4613463E
:103D300052B210F8015C013BDBB2013804F8015BC0
:103D4000002BF6D18B54084605B0F0BDF0B58BB012
:103D500080EAE073A3EBE0730DF1FF3600220A2541
:103D600093FBF5F405FB1433303306F8013F174697
:103D70000132231ED2B2F3DC53B20AADEC18002597
:103D8000012B04F8285C04D13023BA1C8DF80130D3
:103D9000D2B2022A05D1012903D930238DF802308D
:103DA000032200240DF1280C23460CEB01062E25DE
:103DB00052B25FB28F4203D1013306F8145CDBB21A
:103DC0005FB20DF1280C67441DF804C0013407F8F8
:103DD00014CC67B201339742DBB2EADB002807DA82
:103DE0005AB20AA98A1801332D2102F8141CDBB239
:103DF00059B205AD084800226C1804E0A55C013BEF
:103E000000F8015FDBB2013A002BF7D103484118FB
:103E10000B7410300BB0F0BD7F0600207006002040
:103E20002DE9F04103468AB083EAE370A0EBE3702A
:103E30000DF1FF3700240A2690FBF6F506FB15006E
:103E4000303007F8010FA4460134281EE4B2F3DC39
:103E500060B20AAE35180026012805F8286C05D195
:103E600030200CF102048DF80100E4B2022C05D1DF
:103E7000012A03D930208DF80200032400250DF11A
:103E80002808284608EB02072E2664B24FFA80FC69
:103E9000944503D1013007F8146CC0B24FFA80FC8E
:103EA0000DF12808C4441DF8058001350CF8148C68
:103EB0004FFA85FC0130A445C0B2E7DB002B07DADE
:103EC00043B20AAAD31801302D2203F8142CC0B231
:103ED00042B205AE0C460023B51804E0EE5C013892
:103EE00004F8016BC0B2013B0028F7D188540846A2
:103EF0000AB0BDE8F081002802D001DC404200B2E7
:103F000070470346002001E00130C0B21A5C002A6D
:103F1000FAD1704730B50346002401E0155501344D
:103F20001D5DE0B2002DF9D12B4645B2551903E0D5
:103F30000130EC54C0B20133CC5C002CF8D140B25B
:103F40001454104630BD70B5002501E05E550135B2
:103F5000465DECB2002EF9D1304666B29E1903E000
:103F600001343554E4B201300D5C002DF8D12946FE
:103F700065B25D1903E001346854E4B20131505C6C
:103F80000028F8D164B21855184670BD2DE9F041EB
:103F9000074686B04FF461600C46B7FBF0F001A90C
:103FA000FFF79AFE01A8FFF7ACFF012803D83023E2
:103FB0002370012600E000260023A11902E0CA5464
:103FC000EEB201330DF1040813F80820751C002A25
:103FD000F5D13A2273B2E2543C23B7FBF3F2B2FBC1
:103FE000F3F003FB10204146FFF776FE4046FFF753
:103FF00088FF0128EDB204D86DB230236355B51C9B
:10400000EDB269B20023611802E0CA54F5B201337F
:104010000DF1040813F808206E1C002AF5D13A228D
:104020006BB2E2543C23B7FBF3F003FB1070414644
:10403000FFF752FE4046FFF764FF0128F6B204D8AE
:1040400076B230230235A355EEB271B20023611867
:1040500003E00136CA54F6B2013301AA9A5C002A81
:10406000F7D176B2A255204606B0BDE8F0812DE921
:10407000F041804686B04FF461600C46B8FBF0F02A
:1040800001A9FFF729FE01A8FFF73BFF012803D88C
:1040900030232370012500E000250023611902E090
:1040A000CA54F5B2013301AFDA5D6E1C002AF7D1B4
:1040B0003A226BB2E2543C23B8FBF3F8B8FBF3F0BE
:1040C00003FB10803946FFF707FE3846FFF719FF5C
:1040D0000128F6B204D876B230230235A355EEB2E9
:1040E00071B20023611803E00136CA54F6B20133FD
:1040F00001AA9A5C002AF7D176B2A255204606B0F2
:10410000BDE8F0818B6810B50C6A026823430C6926
:1041100022F4FE4223434C6922F0F00223438C69CF
:104120002343CC6923434C6A23438C6A23431343C0
:104130000360CB6843600B6883604B68C36010BD4D
:1041400019B1036843F0010303E002684FF6FE7300
:1041500013400360704703680AB1194301E023EA82
:104160000101016070470000C2004CBF014B024BCF
:10417000586070470004024000000240C3004CBF7A
:10418000014B024B5860704700040240000002409F
:10419000C37810B5F3B1154B4178DB688478DB4305
:1041A000C3F30223C3F1040201FA02F10F2222FA3F
:1041B00003F222400A430E4B01781201CB18D2B20F
:1041C00083F8002303780122590903F01F0302FA40
:1041D00003F307E003780122590903F01F0302FAF1
:1041E00003F32031024A42F8213010BD00ED00E017
:1041F00000E100E00F4AD36813F0010F0D4BFAD134
:10420000DA68920601D52022DA601A6942F00202C9
:104210001A6158611A6942F040021A61054AD16870
:10422000044B8906FBD52022DA601A6922F00202CB
:104230001A61704700200240034B044A5A6002F1A1
:1042400088325A60704700BF002002402301674552
:10425000024B1A6942F080021A6170470020024046
:10426000124AD36813F0010F104BFAD1DA689206A4
:1042700001D52022DA601A6942F001021A618BB27C
:1042800003800A4BDA6812F0200F084AFAD0202384
:10429000090CD3604180D168044B8906FBD52022EC
:1042A000DA601A6922F001021A61704700200240A8
:1042B00070B572B6114CFFF7BFFF4FF4CE701049C6
:1042C000002200F00DFD20680E49002200F008FDDC
:1042D0000D48FFF78FFF0C4D0C4E2B1903F178435F
:1042E000A3F5F233284619680435FFF7B9FFB54244
:1042F000F3D1FFF7ADFF62B670BD00BF9C06002092
:10430000E65D0008ED5D000800E401089CE5010899
:1043100010B5074B0749084A58181C6800F1784047
:104320000433A0F5F23093420460F5D1012010BDB2
:1043300000E401089C0600209CE5010870B50468B3
:104340000E468C4201D3944211D90A4B00251D70B0
:1043500009492A4600F0C4FC204608492A4600F0D4
:10436000BFFC074807492A4600F0BAFC34462046FD
:1043700070BD00BF6C020020F35D00080A5E0008FB
:1043800000EC01081C5E000810B5184C6068FFF7CF
:1043900031FF60682168FFF763FFE068A168FFF7FD
:1043A0005FFF60692169FFF75BFFE069A169FFF7C3
:1043B00057FF606A216AFFF753FFE06AA16AFFF7BF
:1043C0004FFF606B216BFFF74BFFE06BA16BFFF7BB
:1043D00047FF606C216CFFF743FFE06CA16CFFF7B7
:1043E0003FFF034800F03CFC10BD00BF040000206C
:1043F000335E000810B5184C6068FFF7FBFE60687C
:104400002168FFF72DFFE068A168FFF729FF6069C9
:104410002169FFF725FFE069A169FFF721FF606AC5
:10442000216AFFF71DFFE06AA16AFFF719FF606BC1
:10443000216BFFF715FFE06BA16BFFF711FF606CBD
:10444000216CFFF70DFFE06CA16CFFF709FF03483B
:1044500000F006FC10BD00BF5C0100204C5E0008AF
:1044600038B5224C002160684FF48072FFF766FF78
:10447000002120604FF47A72E068FFF75FFF0021AF
:10448000A0604FF47A726069FFF758FF184D206101
:104490000A212A46E069FFF751FF0A21A0612A4656
:1044A000606AFFF74BFF0A2120622A46E06AFFF7A5
:1044B00045FF0A21A0622A46606BFFF73FFF0A21F1
:1044C00020632A46E06BFFF739FF4621A063C8222C
:1044D000606CFFF733FF0A212064C822E06CFFF70D
:1044E0002DFFA064034800F0BBFB38BD0400002092
:1044F000A08601006C5E000838B5224C002160687F
:104500004FF48072FFF71AFF002120604FF47A7297
:10451000E068FFF713FF0021A0604FF47A72606932
:10452000FFF70CFF184D20610A212A46E069FFF7CA
:1045300005FF0A21A0612A46606AFFF7FFFE0A21F3
:1045400020622A46E06AFFF7F9FE0A21A0622A46A5
:10455000606BFFF7F3FE0A2120632A46E06BFFF74A
:10456000EDFE4621A063C822606CFFF7E7FE0A213A
:104570002064C822E06CFFF7E1FEA064034800F06D
:104580006FFB38BDAC010020A0860100865E0008EC
:1045900010B5144C6068FFF72DFE60682168FFF7C6
:1045A0005FFEE068A168FFF75BFE60692169FFF7C5
:1045B00057FEE069A169FFF753FE606A216AFFF7C1
:1045C0004FFEE06AA16AFFF74BFE606B216BFFF7BD
:1045D00047FEE06BA16BFFF743FE034800F040FB92
:1045E00010BD00BF54000020A95E000810B5144C97
:1045F0006068FFF7FFFD60682168FFF731FEE06843
:10460000A168FFF72DFE60692169FFF729FEE069C7
:10461000A169FFF725FE606A216AFFF721FEE06AC3
:10462000A16AFFF71DFE606B216BFFF719FEE06BBF
:10463000A16BFFF715FE034800F012FB10BD00BF91
:10464000DC000020BF5E000838B51D4C002160680A
:104650004FF48072FFF772FE012120600A22E068A9
:10466000FFF76CFE0121A0604FF47A726069FFF7DA
:1046700065FE012120614FF47A62E069FFF75EFE7A
:104680000121A0614FF47A62606AFFF757FE42F29F
:104690001075206200212A46E06AFFF74FFE0021D4
:1046A000A0622A46606BFFF749FE00212063642266
:1046B000E06BFFF743FEA063024800F0D1FA38BD7B
:1046C00054000020DC5E000838B51D4C00216068F5
:1046D0004FF48072FFF732FE012120600A22E06869
:1046E000FFF72CFE0121A0604FF47A726069FFF79A
:1046F00025FE012120614FF47A62E069FFF71EFE7A
:104700000121A0614FF47A62606AFFF717FE42F25E
:104710001075206200212A46E06AFFF70FFE002193
:10472000A0622A46606BFFF709FE00212063642225
:10473000E06BFFF703FEA063024800F091FA38BD7A
:104740001C010020F35E000810B50C4C0022A0688C
:104750000B4900F0C5FA6068FFF74CFD60682168FE
:10476000FFF77EFDE068A168FFF77AFD60692169C7
:10477000FFF776FD034800F073FA10BD94000020A7
:10478000135F0008225F000810B50A4C6068FFF74D
:1047900031FD60682168FFF763FDE068A168FFF7FD
:1047A0005FFD60692169FFF75BFD034800F058FA7F
:1047B00010BD00BFAC000020405F000838B50C4CB5
:1047C000002160684FF48072FFF7B8FD094D20604A
:1047D00000212A46E068FFF7B1FD0021A0602A46CB
:1047E0006069FFF7ABFD2061034800F039FA38BD7E
:1047F0009400002000286BEE675F000838B50C4C71
:10480000002160684FF48072FFF798FD094D206029
:1048100000212A46E068FFF791FD0021A0602A46AA
:104820006069FFF78BFD2061034800F019FA38BD7D
:10483000C400002000286BEE865F000870B50C4DA8
:1048400001242C7072B6FFF7B9FFFFF7FDFEFFF7EA
:1048500007FE62B62E782EB9064800F001FA2C70D9
:10486000304670BD044800F0FBF92C70204670BD46
:104870006C020020AE5F0008C75F0008F0B5C1B051
:1048800007460D461446684608494FF4807200F00A
:104890003FFA6E4617F8013B013D5C40EDB2345DD6
:1048A000002DF7D1204641B0F0BD00BFE65C000806
:1048B00038B572B6FFF7C0FC4C2100223448FFF730
:1048C000DDFF344B04461860FFF794FDFFF714FE3C
:1048D0004C2100223048FFF7D1FF844203D12F48FA
:1048E00000F0BEF904E02E4800F0BAF9FFF782FDAF
:1048F0003C2100222B48FFF7C1FF00222A49044631
:1049000000F0EEF9002229493C2000F0E9F9284B9B
:104910001C60FFF76BFEFFF7D7FE3C210022254805
:10492000FFF7ACFF00222049054600F0D9F93C20F2
:1049300000221E4900F0D4F9AC4203D11E4800F019
:104940008FF904E01D4800F08BF9FFF74FFE1421AA
:1049500000221B48FFF792FF1A4B04461860FFF72E
:1049600013FFFFF74BFF142100221748FFF786FFC4
:10497000844203D1154800F073F904E0144800F0B4
:104980006FF9FFF701FFFFF763FC62B638BD00BFA8
:10499000600100205C010020B0010020E25F0008FF
:1049A00007600008E000002037600008426000084F
:1049B000DC000020200100204E600008706000082C
:1049C000B0000020AC000020C80000209D6000085E
:1049D000C760000810B572B6142100221048FFF716
:1049E0004DFF104B04461860FFF726FCFFF7ACFEA6
:1049F000FFF704FF142100220B48FFF73FFF84421A
:104A000003D10A4800F02CF904E0094800F028F925
:104A1000FFF79AFEFFF71CFC62B6012010BD00BF35
:104A20009800002094000020C80000209E6000082C
:104A3000C860000838B572B63C2100221948FFF75B
:104A40001DFF00221849044600F04AF900221749C8
:104A50003C2000F045F9164B1C60FFF7EDFBFFF71B
:104A600097FDFFF731FE3C2100221248FFF706FFB9
:104A700000220D49054600F033F93C2000220B4985
:104A800000F02EF9AC4203D10B4800F0E9F804E045
:104A90000A4800F0E5F8FFF77BFDFFF7D9FB62B6A7
:104AA000012038BD5800002038600008436000082D
:104AB00054000020200100204F60000871600008B1
:104AC00010B572B64C2100221048FFF7D7FE104BEC
:104AD00004461860FFF7B0FBFFF756FCFFF70CFD2C
:104AE0004C2100220B48FFF7C9FE844203D10A483B
:104AF00000F0B6F804E0094800F0B2F8FFF744FC13
:104B0000FFF7A6FB62B6012010BD00BF0800002021
:104B100004000020B0010020E35F000808600008E6
:104B200030B54FF4164387B0009300231C46ADF810
:104B30000430ADF80630ADF80830ADF80C30042084
:104B40000C230121ADF80A30FEF746FE01214FF497
:104B50008040FEF741FE4FF4C063154DADF81030B4
:104B600018238DF8133004A9032312488DF812304E
:104B7000FCF79AF869462846FEF7ECFF25238DF8E6
:104B800014308DF816402223012405A88DF8153025
:104B90008DF81740FFF7FCFA28462146FFF732F858
:104BA000284640F225512246FFF738F807B030BDBD
:104BB00000380140000801400A4B1A78C72A0FD874
:104BC0005A78094988541A780132D2B21A705A7840
:104BD0000132D2B25A705A78C82A01D100225A70D2
:104BE000704700BF910600205008002010B5194CF6
:104BF0002388980603D5A088C0B2FFF7DDFF23887D
:104C0000144A19061AD5144B997889B1D9781348E2
:104C1000415C91809A78013AD2B29A70DA78013286
:104C2000D2B2DA70DA78C82A08D10022DA7005E048
:104C3000938923F080031B041B0C9381054A13887E
:104C40005B0605D5138823F040031B041B0C13805F
:104C500010BD00BF00380140910600201809002057
:104C600010B504460AE00D488021FEF7F4FF002845
:104C7000F9D014F8011B0948FEF7E9FF2378002B4F
:104C8000F1D106488021FEF7E6FF0028F9D003485D
:104C90000A21BDE81040FEF7DABF00BF003801402E
:104CA00082B0064B8DF807001A885206FCD59DF895
:104CB0000720024B9A8002B0704700BF00380140C5
:104CC000064B1A4605E019884906FCD510F8011B69
:104CD000918001780029F6D1704700BF003801406B
:104CE00037B501900C46019812B9FEF7BBFF02E000
:104CF0001146FFF72BF805462046FFF7E1FF28464F
:104D0000FFF7DEFF0A2003B0BDE83040FFF7C8BF61
:104D10000F2AF0B43AD941EA00039B0738D10C4678
:104D2000034615462668103D1E6066685E60A668EC
:104D30009E60E6681034DE6010330F2DF2D8A2F1C9
:104D4000100424F00F0402F00F021034032A00EBC9
:104D50000403214411D90E461D46144656F8047B1F
:104D6000043C032C45F8047BF8D8141F24F00304FA
:104D7000043402F0030209191B192AB111F8014B7E
:104D8000013A03F8014BF9D1F0BC70470346F4E750
:104D90000346F3E7000000000000000000000000F0
:104DA00000000000000000000000000069693A20D7
:104DB00000513A20004352432843616C696272619A
:104DC00074696F6E29203D0043616C696272617481
:104DD000696F6E3056616C7565466F72437572729D
:104DE000656E74203D0043616C6962726174696F25
:104DF0006E3056616C7565466F7243757272656E82
:104E00007431203D0043616C6962726174696F6E38
:104E100056616C7565466F7243757272656E74206B
:104E20003D0043616C6962726174696F6E56616CBA
:104E30007565466F7243757272656E7431203D0000
:104E400043616C6962726174696F6E56616C7565FD
:104E5000466F72566F6C74616765203D0043616CEC
:104E60006962726174696F6E56616C7565466F72C6
:104E7000566F6C7461676531203D0043616C6962F7
:104E8000726174696F6E56616C7565466F72566FAC
:104E90006C7461676532203D00526573697374619B
:104EA0006E6365436F6D705F497368756E745F57AD
:104EB00069726573203D00526573697374616E6336
:104EC00065436F6D705F4D4F53464554203D004321
:104ED00052432853657474696E6773446174612921
:104EE000203D004F7074696F6E31286D656E7520BE
:104EF000706F736974696F6E29203D004368617239
:104F0000676554696D65203D004C6F77566F6C7412
:104F1000616765203D004D6178566F6C746167650F
:104F2000203D004368617267654164617074203D93
:104F3000005377696E675F436872675F74696D6578
:104F4000203D005377696E675F44436872675F7402
:104F5000696D65203D004352432853617665446185
:104F600074615768656E506F7765724F6666292069
:104F70003D00426174746572794361706163697464
:104F80007944697363686172676550726576696FA9
:104F9000757356616C7565203D004261747465726D
:104FA000794361706163697479446973636861729C
:104FB000676543757272656E74203D00944D0008FC
:104FC000944D0008944D0008D458000800000000DB
:104FD0000000000020202020202020202020202051
:104FE0002020202000000000944D0008944D00086F
:104FF000944D0008A85800080000000000000000C0
:1050000020202020202020202020202020202020A0
:1050100000000000944D0008944D0008944D0008D5
:105020007C58000800000000910D0008202020207E
:1050300020202020202020202020202000000000F0
:10504000944D0008944D0008944D000850580008F5
:1050500000000000910D00082020202020202020AA
:10506000202020202020202000000000944D000857
:10507000944D0008944D00082458000800000000DA
:10508000ED0D00082020202020202020202020209E
:105090002020202000000000944D0008944D0008BE
:1050A000944D0008F85700080000000000000000C0
:1050B00020202020202020202020202020202020F0
:1050C00000000000944D0008944D0008944D000825
:1050D000CC57000800000000000000002020202025
:1050E0002020202020202020202020200000000040
:1050F000944D0008944D0008944D0008A0570008F6
:10510000000000000000000020202020202020209F
:10511000202020202020202000000000944D0008A6
:10512000944D0008944D00087457000800000000DA
:10513000610D000820202020202020202020202079
:105140002020202000000000944D0008944D00080D
:10515000944D00086455000800000000710D00081F
:10516000202020202020202020202020202020203F
:1051700000000000944D0008944D0008944D000874
:105180009055000800000000710D0008202020202C
:10519000202020202020202020202020000000008F
:1051A000944D0008944D0008944D00080C550008DB
:1051B00000000000710D0008202020202020202069
:1051C000202020202020202000000000944D0008F6
:1051D000944D0008944D0008385500080000000068
:1051E000710D0008202020202020202020202020B9
:1051F0002020202000000000944D0008944D00085D
:10520000944D00088854000800000000710D00084B
:1052100000000000944D0008944D0008944D0008D3
:10522000B454000800000000710D00082020202068
:1052300020202020202020202020202000000000EE
:10524000944D0008944D0008944D0008E054000867
:1052500000000000710D00082020202020202020C8
:10526000202020202020202000000000944D000855
:10527000944D0008944D00085C54000800000000A4
:10528000710D000800000000944D0008944D0008C6
:10529000944D000830540008000000000000000099
:1052A00000000000944D0008944D0008944D000843
:1052B0001C570008000000006D0D00082020202071
:1052C000202020202020202020202020000000005E
:1052D000944D0008944D0008944D0008F0560008C5
:1052E00000000000890E000820202020202020201F
:1052F000202020202020202000000000944D0008C5
:10530000944D0008944D0008C456000800000000A9
:105310006D0D00082020202020202020202020208B
:105320002020202000000000944D0008944D00082B
:10533000944D000898560008000000006D0D00080C
:10534000202020202020202020202020202020205D
:1053500000000000944D0008944D0008944D000892
:105360006C560008000000006D0D00082020202071
:1053700020202020202020202020202000000000AD
:10538000944D0008944D0008944D000840560008C4
:10539000000000006D0D000820202020202020208B
:1053A000202020202020202000000000944D000814
:1053B000944D0008944D00081456000800000000A9
:1053C0006D0D0008202020202020202020202020DB
:1053D0002020202000000000944D0008944D00087B
:1053E000944D0008E855000800000000590E000820
:1053F00020202020202020202020202020202020AD
:10540000000000009055000830540008944D00083A
:105410004857000800000000000000004F4B2074B7
:105420006F20657869742020202020200000000073
:10543000045400085C540008944D00088852000889
:1054400000000000000000004261636B20746F20C8
:10545000466163746F7279200000000030540008C8
:1054600088540008944D00086C52000800000000A9
:105470000000000052657369737420636F6D7020C3
:1054800035563141000000005C540008B454000857
:10549000944D0008F85100080000000000000000D2
:1054A000566F6C7461676520496E20202020202093
:1054B0000000000088540008E0540008944D0008E3
:1054C000145200080000000000000000566F6C74C9
:1054D000616765204F7574202020202000000000A7
:1054E000B45400080C550008944D000840520008C0
:1054F0000000000000000000566F6C7461676520BA
:10550000505320202020202000000000E0540008FC
:1055100038550008944D0008A05100080000000014
:105520000000000043555252454E54204C6F6164B8
:1055300020202020000000000C55000864550008C1
:10554000944D0008CC51000800000000000000004D
:1055500043555252454E54204F7574202020202030
:10556000000000003855000890550008944D0008D0
:10557000485100080000000000000000435552524E
:10558000454E54204C6F616420746F300000000061
:105590006455000804540008944D00087451000834
:1055A000000000000000000043555252454E5420B8
:1055B0004F757420746F2030000000001C570008E5
:1055C000E8550008944D000800590008000000004C
:1055D000000000004F4B20746F2065786974202014
:1055E0002020202000000000BC55000814560008B0
:1055F000944D0008D853000800000000000000008F
:1056000030383A53617665204D656E7520506F7362
:1056100000000000E855000840560008944D0008BE
:10562000AC530008000000000000000030373A438F
:1056300068617267652061646461707400000000D5
:10564000145600086C560008944D0008805300085A
:10565000000000000000000030363A53776E6744C7
:1056600069734368726720540000000040560008C8
:1056700098560008944D000854530008000000009C
:105680000000000030353A5377696E672043687236
:105690006720546D000000006C560008C4560008D6
:1056A000944D00082853000800000000000000008E
:1056B00030343A4D617820566F6C746167652020F4
:1056C0000000000098560008F0560008944D0008AD
:1056D000FC520008000000000000000030333A4C8B
:1056E0006F7720566F6C74616765202000000000A2
:1056F000C45600081C570008944D0008D0520008FA
:10570000000000000000000030323A42617474650D
:10571000727920747970652000000000F05600084E
:10572000BC550008944D0008A45200080000000079
:105730000000000030313A43686172676520746987
:105740006D65202000000000005900087457000813
:10575000944D000890550008000000000000000073
:1057600043414C4942524154494F4E202020202071
:105770000000000048570008A0570008944D00089A
:105780001C51000800000000000000004C4F4720A2
:105790002020202020202020202020200000000089
:1057A00074570008CC570008944D0008F0500008CA
:1057B0000000000000000000444941474E4F535490
:1057C000494320202020202000000000A05700088E
:1057D000F8570008944D0008C4500008000000006D
:1057E000000000005377696E6720202020202020D1
:1057F0002020202000000000CC570008245800087A
:10580000944D0008985000080000000000000000BF
:10581000547261696E696E6720202020202020204C
:1058200000000000F857000850580008944D000888
:105830006C50000800000000000000004469734341
:105840006861726765202020202020200000000071
:10585000245800087C580008944D00084050000867
:10586000000000000000000043686172676520616D
:10587000646461707420202000000000505800080B
:10588000A8580008944D00081450000800000000BB
:10589000000000004368617267652043432043565F
:1058A00020202020000000007C580008D458000868
:1058B000944D0008E84F00080000000000000000C0
:1058C0004C6F6164202020202020202020202020D8
:1058D00000000000A858000800590008944D000876
:1058E000BC4F00080000000000000000506F77650A
:1058F00072537570706C7920202020200000000009
:10590000D458000848570008944D00081C57000858
:10591000000000000000000053657474696E677336
:1059200020202020202020200000000043616C69FE
:1059300062726174696F6E006368617267653D00D1
:105940006D4168002031302E3656202031342E36FD
:1059500056202020002020332E3656202020342EA2
:105960003256202020002020322E3856202020338E
:105970002E3756202020002020312E38562020207F
:10598000322E3756202020002020202042617474BF
:1059900065727920202020200020203156202020F0
:1059A00020323056202020202000695F4C6F67494C
:1059B00074656D733A20004D5265636F7264735164
:1059C00075616E746974793A20006D41203E3E2005
:1059D000736574203020202000466163746F7279F3
:1059E0002D7072657373203E3E00496E2050726FB9
:1059F0006363657373202E2E2E2E00466163746FD1
:105A0000727920617265204F4B20200046616374DB
:105A10006F727920617265204F4B00454570726F3F
:105A20006D2072656164204641494C006820202049
:105A300000313256205062204261747465727920C0
:105A400020004C6920696F6E202042617474657279
:105A5000792020004C694665506F3420426174748F
:105A600065727920004C69546F20426174746572CC
:105A700079202020004D696E20315620204D41585C
:105A800020323056002020204F4B20746F20457864
:105A90006974202000207365632E202020002520BB
:105AA00000562000506F776572537570706C7920C6
:105AB00020202020004C6F6164204D656E752020F1
:105AC0002020202020004368617267652043432026
:105AD000435620202020004368617267652061647E
