:020000040800F2
:10000000600B002085020008CD020008CD02000828
:10001000CD020008CD020008CD020008000000005B
:10002000000000000000000000000000CD020008F9
:10003000CD02000800000000CD020008CD0200083B
:10004000CD020008CD020008CD020008CD02000854
:10005000CD020008CD020008CD020008CD02000844
:10006000CD020008CD020008CD020008CD02000834
:10007000CD020008CD020008CD020008CD02000824
:10008000CD020008CD020008CD02000800000000EB
:10009000000000000000000000000000CD02000889
:1000A000CD020008CD0E0008CD020008CD020008E8
:1000B000CD020008152B000800000000CD0200084A
:1000C000CD0200080000000000000000CD02000882
:1000D00000000000DD380008CD020008000000002C
:1000E000CD020008CD020008CD020008000000008B
:1000F0000000000000000000000000000000000000
:1001000000000000000000000000000000000000EF
:100110000000000000000000CD020008811500086A
:100120005FF808F1014B1868704700BF000000201D
:10013000084B10B598420BD050B1074B074C1B68C9
:1001400020600BB11830984723681B6903B19847AA
:1001500010BD00BF003A00089801002000000020F8
:10016000024B1860024B1868FFF7E2BF98010020AD
:100170000000002008B5054B054A1B68934203D0D8
:1001800013B15B6903B1984708BD00BF00000020B0
:10019000003A0008224A038890429BB212D002F52E
:1001A000006290420ED0B0F1804F0BD0A2F5983291
:1001B000904207D002F58062904203D002F580623F
:1001C000904203D14A8823F070031343154A9042AA
:1001D00008D002F58062904204D023F44073CA88AC
:1001E0009BB2134303808B8883850B8803850C4B5C
:1001F00098420FD003F5006398420BD003F540639B
:10020000984207D003F58063984203D003F58063DA
:10021000984201D10B7A038601238382704700BF85
:10022000002C0140001000404FF6FF738380002334
:100230000380C380438003727047038819B19BB267
:1002400043F0010303E023F001031B041B0C0380B4
:10025000704783899BB20AB1194301E023EA010187
:1002600081817047038A828911EA030092B203D028
:1002700011420CBF002001207047C94389B201829E
:100280007047000008B50C4A0C4B0D4903E052F8CA
:10029000040B43F8040B8B42F9D30A480A494FF088
:1002A00000028842B8BF40F8042BFADB00F096F851
:1002B000BDE8084002F0B6B8CD46000800000020B6
:1002C000980100209801002060070020FEE7000050
:1002D00010B52F4C002220682E4903F079FBA0684E
:1002E00000222D4903F074FB206900222B4903F002
:1002F0006FFBA06900222A4903F06AFB206A0022F2
:10030000284903F065FBA06A0022274903F060FB3F
:10031000206B0022254903F05BFBA06B00222449DF
:1003200003F056FB206C0022224903F051FBA06C25
:100330000022214903F04CFB206D00221F4903F0ED
:1003400047FBA06D00221E4903F042FB206E0022F5
:100350001C4903F03DFBA06E00221B4903F038FB53
:10036000206F0022194903F033FBA06F00221849C7
:1003700003F02EFBD4F880001649002203F028FB7E
:10038000D4F8880014490022BDE8104003F020BBD7
:1003900004000020183A0008433A00086D3A0008AB
:1003A0004D3A0008753A0008823A00088F3A000872
:1003B000A13A0008B43A0008D63A0008F43A000816
:1003C000133B0008303B00084E3B00086B3B000825
:1003D000893B0008A73B0008B53B0008314B82B0C1
:1003E0001A6842F001021A6059682F4A0A405A609E
:1003F0001A6822F0847222F480321A601A6822F499
:1004000080221A605A6822F4FE025A604FF41F02DA
:100410009A600022DA62009201921A6842F48032F5
:100420001A601A6802F400320192009A01320092B6
:10043000019A1AB9009AB2F5A06FF2D1194B1B6854
:1004400013F4003318BF01230193019B012B23D127
:10045000144B5A685A605A685A605A685A605A6807
:1004600022F47C125A605A6842F498125A601A6850
:1004700042F080721A6019680A4A8901FBD55368F4
:1004800023F003035360536843F00203536053683F
:1004900003F00C03082BFAD1044B4FF000629A6072
:1004A00002B07047001002400000FFF800ED00E0CD
:1004B00084B0ADF80600BDF806304FF4FA629BB286
:1004C000534301E0039B013B0393039B002BF9D1B2
:1004D00004B0704784B0ADF80600BDF806309BB29A
:1004E0005B0001E0039B013B0393039B002BF9D1CD
:1004F00004B0704710B5074C4FF4804323610220CD
:10050000FFF7E8FF4FF0804302202361BDE8104071
:10051000FFF7E0BF000C014070B50F4C4FF07C4579
:100520004FF4805625612661FFF7E4FF0120FFF7B5
:10053000BFFF25612661FFF7DDFF0120FFF7B8FF50
:100540004FF4806325612361FFF7D4FF0120BDE8EC
:100550007040FFF7ADBF00BF000C0140254B4FF0CE
:100560007C4270B504460D461A6111B14FF4004249
:100570001A61E20644BF4FF400521A611D4B14F099
:10058000200F1CBF4FF480521A61660644BF4FF41F
:1005900000621A61174E14F0800F1CBF4FF4806385
:1005A0003361FFF7A7FF4FF07053E007336103D5C6
:1005B000104B4FF400521A61A10703D50D4B4FF4B5
:1005C00080521A61620703D50A4B4FF400621A6128
:1005D000230703D5074B4FF480621A61FFF78AFFA8
:1005E0000220FFF765FF1DB1024B4FF000421A6178
:1005F00070BD00BF000C0140034610B90820194629
:100600000BE021B90AB90C2003E00D2005E012B976
:100610000E20114601E00F200021FFF79FBF0120AF
:100620000021FFF79BBF08B56420FFF741FFFFF7EC
:1006300073FF012001460022FFF7DEFFBDE80840FE
:10064000FFF7EDBFC0B20121FFF788BF054B18705F
:10065000597011B940F0800002E040F0C000002164
:10066000FFF77CBFA20100202DE9F843894606462A
:10067000DFF86C800127194C29E0B22801D149200C
:1006800011E0AF2801D103200DE0DE2802D10120C6
:10069000014609E0AA2801D1022004E0BF2884BF56
:1006A000404410F8C00C0121FFF758FF237865780B
:1006B0000133DBB2237055B9082B08D1B9F1020F11
:1006C00005D128460121FFF7C1FF2570677016F894
:1006D000010B0028D1D1BDE8F88300BFA2010020A2
:1006E0002401002070B506460D4600240CE00121CF
:1006F000FFF734FF012D06D1E3B2072B03D1002011
:100700002946FFF7A3FF0134305D0028EFD170BD0B
:10071000C00040F0400038B5C0B20D460021FFF7E0
:100720001DFF0024285D01210134FFF717FF082C6D
:10073000F8D180200021BDE83840FFF70FBF2DE938
:10074000F3410025042415271F264FF00E082846E4
:1007500069468DF800408DF803408DF805408DF80E
:1007600001708DF802808DF804508DF806608DF8C8
:100770000760FFF7CDFF012069468DF802408DF834
:1007800006408DF800708DF801808DF803508DF8CB
:1007900004508DF805508DF80760FFF7B9FF02206F
:1007A00069468DF801408DF805408DF800508DF8B0
:1007B00002808DF803708DF804508DF806608DF876
:1007C0000760FFF7A5FF032069468DF800408DF80C
:1007D00003408DF806408DF801808DF802708DF889
:1007E00004508DF805508DF80760FFF791FF204603
:1007F00069468DF800408DF803408DF804408DF86F
:1008000007408DF801808DF802708DF805708DF825
:100810000680FFF77DFF02238DF800300A238DF854
:1008200003308DF804301C2307248DF805308DF833
:1008300006300520082369468DF807308DF8014001
:100840008DF80240FFF764FF0F238DF80030052379
:100850008DF801308DF802308DF803308DF80430BA
:100860000620092369468DF806308DF805708DF84D
:100870000750FFF74DFF11238DF800308DF8013040
:100880008DF802302046012369468DF803608DF80B
:1008900004308DF805308DF806308DF80750FFF7DD
:1008A00037FFBDE8FC810221FFF7DEBE10B504462C
:1008B00008461146FFF7CAFE20460221BDE8104057
:1008C000FFF7D2BE08B5364B5A6822F440725A6020
:1008D0005A6842F400725A605A6822F440625A60C0
:1008E0005A6842F480625A605A6822F440525A6050
:1008F0005A6842F400525A605A6822F440425A60E0
:100900005A6842F480425A605A6822F440325A606F
:100910005A6842F400325A605A6822F440225A60FF
:100920005A6842F480225A605A6822F440125A608F
:100930005A6842F400125A605A6822F440025A601F
:100940005A6842F480025A605A6822F040725A6033
:100950005A6842F000725A605A6822F040625A6047
:100960005A6842F080625A605A6822F040525A60D7
:100970005A6842F000525A605A6822F040425A6067
:100980005A6842F080425A60FFF74DFEFFF747FE7B
:10099000002101200A46BDE80840FFF72DBE00BF38
:1009A000000C0140CB782DE9F04303F00F02DB0689
:1009B00048BF8B780E8848BF1A4316F0FF0F1FD030
:1009C000046800234FF001084FF00F0C08FA03F7FA
:1009D00007EA0605BD420FD19F000CFA07F902FA9B
:1009E00007F724EA09043C43CF78282F01D1456159
:1009F00002E0482F08BF05610133082BE6D10460EF
:100A00000E88FF2E21D9446800234FF001084FF0D3
:100A10000F0C03F1080708FA07F707EA0605BD42BD
:100A20000FD19F000CFA07F902FA07F724EA09042C
:100A30003C43CF78282F01D1456102E0482F08BF01
:100A400005610133082BE4D14460BDE8F08383687D
:100A500019420CBF00200120704702F08FBD18B171
:100A600000210A46FFF722BF704784B0ADF80600A8
:100A7000BDF806304FF416629BB2534301E0039B6E
:100A8000013B0393039B002BF9D104B07047000096
:100A900008B507200121FFF7D9FDFF200121FFF74D
:100AA0005DFD02F06BFD044BC8209A68034B1A6091
:100AB000BDE80840FFF7D9BF04000020CC050020A6
:100AC00010B5044600200146FFF7C0FD0A4B188808
:100AD00000B202F0BFFBFFF7E6FE0848FFF7E3FEB7
:100AE000022C08D1064B1A88064B12B29A64BDE854
:100AF000104002F043BD10BD80050020884400086E
:100B00009C0100200400002010B50446002001468E
:100B1000FFF79CFD0A4B188800B202F09BFBFFF721
:100B2000C2FE0848FFF7BFFE022C08D1064B1A8808
:100B3000064B12B21A65BDE8104002F01FBD10BD91
:100B400080050020884400089E0100200400002049
:100B500010B5044600200146FFF778FD1548FFF761
:100B6000A2FE022C24D102F067FD02F0C3FD044670
:100B700000200146FFF76AFD0F48FFF794FE4FF48F
:100B8000FA60FFF772FF00200146FFF75FFD012CBE
:100B900005D10A48FFF787FE4FF4FA6004E00848E1
:100BA000FFF781FE4FF47A60BDE81040FFF75DBFAC
:100BB00010BD00BF97440008A8440008B9440008CD
:100BC000CA440008022810B50E4C02D12369013333
:100BD00003E0012802D12369013B23610020014683
:100BE000FFF734FD206902F035FBFFF75CFE064895
:100BF000FFF759FE23694FF461625A43034B1A60B1
:100C000010BD00BF04000020DB440008B805002030
:100C1000022810B50D4C02D1236A0A3303E00128E3
:100C200002D1236A0A3B236200200146FFF70EFD32
:100C3000206A0A23B0FBF3F0012102F045FBFFF725
:100C400032FE0348BDE81040FFF72DBE040000202F
:100C5000E0440008022810B50D4C02D1A36A0A3303
:100C600003E0012802D1A36A0A3BA36200200146E7
:100C7000FFF7ECFCA06A0A23B0FBF3F0012102F0BD
:100C800023FBFFF710FE0348BDE81040FFF70BBE43
:100C900004000020E0440008022810B50B4C02D1EB
:100CA000236B013303E0012802D1236B013B236353
:100CB00000200146FFF7CAFC206B02F0CBFAFFF7D9
:100CC000F2FD0348BDE81040FFF7EDBD0400002031
:100CD000E5440008022810B50B4C02D1A36B013388
:100CE00003E0012802D1A36B013BA363002001466E
:100CF000FFF7ACFCA06B02F0ADFAFFF7D4FD0348A0
:100D0000BDE81040FFF7CFBD04000020E544000817
:100D1000022838B51C4C03D1D4F88030013304E0EC
:100D2000012804D1D4F88030013BC4F88030002081
:100D30000146FFF78BFCD4F8800002F08BFAFFF736
:100D4000B2FD1248FFF7AFFDA06A0A250121B0FBF2
:100D5000F5F002F0B9FAFFF7A6FD0D48FFF7A3FD85
:100D6000A36AD4F8800064225843B0FBF2F01B1A47
:100D7000B3FBF5F0012102F0A7FAFFF794FD054857
:100D8000BDE83840FFF78FBD04000020EE440008A6
:100D9000F1440008E044000808B5084B1A68084B05
:100DA0009B689A4209D107200121FFF74FFCFF20E1
:100DB0000121BDE80840FFF7D1BB08BDCC050020EC
:100DC0000400002010B5044600200146FFF73EFC59
:100DD000022C194B06D19A680132082A9A6009D16F
:100DE000012206E0012C05D19A68013A9A600AB9FD
:100DF00007229A60104A9368013B062B18D8DFE857
:100E000003F00406080A0C0E10000C480AE00C4817
:100E100008E00C4806E00C4804E00C4802E00C48EE
:100E200000E00C48FFF73FFDBDE81040FFF7B4BFFE
:100E30000123936010BD00BF04000020F4440008AB
:100E400005450008164500082745000838450008F4
:100E5000494500085A45000810B515481021FFF70C
:100E6000F6FD58B112482021FFF7F1FD40B11048BE
:100E70004021FFF7ECFDB0B9012202E0032200E0BF
:100E800002220C4B40F2DC5019880CB2844203DD84
:100E900040F2B451198004E0013189B2142919805B
:100EA00004D19A7010BD034B00221A8010BD00BF00
:100EB000000C0140A4010020034B0022987800B1EF
:100EC0005A609A70704700BFA401002038B51F48CF
:100ED0000121FFF7C7F9002836D001211B48FFF791
:100EE000CCF91B4B1A8812B2002A07DC194CA568F2
:100EF000188800B202F052FA4519A560144B1A88FE
:100F000012B2012A07DD134CE568188800B202F01E
:100F100045FA4519E5600F4B1A7C012A02D15A693E
:100F200001325A611B7E0B4A012B02D1D369013376
:100F3000D361084B93F82020012A02D15A6A01326A
:100F40005A629A6A01329A6238BD00BF0044014079
:100F500080050020A4010020034B00225A620122D8
:100F600083F82020704700BFA4010020034B00221B
:100F70005A62012283F82020704700BFA40100209C
:100F800038B504464FF46160B4FBF0F002F062F94A
:100F9000054602F009FA012803D81E480121FFF78F
:100FA000A1FB28460121FFF79DFB01211A48FFF70D
:100FB00099FB3C23B4FBF3F2B2FBF3F003FB1020EC
:100FC00002F048F9054602F0EFF9012803D811486C
:100FD0000121FFF787FB01212846FFF783FB012151
:100FE0000D48FFF77FFB3C23B4FBF3F003FB1040FD
:100FF00002F030F9044602F0D7F9012803D8054879
:101000000121FFF76FFB20460121BDE83840FFF7C3
:1010100069BB00BF6B4500080046000838B50446B0
:101020004FF46160B4FBF0F002F014F9054602F0F1
:10103000BBF9012803D812480121FFF753FB012116
:101040002846FFF74FFB01210E48FFF74BFB3C23DF
:10105000B4FBF3F4B4FBF3F003FB104002F0FAF836
:10106000044602F0A1F9012803D805480121FFF741
:1010700039FB20460121BDE83840FFF733BB00BFF4
:101080006B45000800460008094B4FF480321A6196
:101090004FF400321A614FF08072A3F580631A6139
:1010A000044B002283F82C2083F82D20704700BFCA
:1010B000000C0140A4010020074A01234FF4003135
:1010C00013611161054A82F82C3082F82D30044BEF
:1010D0004FF480721A617047000C0140A401002097
:1010E0000008014038B5224B0122054683F82E2026
:1010F000FFF7E2FF022D1F4C02D12368013303E00A
:10110000012D02D12368013B236000200146FFF737
:101110009DFA0221206802F0D7F8FFF7C4FB1648B9
:10112000FFF7C1FB154B164A1888118880B289B2A7
:101130002468144B11B9C3F888100CE0001B118807
:1011400002B222EAE27242F21070424309B292FB0A
:10115000F1F2C3F888200B4BD3F8880002F07AF83C
:10116000FFF7A1FB0848BDE83840FFF79CBB00BF74
:10117000A401002044010020F1440008A001002047
:1011800080050020040000206D45000838B5174B8D
:101190000122054683F82E20FFF78EFF022D144C06
:1011A00002D1A36F013303E0012D02D1A36F013BF4
:1011B000A36700200146FFF749FAA06F02F04AF842
:1011C000FFF771FB0B48FFF76EFB00200121FFF7D3
:1011D0003DFA094B0221188880B202F075F8FFF73A
:1011E00062FB0648BDE83840FFF75DBBA401002064
:1011F00004000020474600087E05002078450008CE
:1012000038B5174B0122054683F82E20FFF754FF0F
:10121000022D144C02D1236F013303E0012D02D1C2
:10122000236F013B236700200146FFF70FFA206F71
:1012300002F010F8FFF737FB0B48FFF734FB0020F4
:101240000121FFF703FA094B0221188880B202F04E
:101250003BF8FFF728FB0648BDE83840FFF723BB03
:10126000A401002004000020474600087C0500205F
:101270007845000838B5174B0122054683F82E2023
:10128000FFF71AFF022D144C02D1A36E013303E0C5
:10129000012D02D1A36E013BA36600200146FFF79A
:1012A000D5F9A06E01F0D6FFFFF7FDFA0B48FFF766
:1012B000FAFA00200121FFF7C9F9094B0221188829
:1012C00080B202F001F8FFF7EEFA0648BDE83840B8
:1012D000FFF7E9BAA40100200400002047460008F7
:1012E000780500207845000838B5174B01220546DF
:1012F00083F82E20FFF7E0FE022D144C02D1A36DDF
:10130000013303E0012D02D1A36D013BA365002051
:101310000146FFF79BF9A06D01F09CFFFFF7C3FAB0
:101320000B48FFF7C0FA01210020FFF78FF9094BA6
:10133000188800B201F08EFFFFF7B5FA0648BDE845
:101340003840FFF7B0BA00BFA4010020040000201D
:1013500047460008800500207C45000838B5284C29
:10136000054600200123014684F82E30FFF76EF970
:1013700094F82C30B3B9234B0221188880B201F0C5
:10138000A3FFFFF790FA2048FFF78DFA1F4B18884C
:1013900000B201F05FFFFFF786FA1D48FFF783FAFE
:1013A0001C4815E01C4B0221188880B201F08CFF0C
:1013B000FFF779FA1448FFF776FA144B188800B251
:1013C00001F048FFFFF76FFA1148FFF76CFA134876
:1013D000FFF769FA022D11D1094C114994F82C003C
:1013E000002202F0F5FA94F82C301BB9BDE8384021
:1013F000FFF762BEBDE83840FFF746BE38BD00BF0C
:10140000A401002078050020F14400088005002098
:1014100081450008854500087C0500208C450008B2
:1014200092450008034B93F82D300BB9FFF744BEEB
:10143000FFF72ABEA4010020084B4FF480321A6146
:1014400002221A61064B012283F82C2083F82F20F8
:10145000044B4FF400621A61704700BF000C01405A
:10146000A40100200008014008B5FFF70DFEBDE80B
:101470000840FFF7E1BF000038B5174B01220546D1
:1014800083F82E20FFF7F0FF022D144C02D1236EBB
:10149000013303E0012D02D1236E013B23660020BE
:1014A0000146FFF7D3F8206E01F0D4FEFFF7FBF9F9
:1014B0000B48FFF7F8F901210020FFF7C7F8094BA7
:1014C000188800B201F0C6FEFFF7EDF90648BDE846
:1014D0003840FFF7E8B900BFA40100200400002055
:1014E00047460008800500207C450008084B4FF463
:1014F00080321A614FF400321A61064B002283F8E1
:101500002C2083F82F20044B4FF000621A617047A3
:10151000000C0140A40100200008014008B5FFF7BD
:10152000E5FFBDE80840FFF7AFBD000038B50F4C40
:101530000F4D23889BB2B3F5AF6F13D2FFF7EEFFC9
:101540002B798BB901232B710A4B9A680A4B1A64C9
:1015500002F014F82088094980B20222BDE8384020
:1015600002F036BA00232B7138BD00BF7E05002083
:1015700044010020A4010020040000209A45000836
:1015800008B508480121FEF76DFE48B10548012164
:10159000FEF773FEFFF760FCBDE80840FFF7C6BF2B
:1015A00008BD00BF0014004038B56F4B012193F80F
:1015B0003020044683F82E103AB91A7483F830109C
:1015C000197683F831209A60DA61684B68491A8885
:1015D000096A92B2644B8A425A8601D3002205E01E
:1015E00093F831200AB99A6A5A63012283F83120AC
:1015F0009A6A5B6B5C4DD31A032B06D995F8313090
:101600001BB1FFF78BFF00232B76022C564B08D122
:1016100093F82C3013B9FFF727FF0FE0FFF77EFF99
:101620000CE0012C0AD193F83820013AD2B283F8A9
:101630003820120602D5032283F838204A4C94F948
:101640003800002835D10146FFF700F8474B02214A
:10165000188880B201F038FEFFF725F94548FFF7FA
:1016600022F9454B188800B201F0F4FDFFF71BF991
:101670004248FFF718F994F82C3013B907200121DC
:1016800005E094F8393007200121052B03D8FEF737
:10169000DDFF022002E0FEF7D9FF03200121FEF763
:1016A000D1FF314B93F839200A2A02D9002283F85E
:1016B00039202D4B93F93840012C13D100200146DD
:1016C000FEF7C4FF2E48FFF7EEF8294B2146186AB3
:1016D0000A23B0FBF3F001F0F7FDFFF7E4F8294827
:1016E000FFF7E1F8204C94F93830022B1AD1002092
:1016F0000146FEF7ABFF2448FFF7D5F81C4B98696D
:101700004FF46163B0FBF3F001F0A4FDFFF7CBF8F9
:101710001E48FFF7C8F803200121FEF797FFE06B92
:10172000FFF77CFC104C94F93850032D1BD100209E
:101730000146FEF78BFF1648FFF7B5F8A0684FF497
:101740006163B0FBF3F001F085FDFFF7ACF81148E1
:10175000FFF7A9F828460121FEF778FFE069BDE808
:101760003840FFF75BBC38BDA40100207C05002099
:1017700004000020F144000880050020A245000874
:10178000AB450008E0440008B7450008BA4500082A
:10179000C3450008C645000808B5274B01220228AA
:1017A00083F82E2007D193F82C3013B9FFF75CFE95
:1017B00001E0FFF7B3FE00200146FEF747FF1F4B95
:1017C0000221188880B201F07FFDFFF76CF81C48F9
:1017D000FFF769F81B4B188800B201F03BFDFFF7DB
:1017E00062F81948FFF75FF8134B93F82C2012B9F1
:1017F0000620012105E093F8393006200121052B50
:1018000007D8FEF723FF02200121FEF71BFF02206D
:1018100006E0FEF71BFF03200121FEF713FF032064
:101820000121FEF70FFF044B93F839200A2A02D951
:10183000002283F8392008BDA40100207C05002087
:10184000F144000880050020CF45000808B5FFF7E7
:101850004DFEBDE80840FFF72FBC000070B5044600
:1018600000200146FEF7F2FE6D4B012293F8301086
:1018700083F82E201D4619B983F83020FFF76CFB42
:10188000684B696A1A6B1D46914201D8FFF7DEFF6B
:10189000634B2A6B596A1D46914201D9FFF7E4FD5B
:1018A000604B696A986B1A6B1D468218914201D988
:1018B000FFF75CFB5C4A2B6A1188154689B2994296
:1018C00001D2FFF753FB2A88564D92B2AB6A9A4277
:1018D00006D9FFF74BFB524B2A6B596A8A185A629A
:1018E000022C4F4B09D193F838200132D2B2032A8F
:1018F00083F838200ED100220AE0012C0AD193F897
:101900003820013AD2B2110683F8382002D50222DB
:1019100083F83820424D95F93840002C32D12046CA
:101920002146FEF793FE404B0221188880B201F059
:10193000CBFCFEF7B8FF3D48FEF7B5FF3C4B1888DF
:1019400000B201F087FCFEF7AEFF3A48FEF7ABFFAE
:1019500006200121FEF77AFE05200121FEF772FE26
:1019600095F82D500720012D05D12946FEF76EFE72
:101970002046294604E00121FEF768FE02200121ED
:10198000FEF760FE264B93F93840012C23D100204E
:10199000244D0146FEF75AFE286901F05BFCFEF774
:1019A00082FF2548FEF77FFF286A0A262146B0FB02
:1019B000F6F001F089FCFEF776FF1C48FEF773FF96
:1019C000A86A2146B0FBF6F001F07EFCFEF76BFF43
:1019D0001A48FEF768FF124C94F93830022B1DD1DB
:1019E0000020104D0146FEF731FE286B01F032FC5D
:1019F000FEF759FF1248FEF756FFA86B01F02AFCCC
:101A0000FEF751FF0F48FEF74EFF03200121FEF7BE
:101A10001DFEE069BDE87040FFF700BB70BD00BF70
:101A2000A4010020040000207C050020F1440008EF
:101A300080050020D6450008DE450008E145000885
:101A400029460008E8450008F8B55C4D012795F8DF
:101A50003060044685F82E70E6B9594B1A88594B08
:101A600092B21B6A9A4207D385F84070FFF7FCFCDC
:101A7000EE61AE602F7606E06E6185F84060EE6044
:101A80002F74FFF7E3FE4D4B012283F830204E48C0
:101A900001F05EFF494B4FF0000293F8401001291E
:101AA00022D11A741976464946480988006A89B2D3
:101AB0008142598605D293F831200AB99A6A5A634D
:101AC000012283F831209A6A5B6B3C4DD31A032BB9
:101AD00029D995F8313033B3FFF7B8FE00236B6195
:101AE00085F84030EB601EE01A7601221A745A69BC
:101AF000364B1B689A4206D8314B1A88314B92B24A
:101B00009B6A9A420FD9FFF7AFFC2C4B0122D9698F
:101B100083F840200022D963DA619868294983F864
:101B2000312088619A60022C244B09D193F8382027
:101B30000132D2B2052A83F838200ED100220AE001
:101B4000012C0AD193F83820013AD2B2100683F85A
:101B5000382002D5042283F83820184D95F93840F2
:101B6000002C42D120462146FEF770FD144B022185
:101B7000188880B201F0A8FBFEF795FE1448FEF726
:101B800092FE144B188800B201F064FBFEF78BFE46
:101B90001148FEF788FE06200121FEF757FD0420BC
:101BA0000121FEF74FFD95F82D500720012D15D18D
:101BB0002946FEF74BFD2046294614E0A4010020EB
:101BC0007C05002004000020ED450008B805002039
:101BD000F144000880050020D64500080121FEF7E9
:101BE00035FD02200121FEF72DFD524B93F93840BF
:101BF000012C23D10020504D0146FEF727FD286916
:101C000001F028FBFEF74FFE4C48FEF74CFE286A19
:101C10000A262146B0FBF6F001F056FBFEF743FE24
:101C20004748FEF740FEA86A2146B0FBF6F001F0F7
:101C30004BFBFEF738FE4348FEF735FE3D4C94F96A
:101C40003850022D21D100200146FEF7FFFC284626
:101C50000121FEF7F7FC00210120FEF7F7FC3A48CE
:101C6000FEF721FEA0684FF46163B0FBF3F001F0D2
:101C7000F1FAFEF718FE3548FEF715FE03200121A4
:101C8000FEF7E4FCE069FFF7C9F92A4C94F93850F3
:101C9000032D22D100200146FEF7D8FC02200121AD
:101CA000FEF7D0FC00210120FEF7D0FC2848FEF70B
:101CB000FAFD214B98694FF46163B0FBF3F001F03A
:101CC000C9FAFEF7F0FD2148FEF7EDFD2846012197
:101CD000FEF7BCFCE06BFFF7A1F9164C94F9383025
:101CE000042B21D100200146FEF7B0FC0020012189
:101CF000FEF7A8FC00210120FEF7A8FC1548FEF71E
:101D0000D2FDE0684FF46163B0FBF3F001F0A2FA9A
:101D1000FEF7C9FD0D48FEF7C6FD03200121FEF7C1
:101D200095FC6069FFF77AF96420BDE8F840FEF79A
:101D30009CBE00BFA401002004000020DE45000876
:101D4000F1440008E1450008C3450008C645000805
:101D5000B7450008FC45000838B58B4B012193F8C6
:101D60003020044683F82E102AB9197483F83010F5
:101D70001A76DA605A615A69844B1B689A4205D90F
:101D8000FFF7CCFB804B00221A7416E08049814A91
:101D90000888936A80B2984202D9FFF7BFFB0CE033
:101DA000D2F8802064205A430988B2FBF0F289B24D
:101DB0009B1A994201D2FFF749FD022C724B08D1C0
:101DC00093F82C3013B9FFF741FD0FE0FFF7A6FBA6
:101DD0000CE0012C0AD193F83820013AD2B2140653
:101DE00083F8382002D5032283F83820664C94F912
:101DF0003800002852D10146FEF728FC94F82C3018
:101E0000A3B9654B0221188880B201F05DFAFEF794
:101E10004AFD6248FEF747FD5D4B0221188880B2FB
:101E200001F052FAFEF73FFD5D4812E0584B0221E7
:101E3000188880B201F048FAFEF735FD5748FEF7E2
:101E400032FD584B188800B201F004FAFEF72BFD62
:101E50005548FEF728FD4C4B93F82C402CB9072031
:101E60000121FEF7F3FB204608E093F83930072004
:101E70000121052B04D8FEF7E9FB0020012103E036
:101E8000FEF7E4FB01200146FEF7DCFB3E4B93F836
:101E900039200A2A02D9002283F839203A4B93F9D3
:101EA0003840012C1BD1002001463A4DFEF7CEFBF5
:101EB0003E48FEF7F8FC286901F0CCF9FEF7F3FC88
:101EC0003B48FEF7F0FCA86A0A23B0FBF3F021467A
:101ED00001F0FAF9FEF7E7FC3148FEF7E4FC2A4B83
:101EE00093F93830022B2BD12A4C00200146FEF703
:101EF000ADFBD4F8800001F0ADF9FEF7D4FC2D481D
:101F0000FEF7D1FCA06A0A250121B0FBF5F001F033
:101F1000DBF9FEF7C8FC2148FEF7C5FCA36AD4F83C
:101F2000800064225843B0FBF2F01B1AB3FBF5F0BB
:101F3000012101F0C9F9FEF7B6FC1948FEF7B3FC20
:101F4000114C94F93850032D19D100200146FEF7A9
:101F50007DFB1948FEF7A7FCE0684FF46163B0FB16
:101F6000F3F001F077F9FEF79EFC1448FEF79BFCB6
:101F700028460121FEF76AFB6069FFF74FF86420ED
:101F8000BDE83840FEF771BDA4010020B80500206F
:101F90007C0500200400002078050020F1440008A2
:101FA000E044000880050020A2450008FF45000825
:101FB00002460008EE440008FC450008C64500083B
:101FC00038B5694B012193F83020044683F82E1070
:101FD0002AB9197483F830101A76DA605A615A698E
:101FE000624B1B689A4206D8614B1A88614B92B2C9
:101FF0009B6A9A4204D9FFF791FA5B4B00221A744C
:10200000022C594B08D193F82C3013B9FFF71EFC62
:102010000FE0FFF783FA0CE0012C0AD193F8382087
:10202000013AD2B283F83820120602D5022283F890
:1020300038204D4C94F93800002852D10146FEF763
:1020400005FB94F82C30A3B94B4B0221188880B2C1
:1020500001F03AF9FEF727FC4848FEF724FC444B10
:102060000221188880B201F02FF9FEF71CFC4448C9
:1020700012E03F4B0221188880B201F025F9FEF7EB
:1020800012FC3E48FEF70FFC3E4B188800B201F0F0
:10209000E1F8FEF708FC3C48FEF705FC324B93F8EC
:1020A0002C402CB907200121FEF7D0FA204608E089
:1020B00093F8393007200121052B04D8FEF7C6FA22
:1020C0000020012103E0FEF7C1FA01200146FEF7DE
:1020D000B9FA254B93F839200A2A02D9002283F84D
:1020E0003920214B93F93840012C1BD100200146A7
:1020F000204DFEF7ABFA2548FEF7D5FB286901F025
:10210000A9F8FEF7D0FB2248FEF7CDFBA86A0A2308
:10211000B0FBF3F0214601F0D7F8FEF7C4FB1D48F1
:10212000FEF7C1FB104C94F93830022B1BD1002074
:102130000146FEF78BFA1848FEF7B5FBE0684FF44E
:102140006163B0FBF3F001F085F8FEF7ACFB1348D8
:10215000FEF7A9FB03200121FEF778FA6069BDE8CC
:102160003840FEF75BBF38BDA4010020B805002051
:102170007C0500200400002078050020F1440008C0
:10218000E145000880050020D6450008FF4500080D
:1021900002460008E0440008FC4500080A46000822
:1021A000034B93F82F300BB9FFF746B9FFF79EB9F1
:1021B000A4010020844B0122022810B583F82E20B0
:1021C0000BD193F841200132D2B2082A83F8412082
:1021D00017D1002283F8412013E0012811D193F890
:1021E0004130023BDBB2012B02D8FFF71BF901E0C3
:1021F000FEF74AFF744B93F94130042B01D1FFF7EE
:10220000CFFF714B93F94100F0B90146FEF71EFA7A
:102210006E48FEF748FB6E4B012118880A2380B2F6
:10222000B0FBF3F001F050F8FEF73DFB6948FEF714
:102230003AFB694B0221188880B201F045F8FEF79D
:1022400032FB6648FEF72FFB5F4B93F94130012BC1
:102250001BD100200146FEF7F9F96148FEF723FB88
:10226000604B0221188880B201F02EF8FEF71BFBAC
:102270005D48FEF718FB5D4BD88880B200F0EAFF9E
:10228000FEF711FB5A48FEF70EFB4F4B93F9413016
:10229000022B1BD100200146FEF7D8F95548FEF766
:1022A00002FB554B0121188880B201F00DF8FEF7B2
:1022B000FAFA4D48FEF7F7FA4C4B988880B200F0D6
:1022C000C9FFFEF7F0FA4A48FEF7EDFA3E4B93F9E4
:1022D0004130032B1AD100200146FEF7B7F94748D9
:1022E000FEF7E1FA464B188800B200F0B3FFFEF7A4
:1022F000DAFA4448FEF7D7FA3C4B588880B200F02F
:10230000A9FFFEF7D0FA3A48FEF7CDFA2E4B93F923
:102310004130042B1AD100200146FEF797F93A48C4
:10232000FEF7C1FA394B188800B200F093FFFEF7B0
:10233000BAFA3448FEF7B7FA2C4B188880B200F08E
:1023400089FFFEF7B0FA2A48FEF7ADFA1E4B93F963
:102350004130052B10D100200146FEF777F92C48BB
:10236000FEF7A1FA2B4BD3F8880000F073FFFEF7BD
:102370009AFA2948FEF797FA134C94F94130062B44
:1023800006D100200146FEF761F9A06AFEF7F8FDCC
:1023900094F94130072B15D100200146FEF756F97C
:1023A0001E48FEF780FA084B586C4FF46163B0FB8F
:1023B000F3F000F04FFFFEF776FA1948BDE8104041
:1023C000FEF771BA10BD00BFA4010020124600083C
:1023D0007E050020174600087A05002046460008C2
:1023E0001C46000878050020F1440008BC050020C8
:1023F00044460008214600087C05002027460008C6
:1024000080050020814500082C4600089E01002020
:102410003346000804000020364600084B460008FA
:1024200052460008F8B500F0BFFDFFF777F801F05D
:1024300061F904469E48FEF736FAFEF780F900205F
:102440000146FEF703F94FF4FA60FEF70EFB34B9CC
:102450009848FEF728FA4FF47A60FEF706FB964C90
:10246000964B226C92485A6423694FF461625A4336
:10247000934B1A60934BA2681A6001F069FAFDF75A
:1024800027FFFEF7CCF89048FDF76AFEA368012B02
:1024900017D0022B01D18D4814E0032B01D18C48B9
:1024A00010E0042B01D18B480CE0052B01D18A48A8
:1024B00008E0062B01D1894804E0072B01D18848A8
:1024C00000E08848FDF734FE7C4D864E002795F8E5
:1024D000393085F82E70013385F83930FEF7ECFC81
:1024E0000228044607D0032809D001280FD1FDF7A0
:1024F00019FE406809E0FDF715FE006805E00220BE
:10250000FDF738FEFDF70EFEC068FDF711FEFDF782
:1025100009FEB04202D12046FEF720FFFDF702FE81
:102520006A4B984202D12046FFF736F9FDF7FAFDD3
:10253000674B984202D12046FFF742FDFDF7F2FDBE
:10254000644B984202D12046FFF706FCFDF7EAFDF6
:10255000614B984202D12046FFF726F8FDF7E2FDD5
:102560005E4B984202D12046FFF76EFAFDF7DAFD86
:102570005B4B984202D12046FFF770F9FDF7D2FD80
:10258000594B984202D12046FFF714FEFDF7CAFDD1
:10259000564B984202D12046FEF7B6FAFDF7C2FD2F
:1025A000534B984202D12046FEF78AFAFDF7BAFD56
:1025B000504B984202D12046FEF75EFFFDF7B2FD78
:1025C0004D4B984202D12046FEF78EFEFDF7AAFD44
:1025D0004A4B984202D12046FEF7D8FDFDF7A2FDF6
:1025E000474B984202D12046FEF70AFEFDF79AFDBE
:1025F000444B984202D12046FEF73CFEFDF792FD87
:10260000414B984202D12046FEF76CFDFDF78AFD52
:102610003E4B984202D12046FEF79AFAFDF782FD22
:102620003B4B984202D12046FEF7CCFAFDF77AFDEB
:10263000384B984202D12046FEF7EAFAFDF772FDC8
:10264000354B984202D12046FEF704FBFDF76AFDA8
:10265000324B984202D12046FEF71EFBFDF762FD89
:102660002F4B984202D12046FEF734FBFDF75AFD6E
:102670002C4B984202D12046FEF74AFBFDF752FD53
:10268000294B984202D12046FEF79CFB95F82E403C
:1026900054B9FEF743FFAA68074B85F830409A61AA
:1026A000EB6985F83840EB636420FEF7DEF90EE74E
:1026B000490100206046000804000020A401002019
:1026C000B8050020CC0500205F0A0008F43B000894
:1026D000203C00084C3C0008783C0008A43C000862
:1026E000D03C0008C83B0008FC3C0008283D00081E
:1026F000543D0008803D0008AC3D0008D83D00086E
:10270000F43D0008203E00084C3E0008683E0008EA
:10271000843E0008B03E0008DC3E0008083F000888
:10272000343F0008603F00088C3F000870B592B04D
:102730007E2312A9002621F8043D48488DF8476001
:10274000FEF730F901214FF4007000F043FB012047
:10275000014600F033FB424B082502934FF480639F
:10276000089380230693202309933E4B3E48019310
:102770004FF48073079301A94FF400530A93049513
:1027800003960B96059600F018FE0121364800F0DE
:1027900032FE4FF4004000F0BFFA01244FF46023F2
:1027A00032480CA90E938DF835400F960C968DF893
:1027B00040508DF8344000F019FC07232B48214687
:1027C000224600F064FC02210A460723274800F055
:1027D0005EFC03210A460723244800F058FC04212C
:1027E0000A460723214800F052FC05210A46072328
:1027F0001E4800F04CFC06210A4607231B4800F047
:1028000046FC204600F092FC07221346174811218F
:1028100000F03DFC2A4604231448102100F037FC48
:102820001248214600F006FC1048214600F00BFC3F
:102830000E4800F011FC0D4800F013FC0028FAD1FE
:102840000A4800F012FC094800F014FC0028FAD1F4
:102850000648012100F012FC12B070BD00080140D2
:10286000BC0500204C240140080002400024014027
:102870001FB50121022000F0B9FA0E4C01A8FDF7A6
:10288000D3FC45F6BF53ADF804302046052301A91B
:10289000ADF80830FDF77EFC01210A462046FDF721
:1028A000D8FC20460121FDF7C8FC034B4FF0005235
:1028B0001A601FBD0004004000E100E0224A234BE3
:1028C00091682DE9F04108319160C91A002808BFCC
:1028D0000120A729C8BF9360936812681E689A42B6
:1028E00008BF194A184C08BF1660194F2268988013
:1028F00015252146BC46D2F800809845B2F80480E0
:1029000008BF1660804503D2086818600B6000207D
:10291000BA42246814D01168D1F800809845B1F803
:10292000048008BF0E60804503D2106818601360F1
:102930000020614504D0013DADB20A68002DDAD116
:10294000A088BDE8F08100BF5C0100200C020020DF
:10295000B4020020234A244B51692DE9F04108318B
:102960005161C91A002808BF0120B1F5A47FA8BF92
:1029700053615369D2681E689A4208BF194A1949BF
:1029800008BFD66051F80C2F184F988029250C46A7
:10299000BC46D2F800809845B2F8048008BF1660A3
:1029A000804503D22068186023600020BA4209687D
:1029B00014D01468D4F800809845B4F8048008BF97
:1029C0002660804503D210681860136000206445BB
:1029D00004D0013DADB22268002DDAD18888BDE86F
:1029E000F08100BF5C010020BC0200200404002034
:1029F000234A244B116A2DE9F04108311162C91AAA
:102A0000002808BF0120B1F5A47FA8BF1362136A94
:102A100092691E689A4208BF194A194908BF96610F
:102A200051F8182F184F988029250C46BC46D2F82B
:102A300000809845B2F8048008BF1660804503D234
:102A40002068186023600020BA42096814D0146816
:102A5000D4F800809845B4F8048008BF266080450B
:102A600003D21068186013600020644504D0013D53
:102A7000ADB22268002DDAD18888BDE8F08100BFB0
:102A80005C0100200C040020540500200F49D1F8FF
:102A90005433D1F85023C1F858339342C1F854232A
:102AA000C1F8500307DC834203DC9042A8BF104604
:102AB00070479A4205DC824203DC9842A8BF184660
:102AC00070479A42B4BF1046184670470C02002067
:102AD0000F49D1F86033D1F85C23C1F864339342D5
:102AE000C1F86023C1F85C0307DC834203DC904239
:102AF000A8BF104670479A4205DC824203DC984228
:102B0000A8BF184670479A42B4BF1046184670478F
:102B10000C0200202DE9F74376480121FDF7A2FBC6
:102B2000002800F0E380744C0121D4F86833714828
:102B30000133C4F86833FDF7A0FB00250220ADF88F
:102B40000450ADF8065000F069FC022000F070FC63
:102B50006A4E02212A466A4800F058FC694BF18807
:102B60009B6E89B24B43B28992B2B3FBF2F39BB234
:102B7000ADF80630BDF8060080B2FFF739FFA4F8C3
:102B80006C03B4F86C334FF4F0229BB2022B98BF65
:102B9000A4F86C53B3895B4D9BB292FBF3F39BB2E9
:102BA000A4F86E33B1882B6F89B24B43B28992B2CD
:102BB000B3FBF2F39BB2ADF80630BDF8060080B26D
:102BC000FFF77CFEA4F87003B4F870234E4B92B26A
:102BD0001A80B4F870339BB2022B03D8464B002204
:102BE000A3F87023454CAB6F2189A28989B24B436E
:102BF00092B2B3FBF2F39BB2ADF80630BDF806001B
:102C0000DFF8F48000B2FFF763FFAB6D80B24FF0E6
:102C10000A09A8F8720309FB03F36188A28989B243
:102C20004B4392B2B3FBF2F39BB2ADF80630BDF862
:102C30000600364F80B2FFF78DFE296E80B23880D5
:102C400009FB01F92288A38992B202FB09F99BB220
:102C5000B9FBF3F91FFA89F9ADF80690BDF8060043
:102C6000284E00B2FFF712FF294B80B2294A188084
:102C70009268920753BF3A881B88326DB36CD31A9F
:102C80009BB2A8F87433B8F870331B4A9BB2ADF806
:102C90000430B8F87433BDF804101BB2002B194B84
:102CA000B2F87423D3F8883012B2B8BF5B425343F2
:102CB00042F21072B3FBF2F3CB1A9BB2ADF80430C0
:102CC000BDF804301BB2022B02DC0023ADF8043047
:102CD000BDF80420084B92B20948A3F870230221E2
:102CE000012203B0BDE8F04300F090BB03B0BDE8A3
:102CF000F08300BF000400400C020020BC0500204F
:102D00000800024004000020A00100209C010020D7
:102D10009E010020000C0140034B5A6822F44042FF
:102D200010435860704700BF0010024010B51F4BA1
:102D30005A6802F00C02042A01D0082A02D01C4B67
:102D4000036011E05A685968C2F383420232C90332
:102D500001D4184B06E0DB6A154903F00F03013379
:102D6000B1FBF3F35A430260104A134B51680468F5
:102D7000C1F30311595C24FA01F141605468C4F3B2
:102D800002241C5D21FA04F484605468C4F3C22454
:102D90001C5D21FA04F1C1605268C2F381329B18B4
:102DA0001B7CB1FBF3F1016110BD00BF00100240BC
:102DB00000127A0000093D0080010020044B5A698E
:102DC00009B1104301E022EA00005861704700BFDA
:102DD00000100240044B9A6909B1104301E022EA55
:102DE00000009861704700BF00100240044BDA6990
:102DF00009B1104301E022EA0000D861704700BF2A
:102E00000010024008B501210820FFF7E3FF214B25
:102E10001A6822F003021A601A6822F00C021A6083
:102E20001A6842F002021A601A6822F00C021A6054
:102E3000194A516821F003015160516821F00C01D9
:102E40005160516841F002015160516821F00C015C
:102E50005160516821F440515160516821F4404162
:102E60005160516841F400515160516821F4404172
:102E700051601A6822F030021A601A6822F0C0020B
:102E80001A601A6842F020021A601A6822F0C00222
:102E90001A6008BD000C01400008014008B5082078
:102EA0000121FFF797FF164B1A6822F440121A60AF
:102EB0001A6822F440021A601A6842F400021A608A
:102EC00020221A611A6822F440321A601A6822F429
:102ED00040221A601A6842F400221A6010221A6115
:102EE0001A6822F040721A601A6822F040621A6072
:102EF0001A6842F000621A6040221A6108BD00BFE1
:102F0000000C01401FB501212020FFF76FFF0E4C80
:102F100001A8FDF789F940F65F13ADF804302046AB
:102F20000A2301A9ADF80830FDF734F901210A465A
:102F30002046FDF78EF920460121FDF77EF9034B6F
:102F40004FF400025A601FBD0014004000E100E091
:102F50001FB501214FF40030FFF73CFF01A8FDF73A
:102F600063F90F4C0023ADF8063045F6BF53ADF8BA
:102F7000043020464FF47A7301A9ADF80830FDF70C
:102F800009F901210A462046FDF763F9204601218F
:102F9000FDF753F9034B4FF000721A601FBD00BFDD
:102FA0000044014000E100E008B504200121FFF7E2
:102FB00011FF08200121FFF70DFF10200121FFF76D
:102FC00009FFFDF77FFC00F023FCFFF71BFFFFF775
:102FD00065FFFFF797FFFFF74BFCFFF7B9FFFFF720
:102FE00011FFBDE80840FFF7A1BB000043680A6875
:102FF00023F4702323F4807313430A7910B543EA52
:10300000022343608A68CB6884681A43084B2340D4
:1030100013434A7943EA420383600B7CC26A013B53
:1030200022F47002DBB242EA0353C36210BD00BF58
:10303000FDF7F1FF836811B143F0010301E023F0D4
:10304000010383607047836811B143F4807301E02A
:1030500023F4807383607047836843F008038360C0
:1030600070478068C0F3C0007047836843F0040372
:10307000836070478068C0F380007047836811B137
:1030800043F4A00301E023F4A003836070470929FF
:1030900070B54FF003040DD94C4307251E3C05FACB
:1030A00004F503FA04F3C66826EA050545EA0304B5
:1030B000C4600BE04C43072505FA04F503FA04F459
:1030C000066926EA050545EA04030361062A4FF06E
:1030D00005030CD8013A53431F2202FA03F201FA06
:1030E00003F3446B24EA02021343436370BD0C2ACA
:1030F0000DD853431F22233B02FA03F201FA03F1D6
:10310000046B24EA020242EA0103036370BD5343E5
:103110001F22413B02FA03F201FA03F1C46A24EAD6
:10312000020242EA0103C36270BD0000044B9A68C8
:1031300010B142F4000201E022F400029A607047EC
:103140000024014030B5038ACA8823F440531B048D
:103150001B0C134303820D4683890989AA8823F433
:10316000B0530A43698923F00C030A431B041B0C68
:1031700092B213438381838AAA8923F440731B0488
:103180001B0C87B013430446838201A8FFF7CEFDD2
:10319000174BA2899C420CBF049B039B12B2002ACE
:1031A0004FF019012A6801FB03F101DA520000E037
:1031B00092006423B1FBF2F1B1FBF3F212011009AA
:1031C00003FB1011A08900B2002806DAC9003231D1
:1031D000B1FBF3F303F0070305E009013231B1FB62
:1031E000F3F303F00F031A4392B2228107B030BD0C
:1031F00000380140838919B19BB243F4005303E0C6
:1032000023F400531B041B0C83817047C1F342134A
:1032100010B5012401F01F01A34204FA01F101D10C
:103220000C3004E0022B01D1103000E014300368B0
:103230000AB1194301E023EA0101016010BDC9058B
:10324000C90D81807047038819420CBF00200120FE
:10325000704700007FB580EAE072A2EBE0720DF1EA
:10326000FF3500230A2492FBF4F104FB11223032D3
:1032700005F8012F1E4601330A1EDBB2F3DC0028DD
:1032800007DA5BB204A8C3182D2203F8102CB31C74
:10329000DBB25AB204A88118002001F8100C68446F
:1032A0008118074811F8014C013BDBB2013900F8E5
:1032B000014F002BF6D10348835404B070BD00BF0A
:1032C0008F05002090050020F0B58BB080EAE073F8
:1032D000A3EBE0730DF1FF3600220A2593FBF5F412
:1032E00005FB1433303306F8013F17460132231E25
:1032F000D2B2F3DC53B20AADEC180025012B04F86E
:10330000285C04D13023BA1C8DF80130D2B2022AD5
:1033100005D1012903D930238DF80230032200247E
:103320000DF1280C23460CEB01062E2552B25FB29C
:103330008F4203D1013306F8145CDBB25FB20DF1AA
:10334000280C67441DF804C0013407F814CC67B298
:1033500001339742DBB2EADB002807DA5AB20AA946
:103360008A1801332D2102F8141CDBB259B205ADC5
:10337000084800226C1804E0A55C013B00F8015FDE
:10338000DBB2013A002BF7D1034841180B7410301F
:103390000BB0F0BD9F05002090050020002802D052
:1033A00001DC404200B270470346002001E00130DA
:1033B000C0B21A5C002AFAD170478B6810B50C6A4B
:1033C000026823430C6922F4FE4223434C6922F035
:1033D000F00223438C692343CC6923434C6A234383
:1033E0008C6A234313430360CB6843600B6883609C
:1033F0004B68C36010BD19B1036843F0010303E0DB
:1034000002684FF6FE7313400360704703680AB109
:10341000194301E023EA010101607047C2004CBF7B
:10342000014B024B5860704700040240000002400C
:10343000C3004CBF014B024B586070470004024070
:1034400000000240C37810B5F3B1154B4178DB683A
:103450008478DB43C3F30223C3F1040201FA02F1CF
:103460000F2222FA03F222400A430E4B0178120186
:10347000CB18D2B283F8002303780122590903F054
:103480001F0302FA03F307E003780122590903F04E
:103490001F0302FA03F32031024A42F8213010BD23
:1034A00000ED00E000E100E00F4AD36813F0010FE7
:1034B0000D4BFAD1DA68920601D52022DA601A693A
:1034C00042F002021A6158611A6942F040021A6120
:1034D000054AD168044B8906FBD52022DA601A69B7
:1034E00022F002021A61704700200240034B044A96
:1034F0005A6002F188325A60704700BF00200240D3
:1035000023016745024B1A6942F080021A61704735
:1035100000200240124AD36813F0010F104BFAD179
:10352000DA68920601D52022DA601A6942F00102B7
:103530001A618BB203800A4BDA6812F0200F084A36
:10354000FAD02023090CD3604180D168044B89064E
:10355000FBD52022DA601A6922F001021A61704755
:10356000002002400068884201D3904203D9024BF8
:1035700000221A70084670479401002010B52C4CA8
:10358000FFF7B4FF6068FFF78FFF60682168FFF7FF
:10359000C1FFE068A168FFF7BDFF60692169FFF71F
:1035A000B9FFE069A169FFF7B5FF606A216AFFF71B
:1035B000B1FFE06AA16AFFF7ADFF606B216BFFF717
:1035C000A9FFE06BA16BFFF7A5FF606C216CFFF713
:1035D000A1FFE06CA16CFFF79DFF606D216DFFF70F
:1035E00099FFE06DA16DFFF795FF606E216EFFF70B
:1035F00091FFE06EA16EFFF78DFF606F216FFFF707
:1036000089FFE06FA16FFFF785FFD4F88400D4F83D
:103610008010FFF77FFFD4F88C00D4F88810FFF7F4
:1036200079FFFFF76FFF034800F092F9012010BD0A
:10363000040000207146000810B52C4CFFF756FF1F
:103640006068FFF731FF60682168FFF763FFE0689B
:10365000A168FFF75FFF60692169FFF75BFFE06921
:10366000A169FFF757FF606A216AFFF753FFE06A1D
:10367000A16AFFF74FFF606B216BFFF74BFFE06B19
:10368000A16BFFF747FF606C216CFFF743FFE06C15
:10369000A16CFFF73FFF606D216DFFF73BFFE06D11
:1036A000A16DFFF737FF606E216EFFF733FFE06E0D
:1036B000A16EFFF72FFF606F216FFFF72BFFE06F09
:1036C000A16FFFF727FFD4F88400D4F88010FFF72C
:1036D00021FFD4F88C00D4F88810FFF71BFFFFF708
:1036E00011FF034800F034F9012010BD94000020C0
:1036F0007F46000810B5404C01210A22E068FFF720
:1037000031FF0121A0604FF47A726069FFF72AFF50
:1037100000212061394AE069FFF724FF0121A061FF
:103720004FF47A62606AFFF71DFF012120624FF4B7
:103730007A62E06AFFF716FF0021A06242F210727F
:10374000606BFFF70FFF0021206342F21072E06B05
:10375000FFF708FF0021A063284A606CFFF702FF13
:10376000002120644FF47A72E06CFFF7FBFE002129
:10377000A0644FF47A72606DFFF7F4FE0A212065B1
:103780001F4AE06DFFF7EEFE0A21A0651C4A606E3D
:10379000FFF7E8FE0A212066194AE06EFFF7E2FE15
:1037A0000A21A066164A606FFFF7DCFE0A21206737
:1037B000134AE06FFFF7D6FE0021A0676422D4F819
:1037C0008400FFF7CFFE0021C4F8800042F210729F
:1037D000D4F88C00FFF7C6FE0A4BC4F888001C78AA
:1037E00024B9094800F0B4F8204610BD074800F09D
:1037F000AFF8012010BD00BF0400002040420F00C0
:10380000A08601009401002099460008B2460008F5
:1038100030B54FF4164387B0009300231C46ADF833
:103820000430ADF80630ADF80830ADF80C300420A7
:103830000C230121ADF80A30FFF7CCFA01214FF437
:103840008040FFF7C7FA4FF4C063154DADF8103054
:1038500018238DF8133004A9032312488DF8123071
:10386000FDF7A0F869462846FFF76CFC25238DF884
:1038700014308DF816402223012405A88DF8153048
:103880008DF81740FFF7DEFD28462146FFF7B2FC12
:10389000284640F225512246FFF7B8FC07B030BD5C
:1038A00000380140000801400A4B1A78C72A0FD897
:1038B0005A78094988541A780132D2B21A705A7863
:1038C0000132D2B25A705A78C82A01D100225A70F5
:1038D000704700BFB1050020D005002010B5194C7D
:1038E0002388980603D5A088C0B2FFF7DDFF2388A0
:1038F000144A19061AD5144B997889B1D978134806
:10390000415C91809A78013AD2B29A70DA780132A9
:10391000D2B2DA70DA78C82A08D10022DA7005E06B
:10392000938923F080031B041B0C9381054A1388A1
:103930005B0605D5138823F040031B041B0C138082
:1039400010BD00BF00380140B105002098060020DE
:1039500010B504460AE00D488021FFF774FC0028EA
:10396000F9D014F8011B0948FFF769FC2378002BF4
:10397000F1D106488021FFF766FC0028F9D0034802
:103980000A21BDE81040FFF75ABC00BF00380140D3
:1039900082B0064B8DF807001A885206FCD59DF8B8
:1039A0000720024B9A8002B0704700BF00380140E8
:1039B000064B1A4605E019884906FCD510F8011B8C
:1039C000918001780029F6D1704700BF003801408E
:1039D00037B501900C46019812B9FFF73BFC02E0A5
:1039E0001146FFF771FC05462046FFF7E1FF284628
:1039F000FFF7DEFF0A2003B0BDE83040FFF7C8BF85
:103A000000000000000000000000000000000000B6
:103A1000000000000000000044656661756C74568B
:103A2000616C75657346726F6D454570726F6D4F51
:103A3000724E6F7441667465724275726E696E671C
:103A4000203D004F7074696F6E31203D00426174FB
:103A500074657279436170616369747944697363F1
:103A6000686172676550726576696F757356616CCF
:103A70007565203D004C6F77566F6C7461676520EB
:103A80003D004D6178566F6C74616765203D005351
:103A900077696E675F436872675F74696D65203D23
:103AA000005377696E675F44436872675F74696D3E
:103AB00065203D0042617474657279436170616391
:103AC000697479446973636861726765437572727A
:103AD000656E74203D0043616C6962726174696F48
:103AE0006E3056616C7565466F7243757272656EA5
:103AF00074203D0043616C6962726174696F6E305D
:103B000056616C7565466F7243757272656E74317D
:103B1000203D0043616C6962726174696F6E566129
:103B20006C7565466F7243757272656E74203D00E8
:103B300043616C6962726174696F6E56616C756520
:103B4000466F7243757272656E7431203D00436139
:103B50006C6962726174696F6E56616C7565466FEF
:103B600072566F6C74616765203D0043616C6962D9
:103B7000726174696F6E56616C7565466F72566FCF
:103B80006C7461676531203D0043616C69627261EC
:103B900074696F6E56616C7565466F72566F6C74A2
:103BA00061676532203D0043686172676541646109
:103BB0007074203D00526573697374616E63654370
:103BC0006F6D70203D000000003A0008003A0008C8
:103BD000003A000830440008000000000000000027
:103BE00020202020202020202020202020202020D5
:103BF00000000000003A0008003A0008003A0008FF
:103C000004440008000000000000000020202020E4
:103C10002020202020202020202020200000000024
:103C2000003A0008003A0008003A0008D8430008AB
:103C30000000000000000000202020202020202084
:103C4000202020202020202000000000003A000832
:103C5000003A0008003A0008AC43000800000000E9
:103C600000000000202020202020202020202020D4
:103C70002020202000000000003A0008003A000840
:103C8000003A000880430008000000000000000027
:103C90002020202020202020202020202020202024
:103CA00000000000003A0008003A0008003A00084E
:103CB00054430008000000000000000020202020E5
:103CC0002020202020202020202020200000000074
:103CD000003A0008003A0008003A000828430008AB
:103CE00000000000000000002020202020202020D4
:103CF000202020202020202000000000003A000882
:103D0000003A0008003A0008FC42000800000000E9
:103D10000000000020202020202020202020202023
:103D20002020202000000000003A0008003A00088F
:103D3000003A000818410008000000005B0A000873
:103D40002020202020202020202020202020202073
:103D500000000000003A0008003A0008003A00089D
:103D600044410008000000005B0A000820202020D9
:103D700020202020202020202020202000000000C3
:103D8000003A0008003A0008003A0008C040000865
:103D9000000000005B0A00082020202020202020B6
:103DA000202020202020202000000000003A0008D1
:103DB000003A0008003A0008EC400008000000004B
:103DC0005B0A000820202020202020202020202006
:103DD0002020202000000000003A0008003A0008DF
:103DE000003A00083C400008000000005B0A0008A0
:103DF00000000000003A0008003A0008003A0008FD
:103E000068400008000000005B0A00082020202015
:103E10002020202020202020202020200000000022
:103E2000003A0008003A0008003A000894400008F0
:103E3000000000005B0A0008202020202020202015
:103E4000202020202020202000000000003A000830
:103E5000003A0008003A0008104000080000000086
:103E60005B0A000800000000003A0008003A000861
:103E7000003A0008E43F00080000000000000000D5
:103E800000000000003A0008003A0008003A00086C
:103E9000A4420008000000005B0A00082020202047
:103EA0002020202020202020202020200000000092
:103EB000003A0008003A0008003A0008784200087A
:103EC000000000005B0A0008202020202020202085
:103ED000202020202020202000000000003A0008A0
:103EE000003A0008003A00084C42000800000000B8
:103EF0005B0A0008202020202020202020202020D5
:103F00002020202000000000003A0008003A0008AD
:103F1000003A000820420008000000005B0A000888
:103F20002020202020202020202020202020202091
:103F300000000000003A0008003A0008003A0008BB
:103F4000F4410008000000005B0A00082020202047
:103F500020202020202020202020202000000000E1
:103F6000003A0008003A0008003A0008C84100087A
:103F7000000000005B0A00082020202020202020D4
:103F8000202020202020202000000000003A0008EF
:103F9000003A0008003A00089C41000800000000B8
:103FA000910A0008202020202020202020202020EE
:103FB000202020200000000044410008E43F0008C9
:103FC000003A0008D0420008000000000000000095
:103FD0004F4B20746F2065786974202020202020AA
:103FE00000000000B83F000810400008003A000838
:103FF000683E000800000000000000004261636BA2
:1040000020746F20466163746F7279200000000095
:10401000E43F00083C400008003A00084C3E00081D
:104020000000000000000000526573697374206393
:104030006F6D7020355631410000000010400008BF
:1040400068400008003A0008D83D00080000000061
:1040500000000000566F6C7461676520496E202077
:1040600020202020000000003C4000089440000870
:10407000003A0008F43D00080000000000000000C5
:10408000566F6C74616765204F7574202020202066
:104090000000000068400008C0400008003A000826
:1040A000203E00080000000000000000566F6C7405
:1040B0006167652050532020202020200000000050
:1040C00094400008EC400008003A0008803D0008D9
:1040D000000000000000000043555252454E54209D
:1040E0004C6F61642020202000000000C0400008C8
:1040F00018410008003A0008AC3D0008000000002C
:104100000000000043555252454E54204F75742014
:104110002020202000000000EC400008444100085E
:10412000003A0008283D00080000000000000000E0
:1041300043555252454E54204C6F616420746F3089
:104140000000000018410008B83F0008003A0008CD
:10415000543D00080000000000000000435552528A
:10416000454E54204F757420746F203000000000BD
:10417000A44200089C410008003A00085C44000882
:1041800000000000000000004F4B20746F20657895
:1041900069742020202020200000000070410008C9
:1041A000C8410008003A00088C3F000800000000E9
:1041B0000000000030373A53617665204D656E751A
:1041C00020506F73000000009C410008F44100087B
:1041D000003A0008603F00080000000000000000F6
:1041E00030363A4368617267652061646461707457
:1041F00000000000C841000820420008003A000802
:10420000343F0008000000000000000030353A5341
:10421000776E67446973436872672054000000003A
:10422000F44100084C420008003A0008083F00082A
:10423000000000000000000030343A5377696E67D8
:10424000204368726720546D00000000204200087F
:1042500078420008003A0008DC3E00080000000038
:104260000000000030333A4D617820566F6C746165
:1042700067652020000000004C420008A4420008AE
:10428000003A0008B03E00080000000000000000F6
:1042900030323A4C6F7720566F6C7461676520201E
:1042A000000000007842000870410008003A000851
:1042B000843E0008000000000000000030313A4356
:1042C00068617267652074696D65202000000000D8
:1042D0005C440008FC420008003A00084441000821
:1042E000000000000000000043414C49425241548C
:1042F000494F4E202020202000000000D04200081E
:1043000028430008003A0008FC3C000800000000B8
:1043100000000000444941474E4F53544943202078
:104320002020202000000000FC4200085443000828
:10433000003A0008D03C0008000000000000000027
:104340005377696E67202020202020202020202005
:10435000000000002843000880430008003A0008DD
:10436000A43C0008000000000000000054726169D5
:104370006E696E6720202020202020200000000091
:1043800054430008AC430008003A0008783C000899
:104390000000000000000000446973436861726718
:1043A00065202020202020200000000080430008FD
:1043B000D8430008003A00084C3C00080000000008
:1043C0000000000043686172676520616464617089
:1043D0007420202000000000AC43000804440008C2
:1043E000003A0008203C0008000000000000000027
:1043F0004368617267652043432043562020202094
:1044000000000000D843000830440008003A0008CB
:10441000F43B000800000000000000004C6F6164E5
:10442000202020202020202020202020000000000C
:10443000044400085C440008003A0008C83B000837
:104440000000000000000000506F77657253757027
:10445000706C7920202020200000000030440008EB
:10446000D0420008003A0008A44200080000000002
:104470000000000053657474696E6773202020206B
:1044800020202020000000006D41203E3E2073656A
:1044900074203020202000466163746F72792D7083
:1044A00072657373203E3E00496E2050726F6363E5
:1044B000657373202E2E2E2E00466163746F727901
:1044C00020617265204F4B202000454570726F6D52
:1044D0002072656164204641494C0068202020001C
:1044E0005620202000207365632E202020002520E8
:1044F00000562000506F776572537570706C79208C
:1045000020202020004C6F6164204D656E752020B6
:1045100020202020200043686172676520434320EB
:104520004356202020200043686172676520616443
:10453000646170742020200044697343686172676D
:10454000652020202020202000547261696E696E51
:10455000672020202020202020005377696E6720CC
:10456000202020202020202020200030006D4F6DB2
:104570002020202020202000562020006D412020D7
:10458000006D4120004F4646202020004F4E202045
:10459000200053656C6563743A0055206F66663A77
:1045A00020006D41202020202020004F66665768A3
:1045B000656E2056623C005020006D41682020202E
:1045C0002020004E20006D41482020202020006D3A
:1045D0004120202020006D41202020202000682044
:1045E00000562020202020007320202000547261DB
:1045F000696E696E6720496E69742000432000541B
:104600003A0068204D6178563A006D4148202020DC
:10461000200055696E3D002055633D0055707320A4
:1046200000556F757420004970732000496C6F61EC
:10463000642000523D006D4F6D202020202020205E
:1046400020202020202020202020004F6C642043A8
:104650003D006D41682020202020202020202000C7
:10466000454570726F6D2052656164204641494C2A
:1046700000454570726F6D20777269746520004641
:104680006163746F7279454570726F6D57726974AA
:1046900065207772697465200052656164206672D6
:1046A0006F6D20454570726F6D202D204641494C3D
:1046B0002000526561642066726F6D2045457072FE
:0D46C0006F6D202D2053554343455353008B
:1046CD00003A00080000000000F0010800000000A2
:1046DD0004F001080000000008F0010800000000CF
:1046ED000CF001080000000010F0010800000000AF
:1046FD0014F001080000000018F00108000000008F
:10470D001CF001080000000020F00108000000006E
:10471D0024F001080000000028F00108000000004E
:10472D002CF001080000000030F00108000000002E
:10473D0034F001080000000038F00108000000000E
:10474D003CF001080000000040F0010800000000EE
:10475D0044F001080100000000F001080100000014
:10476D0004F001080F00000008F00108000000002F
:10477D000CF001081A04000010F00108AA05000051
:10478D0014F001080A00000018F001080A000000EA
:10479D001CF001080000000020F0010800000000DE
:1047AD0024F001080000000028F001089B00000023
:1047BD002CF001089B00000030F0010833050000CB
:1047CD0034F001083305000038F00108330500000E
:1047DD003CF001080A00000040F0010883000000D1
:1047ED0044F001084103423B3F455D337B404B069E
:1047FD004D484F5C50435460245805075B5F036977
:10480D0004020100D6010000015053203330562020
:10481D0033412076312E353700010000B4020020DF
:10482D00000000000C020020040400200000000025
:10483D00BC02002054050020000000000C040020E4
:10484D000000000001020304010203040607080929
:08485D0002040608010000003E
:0400000508000000EF
:00000001FF
