:020000040800F2
:10000000B00F002085020008CD020008CD020008D4
:10001000CD020008CD020008CD020008000000005B
:10002000000000000000000000000000CD020008F9
:10003000CD02000800000000CD020008CD0200083B
:10004000CD020008CD020008CD020008CD02000854
:10005000CD020008CD020008CD020008CD02000844
:10006000CD020008CD020008CD020008CD02000834
:10007000CD020008CD020008CD020008CD02000824
:10008000CD020008CD020008CD02000800000000EB
:10009000000000000000000000000000CD02000889
:1000A000CD0200084D120008CD020008CD02000864
:1000B000CD020008C530000800000000CD02000895
:1000C000CD0200080000000000000000CD02000882
:1000D0000000000085470008CD0200080000000075
:1000E000CD020008CD020008CD020008000000008B
:1000F0000000000000000000000000000000000000
:1001000000000000000000000000000000000000EF
:100110000000000000000000CD0200081D190008CA
:100120005FF808F1014B1868704700BF000000201D
:10013000084B10B598420BD050B1074B074C1B68C9
:1001400020600BB11830984723681B6903B19847AA
:1001500010BD00BF2C4900086C02002000000020E8
:10016000024B1860024B1868FFF7E2BF6C020020D8
:100170000000002008B5054B054A1B68934203D0D8
:1001800013B15B6903B1984708BD00BF00000020B0
:100190002C490008224A038890429BB212D002F5F3
:1001A000006290420ED0B0F1804F0BD0A2F5983291
:1001B000904207D002F58062904203D002F580623F
:1001C000904203D14A8823F070031343154A9042AA
:1001D00008D002F58062904204D023F44073CA88AC
:1001E0009BB2134303808B8883850B8803850C4B5C
:1001F00098420FD003F5006398420BD003F540639B
:10020000984207D003F58063984203D003F58063DA
:10021000984201D10B7A038601238382704700BF85
:10022000002C0140001000404FF6FF738380002334
:100230000380C380438003727047038819B19BB267
:1002400043F0010303E023F001031B041B0C0380B4
:10025000704783899BB20AB1194301E023EA010187
:1002600081817047038A828911EA030092B203D028
:1002700011420CBF002001207047C94389B201829E
:100280007047000008B50C4A0C4B0D4903E052F8CA
:10029000040B43F8040B8B42F9D30A480A494FF088
:1002A00000028842B8BF40F8042BFADB00F0E0F906
:1002B000BDE8084002F058BB3B5B0008000000208E
:1002C0006C0200206C020020B00B0020FEE7000052
:1002D000F8B5454D0646286803F090FA2B681121C1
:1002E0000024594304E00A19AA1801341371E4B236
:1002F000035D3D4A002BF6D11368112159430819BB
:1003000010183A25057104E00F2C09D80D1955195C
:10031000287116F8010B0134E4B20028F4D10DE085
:10032000112202FB034230498A180021117105E0B5
:100330001819081801340271E4B203E011222A49A5
:10034000534320220F2C284DF2D900222046274962
:1003500004F092FA2B68112202FB034401332A199C
:100360000024332B14712B6033D92E46204603F022
:1003700045FA11210023614304E0CF18EF1901333E
:100380003A71DBB2C25C002AF7D1112202FB0432BF
:100390003A21B2181171E2B2092A01D9013300E001
:1003A0000233112204F10A0102FB04F0DBB24A43DA
:1003B00005E0D718EF193F7901330F71DBB2C1188F
:1003C00069180F79002FF4D101342A2CCED1064BB5
:1003D0001C6003F039FD044B054918680022BDE894
:1003E000F84004F049BA00BF9006002044490008D4
:1003F000494900082DE9F8434B4F054638680E4639
:1004000003F0FCF93B6811210024594304E00A1968
:10041000BA1801341371E4B2035D434A002BF6D1DC
:1004200013681121594308191018067104E00F2CA4
:1004300009D80F19D719387115F8010B0134E4B236
:100440000028F4D10DE0112202FB034236498A183C
:100450000021117105E01819081801340271E4B285
:1004600003E011223049534320220F2C2E4DF2D9A4
:10047000002220462D4904F0FFF92B68112202FBCF
:10048000034401332A190024332B14712B6040D903
:100490000A27A846204603F0B1F94FF0110E0023B9
:1004A0000EFB04FE05E00EEB0301691801330A712F
:1004B000DBB2C25C1121002AF5D101FB04F27943C1
:1004C000D018404401330671DBB294465FFA84FED3
:1004D000681810E0BEF1090F05D901EB0309A94422
:1004E00099F8049003E000EB030999F805900133B3
:1004F00082F80490DBB20CEB0302AA1892F8049085
:10050000B9F1000FE6D1013401372A2CC2D1064BD4
:100510001C6003F099FC044B054918680022BDE8F3
:10052000F84304F0A9B900BF900600204449000830
:100530004949000810B5384C00222068374904F0BA
:100540009BF9A0680022364904F096F92069002240
:10055000344904F091F9A0690022334904F08CF980
:10056000206A0022314904F087F9A06A002230494C
:1005700004F082F9206B00222E4904F07DF9A06B73
:1005800000222D4904F078F9206C00222B4904F058
:1005900073F9A06C00222A4904F06EF9206D002244
:1005A000284904F069F9A06D0022274904F064F994
:1005B000206E0022254904F05FF9A06E0022244934
:1005C00004F05AF9206F0022224904F055F9D4F8BA
:1005D00088000022204904F04FF9A06F1F49002233
:1005E00004F04AF9D4F8800000221D4904F044F9CF
:1005F000D4F8900000221B4904F03EF9D4F898008A
:100600000022194904F038F9D4F8A0001749002253
:10061000BDE8104004F030B9040000204D49000846
:10062000604900087E4900089D490008BA49000851
:10063000D8490008F5490008134A0008314A000863
:100640004F4A0008674A00087B4A0008944A00089D
:10065000A14A0008AE4A0008BB4A0008C94A00087F
:10066000DB4A0008EE4A00080A4B0008324B00083B
:10067000314B82B01A6842F001021A6059682F4A61
:100680000A405A601A6822F0847222F480321A609A
:100690001A6822F480221A605A6822F4FE025A6014
:1006A0004FF41F029A600022DA62009201921A68E7
:1006B00042F480321A601A6802F400320192009A01
:1006C00001320092019A1AB9009AB2F5A06FF2D1E4
:1006D000194B1B6813F4003318BF01230193019BCE
:1006E000012B23D1144B5A685A605A685A605A68D1
:1006F0005A605A6822F47C125A605A6842F498127E
:100700005A601A6842F080721A6019680A4A8901B0
:10071000FBD5536823F003035360536843F002038F
:100720005360536803F00C03082BFAD1044B4FF0CD
:1007300000629A6002B07047001002400000FFF8AB
:1007400000ED00E084B0ADF80600BDF806304FF4CF
:10075000FA629BB2534301E0039B013B0393039B6B
:10076000002BF9D104B0704784B0ADF80600BDF895
:1007700006309BB25B0001E0039B013B0393039BAC
:10078000002BF9D104B0704710B5074C4FF48043EB
:1007900023610220FFF7E8FF4FF08043022023612E
:1007A000BDE81040FFF7E0BF000C014070B50F4CF2
:1007B0004FF07C454FF4805625612661FFF7E4FF3A
:1007C0000120FFF7BFFF25612661FFF7DDFF012054
:1007D000FFF7B8FF4FF4806325612361FFF7D4FF73
:1007E0000120BDE87040FFF7ADBF00BF000C014025
:1007F000254B4FF07C4270B504460D461A6111B18D
:100800004FF400421A61E20644BF4FF400521A61ED
:100810001D4B14F0200F1CBF4FF480521A61660666
:1008200044BF4FF400621A61174E14F0800F1CBFD2
:100830004FF480633361FFF7A7FF4FF07053E00779
:10084000336103D5104B4FF400521A61A10703D551
:100850000D4B4FF480521A61620703D50A4B4FF4D7
:1008600000621A61230703D5074B4FF480621A61B7
:10087000FFF78AFF0220FFF765FF1DB1024B4FF023
:1008800000421A6170BD00BF000C0140034610B960
:10089000082019460BE021B90AB90C2003E00D200D
:1008A00005E012B90E20114601E00F200021FFF7EC
:1008B0009FBF01200021FFF79BBF08B56420FFF711
:1008C00041FFFFF773FF012001460022FFF7DEFF23
:1008D000BDE80840FFF7EDBFC0B20121FFF788BFB8
:1008E000054B1870597011B940F0800002E040F0DB
:1008F000C0000021FFF77CBF760200202DE9F843FD
:1009000089460646DFF86C800127194C29E0B22899
:1009100001D1492011E0AF2801D103200DE0DE28EC
:1009200002D10120014609E0AA2801D1022004E0F9
:10093000BF2884BF404410F8C00C0121FFF758FFC6
:10094000237865780133DBB2237055B9082B08D1C1
:10095000B9F1020F05D128460121FFF7C1FF25702B
:10096000677016F8010B0028D1D1BDE8F88300BFED
:1009700076020020FC01002070B506460D460024DA
:100980000CE00121FFF734FF012D06D1E3B2072B64
:1009900003D100202946FFF7A3FF0134305D002872
:1009A000EFD170BDC00040F0400038B5C0B20D4678
:1009B0000021FFF71DFF0024285D01210134FFF70E
:1009C00017FF082CF8D180200021BDE83840FFF740
:1009D0000FBF2DE9F3410025042415271F264FF0F2
:1009E0000E08284669468DF800408DF803408DF8C2
:1009F00005408DF801708DF802808DF804508DF857
:100A000006608DF80760FFF7CDFF012069468DF87D
:100A100002408DF806408DF800708DF801808DF849
:100A200003508DF804508DF805508DF80760FFF7DE
:100A3000B9FF022069468DF801408DF805408DF818
:100A400000508DF802808DF803708DF804508DF8F9
:100A500006608DF80760FFF7A5FF032069468DF853
:100A600000408DF803408DF806408DF801808DF828
:100A700002708DF804508DF805508DF80760FFF76F
:100A800091FF204669468DF800408DF803408DF8AF
:100A900004408DF807408DF801808DF802708DF8C4
:100AA00005708DF80680FFF77DFF02238DF800307A
:100AB0000A238DF803308DF804301C2307248DF8A9
:100AC00005308DF806300520082369468DF807307B
:100AD0008DF801408DF80240FFF764FF0F238DF879
:100AE000003005238DF801308DF802308DF8033089
:100AF0008DF804300620092369468DF806308DF8FC
:100B000005708DF80750FFF74DFF11238DF8003069
:100B10008DF801308DF802302046012369468DF8AA
:100B200003608DF804308DF805308DF806308DF8AF
:100B30000750FFF737FFBDE8FC810221FFF7DEBE5B
:100B400010B5044608461146FFF7CAFE20460221AA
:100B5000BDE81040FFF7D2BE08B5364B5A6822F404
:100B600040725A605A6842F400725A605A6822F41D
:100B700040625A605A6842F480625A605A6822F4AD
:100B800040525A605A6842F400525A605A6822F43D
:100B900040425A605A6842F480425A605A6822F4CD
:100BA00040325A605A6842F400325A605A6822F45D
:100BB00040225A605A6842F480225A605A6822F4ED
:100BC00040125A605A6842F400125A605A6822F47D
:100BD00040025A605A6842F480025A605A6822F011
:100BE00040725A605A6842F000725A605A6822F0A5
:100BF00040625A605A6842F080625A605A6822F035
:100C000040525A605A6842F000525A605A6822F0C4
:100C100040425A605A6842F080425A60FFF74DFEE7
:100C2000FFF747FE002101200A46BDE80840FFF714
:100C30002DBE00BF000C0140CB782DE9F04303F03E
:100C40000F02DB0648BF8B780E8848BF1A4316F0A8
:100C5000FF0F1FD0046800234FF001084FF00F0C66
:100C600008FA03F707EA0605BD420FD19F000CFA08
:100C700007F902FA07F724EA09043C43CF78282F42
:100C800001D1456102E0482F08BF05610133082BFF
:100C9000E6D104600E88FF2E21D9446800234FF06E
:100CA00001084FF00F0C03F1080708FA07F707EAED
:100CB0000605BD420FD19F000CFA07F902FA07F7AB
:100CC00024EA09043C43CF78282F01D1456102E092
:100CD000482F08BF05610133082BE4D14460BDE80B
:100CE000F083836819420CBF00200120704703F095
:100CF0006DBC000008B503F0AFFC0248BDE8084039
:100D0000FFF7E6BA6C54000818B100210A46FFF755
:100D100017BF704710B50F4C49F6AF23226890B04B
:100D20009A4214D90BA9606802F06DFF20684FF455
:100D30006163B0FBF3F001A902F09AFD06490BAA2A
:100D400006AB02F0CCFE06A80221FFF753FB10B061
:100D500010BD00BF780200207854000884B0ADF8C0
:100D60000600BDF806304FF416629BB2534301E013
:100D7000039B013B0393039B002BF9D104B0704705
:100D800008B507200121FFF7ABFDFF200121FFF788
:100D90002FFD03F01BFC044BC8209A68034B1A601C
:100DA000BDE80840FFF7DABF540000201C0A00200D
:100DB000022838B51E4B09D11A891E49013292B258
:100DC00009681A8112B28A4213D310E0012810D1A7
:100DD0001A89013A92B21A81120403D5154A12688F
:100DE000013A1A81124BB3F90820002A01DA0022D5
:100DF0001A8100200F4C0146FFF772FD0C4D23466F
:100E000053F8040BB5F908200138801A112202FBAF
:100E10000030FFF792FEB5F908000022064903F002
:100E20002BFD206805490022BDE8384003F024BDB1
:100E300078020020900600207C54000889540008A5
:100E400010B5044600200146FFF74AFD0A4B1888FA
:100E500000B202F0D3FCFFF770FE0848FFF76DFE0A
:100E6000022C08D1064B1A88064B12B29A60BDE8D4
:100E7000104003F0F1BB10BD520600209C54000846
:100E8000700200200400002010B504460020014636
:100E9000FFF726FD0A4B188800B202F0AFFCFFF7FF
:100EA0004CFE0848FFF749FE022C08D1064B1A8871
:100EB000064B12B21A61BDE8104003F0CDBB10BD65
:100EC000520600209C5400087202002004000020FA
:100ED00010B5044600200146FFF702FD1648FFF753
:100EE0002CFE022C27D103F0AFFA03F073FA04466C
:100EF00000200146FFF7F4FC1048FFF71EFE4FF4F8
:100F0000FA60FFF72BFF00200146FFF7E9FC012CF8
:100F100008D10B48FFF711FE0A48FFF7D9F94FF443
:100F2000FA6004E00848FFF708FE4FF47A60BDE875
:100F30001040FFF713BF10BDAB540008BC540008AD
:100F4000CD540008DE540008ED540008022810B506
:100F50000E4C02D12369013303E0012802D1236939
:100F6000013B236100200146FFF7BAFC206902F033
:100F700045FCFFF7E2FD0648FFF7DFFD23694FF46C
:100F800061625A43034B1A6010BD00BF5400002039
:100F9000FE540008080A0020022810B50D4C02D1AA
:100FA000A3690A3303E0012802D1A3690A3BA361C4
:100FB00000200146FFF794FCA0690A23B0FBF3F080
:100FC000012102F08FFCFFF7B8FD0348BDE8104097
:100FD000FFF7B3BD5400002003550008022810B5E8
:100FE0000D4C02D1236A0A3303E0012802D1236A9F
:100FF0000A3B236200200146FFF772FC206A0A23A5
:10100000B0FBF3F0012102F06DFCFFF796FD034801
:10101000BDE81040FFF791BD5400002003550008C3
:10102000022810B50B4C02D1A36A013303E001285A
:1010300002D1A36A013BA36200200146FFF750FCE6
:10104000A06A02F0DBFBFFF778FD0348BDE8104023
:10105000FFF773BD5400002008550008022810B5A2
:101060000B4C02D1236B013303E0012802D1236B27
:10107000013B236300200146FFF732FC206B02F0A6
:10108000BDFBFFF75AFD0348BDE81040FFF755BD13
:101090005400002008550008022838B51A4C02D127
:1010A000A36B013303E0012802D1A36B013BA363CF
:1010B00000200146FFF714FCA06B02F09FFBFFF736
:1010C0003CFD1248FFF739FD206A0A250121B0FBDB
:1010D000F5F002F007FCFFF730FD0D48FFF72DFD9E
:1010E000236AA06B64225843B0FBF2F01B1AB3FBD7
:1010F000F5F0012102F0F6FBFFF71FFD0548BDE802
:101100003840FFF71ABD00BF5400002011550008F9
:10111000145500080355000808B5084B1A68084B19
:101120009B689A4209D107200121FFF7D9FBFF20D4
:101130000121BDE80840FFF75BBB08BD1C0A002089
:101140005400002010B5044600200146FFF7C8FBFC
:10115000022C194B06D19A680132082A9A6009D1EB
:10116000012206E0012C05D19A68013A9A600AB979
:1011700007229A60104A9368013B062B18D8DFE8D3
:1011800003F00406080A0C0E10000C480AE00C4894
:1011900008E00C4806E00C4804E00C4802E00C486B
:1011A00000E00C48FFF7C9FCBDE81040FFF7B4BFF2
:1011B0000123936010BD00BF5400002017550008A4
:1011C00028550008395500084A5500085B550008A5
:1011D0006C5500087D55000810B515481021FFF723
:1011E00080FD58B112482021FFF77BFD40B1104827
:1011F0004021FFF776FDB0B9012202E0032200E0B2
:1012000002220C4B40F2DC5059890CB2844203DDBF
:1012100040F2B451598104E0013189B21429598155
:1012200004D11A7310BD034B00225A8110BD00BFB8
:10123000000C014078020020034B0022187B00B113
:101240001A611A73704700BF7802002038B51F4832
:101250000121FFF707F8002837D001211B48FFF7CD
:101260000CF81B4B1A8812B2012A07DC194C2568AE
:10127000188800B202F00BFC45192560144B1A883F
:1012800012B2022A07DD134C6569188800B202F019
:10129000FEFB451965610F4B1A7E012A02D1DA69FE
:1012A0000132DA6193F820300A4A012B02D15368E7
:1012B00001335360074B93F82120012A02D15A6A67
:1012C00001325A629A6A01329A6238BD0044014082
:1012D0005206002078020020034B00225A620122AD
:1012E00083F82120704700BF78020020034B0022C2
:1012F0005A62012283F82120704700BF7802002043
:1013000038B504464FF46160B4FBF0F002F076FAB1
:10131000054602F0C2FB012803D812480121FFF75D
:101320002BFB01212846FFF727FB01210E48FFF781
:1013300023FB3C23B4FBF3F4B4FBF3F003FB1040BA
:1013400002F05CFA044602F0A8FB012803D8054825
:101350000121FFF711FB20460121BDE83840FFF7CE
:101360000BBB00BF8E5500089E560008094B4FF47A
:1013700080321A614FF400321A614FF08072A3F587
:1013800080631A61044B002283F82C2083F82D20FF
:10139000704700BF000C014078020020074A01237B
:1013A0004FF4003113611161054A82F82C3082F844
:1013B0002D30044B4FF480721A617047000C0140CD
:1013C000780200200008014038B52D4B0122054667
:1013D00083F82E20FFF7E2FF022D2A4C02D123884A
:1013E000013303E0012D02D12388013B238000203B
:1013F0000146FFF775FA0221208802F073FAFFF721
:101400009CFB2148FFF799FB204B214A1888138841
:1014100080B21BB2002B21881E4B01DC46220AE061
:10142000401A118802B222EAE27242F2107042437C
:1014300009B292FBF1F2174C1A64206C02F0DEF94B
:10144000FFF77BFB1448FFF778FB144B19880F4B11
:1014500089B21A880E4B92B2188800B2002801DCBB
:101460000A230AE0891A1A880BB223EAE37342F2CC
:1014700010714B4312B293FBF2F3A36438BD00BF6B
:10148000780200201C02002014550008740200207D
:101490005206002004000020905500084C06002051
:1014A00038B5174B0122054683F82E20FFF776FF4B
:1014B000022D144C02D1A36B013303E0012D02D1A4
:1014C000A36B013BA36300200146FFF709FAA06B61
:1014D00002F094F9FFF731FB0B48FFF72EFB0020D9
:1014E0000121FFF7FDF9094B0221188880B202F0B3
:1014F000F9F9FFF722FB0648BDE83840FFF71DBBAE
:1015000078020020040000208A55000850060020C0
:101510009B55000838B5174B0122054683F82E204D
:10152000FFF73CFF022D144C02D1236B013303E083
:10153000012D02D1236B013B236300200146FFF7FD
:10154000CFF9206B02F05AF9FFF7F7FA0B48FFF7D3
:10155000F4FA00200121FFF7C3F9094B0221188892
:1015600080B202F0BFF9FFF7E8FA0648BDE838405C
:10157000FFF7E3BA78020020040000208A55000833
:10158000540600209B55000838B5174B012205462C
:1015900083F82E20FFF702FF022D144C02D1A36A1C
:1015A000013303E0012D02D1A36A013BA3620020B5
:1015B0000146FFF795F9A06A02F020F9FFF7BDFA9E
:1015C0000B48FFF7BAFA00200121FFF789F9094B10
:1015D0000221188880B202F085F9FFF7AEFA0648BA
:1015E000BDE83840FFF7A9BA7802002004000020C7
:1015F0008A5500084C0600209B55000838B5174B4B
:101600000122054683F82E20FFF7C8FE022D144C58
:1016100002D1A369013303E0012D02D1A369013B8B
:10162000A36100200146FFF75BF9A06902F0E6F82C
:10163000FFF783FA0B48FFF780FA01210020FFF73C
:101640004FF9094B188800B202F0D8F8FFF775FA85
:101650000648BDE83840FFF770BA00BF78020020A6
:10166000040000208A550008520600209F550008FB
:1016700070B52D4D06460124002085F82E40014608
:10168000FFF72EF995F82C50F5B9284B0221188850
:1016900080B202F027F9FFF750FA2548FFF74DFA1C
:1016A00029460720FFF71CF9224B188800B202F0E8
:1016B000A5F8FFF742FA2048FFF73FFA0520214638
:1016C000FFF70EF91D481DE01D4B0221188880B25E
:1016D00002F008F9FFF731FA1548FFF72EFA00215A
:1016E0000720FFF7FDF8134B188800B202F086F8C8
:1016F000FFF723FA1348FFF720FA06202146FFF7E9
:10170000EFF81148FFF719FA022E0BD1064B93F8A8
:101710002C301BB9BDE87040FFF740BEBDE87040FB
:10172000FFF724BE70BD00BF780200204C060020E9
:101730009B55000852060020A4550008BF5500081C
:1017400054060020AA550008B1550008034B93F831
:101750002D300BB9FFF722BEFFF708BE780200203C
:10176000084B4FF480321A6102221A61064B0122A3
:1017700083F82C2083F82F20044B4FF400621A6169
:10178000704700BF000C01407802002000080140B3
:1017900008B5FFF7EBFDBDE80840FFF7E1BF00002B
:1017A00038B5174B0122054683F82E20FFF7F0FFCE
:1017B000022D144C02D1236A013303E0012D02D122
:1017C000236A013B236200200146FFF789F8206A63
:1017D00002F014F8FFF7B1F90B48FFF7AEF9012159
:1017E0000020FFF77DF8094B188800B202F006F8D8
:1017F000FFF7A3F90648BDE83840FFF79EB900BFE0
:1018000078020020040000208A55000852060020BB
:101810009F550008084B4FF480321A614FF4003294
:101820001A61064B002283F82C2083F82F20044BEA
:101830004FF000621A617047000C014078020020EE
:101840000008014008B5FFF7E5FFBDE80840FFF7D5
:101850008DBD0000294B30B51B8891B09BB2B3F50C
:10186000FA6F274C46D2FFF7EDFFA378002B43D148
:10187000244D0123A3702B68234C236102F076FED4
:1018800002222069214902F0F7FF2A6849F6AF23B6
:101890009A4214D90BA9686802F0B5F920694FF48F
:1018A0006163B0FBF3F001A901F0E2FF18490BAA54
:1018B00006AB02F014F906A80221FEF79BFD0F4CBF
:1018C0000A23208801A980B2B0FBF3F0012202F0C4
:1018D00073F806AA01460F4802F0E8F8FEF7F8FC94
:1018E00020880D4980B2022202F0C6FF0A20FFF7CD
:1018F00035FAF5E70023A37011B030BD5006002083
:101900001C0200207802002094000020B555000839
:1019100078540008BA550008C455000808B50848AE
:101920000121FEF79FFC48B105480121FEF7A5FC07
:10193000FFF752FCBDE80840FFF78CBF08BD00BFB1
:101940000014004038B5834B012193F83020054640
:1019500083F82E1042B91A7683F8301083F82020CD
:1019600083F831201A605A607B4B7C491A88896958
:1019700092B2784B8A425A8601D3002205E093F84E
:1019800031200AB99A6A5A63012283F831209A6A8F
:101990005B6B704CD31A032B07D994F8313023B109
:1019A000FFF750FF002384F82030022D694C0CD142
:1019B00094F82C301BB9FFF7EBFE012302E0FFF790
:1019C00041FF002384F820300CE0012D0AD194F867
:1019D0003830013BDBB2190684F8383002D50323D6
:1019E00084F838305B4C94F93800002835D1014632
:1019F000FEF776FF584B0221188880B201F072FF83
:101A0000FFF79BF85648FFF798F8564B188800B236
:101A100001F0F4FEFFF791F85348FFF78EF894F8C1
:101A20002C3013B90720012105E094F83930072044
:101A30000121052B03D8FEF753FF022002E0FEF739
:101A40004FFF03200121FEF747FF424B93F8392057
:101A50000A2A02D9002283F839203E4B93F93840F4
:101A6000012C13D100200146FEF73AFF3F48FFF753
:101A700064F83A4B214698690A23B0FBF3F001F071
:101A800031FFFFF75AF83A48FFF757F8314C94F90D
:101A90003830022B1AD100200146FEF721FF3548CD
:101AA000FFF74BF8344B98684FF46163B0FBF3F0E9
:101AB00001F0A4FEFFF741F83048FFF73EF803209D
:101AC0000121FEF70DFFE06BFFF71AFC214C94F9A2
:101AD0003850032D19D100200146FEF701FF284898
:101AE000FFF72BF820684FF46163B0FBF3F001F0CF
:101AF00085FEFFF722F82348FFF71FF8284601214B
:101B0000FEF7EEFE6068FFF7FBFB124C002294F834
:101B100030001D4902F0B0FE94F82E0000221B494F
:101B200002F0AAFE207E0022194902F0A5FEE0691B
:101B30000022184902F0A0FE94F820000022164965
:101B400002F09AFE606815490022BDE8384002F0B4
:101B500093BE00BF780200205406002054000020ED
:101B60001455000852060020CC550008D555000831
:101B700003550008E155000894000020E4550008D2
:101B8000B2550008ED550008F65500080456000847
:101B9000275600083C5600084C56000864560008BA
:101BA00008B5274B0122022883F82E2007D193F88D
:101BB0002C3013B9FFF7ECFD01E0FFF743FE0020E6
:101BC0000146FEF78DFE1F4B0221188880B201F0FE
:101BD00089FEFEF7B2FF1C48FEF7AFFF1B4B1888CB
:101BE00000B201F00BFEFEF7A8FF1948FEF7A5FFB3
:101BF000134B93F82C2012B90620012105E093F82D
:101C0000393006200121052B07D8FEF769FE022096
:101C10000121FEF761FE022006E0FEF761FE0320CF
:101C20000121FEF759FE03200121FEF755FE044B6A
:101C300093F839200A2A02D9002283F8392008BDF6
:101C40007802002054060020145500085206002097
:101C5000AA55000808B5FFF7DDFDBDE80840FFF70D
:101C60009DBB000070B5044600200146FEF738FE1B
:101C70006C4B012293F8301083F82E201D4619B9C1
:101C800083F83020FFF728FB6A6A674D654EAB6A20
:101C90009A420DD8FFF7DEFF644B1A882B6A92B286
:101CA0009A4205D9FFF722FB726AAB6AD3187362B6
:101CB0005C4B5D4D596AAA6A1E46914209D9FFF7ED
:101CC00067FD5A4B1A88AB6992B29A4201D2FFF76C
:101CD0000DFB554B726A196B9B6ACB189A4201D95E
:101CE000FFF704FB022C4F4B09D193F83820013247
:101CF000D2B2032A83F838200ED100220AE0012C48
:101D00000AD193F83820013AD2B2100683F838206D
:101D100002D5022283F83820424D95F93840002C34
:101D200032D120462146FEF7DBFD404B02211888C8
:101D300080B201F0D7FDFEF700FF3D48FEF7FDFE43
:101D40003C4B188800B201F059FDFEF7F6FE3A4808
:101D5000FEF7F3FE06200121FEF7C2FD052001215A
:101D6000FEF7BAFD95F82D500720012D05D1294623
:101D7000FEF7B6FD2046294604E00121FEF7B0FD3E
:101D800002200121FEF7A8FD264B93F93840012CD3
:101D900023D10020244D0146FEF7A2FD286901F061
:101DA0002DFDFEF7CAFE2548FEF7C7FEA8690A26E4
:101DB0002146B0FBF6F001F095FDFEF7BEFE1C4893
:101DC000FEF7BBFE286A2146B0FBF6F001F08AFD63
:101DD000FEF7B3FE1A48FEF7B0FE124C94F9383005
:101DE000022B1DD10020104D0146FEF779FDA86A97
:101DF00001F004FDFEF7A1FE1248FEF79EFE286BDF
:101E000001F0FCFCFEF799FE0F48FEF796FE03205A
:101E10000121FEF765FD6068BDE87040FFF770BA0C
:101E200070BD00BF7802002054000020540600203E
:101E3000145500085206002077560008C2590008C1
:101E40007F560008B456000886560008F8B55E4D67
:101E5000012795F83060044685F82E70EEB95B4B8B
:101E60001A885B4B92B29B699A4208D385F84070FE
:101E7000FFF78EFC6E602E6085F8207006E0EE6144
:101E800085F840606E612F76FFF7E4FE4E4B01222D
:101E900083F830204F4802F0AFFC4B4B4FF000026C
:101EA00093F84010012923D11A7683F8201047496E
:101EB00047480988806989B28142598605D293F8DA
:101EC00031200AB99A6A5A63012283F831209A6A4A
:101ED0005B6B3D4DD31A032B2AD995F831303BB3B8
:101EE000FFF7B8FE0023EB6185F840306B611FE01F
:101EF00083F8202001221A76DA69374B1B689A4250
:101F000006D8324B1A88324B92B21B6A9A420FD9CA
:101F1000FFF73EFC2C4B0122596883F84020002239
:101F2000D9635A6018682D4983F8312088601A6097
:101F3000022C254B09D193F838200132D2B2052A60
:101F400083F838200ED100220AE0012C0AD193F840
:101F50003820013AD2B2140683F8382002D5042280
:101F600083F83820184D95F93840002C45D120468B
:101F70002146FEF7B5FC154B0221188880B201F00E
:101F8000B1FCFEF7DAFD1648FEF7D7FD154B1888B1
:101F900000B201F033FCFEF7D0FD1348FEF7CDFD93
:101FA00006200121FEF79CFC04200121FEF794FC91
:101FB00095F82D500720012D18D12946FEF790FCE9
:101FC0002046294617E000BF780200205406002072
:101FD000540000208B560008080A002094000020BE
:101FE0001455000852060020775600080121FEF71C
:101FF00077FC02200121FEF76FFC524B93F9384029
:10200000012C23D10020504D0146FEF769FC2869C0
:1020100001F0F4FBFEF791FD4C48FEF78EFDA86938
:102020000A262146B0FBF6F001F05CFCFEF785FDC8
:102030004748FEF782FD286A2146B0FBF6F001F022
:1020400051FCFEF77AFD4348FEF777FD3D4C94F9CD
:102050003850022D21D100200146FEF741FC2846D0
:102060000121FEF739FC00210120FEF739FC3A4836
:10207000FEF763FD20684FF46163B0FBF3F001F0FD
:10208000BDFBFEF75AFD3548FEF757FD0320012141
:10209000FEF726FC6068FFF733F92A4C94F93850B4
:1020A000032D22D100200146FEF71AFC0220012157
:1020B000FEF712FC00210120FEF712FC2848FEF773
:1020C0003CFD284B98684FF46163B0FBF3F001F0DE
:1020D00095FBFEF732FD2148FEF72FFD2846012132
:1020E000FEF7FEFBE06BFFF70BF9164C94F9383066
:1020F000042B21D100200146FEF7F2FB0020012134
:10210000FEF7EAFB00210120FEF7EAFB1648FEF786
:1021100014FD60694FF46163B0FBF3F001F06EFBF6
:10212000FEF70BFD0D48FEF708FD03200121FEF729
:10213000D7FBE069FFF7E4F86420BDE8F840FEF75C
:102140000DBE00BF7802002054000020C2590008D4
:10215000145500087F560008B2550008ED550008D8
:10216000E1550008940000209A56000838B59C4BB1
:10217000012193F83020054683F82E1032B91A76E3
:1021800083F8301083F820205A61DA61DA69954BC0
:10219000934C1B689A4206D89349944A0888136A5C
:1021A00080B2984203D9FFF74DFB00230CE0926BFD
:1021B00064205A430988B2FBF0F289B29B1A994213
:1021C00003D2FFF747FD01232376022D844C0BD168
:1021D00094F82C301BB9FFF73DFD012302E0FFF717
:1021E00031FB002323760CE0012D0AD194F838301E
:1021F000013BDBB21D0684F8383002D5032384F896
:102200003830774C94F93800002852D10146FEF757
:1022100067FB94F82C30A3B9754B0221188880B263
:1022200001F060FBFEF789FC7248FEF786FC6E4BFE
:102230000221188880B201F055FBFEF77EFC6E4843
:1022400012E0694B0221188880B201F04BFBFEF7C7
:1022500074FC6848FEF771FC684B188800B201F006
:10226000CDFAFEF76AFC6648FEF767FC5C4B93F814
:102270002C402CB907200121FEF732FB204608E054
:1022800093F8393007200121052B04D8FEF728FBED
:102290000020012103E0FEF723FB01200146FEF7A9
:1022A0001BFB4F4B93F839200A2A02D9002283F8EE
:1022B00039204B4B93F93840012C1BD100200146AB
:1022C0004A4DFEF70DFB4F48FEF737FC286901F039
:1022D00095FAFEF732FC4C48FEF72FFC286A0A23D9
:1022E000B0FBF3F0214601F0FDFAFEF726FC424870
:1022F000FEF723FC3A4B93F93830022B29D13B4CA3
:1023000000200146FEF7ECFAA06B01F077FAFEF729
:1023100014FC3E48FEF711FC206A0A250121B0FB9F
:10232000F5F001F0DFFAFEF708FC3248FEF705FC95
:10233000236AA06B64225843B0FBF2F01B1AB3FB74
:10234000F5F0012101F0CEFAFEF7F7FB2A48FEF77F
:10235000F4FB234C94F93850032D19D10020014689
:10236000FEF7BEFA2A48FEF7E8FB60694FF46163A6
:10237000B0FBF3F001F042FAFEF7DFFB2548FEF771
:10238000DCFB28460121FEF7ABFAE069FEF7B8FF57
:10239000134C6420FEF7E2FC94F8300000221E4942
:1023A00002F06AFA94F82E0000221C4902F064FA46
:1023B000207E00221A4902F05FFAE06900221949E2
:1023C00002F05AFA94F820000022174902F054FA59
:1023D000606816490022BDE8384002F04DBA00BFDF
:1023E00078020020080A0020540600205400002033
:1023F0004C06002014550008035500085206002022
:10240000CC5500089D560008A0560008115500083C
:102410009A560008ED550008F655000804560008C5
:10242000275600083C5600084C5600086456000821
:1024300038B57C4B012193F83020054683F82E10E7
:1024400032B91A7683F8301083F820205A61DA61A5
:10245000DA69754B1B689A4206D8744B1A88744B1C
:1024600092B21B6A9A4204D9FFF7ECF96D4B002235
:102470001A76022D6B4C0BD194F82C301BB9FFF758
:10248000E9FB012302E0FFF7DDF9002323760CE0EE
:10249000012D0AD194F83830013BDBB284F8383092
:1024A0001B0602D5022384F838305E4C94F93800BC
:1024B000002852D10146FEF713FA94F82C30A3B944
:1024C0005C4B0221188880B201F00CFAFEF735FB54
:1024D0005948FEF732FB554B0221188880B201F0B3
:1024E00001FAFEF72AFB554812E0504B02211888EA
:1024F00080B201F0F7F9FEF720FB4F48FEF71DFB15
:102500004F4B188800B201F079F9FEF716FB4D48E1
:10251000FEF713FB434B93F82C402CB90720012105
:10252000FEF7DEF9204608E093F839300720012154
:10253000052B04D8FEF7D4F90020012103E0FEF7B3
:10254000CFF901200146FEF7C7F9364B93F8392041
:102550000A2A02D9002283F83920324B93F93840F5
:10256000012C1BD100200146314DFEF7B9F9364848
:10257000FEF7E3FA286901F041F9FEF7DEFA334885
:10258000FEF7DBFA286A0A23B0FBF3F0214601F0DC
:10259000A9F9FEF7D2FA2E48FEF7CFFA214C94F9AA
:1025A0003830022B19D100200146FEF799F929484D
:1025B000FEF7C3FA60694FF46163B0FBF3F001F01A
:1025C0001DF9FEF7BAFA2448FEF7B7FA03200121F5
:1025D000FEF786F9E069FEF793FE124C002294F8AC
:1025E00030001E4902F048F994F82E0000221C49E0
:1025F00002F042F9207E00221A4902F03DF9E0691A
:102600000022194902F038F994F8200000221749F5
:1026100002F032F9606816490022BDE8384002F045
:102620002BB900BF78020020080A002054060020C1
:10263000540000204C060020145500087F56000866
:1026400052060020775600089D560008A056000844
:10265000035500089A560008E4550008F65500088E
:1026600004560008275600083C5600084C5600083F
:1026700064560008034B93F82F300BB9FFF770B87E
:10268000FFF7C8B878020020F0B59B4B0122022862
:1026900087B083F82E200BD193F841200132D2B2BB
:1026A000082A83F8412017D1002283F8412013E043
:1026B000012811D193F84130023BDBB2012B02D843
:1026C000FFF744F801E0FEF751FE8B4B93F94130E0
:1026D000042B01D1FFF7CEFF874B93F94100F0B9EE
:1026E0000146FEF7FDF88548FEF727FA844B0121E5
:1026F00018880A2380B2B0FBF3F001F0F3F8FEF77C
:102700001CFA8048FEF719FA7F4B0221188880B224
:1027100001F0E8F8FEF711FA7C48FEF70EFA764B66
:1027200093F94130012B1BD100200146FEF7D8F868
:102730007748FEF702FA774B0221188880B201F041
:10274000D1F8FEF7FAF97448FEF7F7F9734BD88819
:1027500080B201F053F8FEF7F0F97148FEF7EDF999
:10276000654B93F94140022C1BD100200146FEF736
:10277000B7F86C48FEF7E1F96B4B2146188880B238
:1027800001F0B0F8FEF7D9F96348FEF7D6F9634BCC
:10279000988880B201F032F8FEF7CFF96048FEF772
:1027A000CCF9554B93F94130032B1AD10020014647
:1027B000FEF796F85D48FEF7C0F95D4B188800B249
:1027C00001F01CF8FEF7B9F95A48FEF7B6F9534B79
:1027D000588880B201F012F8FEF7AFF95048FEF7C2
:1027E000ACF9454B93F94130042B1AD10020014636
:1027F000FEF776F85048FEF7A0F9504B188800B263
:1028000000F0FCFFFEF799F94A48FEF796F9434BB2
:10281000188880B200F0F2FFFEF78FF94048FEF70B
:102820008CF9354B93F94130052B3BD1394D444C54
:10283000FEF7B4FD2988238889B29BB23C4FCB1A9E
:1028400042F210714B433A883E4E12B2002093FB85
:10285000F2F30146B364FEF743F83B48FEF76DF927
:10286000306C00F0CBFFFEF768F93848FEF765F9E9
:10287000B06C00F0C3FFFEF760F93548FEF75DF974
:102880003888344900B2002201F0F6FF2888324926
:1028900080B2022201F0F0FF2088304980B202228B
:1028A00001F0EAFF144C94F94130062B09D10020C5
:1028B0000146FEF715F801A9A06A01F033F9FEF709
:1028C0003CF90D4C94F94130072B12D10020014600
:1028D000FEF706F82248FEF730F9606C4FF46163AA
:1028E000B0FBF3F000F08AFFFEF727F91D48FEF772
:1028F00024F907B0F0BD00BF78020020A8560008F8
:1029000050060020AD5600084E06002089550008EC
:10291000B25600084C060020145500080C0A00208E
:1029200087550008B756000854060020BD56000819
:1029300052060020C3560008C75600087202002045
:102940007402002004000020CE560008D156000872
:10295000D6560008DE560008E2560008E956000880
:10296000F1560008F8560008F8B53F4D002400F075
:10297000EFFDFEF767FF3D482C60FEF7DEF8FEF73F
:1029800028F821462046FDF7ABFF4FF4FA60FEF72A
:10299000E5F901F089FA2B68332B88BF2C6001F030
:1029A00019FD80B94FF47A70FEF7D8F901F012FDE5
:1029B00048B92F48FEF7C1F84FF47A60FEF7CEF918
:1029C0002C48FDF785FC2C4B2C4C1A692C4B2748C6
:1029D0005A6423694FF461625A432A4B1A602A4BA6
:1029E000A2681A6001F008FFFDF7A4FDFDF761FF82
:1029F0002648FDF7B5FBA368012B17D0022B01D1A8
:102A0000234814E0032B01D1224810E0042B01D10C
:102A100021480CE0052B01D1204808E0062B01D10C
:102A20001F4804E0072B01D11E4800E01E48FDF7B7
:102A30007FFB134D1C4E002795F8393085F82E701A
:102A4000013385F83930FEF7F7FB0228044607D03A
:102A500003282BD0012831D1FDF764FB40682BE01F
:102A6000FDF760FB006827E0900600201F020020B1
:102A70000657000817570008940000205400002053
:102A800078020020080A00201C0A0020090D000816
:102A9000804B0008AC4B0008D84B0008044C0008E1
:102AA000304C00085C4C0008544B00080220FDF735
:102AB00061FBFDF737FBC068FDF73AFBFDF732FB22
:102AC000B04202D12046FEF7D3FDFDF72BFB684B49
:102AD000984202D12046FFF763F8FDF723FB654BD0
:102AE000984202D12046FFF7A3FCFDF71BFB624B87
:102AF000984202D12046FFF739FBFDF713FB5F4BED
:102B0000984202D12046FEF71DFFFDF70BFB5C4B00
:102B1000984202D12046FFF799F9FDF703FB594B84
:102B2000984202D12046FFF79DF8FDF7FBFA564B7D
:102B3000984202D12046FFF7A7FDFDF7F3FA534B69
:102B4000984202D12046FEF733F9FDF7EBFA504BDD
:102B5000984202D12046FEF797F9FDF7E3FA4D4B74
:102B6000984202D12046FEF76BF9FDF7DBFA4A4B9B
:102B7000984202D12046FEF713FEFDF7D3FA474BE9
:102B8000984202D12046FEF739FDFDF7CBFA444BBF
:102B9000984202D12046FEF783FCFDF7C3FA414B71
:102BA000984202D12046FEF7B5FCFDF7BBFA3E4B3A
:102BB000984202D12046FEF7E7FCFDF7B3FA3B4B03
:102BC000984202D12046FEF7FFFBFDF7ABFA384BE7
:102BD000984202D12046FEF77BF9FDF7A3FA354B68
:102BE000984202D12046FEF7B1F9FDF79BFA324B2D
:102BF000984202D12046FEF7CFF9FDF793FA2F4B0A
:102C0000984202D12046FEF7E9F9FDF78BFA2C4BEA
:102C1000984202D12046FEF703FAFDF783FA294BCA
:102C2000984202D12046FEF719FAFDF77BFA264BAF
:102C3000984202D12046FEF72FFAFDF773FA234B94
:102C4000984202D12046FEF77DFA95F82E4054B9FD
:102C5000FEF7F8FD2A681E4B85F830409A606B68D5
:102C600085F83840EB636420FEF778F8E4E600BFAF
:102C7000804B0008AC4B0008D84B0008044C0008FF
:102C8000304C00085C4C0008884C0008B44C00082C
:102C9000E04C00080C4D0008384D0008644D000859
:102CA000904D0008AC4D0008D84D0008044E0008B7
:102CB000204E00083C4E0008684E0008944E000864
:102CC000C04E0008EC4E0008184F0008444F0008A2
:102CD0009400002070B592B07E2312A9002621F83E
:102CE000043D48488DF84760FDF7A6FF01214FF4E9
:102CF000007000F03DFB0120014600F02DFB424B2F
:102D0000082502934FF480630893802306932023C1
:102D100009933E4B3E4801934FF48073079301A9FA
:102D20004FF400530A93049503960B96059600F012
:102D3000B5FF0121364800F0CFFF4FF4004000F00E
:102D4000B9FA01244FF4602332480CA90E938DF890
:102D500035400F960C968DF840508DF8344000F0B9
:102D600019FC07232B482146224600F064FC02216F
:102D70000A460723274800F05EFC03210A46072382
:102D8000244800F058FC04210A460723214800F09B
:102D900052FC05210A4607231E4800F04CFC062180
:102DA0000A4607231B4800F046FC204600F092FC30
:102DB000072213461748112100F03DFC2A46042340
:102DC0001448102100F037FC1248214600F006FCA0
:102DD0001048214600F00BFC0E4800F011FC0D4895
:102DE00000F013FC0028FAD10A4800F012FC094850
:102DF00000F014FC0028FAD10648012100F012FC72
:102E000012B070BD000801400C0A00204C240140A3
:102E100008000240002401401FB50121022000F0FB
:102E2000B3FA104C01A8FDF7FFF945F6BF53ADF812
:102E300004302046052301A9ADF80830FDF7AAF9B2
:102E400001210A462046FDF704FA20460121FDF73C
:102E5000F4F9054B4FF000521A60202283F81D232D
:102E60001FBD00BF0004004000E100E0224A234BE8
:102E700091682DE9F04108319160C91A002808BF16
:102E80000120A729C8BF9360936812681E689A4200
:102E900008BF194A184C08BF1660194F226898805D
:102EA00015252146BC46D2F800809845B2F804802A
:102EB00008BF1660804503D2086818600B600020C8
:102EC000BA42246814D01168D1F800809845B1F84E
:102ED000048008BF0E60804503D21068186013603C
:102EE0000020614504D0013DADB20A68002DDAD161
:102EF000A088BDE8F08100BF30020020E002002081
:102F000088030020234A244B51692DE9F041083100
:102F10005161C91A002808BF0120B1F5A47FA8BFDC
:102F200053615369D2681E689A4208BF194A194909
:102F300008BFD66051F80C2F184F988029250C46F1
:102F4000BC46D2F800809845B2F8048008BF1660ED
:102F5000804503D22068186023600020BA420968C7
:102F600014D01468D4F800809845B4F8048008BFE1
:102F70002660804503D21068186013600020644505
:102F800004D0013DADB22268002DDAD18888BDE8B9
:102F9000F08100BF3002002090030020D804002000
:102FA000234A244B116A2DE9F04108311162C91AF4
:102FB000002808BF0120B1F5A47FA8BF1362136ADF
:102FC00092691E689A4208BF194A194908BF96615A
:102FD00051F8182F184F988029250C46BC46D2F876
:102FE00000809845B2F8048008BF1660804503D27F
:102FF0002068186023600020BA42096814D0146861
:10300000D4F800809845B4F8048008BF2660804555
:1030100003D21068186013600020644504D0013D9D
:10302000ADB22268002DDAD18888BDE8F08100BFFA
:1030300030020020E0040020280600200F49D1F8CB
:103040005433D1F85023C1F858339342C1F8542374
:10305000C1F8500307DC834203DC9042A8BF10464E
:1030600070479A4205DC824203DC9842A8BF1846AA
:1030700070479A42B4BF104618467047E0020020DD
:103080000F49D1F86033D1F85C23C1F8643393421F
:10309000C1F86023C1F85C0307DC834203DC904283
:1030A000A8BF104670479A4205DC824203DC984272
:1030B000A8BF184670479A42B4BF104618467047DA
:1030C000E00200202DE9F74370480121FDF7CAF81E
:1030D000002800F0D8806E4C0121D4F868336B488A
:1030E0000133C4F86833FDF7C8F800250220ADF8B5
:1030F0000450ADF8065000F003FE022000F00AFE76
:10310000644E02212A46644800F0F1FD634BF188C9
:103110009B6A89B24B43B28992B2B3FBF2F39BB282
:10312000ADF80630BDF8060080B2FFF739FFA4F80D
:103130006C03B4F86C334FF4F0229BB2022B98BFAF
:10314000A4F86C53B389554D9BB292FBF3F39BB239
:10315000A4F86E33B1882B6B89B24B43B28992B21B
:10316000B3FBF2F39BB2ADF80630BDF8060080B2B7
:10317000FFF77CFE80B2ADF80400BDF80420484B98
:1031800092B21A80BDF804301BB2022B02DC00237D
:10319000ADF804303F4CAB6B2189A28989B24B4317
:1031A00092B2B3FBF2F39BB2ADF80630BDF8060065
:1031B000DFF8DC8000B2FFF763FFAB6980B24FF04D
:1031C0000A09A8F8700309FB03F36188A28989B290
:1031D0004B4392B2B3FBF2F39BB2ADF80630BDF8AD
:1031E0000600304F80B2FFF78DFE296A80B238802A
:1031F00009FB01F92288A38992B202FB09F99BB26B
:10320000B9FBF3F91FFA89F9ADF80690BDF806008D
:10321000224E00B2FFF712FF234B80B2234A1880E0
:103220009268920753BF3A881B883269B368D31AF1
:103230009BB2A8F87233164AB8F87233174BBDF830
:103240000410B2F872231B6C12B25343184A93FB5A
:10325000F2F35B189BB2ADF80430BDF804301BB23A
:10326000022B02DC0023ADF80430BDF80420084B2B
:1032700092B20948A3F874230221012203B0BDE8E9
:10328000F04300F034BD03B0BDE8F083000400401B
:10329000E00200200C0A0020080002400400002088
:1032A000740200207002002072020020000C014015
:1032B000F0D8FFFF034B5A6822F440421043586095
:1032C000704700BF0010024010B51F4B5A6802F053
:1032D0000C02042A01D0082A02D01C4B036011E022
:1032E0005A685968C2F383420232C90301D4184BA9
:1032F00006E0DB6A154903F00F030133B1FBF3F37A
:103300005A430260104A134B51680468C1F3031119
:10331000595C24FA01F141605468C4F302241C5D35
:1033200021FA04F484605468C4F3C2241C5D21FAB9
:1033300004F1C1605268C2F381329B181B7CB1FB5F
:10334000F3F1016110BD00BF0010024000127A00CD
:1033500000093D0054020020044B5A6909B1104392
:1033600001E022EA00005861704700BF00100240EF
:10337000044B9A6909B1104301E022EA0000986108
:10338000704700BF00100240044BDA6909B11043D6
:1033900001E022EA0000D861704700BF001002403F
:1033A00008B501210820FFF7E3FF214B1A6822F03E
:1033B00003021A601A6822F00C021A601A6842F0BE
:1033C00002021A601A6822F00C021A60194A516847
:1033D00021F003015160516821F00C0151605168E6
:1033E00041F002015160516821F00C0151605168B7
:1033F00021F440515160516821F4404151605168BD
:1034000041F400515160516821F4404151601A6803
:1034100022F030021A601A6822F0C0021A601A689C
:1034200042F020021A601A6822F0C0021A6008BD39
:10343000000C01400008014008B508200121FFF7F9
:1034400097FF164B1A6822F440121A601A6822F489
:1034500040021A601A6842F400021A6020221A61BF
:103460001A6822F440321A601A6822F440221A6064
:103470001A6842F400221A6010221A611A6822F0B7
:1034800040721A601A6822F040621A601A6842F0AC
:1034900000621A6040221A6108BD00BF000C0140A2
:1034A0001FB501212020FFF76FFF104C01A8FCF78A
:1034B000BBFE40F65F13ADF8043020460A2301A995
:1034C000ADF80830FCF766FE01210A462046FCF7FD
:1034D000C0FE20460121FCF7B0FE054B4FF4000270
:1034E0005A60502283F837231FBD00BF00140040EC
:1034F00000E100E01FB501214FF40030FFF738FF75
:1035000001A8FCF791FE104C0023ADF8063045F6FB
:10351000BF53ADF8043020464FF47A7301A9ADF8DB
:103520000830FCF737FE01210A462046FCF791FEE1
:1035300020460121FCF781FE044B4FF000721A6017
:10354000102283F819231FBD0044014000E100E070
:1035500008B504200121FFF70BFF08200121FFF728
:1035600007FF10200121FFF703FFFDF7F5FA01F037
:10357000A3F8FFF715FFFFF75FFFFFF791FFFFF7D6
:103580004BFCFFF7B7FFFFF70BFFBDE80840FFF765
:10359000A1BB000043680A6823F4702323F48073FE
:1035A00013430A7910B543EA022343608A68CB6863
:1035B00084681A43084B234013434A7943EA420381
:1035C00083600B7CC26A013B22F47002DBB242EAE8
:1035D0000353C36210BD00BFFDF7F1FF836811B153
:1035E00043F0010301E023F0010383607047836827
:1035F00011B143F4807301E023F48073836070475A
:10360000836843F00803836070478068C0F3C0009C
:103610007047836843F00403836070478068C0F399
:1036200080007047836811B143F4A00301E023F4E4
:10363000A00383607047092970B54FF003040DD9CA
:103640004C4307251E3C05FA04F503FA04F3C6684B
:1036500026EA050545EA0304C4600BE04C43072550
:1036600005FA04F503FA04F4066926EA050545EAB5
:1036700004030361062A4FF005030CD8013A5343B3
:103680001F2202FA03F201FA03F3446B24EA020256
:103690001343436370BD0C2A0DD853431F22233BB1
:1036A00002FA03F201FA03F1046B24EA020242EA8D
:1036B0000103036370BD53431F22413B02FA03F22F
:1036C00001FA03F1C46A24EA020242EA0103C36276
:1036D00070BD0000044B9A6810B142F4000201E092
:1036E00022F400029A6070470024014030B5038A3A
:1036F000CA8823F440531B041B0C134303820D465A
:1037000083890989AA8823F4B0530A43698923F07D
:103710000C030A431B041B0C92B213438381838A5C
:10372000AA8923F440731B041B0C87B0134304467F
:10373000838201A8FFF7C8FD174BA2899C420CBFEA
:10374000049B039B12B2002A4FF019012A6801FB67
:1037500003F101DA520000E092006423B1FBF2F1C0
:10376000B1FBF3F21201100903FB1011A08900B2A2
:10377000002806DAC9003231B1FBF3F303F0070386
:1037800005E009013231B1FBF3F303F00F031A43F3
:1037900092B2228107B030BD00380140838919B14F
:1037A0009BB243F4005303E023F400531B041B0CAF
:1037B00083817047C1F3421310B5012401F01F014A
:1037C000A34204FA01F101D10C3004E0022B01D133
:1037D000103000E0143003680AB1194301E023EA15
:1037E0000101016010BDC905C90D818070470388C2
:1037F00019420CBF00200120704700007FB580EA0D
:10380000E072A2EBE0720DF1FF3500230A2492FB77
:10381000F4F104FB1122303205F8012F1E4601336A
:103820000A1EDBB2F3DC002807DA5BB204A8C31877
:103830002D2203F8102CB31CDBB25AB204A8811855
:10384000002001F8100C68448118074811F8014C59
:10385000013BDBB2013900F8014F002BF6D10348E0
:10386000835404B070BD00BF6306002064060020CE
:10387000F0B5034685B083EAE370A0EBE3700DF189
:10388000FF3600220A2590FBF5F405FB14003030CA
:1038900006F8010F17460132201ED2B2F3DC002BCE
:1038A00007DA04AB52B29A182D2302F8103CBA1C66
:1038B000D2B250B204AC2318002403F8104C0DEB24
:1038C000040318180C46134652B210F8015C013B71
:1038D000DBB2013804F8015B002BF6D18B540846AB
:1038E00005B0F0BDF0B58BB080EAE073A3EBE073F8
:1038F0000DF1FF3600220A2593FBF5F405FB143386
:10390000303306F8013F17460132231ED2B2F3DCF2
:1039100053B20AADEC180025012B04F8285C04D141
:103920003023BA1C8DF80130D2B2022A05D1012908
:1039300003D930238DF80230032200240DF1280C26
:1039400023460CEB01062E2552B25FB28F4203D103
:10395000013306F8145CDBB25FB20DF1280C67444A
:103960001DF804C0013407F814CC67B20133974244
:10397000DBB2EADB002807DA5AB20AA98A18013357
:103980002D2102F8141CDBB259B205AD0848002203
:103990006C1804E0A55C013B00F8015FDBB2013A62
:1039A000002BF7D1034841180B7410300BB0F0BD59
:1039B00073060020640600202DE9F04103468AB01A
:1039C00083EAE370A0EBE3700DF1FF3700240A26D1
:1039D00090FBF6F506FB1500303007F8010FA44602
:1039E0000134281EE4B2F3DC60B20AAE35180026BA
:1039F000012805F8286C05D130200CF102048DF85F
:103A00000100E4B2022C05D1012A03D930208DF83F
:103A10000200032400250DF12808284608EB0207C0
:103A20002E2664B24FFA80FC944503D1013007F88A
:103A3000146CC0B24FFA80FC0DF12808C4441DF884
:103A4000058001350CF8148C4FFA85FC0130A44533
:103A5000C0B2E7DB002B07DA43B20AAAD318013061
:103A60002D2203F8142CC0B242B205AE0C4600233E
:103A7000B51804E0EE5C013804F8016BC0B2013BFC
:103A80000028F7D1885408460AB0BDE8F081002824
:103A900002D001DC404200B270470346002001E042
:103AA0000130C0B21A5C002AFAD1704730B5034623
:103AB000002401E0155501341D5DE0B2002DF9D15F
:103AC0002B4645B2551903E00130EC54C0B2013326
:103AD000CC5C002CF8D140B21454104630BD70B507
:103AE000002501E05E550135465DECB2002EF9D1AE
:103AF000304666B29E1903E001343554E4B2013019
:103B00000D5C002DF8D1294665B25D1903E0013442
:103B10006854E4B20131505C0028F8D164B2185501
:103B2000184670BD2DE9F041074686B04FF461603C
:103B30000C46B7FBF0F001A9FFF79AFE01A8FFF7CA
:103B4000ACFF012803D830232370012600E00026B3
:103B50000023A11902E0CA54EEB201330DF10408AA
:103B600013F80820751C002AF5D13A2273B2E254EA
:103B70003C23B7FBF3F2B2FBF3F003FB102041460A
:103B8000FFF776FE4046FFF788FF0128EDB204D824
:103B90006DB230236355B51CEDB269B200236118D4
:103BA00002E0CA54F5B201330DF1040813F80820FD
:103BB0006E1C002AF5D13A226BB2E2543C23B7FBCB
:103BC000F3F003FB10704146FFF752FE4046FFF74B
:103BD00064FF0128F6B204D876B230230235A3552B
:103BE000EEB271B20023611803E00136CA54F6B296
:103BF000013301AA9A5C002AF7D176B2A255204679
:103C000006B0BDE8F0812DE9F041804686B04FF462
:103C100061600C46B8FBF0F001A9FFF729FE01A88E
:103C2000FFF73BFF012803D830232370012500E074
:103C300000250023611902E0CA54F5B2013301AF37
:103C4000DA5D6E1C002AF7D13A226BB2E2543C23B3
:103C5000B8FBF3F8B8FBF3F003FB10803946FFF72D
:103C600007FE3846FFF719FF0128F6B204D876B2EE
:103C700030230235A355EEB271B20023611803E080
:103C80000136CA54F6B2013301AA9A5C002AF7D170
:103C900076B2A255204606B0BDE8F0818B6810B51B
:103CA0000C6A026823430C6922F4FE4223434C69E8
:103CB00022F0F00223438C692343CC6923434C6AEE
:103CC00023438C6A234313430360CB6843600B6830
:103CD00083604B68C36010BD19B1036843F00103F2
:103CE00003E002684FF6FE731340036070470368F9
:103CF0000AB1194301E023EA0101016070470000A5
:103D0000C2004CBF014B024B586070470004024098
:103D100000000240C3004CBF014B024B586070478B
:103D20000004024000000240C37810B5F3B1154B07
:103D30004178DB688478DB43C3F30223C3F10402D8
:103D400001FA02F10F2222FA03F222400A430E4B3B
:103D500001781201CB18D2B283F800230378012234
:103D6000590903F01F0302FA03F307E00378012265
:103D7000590903F01F0302FA03F32031024A42F803
:103D8000213010BD00ED00E000E100E00F4AD368F3
:103D900013F0010F0D4BFAD1DA68920601D52022FB
:103DA000DA601A6942F002021A6158611A6942F037
:103DB00040021A61054AD168044B8906FBD52022CE
:103DC000DA601A6922F002021A617047002002408C
:103DD000034B044A5A6002F188325A60704700BFB0
:103DE0000020024023016745024B1A6942F080021D
:103DF0001A61704700200240124AD36813F0010F85
:103E0000104BFAD1DA68920601D52022DA601A69DD
:103E100042F001021A618BB203800A4BDA6812F099
:103E2000200F084AFAD02023090CD3604180D168C2
:103E3000044B8906FBD52022DA601A6922F00102C0
:103E40001A6170470020024070B572B6114CFFF73E
:103E5000BFFF4FF45E701049002200F00DFD206896
:103E60000E49002200F008FD0D48FFF78FFF0C4DB2
:103E70000C4E2B1903F17843A3F5F2332846196849
:103E80000435FFF7B9FFB542F3D1FFF7ADFF62B6D6
:103E900070BD00BF90060020255800082C5800086F
:103EA00000E4010878E7010810B5074B0749084A04
:103EB00058181C6800F178400433A0F5F2309342A2
:103EC0000460F5D1012010BD00E401089006002037
:103ED00078E7010870B504680E468C4201D394421D
:103EE00011D90A4B00251D7009492A4600F0C4FC6F
:103EF000204608492A4600F0BFFC074807492A46E1
:103F000000F0BAFC3446204670BD00BF68020020B5
:103F1000325800084958000800EC01085B580008B6
:103F200010B5184C6068FFF731FF60682168FFF733
:103F300063FFE068A168FFF75FFF60692169FFF731
:103F40005BFFE069A169FFF757FF606A216AFFF72D
:103F500053FFE06AA16AFFF74FFF606B216BFFF729
:103F60004BFFE06BA16BFFF747FF606C216CFFF725
:103F700043FFE06CA16CFFF73FFF034800F03CFCFF
:103F800010BD00BF040000207258000810B5184C86
:103F90006068FFF7FBFE60682168FFF72DFFE068AF
:103FA000A168FFF729FF60692169FFF725FFE06934
:103FB000A169FFF721FF606A216AFFF71DFFE06A30
:103FC000A16AFFF719FF606B216BFFF715FFE06B2C
:103FD000A16BFFF711FF606C216CFFF70DFFE06C28
:103FE000A16CFFF709FF034800F006FC10BD00BFFD
:103FF0005C0100208B58000838B5224C0021606815
:104000004FF48072FFF766FF002120604FF47A7250
:10401000E068FFF75FFF0021A0604FF47A726069EB
:10402000FFF758FF184D20610A212A46E069FFF783
:1040300051FF0A21A0612A46606AFFF74BFF0A215F
:1040400020622A46E06AFFF745FF0A21A0622A465D
:10405000606BFFF73FFF0A2120632A46E06BFFF702
:1040600039FF4621A063C822606CFFF733FF0A21A5
:104070002064C822E06CFFF72DFFA064034800F025
:10408000BBFB38BD04000020A0860100AB5800082F
:1040900038B5224C002160684FF48072FFF71AFF98
:1040A000002120604FF47A72E068FFF713FF0021CF
:1040B000A0604FF47A726069FFF70CFF184D206121
:1040C0000A212A46E069FFF705FF0A21A0612A4676
:1040D000606AFFF7FFFE0A2120622A46E06AFFF7C6
:1040E000F9FE0A21A0622A46606BFFF7F3FE0A215F
:1040F00020632A46E06BFFF7EDFE4621A063C8224D
:10410000606CFFF7E7FE0A212064C822E06CFFF72D
:10411000E1FEA064034800F06FFB38BDAC01002055
:10412000A0860100C558000810B5144C6068FFF760
:104130002DFE60682168FFF75FFEE068A168FFF769
:104140005BFE60692169FFF757FEE069A169FFF72F
:1041500053FE606A216AFFF74FFEE06AA16AFFF72B
:104160004BFE606B216BFFF747FEE06BA16BFFF727
:1041700043FE034800F040FB10BD00BF5400002088
:10418000E858000810B5144C6068FFF7FFFD606840
:104190002168FFF731FEE068A168FFF72DFE606936
:1041A0002169FFF729FEE069A169FFF725FE606A32
:1041B000216AFFF721FEE06AA16AFFF71DFE606B2E
:1041C000216BFFF719FEE06BA16BFFF715FE0348AB
:1041D00000F012FB10BD00BFDC000020FE580008FC
:1041E00038B51D4C002160684FF48072FFF772FEF5
:1041F000012120600A22E068FFF76CFE0121A06027
:104200004FF47A726069FFF765FE012120614FF477
:104210007A62E069FFF75EFE0121A0614FF47A62E5
:10422000606AFFF757FE42F21075206200212A46AD
:10423000E06AFFF74FFE0021A0622A46606BFFF79D
:1042400049FE002120636422E06BFFF743FEA06378
:10425000024800F0D1FA38BD540000201B59000874
:1042600038B51D4C002160684FF48072FFF732FEB4
:10427000012120600A22E068FFF72CFE0121A060E6
:104280004FF47A726069FFF725FE012120614FF437
:104290007A62E069FFF71EFE0121A0614FF47A62A5
:1042A000606AFFF717FE42F21075206200212A466D
:1042B000E06AFFF70FFE0021A0622A46606BFFF75D
:1042C00009FE002120636422E06BFFF703FEA06378
:1042D000024800F091FA38BD1C0100203259000854
:1042E00010B50C4C0022A0680B4900F0C5FA6068BC
:1042F000FFF74CFD60682168FFF77EFDE068A1686C
:10430000FFF77AFD60692169FFF776FD034800F049
:1043100073FA10BD9400002052590008615900083A
:1043200010B50A4C6068FFF731FD60682168FFF73F
:1043300063FDE068A168FFF75FFD60692169FFF731
:104340005BFD034800F058FA10BD00BFAC00002030
:104350007F59000838B50C4C002160684FF480721A
:10436000FFF7B8FD094D206000212A46E068FFF7FD
:10437000B1FD0021A0602A466069FFF7ABFD206116
:10438000034800F039FA38BD9400002000286BEE95
:10439000A659000838B50C4C002160684FF48072B3
:1043A000FFF798FD094D206000212A46E068FFF7DD
:1043B00091FD0021A0602A466069FFF78BFD206116
:1043C000034800F019FA38BDC400002000286BEE45
:1043D000C559000870B50C4D01242C7072B6FFF75A
:1043E000B9FFFFF7FDFEFFF707FE62B62E782EB984
:1043F000064800F001FA2C70304670BD044800F009
:10440000FBF92C70204670BD68020020ED590008B1
:10441000065A0008F0B5C1B007460D461446684676
:1044200008494FF4807200F03FFA6E4617F8013BDE
:10443000013D5C40EDB2345D002DF7D1204641B026
:10444000F0BD00BF2557000838B572B6FFF7C0FCB5
:104450004C2100223448FFF7DDFF344B044618603E
:10446000FFF794FDFFF714FE4C2100223048FFF7C0
:10447000D1FF844203D12F4800F0BEF904E02E485A
:1044800000F0BAF9FFF782FD3C2100222B48FFF72C
:10449000C1FF00222A49044600F0EEF90022294912
:1044A0003C2000F0E9F9284B1C60FFF76BFEFFF79A
:1044B000D7FE3C2100222548FFF7ACFF002220490F
:1044C000054600F0D9F93C2000221E4900F0D4F93D
:1044D000AC4203D11E4800F08FF904E01D4800F003
:1044E0008BF9FFF74FFE142100221B48FFF792FFC4
:1044F0001A4B04461860FFF713FFFFF74BFF142118
:1045000000221748FFF786FF844203D1154800F0C8
:1045100073F904E0144800F06FF9FFF701FFFFF7AB
:1045200063FC62B638BD00BF600100205C01002062
:10453000B0010020215A0008465A0008E00000207F
:10454000765A0008815A0008DC0000202001002073
:104550008D5A0008AF5A0008B0000020AC000020BF
:10456000C8000020DC5A0008065B000810B572B6CF
:10457000142100221048FFF74DFF104B044618602D
:10458000FFF726FCFFF7ACFEFFF704FF1421002223
:104590000B48FFF73FFF844203D10A4800F02CF993
:1045A00004E0094800F028F9FFF79AFEFFF71CFC29
:1045B00062B6012010BD00BF9800002094000020CA
:1045C000C8000020DD5A0008075B000838B572B645
:1045D0003C2100221948FFF71DFF0022184904461C
:1045E00000F04AF9002217493C2000F045F9164B2B
:1045F0001C60FFF7EDFBFFF797FDFFF731FE3C2155
:1046000000221248FFF706FF00220D49054600F080
:1046100033F93C2000220B4900F02EF9AC4203D1C3
:104620000B4800F0E9F804E00A4800F0E5F8FFF76D
:104630007BFDFFF7D9FB62B6012038BD5800002092
:10464000775A0008825A00085400002020010020F8
:104650008E5A0008B05A000810B572B64C210022DC
:104660001048FFF7D7FE104B04461860FFF7B0FB69
:10467000FFF756FCFFF70CFD4C2100220B48FFF71B
:10468000C9FE844203D10A4800F0B6F804E00948A4
:1046900000F0B2F8FFF744FCFFF7A6FB62B601207A
:1046A00010BD00BF0800002004000020B001002061
:1046B000225A0008475A000830B54FF4164387B015
:1046C000009300231C46ADF80430ADF80630ADF879
:1046D0000830ADF80C3004200C230121ADF80A306D
:1046E000FEF746FE01214FF48040FEF741FE4FF4F5
:1046F000C063154DADF8103018238DF8133004A9A0
:10470000032312488DF81230FCF796FA69462846C2
:10471000FEF7ECFF25238DF814308DF81640222388
:10472000012405A88DF815308DF81740FFF7FCFA25
:1047300028462146FFF732F8284640F22551224606
:10474000FFF738F807B030BD0038014000080140DD
:104750000A4B1A78C72A0FD85A78094988541A7808
:104760000132D2B21A705A780132D2B25A705A78E3
:10477000C82A01D100225A70704700BF8506002068
:10478000200A002010B5194C2388980603D5A0886C
:10479000C0B2FFF7DDFF2388144A19061AD5144B5F
:1047A000997889B1D9781348415C91809A78013A17
:1047B000D2B29A70DA780132D2B2DA70DA78C82AD4
:1047C00008D10022DA7005E0938923F080031B04EE
:1047D0001B0C9381054A13885B0605D5138823F0CB
:1047E00040031B041B0C138010BD00BF00380140A8
:1047F00085060020E80A002010B504460AE00D48AE
:104800008021FEF7F4FF0028F9D014F8011B0948B5
:10481000FEF7E9FF2378002BF1D106488021FEF74F
:10482000E6FF0028F9D003480A21BDE81040FEF752
:10483000DABF00BF0038014082B0064B8DF8070098
:104840001A885206FCD59DF80720024B9A8002B0C8
:10485000704700BF00380140064B1A4605E0198832
:104860004906FCD510F8011B918001780029F6D18A
:10487000704700BF0038014037B501900C460198E1
:1048800012B9FEF7BBFF02E01146FFF72BF8054611
:104890002046FFF7E1FF2846FFF7DEFF0A2003B0BE
:1048A000BDE83040FFF7C8BF0F2AF0B43AD941EA5B
:1048B00000039B0738D10C46034615462668103D79
:1048C0001E6066685E60A6689E60E6681034DE6002
:1048D00010330F2DF2D8A2F1100424F00F0402F0CF
:1048E0000F021034032A00EB0403214411D90E46B1
:1048F0001D46144656F8047B043C032C45F8047B03
:10490000F8D8141F24F00304043402F00302091938
:104910001B192AB111F8014B013A03F8014BF9D1E7
:10492000F0BC70470346F4E70346F3E700000000DD
:104930000000000000000000000000000000000077
:104940000000000069693A2000513A2000435243B8
:104950002843616C6962726174696F6E29203D0041
:1049600043616C6962726174696F6E3056616C7517
:1049700065466F7243757272656E74203D004361C7
:104980006C6962726174696F6E3056616C756546F0
:104990006F7243757272656E7431203D0043616CB5
:1049A0006962726174696F6E56616C7565466F728B
:1049B00043757272656E74203D0043616C6962726A
:1049C0006174696F6E56616C7565466F724375727E
:1049D00072656E7431203D0043616C69627261746E
:1049E000696F6E56616C7565466F72566F6C746157
:1049F0006765203D0043616C6962726174696F6E26
:104A000056616C7565466F72566F6C74616765317F
:104A1000203D0043616C6962726174696F6E56611A
:104A20006C7565466F72566F6C7461676532203DB8
:104A300000526573697374616E6365436F6D705F77
:104A4000497368756E745F5769726573203D0052D3
:104A50006573697374616E6365436F6D705F4D4F0D
:104A600053464554203D00435243285365747469AE
:104A70006E67734461746129203D004F7074696FE3
:104A80006E31286D656E7520706F736974696F6E15
:104A900029203D0043686172676554696D65203D5A
:104AA000004C6F77566F6C74616765203D004D61F7
:104AB00078566F6C74616765203D0043686172676A
:104AC000654164617074203D005377696E675F4390
:104AD0006872675F74696D65203D005377696E6722
:104AE0005F44436872675F74696D65203D0043529F
:104AF000432853617665446174615768656E506FF1
:104B00007765724F666629203D0042617474657254
:104B10007943617061636974794469736368617230
:104B2000676550726576696F757356616C7565203F
:104B30003D004261747465727943617061636974A8
:104B40007944697363686172676543757272656EF3
:104B500074203D002C4900082C4900082C4900080D
:104B60001454000800000000000000002020202055
:104B700020202020202020202020202000000000B5
:104B80002C4900082C4900082C490008E85300086B
:104B90000000000000000000202020202020202015
:104BA0002020202020202020000000002C49000888
:104BB0002C4900082C490008BC53000800000000E4
:104BC0000000000020202020202020202020202065
:104BD00020202020000000002C4900082C4900085B
:104BE0002C4900089053000800000000000000005D
:104BF00020202020202020202020202020202020B5
:104C0000000000002C4900082C4900082C4900082D
:104C10006453000800000000150D0008202020202B
:104C20002020202020202020202020200000000004
:104C30002C4900082C4900082C490008385300086A
:104C40000000000000000000202020202020202064
:104C50002020202020202020000000002C490008D7
:104C60002C4900082C4900080C53000800000000E3
:104C700000000000202020202020202020202020B4
:104C800020202020000000002C4900082C490008AA
:104C90002C490008E052000800000000000000005D
:104CA0002020202020202020202020202020202004
:104CB000000000002C4900082C4900082C4900087D
:104CC000B452000800000000000000002020202056
:104CD0002020202020202020202020200000000054
:104CE0002C4900082C4900082C490008D050000825
:104CF00000000000F50C00082020202020202020AB
:104D00002020202020202020000000002C49000826
:104D10002C4900082C490008FC5000080000000045
:104D2000F50C0008202020202020202020202020FA
:104D300020202020000000002C4900082C490008F9
:104D40002C4900087850000800000000F50C00080D
:104D50002020202020202020202020202020202053
:104D6000000000002C4900082C4900082C490008CC
:104D7000A450000800000000F50C000820202020AE
:104D800020202020202020202020202000000000A3
:104D90002C4900082C4900082C490008F44F000851
:104DA00000000000F50C0008000000002C4900087D
:104DB0002C4900082C490008205000080000000081
:104DC000F50C00082020202020202020202020205A
:104DD00020202020000000002C4900082C49000859
:104DE0002C4900084C50000800000000F50C000899
:104DF00020202020202020202020202020202020B3
:104E0000000000002C4900082C4900082C4900082B
:104E1000C84F000800000000F50C0008000000006A
:104E20002C4900082C4900082C4900089C4F000818
:104E30000000000000000000000000002C490008F5
:104E40002C4900082C4900085C52000800000000B2
:104E5000EF0C0008202020202020202020202020CF
:104E600020202020000000002C4900082C490008C8
:104E70002C4900083052000800000000EF0C000828
:104E80002020202020202020202020202020202022
:104E9000000000002C4900082C4900082C4900089B
:104EA0000452000800000000EF0C00082020202021
:104EB0002020202020202020202020200000000072
:104EC0002C4900082C4900082C490008D85100083A
:104ED00000000000EF0C00082020202020202020CF
:104EE0002020202020202020000000002C49000845
:104EF0002C4900082C490008AC51000800000000B3
:104F0000EF0C00082020202020202020202020201E
:104F100020202020000000002C4900082C49000817
:104F20002C4900088051000800000000EF0C000828
:104F30002020202020202020202020202020202071
:104F4000000000002C4900082C4900082C490008EA
:104F50005451000800000000810D0008202020208E
:104F600020202020202020202020202000000000C1
:104F7000FC5000089C4F00082C490008885200088B
:104F800000000000000000004F4B20746F20657887
:104F9000697420202020202000000000704F0008AD
:104FA000C84F00082C490008204E000800000000EF
:104FB000000000004261636B20746F2046616374DF
:104FC0006F727920000000009C4F0008F44F000829
:104FD0002C490008044E00080000000000000000FA
:104FE00052657369737420636F6D7020355631415B
:104FF00000000000C84F0008205000082C4900089D
:10500000904D00080000000000000000566F6C7416
:1050100061676520496E20202020202000000000CC
:10502000F44F00084C5000082C490008AC4D000813
:105030000000000000000000566F6C74616765207E
:105040004F75742020202020000000002050000810
:10505000785000082C490008D84D000800000000D6
:1050600000000000566F6C7461676520505320206B
:1050700020202020000000004C500008A450000810
:105080002C490008384D0008000000000000000016
:1050900043555252454E54204C6F616420202020CD
:1050A0000000000078500008D05000082C4900088B
:1050B000644D0008000000000000000043555252FB
:1050C000454E54204F757420202020200000000001
:1050D000A4500008FC5000082C490008E04C0008CF
:1050E000000000000000000043555252454E54207D
:1050F0004C6F616420746F3000000000D0500008D5
:10510000704F00082C4900080C4D000800000000FA
:105110000000000043555252454E54204F757420F4
:10512000746F2030000000005C52000854510008E9
:105130002C49000840540008000000000000000056
:105140004F4B20746F206578697420202020202028
:105150000000000028510008805100082C49000878
:10516000444F0008000000000000000030373A53B0
:10517000617665204D656E7520506F7300000000EC
:1051800054510008AC5100082C490008184F000881
:10519000000000000000000030363A43686172678A
:1051A0006520616464617074000000008051000833
:1051B000D85100082C490008EC4E000800000000FF
:1051C0000000000030353A53776E674469734368D6
:1051D0007267205400000000AC510008045200081F
:1051E0002C490008C04E000800000000000000002C
:1051F00030343A5377696E67204368726720546D84
:1052000000000000D8510008305200082C49000866
:10521000944E0008000000000000000030333A4DBA
:10522000617820566F6C7461676520200000000073
:10523000045200085C5200082C490008684E00081F
:10524000000000000000000030323A4C6F7720561A
:105250006F6C746167652020000000003052000808
:10526000285100082C4900083C4E000800000000AE
:105270000000000030313A4368617267652074694C
:105280006D6520200000000040540008B452000862
:105290002C490008FC50000800000000000000003D
:1052A00043414C4942524154494F4E202020202036
:1052B0000000000088520008E05200082C49000855
:1052C000B44C000800000000000000004C4F4720D4
:1052D000202020202020202020202020000000004E
:1052E000B45200080C5300082C490008884C0008F0
:1052F0000000000000000000444941474E4F535455
:10530000494320202020202000000000E052000817
:10531000385300082C4900085C4C000800000000CD
:10532000000000005377696E672020202020202095
:1053300020202020000000000C53000864530008C7
:105340002C490008304C000800000000000000005C
:10535000547261696E696E67202020202020202011
:105360000000000038530008905300082C49000842
:10537000044C000800000000000000004469734372
:105380006861726765202020202020200000000036
:1053900064530008BC5300082C490008D84B00088F
:1053A0000000000000000000436861726765206132
:1053B0006464617074202020000000009053000895
:1053C000E85300082C490008AC4B0008000000001E
:1053D0000000000043686172676520434320435624
:1053E0002020202000000000BC53000814540008B6
:1053F0002C490008804B000800000000000000005D
:105400004C6F61642020202020202020202020209C
:1054100000000000E8530008405400082C49000830
:10542000544B00080000000000000000506F77653A
:1054300072537570706C79202020202000000000CD
:1054400014540008885200082C4900085C520008D7
:10545000000000000000000053657474696E6773FB
:1054600020202020202020200000000043616C69C3
:1054700062726174696F6E006D416800695F4C6FA4
:10548000674974656D733A20004D5265636F7264AD
:10549000735175616E746974793A20006D41203ED4
:1054A0003E20736574203020202000466163746FB5
:1054B00072792D7072657373203E3E00496E2050E4
:1054C000726F6363657373202E2E2E2E0046616308
:1054D000746F727920617265204F4B202000466105
:1054E00063746F727920617265204F4B004545707F
:1054F000726F6D2072656164204641494C006820DE
:105500002020005620202000207365632E202020BC
:1055100000252000562000506F776572537570701B
:105520006C792020202020004C6F6164204D656E36
:1055300075202020202020200043686172676520AC
:105540004343204356202020200043686172676552
:105550002061646461707420202000446973436892
:10556000617267652020202020202000547261692C
:105570006E696E672020202020202020005377694C
:105580006E672020202020202020202020003000B6
:105590006D4F6D2020202020202000562020006DFF
:1055A000412020006D41202020006D41202020203E
:1055B000004F4E200064633A2000506F7765724FB1
:1055C0004646200055206F66663A20006D41202037
:1055D00020202020004F66665768656E2056623C8A
:1055E000005020006D41682020202020006D41489F
:1055F000202020202000496E697420737461747526
:10560000733A2000656E74657265645F696E5F63EE
:1056100068617267655F6469736368617267655F1B
:105620006D656E753A2000436861726765737461D9
:105630007475732074696D65723A200043686172F5
:10564000676554696D655365633A20004469736307
:1056500068617267657374617475732074696D65D0
:10566000723A200044697363686172676554696DBA
:10567000655365633A20006D4120202020200056AC
:105680002020202020007320202000547261696EA9
:10569000696E6720496E69742000432000543A0007
:1056A00068204D6178563A0055696E3D002055637B
:1056B0003D005570732000556F75742000496F755B
:1056C0007420006D412000496C6F61642000523DE0
:1056D000006D4F6D20006D4F6D2020202000493A55
:1056E0002000555F50533A200055206F75743A20C2
:1056F000004F6C6420433D006D4168202020202035
:10570000202020202000454570726F6D2052656179
:1057100064204641494C00454570726D5265616494
:105720004641494C0000070E091C1B1215383F3634
:105730003124232A2D70777E796C6B6265484F4641
:105740004154535A5DE0E7EEE9FCFBF2F5D8DFD6B1
:10575000D1C4C3CACD90979E998C8B8285A8AFA6E1
:10576000A1B4B3BABDC7C0C9CEDBDCD5D2FFF8F156
:10577000F6E3E4EDEAB7B0B9BEABACA5A28F888181
:105780008693949D9A2720292E3B3C35321F181171
:105790001603040D0A5750595E4B4C45426F686121
:1057A0006673747D7A898E878095929B9CB1B6BF13
:1057B000B8ADAAA3A4F9FEF7F0E5E2EBECC1C6CFC1
:1057C000C8DDDAD3D4696E676075727B7C51565F31
:1057D000584D4A4344191E171005020B0C21262F61
:1057E000283D3A33344E49404752555C5B767178D8
:1057F0007F6A6D64633E39303722252C2B06010801
:105800000F1A1D1413AEA9A0A7B2B5BCBB969198F0
:105810009F8A8D8483DED9D0D7C2C5CCCBE6E1E8A0
:10582000EFFAFDF4F373697A653A200076616C3A19
:1058300020004661696C20746F207265616420618C
:105840006464726573733A2000454570726F6D56DB
:10585000616C7565206973203A2000464C415348BD
:105860005F424153452B313032342A313233203AB2
:10587000200043616C6962726174696F6E5772696E
:105880007465546F466C617368200043616C696293
:10589000726174696F6E466163746F727957726971
:1058A0007465546F466C617368200043616C696273
:1058B000726174696F6E5265616446726F6D466C99
:1058C000617368200043616C6962726174696F6E14
:1058D0005265616446726F6D466C617368466F72A3
:1058E000566572696679200053657474696E6773D2
:1058F0005772697465546F466C6173682000536514
:105900007474696E6773466163746F7279577269F4
:105910007465546F466C61736820005365747469D4
:105920006E67735265616446726F6D466C61736831
:10593000200053657474696E6773526561644672C2
:105940006F6D466C617368466F72566572696679F1
:10595000200057726974652043206D6148203A2009
:1059600000446174615768656E506F7765724F6669
:10597000665772697465546F466C617368200044A1
:105980006174615768656E506F7765724F66665FC8
:10599000466163746F72795F5772697465546F46BC
:1059A0006C6173682000446174615768656E506F64
:1059B0007765724F66665265616446726F6D466CBC
:1059C0006173682000446174615768656E506F7739
:1059D00065724F66665265616446726F6D466C61B2
:1059E0007368466F72566572696679200052656108
:1059F000642066726F6D20454570726F6D202D209A
:105A00004641494C2000526561642066726F6D20EA
:105A1000454570726F6D202D2053554343455353B8
:105A2000004643616C6962726174696F6E207772BF
:105A300069746520746F20466C61736820737563A8
:105A40006365737320004643616C696272617469B7
:105A50006F6E20777269746520746F20466C617375
:105A600068204661696C2C207472792061676169D5
:105A70006E2E2E2E200046435243206973203A207A
:105A8000004653697A65206973203A2000465365C1
:105A90007474696E677320777269746520746F20FF
:105AA000466C617368207375636365737320004689
:105AB00053657474696E67732077726974652074B6
:105AC0006F20466C617368204661696C2C2074728B
:105AD0007920616761696E2E2E2E20004644617424
