:020000040800F2
:10000000002000208D5600081153000813530008EB
:10001000155300081753000819530008000000008A
:100020000000000000000000000000001B5300085A
:100030001D530008000000001F5300082153000852
:10004000D5560008D5560008D5560008D5560008E4
:10005000D5560008D5560008D5560008D5560008D4
:10006000D5560008D5560008D55600082553000877
:10007000D5560008D5560008D5560008D5560008B4
:10008000D5560008D5560008D556000800000000D7
:10009000000000000000000000000000D55600082D
:1000A000D5560008D5560008D5560008D556000884
:1000B000D5560008D5560008D5560008D556000874
:1000C000D55600080000000000000000D5560008CA
:1000D000D556000829530008D5560008D556000803
:1000E000D5560008D5560008D55600080000000077
:1000F0000000000000000000000000000000000000
:1001000000000000000000000000000000000000EF
:100110000000000000000000D5560008D556000879
:1001200000000000000000000000000000000000CF
:1001300000000000000000000000000000000000BF
:1001400000000000000000000000000000000000AF
:10015000000000000000000000000000000000009F
:10016000000000000000000000000000000000008F
:10017000000000000000000000000000000000007F
:10018000000000000000000000000000000000006F
:10019000000000000000000000000000000000005F
:1001A000000000000000000000000000000000004F
:1001B000000000000000000000000000000000003F
:1001C0000000000000000000000000005FF808F1DF
:1001D00010B5054C237833B9044B13B10448AFF381
:1001E00000800123237010BD900200200000000059
:1001F0006C5A000808B5034B1BB103490348AFF321
:10020000008008BD00000000940200206C5A000825
:100210000E4A1346D168C907FCD4D168890644BF89
:100220002021D1601A6942F002021A6158611A69EC
:1002300042F040021A61054BDA689206FCD5202292
:10024000DA601A6922F002021A6170470020024047
:10025000034B044A5A6002F188325A60704700BF6B
:100260000020024023016745024A136943F08003DE
:100270001361704700200240114B10B51A46DC682C
:10028000E407FCD4DC68A40644BF2024DC601369C6
:1002900043F0010313610A4A8BB203801346D4680A
:1002A000A406FCD52024090CD4604180DA689206AB
:1002B000FCD52022DA601A6922F001021A6110BD11
:1002C0000020024070B572B6FFF7C2FF124805F079
:1002D000F5F8124D00224FF4CE71114805F032F9B5
:1002E0000D4805F0EBF8002229680E4805F02AF9C0
:1002F0000D48FFF78DFF0C4C0C4E04F17843A3F52D
:10030000F2332046E9580434FFF7B6FFB442F4D183
:10031000FFF7AAFF62B670BDB15E00087808002042
:10032000B95E0008C05E000800E401089CE5010811
:1003300010B5074B074808491C6803F1784204339D
:10034000A2F5F2328B421450F6D1012010BD00BF4D
:1003500000E40108780800209CE50108F8B504686D
:1003600007468C420E4601D394421BD900250E4B02
:100370000E481D7005F0A2F82A4639460C4805F0D3
:10038000E1F80A4805F09AF821462A46094805F09E
:10039000D9F8064805F092F82A460749074805F0BB
:1003A000D1F834462046F8BD00000020B15E0008B8
:1003B000715E0008885E000800EC01089A5E000883
:1003C00010B5194C6068FFF723FFD4E90010FFF760
:1003D00053FFD4E90210FFF74FFFD4E90410FFF7F1
:1003E0004BFFD4E90610FFF747FFD4E90810FFF7E9
:1003F00043FFD4E90A10FFF73FFFD4E90C10FFF7E1
:100400003BFFD4E90E10FFF737FFD4E91010FFF7D8
:1004100033FFD4E91210FFF72FFF044805F04EF820
:10042000034804F0E1FF10BD04000020B15E0008A5
:10043000E15B000810B5194C6068FFF7E9FED4E9EC
:100440000010FFF719FFD4E90210FFF715FFD4E9F8
:100450000410FFF711FFD4E90610FFF70DFFD4E9F0
:100460000810FFF709FFD4E90A10FFF705FFD4E9E8
:100470000C10FFF701FFD4E90E10FFF7FDFED4E9E1
:100480001010FFF7F9FED4E91210FFF7F5FE04484B
:1004900005F014F8034804F0A7FF10BD5400002035
:1004A000B15E0008845B000838B5244C4FF48072BC
:1004B00000216068FFF752FF4FF47A72206000213C
:1004C000E068FFF74BFF4FF47A72A060002160698B
:1004D000FFF744FF1A4D20612A460A21E069FFF721
:1004E0003DFF2A46A0610A21606AFFF737FF2A46CE
:1004F00020620A21E06AFFF731FF2A46A0620A2142
:10050000606BFFF72BFF2A4620630A21E06BFFF7A1
:1005100025FFC822A0634621606CFFF71FFFC82299
:1005200020640A21E06CFFF719FFA064054804F07D
:10053000C5FF054804F058FF38BD00BF0400002087
:10054000A0860100B15E0008A45B000838B5244C09
:100550004FF4807200216068FFF700FF4FF47A7259
:1005600020600021E068FFF7F9FE4FF47A72A06086
:1005700000216069FFF7F2FE1A4D20612A460A2128
:10058000E069FFF7EBFE2A46A0610A21606AFFF7E7
:10059000E5FE2A4620620A21E06AFFF7DFFE2A46CE
:1005A000A0620A21606BFFF7D9FE2A4620630A2168
:1005B000E06BFFF7D3FEC822A0634621606CFFF713
:1005C000CDFEC82220640A21E06CFFF7C7FEA064BC
:1005D000054804F073FF054804F006FF38BD00BF6E
:1005E000A4000020A0860100B15E0008BE5B0008E8
:1005F00010B5174C6068FFF70BFED4E90010FFF749
:100600003BFED4E90210FFF737FED4E90410FFF7F0
:1006100033FED4E90610FFF72FFED4E90810FFF7E8
:100620002BFED4E90A10FFF727FED4E90C10FFF7E0
:1006300023FED4E90E10FFF71FFED4E91010FFF7D8
:100640001BFE044804F03AFF034804F0CDFE10BD41
:1006500054010020B15E00085B5E000810B5174C25
:100660006068FFF7D5FDD4E90010FFF705FED4E977
:100670000210FFF701FED4E90410FFF7FDFDD4E9F5
:100680000610FFF7F9FDD4E90810FFF7F5FDD4E9EE
:100690000A10FFF7F1FDD4E90C10FFF7EDFDD4E9E6
:1006A0000E10FFF7E9FDD4E91010FFF7E5FD04484F
:1006B00004F004FF034804F097FE10BD9C010020E5
:1006C000B15E0008075E000810B5224C4FF480723E
:1006D00000216068FFF742FE0A2220600121E068E5
:1006E000FFF73CFE4FF47A72A06001216069FFF7CA
:1006F00035FE4FF47A6220610121E069FFF72EFE9A
:100700004FF47A62A0610121606AFFF727FE42F28E
:10071000107220620021E06AFFF720FE42F21072A0
:10072000A0620021606BFFF719FE642220630021A4
:10073000E06BFFF713FE0322A0630121606CFFF75B
:100740000DFE2064044804F0B9FE044804F04CFE99
:1007500010BD00BF54010020B15E0008245E0008F7
:1007600010B5224C4FF4807200216068FFF7F6FD4F
:100770000A2220600121E068FFF7F0FD4FF47A7251
:10078000A06001216069FFF7E9FD4FF47A62206102
:100790000121E069FFF7E2FD4FF47A62A0610121D7
:1007A000606AFFF7DBFD42F2107220620021E06A0E
:1007B000FFF7D4FD42F21072A0620021606BFFF7D8
:1007C000CDFD642220630021E06BFFF7C7FD03220B
:1007D000A0630121606CFFF7C1FD2064044804F0B0
:1007E0006DFE044804F000FE10BD00BFE4010020CF
:1007F000B15E00083B5E000838B5124D124C284629
:1008000004F05CFE0022A168104804F09BFE6068C2
:10081000FFF7FEFCD4E90010FFF72EFDD4E902102B
:10082000FFF72AFDD4E90410FFF726FDD4E90610EE
:10083000FFF722FD284604F041FE054804F0D4FDF0
:1008400038BD00BFB15E0008F4000020415C000824
:10085000505C000810B50D4C6068FFF7D9FCD4E976
:100860000010FFF709FDD4E90210FFF705FDD4E9F8
:100870000410FFF701FDD4E90610FFF7FDFC044862
:1008800004F01CFE034804F0AFFD10BD140100206D
:10089000B15E00087A5C000838B5114C4FF48072E4
:1008A00000216068FFF75AFD0E4D20602A460021A6
:1008B000E068FFF753FD2A46A06000216069FFF75A
:1008C0004DFD012220610021E069FFF747FDA06195
:1008D000054804F0F3FD054804F086FD38BD00BF6F
:1008E000F400002000286BEEB15E0008FA5B0008FF
:1008F00038B5114C4FF4807200216068FFF72EFD6F
:100900000E4D20602A460021E068FFF727FD2A46A9
:10091000A06000216069FFF721FD01222061002114
:10092000E069FFF71BFDA061054804F0C7FD05481D
:1009300004F05AFD38BD00BF3401002000286BEEE2
:10094000B15E0008195C000870B501240E4D2C70D2
:1009500072B6FFF7A1FFFFF7B7FEFFF7A5FD62B67E
:100960002E780A483EB904F0A9FD094804F03CFD80
:100970002C70304670BD04F0A1FD064804F034FD33
:1009800026462C70F5E700BF00000020B15E00088D
:10099000D35D0008EC5D000870B515460C46C0B08C
:1009A00006464FF480720949684605F04BF8284620
:1009B000013CE4B20134344416F8013B5840A642ED
:1009C0001DF80000F8D140B070BD00BF845A000887
:1009D00038B572B6144D00224C212846FFF7DCFFD3
:1009E000044645F8040CFFF733FCFFF7E9FCFFF77A
:1009F000ADFD00224C210D48FFF7CEFF84420C488C
:100A000009D104F05BFD0B4804F0EEFCFFF72CFC71
:100A100062B6012038BD04F051FD074804F0E4FC43
:100A2000FFF7CEFCF2E700BF08000020A80000207E
:100A3000B15E0008BA5C0008DF5C000838B572B629
:100A4000244D002244212846FFF7A6FF04462248F1
:100A500004F034FD00222146204804F073FD1E48B6
:100A600004F02CFD002244211D4804F06BFD45F8E4
:100A7000044CFFF7EDFBFFF7BBFDFFF771FE002213
:100A800044211848FFF788FF0546134804F016FD77
:100A900000222946114804F055FD0F4804F00EFDD0
:100AA0000F480022442104F04DFDAC420A4809D110
:100AB00004F004FD0C4804F097FCFFF7D5FB62B688
:100AC000012038BD04F0FAFC084804F08DFCFFF763
:100AD0008FFDF2E758010020B15E00080F5D0008AD
:100AE0001A5D0008E8010020265D0008485D000846
:100AF00070B572B61C4C00221C212046FFF74CFF3B
:100B0000054644F8040CFFF7A3FBFFF775FEFFF75B
:100B1000EFFE164804F0D2FC616900221448154C1F
:100B200004F010FD114804F0C9FC0022A16910482E
:100B300004F008FD00221C21201DFFF72DFF854237
:100B40000A4809D104F0BAFC0B4804F04DFCFFF749
:100B50008BFB62B6012070BD04F0B0FC074804F0C6
:100B600043FCFFF749FEF2E7F8000020B15E000801
:100B70006E5C000834010020755D00089F5D000870
:100B800038B54A4804F09AFC494804F02DFC72B686
:100B9000484DFFF75DFB00224C212846FFF7FCFE85
:100BA000044645F8040CFFF745FCFFF7CFFC002294
:100BB0004C214148FFF7F0FE84423C485DD104F0EF
:100BC0007DFC3E4804F010FC3D4D002244212846A7
:100BD000FFF7E2FE0446354804F070FC002221468F
:100BE000384804F0AFFC314804F068FC002244218E
:100BF000354804F0A7FC45F8044CFFF72FFDFFF73C
:100C0000AFFD002244213148FFF7C6FE05462748C4
:100C100004F054FC002229462A4804F093FC23489F
:100C200004F04CFC28480022442104F08BFCAC4228
:100C30001E482AD104F042FC254804F0D5FB254D7E
:100C400000221C212846FFF7A7FE044645F8040CA5
:100C5000FFF700FEFFF74CFE00221C211E48FFF7A5
:100C60009BFE8442114818D104F028FC1B4804F074
:100C7000BBFBFFF7F9FA62B638BD04F01FFC184859
:100C800004F0B2FBFFF7D6FB9EE704F017FC154813
:100C900004F0AAFBFFF7E2FCD1E704F00FFC1248D6
:100CA00004F0A2FBFFF7D6FDE3E700BFB15E00084A
:100CB000A15C000858000020A8000020B95C0008D2
:100CC000A00100200E5D0008195D0008E801002069
:100CD000255D00081801002038010020745D00081F
:100CE000DE5C0008475D00089E5D00081649174855
:100CF0002DE9F04142F2107C0D460446144F01F1FB
:100D00001C06B1F900E0B1F90420B1F90280A2EBB0
:100D10000E020CFB02F2B1F906300431A3EB08031A
:100D200092FBF3F3436003FB08F393FBF7F38E426C
:100D30007344C0F80080836000F10C00E1D1B5F984
:100D40001E306365BDE8F0812C020020F80700200A
:100D5000F0D8FFFF104A30B51368834218DB00213A
:100D60000C2505FB01F3D418D35883420BDBE36851
:100D7000834208DA6368584342F2107390FBF3F041
:100D8000A368184430BD01310729EAD1C820F9E72A
:100D90006FF00900F6E700BFF80700202DE9F843DF
:100DA000534C0746206800F0AFFA00232668310153
:100DB0008A19224410F803C01D460133DBB2BCF18E
:100DC000000F16D18A19A01805443A20FF1A28717D
:100DD00017F803C0DDB2BCF1000F0ED120232A4466
:100DE000033222440F2D15D8013502F8013FEDB230
:100DF000F8E7154485F804C0DCE70F2D05D89818EE
:100E0000204480F804C00133E2E700223144214449
:100E10000B441A71374804F051FB0022294636482A
:100E200004F090FB236803EB031222442A440025BC
:100E30000133172B1571236037D90A26A8464FF0C6
:100E400020092B4F284600F05FFA00232A0102EB0D
:100E5000050CA44410F803E019460133DBB2BEF1DF
:100E6000000F2ED14FF03A0C50192044014481F864
:100E700004C006EB0611214400EB030C9CF804E0CF
:100E8000BEF1000F21D1013BDBB2D9B20F2929D924
:100E90002A442244013513440E2D83F8048007F1BF
:100EA000110706F10106CDD12560FFF70BFA1148B5
:100EB00004F004FB21680022BDE8F8430F4804F069
:100EC00041BB614481F804E0C4E701EB030E092D46
:100ED0008CBF9EF804E09EF805E001338CF804E036
:100EE000DBB2C9E7F91881F804900133CDE700BF00
:100EF00078080020B15E00080F6100081461000846
:100F00002DE9F047534C804620680E4600F0FCF96E
:100F1000002327683901CA19224410F803C01D466E
:100F20000133DBB2BCF1000F16D1CA19A018054479
:100F30002E71A8EB030818F803C0DDB2BCF1000F56
:100F40000ED120232A44033222440F2D15D8013517
:100F500002F8013FEDB2F8E7154485F804C0DCE77C
:100F60000F2D05D89818204480F804C00133E2E71B
:100F70000022394421440B441A71374804F09EFA88
:100F800000222946354804F0DDFA236803EB0312FA
:100F900022442A4400250133172B1571236035D9CB
:100FA0000A27A9464FF0200ADFF8A880284600F05B
:100FB000ABF900232A0102EB050CA44410F803E06E
:100FC00019460133DBB2BEF1000F2BD1501920447A
:100FD00001440E7107EB0711214400EB030C9CF850
:100FE00004E0BEF1000F21D1013BDBB2D9B20F29E1
:100FF00029D92A442244013513440E2D83F8049044
:1010000008F1110807F10107D0D12560FFF75AF95F
:10101000114804F053FA21680022BDE8F047104857
:1010200004F090BA614481F804E0C7E701EB030ED5
:10103000092D8CBF9EF804E09EF805E001338CF882
:1010400004E0DBB2C9E708EB030181F804A0013337
:10105000CCE700BF78080020B15E00080F610008EF
:1010600014610008002384B00128009301D100908E
:1010700005E00228FBD003281BD112230093114B5B
:101080009A680192019A02929A6803920399029ACD
:10109000914204D35A6801990A4401320192039A99
:1010A0000292019A03980099121A8A42ECD304B072
:1010B0007047E4D9044B054A1B680338B3FBF2F3CD
:1010C0005843D4E710E000E08C02002040420F00BB
:1010D00007B50190019B13B903B05DF804FB4FF411
:1010E0007A70FFF7BFFF019B013B0193F2E700001D
:1010F00038B5684C684D204604F0E0F929680022B4
:10110000664804F01FFA204604F0D8F9A9680022C6
:10111000634804F017FA204604F0D0F92969002248
:10112000604804F00FFA204604F0C8F9A9690022CB
:101130005D4804F007FA204604F0C0F9296A00224D
:101140005A4804F0FFF9204604F0B8F9A96A0022D1
:10115000574804F0F7F9204604F0B0F9296B002253
:10116000544804F0EFF9204604F0A8F9A96B0022D6
:10117000514804F0E7F9204604F0A0F9296C002258
:101180004E4804F0DFF9204604F098F9A96C0022DB
:101190004B484C4D04F0D6F93220FFF799FF20461A
:1011A00004F08CF929680022474804F0CBF9204666
:1011B00004F084F9A9680022444804F0C3F92046E9
:1011C00004F07CF929690022414804F0BBF920466B
:1011D00004F074F9A96900223E4804F0B3F92046EE
:1011E00004F06CF9296A00223B4804F0ABF9204670
:1011F00004F064F9A96B0022384804F0A3F92046F2
:1012000004F05CF9A96A0022354804F09BF92046F5
:1012100004F054F9296B0022324804F093F9204677
:1012200004F04CF9296C00222F4804F08BF92F4D63
:101230003220FFF74DFF204604F040F929680022D4
:101240002B4804F07FF9204604F038F9A968002201
:10125000284804F077F9204604F030F92969002283
:10126000254804F06FF9204604F028F9A969002206
:10127000224804F067F9204604F020F9204B214869
:101280001968002204F05EF9BDE838403220FFF70B
:101290001FBF00BFC65E000804000020CD5E00082E
:1012A000E05E0008FE5E00081D5F00083A5F00086F
:1012B000585F0008755F0008935F0008B15F000881
:1012C000CF5F000854010020E75F0008FB5F0008C3
:1012D00014600008216000082E6000083B600008D0
:1012E000496000085B6000086E600008F4000020A0
:1012F0008B600008A7600008CF600008F16000085C
:101300008C020020FD6000087FB500220A2680EADA
:10131000E071A1EBE07104ADD4B22A4491FBF6F583
:1013200006FB1511631C303102F8101C5BB2291E3C
:101330001A46F0DC002806DA04A90A442D21A31C71
:1013400002F8101C5BB2002204A919440A4C01F8EF
:10135000102CD0B2191A934249B204D10022064887
:10136000E25404B070BD04AD294411F8111CA1541D
:10137000421C52B2EDE700BF50070020F0B5002339
:101380000A2780EAE07485B0A4EBE07404AEDDB215
:10139000334494FBF7F607FB16446A1C303403F819
:1013A000104C52B2341E1346F0DC002806DA04A8B2
:1013B00003442D20AA1C03F8100C52B2002304A8E9
:1013C000104400F8103CDDB2541B9A4264B201EBA9
:1013D000030004D100230370084605B0F0BD04A843
:1013E000044414F8110CC8546B1C5BB2EBE700000A
:1013F000F0B500230A2780EAE0748BB0A4EBE07418
:101400000AAEDDB2334494FBF7F607FB16446A1CC0
:10141000303403F8284C52B2341E1346F0DC012A53
:10142000D8BF30220AAC2344CFBF002403F8282CB5
:10143000AA1C52B2C8BF03F8284C022A08DC0129B2
:1014400006D930240AAB1344013203F8284C52B2B7
:1014500000242E26234665B2AA420BDC002806DAB9
:101460000AA95A1C0B442D2103F8141C53B2002264
:10147000124C19E08B421D4605D10AAF01333D44A1
:101480005BB205F8146C1DF804700AAD1D440133FD
:1014900005F8147C5BB20134DDE70AAD294411F88C
:1014A000151CA154421C52B2D0B2191A9A4249B228
:1014B000F3D100230148A3540BB0F0BD6007002016
:1014C00000234FF00A0CF0B580EAE0758BB0A5EB75
:1014D000E0750AAFDEB23B4495FBFCF70CFB1755F9
:1014E000741C303503F8285C64B23D1E2346F0DCE2
:1014F000012CD8BF30240AAD2B44CFBF002503F800
:10150000284CB41C64B2C8BF03F8285C022C08DC69
:10151000012A06D930250AAB2344013403F8285C9C
:1015200064B200252E272B466EB2A6420ADB0028A5
:1015300006DA0AA85A1C03442D2003F8140C53B2EF
:1015400000221AE093421E4606D10DF1280C013309
:1015500066445BB206F8147C1DF805C00AAE1E4452
:10156000013306F814CC5BB20135DDE70AAD2C443B
:1015700014F8154C8C54421C52B2D0B21C1A9A4228
:1015800064B201EB0205F1D1002308462B700BB0C9
:10159000F0BD002802D0DCBF404200B270470023FB
:1015A000DAB2815C01330029FAD11046704770B578
:1015B000002465B2435D661C4BB958B20D5C181926
:1015C00040B2161801332DB93570104670BD535511
:1015D0003446EEE71554F0E7F0B500277CB2055D20
:1015E0007E1C8DB968B27E190C5CF6B270B2013502
:1015F0006CB9214648B2145C701840B21D18013114
:101600003CB92C701846F0BD1D553746E6E71C5412
:10161000E8E71C54EEE72DE9F04180464FF46160A5
:1016200086B00D46B8FBF0F001A9FFF7A7FE01A8B0
:10163000FFF7B5FF012896BF012200223023144690
:1016400098BF2B70E6B2B31A06A95BB20B4413F82D
:10165000141C2B19741C64B2002945D13A221A704B
:101660003C23B8FBF3F2B2FBF3F001A903FB10201B
:10167000FFF784FE01A8FFF792FF01289FBF3023E8
:101680002B55B41C64B22646F7B23B1B06AA5BB2CC
:10169000134413F8142CAB197E1C76B232BB3A22D9
:1016A0001A703C23B8FBF3F001A903FB1080FFF78D
:1016B00065FE01A8FFF773FF01289CBF3023AB55DF
:1016C0004FF000039CBFBE1C76B25AB206A90A4472
:1016D00012F8141CF21852B2A818013341B9017063
:1016E000284606B0BDE8F0811970ABE71A70CBE769
:1016F000A954EAE7F0B507464FF4616087B00D469C
:10170000B7FBF0F001A9FFF739FE01A8FFF747FF8B
:10171000012896BF012200223023144698BF2B7067
:10172000E6B2B31A06A95BB20B4413F8141C2B19CA
:10173000741C64B229BB3A221A703C23B7FBF3F73E
:10174000B7FBF3F001A903FB1070FFF717FE01A828
:10175000FFF725FF01289CBF30232B554FF00003D6
:101760009CBFB41C64B25AB206A90A4412F8141CF5
:10177000E21852B2A818013329B90170284607B0FF
:10178000F0BD1970CCE7A954EDE7000002460D4901
:101790004B6808688B608342C1E9002007DC9342F4
:1017A00003DC9042A8BF10467047834206DB90429C
:1017B00004DC9342A8BF1346184670479842A8BF5E
:1017C000184670471407002002460D494B68086808
:1017D0008B608342C1E9002007DC934203DC904226
:1017E000A8BF10467047834206DB904204DC934258
:1017F000A8BF1346184670479842A8BF18467047BE
:101800002007002002460D494B6808688B60834220
:10181000C1E9002007DC934203DC9042A8BF1046D8
:101820007047834206DB904204DC9342A8BF134614
:10183000184670479842A8BF184670472C070020EA
:1018400002460D494B6808688B608342C1E900205D
:1018500007DC934203DC9042A8BF104670478342E6
:1018600006DB904204DC9342A8BF1346184670473B
:101870009842A8BF184670473807002002460D4915
:101880004B6808688B608342C1E9002007DC934203
:1018900003DC9042A8BF10467047834206DB9042AB
:1018A00004DC9342A8BF1346184670479842A8BF6D
:1018B00018467047440700207047704770477047CC
:1018C000014B1868704700BF4C020020094B10B54F
:1018D00098420DD060B1084A084C126820600AB1E5
:1018E0001830904723681B6913B1BDE810401847B2
:1018F00010BD00BF18610008740700204C020020D2
:10190000024B1860024B1868FFF7E0BF7407002015
:101910004C020020044B054A1B68934203D013B1CC
:101920005B6903B1184770474C020020186100083A
:101930004FF4804310B5064C02202361FFF792FB61
:101940004FF0804302202361BDE81040FFF78ABBBF
:10195000000C014070B54FF07C454FF480560D4CA3
:1019600025612661FFF7E4FF0120FFF7B1FB256148
:101970002661FFF7DDFF0120FFF7AAFB4FF480632C
:1019800025612361FFF7D4FFBDE870400120FFF718
:101990009FBB00BF000C01404FF07C42244B70B550
:1019A00004461A610E4611B14FF400421A61E20674
:1019B00044BF4FF400521A6114F0200F18BF4FF4C7
:1019C00080521B4B18BF1A61650644BF4FF400627A
:1019D0001A6114F0800F18BF4FF48063144D18BFC4
:1019E0002B61FFF7A5FF4FF07053E0072B6144BF59
:1019F0004FF400532B61A10742BF4FF480520C4BB0
:101A00001A61620742BF4FF40062094B1A61230753
:101A100042BF4FF48062064B1A61FFF789FF022034
:101A2000FFF756FB1EB14FF00042014B1A6170BD2B
:101A3000000C0140C00040F0400038B500F0F80054
:101A40000C460021FFF7A8FF651E073415F8010FAB
:101A50000121FFF7A1FFA542F8D1BDE838400021E0
:101A60008020FFF799BF000073B51F4C1F4D6946DA
:101A70000020CDE900451E4EFFF7DCFF1D4B6946F7
:101A80000120CDE90036FFF7D5FF1B4B6946CDE9B4
:101A900000350220194DFFF7CDFF69460320CDE93F
:101AA0000056FFF7C7FF69460420CDE90054FFF751
:101AB000C1FF134A134B69460520CDE90023FFF708
:101AC000B9FF114B11490620CDE900136946FFF714
:101AD000B1FF0F4B0F486946CDE900030720FFF720
:101AE000A9FF02B070BD00BF04150E0400041F1F43
:101AF0000000041F150E040000040E15040E15044A
:101B00000207070A0A1C1C08051509000F05050530
:101B1000010101001111111F064A1070064A1170CF
:101B200019B940F08000FFF737BF002140F0C00036
:101B3000F9E700BF780700207907002070B50D464F
:101B40000446C64314F8010B00B970BD0121FFF72C
:101B500023FF012DF6D13319DBB2072BF2D1294631
:101B60000020FFF7D9FFEDE70121C0B2FFF714BF56
:101B70002DE9F8430F46DFF878801B4C1B4E451EBD
:101B800015F8010F08B9BDE8F883B22819D1012171
:101B90004920FFF701FF237896F800900133DBB26C
:101BA0002370B9F1000FEBD1082BE9D1022FE7D157
:101BB00001214846FFF7B0FF012384F800903370FD
:101BC000DEE7AF2802D101210320E2E7AA2802D1F3
:101BD00001210220DDE7BF2889BF40440121012106
:101BE00010F8C00CD5E700BF780700207907002067
:101BF0005002002000210120FFF7CEBE08B564206E
:101C0000FFF766FAFFF7A6FE00210E20FFF7C4FEDD
:101C1000BDE80840FFF7EEBF0221FFF7A9BF10B5EE
:101C2000044608461146FFF777FF2046BDE81040FE
:101C30000221FFF79DBF08B5FFF7E0FFFFF7DAFFCE
:101C4000BDE8084000210C20FFF7A6BE054B82B07E
:101C50009A6902439A619B6918400190019B02B006
:101C6000704700BF001002400022014B1A807047ED
:101C7000E207002008B5FEF7ABFEBDE808400148CA
:101C8000FFF78CB85161000810B53B4C94F9001077
:101C900061B90846FFF740FF3848FFF7BDFF4FF432
:101CA0008762374B9A6140F2B4521A6294F900305D
:101CB000012B0DD100210846FFF72EFF3148FFF719
:101CC000ABFF4FF496722E4B9A614FF4D2721A62A8
:101CD00094F90030022B0DD100210846FFF71CFFBC
:101CE0002948FFF799FF4FF48C72254B9A614FF406
:101CF000B9721A6294F90030032B0CD10021084606
:101D0000FFF70AFF2148FFF787FFA0221C4B9A61CB
:101D10004FF48C721A6294F90030042B0DD100211B
:101D20000846FFF7F9FE1A48FFF776FF4FF44872AE
:101D3000134B9A614FF4AA621A6294F90030052B92
:101D40000CD100210846FFF7E7FE1248FFF764FFB9
:101D500064220B4B9A614FF4FA621A6294F90030D4
:101D6000062B04BF00232370FEF768FEBDE8104079
:101D70004FF41670FFF7ACB9930700200F6300080B
:101D8000540100202063000831630008426300080A
:101D90005363000864630008FEF750BE08B50121D4
:101DA0000720FFF7B9FE0121FF20FFF7F5FDFEF741
:101DB00045FE044BC8209A68034B1A60BDE80840F2
:101DC000FFF786B9540100201C0A002008B5012144
:101DD0000720FFF7A1FE0121FF20FFF7DDFDFEF741
:101DE0002DFE044BC8201A6C034B1A60BDE8084056
:101DF000FFF76EB954010020140A002018B1002228
:101E00001146FFF70CBF704749F6AF2310B50E4CD3
:101E100090B022689A4215D90C4B0BA91868FFF7AD
:101E200069FC4FF46163206801A9B0FBF3F0FFF790
:101E3000A5FA074906AB0BAAFFF7CEFB022106A8BD
:101E4000FFF75EF810B010BD800700209807002053
:101E50006162000810B5164C90B0164803F02EFBD6
:101E600000222168144803F06DFB49F6AF23226875
:101E70009A421BD9114B0BA91868FFF73BFC4FF492
:101E80006163206801A9B0FBF3F0FFF777FA06ABB6
:101E90000BAA0B49FFF7A0FB012106A8FFF730F8BA
:101EA000044803F00BFB06A803F09EFA10B010BD27
:101EB0007C070020B15E0008FD6100088C0700204F
:101EC0006162000808B501210720FFF725FEBDE883
:101ED00008400121FF20FFF75FBD000070B54FF003
:101EE000007191FAA1F1B1FA81F3104C00F0007188
:101EF000D94054F8215000F0F8704FF0F87292FA7F
:101F0000A2F3B3FA83F392FAA2F20726B2FA82F2AC
:101F100020FA03F306FA03F3D04025EA030306FA96
:101F200000F0184344F8210070BD00BF0C240140AC
:101F300030B54FF4407393FAA3F3B3FA83F31F243D
:101F400000F44072074DDA4055F8223000F01F00CF
:101F5000844001F01F0123EA04038140194345F83E
:101F6000221030BD2C24014000207047002310B502
:101F700096B00446084611A98DF804208DF8053066
:101F8000FFF7B8FB4FF4616002A9B4FBF0F0FFF774
:101F9000F5F907AB11AA0749FFF71EFB0CAA07A921
:101FA00001A8FFF704FB04210CA8FEF7A9FF16B057
:101FB00010BD00BF61620008022838B51F4C204DDB
:101FC0002AD123882A6801331BB29342238001D38C
:101FD0000023238000210846FFF79EFD2868B4F9FE
:101FE00000300138C01A00EB001004302844FFF71D
:101FF00013FE144803F062FAB4F9001000221248EC
:1020000003F0A0FA0F4803F059FA29680022BDE84E
:1020100038400E4803F096BA0128DBD12388013BF3
:102020001BB2002B2380BEBF2B6803F1FF3323803C
:10203000B4F90030002BCDDACAE700BFE207002078
:1020400078080020B15E000865620008726200082E
:10205000002110B504460846FFF75EFD0A4B1888BC
:1020600000B2FFF751F9FFF7D7FD0848FFF7D4FD9D
:10207000022C08D1BDE81040054B064A1B881BB254
:102080009360FEF7A5BC10BD5A080020B56100089A
:10209000B202002004000020002110B504460846CA
:1020A000FFF73AFD0A4B188800B2FFF72DF9FFF74A
:1020B000B3FD0848FFF7B0FD022C08D1BDE8104081
:1020C000054B064A1B881BB21361FEF781BC10BD8D
:1020D0005A080020B5610008B40200200400002066
:1020E000002110B504460846FFF716FD1F48FFF70C
:1020F00093FD022C30D1FEF743FDFEF725FC0021B5
:1021000004460846FFF708FD1948FFF785FD4FF420
:10211000FA60FEF7DDFF00210846FFF7FDFC012C09
:102120001BD11448FFF778FD1348FEF737FE4FF434
:10213000FA60FEF7CDFF114B1A69114B1A604FF48C
:102140006162104B19694A430F490A6099680F4A46
:1021500011601A6C0E4B1A6010BD0E48FFF75CFD43
:10216000BDE810404FF47A60FEF7B2BF5D61000831
:102170006E6100087F61000890610008F400002093
:102180008407002054010020180A00201C0A0020A7
:10219000140A00209F610008022810B50E4C15D1CA
:1021A00023690133236100210846FFF7B5FC20694C
:1021B000FFF7AAF8FFF730FD0848FFF72DFD4FF4B1
:1021C000616322695343064A136010BD0128EAD1B6
:1021D0002369013BE6E700BF540100207B63000850
:1021E000180A002010B5304C022894F9003052D162
:1021F00001335BB2072B08BF0023237094F9001052
:1022000029B90846FFF788FC2848FFF705FD94F92F
:102210000030012B06D100210846FFF77DFC244841
:10222000FFF7FAFC94F90030022B06D10021084692
:10223000FFF772FC1F48FFF7EFFC94F90030032B07
:1022400006D100210846FFF767FC1B48FFF7E4FCB6
:1022500094F90030042B06D100210846FFF75CFCFE
:102260001648FFF7D9FC94F90030052B06D1002160
:102270000846FFF751FC1248FFF7CEFC94F90030F6
:10228000062B10D100210846FFF746FCBDE81040A0
:102290000C48FFF7C1BC0128B0D1013B5BB2002B59
:1022A000B8BF0623A9E710BD930700209A62000873
:1022B000AB620008BD620008CE620008DE62000862
:1022C000EF620008FF620008022810B50D4C14D11F
:1022D000A3690A33A36100210846FFF71DFC0A2306
:1022E000A0690121B0FBF3F0FFF782F8FFF794FC3F
:1022F000BDE810400448FFF78FBC0128EBD1A3696B
:102300000A3BE7E7540100202C630008022810B5BF
:102310000D4C14D1236A0A33236200210846FFF7CB
:10232000FBFB0A23206A0121B0FBF3F0FFF760F802
:10233000FFF772FCBDE810400448FFF76DBC0128B0
:10234000EBD1236A0A3BE7E7540100202C63000825
:10235000022810B50B4C10D1A36A0133A3620021EF
:102360000846FFF7D9FBA06AFEF7CEFFFFF754FC43
:10237000BDE810400448FFF74FBC0128EFD1A36A25
:10238000013BEBE7540100202A640008022810B545
:102390000B4C10D1236B0133236300210846FFF758
:1023A000BBFB206BFEF7B0FFFFF736FCBDE810402B
:1023B0000448FFF731BC0128EFD1236B013BEBE769
:1023C000540100202A640008022838B51A4C2DD187
:1023D000A36B0133A36300210A250846FFF79CFB8A
:1023E000A06BFEF791FFFFF717FC1448FFF714FCF2
:1023F000206A0121B0FBF5F0FEF7FAFFFFF70CFCB5
:102400000F48FFF709FC6422236AA06B012158439F
:10241000B0FBF2F0181AB0FBF5F0FEF7E9FFFFF79A
:10242000FBFBBDE838400748FFF7F6BB0128D2D1D7
:10243000A36B013BCEE700BF540100207563000889
:10244000786300082C630008044B9A68044B1B68EF
:102450009A4201D1FFF736BD704700BF54010020FA
:102460001C0A0020044B1A6C044B1B689A4201D1D1
:10247000FFF728BD704700BF54010020140A002058
:10248000002110B504460846FFF746FB022C174B07
:102490000FD19A680132082A08BF01229A609A680F
:1024A000013A062A1FD8DFE802F00B121416181A98
:1024B0001C00012CF3D19A68013A08BF0722EDE70E
:1024C0000B48FFF7A9FBBDE81040FFF7BDBF094867
:1024D000F7E70948F5E70948F3E70948F1E709484C
:1024E000EFE70948EDE701229A6010BD5401002092
:1024F000B3630008C4630008D5630008E6630008FE
:10250000F76300080864000819640008002110B58A
:1025100004460846FFF700FB022C124B13D11A6C3D
:102520000132042A08BF01221A641A6C022A11D04F
:10253000032A11D0012A11D10B48FFF76DFBBDE82A
:102540001040FFF78FBF012CEFD11A6C013A08BF82
:102550000322E9E70548F0E70548EEE701221A649F
:1025600010BD00BF54010020806300089163000883
:10257000A2630008154B16499A6812F0100F0CD090
:102580009A68900616D59A68520615D59B68DB4363
:1025900013F0800312D10B807047032240F2DC500D
:1025A000B1F9003083420BDD40F2B4530B80094B8C
:1025B0001A700AE00222F1E70122EFE70422EDE7B8
:1025C00001331BB2142B0B80F1D07047000C01407B
:1025D000E0070020E4070020044B187810B1002128
:1025E000034A116000221A70704700BFE407002000
:1025F000A40700200022034B1A600122024B1A702C
:10260000704700BFD0070020AA07002038B5044655
:102610004FF46160B4FBF0F0FEF776FE0546FEF77E
:10262000BEFF012803D801211148FFF787FA0121D5
:102630002846FFF783FA01210E48FFF77FFA3C2373
:10264000B4FBF3F4B4FBF3F003FB1040FEF75CFEC5
:102650000446FEF7A4FF012803D801210448FFF730
:102660006DFA2046BDE838400121FFF767BA00BF88
:102670004F610008D96100084FF48032064B1A619F
:102680004FF08072A3F580631A610023034A137030
:10269000034A1370704700BF000C0140A2070020DE
:1026A000A90700200123054A1361054A1370054A52
:1026B00013704FF48072044B1A617047000C014094
:1026C000A2070020A907002000080140094908B519
:1026D0000B68022B03D1FFF7E5FF01230B600B68AA
:1026E000032B06D1044B9869012802D1FFF7DAFFCA
:1026F000086008BD74020020F400002000212DE9CC
:10270000F0410126294B2A4D074608461E70FFF767
:1027100003FA2B78274C03F0FF083BBB264B022122
:102720001888FEF765FEFFF777FA2448FFF774FA7A
:1027300041460720FFF7F0F9208800B2FEF7E4FDDC
:10274000FFF76AFA1E48FFF767FA05203146FFF7E0
:10275000E3F91C48FFF760FA022F03D12B7813BB73
:10276000FFF7A0FFBDE8F041FFF7B0BF164B022115
:102770001888FEF73DFEFFF74FFA1048FFF74CFAB6
:1027800000210720FFF7C8F9208800B2FEF7BCFD42
:10279000FFF742FA0D48FFF73FFA06203146FFF7F0
:1027A000BBF90B48D6E7FFF767FFDBE7A007002080
:1027B000A20700205A080020740800208562000843
:1027C000896200083A6100086E0800208F620008E4
:1027D000966200080122164B10B51A70FFF762FFCF
:1027E0000228144C1ED1A3690133A36100210846BD
:1027F000FFF792F9A069FEF787FDFFF70DFA0E4883
:10280000FFF70AFA01210020FFF786F90B4B188821
:1028100000B2FEF779FDFFF7FFF9BDE81040084868
:10282000FFF7FAB90128E1D1A369013BDDE700BF59
:10283000A0070020040000209E6300085A08002022
:10284000B06100080122164B10B51A70FFF72AFF7D
:102850000228144C1ED1A36A0133A362002108464A
:10286000FFF75AF9A06AFEF74FFDFFF7D5F90E48BA
:10287000FFF7D2F901210020FFF74EF90B4B02219F
:102880001888FEF7B5FDFFF7C7F9BDE81040084806
:10289000FFF7C2B90128E1D1A36A013BDDE700BF20
:1028A000A0070020040000209E6300087408002098
:1028B000856200080122164B10B51A70FFF7F2FE70
:1028C0000228144C1ED1236B0133236300210846D8
:1028D000FFF722F9206BFEF717FDFFF79DF90E4871
:1028E000FFF79AF901210020FFF716F90B4B02219F
:1028F0001888FEF77DFDFFF78FF9BDE81040084806
:10290000FFF78AB90128E1D1236B013BDDE700BF66
:10291000A0070020040000209E6300086E0800202D
:10292000856200080122164B10B51A70FFF7BAFE37
:102930000228144C1ED1A36B0133A3630021084667
:10294000FFF7EAF8A06BFEF7DFFCFFF765F90E482A
:10295000FFF762F901210020FFF7DEF80B4B02219F
:102960001888FEF745FDFFF757F9BDE81040084805
:10297000FFF752B90128E1D1A36B013BDDE700BFAE
:10298000A0070020040000209E63000858080020D3
:10299000856200080122F8B5294B2A4E1A70FFF70C
:1029A00081FE02282ED1338801333380002108466E
:1029B000FFF7B2F802213088FEF71AFD224F234CB0
:1029C000FFF72AF92248FFF727F93B8822889BB2B4
:1029D00012B2002A1F4D1ADC46232B64286CFEF726
:1029E00093FCFFF719F91C48FFF716F91B4B1B88DE
:1029F0003A8821889BB209B2002992B214DC0A23DA
:102A0000AB64F8BD0128D1D13388013BCDE73288D2
:102A100021889B1A42F210721BB223EAE3735343DC
:102A200009B293FBF1F3D8E79B1A42F210721BB282
:102A300023EAE3735343218809B293FBF1F3DFE701
:102A4000A007002078020020B60200205A080020CB
:102A50007863000804000020C461000874080020A6
:102A60000222064B1A610123054A1370054A1370AE
:102A70004FF40062044B1A61704700BF000C014024
:102A8000A2070020A80700200008014008B5FFF7B2
:102A9000F3FDFFF7E5FFBDE808403220FEF718BB65
:102AA00038B501220546154B154C1A70FFF7EEFF9D
:102AB000022D1ED1236A0133236200210846FFF74D
:102AC0002BF8206AFEF720FCFFF7A6F80D48FFF769
:102AD000A3F801210020FFF71FF80B4B188800B264
:102AE000FEF712FCFFF798F8BDE838400748FFF7FB
:102AF00093B8012DE1D1236A013BDDE7A007002057
:102B0000040000209E6300085A080020B0610008FD
:102B100008B50D4B93F90020022A13D002221A7037
:102B2000FFF7AAFDFFF79CFF0022084B32201A6036
:102B3000FEF7CEFA064802F0C1FCBDE808400548A1
:102B400002F052BC08BD00BF8A070020CC0700205D
:102B5000B15E0008B16F00084FF40032074B1A61F4
:102B60000023074A1370074A13704FF0006203F105
:102B7000804303F584331A61704700BF000C0140A5
:102B8000A2070020A80700200122234B022810B52D
:102B90001A70224C03D1237873BBFFF761FF002129
:102BA0000846FEF7B9FF1E4B02211888FEF720FCED
:102BB000FFF732F81B48FFF72FF81B4B188800B2BD
:102BC000FEF7A2FBFFF728F81848FFF725F823784F
:102BD0000121174C062093B9FEF79EFF0121022028
:102BE000FEF7C2FF01210220FEF7BEFF23780A2B69
:102BF00084BF0023237010BDFFF7AEFFCFE723781B
:102C0000052BE9D9FEF788FF01210320FEF7ACFF71
:102C100001210320E8E700BFA0070020A207002051
:102C20006E080020786300085A0800208F620008B0
:102C30008907002000212DE9F04101262C4B2D4D64
:102C4000074608461E70FEF767FF2B782A4C03F0F4
:102C5000FF083BBB294B02211888FEF7C9FBFEF792
:102C6000DBFF2748FEF7D8FF41460720FEF754FF59
:102C7000208800B2FEF748FBFEF7CEFF2148FEF7A2
:102C8000CBFF05203146FEF747FF1F48FEF7C4FF84
:102C9000022F2AD12B7813BBFFF704FDBDE8F041CA
:102CA000FFF7DEBE194B02211888FEF7A1FBFEF7E5
:102CB000B3FF1348FEF7B0FF00210720FEF72CFFFB
:102CC000208800B2FEF720FBFEF7A6FF1048FEF7B3
:102CD000A3FF06203146FEF71FFF0E48D6E7FFF799
:102CE000CBFCBDE8F041FFF737BFBDE8F08100BF86
:102CF000A0070020A20700205A0800207408002026
:102D000085620008896200083A6100086E080020A8
:102D10008F6200089662000808B5FFF71DFFFFF7F5
:102D2000C1FCBDE808403220FEF7D2B908B50D4B12
:102D300093F90020012A13D001221A70FFF70CFF2B
:102D4000FFF7B0FC0022084B32201A60FEF7C0F9F2
:102D5000064802F0B3FBBDE80840054802F044BB5A
:102D600008BD00BF8A070020CC070020B15E000824
:102D7000B46F00082DE9F04FBC4A87B0137801907A
:102D800003F0FF040292DFF844A3DFF844B3DFF856
:102D90004493B74FDFF84083B64D002B3DD1B64B7F
:102DA0001A88B64B1B6A0533934215D92146204633
:102DB000FEF7B2FEB248FEF72FFF4FF4FA60FEF7BF
:102DC00087F921462046FEF7A7FEAE48FEF724FF0E
:102DD00040F6B830FEF77CF901260024029B1E70F5
:102DE000A94B8AF800408BF80040C9F800403C60CD
:102DF0001C60C8F800402C608AF80060FFF796FF5E
:102E0000A24B214620461E70FEF786FEA048FEF724
:102E100003FF4FF47A70FEF75BF99E4C208800B2F6
:102E2000FEF7B7FB0528049440F3D1819A4B934EEB
:102E30001A88B1690393914220D9944C2278022ACE
:102E40001CD1964B1B68B3F57A7F17D900238BF8FA
:102E500000302968924B994203D928683968FFF7F6
:102E600085F80023C9F80030C8F8003001238AF83B
:102E700000300593FFF75AFF059B2370039B326ACE
:102E80001B889A4208D2814B1B78012B04D1834BBB
:102E90001B68B3F57A7F09D8824BD9F800201B68EC
:102EA0009A4223D9794B1B78012B1FD100238AF832
:102EB0000030D8F800207A4B9A4206D9D8F80000A2
:102EC0000122D9F80010FFF751F83A686E4B1A60EA
:102ED0002A68754B9A6000233B602B6001238BF8B6
:102EE0000030FFF715FE0222684B1A70019A6F4CF2
:102EF000022A94F9003040F0598101335BB2052B6E
:102F000008BF0023237094F90030002B32D11946FA
:102F100018460193FEF700FE039B02211888FEF776
:102F200067FAFEF779FE6248FEF776FE049B188882
:102F300000B2FEF7E9F9FEF76FFE5E48FEF76CFEA1
:102F400001210620FEF7E8FD01210420FEF70CFE1A
:102F5000594A019B1278012A40F03281114607201C
:102F600003930192FEF7D8FD019A039B1146184680
:102F7000FEF7FAFD94F90030012B28D10021084614
:102F80000193FEF7C9FD3069FEF7BEF9FEF744FE76
:102F90004A48FEF741FE0A22019BB0691946B0FB80
:102FA000F2F003930192FEF723FAFEF735FE404854
:102FB000FEF732FE039B019A306A1946B0FBF2F02D
:102FC000FEF716FAFEF728FE3D48FEF725FE94F9B7
:102FD0000060022E21D100210846FEF79DFD01214F
:102FE0003046FEF7C1FD00210120FEF795FD354872
:102FF000FEF712FE4FF461632868B0FBF3F0FEF7B2
:1030000083F9FEF709FE3048FEF706FE0320012192
:10301000FEF782FD3868FFF7F9FA94F90060032E95
:103020005CD100210846FEF777FD01210020FEF764
:103030009BFD00210120FEF76FFD2248FEF7ECFD0D
:103040004FF46163D8F80000B0FBF3F0FEF75CF9D1
:10305000FEF7E2FD1C48FEF7DFFD30460121FEF7DA
:103060005BFDD9F80000FFF7D1FA37E0A007002098
:1030700098070020800700207408002054010020D9
:103080003B6400084C6400089C070020700200208C
:103090005D6400085A0800206E080020CC0700205C
:1030A0004F8C0500180A0020F40000209107002032
:1030B000786300086E640008A9070020165C000809
:1030C0006E630008A0630008766400088B07002088
:1030D000940700208C0700207C07002094F9003022
:1030E000042B23D100210846FEF716FD0121022002
:1030F000FEF73AFD00210120FEF70EFD3A48FEF7EB
:103100008BFD3A4B98684FF46163B0FBF3F0FEF728
:10311000FBF8FEF781FD3648FEF77EFD0320012116
:10312000FEF7FAFC334B1868FFF770FA324802F0EA
:10313000C5F9029B00221978304802F003FA2E48A4
:1031400002F0BCF99AF8001000222D4802F0FAF9BA
:10315000294802F0B3F9D9F800100022294802F0FA
:10316000F1F9254802F0AAF9D8F800100022264803
:1031700002F0E8F9204802F0A1F99BF800100022C3
:10318000224802F0DFF91C4802F098F93968002261
:103190001F4802F0D7F9184802F090F90022296878
:1031A0001C4807B0BDE8F04F02F0CCB9019A012AE3
:1031B0007FF4A9AE013B5BB2002BB8BF0423A1E6AC
:1031C00001210720FEF7A8FC01210220D0E6124BC6
:1031D0001B68B3F57A7FA9D900210846FEF79CFC4D
:1031E0000E48FEF719FDA1E780640008F4000020F6
:1031F000836400089C070020B15E00089D640008FD
:10320000B2640008C7640008D7640008EF640008CF
:10321000076500081A650008CC0700208C640008C8
:103220000021F8B506460846FEF776FC0122664BFB
:103230001A70664B197811B91A70FFF7DBF9644DF3
:10324000644C2B68A26A9A4211D3FFF76FFD624B60
:10325000226A1B889A420AD2604B1B68B3F5C87F6A
:1032600005D9FFF7C7F92B68A26A13442B602B68B6
:10327000A26A9A420DD2FFF74BFC574BA2691B88FA
:103280009A4206D9554B1B68B3F5C87F01D9FFF7A1
:10329000B1F9A36A216B2A680B44934201D2FFF76C
:1032A000A9F94F4D022E95F900307DD101335BB263
:1032B000032B08BF00232B7095F900605EBB3146DD
:1032C0003046FEF729FC444B02211888FEF790F89F
:1032D000FEF7A2FC4348FEF79FFC434B188800B260
:1032E000FEF712F8FEF798FC4048FEF795FC012126
:1032F0000620FEF711FC01210520FEF735FC3C4BB2
:103300001F78012F58D139460720FEF705FC3946B2
:103310003046FEF729FC95F90060012E22D10021EC
:103320000A270846FEF7F8FB2069FDF7EDFFFEF7D8
:1033300073FC3048FEF770FCA0693146B0FBF7F033
:10334000FEF756F8FEF768FC2648FEF765FC206A93
:103350003146B0FBF7F0FEF74BF8FEF75DFC264870
:10336000FEF75AFC95F90030022B2CD100210846BB
:10337000FEF7D2FBA06AFDF7C7FFFEF74DFC1F4822
:10338000FEF74AFC206BFDF7BFFFFEF745FC1C482B
:10339000FEF742FC03200121FEF7BEFB194B186823
:1033A000BDE8F840FFF732B9012E85D1013B5BB291
:1033B000002BB8BF02237EE701210720FEF7ACFBFC
:1033C00001210220A5E7F8BDA0070020A1070020E9
:1033D000D0070020540100206E080020CC070020F8
:1033E00091070020786300085A0800206E640008E6
:1033F000A9070020165C00086E630008116200082F
:10340000336400089807002008B5FFF7A5FBBDE866
:103410000840FFF731B9000001222DE9F84F964E20
:10342000964B347882461A709846954DDFF8C092D4
:10343000944F2CBB944B1A88944B1B6A05339342D0
:1034400015D921462046FEF767FB9148FEF7E4FBBD
:103450004FF4FA60FDF73CFE21462046FEF75CFB88
:103460008C48FEF7D9FB40F6B830FDF731FE00235B
:10347000894A2B7089F80030136001223B6032705A
:10348000864B3A681B689A4205D8854B7F4A1B8851
:10349000126A9A4203D2FFF7B7FF00232B70FFF79F
:1034A00015F9BAF1020F7F4C40F0BD807E4B1B78BE
:1034B000002B40F0B480FFF72FFC01232B7094F910
:1034C0000010A1BB0846FEF727FB774BDFF8D0A121
:1034D0001A789B46002A40F0B2806B4B0221188874
:1034E000FDF786FFFEF798FB7048FEF795FB02217B
:1034F000BAF80000FDF77CFFFEF78EFB6C48FEF784
:103500008BFB9BF80030DFF8ECA101210720002B9A
:1035100040F0A880FEF700FB01210020FEF724FB0D
:103520009AF800300A2B84BF00238AF8003094F9FF
:1035300000A0BAF1010F1ED10021DFF850B10846FA
:10354000FEF7EAFA5B48FEF767FBDBF81000FDF7D1
:10355000DBFEFEF761FB5848FEF75EFB0A23DBF853
:1035600020005146B0FBF3F0FDF742FFFEF754FB9D
:103570005248FEF751FB94F90030022B1AD100217A
:103580000846FEF7C9FA4E48FEF746FB424B18685C
:103590004FF46163B0FBF3F0FDF7B6FEFEF73CFBC2
:1035A0004848FEF739FB03200121FEF7B5FA3868D9
:1035B000FFF72CF8444801F081FF3178002243489E
:1035C00001F0C0FF404801F079FF98F80010002298
:1035D0003F4801F0B7FF3C4801F070FF2978002216
:1035E0003C4801F0AFFF384801F068FF396800221D
:1035F000394801F0A7FF344801F060FF99F8001046
:103600000022364801F09EFF2F4801F057FF344B4F
:10361000002219683348BDE8F84F01F093BFFFF767
:10362000F3FE00234AE7BAF1010F7FF448AF237895
:10363000013B5BB2002BB8BF022323703FE702219E
:10364000BAF80000FDF7D4FEFEF7E6FA1748FEF7D9
:10365000E3FA254B188800B2FDF756FEFEF7DCFAB8
:1036600022484CE79AF80030052B7FF653AFFEF75F
:1036700053FA0121084651E7A1070020A0070020C6
:103680008B0700208C0700207408002054010020C4
:103690003B6400084C6400087C070020180A0020E6
:1036A0006E08002091070020A20700207863000820
:1036B0006E630008D8610008DB6100082C63000815
:1036C000E3610008E6610008B15E0008EF610008F0
:1036D0009D640008B2640008C7640008EF64000835
:1036E00098070020076500085A0800206E6400084B
:1036F000940700208907002001222DE9F84FBA4ED7
:10370000BA4B357882461A709846B94CDFF8509318
:10371000B84F2DBBB84B1A88B84B1B6A0533934280
:1037200015D929462846FEF7F7F9B548FEF774FA89
:103730004FF4FA60FDF7CCFC29462846FEF7ECF979
:10374000B048FEF769FA40F6B830FDF7C1FC002337
:10375000AD4A237089F80030136001223B6032705B
:10376000AA4B3A681B689A4240F2FB80FFF74CFE76
:1037700000232370FEF7AAFFBAF1020FA44D40F018
:103780000981A44B1B78002B40F00081FFF7C4FA9D
:103790000123237095F90010A1BB0846FEF7BCF980
:1037A0009C4BDFF8B0A21A789B46002A40F0FE80BE
:1037B000914B02211888FDF71BFEFEF72DFA964863
:1037C000FEF72AFA0221BAF80000FDF711FEFEF713
:1037D00023FA9248FEF720FA9BF80030DFF884A223
:1037E00001210720002B40F0F480FEF795F901211C
:1037F0000020FEF7B9F99AF800300A2B84BF0023A5
:103800008AF8003095F900A0BAF1010F1ED100210D
:10381000DFF8E8B10846FEF77FF98148FEF7FCF9CA
:10382000DBF81000FDF770FDFEF7F6F97D48FEF7B6
:10383000F3F90A23DBF820005146B0FBF3F0FDF763
:10384000D7FDFEF7E9F97548FEF7E6F995F900307E
:10385000022B2FD100214FF00A0ADFF8A0B1084651
:10386000FEF75AF9DBF83800FDF74EFDFEF7D4F904
:103870006D48FEF7D1F9DBF820000121B0FBFAF02A
:10388000FDF7B6FDFEF7C8F96348FEF7C5F96422F7
:10389000DBF82030DBF8380001215843B0FBF2F0B0
:1038A000181AB0FBFAF0FDF7A3FDFEF7B5F95B4877
:1038B000FEF7B2F995F90050032D1AD10021084600
:1038C000FEF72AF95948FEF7A7F94F4B18684FF44D
:1038D0006163B0FBF3F0FDF717FDFEF79DF9544867
:1038E000FEF79AF928460121FEF716F93868FEF727
:1038F0008DFE6420FDF7ECFB4E4801F0DFFD3178D2
:1039000000224D4801F01EFE4A4801F0D7FD98F80C
:1039100000100022494801F015FE464801F0CEFD96
:1039200021780022464801F00DFE424801F0C6FD14
:1039300039680022434801F005FE3E4801F0BEFD13
:1039400099F800100022404801F0FCFD394801F0D0
:10395000B5FD3E4B002219683D48BDE8F84F01F027
:10396000F1BD3C49254A0888136A8342FFF4FEAE44
:103970006420926B09885A43B2FBF0F29B1A8B4287
:103980007FF6F8AEFFF7C8F90123F2E6FFF73CFD3A
:103990000023FEE6BAF1010F7FF4FCAE2B78013B69
:1039A0005BB2002BB8BF03232B70F3E60221BAF8F9
:1039B0000000FDF71DFDFEF72FF91748FEF72CF963
:1039C000254B188800B2FDF79FFCFEF725F9234828
:1039D00000E79AF80030052B7FF607AFFEF79CF85A
:1039E0000121084605E700BFA1070020A00700202D
:1039F0008B0700208C070020740800205401002051
:103A00003B6400084C6400087C070020180A002072
:103A100091070020A2070020786300082C630008AB
:103A2000D8610008DB61000875630008E3610008E5
:103A300083640008B15E0008EF6100089D6400081F
:103A4000B2640008C7640008EF640008980700200B
:103A5000076500086E0800205A080020CF610008A2
:103A6000940700208907002001212DE9F8438A4DA1
:103A70008A4E2B7831708A4A4BB929708949137064
:103A80000B7089490B7089490B6089490B60894F1C
:103A900089493B889BB20B8088498C698846A34240
:103AA000C0F0F180002313708549864B09681B68BC
:103AB000DFF8F4915B1A032B06D9137823B1FFF7D3
:103AC000A3FC002389F8003002287F4C40F0C78017
:103AD0007E4B1B78002B40F0BE80FEF7D7FF012302
:103AE00089F8003094F9001041BB0846FEF714F83D
:103AF00002213888FDF77CFCFEF78EF87448FEF74B
:103B00008BF8744B744F188800B2FDF7FDFBFEF77D
:103B100083F87248FEF780F86C4B01211B78072070
:103B2000002B40F0A780FDF7F7FF01210220FEF7F0
:103B30001BF83B780A2B84BF00233B7094F900707C
:103B4000012F13D100210846FDF7E6FF6448FEF778
:103B500063F80A23D8F818003946B0FBF3F0FDF7F4
:103B600047FCFEF759F85F48FEF756F894F9003025
:103B7000022B1BD100210846FDF7CEFF5A48FEF765
:103B80004BF85A4B98684FF46163B0FBF3F0FDF7C4
:103B9000BBFBFEF741F85648FEF73EF80320012133
:103BA000FDF7BAFF534B1868FEF730FD94F900702B
:103BB0003F4C032F1AD100210846FDF7ADFF4E48B8
:103BC000FEF72AF8394B18684FF46163B0FBF3F045
:103BD000FDF79AFBFEF720F84848FEF71DF8384637
:103BE0000121FDF799FF2068FEF710FD444801F020
:103BF00065FC29780022434801F0A4FC404801F00C
:103C00005DFC31780022404801F09CFC3C4801F00A
:103C100055FC244B002219783C4801F093FC3848AD
:103C200001F04CFC3A4B002219683A4801F08AFC3A
:103C3000334801F043FC99F800100022364801F0A7
:103C400081FC2F4801F03AFC21680022BDE8F843CE
:103C5000324801F077BCFFF7D7FB002340E701288B
:103C60007FF440AF2378013B5BB2002BB8BF032346
:103C7000237037E73B78052B7FF655AFFDF74CFFF8
:103C80000121032053E713781BB90E4B19680C4B25
:103C90001960012307E700BFA1070020A00700204B
:103CA000880700208B070020940700208007002051
:103CB000980700206E080020D4070020540100203F
:103CC000D8070020E807002091070020A207002065
:103CD000786300085A08002089070020CF61000897
:103CE000556200082C63000880640008F40000207E
:103CF000E66100089C0700209762000883640008C2
:103D0000B15E0008EF6100089D640008B26400081D
:103D10008C070020C7640008EF64000807650008EE
:103D20002DE9F04F864A85B01378834603F0FF08EB
:103D30000092DFF858A2834EDFF85492824D834FF1
:103D4000834C002B46D1834B1A88834B1B6A053367
:103D5000934215D941464046FDF7DEFE7F48FDF708
:103D60005BFF4FF4FA60FDF7B3F941464046FDF7BB
:103D7000D3FE7B48FDF750FF40F6B830FDF7A8F9B9
:103D800001234FF00008009A01931370754A8AF8D6
:103D9000008082F80080744AC6F80080C9F800806C
:103DA000C2F80080C5F80080C7F800808AF80030AB
:103DB000FEF7BCFF019B6D4A414640461370FDF77C
:103DC000ABFE6B48FDF728FF4FF47A70FDF780F9E2
:103DD000019B237094F90030032B00F3F981DFF885
:103DE000B481B8F8000000B2FDF7D3FB0528CDF888
:103DF000048040F3A2815F4B574A1988906990462E
:103E0000884202932AD9594B1A78022A26D15A4B52
:103E10001B68B3F57A7F21D9002352490B703968AA
:103E2000564B994204D93868D9F80010FEF79EF82D
:103E3000D9F800204C4B1A603A68514B9A60012225
:103E400000238AF8002003922B603360FEF76EFF98
:103E50002378039A01332370444B1A70454BD8F8EA
:103E600020201B889A4208D2404B1B78012B04D19A
:103E7000414B1B68B3F57A7F08D8424B32681B6808
:103E80009A4222D9394B1B78012B1ED194F900306C
:103E9000022B1ADC00238AF800302A68374B9A423A
:103EA00004D9286801223168FEF760F801232D4A01
:103EB000137000233B60C9F80030FEF729FE022290
:103EC000237801332370294B1A702A4BD8F820200D
:103ED0001B889A4208D2254B1B78012B04D1264B14
:103EE0001B68B3F57A7F08D8264B32681B689A4264
:103EF00052D91E4B1B78012B4ED194F90030022B66
:103F00004ADDFFF781FA0023164A8AF80030137061
:103F10002A681A4B9A4204D9286801223168FEF7B0
:103F200025F802222378934503F101032370164BF1
:103F30001A7040F0EE800322134B1A7038E000BF75
:103F4000A00700208C0700207C07002080070020AD
:103F50009007002074080020540100203B640008F2
:103F60004C640008940700209C0700207002002089
:103F70005D6400086E080020CC0700204F8C05000F
:103F8000F4000020180A0020910700208B07002071
:103F9000980700205A080020BBF1020F40F0B980BA
:103FA000C64A137801335BB2042B08BF0023137099
:103FB000C24C94F900B0BBF1000F2ED159465846BF
:103FC000FDF7AAFD029B02211888FDF711FAFDF703
:103FD00023FEBB48FDF720FE019B188800B2FDF7C9
:103FE00093F9FDF719FEB748FDF716FE01210620EB
:103FF000FDF792FD01210420FDF7B6FDB24B1B78C1
:10400000012B40F09380194607200193FDF784FDB2
:10401000019B58461946FDF7A7FD94F900B0BBF186
:10402000010F27D100210846FDF776FDD8F81000D2
:10403000FDF76AF9FDF7F0FDA448FDF7EDFD0A2351
:10404000D8F818005946B0FBF3F00193FDF7D0F90A
:10405000FDF7E2FD9A48FDF7DFFD5946D8F820004C
:10406000019BB0FBF3F0FDF7C3F9FDF7D5FD9848D0
:10407000FDF7D2FD94F90080B8F1020F22D10021A2
:104080000846FDF749FD01214046FDF76DFD002181
:104090000120FDF741FD8F48FDF7BEFD4FF4616340
:1040A0003868B0FBF3F0FDF72FF9FDF7B5FD8A484E
:1040B000FDF7B2FD03200121FDF72EFDD9F8000028
:1040C000FEF7A4FA94F90040032C42D100210846DF
:1040D000FDF722FD01210020FDF746FD0021012012
:1040E000FDF71AFD7B48FDF797FD4FF461632868E3
:1040F000B0FBF3F0FDF708F9FDF78EFD7648FDF70C
:104100008BFD20460121FDF707FD3068FEF77EFAA2
:104110001FE0BBF1010F7FF44BAF684A1378013BFE
:104120005BB2002B1370BFF643AF04E701210720F9
:10413000FDF7F2FC012102206DE7684B1B68B3F527
:104140007A7F06D900210846FDF7E6FC6448FDF7B2
:1041500063FD644801F0B2F9009B002219786248BF
:1041600001F0F0F95F4801F0A9F99AF80010002277
:104170005E4801F0E7F95B4801F0A0F931680022E0
:104180005B4801F0DFF9574801F098F929680022EF
:10419000584801F0D7F9534801F090F9564B0022E6
:1041A0001978564801F0CEF94E4801F087F9D9F850
:1041B00000100022524801F0C5F94A4801F07EF98A
:1041C000002239684F4805B0BDE8F04F01F0BAB998
:1041D0003A4CBBF1020F94F900305FD101335BB26E
:1041E000042B08BF0023237094F90080B8F1000F5E
:1041F0002DD141464046FDF78FFC434B02211888E4
:10420000FDF7F6F8FDF708FD2D48FDF705FD3F4BDE
:10421000188800B2FDF778F8FDF7FEFC2948FDF795
:10422000FBFC01210620FDF777FC01210420FDF7AE
:104230009BFC254B93F800B0BBF1010F37D15946D9
:104240000720FDF769FC59464046FDF78DFC94F9BF
:104250000080B8F1010F7FF40DAF0021DFF8B0B09E
:104260000846FDF759FCDBF81000FDF74DF8FDF7A7
:10427000D3FC1648FDF7D0FC0A23DBF818004146B2
:10428000B0FBF3F00193FDF7B3F8FDF7C5FC0C4864
:10429000FDF7C2FCDBF820004146E1E6BBF1010F6F
:1042A000A2D1013B5BB2002BB8BF03239BE70121E6
:1042B0000720FDF731FC01210220C6E7910700200D
:1042C000786300086E640008A9070020165C0008E7
:1042D0006E630008A063000876640008CC07002025
:1042E0008C640008B15E00089D640008B264000898
:1042F000C7640008D764000894070020EF64000832
:10430000076500081A6500086E0800205A0800209A
:1043100054010020F0B5344D91B02B883349B3F5EA
:10432000E16F5DD2324B1B68062B59D9314B324CB1
:104330009B6813F0010318BF0123A361FFF764F822
:104340000B78002B4AD101232C4E0B70336823616C
:10435000FCF7CEFB2A4801F0B1F802222169294876
:1043600001F0F0F849F6AF2332689A4215D9264B8E
:104370000BA91868FDF7BEF94FF46163206901A924
:10438000B0FBF3F0FCF7FAFF204906AB0BAAFDF7F0
:1043900023F9022106A8FCF7B3FD0A23288801228D
:1043A000B0FBF3F001A9FDF78BF806AA0146184807
:1043B000FDF7FDF8FCF7F2FC0524114F154E3846C9
:1043C00001F07CF829880222304601F0BBF8013C5C
:1043D0000A20FCF77DFE14F0FF04F0D111B0F0BD0F
:1043E00000230B70FAE700BF58080020710200207C
:1043F000E8070020000C0140F400002080070020A6
:10440000B15E000830610008980700206162000872
:10441000356100083F61000801222DE9F041A14B00
:10442000A14C02281A7086B094F9003040F0308117
:1044300013445BB2082B08BF0023237094F90010CB
:10444000F1B9FEF7E1FF0846FDF766FB9748FDF777
:10445000E3FB974B012118880A23B0FBF3F0FCF72C
:10446000C7FFFDF7D9FB9348FDF7D6FB924B02211E
:104470001888FCF7BDFFFDF7CFFB9048FDF7CCFB9C
:1044800094F90030012B1BD1FEF7BEFF0021084636
:10449000FDF742FB8A48FDF7BFFB8A4B02211888D3
:1044A000FCF7A6FFFDF7B8FB8748FDF7B5FB874B88
:1044B000D888FCF729FFFDF7AFFB8548FDF7ACFB7B
:1044C00094F90050022D1BD1FEF7ECF800210846AC
:1044D000FDF722FB7F48FDF79FFB7F4B294618889D
:1044E000FCF786FFFDF798FB7748FDF795FB774BC8
:1044F0009888FCF709FFFDF78FFB7548FDF78CFBEB
:1045000094F90030032B1DD1FEF726FBFEF7CAF805
:1045100000210846FDF700FB7048FDF77DFB704B5E
:10452000188800B2FCF7F0FEFDF776FB6D48FDF74A
:1045300073FB664B5888FCF7E7FEFDF76DFB64489C
:10454000FDF76AFB94F90030042B1DD1FEF794F8B7
:10455000FEF786FA00210846FDF7DEFA6248FDF70D
:104560005BFB624B188800B2FCF7CEFEFDF754FBF4
:104570005C48FDF751FB554B1888FCF7C5FEFDF76D
:104580004BFB5B48FDF748FB94F90030052B45D108
:104590004C4F584EFEF7E0FAFEF784F83B8831881E
:1045A000DFF83C81591A42F210734B43B8F80020EF
:1045B000002112B293FBF2F34F4D0846AB64FDF7B6
:1045C000ABFA4E48FDF728FB286CFCF79DFEFDF783
:1045D00023FB4B48FDF720FBA86CFCF795FEFDF78D
:1045E0001BFB4848FDF718FB474800F067FFB8F889
:1045F0000010002209B2454800F0A4FF424800F034
:104600005DFF39880222424800F09CFF3E4800F0DE
:1046100055FF318802223F4800F094FF94F90030A2
:10462000062B0FD1FEF7F0FE00210846FDF774FAC5
:10463000394B01A91868FCF7EEFFFDF7EDFA374892
:10464000FDF7EAFA94F90030072B1ED1FEF784FA41
:10465000FEF728F800210846FDF75EFA3048FDF71E
:10466000DBFA304B1868FCF775FBFCF74DFEFDF7E5
:10467000D3FA2D48FDF7D0FA144B5889FCF744FEC5
:10468000FDF7CAFA0D48FDF7C7FA06B0BDE8F0819C
:1046900001287FF4D3AE013B5BB2002BB8BF0723E8
:1046A000CBE600BFA00700209207002005620008AB
:1046B000580800200A6200086C0800209D6300086A
:1046C0000F62000874080020786300085C0800206E
:1046D0009B630008146200086E0800201A6200083C
:1046E0005A0800202062000824620008B40200205A
:1046F0009A630008B6020020040000202A62000825
:104700002D62000832620008B15E00083A620008BB
:104710003E62000845620008E8070020996300082F
:104720004D6200087008002050620008F0B50026B5
:104730004FF4F02385B0704C0096019602960396D4
:10474000E2896E4D93FBF2F36D4A9BB21380E188D0
:10475000AB6AE2894B43B3FBF2F300930098FDF799
:1047600051F802900298FDF7A9F8664A6649136865
:10477000184410600B8801331BB20B800B881BB2EE
:104780001F2B0CDD2020136893FBF0F35F489BB2D6
:1047900003800E8016600388022B98BF0680A188D4
:1047A0002B6BE2894B43B3FBF2F300930098FDF7C8
:1047B00047F802900298FDF782F8554F554E3B6836
:1047C00018443860338801331BB233802189AB6BC6
:1047D000E2894B43B3FBF2F300930098FDF74EF8E8
:1047E0004D4B80B218800A23A869618843434B432C
:1047F000E289B3FBF2F301930198FCF7C7FF039042
:104800000398FDF759F8454A454913681844106064
:104810000B8801331BB20B800B881BB21F2B09DDE9
:104820002020136893FBF0F33E481BB20380002363
:104830000B8013600A23286A218843434B43E28993
:10484000B3FBF2F301930198FCF7BEFF03900398CA
:10485000FDF733F8344A35491368184410600B8863
:1048600001331BB20B800B881BB21F2B09DD2020EC
:10487000136893FBF0F32E481BB2038000230B80D8
:1048800013602C4B2C499B6813F0020F15BF284B6B
:10489000244B1A881B8814BF2B69AA689B1A1BB269
:1048A0000B8033881BB21F2B24DD20223B68234C56
:1048B00093FBF2F3224A136000233B6033801068BD
:1048C00080B2208010680228D8BF13600888098849
:1048D0002B6C09B24B431B48146893FBF0F3234441
:1048E00013601368022BDCBF002313601368164AA1
:1048F0009BB2138005B0F0BD5C08002004000020CE
:104900006C080020BC070020C007002074080020AD
:10491000C4070020C807002058080020AC0700206A
:10492000B0070020B2020020B4070020B807002022
:10493000B4020020000C01405A080020B6020020FA
:10494000DC070020F0D8FFFF6E080020F8B5FDF767
:1049500011FE334A334E1368013313603388042B3E
:1049600005D900233380FFF7E1FEFFF7D3FC2E4D7E
:104970002E4C2B88632B84BF00232B802388B3F518
:104980007A7F40D300232A4F23803B881BB2012B20
:1049900007DC388800B2FCF7FCFD264A136818448F
:1049A00010603B881BB2022B07DD388800B2FCF791
:1049B000F0FD214A136818441060204B1B78012B2E
:1049C00001BF1F4A1368013313601E4B1B78012B74
:1049D00001BF1D4A1368013313601C4B1B78012B68
:1049E00001BF1B4A1368013313601A4B1A68013266
:1049F0001A601B6813F0010F0CBF4FF400424FF018
:104A00000042154B1A61338801339BB233802B88E7
:104A100001339BB22B80238801339BB22380F8BDE6
:104A2000CC070020B0020020AE020020AC02002023
:104A30005A080020800700207C0700208B070020F8
:104A40008C0700209407002098070020AA07002068
:104A5000D0070020E80700200008014010B51D4CD9
:104A6000236843F48033236023689A03FCD563688A
:104A700023F47C1343F4A0236360E36A23F00F0361
:104A8000E362236843F08073236023689B01FCD5B5
:104A9000636823F0F0036360636823F4E06363609A
:104AA000636823F460536360636823F0030343F097
:104AB00002036360636803F00C03082BFAD1064815
:104AC00000F088FF044800F093FF636823F440433C
:104AD000636010BD0010024000366E012DE9F04FFA
:104AE000C54D91B00120FDF7B1F8EB69DFF85C939B
:104AF00043F08053EB61EB69DFF854A303F080537C
:104B00000093009BD9F80C20BC4B22F4E062120405
:104B1000120C1343C9F80C30B94BBA4E5A68002432
:104B200022F0E0625A605A684FF0010B42F00072C6
:104B30005A60FFF793FF1422002109A800F08DFFAF
:104B40002020FDF783F80420FDF780F80820FDF70A
:104B50007DF84FF60343CAF814304FF40943022797
:104B6000736140F203334FF0040809A95046CDE9C0
:104B7000093BCDE90B7400F0E5FDA34B09A95046B4
:104B8000CDE9093BCDF830800B9700F0DBFD9F4B62
:104B900009A93046CDE9093BCDE90B7400F0D2FDFF
:104BA0004FF2F002082309A95046CDE90923CDF8B8
:104BB00034B000F0C7FD6B6943EA0B036B616B69AE
:104BC000934D03EA0B030193019BD9F80C00C0F34A
:104BD0000220FDF7C9F94FF4006300FA08F0C0B2F3
:104BE00085F80B031C222B60214609A800F035FF35
:104BF0001422214604A800F030FF4FF48040FDF756
:104C000025F84046FDF722F8092382493046CDE9D0
:104C10000413032304A9CDE9063400F093FD7E4B71
:104C200004A93046CDE9043800F08CFDD9F80C0019
:104C3000C0F30220FDF798F9202300FA08F0C0B273
:104C400085F825036B60754D09A9EB68284643F08C
:104C50008003EB604FF41643CDE909340C23CDE912
:104C60000B44CDE90D340F9400F046FE2B6914225D
:104C700023F490432B616B69214623F02A036B6177
:104C8000EB6804A843F40053EB60CDE9024400F064
:104C9000E4FE1422214609A800F0DFFE4FF4007064
:104CA000FCF7D4FF4046FCF7D1FF47F67E6309A925
:104CB0003046CDE9093400F045FD594B4FF480787A
:104CC0001A68A5F5A05522F4804222F010021A605D
:104CD0001A6802A922F4405242F400521A601A687B
:104CE000284642F020021A601A6822F040021A6038
:104CF0001A6842F080021A601A6822F4407242F484
:104D000080721A601A6822F4406242F480621A606B
:104D1000444A9A60444ADA605A68120C120442F01B
:104D200008025A601A6842EA0B021A600294CDF82F
:104D30000C8000F0D0FC4FF4E0034FF4602004A995
:104D4000CDE904032846CDE90647CDF8208000F0E0
:104D5000D7FC36494FF40070FDF7EAF83348FDF709
:104D6000BDF8334940F20520FDF7E2F83048FDF781
:104D7000B5F8304940F20A20FDF7DAF82D48FDF782
:104D8000ADF82D4940F20F20FDF7D2F82A48FDF783
:104D9000A5F82A494FF40570FDF7CAF82748FDF732
:104DA0009DF8274940F21920FDF7C2F82448FDF785
:104DB00095F824494046FDF7BBF82248FDF78EF8E8
:104DC000AB68214943F40003AB6040F20510FDF7E6
:104DD000AFF81D48FDF782F8AB68642043F4000388
:104DE000AB60AB6843EA0B03AB60FCF771F9AB68EF
:104DF00043F00403AB602DE0001002400003FA050D
:104E00000000014000080140FC00FC048900890406
:104E100000E100E002000204040004040038014044
:104E2000080002404C2401405C08002001003002D0
:104E300002006002030090020400C0020500F002BC
:104E400006002003100020811100508100ED00E0D9
:104E5000000C0140AC6814F00404FBD1AB6843F4CF
:104E6000A003AB60FCF7E7FE00F08EFA4FF47A7215
:104E7000AF4B1B68B3FBF2F3013BB3F1807F08D269
:104E8000F021AC4A5360AC4B83F8231007239460A5
:104E900013604FF4004300243361A84DFEF7B4FAC9
:104EA000A7482C60FCF7B8FEFCF722F9A54800F0F3
:104EB00005FBA34800F098FAFCF7D6FD21462046F2
:104EC000FCF72AFE4FF47A70FCF702F9FBF730FA90
:104ED0002B68172B88BF2C60FBF736FD0446002893
:104EE00054D14FF47A70FCF7F3F8FBF72DFD04462C
:104EF000944800F0E3FA944800F076FA002C45D18B
:104F00009248FCF789FE4FF47A60FCF7E1F890488C
:104F1000FBF744FF8B4800F0D1FA8B4800F064FAAD
:104F20008C4D8D4B2A698D4C1A604FF46163226958
:104F30008B4E53438B4A1360A2688B4B1A60236CD1
:104F40008A4A33601360FBF7D1FE4FF47A70FCF7A6
:104F5000BFF8FCF74FFE8648FCF7D2FCA368012B94
:104F60001BD18448FCF7B2FC834FDFF80892DFF8CE
:104F700060823B7801333B70FDF72EFB431E0446F5
:104F8000032B27D8DFE803F021474B52012CC7D170
:104F90006C4800F093FA7948C0E7022B01D17848B9
:104FA000E0E7032B01D17748DCE7042B01D17648F9
:104FB000D8E7052B01D17548D4E7062B01D17448F9
:104FC000D0E7072BCDD17348CCE7FCF779FC4068DC
:104FD000FCF77CFCFCF774FC81452BD12046FDF7E7
:104FE0008DFB98F8003003F0FF0183B9FEF70CFA4F
:104FF000694B1970694B1970694B1B68AB60694B41
:105000001A68694B1A60694B197001233360642078
:10501000FCF75EF8ADE7FCF753FC0068D8E7022028
:10502000FCF778FCFCF74CFCC068D1E7FCF748FCC7
:105030008068CDE7FCF744FC514B834203D1204606
:10504000FDF7A2FDCDE7FCF73BFC4E4B834203D1BD
:105050002046FEF7E1F9C4E7FCF732FC4A4B8342F5
:1050600003D12046FEF748FBBBE7FCF729FC474B82
:10507000834203D12046FEF7F7FCB2E7FCF720FCA1
:105080004B4B834203D12046FEF74AFEA9E7FCF7CB
:1050900017FC3F4B834203D12046FDF76BFEA0E790
:1050A000FCF70EFC3B4B834203D12046FEF7B8F8D9
:1050B00097E7FCF705FC3F4B834203D12046FDF701
:1050C000B9FD8EE7FCF7FCFB3B4B834203D1204646
:1050D000FFF7A2F985E7FCF7F3FB384B834203D1D6
:1050E0002046FCF769FF7CE7FCF7EAFB344B834280
:1050F00003D12046FCF7D0FF73E7FCF7E1FB314B0F
:10510000834203D12046FCF7A3FF6AE7FCF7D8FBF4
:105110002D4B834203D12046FDF7C2FC61E7FCF72B
:10512000CFFB2A4B834255D12046FDF753FB58E76E
:105130008C02002010E000E000ED00E07808002084
:105140007A020020C65E0008BB6F0008D36F00081B
:10515000E46F0008F40000208407002054010020C0
:1051600074020020180A00201C0A0020140A0020E3
:10517000FD1D0008706C000889070020EC5D000828
:10518000C86C0008206D0008786D0008D06D00081C
:10519000806E0008D86E0008A1070020910700204B
:1051A00080070020980700209C0700208A07002025
:1051B000FC6D0008306F0008886F0008D468000894
:1051C00044660008EC650008F46600089C66000868
:1051D000A0070020FCF774FB3F4B834203D120461D
:1051E000FDF7A0FBFDE6FCF76BFB3C4B834203D1D4
:1051F0002046FDF75FFBF4E6FCF762FB384B834289
:1052000003D12046FDF71EFBEBE6FCF759FB354BBF
:10521000834203D12046FDF7BDFBE2E6FCF750FBDD
:10522000314B834203D12046FCF75AFFD9E6FCF705
:1052300047FB2E4B834203D12046FCF7ADFFD0E65F
:10524000FCF73EFB2A4B834203D12046FCF7CAFF02
:10525000C7E6FCF735FB274B834203D12046FDF719
:1052600033F8BEE6FCF72CFB234B834203D12046E8
:10527000FDF74CF8B5E6FCF723FB204B834203D146
:105280002046FDF765F8ACE6FCF71AFB1C4B8342A1
:1052900003D12046FDF77AF8A3E6FCF711FB194B82
:1052A000834203D12046FDF78FF89AE6FCF708FB0E
:1052B000154B834203D12046FDF7E2F891E6FCF757
:1052C000FFFA124B834203D12046FDF71FF988E60F
:1052D000002388F8003084E6FC670008A467000813
:1052E0004C670008446800088C6800082C690008B6
:1052F00058690008DC690008346A00088C6A0008F4
:10530000E46A00083C6B0008186C0008EC6B0008AD
:105310007047FEE7FEE7FEE7FEE77047704770471D
:10532000FFF714BB7047000014490B681B0624D517
:10533000134BB3F8582492B2DAB1B3F85824013AB7
:1053400092B2A3F85824B3F8562492B2501C80B2FB
:10535000A3F856041A4492F86C20D2B24A60B3F80B
:10536000562492B2B2F57A7F07D10022A3F85624D0
:105370007047CB6823F08003CB6070470038014052
:10538000B802002070470000124A10B55368124955
:1053900003F00C03082B0AD0104B0B605368104A23
:1053A000C3F30313D25C0B68D3400B6010BD53688A
:1053B0005068C3F38343C00341BFD06A074C00F079
:1053C0000F0001304CBFB4FBF0F0064802334343FA
:1053D000E3E700BF001002408C02002000127A00B8
:1053E000F26F000800093D00324A30B5134640F222
:1053F000C934B2F858148C42FBD32F49CA6822F042
:105400008002CA600021027802F0FF044ABBB3F8B0
:10541000542492B2511C89B2A3F854140A211A449C
:1054200082F86C10B3F8542492B2B2F57A7F08BFB8
:10543000A3F85444B3F85824013292B2A3F8582484
:10544000B3F85A24B3F85814914282BFB3F85824E1
:1054500092B2A3F85A24184AD36843F08003D36069
:1054600030BDB3F85424441C92B2551CADB2A3F81D
:10547000545400781A44C0B282F86C00B3F8542433
:1054800092B2B2F57A7F08BFA3F85414B3F8582447
:10549000013292B2A3F85824B3F85A24B3F858044E
:1054A000904288BFB3F85824204684BF92B2A3F834
:1054B0005A24A8E7B8020020003801401F4A30B53E
:1054C000134640F2C934B2F858148C42FBD31C493D
:1054D000CA6822F08002CA60002102782AB9184AFC
:1054E000D36843F08003D36030BDB3F85424441C28
:1054F00092B2551CADB2A3F8545400781A44C0B20D
:1055000082F86C00B3F8542492B2B2F57A7F08BFE7
:10551000A3F85414B3F85824013292B2A3F85824D3
:10552000B3F85A24B3F85804904288BFB3F858240B
:10553000204684BF92B2A3F85A24CEE7B8020020D6
:105540000038014073B501918DF803209DF80330B8
:1055500004460198002B44D1FBF7D6FE494A40F29D
:10556000C9351346B2F858148D42FBD3002546497D
:10557000CA6822F08002CA60227802F0FF01002A85
:1055800034D10138B3F8542410F8014F92B2002CF2
:1055900055D1511C89B2A3F854140A211A4482F837
:1055A0006C10B3F8542492B2B2F57A7F08BFA3F816
:1055B0005444B3F85824013292B2A3F85824B3F8F3
:1055C0005A24B3F85814914282BFB3F8582492B2C7
:1055D000A3F85A242C4AD36843F08003D36002B066
:1055E00070BD9DF80310FBF703FFB7E7B3F8542431
:1055F000611C92B2561CB6B2A3F8546424781A44C3
:10560000E4B282F86C40B3F8542492B2B2F57A7FD7
:1056100008BFA3F85454B3F85824013292B2A3F847
:105620005824B3F85A24B3F85844944288BFB3F8C6
:1056300058240C4684BF92B2A3F85A249CE7541C09
:10564000A4B2A3F8544404781A4482F86C40B3F826
:10565000542492B2B2F57A7F08BFA3F85414B3F879
:105660005824013292B2A3F85824B3F85A24B3F85C
:105670005844944282BFB3F8582492B2A3F85A24F3
:1056800080E700BFB802002000380140002103E09D
:105690000B4B5B58435004310A480B4B42189A425B
:1056A000F6D30A4A02E0002342F8043B084B9A4230
:1056B000F9D3FFF767FE00F0A1F9FFF70FFA704783
:1056C00014700008000000209002002090020020CA
:1056D000200A0020FEE7836810B513F001030DD106
:1056E00042684C6822F480722243426082680968F2
:1056F00022F400620A438260184610BD0120FCE7D4
:10570000836810B5DB071BD443684A6823F46843F9
:1057100012B18C6813432343436083680C6823F4FD
:10572000602323F481732343CC68096923430B432B
:105730008360C36A23F470031343C362002010BD67
:105740000120FCE72DE9F04F0C68C4F30F2494FA14
:10575000A4F24FF00F0AB2FA82F24FF003090427C5
:105760004FF0011C40F2011E34FA02F302D1184638
:10577000BDE8F08F0123934023425ED0072A85BF06
:10578000A2F108030CFA03F30EFA02F343F080636C
:10579000C5681E0A96FAA6F8B8FA88F825EA060639
:1057A0000D6905FA08F53543C5604FEA136893FAA9
:1057B000A3F6B6FA86F693FAA3FBBBFA8BFBB60008
:1057C0000AFA06F550F808604FEA8B0B26EA050640
:1057D0004D6805FA0BFB46EA0B0640F808604D6879
:1057E00025F00805012D28D193FAA3F5B5FA85F522
:1057F00093FAA3FBBBFA8BFBAD0009FA05F526EA89
:1058000005068D684FEA8B0B05FA0BFB46EA0B0683
:1058100040F8086093FAA3F5B5FA85F593FAA3F377
:10582000B3FA83F3AD0007FA05F526EA0505CE685D
:105830009B009E402E4340F80860013294E7000030
:10584000034B044A5B68C3F30313D35CD84070472F
:1058500000100240F26F0008034B044A5B68C3F378
:105860000223D35CD8407047001002400270000849
:10587000034B044A5B68C3F3C223D35CD840704730
:105880000010024002700008094B5A6802F480328E
:1058900062B1D86A074A00F00F000130B2FBF0F0A5
:1058A0005B68C3F383430233584370470248F7E70A
:1058B0000010024000127A0000093D00044B5B68B2
:1058C00003F00C03082B01D1FFF7DEBF014870473E
:1058D0000010024000127A0008B50146FFF7EEFF03
:1058E0000860FFF7ADFF4860FFF7B6FF88604868C3
:1058F000FFF7BEFFC86008BD30B5C36885B09B0424
:1059000004460D4602D5012005B030BD4B68C9687C
:10591000C2680B43296922F416420B43A96922F09D
:105920000C020B431343C3600369AA6823F440537A
:105930001343036143696A6923F44073134343616A
:105940006846FFF7C9FF204B9C4225D103990029E7
:10595000D9D02A68002AD6D019234B43A969B1F5BA
:10596000004F4FF0640120D15200B3FBF2F3B3FBC0
:10597000F1F001FB1033DB003233B3FBF1F39BB2E8
:1059800003F007025B0002EB001203F4F873134408
:105990009BB2A3600020B7E70C4B9C4201D1029957
:1059A000D5E70B4B9C42AED1F9E79200B3FBF2F383
:1059B000B3FBF1F201FB12331B013233B3FBF1F302
:1059C00003EB0213E4E700BF00380140004400404D
:1059D000004800404FF47A73B0FBF3F00022034B11
:1059E000013858609A6005221A60704710E000E0A4
:1059F000014B1860704700BF8C02002070B5002575
:105A00000C4E0D4CA41BA410A54209D100F02EF899
:105A100000250A4E0A4CA41BA410A54205D170BD56
:105A200056F8253098470135EEE756F82530984767
:105A30000135F2E70C7000080C7000080C700008CB
:105A40001070000810B5431E0A44914200D110BDE9
:105A500011F8014B03F8014FF7E703460244934264
:105A600000D1704703F8011BF9E70000F8B500BF4B
:105A7000F8BC08BC9E467047F8B500BFF8BC08BC2F
:045A80009E46704787
:105A840000070E091C1B1215383F363124232A2D1A
:105A940070777E796C6B6265484F464154535A5D0A
:105AA400E0E7EEE9FCFBF2F5D8DFD6D1C4C3CACDFA
:105AB40090979E998C8B8285A8AFA6A1B4B3BABDEA
:105AC400C7C0C9CEDBDCD5D2FFF8F1F6E3E4EDEADA
