:020000040800F2
:100000000020002051570008CD530008CF530008AE
:10001000D1530008D3530008D55300080000000056
:10002000000000000000000000000000D75300089E
:10003000D953000800000000DB530008DD5300081E
:1000400099570008995700089957000899570008D0
:1000500099570008995700089957000899570008C0
:10006000995700089957000899570008EB53000862
:1000700099570008995700089957000899570008A0
:100080009957000899570008995700080000000088
:100090000000000000000000000000009957000868
:1000A0009957000899570008995700089957000870
:1000B0009957000899570008995700089957000860
:1000C0009957000800000000000000009957000840
:1000D00099570008ED5300089957000899570008F0
:1000E0009957000899570008995700080000000028
:1000F0000000000000000000000000000000000000
:1001000000000000000000000000000000000000EF
:1001100000000000000000009957000899570008EF
:1001200000000000000000000000000000000000CF
:1001300000000000000000000000000000000000BF
:1001400000000000000000000000000000000000AF
:10015000000000000000000000000000000000009F
:10016000000000000000000000000000000000008F
:10017000000000000000000000000000000000007F
:10018000000000000000000000000000000000006F
:10019000000000000000000000000000000000005F
:1001A000000000000000000000000000000000004F
:1001B000000000000000000000000000000000003F
:1001C0000000000000000000000000005FF808F1DF
:1001D00010B5054C237833B9044B13B10448AFF381
:1001E00000800123237010BD980200200000000051
:1001F000545C000808B5034B1BB103490348AFF337
:10020000008008BD000000009C020020545C000833
:100210000E4A1346D168C907FCD4D168890644BF89
:100220002021D1601A6942F002021A6158611A69EC
:1002300042F040021A61054BDA689206FCD5202292
:10024000DA601A6922F002021A6170470020024047
:10025000034B044A5A6002F188325A60704700BF6B
:100260000020024023016745024A136943F08003DE
:100270001361704700200240114B10B51A46DC682C
:10028000E407FCD4DC68A40644BF2024DC601369C6
:1002900043F0010313610A4A8BB203801346D4680A
:1002A000A406FCD52024090CD4604180DA689206AB
:1002B000FCD52022DA601A6922F001021A6110BD11
:1002C0000020024070B572B6FFF7C2FF124805F079
:1002D00057F9124D00224FF4CE71114805F094F9F0
:1002E0000D4805F04DF9002229680E4805F08CF9FB
:1002F0000D48FFF78DFF0C4C0C4E04F17843A3F52D
:10030000F2332046E9580434FFF7B6FFB442F4D183
:10031000FFF7AAFF62B670BD996000089008002040
:10032000A1600008A860000800E401089CE501083D
:1003300010B5074B074808491C6803F1784204339D
:10034000A2F5F2328B421450F6D1012010BD00BF4D
:1003500000E40108900800209CE50108F8B5046855
:1003600007468C420E4601D394421BD900250E4B02
:100370000E481D7005F004F92A4639460C4805F070
:1003800043F90A4805F0FCF821462A46094805F0D9
:100390003BF9064805F0F4F82A460749074805F0F6
:1003A00033F934462046F8BD00000020996000086B
:1003B000596000087060000800EC010882600008C5
:1003C00010B5194C6068FFF723FFD4E90010FFF760
:1003D00053FFD4E90210FFF74FFFD4E90410FFF7F1
:1003E0004BFFD4E90610FFF747FFD4E90810FFF7E9
:1003F00043FFD4E90A10FFF73FFFD4E90C10FFF7E1
:100400003BFFD4E90E10FFF737FFD4E91010FFF7D8
:1004100033FFD4E91210FFF72FFF044805F0B0F8BE
:10042000034805F043F810BD04000020996000085F
:10043000C95D000810B5194C6068FFF7E9FED4E902
:100440000010FFF719FFD4E90210FFF715FFD4E9F8
:100450000410FFF711FFD4E90610FFF70DFFD4E9F0
:100460000810FFF709FFD4E90A10FFF705FFD4E9E8
:100470000C10FFF701FFD4E90E10FFF7FDFED4E9E1
:100480001010FFF7F9FED4E91210FFF7F5FE04484B
:1004900005F076F8034805F009F810BD5400002077
:1004A000996000086C5D000838B5244C4FF48072E8
:1004B00000216068FFF752FF4FF47A72206000213C
:1004C000E068FFF74BFF4FF47A72A060002160698B
:1004D000FFF744FF1A4D20612A460A21E069FFF721
:1004E0003DFF2A46A0610A21606AFFF737FF2A46CE
:1004F00020620A21E06AFFF731FF2A46A0620A2142
:10050000606BFFF72BFF2A4620630A21E06BFFF7A1
:1005100025FFC822A0634621606CFFF71FFFC82299
:1005200020640A21E06CFFF719FFA064054805F07C
:1005300027F8054804F0BAFF38BD00BF04000020CA
:10054000A0860100996000088C5D000838B5244C35
:100550004FF4807200216068FFF700FF4FF47A7259
:1005600020600021E068FFF7F9FE4FF47A72A06086
:1005700000216069FFF7F2FE1A4D20612A460A2128
:10058000E069FFF7EBFE2A46A0610A21606AFFF7E7
:10059000E5FE2A4620620A21E06AFFF7DFFE2A46CE
:1005A000A0620A21606BFFF7D9FE2A4620630A2168
:1005B000E06BFFF7D3FEC822A0634621606CFFF713
:1005C000CDFEC82220640A21E06CFFF7C7FEA064BC
:1005D000054804F0D5FF054804F068FF38BD00BFAA
:1005E000A4000020A086010099600008A65D000814
:1005F00010B5174C6068FFF70BFED4E90010FFF749
:100600003BFED4E90210FFF737FED4E90410FFF7F0
:1006100033FED4E90610FFF72FFED4E90810FFF7E8
:100620002BFED4E90A10FFF727FED4E90C10FFF7E0
:1006300023FED4E90E10FFF71FFED4E91010FFF7D8
:100640001BFE044804F09CFF034804F02FFF10BD7C
:1006500054010020996000084360000810B5174C51
:100660006068FFF7D5FDD4E90010FFF705FED4E977
:100670000210FFF701FED4E90410FFF7FDFDD4E9F5
:100680000610FFF7F9FDD4E90810FFF7F5FDD4E9EE
:100690000A10FFF7F1FDD4E90C10FFF7EDFDD4E9E6
:1006A0000E10FFF7E9FDD4E91010FFF7E5FD04484F
:1006B00004F066FF034804F0F9FE10BD9C01002021
:1006C00099600008EF5F000810B5224C4FF480726B
:1006D00000216068FFF742FE0A2220600121E068E5
:1006E000FFF73CFE4FF47A72A06001216069FFF7CA
:1006F00035FE4FF47A6220610121E069FFF72EFE9A
:100700004FF47A62A0610121606AFFF727FE42F28E
:10071000107220620021E06AFFF720FE42F21072A0
:10072000A0620021606BFFF719FE642220630021A4
:10073000E06BFFF713FE0322A0630121606CFFF75B
:100740000DFE2064044804F01BFF044804F0AEFED4
:1007500010BD00BF54010020996000080C60000823
:1007600010B5224C4FF4807200216068FFF7F6FD4F
:100770000A2220600121E068FFF7F0FD4FF47A7251
:10078000A06001216069FFF7E9FD4FF47A62206102
:100790000121E069FFF7E2FD4FF47A62A0610121D7
:1007A000606AFFF7DBFD42F2107220620021E06A0E
:1007B000FFF7D4FD42F21072A0620021606BFFF7D8
:1007C000CDFD642220630021E06BFFF7C7FD03220B
:1007D000A0630121606CFFF7C1FD2064044804F0B0
:1007E000CFFE044804F062FE10BD00BFE40100200B
:1007F000996000082360000838B5124D124C284655
:1008000004F0BEFE0022A168104804F0FDFE6068FE
:10081000FFF7FEFCD4E90010FFF72EFDD4E902102B
:10082000FFF72AFDD4E90410FFF726FDD4E90610EE
:10083000FFF722FD284604F0A3FE054804F036FE2B
:1008400038BD00BF99600008F4000020295E000850
:10085000385E000810B50D4C6068FFF7D9FCD4E98C
:100860000010FFF709FDD4E90210FFF705FDD4E9F8
:100870000410FFF701FDD4E90610FFF7FDFC044862
:1008800004F07EFE034804F011FE10BD14010020A8
:1008900099600008625E000838B5114C4FF4807210
:1008A00000216068FFF75AFD0E4D20602A460021A6
:1008B000E068FFF753FD2A46A06000216069FFF75A
:1008C0004DFD012220610021E069FFF747FDA06195
:1008D000054804F055FE054804F0E8FD38BD00BFAA
:1008E000F400002000286BEE99600008E25D00082B
:1008F00038B5114C4FF4807200216068FFF72EFD6F
:100900000E4D20602A460021E068FFF727FD2A46A9
:10091000A06000216069FFF721FD01222061002114
:10092000E069FFF71BFDA061054804F029FE0548BA
:1009300004F0BCFD38BD00BF3401002000286BEE80
:1009400099600008015E000870B501240E4D2C70FE
:1009500072B6FFF7A1FFFFF7B7FEFFF7A5FD62B67E
:100960002E780A483EB904F00BFE094804F09EFDBB
:100970002C70304670BD04F003FE064804F096FD6E
:1009800026462C70F5E700BF0000002099600008A3
:10099000BB5F0008D45F000870B515460C46C0B0B8
:1009A00006464FF480720949684605F03FF928462B
:1009B000013CE4B20134344416F8013B5840A642ED
:1009C0001DF80000F8D140B070BD00BF6C5C00089D
:1009D00038B572B6144D00224C212846FFF7DCFFD3
:1009E000044645F8040CFFF733FCFFF7E9FCFFF77A
:1009F000ADFD00224C210D48FFF7CEFF84420C488C
:100A000009D104F0BDFD0B4804F050FDFFF72CFCAC
:100A100062B6012038BD04F0B3FD074804F046FD7E
:100A2000FFF7CEFCF2E700BF08000020A80000207E
:100A300099600008A25E0008C75E000838B572B66B
:100A4000244D002244212846FFF7A6FF04462248F1
:100A500004F096FD00222146204804F0D5FD1E48F2
:100A600004F08EFD002244211D4804F0CDFD45F820
:100A7000044CFFF7EDFBFFF7BBFDFFF771FE002213
:100A800044211848FFF788FF0546134804F078FD15
:100A900000222946114804F0B7FD0F4804F070FD0C
:100AA0000F480022442104F0AFFDAC420A4809D1AE
:100AB00004F066FD0C4804F0F9FCFFF7D5FB62B6C4
:100AC000012038BD04F05CFD084804F0EFFCFFF79E
:100AD0008FFDF2E75801002099600008F75E0008DA
:100AE000025F0008E80100200E5F0008305F000888
:100AF00070B572B61C4C00221C212046FFF74CFF3B
:100B0000054644F8040CFFF7A3FBFFF775FEFFF75B
:100B1000EFFE164804F034FD616900221448154CBC
:100B200004F072FD114804F02BFD0022A169104869
:100B300004F06AFD00221C21201DFFF72DFF8542D5
:100B40000A4809D104F01CFD0B4804F0AFFCFFF784
:100B50008BFB62B6012070BD04F012FD074804F063
:100B6000A5FCFFF749FEF2E7F800002099600008B5
:100B7000565E0008340100205D5F0008875F0008B2
:100B800038B54A4804F0FCFC494804F08FFC72B6C2
:100B9000484DFFF75DFB00224C212846FFF7FCFE85
:100BA000044645F8040CFFF745FCFFF7CFFC002294
:100BB0004C214148FFF7F0FE84423C485DD104F0EF
:100BC000DFFC3E4804F072FC3D4D002244212846E3
:100BD000FFF7E2FE0446354804F0D2FC002221462D
:100BE000384804F011FD314804F0CAFC00224421C9
:100BF000354804F009FD45F8044CFFF72FFDFFF7D9
:100C0000AFFD002244213148FFF7C6FE05462748C4
:100C100004F0B6FC002229462A4804F0F5FC2348DB
:100C200004F0AEFC28480022442104F0EDFCAC4264
:100C30001E482AD104F0A4FC254804F037FC254DB9
:100C400000221C212846FFF7A7FE044645F8040CA5
:100C5000FFF700FEFFF74CFE00221C211E48FFF7A5
:100C60009BFE8442114818D104F08AFC1B4804F012
:100C70001DFCFFF7F9FA62B638BD04F081FC184894
:100C800004F014FCFFF7D6FB9EE704F079FC15484E
:100C900004F00CFCFFF7E2FCD1E704F071FC124811
:100CA00004F004FCFFF7D6FDE3E700BF99600008FD
:100CB000895E000858000020A8000020A15E0008FE
:100CC000A0010020F65E0008015F0008E801002096
:100CD0000D5F000818010020380100205C5F00084B
:100CE000C65E00082F5F0008865F00081649174897
:100CF0002DE9F04142F2107C0D460446144F01F1FB
:100D00001C06B1F900E0B1F90420B1F90280A2EBB0
:100D10000E020CFB02F2B1F906300431A3EB08031A
:100D200092FBF3F3436003FB08F393FBF7F38E426C
:100D30007344C0F80080836000F10C00E1D1B5F984
:100D40001E306365BDE8F0812C02002010080020F1
:100D5000F0D8FFFF104A30B51368834218DB00213A
:100D60000C2505FB01F3D418D35883420BDBE36851
:100D7000834208DA6368584342F2107390FBF3F041
:100D8000A368184430BD01310729EAD1C820F9E72A
:100D90006FF00900F6E700BF100800202DE9F843C6
:100DA000534C0746206800F0AFFA00232668310153
:100DB0008A19224410F803C01D460133DBB2BCF18E
:100DC000000F16D18A19A01805443A20FF1A28717D
:100DD00017F803C0DDB2BCF1000F0ED120232A4466
:100DE000033222440F2D15D8013502F8013FEDB230
:100DF000F8E7154485F804C0DCE70F2D05D89818EE
:100E0000204480F804C00133E2E700223144214449
:100E10000B441A71374804F0B3FB002229463648C8
:100E200004F0F2FB236803EB031222442A4400255A
:100E30000133172B1571236037D90A26A8464FF0C6
:100E400020092B4F284600F05FFA00232A0102EB0D
:100E5000050CA44410F803E019460133DBB2BEF1DF
:100E6000000F2ED14FF03A0C50192044014481F864
:100E700004C006EB0611214400EB030C9CF804E0CF
:100E8000BEF1000F21D1013BDBB2D9B20F2929D924
:100E90002A442244013513440E2D83F8048007F1BF
:100EA000110706F10106CDD12560FFF70BFA1148B5
:100EB00004F066FB21680022BDE8F8430F4804F007
:100EC000A3BB614481F804E0C4E701EB030E092DE4
:100ED0008CBF9EF804E09EF805E001338CF804E036
:100EE000DBB2C9E7F91881F804900133CDE700BF00
:100EF0009008002099600008F7620008FC62000872
:100F00002DE9F047534C804620680E4600F0FCF96E
:100F1000002327683901CA19224410F803C01D466E
:100F20000133DBB2BCF1000F16D1CA19A018054479
:100F30002E71A8EB030818F803C0DDB2BCF1000F56
:100F40000ED120232A44033222440F2D15D8013517
:100F500002F8013FEDB2F8E7154485F804C0DCE77C
:100F60000F2D05D89818204480F804C00133E2E71B
:100F70000022394421440B441A71374804F000FB25
:100F800000222946354804F03FFB236803EB031297
:100F900022442A4400250133172B1571236035D9CB
:100FA0000A27A9464FF0200ADFF8A880284600F05B
:100FB000ABF900232A0102EB050CA44410F803E06E
:100FC00019460133DBB2BEF1000F2BD1501920447A
:100FD00001440E7107EB0711214400EB030C9CF850
:100FE00004E0BEF1000F21D1013BDBB2D9B20F29E1
:100FF00029D92A442244013513440E2D83F8049044
:1010000008F1110807F10107D0D12560FFF75AF95F
:10101000114804F0B5FA21680022BDE8F0471048F5
:1010200004F0F2BA614481F804E0C7E701EB030E73
:10103000092D8CBF9EF804E09EF805E001338CF882
:1010400004E0DBB2C9E708EB030181F804A0013337
:10105000CCE700BF9008002099600008F762000804
:10106000FC620008002384B00128009301D10090A5
:1010700005E00228FBD003281BD112230093114B5B
:101080009A680192019A02929A6803920399029ACD
:10109000914204D35A6801990A4401320192039A99
:1010A0000292019A03980099121A8A42ECD304B072
:1010B0007047E4D9044B054A1B680338B3FBF2F3CD
:1010C0005843D4E710E000E08C02002040420F00BB
:1010D00007B50190019B13B903B05DF804FB4FF411
:1010E0007A70FFF7BFFF019B013B0193F2E700001D
:1010F00038B5684C684D204604F042FA2968002251
:10110000664804F081FA204604F03AFAA968002201
:10111000634804F079FA204604F032FA2969002283
:10112000604804F071FA204604F02AFAA969002206
:101130005D4804F069FA204604F022FA296A002288
:101140005A4804F061FA204604F01AFAA96A00220B
:10115000574804F059FA204604F012FA296B00228D
:10116000544804F051FA204604F00AFAA96B002210
:10117000514804F049FA204604F002FA296C002292
:101180004E4804F041FA204604F0FAF9A96C002216
:101190004B484C4D04F038FA3220FFF799FF2046B7
:1011A00004F0EEF929680022474804F02DFA2046A1
:1011B00004F0E6F9A9680022444804F025FA204624
:1011C00004F0DEF929690022414804F01DFA2046A6
:1011D00004F0D6F9A96900223E4804F015FA204629
:1011E00004F0CEF9296A00223B4804F00DFA2046AB
:1011F00004F0C6F9A96B0022384804F005FA20462D
:1012000004F0BEF9A96A0022354804F0FDF9204631
:1012100004F0B6F9296B0022324804F0F5F92046B3
:1012200004F0AEF9296C00222F4804F0EDF92F4D9F
:101230003220FFF74DFF204604F0A2F92968002272
:101240002B4804F0E1F9204604F09AF9A96800223D
:10125000284804F0D9F9204604F092F929690022BF
:10126000254804F0D1F9204604F08AF9A969002242
:10127000224804F0C9F9204604F082F9204B2148A5
:101280001968002204F0C0F9BDE838403220FFF7A9
:101290001FBF00BFAE60000804000020B56000085A
:1012A000C8600008E66000080561000822610008C7
:1012B000406100085D6100087B61000899610008D9
:1012C000B761000854010020CF610008E361000805
:1012D000FC61000809620008166200082362000829
:1012E000316200084362000856620008F4000020E2
:1012F000736200088F620008B7620008D9620008B4
:101300008C020020E56200087FB500220A2680EAF0
:10131000E071A1EBE07104ADD4B22A4491FBF6F583
:1013200006FB1511631C303102F8101C5BB2291E3C
:101330001A46F0DC002806DA04A90A442D21A31C71
:1013400002F8101C5BB2002204A919440A4C01F8EF
:10135000102CD0B2191A934249B204D10022064887
:10136000E25404B070BD04AD294411F8111CA1541D
:10137000421C52B2EDE700BF60070020F0B5002329
:101380000A2780EAE07485B0A4EBE07404AEDDB215
:10139000334494FBF7F607FB16446A1C303403F819
:1013A000104C52B2341E1346F0DC002806DA04A8B2
:1013B00003442D20AA1C03F8100C52B2002304A8E9
:1013C000104400F8103CDDB2541B9A4264B201EBA9
:1013D000030004D100230370084605B0F0BD04A843
:1013E000044414F8110CC8546B1C5BB2EBE700000A
:1013F000F0B500230A2780EAE0748BB0A4EBE07418
:101400000AAEDDB2334494FBF7F607FB16446A1CC0
:10141000303403F8284C52B2341E1346F0DC012A53
:10142000D8BF30220AAC2344CFBF002403F8282CB5
:10143000AA1C52B2C8BF03F8284C022A08DC0129B2
:1014400006D930240AAB1344013203F8284C52B2B7
:1014500000242E26234665B2AA420BDC002806DAB9
:101460000AA95A1C0B442D2103F8141C53B2002264
:10147000124C19E08B421D4605D10AAF01333D44A1
:101480005BB205F8146C1DF804700AAD1D440133FD
:1014900005F8147C5BB20134DDE70AAD294411F88C
:1014A000151CA154421C52B2D0B2191A9A4249B228
:1014B000F3D100230148A3540BB0F0BD7007002006
:1014C00000234FF00A0CF0B580EAE0758BB0A5EB75
:1014D000E0750AAFDEB23B4495FBFCF70CFB1755F9
:1014E000741C303503F8285C64B23D1E2346F0DCE2
:1014F000012CD8BF30240AAD2B44CFBF002503F800
:10150000284CB41C64B2C8BF03F8285C022C08DC69
:10151000012A06D930250AAB2344013403F8285C9C
:1015200064B200252E272B466EB2A6420ADB0028A5
:1015300006DA0AA85A1C03442D2003F8140C53B2EF
:1015400000221AE093421E4606D10DF1280C013309
:1015500066445BB206F8147C1DF805C00AAE1E4452
:10156000013306F814CC5BB20135DDE70AAD2C443B
:1015700014F8154C8C54421C52B2D0B21C1A9A4228
:1015800064B201EB0205F1D1002308462B700BB0C9
:10159000F0BD002802D0DCBF404200B270470023FB
:1015A000DAB2815C01330029FAD11046704770B578
:1015B000002465B2435D661C4BB958B20D5C181926
:1015C00040B2161801332DB93570104670BD535511
:1015D0003446EEE71554F0E7F0B500277CB2055D20
:1015E0007E1C8DB968B27E190C5CF6B270B2013502
:1015F0006CB9214648B2145C701840B21D18013114
:101600003CB92C701846F0BD1D553746E6E71C5412
:10161000E8E71C54EEE72DE9F04180464FF46160A5
:1016200086B00D46B8FBF0F001A9FFF7A7FE01A8B0
:10163000FFF7B5FF012896BF012200223023144690
:1016400098BF2B70E6B2B31A06A95BB20B4413F82D
:10165000141C2B19741C64B2002945D13A221A704B
:101660003C23B8FBF3F2B2FBF3F001A903FB10201B
:10167000FFF784FE01A8FFF792FF01289FBF3023E8
:101680002B55B41C64B22646F7B23B1B06AA5BB2CC
:10169000134413F8142CAB197E1C76B232BB3A22D9
:1016A0001A703C23B8FBF3F001A903FB1080FFF78D
:1016B00065FE01A8FFF773FF01289CBF3023AB55DF
:1016C0004FF000039CBFBE1C76B25AB206A90A4472
:1016D00012F8141CF21852B2A818013341B9017063
:1016E000284606B0BDE8F0811970ABE71A70CBE769
:1016F000A954EAE7F0B507464FF4616087B00D469C
:10170000B7FBF0F001A9FFF739FE01A8FFF747FF8B
:10171000012896BF012200223023144698BF2B7067
:10172000E6B2B31A06A95BB20B4413F8141C2B19CA
:10173000741C64B229BB3A221A703C23B7FBF3F73E
:10174000B7FBF3F001A903FB1070FFF717FE01A828
:10175000FFF725FF01289CBF30232B554FF00003D6
:101760009CBFB41C64B25AB206A90A4412F8141CF5
:10177000E21852B2A818013329B90170284607B0FF
:10178000F0BD1970CCE7A954EDE7000002460D4901
:101790004B6808688B608342C1E9002007DC9342F4
:1017A00003DC9042A8BF10467047834206DB90429C
:1017B00004DC9342A8BF1346184670479842A8BF5E
:1017C000184670472407002002460D494B680868F8
:1017D0008B608342C1E9002007DC934203DC904226
:1017E000A8BF10467047834206DB904204DC934258
:1017F000A8BF1346184670479842A8BF18467047BE
:101800003007002002460D494B6808688B60834210
:10181000C1E9002007DC934203DC9042A8BF1046D8
:101820007047834206DB904204DC9342A8BF134614
:10183000184670479842A8BF184670473C070020DA
:1018400002460D494B6808688B608342C1E900205D
:1018500007DC934203DC9042A8BF104670478342E6
:1018600006DB904204DC9342A8BF1346184670473B
:101870009842A8BF184670474807002002460D4905
:101880004B6808688B608342C1E9002007DC934203
:1018900003DC9042A8BF10467047834206DB9042AB
:1018A00004DC9342A8BF1346184670479842A8BF6D
:1018B00018467047540700207047704770477047BC
:1018C00070470000014B1868704700BF4C020020B1
:1018D000094B10B598420DD060B1084A084C126807
:1018E00020600AB11830904723681B6913B1BDE826
:1018F0001040184710BD00BF006300088407002097
:101900004C020020024B1860024B1868FFF7E0BF42
:10191000840700204C020020044B054A1B689342B8
:1019200003D013B15B6903B1184770474C02002024
:10193000006300084FF4804310B5064C0220236179
:10194000FFF790FB4FF0804302202361BDE8104079
:10195000FFF788BB000C014070B54FF07C454FF499
:1019600080560D4C25612661FFF7E4FF0120FFF74B
:10197000AFFB25612661FFF7DDFF0120FFF7A8FB24
:101980004FF4806325612361FFF7D4FFBDE8704009
:101990000120FFF79DBB00BF000C01404FF07C42CF
:1019A000244B70B504461A610E4611B14FF4004243
:1019B0001A61E20644BF4FF400521A6114F0200F7E
:1019C00018BF4FF480521B4B18BF1A61650644BF05
:1019D0004FF400621A6114F0800F18BF4FF4806357
:1019E000144D18BF2B61FFF7A5FF4FF07053E007B0
:1019F0002B6144BF4FF400532B61A10742BF4FF44A
:101A000080520C4B1A61620742BF4FF40062094BCF
:101A10001A61230742BF4FF48062064B1A61FFF739
:101A200089FF0220FFF754FB1EB14FF00042014B2B
:101A30001A6170BD000C0140C00040F0400038B594
:101A400000F0F8000C460021FFF7A8FF651E0734E0
:101A500015F8010F0121FFF7A1FFA542F8D1BDE85C
:101A6000384000218020FFF799BF000073B51F4C5C
:101A70001F4D69460020CDE900451E4EFFF7DCFFF3
:101A80001D4B69460120CDE90036FFF7D5FF1B4B02
:101A90006946CDE900350220194DFFF7CDFF6946B3
:101AA0000320CDE90056FFF7C7FF69460420CDE9C2
:101AB0000054FFF7C1FF134A134B69460520CDE9D7
:101AC0000023FFF7B9FF114B11490620CDE90013A0
:101AD0006946FFF7B1FF0F4B0F486946CDE9000398
:101AE0000720FFF7A9FF02B070BD00BF04150E0468
:101AF00000041F1F0000041F150E040000040E1533
:101B0000040E15040207070A0A1C1C080515090023
:101B10000F050505010101001111111F064A107082
:101B2000064A117019B940F08000FFF737BF002155
:101B300040F0C000F9E700BF8807002089070020B7
:101B400070B50D460446C64314F8010B00B970BDCC
:101B50000121FFF723FF012DF6D13319DBB2072B4B
:101B6000F2D129460020FFF7D9FFEDE70121C0B2ED
:101B7000FFF714BF2DE9F8430F46DFF878801B4CC0
:101B80001B4E451E15F8010F08B9BDE8F883B228B1
:101B900019D101214920FFF701FF237896F8009021
:101BA0000133DBB22370B9F1000FEBD1082BE9D17F
:101BB000022FE7D101214846FFF7B0FF012384F847
:101BC00000903370DEE7AF2802D101210320E2E765
:101BD000AA2802D101210220DDE7BF2889BF4044A5
:101BE0000121012110F8C00CD5E700BF88070020B3
:101BF000890700205002002000210120FFF7CEBEFF
:101C000008B56420FFF764FAFFF7A6FE00210E2056
:101C1000FFF7C4FEBDE80840FFF7EEBF0221FFF763
:101C2000A9BF10B5044608461146FFF777FF2046C6
:101C3000BDE810400221FFF79DBF08B5FFF7E0FFA8
:101C4000FFF7DAFFBDE8084000210C20FFF7A6BE31
:101C5000054B82B09A6902439A619B6918400190D2
:101C6000019B02B0704700BF001002400022014BF0
:101C70001A807047FA07002008B5FEF7A9FEBDE8F4
:101C800008400148FFF78AB83163000810B53B4CA3
:101C900094F9001061B90846FFF740FF3848FFF794
:101CA000BDFF4FF48762374B9A6140F2B4521A621B
:101CB00094F90030012B0DD100210846FFF72EFFCB
:101CC0003148FFF7ABFF4FF496722E4B9A614FF4F9
:101CD000D2721A6294F90030022B0DD1002108460D
:101CE000FFF71CFF2948FFF799FF4FF48C72254B33
:101CF0009A614FF4B9721A6294F90030032B0CD137
:101D000000210846FFF70AFF2148FFF787FFA022BE
:101D10001C4B9A614FF48C721A6294F90030042BB8
:101D20000DD100210846FFF7F9FE1A48FFF776FFAC
:101D30004FF44872134B9A614FF4AA621A6294F9F5
:101D40000030052B0CD100210846FFF7E7FE1248B2
:101D5000FFF764FF64220B4B9A614FF4FA621A6238
:101D600094F90030062B04BF00232370FEF766FEB3
:101D7000BDE810404FF41670FFF7AAB9A307002082
:101D8000EF64000854010020006500081165000898
:101D9000226500083365000844650008FEF74EBE62
:101DA00008B501210720FFF7B9FE0121FF20FFF749
:101DB000F5FDFEF743FE044BC8209A68034B1A60FA
:101DC000BDE80840FFF784B954010020340A002020
:101DD00008B501210720FFF7A1FE0121FF20FFF731
:101DE000DDFDFEF72BFE044BC8201A6C034B1A6076
:101DF000BDE80840FFF76CB9540100202C0A002010
:101E000018B100221146FFF70CBF704749F6AF2307
:101E100010B50E4C90B022689A4215D90C4B0BA904
:101E20001868FFF767FC4FF46163206801A9B0FBF5
:101E3000F3F0FFF7A3FA074906AB0BAAFFF7CCFBB9
:101E4000022106A8FFF75CF810B010BD9007002033
:101E5000A80700204164000810B5164C90B0164841
:101E600003F08EFB00222168144803F0CDFB49F6F5
:101E7000AF2322689A421BD9114B0BA91868FFF7B0
:101E800039FC4FF46163206801A9B0FBF3F0FFF760
:101E900075FA06AB0BAA0B49FFF79EFB012106A8BA
:101EA000FFF72EF8044803F06BFB06A803F0FEFAD8
:101EB00010B010BD8C07002099600008DD63000899
:101EC0009C0700204164000808B501210720FFF7A6
:101ED00025FEBDE808400121FF20FFF75FBD00009F
:101EE00070B54FF0007191FAA1F1B1FA81F3104C85
:101EF00000F00071D94054F8215000F0F8704FF014
:101F0000F87292FAA2F3B3FA83F392FAA2F20726D6
:101F1000B2FA82F220FA03F306FA03F3D04025EA7C
:101F2000030306FA00F0184344F8210070BD00BF17
:101F30000C24014030B54FF4407393FAA3F3B3FA85
:101F400083F31F2400F44072074DDA4055F8223025
:101F500000F01F00844001F01F0123EA04038140C8
:101F6000194345F8221030BD2C2401400020704751
:101F7000002310B596B00446084611A98DF8042038
:101F80008DF80530FFF7B6FB4FF4616002A9B4FB92
:101F9000F0F0FFF7F3F907AB11AA0749FFF71CFBB5
:101FA0000CAA07A901A8FFF702FB04210CA8FEF761
:101FB000A7FF16B010BD00BF41640008022838B565
:101FC0001F4C204D2AD123882A6801331BB293422B
:101FD000238001D30023238000210846FFF79EFDC4
:101FE0002868B4F900300138C01A00EB0010043042
:101FF0002844FFF713FE144803F0C2FAB4F90010A6
:102000000022124803F000FB0F4803F0B9FA2968D8
:102010000022BDE838400E4803F0F6BA0128DBD1B3
:102020002388013B1BB2002B2380BEBF2B6803F12A
:10203000FF332380B4F90030002BCDDACAE700BFAC
:10204000FA07002090080020996000084564000805
:1020500052640008002110B504460846FFF75EFDF3
:102060000A4B188800B2FFF74FF9FFF7D7FD084871
:10207000FFF7D4FD022C08D1BDE81040054B064AFD
:102080001B881BB29360FEF7A3BC10BD7208002032
:1020900095630008BA02002004000020002110B55A
:1020A00004460846FFF73AFD0A4B188800B2FFF7CE
:1020B0002BF9FFF7B3FD0848FFF7B0FD022C08D15C
:1020C000BDE81040054B064A1B881BB21361FEF7A2
:1020D0007FBC10BD7208002095630008BC02002080
:1020E00004000020002110B504460846FFF716FD45
:1020F0001F48FFF793FD022C30D1FEF741FDFEF79C
:1021000023FC002104460846FFF708FD1948FFF7A5
:1021100085FD4FF4FA60FEF7DBFF00210846FFF76C
:10212000FDFC012C1BD11448FFF778FD1348FEF786
:1021300035FE4FF4FA60FEF7CBFF114B1A69114BD5
:102140001A604FF46162104B19694A430F490A60E3
:1021500099680F4A11601A6C0E4B1A6010BD0E4838
:10216000FFF75CFDBDE810404FF47A60FEF7B0BFAA
:102170003D6300084E6300085F6300087063000859
:10218000F40000209407002054010020300A0020B1
:10219000340A00202C0A00207F630008022810B5B2
:1021A0000E4C15D123690133236100210846FFF746
:1021B000B5FC2069FFF7A8F8FFF730FD0848FFF7E6
:1021C0002DFD4FF4616322695343064A136010BD2D
:1021D0000128EAD12369013BE6E700BF5401002052
:1021E0005B650008300A002010B5304C022894F9D5
:1021F000003052D101335BB2072B08BF002323709C
:1022000094F9001029B90846FFF788FC2848FFF721
:1022100005FD94F90030012B06D100210846FFF797
:102220007DFC2448FFF7FAFC94F90030022B06D11C
:1022300000210846FFF772FC1F48FFF7EFFC94F9F6
:102240000030032B06D100210846FFF767FC1B482E
:10225000FFF7E4FC94F90030042B06D10021084676
:10226000FFF75CFC1648FFF7D9FC94F90030052B0A
:1022700006D100210846FFF751FC1248FFF7CEFCBB
:1022800094F90030062B10D100210846FFF746FCD8
:10229000BDE810400C48FFF7C1BC0128B0D1013B9C
:1022A0005BB2002BB8BF0623A9E710BDA30700202F
:1022B0007A6400088B6400089D640008AE6400081E
:1022C000BE640008CF640008DF640008022810B56F
:1022D0000D4C14D1A3690A33A36100210846FFF70E
:1022E0001DFC0A23A0690121B0FBF3F0FFF780F881
:1022F000FFF794FCBDE810400448FFF78FBC0128AD
:10230000EBD1A3690A3BE7E7540100200C65000804
:10231000022810B50D4C14D1236A0A332362002120
:102320000846FFF7FBFB0A23206A0121B0FBF3F00C
:10233000FFF75EF8FFF772FCBDE810400448FFF7B6
:102340006DBC0128EBD1236A0A3BE7E7540100206A
:102350000C650008022810B50B4C10D1A36A01339C
:10236000A36200210846FFF7D9FBA06AFEF7CCFF65
:10237000FFF754FCBDE810400448FFF74FBC0128AC
:10238000EFD1A36A013BEBE7540100200A66000885
:10239000022810B50B4C10D1236B013323630021AD
:1023A0000846FFF7BBFB206BFEF7AEFFFFF736FCDE
:1023B000BDE810400448FFF731BC0128EFD1236B82
:1023C000013BEBE7540100200A660008022838B5FB
:1023D0001A4C2DD1A36B0133A36300210A250846B3
:1023E000FFF79CFBA06BFEF78FFFFFF717FC14486D
:1023F000FFF714FC206A0121B0FBF5F0FEF7F8FFAF
:10240000FFF70CFC0F48FFF709FC6422236AA06B5E
:1024100001215843B0FBF2F0181AB0FBF5F0FEF7BB
:10242000E7FFFFF7FBFBBDE838400748FFF7F6BBC7
:102430000128D2D1A36B013BCEE700BF540100209D
:1024400055650008586500080C650008044B9A683B
:10245000044B1B689A4201D1FFF736BD704700BF9D
:1024600054010020340A0020044B1A6C044B1B68F2
:102470009A4201D1FFF728BD704700BF54010020E8
:102480002C0A0020002110B504460846FFF746FB41
:10249000022C174B0FD19A680132082A08BF01227B
:1024A0009A609A68013A062A1FD8DFE802F00B12F8
:1024B0001416181A1C00012CF3D19A68013A08BFAF
:1024C0000722EDE70B48FFF7A9FBBDE81040FFF737
:1024D000BDBF0948F7E70948F5E70948F3E70948A8
:1024E000F1E70948EFE70948EDE701229A6010BDDE
:1024F0005401002093650008A4650008B565000834
:10250000C6650008D7650008E8650008F965000899
:10251000002110B504460846FFF700FB022C124BC1
:1025200013D11A6C0132042A08BF01221A641A6CF2
:10253000022A11D0032A11D0012A11D10B48FFF72A
:102540006DFBBDE81040FFF78FBF012CEFD11A6C77
:10255000013A08BF0322E9E70548F0E70548EEE73E
:1025600001221A6410BD00BF5401002060650008FC
:102570007165000882650008154B16499A6812F0CB
:10258000100F0CD09A68900616D59A68520615D589
:102590009B68DB4313F0800312D10B80704703224A
:1025A00040F2DC50B1F9003083420BDD40F2B4530D
:1025B0000B80094B1A700AE00222F1E70122EFE7D3
:1025C0000422EDE701331BB2142B0B80F1D07047CE
:1025D000000C0140F8070020FC070020044B18788D
:1025E00010B10021034A116000221A70704700BF29
:1025F000FC070020B40700200022034B1A600122D0
:10260000024B1A70704700BFE8070020BA0700208D
:1026100038B504464FF46160B4FBF0F0FEF774FE89
:102620000546FEF7BCFF012803D801211148FFF73A
:1026300087FA01212846FFF783FA01210E48FFF7A8
:102640007FFA3C23B4FBF3F4B4FBF3F003FB10403C
:10265000FEF75AFE0446FEF7A2FF012803D8012127
:102660000448FFF76DFA2046BDE838400121FFF726
:1026700067BA00BF2F630008B96300084FF48032C7
:10268000064B1A614FF08072A3F580631A61002334
:10269000034A1370034A1370704700BF000C0140D7
:1026A000B2070020B90700200123054A1361054A3B
:1026B0001370054A13704FF48072044B1A6170470F
:1026C000000C0140B2070020B907002000080140BB
:1026D000094908B50B68022B03D1FFF7E5FF012379
:1026E0000B600B68032B06D1044B9869012802D1BB
:1026F000FFF7DAFF086008BD74020020F400002034
:1027000000212DE9F0410126294B2A4D07460846B4
:102710001E70FFF703FA2B78274C03F0FF083BBB32
:10272000264B02211888FEF763FEFFF777FA24484C
:10273000FFF774FA41460720FFF7F0F9208800B24E
:10274000FEF7E2FDFFF76AFA1E48FFF767FA052079
:102750003146FFF7E3F91C48FFF760FA022F03D177
:102760002B7813BBFFF7A0FFBDE8F041FFF7B0BF28
:10277000164B02211888FEF73BFEFFF74FFA104870
:10278000FFF74CFA00210720FFF7C8F9208800B2B4
:10279000FEF7BAFDFFF742FA0D48FFF73FFA0620B1
:1027A0003146FFF7BBF90B48D6E7FFF767FFDBE7DA
:1027B000B0070020B2070020720800208C0800201B
:1027C0006564000869640008226300088608002028
:1027D0006F640008766400080122164B10B51A7069
:1027E000FFF762FF0228144C1ED1A3690133A361D5
:1027F00000210846FFF792F9A069FEF785FDFFF773
:102800000DFA0E48FFF70AFA01210020FFF786F9BA
:102810000B4B188800B2FEF777FDFFF7FFF9BDE814
:1028200010400848FFF7FAB90128E1D1A369013B3C
:10283000DDE700BFB0070020040000207E6500082F
:1028400072080020906300080122164B10B51A7020
:10285000FFF72AFF0228144C1ED1A36A0133A3629A
:1028600000210846FFF75AF9A06AFEF74DFDFFF771
:10287000D5F90E48FFF7D2F901210020FFF74EF9F4
:102880000B4B02211888FEF7B3FDFFF7C7F9BDE82F
:1028900010400848FFF7C2B90128E1D1A36A013B03
:1028A000DDE700BFB0070020040000207E650008BF
:1028B0008C080020656400080122164B10B51A70C0
:1028C000FFF7F2FE0228144C1ED1236B0133236361
:1028D00000210846FFF722F9206BFEF715FDFFF7F0
:1028E0009DF90E48FFF79AF901210020FFF716F92C
:1028F0000B4B02211888FEF77BFDFFF78FF9BDE82F
:1029000010400848FFF78AB90128E1D1236B013B49
:10291000DDE700BFB0070020040000207E6500084E
:1029200086080020656400080122164B10B51A7055
:10293000FFF7BAFE0228144C1ED1A36B0133A36328
:1029400000210846FFF7EAF8A06BFEF7DDFCFFF771
:1029500065F90E48FFF762F901210020FFF7DEF864
:102960000B4B02211888FEF743FDFFF757F9BDE82E
:1029700010400848FFF752B90128E1D1A36B013B91
:10298000DDE700BFB0070020040000207E650008DE
:1029900070080020656400080122F8B5294B2A4E12
:1029A0001A70FFF781FE02282ED13388013333805D
:1029B00000210846FFF7B2F802213088FEF718FD23
:1029C000224F234CFFF72AF92248FFF727F93B88CB
:1029D00022889BB212B2002A1F4D1ADC46232B64B8
:1029E000286CFEF791FCFFF719F91C48FFF716F960
:1029F0001B4B1B883A8821889BB209B2002992B2EE
:102A000014DC0A23AB64F8BD0128D1D13388013B23
:102A1000CDE7328821889B1A42F210721BB223EA5A
:102A2000E373534309B293FBF1F3D8E79B1A42F2E5
:102A300010721BB223EAE3735343218809B293FB5C
:102A4000F1F3DFE7B007002078020020BE0200208B
:102A5000720800205865000804000020A4630008E4
:102A60008C0800200222064B1A610123054A1370CC
:102A7000054A13704FF40062044B1A61704700BF9F
:102A8000000C0140B2070020B807002000080140F8
:102A900008B5FFF7F3FDFFF7E5FFBDE8084032207A
:102AA000FEF716BB38B501220546154B154C1A70BA
:102AB000FFF7EEFF022D1ED1236A013323620021AE
:102AC0000846FFF72BF8206AFEF71EFCFFF7A6F872
:102AD0000D48FFF7A3F801210020FFF71FF80B4B6B
:102AE000188800B2FEF710FCFFF798F8BDE83840F0
:102AF0000748FFF793B8012DE1D1236A013BDDE7D9
:102B0000B0070020040000207E6500087208002045
:102B10009063000808B50D4B93F90020022A13D0EA
:102B200002221A70FFF7AAFDFFF79CFF0022084B54
:102B300032201A60FEF7CCFA064802F021FDBDE80B
:102B40000840054802F0B2BC08BD00BF9A0700204B
:102B5000E407002099600008917100084FF40032EA
:102B6000074B1A610023074A1370074A13704FF08E
:102B7000006203F1804303F584331A61704700BF9C
:102B8000000C0140B2070020B80700200122234BAF
:102B9000022810B51A70224C03D1237873BBFFF7BB
:102BA00061FF00210846FEF7B9FF1E4B022118887D
:102BB000FEF71EFCFFF732F81B48FFF72FF81B4B00
:102BC000188800B2FEF7A0FBFFF728F81848FFF7B7
:102BD00025F823780121174C062093B9FEF79EFFB4
:102BE00001210220FEF7C2FF01210220FEF7BEFFF5
:102BF00023780A2B84BF0023237010BDFFF7AEFF9C
:102C0000CFE72378052BE9D9FEF788FF01210320C0
:102C1000FEF7ACFF01210320E8E700BFB00700206A
:102C2000B2070020860800205865000872080020BE
:102C30006F6400089907002000212DE9F04101266A
:102C40002C4B2D4D074608461E70FEF767FF2B786C
:102C50002A4C03F0FF083BBB294B02211888FEF7E2
:102C6000C7FBFEF7DBFF2748FEF7D8FF41460720EA
:102C7000FEF754FF208800B2FEF746FBFEF7CEFFBA
:102C80002148FEF7CBFF05203146FEF747FF1F48DE
:102C9000FEF7C4FF022F2AD12B7813BBFFF704FDE8
:102CA000BDE8F041FFF7DEBE194B02211888FEF7A0
:102CB0009FFBFEF7B3FF1348FEF7B0FF002107208C
:102CC000FEF72CFF208800B2FEF71EFBFEF7A6FFE2
:102CD0001048FEF7A3FF06203146FEF71FFF0E48FF
:102CE000D6E7FFF7CBFCBDE8F041FFF737BFBDE803
:102CF000F08100BFB0070020B2070020720800205A
:102D00008C080020656400086964000822630008DC
:102D1000860800206F6400087664000808B5FFF795
:102D20001DFFFFF7C1FCBDE808403220FEF7D0B917
:102D300008B50D4B93F90020012A13D001221A7017
:102D4000FFF70CFFFFF7B0FC0022084B32201A609F
:102D5000FEF7BEF9064802F013FCBDE8084005483E
:102D600002F0A4BB08BD00BF9A070020E4070020C2
:102D700099600008947100082DE9F04FBC4A87B0B3
:102D80001378019003F0FF040292DFF844A3DFF808
:102D900044B3DFF84493B74FDFF84083B64D002BC0
:102DA0003DD1B64B1A88B64B1B6A0533934215D9F1
:102DB00021462046FEF7B2FEB248FEF72FFF4FF441
:102DC000FA60FEF785F921462046FEF7A7FEAE48D9
:102DD000FEF724FF40F6B830FEF77AF9012600240A
:102DE000029B1E70A94B8AF800408BF80040C9F87E
:102DF00000403C601C60C8F800402C608AF800600D
:102E0000FFF796FFA24B214620461E70FEF786FE76
:102E1000A048FEF703FF4FF47A70FEF759F99E4C75
:102E2000208800B2FEF7B5FB0528049440F3D18159
:102E30009A4B934E1A88B1690393914220D9944CCE
:102E40002278022A1CD1964B1B68B3F57A7F17D9DA
:102E500000238BF800302968924B994203D92868E7
:102E60003968FFF785F80023C9F80030C8F800304A
:102E700001238AF800300593FFF75AFF059B237062
:102E8000039B326A1B889A4208D2814B1B78012B24
:102E900004D1834B1B68B3F57A7F09D8824BD9F8EC
:102EA00000201B689A4223D9794B1B78012B1FD134
:102EB00000238AF80030D8F800207A4B9A4206D9CD
:102EC000D8F800000122D9F80010FFF751F83A684D
:102ED0006E4B1A602A68754B9A6000233B602B602A
:102EE00001238BF80030FFF715FE0222684B1A70A1
:102EF000019A6F4C022A94F9003040F05981013355
:102F00005BB2052B08BF0023237094F90030002B1F
:102F100032D1194618460193FEF700FE039B0221A9
:102F20001888FEF765FAFEF779FE6248FEF776FE2E
:102F3000049B188800B2FEF7E7F9FEF76FFE5E48C3
:102F4000FEF76CFE01210620FEF7E8FD01210420BA
:102F5000FEF70CFE594A019B1278012A40F032819B
:102F60001146072003930192FEF7D8FD019A039BB7
:102F700011461846FEF7FAFD94F90030012B28D1CE
:102F8000002108460193FEF7C9FD3069FEF7BCF940
:102F9000FEF744FE4A48FEF741FE0A22019BB06953
:102FA0001946B0FBF2F003930192FEF721FAFEF707
:102FB00035FE4048FEF732FE039B019A306A1946FF
:102FC000B0FBF2F0FEF714FAFEF728FE3D48FEF7DC
:102FD00025FE94F90060022E21D100210846FEF75B
:102FE0009DFD01213046FEF7C1FD00210120FEF7C5
:102FF00095FD3548FEF712FE4FF461632868B0FB7B
:10300000F3F0FEF781F9FEF709FE3048FEF706FE01
:1030100003200121FEF782FD3868FFF7F9FA94F9E1
:103020000060032E5CD100210846FEF777FD0121E8
:103030000020FEF79BFD00210120FEF76FFD2248D6
:10304000FEF7ECFD4FF46163D8F80000B0FBF3F03D
:10305000FEF75AF9FEF7E2FD1C48FEF7DFFD3046A9
:103060000121FEF75BFDD9F80000FFF7D1FA37E048
:10307000B0070020A8070020900700208C0800203F
:10308000540100201B6600082C660008AC070020D5
:10309000700200203D6600087208002086080020AB
:1030A000E40700204F8C0500300A0020F4000020C7
:1030B000A1070020586500084E660008B9070020E7
:1030C000FE5D00084E650008806500085666000831
:1030D0009B070020A40700209C0700208C070020ED
:1030E00094F90030042B23D100210846FEF716FD89
:1030F00001210220FEF73AFD00210120FEF70EFD1E
:103100003A48FEF78BFD3A4B98684FF46163B0FB89
:10311000F3F0FEF7F9F8FEF781FD3648FEF77EFD85
:1031200003200121FEF7FAFC334B1868FFF770FA11
:10313000324802F025FA029B00221978304802F04A
:1031400063FA2E4802F01CFA9AF8001000222D486B
:1031500002F05AFA294802F013FAD9F800100022B6
:10316000294802F051FA254802F00AFAD8F800106E
:103170000022264802F048FA204802F001FA9BF8A3
:1031800000100022224802F03FFA1C4802F0F8F931
:10319000396800221F4802F037FA184802F0F0F9A7
:1031A000002229681C4807B0BDE8F04F02F02CBA95
:1031B000019A012A7FF4A9AE013B5BB2002BB8BF94
:1031C0000423A1E601210720FEF7A8FC012102202B
:1031D000D0E6124B1B68B3F57A7FA9D900210846C7
:1031E000FEF79CFC0E48FEF719FDA1E7606600089B
:1031F000F400002063660008AC0700209960000816
:103200007D66000892660008A7660008B766000899
:10321000CF660008E7660008FA660008E4070020A9
:103220006C6600080021F8B506460846FEF776FCF5
:103230000122664B1A70664B197811B91A70FFF7A4
:10324000DBF9644D644C2B68A26A9A4211D3FFF7F4
:103250006FFD624B226A1B889A420AD2604B1B6840
:10326000B3F5C87F05D9FFF7C7F92B68A26A1344E5
:103270002B602B68A26A9A420DD2FFF74BFC574B8A
:10328000A2691B889A4206D9554B1B68B3F5C87FC3
:1032900001D9FFF7B1F9A36A216B2A680B44934265
:1032A00001D2FFF7A9F94F4D022E95F900307DD1DB
:1032B00001335BB2032B08BF00232B7095F900602C
:1032C0005EBB31463046FEF729FC444B022118888C
:1032D000FEF78EF8FEF7A2FC4348FEF79FFC434B37
:1032E000188800B2FEF710F8FEF798FC4048FEF789
:1032F00095FC01210620FEF711FC01210520FEF7B7
:1033000035FC3C4B1F78012F58D139460720FEF77A
:1033100005FC39463046FEF729FC95F90060012E80
:1033200022D100210A270846FEF7F8FB2069FDF7A5
:10333000EBFFFEF773FC3048FEF770FCA0693146E6
:10334000B0FBF7F0FEF754F8FEF768FC2648FEF7EE
:1033500065FC206A3146B0FBF7F0FEF749F8FEF74E
:103360005DFC2648FEF75AFC95F90030022B2CD163
:1033700000210846FEF7D2FBA06AFDF7C5FFFEF765
:103380004DFC1F48FEF74AFC206BFDF7BDFFFEF722
:1033900045FC1C48FEF742FC03200121FEF7BEFB62
:1033A000194B1868BDE8F840FFF732B9012E85D1F6
:1033B000013B5BB2002BB8BF02237EE7012107204F
:1033C000FEF7ACFB01210220A5E7F8BDB007002005
:1033D000B1070020E80700205401002086080020E3
:1033E000E4070020A10700205865000872080020AB
:1033F0004E660008B9070020FE5D00084E65000813
:10340000F163000813660008A807002008B5FFF75D
:10341000A5FBBDE80840FFF731B9000001222DE906
:10342000F84F964E964B347882461A709846954DD2
:10343000DFF8C092944F2CBB944B1A88944B1B6AB4
:103440000533934215D921462046FEF767FB914884
:10345000FEF7E4FB4FF4FA60FDF73AFE2146204602
:10346000FEF75CFB8C48FEF7D9FB40F6B830FDF761
:103470002FFE0023894A2B7089F800301360012247
:103480003B603270864B3A681B689A4205D8854B80
:103490007F4A1B88126A9A4203D2FFF7B7FF0023C4
:1034A0002B70FFF715F9BAF1020F7F4C40F0BD8089
:1034B0007E4B1B78002B40F0B480FFF72FFC0123DC
:1034C0002B7094F90010A1BB0846FEF727FB774B41
:1034D000DFF8D0A11A789B46002A40F0B2806B4BEF
:1034E00002211888FDF784FFFEF798FB7048FEF76D
:1034F00095FB0221BAF80000FDF77AFFFEF78EFB7C
:103500006C48FEF78BFB9BF80030DFF8ECA1012143
:103510000720002B40F0A880FEF700FB01210020CF
:10352000FEF724FB9AF800300A2B84BF00238AF8A8
:10353000003094F900A0BAF1010F1ED10021DFF88C
:1035400050B10846FEF7EAFA5B48FEF767FBDBF886
:103550001000FDF7D9FEFEF761FB5848FEF75EFB51
:103560000A23DBF820005146B0FBF3F0FDF740FFE3
:10357000FEF754FB5248FEF751FB94F90030022B42
:103580001AD100210846FEF7C9FA4E48FEF746FB5D
:10359000424B18684FF46163B0FBF3F0FDF7B4FEE3
:1035A000FEF73CFB4848FEF739FB03200121FEF7FC
:1035B000B5FA3868FFF72CF8444801F0E1FF31789C
:1035C0000022434802F020F8404801F0D9FF98F863
:1035D000001000223F4802F017F83C4801F0D0FFED
:1035E000297800223C4802F00FF8384801F0C8FF63
:1035F00039680022394802F007F8344801F0C0FF6A
:1036000099F800100022364801F0FEFF2F4801F023
:10361000B7FF344B002219683348BDE8F84F01F07A
:10362000F3BFFFF7F3FE00234AE7BAF1010F7FF47F
:1036300048AF2378013B5BB2002BB8BF0223237055
:103640003FE70221BAF80000FDF7D2FEFEF7E6FAE6
:103650001748FEF7E3FA254B188800B2FDF754FE31
:10366000FEF7DCFA22484CE79AF80030052B7FF68B
:1036700053AFFEF753FA0121084651E7B107002086
:10368000B00700209B0700209C0700208C0800202A
:10369000540100201B6600082C6600088C070020DF
:1036A000300A002086080020A1070020B207002071
:1036B000586500084E650008B8630008BB63000841
:1036C0000C650008C3630008C66300089960000821
:1036D000CF6300087D66000892660008A7660008B0
:1036E000CF660008A8070020E766000872080020DF
:1036F0004E660008A40700209907002001222DE94A
:10370000F84FBA4EBA4B357882461A709846B94C83
:10371000DFF85093B84F2DBBB84B1A88B84B1B6AD3
:103720000533934215D929462846FEF7F7F9B548DF
:10373000FEF774FA4FF4FA60FDF7CAFC29462846F2
:10374000FEF7ECF9B048FEF769FA40F6B830FDF73D
:10375000BFFC0023AD4A237089F8003013600122BA
:103760003B603270AA4B3A681B689A4240F2FB8079
:10377000FFF74CFE00232370FEF7AAFFBAF1020FF9
:10378000A44D40F00981A44B1B78002B40F0008130
:10379000FFF7C4FA0123237095F90010A1BB084676
:1037A000FEF7BCF99C4BDFF8B0A21A789B46002AC2
:1037B00040F0FE80914B02211888FDF719FEFEF7BC
:1037C0002DFA9648FEF72AFA0221BAF80000FDF712
:1037D0000FFEFEF723FA9248FEF720FA9BF800301E
:1037E000DFF884A201210720002B40F0F480FEF7CF
:1037F00095F901210020FEF7B9F99AF800300A2B5B
:1038000084BF00238AF8003095F900A0BAF1010FB7
:103810001ED10021DFF8E8B10846FEF77FF98148A4
:10382000FEF7FCF9DBF81000FDF76EFDFEF7F6F988
:103830007D48FEF7F3F90A23DBF820005146B0FB80
:10384000F3F0FDF7D5FDFEF7E9F97548FEF7E6F967
:1038500095F90030022B2FD100214FF00A0ADFF832
:10386000A0B10846FEF75AF9DBF83800FDF74CFD29
:10387000FEF7D4F96D48FEF7D1F9DBF820000121FD
:10388000B0FBFAF0FDF7B4FDFEF7C8F96348FEF7A8
:10389000C5F96422DBF82030DBF8380001215843F9
:1038A000B0FBF2F0181AB0FBFAF0FDF7A1FDFEF73D
:1038B000B5F95B48FEF7B2F995F90050032D1AD11E
:1038C00000210846FEF72AF95948FEF7A7F94F4BA1
:1038D00018684FF46163B0FBF3F0FDF715FDFEF7D8
:1038E0009DF95448FEF79AF928460121FEF716F98A
:1038F0003868FEF78DFE6420FDF7EAFB4E4801F0C4
:103900003FFE317800224D4801F07EFE4A4801F02A
:1039100037FE98F800100022494801F075FE46482D
:1039200001F02EFE21780022464801F06DFE42484B
:1039300001F026FE39680022434801F065FE3E484A
:1039400001F01EFE99F800100022404801F05CFED4
:10395000394801F015FE3E4B002219683D48BDE88C
:10396000F84F01F051BE3C49254A0888136A83424A
:10397000FFF4FEAE6420926B09885A43B2FBF0F26A
:103980009B1A8B427FF6F8AEFFF7C8F90123F2E6E7
:10399000FFF73CFD0023FEE6BAF1010F7FF4FCAE19
:1039A0002B78013B5BB2002BB8BF03232B70F3E6EF
:1039B0000221BAF80000FDF71BFDFEF72FF91748AA
:1039C000FEF72CF9254B188800B2FDF79DFCFEF799
:1039D00025F9234800E79AF80030052B7FF607AF5A
:1039E000FEF79CF80121084605E700BFB10700205B
:1039F000B00700209B0700209C0700208C080020B7
:103A0000540100201B6600082C6600088C0700206B
:103A1000300A0020A1070020B207002058650008E6
:103A20000C650008B8630008BB6300085565000812
:103A3000C36300086366000899600008CF6300084C
:103A40007D66000892660008A7660008CF66000839
:103A5000A8070020E76600088608002072080020FA
:103A6000AF630008A40700209907002001212DE979
:103A7000F8438A4D8A4E2B7831708A4A4BB92970A7
:103A8000894913700B7089490B7089490B6089490A
:103A90000B60894F89493B889BB20B8088498C69B0
:103AA0008846A342C0F0F180002313708549864BFD
:103AB00009681B68DFF8F4915B1A032B06D91378A9
:103AC00023B1FFF7A3FC002389F8003002287F4CC4
:103AD00040F0C7807E4B1B78002B40F0BE80FEF785
:103AE000D7FF012389F8003094F9001041BB084644
:103AF000FEF714F802213888FDF77AFCFEF78EF8FD
:103B00007448FEF78BF8744B744F188800B2FDF7B9
:103B1000FBFBFEF783F87248FEF780F86C4B01213F
:103B20001B780720002B40F0A780FDF7F7FF01214D
:103B30000220FEF71BF83B780A2B84BF00233B7062
:103B400094F90070012F13D100210846FDF7E6FF1C
:103B50006448FEF763F80A23D8F818003946B0FB2A
:103B6000F3F0FDF745FCFEF759F85F48FEF756F80D
:103B700094F90030022B1BD100210846FDF7CEFF3F
:103B80005A48FEF74BF85A4B98684FF46163B0FB04
:103B9000F3F0FDF7B9FBFEF741F85648FEF73EF8A3
:103BA00003200121FDF7BAFF534B1868FEF730FDE3
:103BB00094F900703F4C032F1AD100210846FDF7FD
:103BC000ADFF4E48FEF72AF8394B18684FF4616391
:103BD000B0FBF3F0FDF798FBFEF720F84848FEF73E
:103BE0001DF838460121FDF799FF2068FEF710FD0A
:103BF000444801F0C5FC29780022434801F004FD47
:103C0000404801F0BDFC31780022404801F0FCFC46
:103C10003C4801F0B5FC244B002219783C4801F0E7
:103C2000F3FC384801F0ACFC3A4B002219683A48E2
:103C300001F0EAFC334801F0A3FC99F800100022DF
:103C4000364801F0E1FC2F4801F09AFC216800227F
:103C5000BDE8F843324801F0D7BCFFF7D7FB00239B
:103C600040E701287FF440AF2378013B5BB2002B93
:103C7000B8BF0323237037E73B78052B7FF655AF9A
:103C8000FDF74CFF0121032053E713781BB90E4BBE
:103C900019680C4B1960012307E700BFB10700202A
:103CA000B0070020980700209B070020A4070020F1
:103CB00090070020A807002086080020EC070020BD
:103CC00054010020F007002000080020A107002078
:103CD000B2070020586500087208002099070020EC
:103CE000AF630008356400080C65000860660008D2
:103CF000F4000020C6630008AC07002077640008C9
:103D00006366000899600008CF6300087D660008BC
:103D1000926600089C070020A7660008CF6600088E
:103D2000E76600082DE9F04F864A85B01378834690
:103D300003F0FF080092DFF858A2834EDFF8549298
:103D4000824D834F834C002B46D1834B1A88834B83
:103D50001B6A0533934215D941464046FDF7DEFE06
:103D60007F48FDF75BFF4FF4FA60FDF7B1F941467C
:103D70004046FDF7D3FE7B48FDF750FF40F6B830D4
:103D8000FDF7A6F901234FF00008009A0193137084
:103D9000754A8AF8008082F80080744AC6F800806C
:103DA000C9F80080C2F80080C5F80080C7F800801C
:103DB0008AF80030FEF7BCFF019B6D4A4146404641
:103DC0001370FDF7ABFE6B48FDF728FF4FF47A70D8
:103DD000FDF77EF9019B237094F90030032B00F36B
:103DE000F981DFF8B481B8F8000000B2FDF7D1FB2B
:103DF0000528CDF8048040F3A2815F4B574A19880B
:103E000090699046884202932AD9594B1A78022A1F
:103E100026D15A4B1B68B3F57A7F21D9002352492A
:103E20000B703968564B994204D93868D9F800109C
:103E3000FEF79EF8D9F800204C4B1A603A68514BB7
:103E40009A60012200238AF8002003922B603360DD
:103E5000FEF76EFF2378039A01332370444B1A70E8
:103E6000454BD8F820201B889A4208D2404B1B783B
:103E7000012B04D1414B1B68B3F57A7F08D8424B24
:103E800032681B689A4222D9394B1B78012B1ED10C
:103E900094F90030022B1ADC00238AF800302A68DB
:103EA000374B9A4204D9286801223168FEF760F83E
:103EB00001232D4A137000233B60C9F80030FEF740
:103EC00029FE0222237801332370294B1A702A4BD2
:103ED000D8F820201B889A4208D2254B1B78012B4A
:103EE00004D1264B1B68B3F57A7F08D8264B32687D
:103EF0001B689A4252D91E4B1B78012B4ED194F964
:103F00000030022B4ADDFFF781FA0023164A8AF8B7
:103F1000003013702A681A4B9A4204D9286801228B
:103F20003168FEF725F802222378934503F1010357
:103F30002370164B1A7040F0EE800322134B1A7058
:103F400038E000BFB00700209C0700208C0700204D
:103F500090070020A00700208C08002054010020BA
:103F60001B6600082C660008A4070020AC07002090
:103F7000700200203D66000886080020E40700204B
:103F80004F8C0500F4000020300A0020A10700201B
:103F90009B070020A807002072080020BBF1020F39
:103FA00040F0B980C64A137801335BB2042B08BFD6
:103FB00000231370C24C94F900B0BBF1000F2ED156
:103FC00059465846FDF7AAFD029B02211888FDF7C5
:103FD0000FFAFDF723FEBB48FDF720FE019B188872
:103FE00000B2FDF791F9FDF719FEB748FDF716FE8F
:103FF00001210620FDF792FD01210420FDF7B6FD09
:10400000B24B1B78012B40F0938019460720019397
:10401000FDF784FD019B58461946FDF7A7FD94F96D
:1040200000B0BBF1010F27D100210846FDF776FD56
:10403000D8F81000FDF768F9FDF7F0FDA448FDF78A
:10404000EDFD0A23D8F818005946B0FBF3F00193B0
:10405000FDF7CEF9FDF7E2FD9A48FDF7DFFD594681
:10406000D8F82000019BB0FBF3F0FDF7C1F9FDF794
:10407000D5FD9848FDF7D2FD94F90080B8F1020F04
:1040800022D100210846FDF749FD01214046FDF7F8
:104090006DFD00210120FDF741FD8F48FDF7BEFDBC
:1040A0004FF461633868B0FBF3F0FDF72DF9FDF7CD
:1040B000B5FD8A48FDF7B2FD03200121FDF72EFD75
:1040C000D9F80000FEF7A4FA94F90040032C42D17D
:1040D00000210846FDF722FD01210020FDF746FDE5
:1040E00000210120FDF71AFD7B48FDF797FD4FF4F5
:1040F00061632868B0FBF3F0FDF706F9FDF78EFD6C
:104100007648FDF78BFD20460121FDF707FD30685D
:10411000FEF77EFA1FE0BBF1010F7FF44BAF684A58
:104120001378013B5BB2002B1370BFF643AF04E77B
:1041300001210720FDF7F2FC012102206DE7684B09
:104140001B68B3F57A7F06D900210846FDF7E6FC27
:104150006448FDF763FD644801F012FA009B0022F9
:104160001978624801F050FA5F4801F009FA9AF8AC
:10417000001000225E4801F047FA5B4801F000FAA7
:10418000316800225B4801F03FFA574801F0F8F926
:1041900029680022584801F037FA534801F0F0F935
:1041A000564B00221978564801F02EFA4E4801F07D
:1041B000E7F9D9F800100022524801F025FA4A48E0
:1041C00001F0DEF9002239684F4805B0BDE8F04F34
:1041D00001F01ABA3A4CBBF1020F94F900305FD1EA
:1041E00001335BB2042B08BF0023237094F90080D5
:1041F000B8F1000F2DD141464046FDF78FFC434BEF
:1042000002211888FDF7F4F8FDF708FD2D48FDF7A9
:1042100005FD3F4B188800B2FDF776F8FDF7FEFC70
:104220002948FDF7FBFC01210620FDF777FC012161
:104230000420FDF79BFC254B93F800B0BBF1010F68
:1042400037D159460720FDF769FC59464046FDF72E
:104250008DFC94F90080B8F1010F7FF40DAF0021BF
:10426000DFF8B0B00846FDF759FCDBF81000FDF7A9
:104270004BF8FDF7D3FC1648FDF7D0FC0A23DBF81A
:1042800018004146B0FBF3F00193FDF7B1F8FDF7DC
:10429000C5FC0C48FDF7C2FCDBF820004146E1E616
:1042A000BBF1010FA2D1013B5BB2002BB8BF0323CE
:1042B0009BE701210720FDF731FC01210220C6E721
:1042C000A1070020586500084E660008B9070020C5
:1042D000FE5D00084E65000880650008566600080F
:1042E000E40700206C660008996000087D660008FD
:1042F00092660008A7660008B7660008A4070020B9
:10430000CF660008E7660008FA6600088608002005
:104310007208002054010020F0B5344D91B02B8874
:104320003349B3F5E16F5DD2324B1B68062B59D987
:10433000314B324C9B6813F0010318BF0123A3617A
:10434000FFF764F80B78002B4AD101232C4E0B7039
:1043500033682361FCF7CCFB2A4801F011F90222F3
:104360002169294801F050F949F6AF2332689A4291
:1043700015D9264B0BA91868FDF7BCF94FF46163FA
:10438000206901A9B0FBF3F0FCF7F8FF204906AB68
:104390000BAAFDF721F9022106A8FCF7B1FD0A23BB
:1043A00028880122B0FBF3F001A9FDF789F806AADD
:1043B00001461848FDF7FBF8FCF7F0FC0524114F07
:1043C000154E384601F0DCF829880222304601F00B
:1043D0001BF9013C3220FCF77BFE14F0FF04F0D106
:1043E00011B0F0BD00230B70FAE700BF7008002089
:1043F0007102002000080020000C0140F4000020A1
:10440000900700209960000818630008A8070020A2
:10441000416400081D6300082763000801222DE99C
:10442000F041A14BA14C02281A7086B094F90030DB
:1044300040F0308113445BB2082B08BF0023237087
:1044400094F90010F1B9FEF7E1FF0846FDF766FBAD
:104450009748FDF7E3FB974B012118880A23B0FB2F
:10446000F3F0FCF7C5FFFDF7D9FB9348FDF7D6FB4A
:10447000924B02211888FCF7BBFFFDF7CFFB904859
:10448000FDF7CCFB94F90030012B1BD1FEF7BEFFEA
:1044900000210846FDF742FB8A48FDF7BFFB8A4B27
:1044A00002211888FCF7A4FFFDF7B8FB8748FDF749
:1044B000B5FB874BD888FCF727FFFDF7AFFB854896
:1044C000FDF7ACFB94F90050022D1BD1FEF7ECF880
:1044D00000210846FDF722FB7F48FDF79FFB7F4B3D
:1044E00029461888FCF784FFFDF798FB7748FDF70D
:1044F00095FB774B9888FCF707FFFDF78FFB754816
:10450000FDF78CFB94F90030032B1DD1FEF726FB41
:10451000FEF7CAF800210846FDF700FB7048FDF7DA
:104520007DFB704B188800B2FCF7EEFEFDF776FBC2
:104530006D48FDF773FB664B5888FCF7E5FEFDF709
:104540006DFB6448FDF76AFB94F90030042B1DD124
:10455000FEF794F8FEF786FA00210846FDF7DEFA2A
:104560006248FDF75BFB624B188800B2FCF7CCFE9B
:10457000FDF754FB5C48FDF751FB554B1888FCF7E1
:10458000C3FEFDF74BFB5B48FDF748FB94F9003099
:10459000052B45D14C4F584EFEF7E0FAFEF784F854
:1045A0003B883188DFF83C81591A42F210734B4343
:1045B000B8F80020002112B293FBF2F34F4D0846E9
:1045C000AB64FDF7ABFA4E48FDF728FB286CFCF70F
:1045D0009BFEFDF723FB4B48FDF720FBA86CFCF787
:1045E00093FEFDF71BFB4848FDF718FB474800F01A
:1045F000C7FFB8F80010002209B2454801F004F8DE
:10460000424800F0BDFF39880222424800F0FCFF1A
:104610003E4800F0B5FF318802223F4800F0F4FF29
:1046200094F90030062B0FD1FEF7F0FE002108466A
:10463000FDF774FA394B01A91868FCF7ECFFFDF798
:10464000EDFA3748FDF7EAFA94F90030072B1ED14E
:10465000FEF784FAFEF728F800210846FDF75EFA17
:104660003048FDF7DBFA304B1868FCF773FBFCF7BA
:104670004BFEFDF7D3FA2D48FDF7D0FA144B5889BD
:10468000FCF742FEFDF7CAFA0D48FDF7C7FA06B07F
:10469000BDE8F08101287FF4D3AE013B5BB2002B73
:1046A000B8BF0723CBE600BFB0070020A207002059
:1046B000E563000870080020EA6300088408002011
:1046C0007D650008EF6300088C080020586500082D
:1046D000740800207B650008F46300088608002049
:1046E000FA630008720800200064000804640008EF
:1046F000BC0200207A650008BE02002004000020F1
:104700000A6400080D64000812640008996000083B
:104710001A6400081E6400082564000800080020D0
:10472000796500082D6400088808002030640008BE
:10473000F0B500264FF4F02385B07E4C009601962C
:1047400002960396E2897C4D93FBF2F37B4A9BB27F
:104750001380E188AB6AE2894B43B3FBF2F3009329
:104760000098FDF74FF802900298FDF7A7F8744AF9
:1047700074491368184410600B8801331BB20B8016
:104780000B881BB21F2B0CDD2020136893FBF0F36A
:104790006D489BB203800E8016600388022B98BF81
:1047A0000680A1882B6BE2894B43B3FBF2F30093A5
:1047B0000098FDF745F802900298FDF780F8634FE6
:1047C000634E3B68184438603388642001331BB261
:1047D0003380FCF747FC2189AB6BE2894B43B3FB89
:1047E000F2F300930098FDF749F802900298FDF764
:1047F00067F8584A58491368184410600B88013309
:104800001BB20B800B881BB21F2B09DD2020136805
:1048100093FBF0F351489BB2038000230B8013609D
:104820000A23A869618843434B43E289B3FBF2F34F
:1048300001930198FCF7AAFF03900398FDF73CF859
:10484000474A48491368184410600B8801331BB26B
:104850000B800B881BB21F2B09DD2020136893FBF4
:10486000F0F341481BB2038000230B8013600A233E
:10487000286A218843434B43E289B3FBF2F3019357
:104880000198FCF7A1FF03900398FDF716F8374A4B
:1048900037491368184410600B8801331BB20B8032
:1048A0000B881BB21F2B09DD2020136893FBF0F34C
:1048B00030481BB2038000230B8013602E4B2F491E
:1048C0009B6813F0020F15BF2A4B274B1A881B88D1
:1048D00014BF2B69AA689B1A1BB20B8033881BB2CA
:1048E000092B24DD0A223B68254C93FBF2F3254A71
:1048F000136000233B603380106880B22080106812
:104900000228D8BF1360088809882B6C09B24B4372
:104910001D48146893FBF0F3234413601368022BC3
:10492000DCBF002313601368184A9BB2138005B0E4
:10493000F0BD00BF7408002004000020840800209F
:10494000CC070020D00700208C080020D4070020CE
:10495000D8070020DC070020E007002070080020B6
:10496000BC070020C0070020BA020020C4070020B6
:10497000C8070020BC020020000C01407208002083
:10498000BE020020F4070020F0D8FFFF86080020B8
:10499000F8B5FDF7F1FDFFF7BFFC364A364E136858
:1049A000013313603388042B0AD90023334C33803E
:1049B000A268334B1A60FFF7BBFEA268314B1A6046
:1049C000314D324C2B88632B84BF00232B802388EE
:1049D000B3F57A7F40D300232D4F23803B881BB251
:1049E000012B07DC388800B2FCF7D3FD294A136895
:1049F000184410603B881BB2022B07DD388800B2D8
:104A0000FCF7C7FD244A136818441060234B1B7839
:104A1000012B01BF224A136801331360214B1B781D
:104A2000012B01BF204A1368013313601F4B1B7811
:104A3000012B01BF1E4A1368013313601D4B1A6816
:104A400001321A601B6813F0010F0CBF4FF40042D3
:104A50004FF00042184B1A61338801339BB2338008
:104A60002B8801339BB22B80238801339BB2238098
:104A7000F8BD00BFE4070020B802002010E000E00D
:104A80001C07002020070020B6020020B4020020EE
:104A900072080020900700208C0700209B07002050
:104AA0009C070020A4070020A8070020BA070020C8
:104AB000E8070020000800200008014010B51D4C48
:104AC000236843F48033236023689A03FCD563682A
:104AD00023F47C1343F4A0236360E36A23F00F0301
:104AE000E362236843F08073236023689B01FCD555
:104AF000636823F0F0036360636823F4E06363603A
:104B0000636823F460536360636823F0030343F036
:104B100002036360636803F00C03082BFAD10648B4
:104B200001F05AF8002000F039FE636823F4404396
:104B3000636010BD0010024000366E012DE9F047A1
:104B400090B000F04FFEFFF7B9FF1422002109A832
:104B500001F077F82020FDF77BF80420FDF778F8C6
:104B60000820FDF775F84FF60343C74DC74E6B613C
:104B70004FF4094300244FF001097361022740F20A
:104B800003334FF0040809A92846CDE90939CDE9D6
:104B90000B7400F0D2FEBE4B09A92846CDE90939B5
:104BA000CDF830800B9700F0C8FEBA4B09A930460B
:104BB000CDE90939CDE90B7400F0BFFE4FF2F002E8
:104BC000082309A92846CDE90923CDF8349000F03F
:104BD000B4FEB14BB14D5A6942EA09025A615B69B0
:104BE00003EA0903DFF8F8920193019BD9F80C005E
:104BF000C0F30220FDF7BAF94FF4006300FA08F0A1
:104C0000C0B285F80B031C222B60214609A801F0D5
:104C100018F81422214604A801F013F84FF480403C
:104C2000FDF716F84046FDF713F809239C49304676
:104C3000CDE90413032304A9CDE9063400F07DFE79
:104C4000984B04A93046CDE9043800F076FED9F837
:104C50000C00C0F30220FDF789F9202300FA08F0C8
:104C6000C0B285F825036B608F4D09A9EB68284613
:104C700043F08003EB604FF41643CDE909340C2375
:104C8000CDE90B44CDE90D340F9400F037FF2B69CB
:104C9000142223F490432B616B69214623F02A03ED
:104CA0006B61EB6804A843F40053EB60CDE9024468
:104CB00000F0C7FF1422214609A800F0C2FF4FF4FC
:104CC0000070FCF7C5FF4046FCF7C2FF47F67E6365
:104CD00009A93046CDE9093400F02FFE734B4FF49B
:104CE00080781A68A5F5A05522F4804222F01002BF
:104CF0001A601A6802A922F4405242F400521A6063
:104D00001A68284642F020021A601A6822F040020F
:104D10001A601A6842F080021A601A6822F440721F
:104D200042F480721A601A6822F4406242F480628F
:104D30001A605F4A9A605F4ADA605A68120C12047D
:104D400042F008025A601A6842F001021A600294A6
:104D5000CDF80C8000F0BAFD4FF4E0034FF4602072
:104D600004A9CDE904032846CDE90647CDF8208003
:104D700000F0C1FD50494FF40070FDF7DBF84E48DC
:104D8000FDF7AEF84D4940F20520FDF7D3F84B484A
:104D9000FDF7A6F84A4940F20A20FDF7CBF848484B
:104DA000FDF79EF8474940F20F20FDF7C3F845484C
:104DB000FDF796F844494FF40570FDF7BBF84248FB
:104DC000FDF78EF8414940F21920FDF7B3F83F484E
:104DD000FDF786F83E494046FDF7ACF83C48FDF744
:104DE0007FF8AB683B4943F40003AB6040F2051029
:104DF000FDF7A0F83748FDF773F8AB68642043F47B
:104E00000003AB60AB6843F00103AB60FCF760F9F3
:104E1000AB6843F00403AB60AC6814F00404FBD14E
:104E2000AB6843F4A003AB60FCF707FF00F00EFB98
:104E30004FF47A72284B1B68B3FBF2F3013BB3F1DA
:104E4000807F08D2F021254A5360254B83F8231038
:104E50000723946013604FF4004300243361214D15
:104E6000FEF7D4FA20482C60FCF7D8FEFCF740F996
:104E70001E4800F085FB1C4800F018FBFCF7F6FD0F
:104E80002146204634E000BF000C014000080140EC
:104E9000FC00FC04890089040010024000E100E0ED
:104EA000020002040400040400380140080002402B
:104EB0004C2401407408002001003002020060020E
:104EC000030090020400C0020500F0020600200367
:104ED00010002081110050818C02002010E000E0C1
:104EE00000ED00E0900800207A020020AE6000088B
:104EF000FCF714FE4FF47A70FCF7EAF8FBF718FAA7
:104F00002B68172B88BF2C60FBF71EFD044600287A
:104F100072D14FF47A70FCF7DBF8FBF715FD04460D
:104F2000B24800F02DFBB24800F0C0FA002C63D16B
:104F3000B048FCF773FE4FF47A60FCF7C9F8AE484E
:104F4000FBF72CFFA94800F01BFBA94800F0AEFAC4
:104F5000AA4DAB4B2A69AB4C1A604FF461632269CE
:104F6000A94E5343A94A1360A268A94B1A60236C47
:104F7000A84A33601360FBF7B9FE4FF47A70FCF770
:104F8000A7F8FCF739FEA448FCF7BCFCA368012B8A
:104F900039D1A248FCF79CFC4FF00009A04FDFF884
:104FA000FC82384600F0ECFA9E4CD8F80010002243
:104FB0009D4800F029FB384600F0E2FA2168002203
:104FC0009A4800F021FB384600F0DAFAD8F80010D1
:104FD00023680022C91A964800F016FB954A1378F8
:104FE00001331370FDF7FAFA431E0446032B27D84A
:104FF000DFE803F0214A4E55012CA9D17B4800F08F
:10500000BFFA8D48A2E7022B01D18C48C2E7032BDF
:1050100001D18B48BEE7042B01D18A48BAE7052BA2
:1050200001D18948B6E7062B01D18848B2E7072BA2
:10503000AFD18748AEE7FCF745FC4068FCF748FC79
:10504000FCF740FC754BDFF858A283422BD1204679
:10505000FDF756FB9AF8003003F0FF0183B9FEF725
:10506000D5F97C4B19707C4B19707C4B1B68AB607D
:105070007B4B1A687B4B1A607B4B197001233360A2
:105080006420FCF725F88CE7FCF71CFC0068D5E7EA
:105090000220FCF741FCFCF715FCC068CEE7FCF7EA
:1050A00011FC8068CAE7FCF70DFC644B834203D116
:1050B0002046FDF76BFDCDE7FCF704FC604B834217
:1050C00003D12046FEF7AAF9C4E7FCF7FBFB5D4BD2
:1050D000834203D12046FEF711FBBBE7FCF7F2FB4E
:1050E000594B834203D12046FEF7C0FCB2E7FCF7E0
:1050F000E9FB5E4B834203D12046FEF713FEA9E78E
:10510000FCF7E0FB514B834203D12046FDF734FE10
:10511000A0E7FCF7D7FB4E4B834203D12046FEF7B6
:1051200081F897E7FCF7CEFB514B834203D1204631
:10513000FDF782FD8EE7FCF7C5FB4E4B834203D1A2
:105140002046FFF76BF985E7FCF7BCFB4A4B83422F
:1051500003D12046FCF732FF7CE7FCF7B3FB474B5B
:10516000834203D12046FCF799FF73E7FCF7AAFBC3
:10517000434B834203D12046FCF76CFF6AE7FCF700
:10518000A1FB404B834203D12046FDF78BFC61E736
:10519000FCF798FB3C4B834203D12046FDF71CFBF8
:1051A00058E7FCF78FFB394B834203D12046FDF7CC
:1051B000BBFB4FE7FCF786FB354B834203D1204610
:1051C000FDF77AFB46E7FCF77DFB324B834203D1C8
:1051D0002046FDF739FB3DE7FCF774FB2E4B83427D
:1051E00060D12046FDF7D8FB34E700BFAE60000871
:1051F0009B710008B3710008C4710008F40000201E
:10520000940700205401002074020020300A00207E
:10521000340A00202C0A0020011E0008506E0008ED
:105220009960000820070020D2710008D971000899
:10523000D671000899070020D45F0008A86E000806
:10524000006F0008586F0008B06F00086070000819
:10525000B8700008B1070020A107002090070020C7
:10526000A8070020AC0700209A070020DC6F000888
:105270001071000868710008B46A0008246800080A
:10528000CC670008D46800087C680008DC69000866
:10529000846900082C690008246A00081C070020A3
:1052A000B0070020FCF70EFB2D4B834203D12046B4
:1052B000FCF718FFCEE6FCF705FB2A4B834203D12F
:1052C0002046FCF76BFFC5E6FCF7FCFA264B834251
:1052D00003D12046FCF788FFBCE6FCF7F3FA234B2A
:1052E000834203D12046FCF7F1FFB3E6FCF7EAFA6C
:1052F0001F4B834203D12046FDF70AF8AAE6FCF7CC
:10530000E1FA1C4B834203D12046FDF723F8A1E6C6
:10531000FCF7D8FA184B834203D12046FDF738F842
:1053200098E6FCF7CFFA154B834203D12046FDF7F0
:105330004DF88FE6FCF7C6FA114B834203D12046A5
:10534000FDF7A0F886E6FCF7BDFA0E4B834203D1C9
:105350002046FDF7DDF87DE68AF800907AE600BF8A
:105360006C6A00080C6B0008386B0008BC6B000806
:10537000146C00086C6C0008C46C00081C6D0008FC
:10538000F86D0008CC6D00080E4B82B09A6942F0AF
:1053900001029A619A6902F001020092009ADA69A8
:1053A00042F08052DA61DB69074A03F080530193CF
:1053B000019B536823F0E06343F00073536002B035
:1053C000704700BF00100240000001407047FEE738
:1053D000FEE7FEE7FEE770477047704708B5FFF746
:1053E000D7FABDE8084000F009BA704714490B68C5
:1053F0001B0624D5134BB3F8582492B2DAB1B3F894
:105400005824013A92B2A3F85824B3F8562492B221
:10541000501C80B2A3F856041A4492F86C20D2B201
:105420004A60B3F8562492B2B2F57A7F07D10022CF
:10543000A3F856247047CB6823F08003CB607047F5
:1054400000380140C002002070470000124A10B529
:105450005368124903F00C03082B0AD0104B0B6061
:105460005368104AC3F30313D25C0B68D3400B603C
:1054700010BD53685068C3F38343C00341BFD06A73
:10548000074C00F00F0001304CBFB4FBF0F00648B1
:1054900002334343E3E700BF001002408C020020C8
:1054A00000127A00DD71000800093D00324A30B573
:1054B000134640F2C934B2F858148C42FBD32F493A
:1054C000CA6822F08002CA600021027802F0FF045C
:1054D0004ABBB3F8542492B2511C89B2A3F85414B5
:1054E0000A211A4482F86C10B3F8542492B2B2F52F
:1054F0007A7F08BFA3F85444B3F85824013292B21B
:10550000A3F85824B3F85A24B3F85814914282BF30
:10551000B3F8582492B2A3F85A24184AD36843F037
:105520008003D36030BDB3F85424441C92B2551CA0
:10553000ADB2A3F8545400781A44C0B282F86C009B
:10554000B3F8542492B2B2F57A7F08BFA3F854148A
:10555000B3F85824013292B2A3F85824B3F85A246D
:10556000B3F85804904288BFB3F85824204684BF4B
:1055700092B2A3F85A24A8E7C002002000380140E4
:105580001F4A30B5134640F2C934B2F858148C4261
:10559000FBD31C49CA6822F08002CA60002102784D
:1055A0002AB9184AD36843F08003D36030BDB3F8FA
:1055B0005424441C92B2551CADB2A3F85454007844
:1055C0001A44C0B282F86C00B3F8542492B2B2F517
:1055D0007A7F08BFA3F85414B3F85824013292B26A
:1055E000A3F85824B3F85A24B3F85804904288BF5B
:1055F000B3F85824204684BF92B2A3F85A24CEE7C9
:10560000C00200200038014073B501918DF80320DD
:105610009DF8033004460198002B44D1FBF774FE3B
:10562000494A40F2C9351346B2F858148D42FBD3AB
:1056300000254649CA6822F08002CA60227802F03A
:10564000FF01002A34D10138B3F8542410F8014F77
:1056500092B2002C55D1511C89B2A3F854140A21DE
:105660001A4482F86C10B3F8542492B2B2F57A7FDF
:1056700008BFA3F85444B3F85824013292B2A3F8F7
:105680005824B3F85A24B3F85814914282BFB3F89F
:10569000582492B2A3F85A242C4AD36843F08003CA
:1056A000D36002B070BD9DF80310FBF7A1FEB7E711
:1056B000B3F85424611C92B2561CB6B2A3F85464D9
:1056C00024781A44E4B282F86C40B3F8542492B2BD
:1056D000B2F57A7F08BFA3F85454B3F858240132C6
:1056E00092B2A3F85824B3F85A24B3F85844944219
:1056F00088BFB3F858240C4684BF92B2A3F85A244A
:105700009CE7541CA4B2A3F8544404781A4482F8C9
:105710006C40B3F8542492B2B2F57A7F08BFA3F874
:105720005414B3F85824013292B2A3F85824B3F8B1
:105730005A24B3F85844944282BFB3F8582492B222
:10574000A3F85A2480E700BFC002002000380140BF
:10575000002103E00B4B5B58435004310A480B4BCC
:1057600042189A42F6D30A4A02E0002342F8043B68
:10577000084B9A42F9D3FFF767FE00F033FAFFF7C0
:10578000DDF9704700720008000000209802002038
:10579000980200203C0A0020FEE7000038B50E4BBE
:1057A000054618784FF47A73B3FBF0F30B4A106890
:1057B000B0FBF3F000F074F8044658B90F2D09D887
:1057C000024629464FF0FF3000F036F82046044BE1
:1057D0001D6038BD0120FCE7900200208C020020F3
:1057E0009402002008B5032000F014F80020FFF711
:1057F000D5FFFFF7C9FD002008BD0000034A044B98
:1058000011681B780B441360704700BF380A0020F2
:1058100090020020074A0002D36800F4E06023F4FD
:10582000E0631B041B0C43F0BF6343F400330343EA
:10583000D360704700ED00E0174B70B5DC684FF0A7
:10584000FF36C4F30224C4F10705042D04F1040358
:1058500028BF0425062B98BF002406FA05F388BF4D
:10586000033C21EA0303A34006FA04F422EA0404F9
:10587000002843EA0403A8BF00F160404FEA031385
:10588000B8BF064ADBB2ABBF00F5614000F00F00C5
:1058900080F80033135470BD00ED00E014ED00E01B
:1058A0000138B0F1807F0AD2F021064B064A5860D9
:1058B00082F823100020072298601A6070470120A8
:1058C000704700BF10E000E000ED00E0836810B515
:1058D00013F001030DD142684C6822F48072224318
:1058E00042608268096822F400620A4382601846B6
:1058F00010BD0120FCE7836810B5DB071BD44368AB
:105900004A6823F4684312B18C681343234343600D
:1059100083680C6823F4602323F481732343CC68E9
:10592000096923430B438360C36A23F47003134361
:10593000C362002010BD0120FCE72DE9F04F0C6888
:105940000246C4F30F2494FAA4F34FF00F09B3FAFC
:1059500083F34FF003084FF0040C40F2011734FAC0
:1059600003F001D1BDE8F08F01209840204266D0BD
:10597000072B88BF4FF001104D6884BFA3F1080EBC
:1059800000FA0EFE25F0080594BF07FA03FE4EF05C
:10599000806E012D4FEA1E602BD19EFAAEF5B5FA4E
:1059A00085F59EFAAEFBBBFA8BFB1658AD0008FAE4
:1059B00005F526EA050A8D684FEA8B0B05FA0BF50B
:1059C0004AEA050515509EFAAEFABAFA8AFA9EFA24
:1059D000AEFBBBFA8BFB4FEA8A0A0CFA0AFA25EAFD
:1059E0000A0ACD684FEA8B0B05FA0BF54AEA050562
:1059F0001550D5684FEA1E2A9AFAAAFBBBFA8BFB10
:105A000025EA0A0A0D6905FA0BF54AEA0505D5608B
:105A10009EFAAEFABAFA8AFA9EFAAEFEBEFA8EFE86
:105A200015584FEA8A0A09FA0AFA25EA0A0A4D685D
:105A30004FEA8E0E05FA0EF54AEA050515500133B8
:105A40008DE70000034B044A5B68C3F30313D35C88
:105A5000D840704700100240DD710008034B044A33
:105A60005B68C3F30223D35CD84070470010024048
:105A7000ED710008034B044A5B68C3F3C223D35C97
:105A8000D840704700100240ED710008094B5A6879
:105A900002F4803262B1D86A074A00F00F00013088
:105AA000B2FBF0F05B68C3F38343023358437047A3
:105AB0000248F7E70010024000127A0000093D009A
:105AC000044B5B6803F00C03082B01D1FFF7DEBF2A
:105AD000014870470010024000127A0008B50146E4
